:400000000080002011000000653900006539000008B5044B1A6803F53F5302331A6004F0B5F800BFFA46004010B5054C237833B9044B13B10448AFF300800123237010BD8A
:40004000E881FF1F0000000020B50000084B10B51BB108490848AFF300800848036803B910BD074B002BFBD0BDE81040184700BF00000000EC81FF1F20B50000C080FF1F20
:400080000000000010B50446AE2006F067FDD52006F064FD802006F061FDA82006F05EFD1F2006F05BFDD32006F058FD002006F055FD402006F052FD8D2006F04FFD012CBC
:4000C00003D1102006F04AFD02E0142006F046FD202006F043FD002006F040FDA12006F03DFDC82006F03AFDDA2006F037FD022006F034FD812006F031FD8F2006F02EFD9F
:40010000D92006F02BFD012C03D1222006F026FD02E0F12006F022FDDB2006F01FFD402006F01CFDA42006F019FDA62006F016FD2E2006F013FDAF2006F010FD10BD00BF77
:4001400000B583B0002101912023009380230A46024806F03FFB03B05DF804FB0482FF1F2DE9F04383B006460D461F4603F003031B010FFA82F9DFF8408003F10C024946B5
:40018000404606F023FB7A1C05EB45018B0000240194120100921BB23A014946404606F019FB04E0315D044806F05AFC0134AC42F8DB03B0BDE8F0830482FF1F70B51546DA
:4001C0001E46064CCAB20146204606F0A7FA33462A4601462046FFF7C3FF70BD2882FF1F08B506F0EDFC08BD10B504460A490B4806F0B2FAFFF7A4FF00231A4609210848F8
:40020000FFF7AEFF0123002202212046FFF7D6FFFFF7E6FF10BD00BF00B600000482FF1FA0DA000038B5FFF78BFF1D4D1D4C05F10C01204606F090FA0121204606F0C0FAE5
:400240000123002219461848FFF78AFF01231C220221606CFFF7B2FF05F11801204606F07BFA0121204606F0ABFA636C04F14805C3EBC30358000023562203212844FFF701
:400280006FFF636CC3EBC303580003300123562203212844FFF764FFFFF7A2FF38BD00BF00B600000482FF1FACDA000008B5FFF7B9FF2121024B93F8440006F0F1FF08BDDE
:4002C0000482FF1F08B5204B703A83F8602183F8610183F8621193F8643113F0FF0F07D002F0BCFE20B100221849032007F046F8154BB3F866210432A3F86621D3F8683113
:400300000B2B18D8591C104A92F86001134483F86C014B1C92F86101114481F86C01591CC2F8681192F86211134483F86C110123C2F87C3108BD044AB2F880319BB20133A2
:400340009BB2A2F8803108BD0482FF1F6483FF1F38B5FFF7F5FE1B4D1B4C05F10C01204606F0FAF90121204606F02AFA012300220221D4F88401FFF721FF05F11801204699
:4003800006F0EAF90121204606F01AFAD4F8843104F5C475C3EBC30358000023302207212844FFF7DDFED4F88431C3EBC303580007300123302207212844FFF7D1FEFFF730
:4003C0000FFF38BD00B600000482FF1F38B50220FFF758FE002303E00021124AD1540133B3F5806FF8DB104C20228021204606F09FFB0E4D05F12401204606F0ADF92946E3
:40040000204606F0A9F900220121204606F0D4F90121204606F0D4F9FFF79AFFFFF7E0FE38BD00BFFCA0FF1F0482FF1F00B6000008B5FFF78DFF2021024B93F8840106F008
:400440002FFF08BD0482FF1F2DE9F04186B006F0B1FEB0FA80F04009019004F069FCB0FA80F04009029004F05BFCB0FA80F04009039004F04DFCB0FA80F04009049006F016
:40048000D3FDB0FA80F04009059000232BE006AA02EB830252F8141C99B18F4A02EB8302D2F8A022012A0CD18B4A02EB8302D2F8B822632A05DC884800EB83000132C0F8FF
:4004C000B822854A02EB8302D2F8A0222AB9824A02EB83020020C2F8B8027F4A02EB8302C2F8A0120133042BD1DD7B4BD3F8B8325F2B0DD1784CD4F8D002B0FA80F0400940
:40050000C4F8D002222106F0CBFE6123C4F8B832714BD3F8D032714A13601BB1012006F077FD02E0002006F073FD6B4BD3F8BC325F2B34D1684B93F8D432C3B9664BD3F851
:400540008431122B04DC0133634AC2F8843103E00022614BC3F88421FFF76AFF5E4BD3F8842183F8D522032283F8D62213E05A4B5B6C122B03DC0133574A536402E00022BB
:40058000554B5A64FFF792FE534B5A6C83F8D722042283F8D62261224F4BC3F8BC224E4BD3F8C0325F2B34D14B4B93F8D432C3B9494BD3F88431002B04DD013B464AC2F802
:4005C000843103E01322444BC3F88421FFF730FF414BD3F8842183F8D522032283F8D62213E03D4B5B6C002B03DD013B3A4A536402E01322384B5A64FFF758FE364B5A6C65
:4006000083F8D722042283F8D6226122324BC3F8C022314BD3F8C4325F2B50D12E4BD3F8D802002828DD0130C3F8D802102820DD0026C3F8D862B04615E005EB8804274BEE
:4006400003EB8404771CB1B2607906F029FEB9B20236207906F024FE013500E00025032DEBDD08F10108B8F1030FF7DDFFF7E0FE21E0FFF7B9FD1EE0174BD3F8A832012B4E
:400680000BD1154BD3F8A032012B06D10120124BC3F8D802FFF7A8FD0DE00F4A92F8D432B3FA83F35B0982F8D43213B1FFF7FEFD01E0FFF7BDFE6122074BC3F8C422064BC5
:4006C000D3F8C8325F2B03D16122034BC3F8C82206B0BDE8F08100BF0482FF1FC480FF1F2DE9F843074616460D1E14DD28460AF0A1FC4FF05E510AF0F1FC09F023FC5D4922
:400700000AF0E2FB5C490AF0E9FC0AF0C3FE05467F2800DD7F25002D0DDC90E0574A02EBC302D2F8E022914203DA5449C1F8FC321146013301E000231946032BEEDD022D41
:400740000ADD45290ADD322D0ADC4C4BD3F80033132B07D9002306E0012304E0002302E0002300E00123BBB135E0444B03EBC403D3F8DC0200280DDB00221146FFF7A2FD7C
:400780003E4B03EBC4034FF0FF32C3F8DC220022C3F8E022013400E00024032CE5DD374C4FF00008C4F8008304EBC603C3F8DC72C3F8E05204EB060989F804834246294615
:4007C0003846FFF77FFD04EB8606C6F8088389F81883BDE8F883294BD3F81C2302EB820290001844C0F82073D3F81C2302EB820290001844C0F82453D3F81C2302EB8202D2
:4008000090001844C0F82813D3F81C23D3F8FC0202EB820291001944C1F82C03D3F81C2302EB820291001944C1F83063D3F81C23013202F01F02C3F81C23BDE8F8830F4B46
:4008400003EBC603D3F8DC02002803DD00221146FFF738FD094A02EBC6014FF0FF33C1F8DC320023C1F8E032164486F80433BDE8F88300BF0918C43C551D02430482FF1FD5
:4008800070B582B004460D46164604F059FA8DF807009DF8073013F0800F29D13346EAB21549204604F0CEFA8DF807009DF8073013F0FF0F19D14CF2503404F053FA8DF84D
:4008C00007009DF80730013C02D180238DF807309DF8073013F0820F0AD19DF8073013F0FF0F05D0002CE8D102E080238DF807309DF8070002B070BD04A5FF1F00B583B079
:400900001346CAB2044904F045FA8DF807009DF8070003B05DF804FBA487FF1F10B541F6FF734FF480420121084604F07DF9214C84F8A40501F08CFB84F8A50594F8A50537
:400940000223FE22102101F055FB94F8A50504F5B56292B246F2584101F03EFB94F8A40594F8A51501F0B0FB41F6FF734FF480420121084606F0F8FB84F8B80501F068FB90
:4009800084F8B90594F8B9050223FE22102101F031FB94F8B90504F2BC5292B246F2534101F01AFB94F8B80594F8B91501F08CFB10BD00BF0482FF1F10B54FF4804341F66F
:4009C000FF720121084604F011F9214C84F8CC0501F03EFB84F8CD0594F8CD050123FE22102101F007FB94F8CD0504F5BA6146F2484289B201F0F0FA94F8CC0594F8CD150B
:400A000001F062FB4FF4804341F6FF720121084606F08CFB84F8E00501F01AFB84F8E10594F8E1050123FE22102101F0E3FA94F8E10504F2E45146F2434289B201F0CCFA03
:400A400094F8E00594F8E11501F03EFB10BD00BF0482FF1F70B5002451E004F0010004F019F9C4F3400004F0FDF8264E0025C6F8F455284600F0FCFD042000F031FF00F0A9
:400A8000EFFD284600F0D4FD00F09CFDC6F8F8050120C6F8F40500F0EBFD042000F020FF00F0DEFD284600F0C3FD00F08BFDB0F57A7F03DDD6F8F835632B11DD0AF0BAFAF0
:400AC0000546104BD3F8F8050AF0B4FA014628460AF0B8FB0C490AF001FB0AF0DBFC01E04FF6FF70074A02EB8403C3F8FC05D2F8F435013303F00103C2F8F4350134032CE7
:400B0000ABDD70BD0482FF1F00409C4608B5204B503A83F8602183F8610183F8621193F8643113F0FF0F07D002F098FA20B100221849032006F022FC154BB3F866210432E2
:400B4000A3F86621D3F868310B2B18D8591C104A92F86001134483F86C014B1C92F86101114481F86C01591CC2F8681192F86211134483F86C110123C2F87C3108BD044AB0
:400B8000B2F880319BB201339BB2A2F8803108BD0482FF1F6483FF1F08B5224B203983F8601100F07F0283F86121C01183F8620193F8643113F0FF0F07D002F04FFA20B1B3
:400BC00000221949032006F0D9FB164BB3F866210432A3F86621D3F868310B2B18D8591C104A92F86001134483F86C014B1C92F86101114481F86C01591CC2F8681192F856
:400C00006211134483F86C110123C2F87C3108BD044AB2F880319BB201339BB2A2F8803108BD00BF0482FF1F6483FF1F10B4284B93F80C36D3B91DE0CA5C12F0800F0CD192
:400C40002348D0F81026541CC0F81046C2F30A02CC5C024482F8144606E0F72A04D100221B4B83F80C2630E0013300E00023022BE2DD2AE00B78F02B27D1154B93F8143E69
:400C80001BBB4B787E2B04D10122114B83F8152E1BE0012B01D9032B17D10D4B012283F80C26D3F8103683B99A180948C3F30A0303444C7883F81446531CC0F81036C2F38C
:400CC0000A0283188A7883F8142610BC704700BF0482FF1F2DE9F843BD4B012283F8142E93F81436002B40F0BA81B94B0022C3F8182E83F81C2E93F8150683F81D0E0224AE
:400D000011E0A21EB24B191991F8141601F07F019D1885F8201EC0EBC00503EB4503134483F8881101340F2CEBD90122A84B83F81C2E002510E0A31EA548021992F814267D
:400D400002F07F02034483F8202E0134013100E000210D29EFDD0135072DF9DD02229C4B83F81C2E74E19A4A131993F81456611C114491F814365B0543EA0573A11C114460
:400D800091F8145643EA8533E11C114491F8145643EAC513211D114491F8145605F07F051D438C4BC3F8285192F81C3E022B75D1D2F8186EB6B928460AF092FB80B2854B9A
:400DC000A3F82C01824B06F17E02010A1A4482F8201EB21CC3F8182E7F36C0B21E4486F8200E34E17B4BB3F82C3101335B009E421BD2794928460AF071F90AF071FB80B257
:400E0000734A06F17E03010A134483F8201EB11CC2F8181E7F36C0B2164486F8200E6D4B03EB8103C3F8305111E19E4240F00F81684BC3F87057D3F8700768490AF0ECFA78
:400E4000E8B1644BD3F8700765490AF003FBB0B15F4A06F17E031344EF2183F8201EB31CC2F8183E06F17F03134483F8201E032382F81C3E0022574BC3F87427E7E0554ABE
:400E8000D2F878370133C2F87837514B0022C3F8102683F8D62283F8152ED8E0032B1ED128460AF01DFB80B24A4DA5F87C07484AD2F8183E03F17E01060A114481F8206E6D
:400EC000991CC2F8181E7F33C0B2134483F8200E042382F81C3E0023A5F87E37B7E0042B40F0B5803B4BB3F87E67B3F87C379E427AD2384BD3F8743713F003030FD1344F89
:400F0000D7F8183E5A1CC7F8182E03F17E0628460AF0E6FAC0B2BB1983F8200E51E0012B0FD12B4FD7F8183E5A1CC7F8182E03F17E0628460AF0D4FAC0B2BB1983F8200E6E
:400F40003FE0022B20D1002128460AF065FA58B11F4AD2F8183E591CC2F8181E7E331344FF2283F8202E2CE0194FD7F8183E5A1CC7F8182E03F17E0628460AF0B1FAC0B252
:400F8000BB1983F8200E1CE0164928460AF0A6F80AF080FA00B20E4AD2F8183E03F17E01C0F30725114481F8205E991CC2F8181E7F33C0B2134483F8200E0136054BA3F82C
:400FC0007E67044AD2F874370133C2F874373EE00482FF1FFC92FF1F00FF7F470000C0BF000020C000FEFF46954928460AF014FAF8B1944928460AF02DFAD0B1924AD2F84B
:40100000183E03F17E011144FE2081F8200E991CC2F8181E7F33134483F8200E052382F81C3E012382F8D6327E31884BA3F880170DE0864AD2F878370133C2F87837824B80
:401040000022C3F8102683F8D62283F8152E05347D4BD3F810369C42FFF485AEE6E0012B40F08280784B0E22C3F8182E93F81546764B83F88247022212E0911E724B9818E1
:4010800090F8140600F07F00C4EBC40503EB45030B4483F848006D4B194481F8840701320F2AEADD102435E0674D2B1993F81406621C2A4492F814365B0543EA0073A21CAF
:4010C0002A4492F8140643EA8033E21C2A4492F8140643EAC013221D2A4492F8140600F07F001843594EC6F828014FF0884109F0F5FF0AF0F5F980B2D5F8182E531C32443E
:40110000010A82F884175A1CC5F8182E334483F8840705344C4BD3F810369C42C4D34A4CD4F8183E5A1C49490B44EF2083F88407531CC4F8183E0A4482F884079BB2A1F865
:401140008037B3F5887F0AD0D1F878370133C1F87837002284F8D62284F8152E66E00222394B83F8D62261E0032B5FD10027364BC3F8187E0225232653E0334A531993F8B6
:401180001446691C114491F814365B0543EA0473A91C114491F8144643EA8433E91C114491F8144643EAC413291D0A4492F8144604F07F041C43254BC3F82841244B3B4036
:4011C00003D5013B63F0030301332049D1F82801204A02EB8308C8F84400D1F8280104F077F8C8F85400013706F10108B1B2200E06F056F806F102091FFA88F1C4F3074005
:4012000006F04EF806F103081FFA89F1C4F3072006F046F81FFA88F10436E0B206F040F80535094BD3F810369D42A6D3064B002283F8142EC3F8102683F8152EBDE8F88349
:40124000000020C0000060C00482FF1FFC92FF1F03000080C480FF1F024B187800F00700704700BF02410040034B1A7800F0F80010431870704700BF02410040014B1888E4
:4012800080B270470041004070B505460E46FFF7E3FF0446FFF7F2FFA84256D02B4B1B7803F0010294B900B185B938B9284B1D80284A137803F0BF03137070BD254A13784F
:4012C00043F040031370224B1D8070BD22B3002321490B70012413310C7004390B7008390B7803F07F030B701A4B1B7813F0080F00D08DB9194B18800721013B1970164B1E
:401300001B7813F0010FFAD110490B7803F0FE030B700021104B19700C4B1B7813F0010F0DD00E4B1D800EB1032200E001220A4B1A70094B1B7813F0010FFAD170BD044B15
:401340001D8002490B7813430B7070BDA143004000410040024100400140004002400040024B187800F00700704700BF82400040034B1A7800F0F80010431870704700BF74
:4013800082400040014B188880B270478040004070B505460E46FFF7E3FF0446FFF7F2FFA84256D02B4B1B7803F0010294B900B185B938B9284B1D80284A137803F0BF038B
:4013C000137070BD254A137843F040031370224B1D8070BD22B3002321490B7001240F310C7004310B700C390B7803F07F030B701A4B1B7813F0080F00D08DB9194B1880C9
:401400000721013B1970164B1B7813F0010FFAD110490B7803F0FE030B700021104B19700C4B1B7813F0010F0DD00E4B1D800EB1032200E001220A4B1A70094B1B7813F01D
:40144000010FFAD170BD044B1D8002490B7813430B7070BDA243004080400040824000400140004002400040704700BF074B1B7813F0020F08D0064BB6221A70E0221A70FC
:401480000D221A70072070470420704722470040204700400C4B1B7813F0020F0FD00B4BB6221A70E1221A700E221A7002331B7813F0020F05D1054B187007207047042002
:4014C00070470920704700BF224700402047004070B41D4C247814F0020F2CD01B4CB6252570D5252570022525700234247814F0020F22D1154C2070002404E0165D134D44
:401500002E700134A4B29C42F8D3B3F5807F16D13F2816D800F5103001EB00214801002305E01A5CD2B209490A7001339BB21F2BF7D9072006E0042004E0092002E00720BB
:4015400000E0072070BC7047224700402047004010B5044604F090FF204604F04FFF10BD08B506F0B9F80B4A137843F020031370A2F20112137843F01003137002F5807229
:40158000137843F01003137006F0AAF803F01EFD08BD00BF9965004008B50F22074B1A7003F06EFD03F09EFD03F096FD0222044B1A70202203F580731A7008BD896500408C
:4015C00088640040154B1B7803F00303012B07D8134B1888023B1B889BB243EA004013E0022B0AD10E4B1888023B1B7843EA00430C4A107843EA002006E00B4B188883B2C0
:40160000074A108843EA0040084B1B7813F0FF0F02D00022054B5A70704700BF144E0040124E0040114E0040104E0040A09BFF1F094B1B7813F0FF0F03D0074B5B78DBB284
:4016400003E0064B1B7803F00103012B01D00028EED01846704700BFA09BFF1F014E0040024A137843F0010313707047004E004010B50446074B1878FF2801D0FFF768FFF1
:40168000204604F02BFF204604F0D8FE014B1C7010BD00BF2881FF1F10B5002407E0204604F0EAFE204604F0A9FE0134E4B2012CF5D9FF22014B1A7010BD00BF2881FF1F28
:4016C00008B506F009F80A4B00229A705B68012B0AD1084A136843F00103136000BF00BF00BF0022024B5A6005F0FAFF08BD00BFA09BFF1F0400084010B505F0EDFF0F4BF7
:401700009B78A3B901220D4B9A700D4B1B6813F0010F0ED00A4A136823F00103136000BF00BF00BF0122054B5A60002402E0042400E0002405F0D4FF204610BDA09BFF1FA0
:401740000400084030B4104C247814F0020F15D00E4CB6252570D8252570052525700234247814F0020F0BD1084C2070080A2070C9B2217022702370072002E0042000E0A5
:40178000092030BC704700BF224700402047004030B43E2801D81F2B03D93F2827D90F2B27D8174C247814F0020F24D0154CB6252570D4252570012525700234247814F06D
:4017C000020F1AD10F4C2070C1F300202070C9B22170591EC9B22170002104E0545C094804700131C9B29942F8D3072006E0012004E0012002E0042000E0092030BC70475D
:40180000224700402047004008B505F065FF064A137843F0080313701032137843F00803137005F05DFF08BDA0430040134B1B78DBB20360124A127843EA02230360114A08
:40184000127843EA024303600F4A127843EA026303600E4B1B78DBB243600D4A127843EA022343600B4A127843EA024343600A4A127843EA02634360704700BF0301004975
:4018800004010049EC460040020100490101004900010049050100490601004908B505F01BFF00BF00BF00BF00BF00BF00BF00BF00BF00BF00BF00BF00BF00BF00BF00BFEB
:4018C00000BF064A13889BB243F0040313801388BFF36F8F05F004FF08BD00BF0048004008B500EB8003C0EB031005F0EDFE08BDF8B5074605F0F0FE06460D4D2B7843F0EE
:4019000003032B700B4C237843F0030323700A4B1F700320FFF7E4FF2B7803F0FC032B70237803F0FC032370304605F0D9FEF8BDF8460040F94600409258004070B505F0E0
:40194000CBFE06462A4B5B782A4B1A7842F001021A701A7842F010021A7010331A7842F001021A701A7842F010021A70224D2B7843F002032B70214C237843F00203237038
:401980001F4A137843F0030313700320FFF7A8FF2B7803F0FD032B70237803F0FD032370184A137843F0060313707A22164B1A70164A137843F0010313701032137843F08D
:4019C000010313700F3A137843F0010313701032137843F0010313704FF000530C4A1360A2F5C0721360304605F07AFE70BD00BF2881FF1FAA430040F8460040F9460040F4
:401A0000915800407758004082580040A143004080E200E070B506460D4600240CE00120FFF75EFF064B1B7813F0010FF7D0054B1B7833550134E4B2AC42F3D3204670BD6B
:401A400022470040204700402DE9F041441FE4B23A2C01D9002500E0012510F0800F00D00125412800D901253F2803D8B1F5807F06D808E0802900D90125102B02D102E039
:401A8000012500E0012502B90125002D50D1984616460F460446FFF72FFE002847D14346324639462046FFF713FD064607283AD102E00120FFF714FF1F4B1B7813F0020F00
:401AC000F7D01D4B1B7813F0020F06D01A4B1B789B0805D04FF0FF3603E04FF0FF3600E02E4606BB154A5378127839462046FFF729FE072804D0064615E00120FFF7F0FEEB
:401B00000D4B1B7813F0020FF7D00B4B1B7813F0020F06D0084B1B789B0804D04FF0FF3601E04FF0FF36FFF7CBFD354600E004252846BDE8F08100BF22470040DCA6FF1F18
:401B400010B5FFF761FEFFF7D7FDD0B9FFF78EFC0446072812D102E00120FFF7C1FE0A4B1B7813F0020FF7D0074B1B7813F0020F04D0054B1B789B0800D10024FFF7A0FDC6
:401B800000E00424204610BD2247004010B5FFF73BFEFFF7B1FD10BB0120FFF77BFC072818D102210F48FFF735FF02280AD102E00120FFF795FE0C4B1B7813F0020FF7D03E
:401BC000002409E0084B1B7813F0020FE9D04FF0FF3401E04FF0FF34FFF772FD00E00424204610BDDCA6FF1F2247004010B5044604E0074805F068FDA4F50044B4F5004F06
:401C0000F7D8044800FB04F005F05EFD10BD00BF0000059A0A340100024A137843F0010313707047F646004001BE704710B59DF80840012C52D1013809282ED8DFE800F08D
:401C4000052D2D052D2D0F192D230F2B03D92548007840B222E02448007840B21EE00F2B03D92248007840B218E02148007840B214E00F2B03D91F48007840B20EE01E4887
:401C8000007840B20AE00F2B03D91C48007840B204E01B48007840B200E0002001EB401101FB02F1C90B8AB20D2B0BD8C3F10E0289B211418AB2611E124800EB81010133DD
:401CC0008B7205E0631E0F4901EB83030F219972013C0C4B03EB8404228110BD0020FFF7A3FF10BD180100491C010049190100491D0100491A0100491E0100491B010049BA
:401D00001F010049A09BFF1F38B504460D46072902D90020FFF788FF1F2C02D90020FFF783FF04F01F0000F1604000F564406D01EDB2057038BD00BF70B504460E46074B69
:401D40001D681F2802D90020FFF76EFF04F01F04103455F8240045F8246070BD08ED00E0F8B500222F4B1A7001285AD130222E4B1A70062702331F7009232C4A13700024F4
:401D800001321470013214701F210132117002321470013214700132147001250A321570142102F527621170102601321670013213701F4B1C70222304321370242101326D
:401DC0001170042101321170022102321170013213702822174B1A70EB2201331A704420FFF786FDC022144B1A70032201331A7005331D7001331D7001331C700A220133C9
:401E00001A704FF47A62074BDA6029463846FFF7BFFA29463046FFF737FA08491D20FFF78BFFF8BDA09BFF1F004E0040034E0040875800409058004094580040691400009A
:401E4000F0B583B0294E01277770294D00246C701020FFF78DFA1020FFF706FA06211D20FFF752FF0422234B1A7001331C7007331C70214A137843F0180313701F4B1C70AF
:401E800003F2F5231C7001331C700A22A3F209331A7001331C7002331C70122205331A70132201331A7004331C701422A3F68C231A7000970C234FF4004248F65C71072090
:401EC000FFF7B4FE7378013B05EB83039A7A0C4B1A707378013B05EB83052A89094B1A807078FFF73DFF03B0F0BD00BF2881FF1FA09BFF1F96580040075B00409358004014
:401F00000E4E00400C4E004008B5084B1B7C4BB9064B5B7C13F0FF0F01D1FFF791FF0122024B1A74FFF70AFD08BD00BFA09BFF1F024A137803F0FE031370704702470040C9
:401F4000054A137843F001031370034B1B7813F0020FFAD0704700BF0247004008B505F0BBFB0F4A137843F0080313701032137843F008031370C8220A4B1A700A4A1378CC
:401F800043F0100313701032137843F010031370064B1B7813F0200FFAD005F0A1FB08BDA043004001470040AC4300400047004008B53F2801D9102301E04FF48073FFF7ED
:401FC00043FD08BD08B5FFF7BBFD034610B9FFF7DDFD0346184608BD10F0800F08D1C00000F1804000F5F0408180C280002070470120704710F0800F0CD111F4704F0BD127
:40200000C00000F1804000F5F04001808270C37000207047012070470120704710F0800F12D110B5044605F057FBE30003F1804303F5F043054A917819709470D3780133EC
:40204000D37005F04DFB10BD704700BF2881FF1F10B505F041FB0A4BDB78182B0BD9084A9478013BD370E30003F1804303F5F0431B78937000E0FF2405F032FB204610BD81
:402080002881FF1F17281BD810B4C00000F1804404F5EC44D201D2B201F07F01114321709DF804201201D2B203F00F03134363709DF8083003F00F03A3700020E07001E064
:4020C0000120704710BC7047172805D8034B03EB0010417200207047012070471070004041F6FF73994201D14FF4005141F6FF739A4201D14FF40052172808D8C00000F155
:40210000804000F5EC408180C280002070470120704700BF17280BD80001064A835C03F0F103490001F00E011943815400207047012070471070004017280CD80001074B75
:40214000C1180A7942F004020A71C25C42F00102C254002070470120704700BF1070004017280BD80001064BC25C02F0FE02C254C25C02F0DF02C254002070470120704769
:4021800010700040172815D831B103010A495A5C42F020025A5405E0030107495A5C02F0DF025A540001044A835C43F0010383540020704701207047107000400B4A7F2330
:4021C00093708021D17007E0DA0002F1804202F5F042013BDBB21370002BF5D1DB0003F1804303F5F04300221A7070472881FF1FF0B5C3B00446836800931D680127002684
:4022000023E0009F4FF48072394601A806F024FC01350195802121A801F0A8FC2090224601A9384601F08CFCA069009B1B1A2068224601A9184401F083FC0746234641AA25
:402240006946284601F0ECFC01366268236903FB02F39E42D5D3384643B0F0BD70B4002401232EE026491A018D180C268E541D226A7003EB43018A0022490A44527912F02A
:40228000FF0F17D003EB43018A001E490A44127912F0800F03D018011B4A16540FE01801194A082111545A1E0121914041EA0402D4B204E01901154A0A4480219170013345
:4022C000DBB2082BCED95522114B1A70202230331A70002201331A7003222F3B1A7001331C700D331A7842F080021A701A7802F07F021A70FF22923B1A7070BC704700BF79
:40230000706000404CA6FF1FFE5F0040FC5F00408C600040704700BF054B00221A80DB682BB1034AD16800230B70D26853807047B49BFF1F054BDB683BB1044BDA68107093
:40234000DA68198851800022DA607047B49BFF1F10B50B4B1B7C13F0FF0F07D0084A137C43F0800307490B7000231374044C002363740120FFF7DEFF0323A37410BD00BF7C
:40238000B49BFF1F0860004010B5044C002363740120FFF7CFFF0323A37410BDB49BFF1F10B4184B197801F00F010239C9B2164A13889BB20B449BB21380002011E0124A4A
:4023C0009468124B1B5CDBB223709368013393600130C0B20139C9B293889BB2013B9BB29380094B9B889BB20BB10029E7D1064BD9741A7D82F080021A750B229A7410BC4F
:40240000704700BF29600040B49BFF1F0060004010B5074C627D23889BB213449BB22380002363740120FFF785FF0323A37410BDB49BFF1F054B02225A7480221A750F226A
:402440009A7400225A75DA7401207047B49BFF1F1B4A517D13889BB20B449BB2138000220FE017498B681B78DBB2164883548B6801338B600132D2B28B889BB2013B9BB215
:402480008B800F4B9B889BB20BB1072AE9D90C4B5B7DDBB2082B00D04AB1094B197D81F0800119750F2199740221597403E0044B022199745974024BDA745A75704700BF38
:4024C000B49BFF1F0060004008B5FFF7C1FF08BD10B50E4B9B889BB213B9FFF7ABFF12E00A4C0223637400232375FFF715FF084AD179937943EA0123A28892B2934200D286
:40250000A380FFF7A5FF012010BD00BFB49BFF1F0060004008B50B4B5B7CDBB2042B06D0062B07D0022B0BD1FFF772FF08BDFFF737FF08BD0320FFF7FDFE0322014B9A74E7
:4025400008BD00BFB49BFF1F08B5094B5B7CDBB2042B06D0062B07D0022B07D1FFF7B4FF08BDFFF711FF08BDFFF7F2FE08BD00BFB49BFF1F10B4F1B91F4C21180B7EDB005D
:4025800003F1804303F5F04304EB4002928C92B2203A92B21A800B7EDB0003F1804303F5F04304EB8004A26B203292B29A80012381F85C3015E0104A11180B7EDB0003F1FF
:4025C000804303F5F04302241C800B7EDB0003F1804303F5F04302EB8002926B1E3292B29A80054B184490F86820044B03EB0213027E5A7210BC7047B49BFF1F10700040C1
:40260000F8B5264B1F78FFB2012444E017F0010F3ED026462201224B13449A785D78154015F0010F31D004EB440293001D4A13441B7913F0800F28D0194922018B5C03F01E
:40264000FE038B54184B03EB44039B8C9BB2202B04D900212046FFF78DFF04E0124B2344012283F85C2006EB460293000D4A13445A79D2B231010D4B5A540D4B1B78DBB2FA
:402680009C4202D100220B4B1A7036010A4B9D550134E4B27F08002FB8D1F8BD9F600040706000404CA6FF1FB49BFF1FFE5F004048A6FF1F04A6FF1F7260004070B588B07E
:4026C000054603AC174E0FCE0FC43368237035B322232B7003236B7001A8FFF7A7F8002402231AE008AA224412F81C2C08A901EB121111F8141CE954581C00212954981CED
:4027000002F00F0208AE324412F8142C2A54DA1CA9540134E4B20433DBB2212BE2D908B070BD00BF80DB000008B504F06BFD08BD2DE9F04104F0F4FC00F07F0504F092FC1B
:4027400000F0030601242DE015F0010F20D02201164B9B5C13F0010F1AD1154B234493F85C3013F0FF0F13D1DFF8488017464244002353716301023BDBB21371012120463A
:40278000FFF7F8FE18F8073043F0010308F807300134E4B26D08002DD6D1760802D006F001050824002EF6D1BDE8F08172600040B49BFF1F7060004008B502F0DDF908BD08
:4027C00008B502220D4B1A700F3B93F822300C4B1B7E03F00303012B04D0094AD37E83F08003D3760122064B5A76064B1B78DBB2022B01D104F03CFE08BD00BF0B60004012
:402800004CA6FF1FDEA6FF1F08B501220C4B1A700F3B9B7C0B4B1B7B03F00303934204D0084AD37B83F08003D3730122054B5A73054B1B78DBB2934201D104F019FE08BD33
:402840000B6000404CA6FF1FDEA6FF1F10B5044600EB40039800184B1844037913F0800F03D00A0C4FF4804302E00B0C4FF48042012C02D0022C09D010E00121202004F020
:4028800005FC0E4B234483F8680007E00121202004F01AFC094B234483F86800631EDBB2072B08D8FFF7D4FB044B1C442076FFF7CFFB84F8740010BD4CA6FF1FB49BFF1F5F
:4028C000054B1B7828B9C3001033044A1344586870470020704700BF2AA7FF1F5CE40000F8B5474B1B7813F0FF0F00F08880444B18780138C0B2FFF7E3FF047AC268414B7C
:4029000093F87D00C0B2002377E01178884271D13D49095CC9B25578A9426BD1957805F07F05D67806F00306DFF8E0E0690029448F000EEB07014FF0000C81F803C092F8D3
:4029400002C081F804C092F803C00EF807C097880F8192F9021000290DDA012E01D1072700E00D276E002E44B100284E31444F7101264E700CE0012E01D1052700E0092755
:402980006E002E44B100214E31444F7100264E7029011F4E012777541E4F7E5C06F0FE067E54691E4900C9B21B4E3170317841F0010131701849097811F0100FFAD092F938
:4029C0000210002908DA154F3E78013D0121A94026EA0101397008E0104F3978013D012606FA05F52943C9B239700B4D297801F0FE01297008320133DBB2A34285D3F8BD46
:402A000020A7FF1FB49BFF1F24A7FF1F4CA6FF1FFE5F004070600040146000408F6000402DE9F041002310E0684D5900CA189600AC190022AA55A270E2702281A272627008
:402A400034462C4462710133DBB2082BECD940B90AE000225E49CA545E49CA540133DBB200E00023012BF4D95B4B1B7813F0FF0F00F0AA80584B18780138C0B2FFF720FF3D
:402A80004368DB7913F0400F07D0544A92F87E3043F0010382F87E3006E0504A92F87E3003F0FE0382F87E30057A012472E0C16800236BE08A7802F07F02944263D127466C
:402AC00004EB4406B200414E3244128992B28E88B24207D204EB440E4FEA8E02DFF8ECE0724416810A783A4EB25CD2B24E78B24249D191F802E0354E7B003B449A00B3186D
:402B000083F804E0CB78B354CB7803F0030391F90220002A1BDA012B02D14FF0070801E04FF00D08DFF8A4E07A0002EB070C4FEA8C06764486F805803246012656708A799E
:402B4000B24225D1022B23D1254B1C7020E0012B02D14FF0050801E04FF00908DFF86CE07A0002EB070C4FEA8C06764486F805803246002656708A79012A09D1022B07D13C
:402B8000184B1C7004E008310133DBB2AB4291D30134E4B2082C8AD9C06800220CE0837803F07F0310F8084B03EB43039900074B19448C720132D2B2AA42F0D304F066FD5D
:402BC000094B1860FFF74AFBBDE8F0814CA6FF1F24A7FF1F28A7FF1F20A7FF1FB49BFF1F48A6FF1FDEA6FF1FB8A6FF1F044B06225A749A7480221A750022DA74012070478A
:402C0000B49BFF1F10B5984B1B78DBB20021974A918013F0800F00F0B180934A5278D2B20A2A00F27581DFE812F06700730173017301730173010B007301960073019E00B7
:402C4000894BDB78DBB2012B09D104F033FD4268864B9A6012229A80FFF73AFC10BD824BDB78DBB2022B13D17F4B9878FFF728FE002800F04F8142687C4B9A609A68D17868
:402C80009A68927842EA01229A80FFF721FC10BD754BDB78DBB2032B05D02AE00A7811440133DBB201E0002371496F4A9278D2B2934203D20A7812F0FF0FEFD16A4B9B78B1
:402CC00013F0FF0F09D0684B9B78DBB2802B04D1684C2046FFF7F2FC21460B7813F0FF0F00F01A810B78614A93809160FFF7F0FB10BD04F05DF910BD13F003031AD0022B7C
:402D000040F00C81594A9380574B1B7903F07F0303EB43039900584B19448B78DBB282F8A430002382F8A53002F1A4039360FFF7CFFB10BD4D4B02229A8093F87E20D2B2BB
:402D400083F8A420002283F8A52003F1A4029A60FFF7BEFB10BD454B01229A80474A9A60FFF7B6FB10BD414A012393803E4B1B7943490B449360FFF7ABFB10BD3A4A527872
:402D8000013A0A2A00F2CC80DFE812F04F00CA009100CA000B00CA00CA00CA001300CA003100314B9B78DBB2304A1374FFF71EFF10BD2D4B9B7803F0FF041BB1601EC0B278
:402DC000FFF77EFD04B110B9002C40F0AB802B4B1B78DBB29C4207D0284B1C700120234B83F8A600FFF71CFEFFF700FF10BD04F091FB002800F098801B4A1379DBB21279D8
:402E0000D2B21A4981F87D201E4AD25CD2B21C49CB5CDBB29A4205D00122144B83F8A620FFF75EFDFFF7E2FE10BD03F00303012B2AD04BB1022B79D10B4B9B7813F0FF0FEE
:402E400076D104F08DFB10BD074B9B78DBB2012B70D1064A92F87E3003F0FD0382F87E30FFF7C4FE10BD00BF00600040B49BFF1FB0DA0000349CFF1F4CA6FF1F20A7FF1F02
:402E800024A7FF1F28A7FF1F304B1B79DBB2012B52D82E4B99781B792D4A134493F8A82022EA010283F8A820FFF7A0FE10BD03F00303012B19D04BB1022B3FD1234B9B7890
:402EC00013F0FF0F3CD104F0A9FB10BD1F4B9B78DBB2012B36D11E4A92F87E3043F0020382F87E30FFF782FE10BD184B1B79DBB2012B29D8154B99781B79154A134493F8D8
:402F0000A82022EA010283F8A820FFF76FFE10BD002010BD002010BD002010BD002010BD002010BD002010BD002010BD002010BD002010BD002010BD002010BD002010BD2B
:402F4000002010BD002010BD002010BD00600040B49BFF1F08B5134B1A78D2B21A701B78DBB213F0800F02D00F4A937408BD0220FFF7E0F90D4B1B7803F06003202B05D0C7
:402F8000402B06D043B9FFF73DFE06E004F010F803E004F0B3FA00E0002010B90322024B9A7408BD28600040B49BFF1F0060004008B5274B1B78DBB213F0100F47D013F0CF
:402FC000800F0CD003F00F03012B16D1FFF7C2FF204B9B7C13F0800F11D1012312E013F0400F03D0FFF7B0FA01230BE013F0200F07D0FFF78FFA012304E0002302E00023FF
:4030000000E000231BB3124B1B7813F0800F1ED1104A137DD27C13430F4A13701278D2B2934214D10B4B9B7CDBB2094A127812F0800F07D1074B9B7CDBB2054A1370137889
:4030400003F00F03034A927CD2B29342EAD108BD28600040B49BFF1F29600040024B187800F00100704700BF6F64004038B1084A92F87E3043F0010382F87E307047044AEB
:4030800092F87E3003F0FE0382F87E30704700BFB49BFF1F431EDBB2072B0BD8420002449300054A134400225A705A79D2B20001024B1A54704700BF4CA6FF1FFE5F0040F3
:4030C000F8B579B3044616460F4668B308282DD8184B03441B7EFF2B01D1FFF7B7FB154D254495F86800FFF73BF8287E122302463146FEF77FFF24010F49214489B2BAB246
:40310000287EFEF769FF95F86800FFF715F8297E95F86800FEF7D8FF012195F86800FFF731F804E0002602E0002600E000263046F8BD00BFB49BFF1F78600040431EDBB281
:40314000072B00F2AE802DE9F04116460F46044600EB40029300534A1344DB7843EA16235149020188188B54F3B243704F4B23441B7EFF2B03D139462046FFF767FB002FD6
:4031800046D0DFF8288108EB040595F86800FEF7E7FF08EB44039E8408EB8408C8F83870112395F874203146202E28BF2021287EFEF720FF4FEA041808F108023C4E324416
:4031C00092B2B9B2287EFEF707FF95F87400394B1C4494F8C43002460121FEF70BFF08EB060292B2344989B295F87400FEF7F4FE95F86800FEF7A0FF297E95F86800FEF7B8
:4032000063FF012195F86800FEF7BCFFBDE8F08104EB44029300234A134400225A70A6B3224F07EB44039E843D1985F85C2095F86800FEF795FF112395F874203146202ECB
:4032400028BF2021287EFEF7D5FE07EB840722010832174E324492B2398F287EFEF7BCFE95F86800FEF768FF297E95F86800FEF72BFF012195F86800FEF784FF2401335D52
:4032800043F001033355BDE8F08104EB44029300044A13445A79D2B22401084B1A55BDE8F08170474CA6FF1FFC5F0040B49BFF1F70600040B0DA00002C81FF1FFE5F0040A7
:4032C000F8B50646082801D9012400E004462546114B23441B7EFF2B0AD00F4F274497F86800FEF73DFF387EFEF798FEFF233B76094B2B4493F87400FF2806D0FEF78EFE6C
:40330000054B1D44FF2385F874300134E4B2082C01D8092EDBD0F8BDB49BFF1F431EDBB2072B0BD8064B00011A18185C00F00F00537843EA0020023880B2704700207047B1
:40334000FC5F004000EB40008300024A13445878704700BF4CA6FF1F074B93F8A63013F0FF0F07D0044B93F8A600C0B2002283F8A620704700207047B49BFF1F014B187844
:40338000704700BF20A7FF1FF0B5059C069F00251560DD01A54206D85E1CF601013EB44203D9002602E0002600E00126D6B104F07F02803202603C44A54206D80133DB016E
:4033C000013B9C4203D9002302E0002300E001231BB117440F600020F0BD4FF480730B600020F0BD04EB070E754505D80133DB01013B9E4500D8012666B180230360FB18E1
:4034000064F07F041C440C6003681C1B274417600020F0BD0120F0BDC1680268D30912F07F0200D001221A44436803FB02F3027A02FB033301EB032321B1B3F5802F03D923
:403440000320704703207047002070478B6904E003F580730A68934203D21A688242F7D100E000231846704770B48A6902600024264608E013681BB19E4201D202601E460B
:4034800002F5807201344D680B6903FB05F39C42F0D370BC704700BF054A137843F0080313701032137843F008031370704700BFA2430040094B1B7803F00C035B08084A2A
:4034C000127812F0040F00D0013303F1924393F82031DBB2034A1370704700BF205800402158004008460040014B1870704700BF805B004008B5064B1A7802F0F3021A703C
:403500001A7800F00C0010431870FFF7D3FF08BD2058004008B5064B1A7802F0FB021A701A7800F0040010431870FFF7C3FF08BD21580040054B1A7802F0FD021A701A783E
:4035400000F0020010431870704700BF20580040054A137843F0010313701032137843F001031370704700BFA843004008B51422084B1A700133002018701A7842F004021E
:403580001A701A7842F002021A70FFF7D3FFFFF791FF08BD205800400F490B7803F0FC0200F0030313430B7001280AD10B4B1B78DBB20B4A13700B4B1B78DBB20132137053
:4035C0007047094B1B78DBB2054A1370074B1B78DBB201321370704740580040100100493046004014010049AD010049B5010049054A137843F0010313701032137843F01F
:4036000001031370704700BFA743004008B50020FFF7C2FF0B4B1A7842F020021A701A7802F0FB021A701A7842F008021A7003F287231A7802F0E7021A701A7842F010023A
:403640001A7008BD4058004082B2034B1A80400802331880704700BF044F004038B5074D2C5C2844007AFFF73FFF2C44227C044B1A70FF20FFF7E8FF38BD00BF94DB000000
:40368000546400400130C0B2082806D000F007020123934013F0FF0FF4D0704710B5002404E0204602F08CFE0134E4B20A2CF8D910BD00BF08B5FFF7F1FF08BD70B5054608
:4036C0000B4B03441C7E93F8206002F079FE0F2C00D10724064800EB8404A26A137823EA0603137000EB8500836C09221A7070BD94DB000010B50E4A137803F0FC0313702A
:403700000C4B1B781B020C4921F81030723A12781343DB4321F81030FFF7D0FF0020FFF7E3FE064A137843F00103137010BD00BF7F6400401D640040609CFF1F70580040EE
:4037400010B5002404E02046FFF7B8FF0134E4B2072CF8D910BD00BF10B50B4B1A18117E92F8204003EB80039B6C09221A700F2900D10721044A02EB8102926A137823433F
:40378000137002F02DFE10BD94DB000038B50546FFF764FF084C237843F001032370074A137803F0FE0313702846FFF7D5FF237843F00203237038BD7F64004070580040D2
:4037C00010B5104C207CFFF795FF637C13F0800F04D0637C03F0FE03637410BD094C207CFFF750FF2074237CDBB2072B03D8207CFFF7CCFF10BD034A537C03F0FE035374C2
:4038000010BD00BF609CFF1F08B5044B00215974187481225A74FFF7B9FF08BD609CFF1F10B503F059FF0446194A137843F0010313701032137843F00103137002F5035289
:403840002632137843F020031370FFF725FEFFF7CFFEFFF77DFE0F4A137843F010031370103A137843F01003137002F5A6520532137843F001031370204603F031FF0222DC
:40388000054B1A60054A137843F08003137010BDA3430040BB43004000E100E07F64004010B5FFF74DFF0322274B1A70274A137843F0200313700124254B1C7003F00CFFFA
:4038C000244A137843F0030313700932137843F00303137003F004FFFF231F4A137020321370403A13702932137030321370103A1370022203F1E02381331A60174920461C
:40390000FEF71AFA05212046FEF7FEF9FFF7D2FE082002F065FD092002F062FD0A2002F05FFD0F4A137843F004031370FFF76EFEFFF71CFE0020FFF7EDFD0420FFF7DAFDCE
:403940000020FFF7D1FD10BD004F0040024F0040896400409464004024640040C13700007F64004008B503F0BFFE03680C2B00D1FEE7FEE738B572B661224F4B1A7002F0D6
:4039800041FE4E4A137843F00403137000240BE04B48630019194A000244B2F86C10906E02F0B6FE0134E4B2022CF1D900240DE04348A20011194B000344B3F88420D3F880
:4039C0008010D86F02F01AFE0134E4B2552CEFD94FF440733B4A1380023213800A243A4B1C7003223B3B1A800421384802F090FE04223749374802F001FE0421364802F0B9
:403A000087FE0421354802F083FE0421344802F07FFE0421334802F07BFE04223249334802F0ECFD04223249324802F0E7FD324A324B1A60324A137843F002031370103272
:403A4000137843F0020313702E4D2B7843F040032B70A2F58632513A137843F01003137008222949294802F0C9FD22462849294802F0C4FD22462849284802F0BFFD0822C0
:403A80002749284802F0BAFD08222749274802F0B5FD22462649274802F0B0FD264A137843F00803137002F04DFD0E222946234802F0A4FD38BD00BF00480040E8460040AC
:403AC00094DB0000705800408358004000760040C42300480876004010760040187600402076004028760040C823004830760040CC23004838760040040400C4D80801401E
:403B000003500140A043004084230048025100408C230048C051004098230048F0510040A423004812510040AC23004822510040B42300483051004022430040B04300404C
:403B400070B504460E46C0F30725FEF73BFA32462946C4F30740FEF72BFA0446FDF79EFE0CB1042070BD002070BD00BF10B404460022FF2013E0A35C584000230BE010F09F
:403B8000800F04D04000C0B280F0310001E04000C0B20133DBB2072BF1D9013292B28A42E9D110BC704700BF2DE9F047C0B005468A4690469946489EB469041B33681C4416
:403BC000C76F80210844FFF7D1FF874207D14A4605EB0801504604F03FFF00241BE0E76F80216018FFF7C2FF874213D14FF480722146684604F030FF324669462846FFF700
:403C00009FFF044638B94A460DEB8801504604F023FF00E00224204640B0BDE8F08700BF30B4044618B1086800F5807008600D681868854201D398690860002010605868BA
:403C4000844218D31C69012C13D90968A1EB00259B699D420BD204F1FF1404F57F4400FB04F003EB0020C91A0844106003E0156001E00B68136030BC704700BF2DE9F04FDD
:403C8000CDB01D4600230B930A93AB6809930391002A00F09F80824693461318EA68934200F29A80002900F099800BF1FF331B094C4AA2FB0323059301330493002307934E
:403CC0009946012081E0099B1C682B4608AA09A92046FFF7A5FF4FF4807200210CA803F02FFD04F10108CDF83080CDF834A00399059B994502D1CDF838B007E070230E937C
:403D0000ABF1700B9A44039B703303930E9A0FA804F0A2FE089921B1802211442CA804F09BFE6C68A04503D9C4EB0804013400E00124002731E0444501D10CAE04E02946CF
:403D40002046FFF783FB0646099BAA699A1A120A6968B2FBF1F301FB132356B17268B1680191009207AA0AA90BA8FFF70DFB074600E001374FB90B98079931440A9A121ADA
:403D80000C310CAB184404F067FE2B7D23B180212CA8FFF7EBFE2B9001344445CBD92A460CA90998FFF7CCFE2B7D4BB140B9AA69099B9B1A28682A460CA91844FFF7C0FE19
:403DC00068B9099BAB6009F10109049B9945FFF47AAF04E0012002E0012000E001204DB0BDE8F08F264992242DE9F04F8BB00691002A00F0E68081461F46934613181C46CE
:403E00000793FB689C4200F2DF80002900F0DF80B8680368099304F1FF3A4FEAD913C3EBDA1A0AF1010ABC69031B7A681502B3FBF5F303FB02F304EB0323039300250EE039
:403E4000B9EBC51F06D36B1CDB01013B994503D9002302E0002300E001231BB901359542EED30025039BC01A030A184605933B69012B09D905EB0A03013B854207D89842AF
:403E800008D20123049307E00023049304E00123049301E000230493C84600260123CDF82090894635E0039B03EB052008F07F0404F180010136B24502D9C4F1800400E01D
:403EC0005C46049B63B1059B9D4209D97B68A0EB0320BA69904203D238685B1BA0EB03203B7D5BB1009723460A464946FFF75CFE034648B18246DDF820900FE022460144CF
:403F0000484604F0A9FD0023A044C4EB0B0BA14401355645C7D39A46DDF820905346002B57D1099B002B54D07D689D4228BF1D46013D5D1BDDF81880079E1C463EE0394624
:403F40002846FFF783FA8646002836D0436881681944994504D29E4294BF0022012203E089452CBF002201223AB3994502D3C3EB090C01E04FF0000C994502D2C9EB030070
:403F800000E000200CF10C0CB14228BF314699452CBFC9EB0103CB1A40443A7D42B10097624601467046FFF7FFFD824628B110E01A460EEB0C0104F04FFD0135A542BED9EE
:403FC00007E001239A4604E001239A4601E001239A4650460BB0BDE8F08F00BFF8B500293DD00D4600283CD0C368002B3BD043680A2B3AD80768002F39D00446FFF70CFA2B
:404000000646002834D1EF6063682B61237A2B75637A6B75E368AB612368DA0913F07F0300D0012313446B60626802FB03F3E26802EB03232C4644F8083B29462046FFF731
:4040400013FAAB681B689BB92B7D8BB12846FEF7CFF8064629462046FFF706FA08E0012606E0012604E0012602E0012600E001263046F8BD024B587C00F00100704700BF3A
:40408000609CFF1F08B5FFF7BFFBFFF7F3FF0028FBD108BD10B5002404E02046FFF7F2FF0134E4B2072CF8D910BD00BF10B50A4C00236374FF232374207CFFF7E3FA207492
:4040C000237CDBB2072B06D8627C42F001026274207CFFF75BFB10BD609CFF1F08B5054B9B7C23B9FFF7DCFB0122024B9A74FFF797FB08BD609CFF1F08B5104A104B1A602E
:40410000104A136843F40073136000230AE0032B03D80D4A52F8231000E00C490C4A42F8231001332F2BF2D90A4B1B78084A0A4B1A60FFF71FFCFEF741F808BD0004FA0542
:404140000CED00E014ED00E000000000653900000080FF1FBC76004008ED00E008B5094B1A681044084BC31AB3F5006F02DC054B186005E003F0B8FA0C2303604FF0FF32A2
:40418000104608BD3081FF1F38A7FF1F08B5104E104D16E029686B68AC68002204E051F8040B43F8040B0432A242F8D1E868002203E0002143F8041B04328242F9D11035CE
:4041C000013E002EE6D103F095FA01F0A5F800BF01000000CCE600004001C0B2014B1870704700BF00E400E0014B1B681864704708ED00E0024A137843F001031370704739
:4042000008590040704700BF054A137843F0040313701032137843F004031370704700BFA2430040014B1878704700BF6364004008B503F051FA064A137843F004031370BF
:404240001032137843F00403137003F049FA08BDA543004008B501E00A4B1B780A4B1B7813F0200FF8D103F037FA084B1A7842F001021A701A7802F0FE021A7003F030FA35
:4042800008BD00BF53640040636400409364004008B503F021FA0A4A137843F020031370013A137843F010031370083A137843F01003137003F014FAFFF7A6FF08BD00BF7D
:4042C0009C64004010B50C46284B18700023284A1370284A1370284A1370284A1370284A1370284A1370284A1370284B4FF400021A604FF080721A604FF400121A600822C0
:404300001A6010221A600321214A11704FF480021A6050221F4B1A701F4802F0A9FE02F0F1FE02F091FE14B1012C06D00BE01B4A137803F0FE0313700AE0184A137843F01C
:404340000103137004E0154A137803F0FE0313700322134B1A708022203B1A70012003F0B3F904220F4B1A7010BD00BF2AA7FF1FC59BFF1F5A9CFF1F20A7FF1F319CFF1F36
:40438000C49BFF1F329CFF1FC99BFF1F00E100E09E6000409C6000403127000009600040286000401260004010B50222104B1A7081220E3B1A70082202331A7005221133C4
:4043C0001A70002401331C704FF40042094B1A6006210F20FDF798FC07490F20FDF7ACFC064B10221A705C709C70DC7010BD00BFD649004080E100E059470000749CFF1FD8
:40440000F8B503F069F90546454A137843F0010313701032137843F0010313700127414B1F700226943B1E7002F5E2521B32137803F07F0313700020FDF752FA3A4C237890
:4044400003F0F9032370394A137803F0DF03137023783B4323703846FDF742FA2820FDF73FFA334B1A7802F07F021A701A7802F0BF021A702378334323703046FDF730FA71
:40448000237843F00403237000232A4A13700132137006E0FF222849CA542849CA5401339BB2082BF6D9284603F01AF903211720FDF72AFC22491720FDF73EFC0321182007
:4044C000FDF722FC1F491820FDF736FC03211520FDF71AFC1C491520FDF72EFC03210846FDF712FC19490320FDF726FC03210420FDF70AFC16490420FDF71EFC0021162090
:40450000FDF702FC13491620FDF716FC03210C20FDF7FAFB10490C20FDF70EFCF8BD00BFA54300409D6000409443004012600040F851004084600040CC9BFF1F289CFF1F7F
:40454000B9270000B12F00001523000009280000C1270000012600002927000010B503F0BBF80446184A137843F0020313701032137843F00203137002F5AA52103213780E
:4045800043F0030313701822104B1A70013B1A7842F040021A701A7802F0FC021A70C822053B1A700222A3F59753123B1A70084A137843F0080313700A20FDF791F920466B
:4045C00003F08EF810BD00BFAB4300400E5900402F5B0040F0B583B016461F460B4C062525700023019300932B460A4601462846FDF748FD3A4631462078FDF771FD042158
:404600002078FDF787FD207803B0F0BD3481FF1FF0B583B016461F460B4C072565700023019300932B460A4601462846FDF72AFD3A4631466078FDF753FD04216078FDF7CF
:4046400069FD607803B0F0BD3481FF1F10B541F6FF734FF4804201210220FFF7D9FF084C207141F6FF731A4601210A20FFF7B2FF60710448FFF7B8FD0020FFF7ADFD10BD0E
:40468000749CFF1F0542000008B50A280FD00C2802D0082806D102E04FF4805209E04FF4807206E00020FDF7BFFA002201E04FF4806209490020C88042F2107303FB02F356
:4046C00003F27263054A82FB03E21A44DB17C3EBE2238B60888108BD749CFF1FEF09E09E10B504460A280DD00C2802D0082804D101E0C22207E0422205E00020FDF794FA1F
:40470000C22200E08222034B1A702046FFF7BCFF10BD00BF0A59004008B5064A137843F0060313700C20FFF7DBFF0022024BDA8108BD00BF09590040749CFF1F08B5054B75
:404740001B7C23B9FFF7E8FF0122024B1A74FFF705FF08BD749CFF1F38B59F4B1C789F4B1B7813F0400F00F02E81E4B214F0010F00F01281994B1B78453B052B00F2098155
:40478000DFE813F006007D00070107010600D60004F0DF0504F00A04082C3FD18F4B1B78DBB2452B32D18D4B5B7C13F0FF0F0ED08A4B5A691278D2B289490A700421864AB0
:4047C00011700122DA7046221A702C46E4E0834B1B7E13F0020F0CD0804B5A7842F00A025A7060221A704FF400427E4B1A602C46D2E07D4A137843F01003137010227B4B9C
:404800001A700422023B1A702C46C5E00022724B1A704A22714B1A702C46BDE00A2C29D16E4B5A7842F0A0025A701B7E13F0020F13D06A4B1B7813F0080F01D0092200E099
:404840000A22664B59780A435A7060221A704FF40042644B1A602C469EE0634A137843F0100313701022614B1A700422023B1A702C4691E00020FDF7D7F92C468CE014F0CA
:40488000020F33D1554BDA78D2B25B7CDBB29A420FD2524AD378DBB25169CB5CDBB250490B7004214C4B1970D3780133DBB2D37072E04A4B1B7E13F0020F0BD0474B5A78EF
:4048C00042F00A025A7060221A704FF40042454B1A6061E0444A137843F0100313701022424B1A700422023B1A7055E03B4B1B7E13F0020F0BD0394B5A7842F09A025A708B
:4049000060221A704FF40042364B1A6044E0364A137843F0100313701022344B1A700422023B1A702D4A537843F09003537033E02A4B9A78D2B2D86929490978C9B281545E
:404940009A780132D2B29A709A78D2B293F82030DBB29A4203D210221F4B1A701CE01F4B1B7E13F0020F0BD01C4B5A7842F009025A7060221A704FF400421A4B1A600BE006
:40498000194A137843F0100313700022124B1A7002E00020FDF748F914F0200F1BD00F4B1B7813F0080F01D0012200E002220B4B59780A435A700C490A7802F0EF020A7071
:4049C00010221A7038BD054B1B7813F0100F02D11022024B1A7038BDD7490040749CFF1FD849004080E100E0D6490040D949004070B52D4C2079FDF79FFB6079FDF79CFB16
:404A00002A4B9B78FF2B03D1FDF722FB274B9870264CA078062302460A21FDF7EBFA224E06F12405ADB22A4645F6A231A078FDF7D3FAA1783079FDF747FBE378FF2B02D1D0
:404A4000FDF706FBE070194EF078072302460A21FDF7D0FA144C04F1300292B22946F078FDF7BAFAF1786079FDF72EFB01212079FDF788FB01216079FDF784FB02F02CFE62
:404A80000B4A137843F02003137002F029FE094B1A7842F001021A701A7842F002021A700122054B1A6070BD749CFF1F3481FF1F966400407565004080E200E008B5092096
:404AC000FEF7FEFB02F008FE214A137803F07F0313700A32137803F0FB031370A2F5E3520D3A137803F0FE0313701032137803F0FE031370174B1A7842F080021A701A788A
:404B000042F040021A7002F0EBFD134B4FF400021A604FF080721A604FF400121A6008221A6010221A6002F06DFB4FF480520B4B1A6000230A4A13700A4A13700A4A1370CF
:404B40000A4A13700A4A13700A4A82F83A3008BD08600040F851004080E100E080E200E05A9CFF1F20A7FF1F319CFF1FC49BFF1F329CFF1F749CFF1F00230A4A13700A4A0D
:404B800013700A4A13700A4A13700A4A13700A4A13700A4A13700322094B1A708022203B1A707047C59BFF1F5A9CFF1F20A7FF1F319CFF1FC49BFF1F329CFF1FC99BFF1FB1
:404BC0002860004038B504460D46074B93F83A302BB9FFF715FC0122034B83F83A2029462046FFF76FFB38BD749CFF1FF0B583B016461F460B4C032525710023019300939B
:404C00000A4601462846FDF73DFA3A4631462079FDF766FA29462079FDF77CFA207903B0F0BD00BF3481FF1FF0B583B016461F460B4C022565710023019300930A46014695
:404C40002846FDF71FFA3A4631466079FDF748FA03216079FDF75EFA607903B0F0BD00BF3481FF1F044A137803F0FD03400000F00200184310707047F0510040044A1378B5
:404C800003F0DF03400100F02000184310707047F0510040044A137803F0FE0300F0010018431070704700BFF0510040C0F10400044A02EB4000B0F930309089181A00B2F5
:404CC000704700BF749CFF1F044B1B7803F0FF020BB90028F8D01046704700BF6264004008B5FFF787FA08BD08B5074BDB6B23B9FFF7ACFC0122044BDA63FFF71FFDFFF735
:404D000077FE024B1B7808BD749CFF1F62640040024B1878C0F38000704700BFF1510040024B1878C0F3C000704700BFF1510040024B1878C0F34000704700BF31510040CD
:404D40004FF40043044A1360044A507800215170034A1360704700BF80E100E0749CFF1F00E100E04FF40042074B1A60074B5878C0B21B7813F0400F01D040F004004FF47C
:404D80000042034B1A60704780E100E0749CFF1F00E100E070B4002945D00D4624490978C9B2102906D12349097811F0080F11D1002412E01E490978C9B260290CD14FF4CB
:404DC00000441D490C601A4C617801F0F7016170002402E0012400E002242CBB144949260E7000268E7081F82020CD610B764A7802F0FE024A704200D2B242F001020F49F5
:404E00000A7013F0010F06D012220A4B1A700422023B1A7002E00122064B1A704FF40042074B1A6000E00224204670BC704700BF749CFF1FD949004080E200E0D84900409D
:404E400000E100E070B4002942D00D4622490978C9B2102906D12149097811F0080F11D1002412E01C490978C9B260290CD14FF400441B490C60184C617801F0F701617038
:404E8000002402E0012400E0022414BB124945260E700026CE704A744D610B764A7802F0FD024A704200D2B20E490A7013F0010F06D01222094B1A700422023B1A7002E08F
:404EC0000122064B1A704FF40042074B1A6000E00224204670BC7047749CFF1FD949004080E200E0D849004000E100E02DE9F8434FF40049214BC3F80090DFF8A08098F805
:404F000000301F4CE3721F4F3B7823731E4E3378637330783B7843EA002001301B4D2B7803F0FE032B7080B202F0CEFB02F0D4FB174A137803F0FB0313701032137803F09C
:404F4000FB03137002F0CCFB2B7843F002032B70E37A88F80030E37A88F80030237B3B70637B33702B7803F0EF032B70094BC3F800901022084B1A70BDE8F88380E100E06B
:404F80003481FF1FDB490040DC490040D6490040A543004080E200E0749CFF1FCA49004008B5084B93F840302BB9FFF7FDF90122044B83F84020FFF73BF94FF40042024BE7
:404FC0001A6008BD749CFF1F00E100E0054A137843F0020313701032137843F002031370704700BFA243004008B502F075FB064B1A7842F001021A701A7802F0FE021A70FC
:4050000002F06EFB08BD00BF9364004001E0044B1B78044B1B7813F0200FF8D1704700BF5364004063640040014B1878704700BF6B64004008B50F22074B1A70FFF70AF922
:40504000FFF7F2FFFFF7EEF80222044B1A702022083B1A7008BD00BF8C6400408B64004008B5064B93F841302BB9FFF7E3FF0122024B83F84120FFF70BF908BD749CFF1F7F
:4050800008B501E00A4B1B780A4B1B7813F0200FF8D102F021FB084B1A7842F001021A701A7802F0FE021A7002F01AFB08BD00BF58640040686500409864004001E0044BC7
:4050C0001B78044B1B7813F0200FF8D1704700BF5864004068650040014B1878704700BF68650040014B1878704700BF6864004008B5064B93F842302BB9FCF74DFA0122B8
:40510000024B83F84220FCF72BFA08BD749CFF1F2DE9F04107460D4690461C461946069805F0D2FE06462946384605F0CDFE07462946404605F0C8FE0146384606F082F82E
:405140000146304605F0CAFF0146204605F0BEFEBDE8F08110B5FEF7FFF860B1FEF70EF948B11A4B1B7813F0FF0F04D0FDF776FF08B102F0ABF9FEF701F930B3FEF7ECF849
:4051800078B1134B1878134B1A781349FDF7D6FF124C207840221249FDF792FF2078FDF779FF0A4B1B7813F0FF0F04D0FDF756FF08B102F059F9054B1B7813F0FF0F04D0AC
:4051C000FDF74CFF08B102F053F910BD6883FF1F48A6FF1F04A6FF1F08A6FF1FDEA6FF1FE0A6FF1F08B5FDF739FF28B9FFF766FC00220C4B1A7011E00A4B1B7813F0FF0FAE
:405200000CD101210020FFF7DDFCFEF7B7F80028FBD002F05BF90122024B1A700022024B1A7008BD6883FF1FB89CFF1F10B5154B022215490020FEF7D7FDFDF70FFF0128B5
:405240001FD1124B1B79DBB2012B0BD10F4C0020214601F8080F0B4B0222FEF70FFD0123237010BD0949012301F8083F054B02220020FEF703FDFFF721FCFFF737FEFCF757
:40528000CBFC10BDC0A6FF1FBC9CFF1FB89CFF1F08B501F0D5FF01F0E9FFFFF7C7FF08BD10B50446002106F0D5F848B10549204605F014FF04F054FC034905F00FFF10BD0A
:4052C000024810BDD27EFA3DAC7F8A410080BBC410B504460C4906F0A9F890B90B49204606F0B8F818B10948FFF7F2FF10BD0849204605F0F3FE04F0C1FB064905F0EEFE2C
:4053000010BD002010BD00BF0080BBC40060BB4420986C3D13D002412DE9804885B062B601F08AFE0028FBD002F024F8BB4801F071FF0120FDF79AFEB94801F089FFFDF7EB
:405340008DFE08B9FFF772FF01F048FFFCF7DCFDFCF7A2F9FBF730FBFBF7E0FAFFF7C4FCFFF7BEFCFFF7C4FEFFF77AFEFFF718FE6420FCF73BFCFFF737FE00244FE0FFF745
:4053800045FEA84B18780121FCF7FCFEA64B18780121FCF7F7FEFFF747FE10F0010F06D1FFF742FE10F0100F03D1002302E0012300E00123002BEED09C4B1B78DBB2FD2BFD
:4053C00013D19A4B5A78D2B2132A0BD90DE0991C9648455CC2EBC200410095480144CD54013300E000230D2BF1DD904B1B78DBB2FE2B13D18D4B5A78D2B2132A0BD90DE0D8
:40540000991C8A48455CC2EBC200410089480144CD54013300E000230D2BF1DD0134272CADDDFAF7D3FF002517E006EB85084FEA4804A4B2204601F01FFF0746601C80B266
:4054400001F01AFF00EB07207B4B43F82800013600E00026032EE8DD0135032DF9DD202001F00AFF754B1860212001F005FF744B1860222001F000FF724B1860724B1860FD
:405480000026232520E06F1CA8B201F0F5FE040605F10208B8B201F0EFFE44EA0044EF1C1FFA88F001F0E8FE44EA0024B8B2043501F0E2FE2043654B43F82600FFF708FF47
:4054C000634B43F826000136032EDCDD614B04241C70614A12785A70FFF798FD514B18780121FCF74FFE504B18780121FCF74AFEFAF72EFF524B1A68584B1A70584B1C70E3
:405500000120FFF7BBFB4FF4FA70FCF7E9F9FEF7E5FD484B45221A7054225A700A20FCF765FBFEF7B7FDFEF7A5FD0028FBD1FEF7BDFDFEF79FFD0028FBD1FEF7B7FDFEF7FE
:4055400099FD0028FBD1FEF7B1FDFEF793FD0028FBD1FEF7ABFDFEF78DFD0028FBD1002304E0404A1A443C2111730133072BF8DD0A20FCF73BFB0020FFF780FB0520FCF76E
:40558000AFF9FBF767FA0120FFF778FB0520FCF7A7F9FAF759FF002204210820FBF7AEF9FEF784FD0122304B1A60FEF763FD0028FBD100222B4B1A750EE02C4B33F812308D
:4055C00028498818007B834294BF002301239340087D03440B750132072AEEDD214C607D627D224B33F812100122D1404030FBF78DFA637D01331E4A134003D5013B63F03C
:4056000007030133DBB2174A53751A4B1B7813F0FF0F01D0FBF75EFB002465E200E0000091520000BC87FF1FE487FF1FC087FF1F8C83FF1F4C82FF1FC880FF1F8883FF1F2C
:405640004882FF1FC480FF1FD484FF1F0881FF1F1881FF1FE887FF1FD984FF1FDB84FF1FDA84FF1FB89CFF1F6C83FF1F609CFF1F070000801990FF1F231DA04A127D42FA2F
:4056800003F313F0010F18D09D4B53F824204FF6FF739A4211D101229A4B1A559A4B53F824307E2B0FD8994A52F83420002A0ADB0133954A42F8243005E00023914A135506
:4056C000914A42F824308F4B1B5D43B18F4B53F83430002B03DB01228D4B1A5502E000228B4B1A558A4B187801F06CFD864B53F82430462B0CD9854B53F83430002B07DBA5
:405700007E4B03EB8403224600219869FAF7E8FF7F4B187801F056FD794B53F824204FF6FF739A4227D17B4B53F82420734B03EB84039A62764B1B5DABB1704901EB440546
:405740002B8F03F11F0202F01F026001024401EB8202126C184401EB80010A64013303F01F032B87A7E1654B03EB84034FF40052C3F840229FE1664B1B5DABB15F4901EB88
:4057800044052B8F03F11F0202F01F026001024401EB8202126C184401EB80010A64013303F01F032B8786E1544A131993F85002610053181B8F1F3303F01F0303EB4413C7
:4057C00002EB83031B6C014402EB8101C1F8543202EB84020023C2F874320EE0474A03EB440102EB8101D1F8541202EB8402D2F874522944C2F874120133012BEEDD3F4B11
:405800001A19013000F0010082F8500203EB8403D3F874526D08C3F874523F4B1B68002B15DD013B1A46002B00DADA1C92103B490B4003D5013B63F00303013392002F496E
:405840001144D1F874121344354A42F823104FF6FF739D4207D1294B03EB84034FF07E52C3F8842284E02E4B03EB04135E68B54220D9284605F0DAFB05462301284AD7589A
:40588000304605F0D3FB0646384605F0CFFB254B0093254B324601462846FFF739FC01464FF07E5005F0CEFC144B03EB8403C3F884025DE0B5423BD8194B03EB0413986883
:4058C000854235D905F0B2FB0746304605F0AEFB0646284605F0AAFB144B0093114B3A463146FFF715FC01464FF07E5005F0AAFC024B03EB8403C3F8840239E0B89CFF1FB3
:405900000088FF1F1C85FF1F0C85FF1FE084FF1F0885FF1F0881FF1FDC84FF1F03000080C880FF1F85C83F3FC1A1713FEF37183FAB4B03EB04139E68D86805F077FB0746C9
:40594000304605F073FB0646284605F06FFBA54B0093A54B3A463146FFF7DAFB01464FF07E5005F06FFCA14B03EB8403C3F884029E4D05EB84079E4B53F82410D7F8840287
:4059800005F0ACFBFFF78CFC0646B86205EB44010B8F984A52F824E003EB441205EB8202C2F840E0013303F01F030B8705EBC405D5F898B2D5F89492C5F89892C5F89402FE
:4059C000D5F8B8A2D5F8B482C5F8B8828A4905F085FB03908949484605F080FB0146039805F074FA81468449584605F077FB0146484605F06BFA81468149404605F06EFB59
:405A00000146484605F062FA80467E49504605F065FB0146404605F057FAC5F8B402D7F8D4527949284605F051FA0146304605F011FD40B97449284605F046FA0146304607
:405A400005F0EAFCA8B1304603F0F4FF674B03EB8402C2F8E402C2F8D40203EBC403C3F89402C3F898020022C3F8B422C3F8B82204E05E4B03EB8403C3F8E452634B1B6879
:405A80002BB15A4B03EB8403D3F8E4229A62574D05EB84055E4B53F82410A86A05F014FA5C4905F01BFB4FF08C4105F00FFA05F0F1FCC5F84002584B53F83430002B12DBC4
:405AC0004A4B03EB8402D2F84002D3F8F432984209D00021FBF760F8444B03EB8402D2F84022C3F8F4220134032C7FF7C5AD3F4A92F8F8320133DBB282F8F8320120FFF77D
:405B0000E3F8002840F08A80D4E0384DD5F8FC62A0B2FFF7CBF806EBC40605EB8606C6F8000305EB84050022C5F8A0230EE02F4B02EBC40103EB8101D1F8001303EB8403CB
:405B4000D3F8A0030144C3F8A0130132072AEEDD264A02EB8401D1F8A033DB08C1F8A03302EB4402B2F8B42302F119018B4202D8193A934204D25B091C4A224482F8C033E5
:405B80001A4B1A1992F8C0138AB203EB4403B3F8C8339A4216D0032C06DC0022C1F17F0104F10900FAF7B2FF042C0BD101F0FAFA40B10E4B2344002293F8C01304F10900F2
:405BC000FAF7A4FF094B1A1992F8C02303EB4403A3F8C8235201A3F8B42301341FE000BFC880FF1FFE44D73EEF37183FB89CFF1F1881FF1F0088FF1FC6DB7A3FC6DBFABFED
:405C0000DBC1FA3F64EB753F9A99193FC480FF1F0881FF1F00802A43E084FF1F0024042C7FF773AFAE4AD2F8FC32013303F00703C2F8FC3292F8F832DBB2642B3AD992F827
:405C4000D233DBB2032B0CD892F8D20392F8D233134493F8C0130022C1F17F010930FAF755FF9F4B93F8D233DBB2042B0ED101F099FA58B19A4A92F8D20392F8D233134440
:405C8000002293F8C0130930FAF740FF9449002381F8F83291F8D2230132A3F1993383FB0230D317C3EB600303EB8303D31ADBB281F8D233FFF716FA10F0010F06D1FFF74D
:405CC00011FA10F0100F03D1002302E0012300E00123002BEED0834B1A684FF6FE739A4203D8804A13680133136000244AE063007D4A12F814500133D35C03EB0525784BC3
:405D000003EB8403C3F8D453002D1FDD744B03EB8403D3F8E433CBB9744A42F82430744A1355744B5E78013E734B53F8240005F0B1FB06EB4606B3001844694B03EB8403C0
:405D4000986122462946FAF7CBFC13E095B9644B03EB8403D3F8E433002B0BDD604B03EB8403224600219869FAF7BAFC00225F4B43F824205A4B03EB8403D3F8D423C3F80E
:405D8000E4230134032CB2DDFFF74EF910F0010F06D1FFF749F910F0100F03D1002302E0012300E00123002BEED0544B1B7813F0FF0F09D019E05249CA5CD2B25148C2547B
:405DC0000022CA54013300E000230F2BF3D94E4B1B681BB101224B4B1A7002E00022494B1A700022484B1A60B9E0444B1B78DBB2012B39D13A4B93F8F43393B1414AFD2306
:405E00001370424B1B785370414A1360FAF710FB334A002382F8F43338490B70A2F8F6339DE0384A0223137038490978517018E02B4AB2F8F623374909888A4209D2501C44
:405E40002749A1F8F60334498A5CD2B22D49CA5406E0EE212B4AD1540121214A82F8F41301330F2BE4D97AE0244B1B78DBB2022B58D11B4B93F8F43373B1224BFD221A704C
:405E8000264A12785A70164A002382F8F4331B490B70A2F8F63362E01A4B03221A701F4A12785A70022317E00D4AB2F8F623194909888A4208D2501C0949A1F8F6031849C5
:405EC000895C104AD15406E0EE210E4AD1540121034A82F8F41301330F2BE5D93FE000BFB89CFF1F0485FF1FAC87FF1F0C85FF1F0885FF1FA487FF1F0881FF1FDA84FF1FA2
:405F00007083FF1FE887FF1F8083FF1F2190FF1F8883FF1F7C9AFF1F2490FF1F7E9AFF1F809AFF1F6E4B1B78DBB2032B09D16D4B04221A706C4A12785A700022684B1A7084
:405F40000DE0674B1B78DBB2042B08D1654B05221A70664A12785A700022614B1A700122634B1A60634B1B78DBB2FD2B21D1614B5B78DBB2604A1278012A1AD0584A1278E9
:405F800012F0FF0F15D118465C4A1268934210D0132B0BD90DE09A1C56498C5CC0EBC0014A0057490A44D454013300E000230D2BF1DD504B1B78DBB2FE2B21D14D4B5B7822
:405FC000DBB24D4A1278012A1AD0454A127812F0FF0F15D118464B4A1268934210D0132B0BD90DE09A1C43498C5CC0EBC0014A0045490A44D454013300E000230D2BF1DD7D
:40600000384B1B7813F0FF0F0BD0FEF7FFFF3F4B18780121FCF7B6F83D4B18780121FCF7B1F83C4B1B7813F0FF0F01D0FFF7DAF8394B1B7813F0FF0F11D0FDF70FF870B1CF
:40604000364B1B88402B05D9324AB2F8F8330133A2F8F8330022314B1A80FFF77BF82D4B1A7D2F4B1A7200230CE059002D4A52F82320C2F307242A4800F813400131D2B2F4
:4060800042540133032BF0DD224991F8FA3303F00F00234AD073013381F8FA33137A13F0010F03D0012001F08DF802E0002001F089F8FFF703F81C4B18780121FCF762F899
:4060C0001A4B18780121FCF75DF81949D1E90023013243F10003C1E90023FFF74CBA00BFDA84FF1FE887FF1FD984FF1FDB84FF1F6C83FF1FC087FF1F1890FF1F8883FF1FAE
:406100008C83FF1F4882FF1F4C82FF1FBC87FF1FE487FF1FB89CFF1F6883FF1F6A83FF1FD487FF1F0088FF1FA887FF1FD087FF1FB8A0FF1FFEE700BF007A7047838A63B1A1
:40614000838919448388994207DB00238381828BC189438901FB02334381038CF3B110B4836933B9818BC38903FB01F1013909B200E0002143898CB2C28BC18901FB02F211
:4061800092B2234413449BB2C1888B4205D300238381091B8A1A013A428110BC704700BFF8B50E1E6CDB054614461F4683889E4266DA002A64DBC3889A4261DAFFF7BCFFA2
:4061C00002280AD0032813D0012817D1B5F900301C1B631E34461EB210E0B5F900309E1B013E36B2B5F902301C1B013C24B205E0B5F902309E1B731E26461CB2012F03D078
:40620000B7B1022F29D0F8BDB5F900202346002C00DAE31D43F3CF0302FB036604F00704012303FA04F4174A935D23439355F8BDB5F900202346002C00DAE31D43F3CF03BB
:4062400002FB036604F00704012303FA04F40D4A935D23EA04039355F8BDB5F900202346002C00DAE31D43F3CF0302FB036604F00704012303FA04F4024B9A5D54409C551C
:40628000F8BD00BFFCA0FF1F08B5FFF789FF08BD2DE9F04F85B002900D4616461F46BDF938B0BDF83C300393584604F0C3FE0446304604F0BFFE0146204604F005FE20F0B3
:4062C0000048384604F0B6FE0446284604F0B2FE0146204604F0F8FD20F0004319460193404605F0B7F828B13B465F469B462B4635461E46BD4205DD33465E469B462B464E
:406300003D461F46C5EB070A1FFA8AFA0FFA8AF4584604F08FFE8146304604F08BFE0146484604F0D1FD20F0004005F0B3F80FFA80F904EBD47464105E4502DA4FF0010B39
:4063400021E04FF0FF3B1EE00199404605F082F830B1039B2A4631460298FFF795FF05E0039B324629460298FFF78EFFC9EB0404A3B21CB2002C04DA5E4436B20AEB030496
:4063800024B201352DB2BD42DEDD05B0BDE8F08F10B582B0BDF8104001941344013B1BB200930B46FFF774FF02B010BD10B582B0BDF810400094FFF7EBFF02B010BD00BFF4
:4063C0000A2809D8054B53F82020184490F82C10137823EA01031370704700BF00E400000A2808D8044B53F82020184490F82C1013780B431370704700E4000001281AD8F8
:4064000010B44000C0B20C4B03EB8002916B1A1892F848400A7822EA04020A700130C0B203EB8002926B184490F84810137823EA0103137010BC704700E40000012818D8E6
:4064400010B44000C0B20B4B03EB8002916B1A1892F848400A7822430A700130C0B203EB8002926B184490F8481013780B43137010BC704700E4000001238340012826D822
:40648000DBB2134A92F80024134220D010B4104922EA030381F800340E4B03EB8002D26C184490F85440137823EA0403137090F85830CA1892F80434013BDBB282F8043453
:4064C00023B9054A137823F01003137010BC7047FCA0FF1F00E40000005B004001238340012827D8DBB2144A92F80024134221D110B41149134381F80034104B03EB8002A6
:40650000D26C184490F8544013782343137090F85830194491F8042422B909490A7842F010020A70044A134493F80424013283F8042410BC704700BFFCA0FF1F00E4000098
:40654000005B0040F8B5234B1B78DBB2224E3478E4B2224F3D78EDB203F00701204A11701B090132137044F00303337045F003033B7002221B4B1A70282220331A7050229E
:4065800010331A701022C0331A70002203F273631A704023144A1370023213708022134B1A702023124A13707A216532117003321370193213702A220E4B1A700122033380
:4065C0001A700A20FBF78CF93D70347066220A4B1A70F8BDCF010049F8460040F94600406E5800400D51004009590040935A0040C35A0040585B00407658004008B502F06D
:406600002BFA08BD38B50024344B1C80502202331A70042202331A80182331490B7002310A8002310B70012002310880192502310D7036200231088002310B7029492A4816
:40664000FFF7DCFF0622294B1A70294B1B78DBB2284A13705222284B1A7040F62E5222331A8042F25122023B1A800BE0234B1B7803F0010343EA440404F00304782001F02A
:4066800023F8013D0DB1032CF0D115B90320FFF751FD1B4A4FF48073138007231370002318490B704820023108701370053213700222154B1A7004220A331A70134A137891
:4066C00043F01F031370013A137843F001031370013A137843F08003137038BD8040004086400040C023004800410040004300400F010049A1460040004200402542004070
:40670000044000400640004001400040A243004008B50A46002101F013F808BDF8B507460E461546002411E0681E001B04F082FC0146084803F088FA04F0D2FEB6FBF0F385
:4067400003F130023A5503FB106601342846AC42EADBF8BD00002041F0B50C4629B1836943BB43890633438124E08369D3B10023C3830E7A4F7A33460FE09A1B616801EB00
:40678000C202D17892F9062001EB020EC58BAE4501DDA0F81EE00133DBB2BB42EDD9A37A838307E013B14389063B4381082383830023C3838461F0BD01824282704700BF5C
:4067C00009B189B200E00121C181704781814281704700BF2DE9F04782B082460D4691461E46BDF92880BDF82C700C4608E0009743464A4621465046FFF7D8FD013424B22D
:40680000AB199C42F3DB02B0BDE8F08710B582B0BDF814400194BDF910400094FFF7DAFF02B010BD2DE9F04F8DB00390049105921D46BDF858300693BDF85C709DF860A0FD
:406840008269002A40F09F80014683880498984280F20381CB88059C9C4280F2FE800AEB4A0253000344012B00F1F78004EBCA03012B00F1F280CB8A1BB9AF2D01D9013565
:40688000EDB24FF00008DDF81090DDF814B00795069E54E0079B03EB8303434403EB43039A00039B9B699D5C002442E015F0010F1DD0BAF1010F0AD104EB0B0208EB090193
:4068C000334612B209B20398FFF7DEFC2EE01FFA8AF10FFA8AF304FB01B208FB01910196009312B209B20398FFF790FF1EE0BE421CD0BAF1010F0AD104EB0B0208EB090184
:406900003B4612B209B20398FFF7BEFC0EE01FFA8AF10FFA8AF304FB01B208FB01910197009312B209B20398FFF770FF013464B26D08072CBADD08F101084FFA88F8B8F115
:40694000040FA7DD069BBB4200F08780BAF1010F09D10499053100970823059A09B20398FFF724FD79E01FFA8AF303EB8301049A11440197DB0000935346059A09B20398CD
:40698000FFF744FF69E0137AEB1ADBB2506800EBC301D2F800B030F8337091F80280CB78099391F905300A9391F906200B92BAF1010F04D91BB2079313B2089302E0002393
:4069C0000893079300231C46994643E05E1CF6B213F0070F03D17B1C1BF807409FB214F0800F2AD0BAF1010F0ED10B9B059A9A184A440A9B049959182944069B12B209B29E
:406A00000398FFF741FC18E0079B59191FFA8AF0089B03EB09020FFA8AFE059B02FB0032049B01FB0031069B01937346CDF800E012B209B20398FFF7E9FE6400E4B2013567
:406A4000EDB2334600E000254545BFD309F101095FFA89F9099A9145F5D30DB0BDE8F08FF0B585B004460D4683693BBB0A2908D1828BC189438901FB023343810023838138
:406A800054E00D2952D0C189890009B2FFF756FBB4F90A20B4F90C10A37B0293638A0193238A00932B462046FFF7BCFEE38903EB43035A00A3891344A38137E00A2908D116
:406AC000002282814189C2899B7A03FB021343812CE00D292AD01A7A914227D3597A8D4224D8AA1A5E6806EBC206B378F278BBB1B2B196F90510C2890B4403FB02F109B2A4
:406B0000FFF71CFBB4F90C10B4F90A20238A608AA77B0297019000932B462046FFF782FE3179E289A38901FB0233A38105B0F0BD018042808180C2800023038143818381F8
:406B40000122C2814FF6FF71018241828282C3828361C38308238383704700BF08B5054B002283F8082483F8090402213C20F9F787FE08BDFCA0FF1F38B504460D4611F03E
:406B8000800F00D07F25072C00D907242120FFF7E5FF2846FFF7E2FF7F20FFF7DFFF2220FFF7DCFF2046FFF7D9FF0320FFF7D6FF38BD00BF08B500210846FFF7DDFF08BD1C
:406BC00070B5FFF7F7FF0020FFF7C8FF1020FFF7C5FF4020FFF7C2FF002426462AE0A6F15000C0B2FFF7BAFF0220FFF7B7FF1020FFF7B4FF4022114B83F80824002515E0DE
:406C0000591C03EB04130D4AD35C0A4482F808340B4600E000230F2BF2DD0134E4B2002211213C20F9F72CFE0135EDB2072DF1D90136F6B2032ED2D970BD00BFFCA0FF1F2A
:406C40000E4A137803F00303127812F0800F09D0022B02D1094B5B780DE0012B0BD1074B5B7808E0022B02D1044B5B7803E0012B01D1024B5B780020704700BF00600040C2
:406C80000422014B1A60704780E100E00422014B1A60704700E100E04001C0B2014B1870704700BF02E400E0014B1B689864704708ED00E0094B1B7803F00C035B08084AD4
:406CC000127812F0040F00D0013303F1924393F82831DBB2034A1370704700BF28580040295800400A460040014B1870704700BF825B0040054B1A7802F0FD021A701A780A
:406D000000F0020010431870704700BF28580040054A137843F0040313701032137843F004031370704700BFA843004008B51422064B1A70013300221A701A78D2B21A7040
:406D40000220FFF7D7FFFFF7B5FF08BD285800404FF40062014B1A60704700BF80E100E04FF40062014B1A60704700BF00E100E04001C0B2014B1870704700BF0BE400E066
:406D8000014B1B68D866704708ED00E030B40D784C78F72820D9764A1178114443F00F030B7113780133DBB2137013781344187113780133DBB21370137813440021197100
:406DC00013780133DBB2137013781344197113780133DBB21370C9E0032801D9F02859D1F0280AD1624A1078104443F00403037113780133DBB2137034E0EF2D0AD85C4AE9
:406E00001078104443EA1513037113780133DBB2137027E0F62D0AD1554A1078104443F00503037113780133DBB213701AE0F12D01D0F32D0AD14E4A1078104443F0020350
:406E4000037113780133DBB213700BE0F22D09D1474A1078104443F00303037113780133DBB21370424B1A781A4415711A780132D2B21A701A781A4414711A780132D2B26E
:406E80001A701A7889781A4411711A780132D2B21A706BE0F72869D1012A25D012B1022A44D063E0324A1178114443F005030B7113780133DBB2137013781344F721197194
:406EC00013780133DBB21370137813440021197113780133DBB2137013781344197113780133DBB2137041E0214A1178114443F006030B7113780133DBB213701378134459
:406F00001D7113780133DBB2137013781344F721197113780133DBB21370137813440021197113780133DBB213701FE0104A1178114443F007030B7113780133DBB2137086
:406F4000137813441D7113780133DBB21370137813441C7113780133DBB2137013781344F721197113780133DBB2137030BC704704A6FF1F08B5FBF725F8FAF7EFFF08BD66
:406F800008B50A4B1B7813F0FF0F0DD0074B93F84400FCF7D7F9012806D1044B93F844001A780021FCF7CAF808BD00BF04A6FF1F08B5154B1B7803F00303012B02D0022BB4
:406FC00004D010E0104B1B79DBB20DE00E4B1B7903F07F0303EB43039A000C4B1A4492F85230DBB200E00023022B08D8074AD2F8B420D35C012B04D1FFF722FE08BD0020BC
:4070000008BD002008BD00BF0060004004A6FF1F044A137803F0FB03800000F0040018431070704700510040024B1878C0F3C000704700BFC1510040024B1878C0F38010E6
:40704000704700BF0151004008B500F045FB044A137843F01003137000F042FB08BD00BF97640040014B1878704700BF6764004010B50446FFF704FE2046FFF715FE072093
:40708000FFF70AFEFFF702FE10BD00BFF0B583B016461F460B4D00242C700194009423460A4601462046FAF7EDFF3A4631462878FBF716F802212878FBF72CF8287803B070
:4070C000F0BD00BF4281FF1FF0B583B016461F460B4C012565700023019300932B460A4601462846FAF7CEFF3A4631466078FAF7F7FF02216078FBF70DF8607803B0F0BDFA
:407100004281FF1F08B500F0E7FA044A137843F01003137000F0E4FA08BD00BF97650040014B1878704700BF67650040F0B583B016461F460B4C0525A570002301930093D9
:407140000A4601462846FAF79DFF3A463146A078FAF7C6FF0321A078FAF7DCFFA07803B0F0BD00BF4281FF1FF0B583B016461F460B4C0425E5700023019300930A46014649
:407180002846FAF77FFF3A463146E078FAF7A8FF0321E078FAF7BEFFE07803B0F0BD00BF4281FF1F024B1878C0F38000704700BF31510040024B1878C0F38000704700BFBB
:4071C000C1510040044A137803F0FD03400000F002001843107070472051004008B5084B93F8B8302BB9FFF7A1FD0122044B83F8B820FFF78DFD8020FFF776FD08BD00BF2F
:4072000004A6FF1F024B1878C0F38010704700BF8F45004000B585B000238DF80930802200928DF8083004230193039003496846FCF7D4FE05B05DF804FB00BFC0A6FF1FC7
