:400000000080002011000000A55A0000A55A000008B5044B1A6803F53F5302331A6006F0ADFB00BFFA46004010B5054C237833B9044B13B10448AFF300800123237010BDCB
:40004000E881FF1F00000000D0BD0000084B10B51BB108490848AFF300800848036803B910BD074B002BFBD0BDE81040184700BF00000000EC81FF1FD0BD0000C080FF1FB0
:40008000000000002DE9F04107460D4690461C46194606980BF070FB0646294638460BF06BFB0746294640460BF066FB014638460BF020FD014630460BF068FC01462046E0
:4000C0000BF05CFBBDE8F08110B503F079F960B103F086F948B11A4B1B7813F0FF0F04D005F04EFB08B105F02BFC03F079F930B303F066F978B1134B1878134B1A78134905
:4001000003F07AF8124C20784022124905F0D6FB207805F04DFB0A4B1B7813F0FF0F04D005F02EFB08B105F027FB054B1B7813F0FF0F04D005F024FB08B105F04FFB10BDB0
:40014000DCA3FF1FA49AFF1F9EA4FF1FA0A4FF1FA59AFF1F089BFF1F08B505F011FB28B903F044F900220C4B1A7011E00A4B1B7813F0FF0F0CD10121002003F0BBF903F031
:400180002FF90028FBD005F0DBFB0122024B1A700022024B1A7008BDDCA3FF1F0482FF1F10B5154B02221549002004F02BF805F0E7FA01281FD1124B1B79DBB2012B0BD10D
:4001C0000F4C0020214601F8080F0B4B022203F063FF0123237010BD0949012301F8083F054B0222002003F057FF03F0FFF803F02BFB02F025F810BD80A4FF1F0882FF1F5E
:400200000482FF1F08B507F0C3FC07F0D7FCFFF7C7FF08BD10B5044600210BF073FD48B1054920460BF0B2FB0AF0F2F803490BF0ADFB10BD024810BDD27EFA3DAC7F8A4138
:400240000080BBC410B504460C490BF047FD90B90B4920460BF056FD18B10948FFF7F2FF10BD084920460BF091FB0AF05FF806490BF08CFB10BD002010BD00BF0080BBC4E5
:400280000060BB4420986C3D13D002412DE9F843B64B01229A721B7B002B40F0B181B34B0022C3F80C2883F810285D7B83F8115802240FE0A01EAD4A13191B7B03F07F0335
:4002C000024482F81438C5EBC502A94901EB4202135401340F2CEDD90122A44B83F8102800250FE0A31EA1480219127B02F07F02034483F814280134013100E000210D2982
:40030000F0DD0135072DF9DD0222984B83F810286FE1964A13191D7B611C11440B7B5B0543EA0573A11C11440D7B43EA8533E11C11440D7B43EAC513211D11440D7B05F037
:400340007F051D43C2F8145C92F81038022B72D1D2F80C68AEB928460BF01AFD80B2834BA3F8180C06F17E02010A1A4482F81418B21CC3F80C287F36C0B2334483F81408D1
:4003800036E17A4BB3F8183C01335B009E421AD2784928460BF0FAFA0BF0FAFC80B2734B06F17E02010A1A4482F81418B21CC3F80C287F36C0B21E4486F8140803EB82032F
:4003C000C3F81C5C14E19E4240F012816A4BC3F86451D3F8640169490BF076FCE8B1664BD3F8640166490BF08DFCB0B15F4A06F17E031344EF2183F81418B31CC2F80C38B4
:4004000006F17F03134483F81418032382F810380022594BC3F86821EAE0574BD3F86C210132C3F86C210022C3F8702155490A7083F87421DCE0032B1ED128460BF0A8FC98
:4004400080B24D4DA5F87601484AD2F80C3803F17E01060A114481F81468991CC2F80C187F33C0B2134483F81408042382F810380023A5F87831BBE0042B40F0B9803E4B7C
:40048000B3F87861B3F876319E427FD23A4BD3F8683113F003030FD1344FD7F80C385A1CC7F80C2803F17E0628460BF071FCC0B2BB1983F8140851E0012B0FD12B4FD7F8B3
:4004C0000C385A1CC7F80C2803F17E0628460BF05FFCC0B2BB1983F814083FE0022B20D1002128460BF0F0FB58B1204AD2F80C38591CC2F80C187E331344FF2283F81428D0
:400500002CE01A4FD7F80C385A1CC7F80C2803F17E0628460BF03CFCC0B2BB1983F814081CE0194928460BF031FA0BF00BFC00B20E4AD2F80C3803F17E01C0F30725114421
:4005400081F81458991CC2F80C187F33C0B2134483F814080136084BA3F87861064AD2F868310133C2F8683142E000BF0482FF1FCCA1FF1F00FF7F47FC92FF1F0000C0BFB9
:40058000000020C01EA3FF1F00FEFF468F4928460BF09AFBF8B18E4928460BF0B3FBD0B18C4AD2F80C3803F17E011144FE2081F81408991CC2F80C187F33134483F81408B9
:4005C000052382F810380122834B1A707E31834BA3F87A110CE0814BD3F86C210132C3F86C210022C3F870217B490A7083F8742105347A4BD3F870319C42FFF48AAEDBE07E
:40060000012B79D1734B0E22C3F80C285D7B734B83F87C51022310E09A1E6E491944097B01F07F01C5EBC5006D4C04EB400081546A48024482F8801101330F2BECDD102512
:4006400030E0644C6319187B6A1C2244137B5B0543EA0073AA1C2244107B43EA8033EA1C2244107B43EAC0132A1D2244107B00F07F001843C4F8140C4FF088410BF086F943
:400680000BF086FB80B2D4F80C28531C53490A44060A82F880615A1CC4F80C280B4483F8800105354D4BD3F870319D42C9D3494CD4F80C385A1C49490B44EF2083F8800157
:4006C000531CC4F80C380A4482F880019BB2A1F87A31B3F5887F0BD00B46D1F86C210132C1F86C2100223C490A7083F8742163E00222394B1A705FE0032B5DD10027354B1F
:40070000C3F80C780225232651E0324A53191C7B691C11440B7B5B0543EA0473A91C11440C7B43EA8433E91C11440C7B43EAC413291D11440C7B04F07F041C43C2F8144C7A
:40074000284B17EA030805D508F1FF3868F0030808F101081F4BD3F8142CDFF88C9049F82820D3F8140CFFF76DFD09EB8808C8F81000013706F10108B1B2200E07F038FA09
:4007800006F102091FFA88F1C4F3074007F030FA06F103081FFA89F1C4F3072007F028FA1FFA88F10436E0B207F022FA05350B4BD3F870319D42A8D30023064A9372074A6A
:4007C000C2F8703182F87431BDE8F883000020C0000060C00482FF1F1EA3FF1FFC92FF1FB0A0FF1F03000080C480FF1F10B5194B703A1A7058709970174B1B7813F0FF0FA9
:4008000007D004F0BDFF20B100221249032004F039FF124A138804331380114B1B680B2B10D8581C0B490C780E4AD45402334C781454841C0A4804608978D15401220A4BB5
:400840001A6010BD094A13889BB201339BB2138010BD00BFD8A3FF1FDCA3FF1FDEA3FF1FE0A3FF1FE4A3FF1FF4A3FF1FF8A3FF1F10B4274B93F89032D3B91DE0CA5C12F099
:40088000800F0CD12248D0F87021541CC0F87041C2F30A02C85C1F4C2244107306E0F72A04D100221A4B83F890222EE0013300E00023022BE2DD28E00B78F02B25D1154B3A
:4008C0009B7A13BB4B787E2B04D10122104B83F874211AE0012B01D9032B16D10C4B012283F89022D3F870317BB99A18C3F30A03084803444C781C73541C054BC3F870415F
:40090000C2F30A0283188A781A7310BC704700BFFC92FF1F0482FF1F80B582B062B606F0B9FF0028FBD007F0CDF9BB4807F01AF9012004F02DFFB94807F032F904F020FFD9
:4009400008B9FFF72DFC07F0F1F801F0EDFD01F0B7F906F00FFD06F0BFFC02F05DFE02F057FE01F035F903F047F802F0C9FF642001F050FC03F014F800244FE003F022F8C9
:40098000A74B1878012101F00DFFA64B1878012101F008FF03F02AF810F0010F06D103F025F810F0100F03D1002302E0012300E00123002BEED09C4B1B78DBB2FD2B13D1D3
:4009C000994B5A78D2B2132A0BD90DE0991C9648455CC2EBC200410094480144CD54013300E000230D2BF1DD8F4B1B78DBB2FE2B13D18D4B5A78D2B2132A0BD90DE0991C54
:400A00008948455CC2EBC200410089480144CD54013300E000230D2BF1DD0134272CADDD06F010FA002517E006EB85084FEA4804A4B2204607F0C8F80746601C80B207F08A
:400A4000C3F800EB07207B4B43F82800013600E00026032EE8DD0135032DF9DD202007F0B3F8754B1860212007F0AEF8734B1860222007F0A9F8724B1860724B1860002679
:400A8000232520E06F1CA8B207F09EF8040605F10208B8B207F098F844EA0044EF1C1FFA88F007F091F844EA0024B8B2043507F08BF82043644C44F82600FFF7C3FB04EB6C
:400AC000860420610136032EDCDD604B04241C705F4A12785A7002F075FF514B1878012101F060FE4F4B1878012101F05BFE06F06BF9524B1A68574B1A70574B1C7005F00D
:400B00009DFC4B4B45221A7054225A700A2001F081FB03F07BFE0A2001F07CFB002002F045FD06F075FC012002F040FD052001F0EBF906F0C5F900220421082006F0BCFBEB
:400B400003F03CFE03F06EFD03F06CFE0122434B1A60434B93F8743113F0FF0F01D0FFF795FB404B1B68002B40F0E0823E4B1A683E4B53F822204FF6FF739A4229D13A4B3E
:400B800018681968304A52F82110354A02EB8002C2F894121B68364AD35C83B1324B1D681B682F4C04EB8303D3F8A4020BF0CAF804EB85040AF096FEC4F8A402B6E22A4B73
:400BC0001A68274B03EB82034FF08C42C3F8A422ACE225490D680868214A104490F8B4020E680C6802EB4404B4F8B832013B03F01F0303EB461302EB8303D3F8C04200EBAA
:400C0000450302EB8303C3F8C0440B6802EB83020023C2F8E0343FE000BE00000502000080A3FF1FA8A3FF1F84A3FF1FCCA1FF1FB0A0FF1F0081FF1FC8A1FF1FACA0FF1F08
:400C4000FC80FF1F14A3FF1FC480FF1FACA3FF1F1DA3FF1F1FA3FF1F1EA3FF1FE0A3FF1FFC92FF1FC0A3FF1FBCA3FF1FC8A3FF1F50A3FF1F6E4801686E4A03EB410102EBC0
:400C80008101D1F8C014006802EB8002D2F8E0040144C2F8E0140133012BEBDD644908680A68644B1A4492F8B4221844013202F0010280F8B42208680A6803EB8202D2F889
:400CC000E024520803EB8003C3F8E0245A4B1B68002B15DD013B1A46002B00DADA1C921056490B4003D5013B63F003030133920050491144D1F8E0141344514A42F82310C1
:400D00004B4B1A684B4B03EB8203D3F8E0244FF6FF739A4209D1464B1A68464B03EB82034FF07E52C3F8F024BDE0414A1168414B03EB8103D3F8E0141268414B03EB0213FA
:400D40005B6899422BD93A4D2E682B68394C04EB8303D3F8E0040AF0C1FD07462A68384B120153F802802A6803EB021358680AF0B5FD054640460AF0B1FD324B0093324B77
:400D80002A4601463846FFF77DF901464FF07E500AF0B0FE04EB8604C4F8F00483E0244A1168244B03EB8103D3F8E0141268244B03EB02135B6899424AD81D4A11681D4B8F
:400DC00003EB8103D3F8E01412681D4B03EB02139B6899423CD9164A15681368154C04EB8303D3F8E0641168154B03EB01114F68126803EB021398680AF070FD80463846F5
:400E00000AF06CFD074630460AF068FD0F4B00930C4B42463946FFF735F901464FF07E500AF068FE04EB8504C4F8F0043BE000BFBCA3FF1FFC92FF1F20A3FF1F030000807B
:400E40000081FF1F85C83F3FC1A1713FEF37183F8E4A156813688E4C04EB8303D3F8E06411688C4B03EB01118F68126803EB0213D8680AF033FD804638460AF02FFD074666
:400E800030460AF02BFD844B0093844B42463946FFF7F8F801464FF07E500AF02BFE04EB8504C4F8F004794D2E682B68784C04EB830329687A4A02EB81021169D3F8F004B7
:400EC0000AF064FDFFF7A6F904EB8606C6F8940229682A6804EB4202B2F8B8322868714A52F8202003EB411304EB8303C3F8C0222A682B6804EB4303B3F8B83204EB4202FE
:400F0000013303F01F03A2F8B8322B6804EBC303D3F804752B682A6804EBC202D2F8002504EBC303C3F804252B682A6804EB8202D2F8942204EBC303C3F800252B6804EBC9
:400F4000C303D3F824652B682A6804EBC202D2F8202504EBC303C3F824252B6804EBC3035149D3F800050AF011FD80462B6804EBC3034E49D3F804050AF008FD01464046B8
:400F80000AF0FCFB8046484938460AF0FFFC014640460AF0F3FB07462B6804EBC3034449D3F824050AF0F2FC014638460AF0E6FB0746404930460AF0E9FC014638460AF039
:400FC000DBFB06462B6804EBC303C3F820052B6804EB8303D3F894722B6804EB83043649D4F840050AF0CAFB014638460AF08AFE98B92A68264B03EB8202D2F894422A6837
:4010000003EB82032C49D3F840050AF0B5FB014620460AF059FE002850D01C4D2F682B681B4C04EB8303D3F8940209F05BF904EB8707C7F850052B682A6804EB8202D2F8B8
:40104000502504EB8303C3F840252B682A6804EB8202D2F8502504EBC303C3F800252B682A6804EB8202D2F8502504EBC303C3F804252B6804EBC3030022C3F820252B688D
:4010800004EBC304C4F8242524E000BFBCA3FF1FFC92FF1F0081FF1FFE44D73EEF37183FC480FF1FC8A3FF1FC6DB7A3FC6DBFABFDBC1FA3F64EB753F9A99193FB24A11689F
:4010C0001268B24B03EB8202D2F8402503EB8103C3F85025AE4B1B6873B1AB4B1D681B68AA4C04EB8303D3F8501530460AF046FB04EB8504C4F89402A34D2B68A34C04EB21
:4011000083032968A34A52F82110D3F894020AF033FBA1490AF03AFC4FF08C410AF02EFB2B682B6804EB8304C4F8A402964B1A689A4B53F83230002B20DB934B1B68934C05
:4011400004EB8303D3F8A4020AF0FCFDD4F86035984213D08C4D2B6804EB8303D3F8A4020AF016FE002106F0FDF92B6804EB8303D3F8A4020AF0E6FDC4F86005012002F081
:401180003BFA00286AD174E0804DD5F86465A0B202F024FA06EBC40605EB8606C6F8680505EB84050022C5F808260EE0774B02EBC40103EB8101D1F8681503EB8403D3F83E
:4011C00008060144C3F808160132072AEEDD6F4A02EB8401D1F80836DB08C1F8083602EB4402B2F81C2602F119018B4202D8193A934204D25B09654A224482F82836634BB8
:401200001A1992F828168AB203EB4403B3F830369A4216D0032C06DC0022C1F17F0104F1090006F059F9042C0BD106F0E9FB40B1564B2344002293F8281604F1090006F006
:401240004BF9524B1A1992F8282603EB4403A3F830265201A3F81C26013400E00024042C92DD4A4AD2F86435013303F00703C2F8643500F091FC10F0010F06D100F08CFCFD
:4012800010F0100F03D1002302E0012300E00123002BEED00024AEE0414B1B78221D134113F0010F18D03F4B53F824204FF6FF739A4211D101223C4B1A553C4B53F82430F9
:4012C0007E2B0FD8354A52F83420002A0ADB0133364A42F8243005E00023334A1355334A42F82430304B1B5D43B12C4B53F83430002B03DB01222E4B1A5502E000222C4B5C
:401300001A552A4B53F824303C2B0DD9234B53F83430002B08DB1D4B03EB840322460021D3F83C0605F02EFF6300224A12F814500133D35C03EB0525144B03EB8403C3F8D6
:401340004C56002D3ADD114B03EB8403D3F85C36A3BB164A42F82430154A1355164B5E78013E0C4B53F824000AF0ECFC06EB4606B3001844054B03EB8403C3F83C062246B2
:40138000294605F0FFFE2EE0BCA3FF1FFC92FF1FFC80FF1FC480FF1F00802A4324A3FF1F249AFF1FC8A3FF1F64A3FF1F54A3FF1F50A3FF1F70A3FF1F18A3FF1F9DB99D4BCF
:4013C00003EB8403D3F85C36002B0CDD994B03EB840322460021D3F83C0605F0D3FE0022954B43F82420934B03EB8403D3F84C26C3F85C260134032C7FF74EAF02F0F6FA4B
:4014000010F0010F06D102F0F1FA10F0100F03D1002302E0012300E00123002BEED0874B1B7813F0FF0F09D019E08549CA5CD2B28448C2540022CA54013300E000230F2B8C
:40144000F3D9814B1B681BB101227E4B1A7002E000227C4B1A7000227B4B1A609CE0774B1B78DBB2012B3DD1724B93F86C369BB1744AFD231370754B93F811385370744A14
:40148000136005F011FD6B4A002382F86C366B490B70A2F86E367FE06A4A022313706B4991F8111851701AE06249B1F86E26B1F87A118A420BD2501C5E49A1F86E066349E8
:4014C0000A4492F81428D2B25E49CA5406E0EE215C4AD1540121574A82F86C1601330F2BE2D959E0554B1B78DBB2022B37D1514B93F86C3673B1534AFD2313704D4B93F869
:401500007C115170002283F86C264C490A70A3F86E2641E04B4B03221A70464A92F87C215A70022318E04349B1F86E26B1F87A118A4209D23F49501CA1F86E060A4492F86F
:401540008011404AD15406E0EE213E4AD1540121384A82F86C1601330F2BE4D91CE0374B1B78DBB2032B09D1364B04221A70394A12785A700022314B1A700DE02F4B1B78EE
:40158000DBB2042B08D12F4B05221A70324A12785A700022294B1A700122304B1A60304B1B78DBB2FD2B21D12D4B5B78DBB2274A927A012A1AD0214A127812F0FF0F15D159
:4015C0001846234A1268934210D0132B0BD90DE09A1C23498C5CC0EBC0014A0021490A44D454013300E000230D2BF1DD1C4B1B78DBB2FE2B3FD11A4B5B78DBB2134A927A17
:40160000012A38D00D4A127812F0FF0F33D11846154A126893422ED0132B29D92BE09A1C0F498C5CC0EBC0014A0010490A44D45401331EE0FC92FF1F54A3FF1F1EA3FF1FE0
:40164000E4A3FF1FACA3FF1FF4A3FF1F0482FF1FC8A1FF1F1DA3FF1F1FA3FF1FE0A3FF1F84A3FF1FCCA1FF1FACA0FF1FB0A0FF1F00230D2BD3DD3A4B1B7813F0FF0F0BD062
:4016800002F0A0F9374B1878012101F08BF8364B1878012101F086F8344B1B7813F0FF0F01D0FEF759FD324B1B7813F0FF0F11D004F066F870B12F4B1B88402B05D92E4AC3
:4016C000B2F870360133A2F870360022294B1A80FEF7FAFC03F07EF80028FBD102F092FF264B1A78264B1A7226490C680A68264850F82220C2F3072203F814200A6852000D
:401700000132096810F8211099541B4991F8722602F00F00D873013281F872261B7A13F0010F03D0012006F07BF902E0002006F077F900F023FA154B1878012101F032F822
:40174000134B1878012101F02DF81249D1E90023013243F10003C1E90023FFF7DFB900BFACA3FF1F80A3FF1FA8A3FF1F0482FF1FDCA3FF1FDEA3FF1FFC92FF1F249AFF1F08
:4017800098A3FF1FBCA3FF1FC8A3FF1F6CA3FF1F94A3FF1F48A3FF1F014B1878704700BF6A640040024B187800F00700704700BF02410040034B1A7800F0F800104318706F
:4017C000704700BF02410040014B188880B270470041004070B505460E46FFF7E3FF0446FFF7F2FFA84256D02B4B1B7803F0010294B900B185B938B9284B1D80284A137884
:4018000003F0BF03137070BD254A137843F040031370224B1D8070BD22B3002321490B70012413310C7004390B7008390B7803F07F030B701A4B1B7813F0080F00D08DB9C3
:40184000194B18800721013B1970164B1B7813F0010FFAD110490B7803F0FE030B700021104B19700C4B1B7813F0010F0DD00E4B1D800EB1032200E001220A4B1A70094B73
:401880001B7813F0010FFAD170BD044B1D8002490B7813430B7070BDA143004000410040024100400140004002400040024B187800F00700704700BF82400040034B1A787B
:4018C00000F0F80010431870704700BF82400040014B188880B270478040004070B505460E46FFF7E3FF0446FFF7F2FFA84256D02B4B1B7803F0010294B900B185B938B9CF
:40190000284B1D80284A137803F0BF03137070BD254A137843F040031370224B1D8070BD22B3002321490B7001240F310C7004310B700C390B7803F07F030B701A4B1B78ED
:4019400013F0080F00D08DB9194B18800721013B1970164B1B7813F0010FFAD110490B7803F0FE030B700021104B19700C4B1B7813F0010F0DD00E4B1D800EB1032200E098
:4019800001220A4B1A70094B1B7813F0010FFAD170BD044B1D8002490B7813430B7070BDA243004080400040824000400140004002400040704700BF074B1B7813F0020FE2
:4019C00008D0064BB6221A70E0221A700D221A70072070470420704722470040204700400C4B1B7813F0020F0FD00B4BB6221A70E1221A700E221A7002331B7813F0020F56
:401A000005D1054B187007207047042070470920704700BF224700402047004070B41D4C247814F0020F2CD01B4CB6252570D5252570022525700234247814F0020F22D11A
:401A4000154C2070002404E0165D134D2E700134A4B29C42F8D3B3F5807F16D13F2816D800F5103001EB00214801002305E01A5CD2B209490A7001339BB21F2BF7D90720CA
:401A800006E0042004E0092002E0072000E0072070BC7047224700402047004008B501E00A4B1B780A4B1B7813F0200FF8D106F06BFA084B1A7842F001021A701A7802F0E0
:401AC000FE021A7006F064FA08BD00BF5D6400406A6400409D64004008B506F055FA0A4A137843F020031370FB3A137843F010031370033A137843F01003137006F048FA28
:401B000001F022FF08BD00BF9865004010B5044604F0E4FC204604F09FFC10BD08B506F033FA0A4A137843F0200313700332137843F0100313700432137843F01003137082
:401B400006F026FA01F0F2FE08BD00BF9465004008B50F22074B1A7001F004FF01F046FF01F03EFF0222044B1A70202204331A7008BD00BF846500408765004001E0044B86
:401B80001B78044B1B7813F0200FF8D1704700BF5D6400406A640040014B1878704700BF6D64004008B50F22074B1A70FFF776FFFFF7F2FFFFF7F0FD0222044B1A7020228F
:401BC000033B1A7008BD00BF886500408D64004008B5054B1B7823B9FFF7E4FF0122024B1A70FFF779FF08BD9C99FF1F154B1B7803F00303012B07D8134B1888023B1B8891
:401C00009BB243EA004013E0022B0AD10E4B1888023B1B7843EA00430C4A107843EA002006E00B4B188883B2074A108843EA0040084B5B7813F0FF0F02D00022054B9A709F
:401C4000704700BF144E0040124E0040114E0040104E00409C99FF1F094B5B7813F0FF0F03D0074B9B78DBB203E0064B1B7803F00103012B01D00028EED01846704700BFAA
:401C80009C99FF1F014E0040024A137843F0010313707047004E004010B50446074B1878FF2801D0FFF732FF204604F047FC204604F0F4FB014B1C7010BD00BFE480FF1F90
:401CC00010B5002407E0204604F008FC204604F0C3FB0134E4B2012CF5D9FF22014B1A7010BD00BFE480FF1F08B506F04DF90A4B0022DA705B68012B0AD1084A136843F04F
:401D00000103136000BF00BF00BF0022024B5A6006F03EF908BD00BF9C99FF1F0400084010B506F031F90F4BDB78A3B901220D4BDA700D4B1B6813F0010F0ED00A4A136828
:401D400023F00103136000BF00BF00BF0122054B5A60002402E0042400E0002406F018F9204610BD9C99FF1F0400084030B4104C247814F0020F15D00E4CB6252570D825C7
:401D80002570052525700234247814F0020F0BD1084C2070080A2070C9B2217022702370072002E0042000E0092030BC704700BF224700402047004030B43E2801D81F2B00
:401DC00003D93F2827D90F2B27D8174C247814F0020F24D0154CB6252570D4252570012525700234247814F0020F1AD10F4C2070C1F300202070C9B22170591EC9B2217095
:401E0000002104E0545C094804700131C9B29942F8D3072006E0012004E0012002E0042000E0092030BC7047224700402047004008B506F0A9F8064A137843F008031370B0
:401E40001032137843F00803137006F0A1F808BDA0430040134B1B78DBB20360124A127843EA02230360114A127843EA024303600F4A127843EA026303600E4B1B78DBB2D6
:401E800043600D4A127843EA022343600B4A127843EA024343600A4A127843EA02634360704700BF0301004904010049EC46004002010049010100490001004905010049EF
:401EC0000601004908B506F05FF800BF00BF00BF00BF00BF00BF00BF00BF00BF00BF00BF00BF00BF00BF00BF00BF064A13889BB243F0040313801388BFF36F8F06F048F812
:401F000008BD00BF0048004008B500EB8003C0EB031006F031F808BDF8B5074606F034F806460D4D2B7843F003032B700B4C237843F0030323700A4B1F700320FFF7E4FFF1
:401F40002B7803F0FC032B70237803F0FC032370304606F01DF8F8BDF8460040F94600409258004070B506F00FF806462A4B5B782A4B1A7842F001021A701A7842F0100262
:401F80001A7010331A7842F001021A701A7842F010021A70224D2B7843F002032B70214C237843F0020323701F4A137843F0030313700320FFF7A8FF2B7803F0FD032B704A
:401FC000237803F0FD032370184A137843F0060313707A22164B1A70164A137843F0010313701032137843F0010313700F3A137843F0010313701032137843F0010313704C
:402000004FF000530C4A1360A2F5C0721360304605F0BEFF70BD00BFE480FF1FAA430040F8460040F9460040915800407758004082580040A143004080E200E070B5064620
:402040000D4600240CE00120FFF75EFF064B1B7813F0010FF7D0054B1B7833550134E4B2AC42F3D3204670BD22470040204700402DE9F041441FE4B23A2C01D9002500E079
:40208000012510F0800F00D00125412800D901253F2803D8B1F5807F06D808E0802900D90125102B02D102E0012500E0012502B90125002D50D1984616460F460446FFF79E
:4020C0002FFE002847D14346324639462046FFF7A5FC064607283AD102E00120FFF714FF1F4B1B7813F0020FF7D01D4B1B7813F0020F06D01A4B1B789B0805D04FF0FF36C3
:4021000003E04FF0FF3600E02E4606BB154A5378127839462046FFF729FE072804D0064615E00120FFF7F0FE0D4B1B7813F0020FF7D00B4B1B7813F0020F06D0084B1B78B5
:402140009B0804D04FF0FF3601E04FF0FF36FFF7CBFD354600E004252846BDE8F08100BF224700409CA4FF1F10B5FFF761FEFFF7D7FDD0B9FFF720FC0446072812D102E0D6
:402180000120FFF7C1FE0A4B1B7813F0020FF7D0074B1B7813F0020F04D0054B1B789B0800D10024FFF7A0FD00E00424204610BD2247004010B5FFF73BFEFFF7B1FD10BB64
:4021C0000120FFF70DFC072818D102210F48FFF735FF02280AD102E00120FFF795FE0C4B1B7813F0020FF7D0002409E0084B1B7813F0020FE9D04FF0FF3401E04FF0FF3428
:40220000FFF772FD00E00424204610BD9CA4FF1F2247004010B5044604E0074805F0ACFEA4F50044B4F5004FF7D8044800FB04F005F0A2FE10BD00BF0000059A0A34010038
:40224000024A137843F0010313707047F646004001BE704710B59DF80840012C52D1013809282ED8DFE800F0052D2D052D2D0F192D230F2B03D92548007840B222E024487A
:40228000007840B21EE00F2B03D92248007840B218E02148007840B214E00F2B03D91F48007840B20EE01E48007840B20AE00F2B03D91C48007840B204E01B48007840B2E9
:4022C00000E0002001EB401101FB02F1C90B8AB20D2B0BD8C3F10E0289B211418AB2611E124800EB810101338B7205E0631E0F4901EB83030F219972013C0C4B03EB84040E
:40230000228110BD0020FFF7A3FF10BD180100491C010049190100491D0100491A0100491E0100491B0100491F0100499C99FF1F38B504460D46072902D90020FFF788FFF7
:402340001F2C02D90020FFF783FF04F01F0000F1604000F564406D01EDB2057038BD00BF70B504460E46074B1D681F2802D90020FFF76EFF04F01F04103455F8240045F8E4
:40238000246070BD08ED00E00022314B5A7001285DD170B530222F4B1A70042202331A70072201331A70002401331C7001331C703F2201331A7002331C7001331C70013319
:4023C0001C7001250A331D70502203F527631A703C2201331A70222201331A7001331C70442003331870462201331A70062601331E70022202331A70122201331A702822B0
:4024000001331A70EB2201331A70FFF785FDC022114B1A70032201331A7005331D7001331D7001331C700A2201331A704FF47A42074BDA6029463046FFF750FA29461C2065
:40244000FFF7C8F905491D20FFF78AFF70BD70479C99FF1F004E004094580040B5190000F0B583B0294E01277770294D0024AC701020FFF723FA1020FFF79CF906211D2066
:40248000FFF756FF0422234B1A7001331C7007331C70214A137843F0180313701F4B1C7003F2F5231C7001331C700A22A3F209331A7001331C7002331C705B2205331A70D0
:4024C0005E2201331A7004331C701422A3F68C231A70009710234FF4004249F2B9010720FFF7B8FE7378013B05EB83039A7A0C4B1A707378013B05EB83052A89094B1A80EA
:402500007078FFF741FF03B0F0BD00BFE480FF1F9C99FF1F96580040075B0040935800400E4E00400C4E004008B5084B1B7C4BB9064B5B7C13F0FF0F01D1FFF791FF0122F9
:40254000024B1A74FFF70EFD08BD00BF9C99FF1F024A137803F0FE031370704702470040054A137843F001031370034B1B7813F0020FFAD0704700BF0247004008B505F016
:4025800003FD0F4A137843F0080313701032137843F008031370C8220A4B1A700A4A137843F0100313701032137843F010031370064B1B7813F0200FFAD005F0E9FC08BD62
:4025C000A043004001470040AC4300400047004008B53F2801D9102301E04FF48073FFF747FD08BD08B5FFF7BFFD034610B9FFF7E1FD0346184608BD10F0800F08D1C0004A
:4026000000F1804000F5F0408180C280002070470120704710F0800F0CD111F4704F0BD1C00000F1804000F5F04001808270C37000207047012070470120704710F0800F74
:4026400012D110B5044605F09FFCE30003F1804303F5F043054A917819709470D3780133D37005F095FC10BD704700BFE480FF1F10B505F089FC0A4BDB78182B0BD9084AC1
:402680009478013BD370E30003F1804303F5F0431B78937000E0FF2405F07AFC204610BDE480FF1F17281BD810B4C00000F1804404F5EC44D201D2B201F07F0111432170D0
:4026C0009DF804201201D2B203F00F03134363709DF8083003F00F03A3700020E07001E00120704710BC7047172805D8034B03EB0010417200207047012070471070004041
:4027000041F6FF73994201D14FF4005141F6FF739A4201D14FF40052172808D8C00000F1804000F5EC408180C280002070470120704700BF17280BD80001064A835C03F01C
:40274000F103490001F00E011943815400207047012070471070004017280CD80001074BC1180A7942F004020A71C25C42F00102C254002070470120704700BF1070004060
:4027800017280BD80001064BC25C02F0FE02C254C25C02F0DF02C254002070470120704710700040172815D831B103010A495A5C42F020025A5405E0030107495A5C02F00B
:4027C000DF025A540001044A835C43F0010383540020704701207047107000404001C0B2014B1870704700BF00E400E0014B1B681864704708ED00E0024A137843F00103F9
:402800001370704708590040704700BFF8B50646082801D9012400E0044625460E4B1B5DFF2B09D00D4B185DFFF7AAFF0A4F385DFFF704FFFF233B55094B585DFF2804D0AD
:40284000FFF7FCFEFF22064B5A550134E4B2082C01D8092EE1D0F8BD489BFF1F549BFF1FB099FF1F70B52D4C607AFFF775FFA07AFFF772FF2A4B1B78FF2B03D1FFF7F8FE08
:40288000274B1870264C2078062302460A21FFF7C1FE224E06F10C05ADB22A4645F6A2312078FFF7A9FE2178707AFFF71DFF6378FF2B02D1FFF7DCFE6070194E70780723B3
:4028C00002460A21FFF7A6FE144C04F1180292B229467078FFF790FE7178A07AFFF704FF0121607AFFF75EFF0121A07AFFF75AFF05F04AFB0B4A137843F02003137005F07F
:4029000047FB094B1A7842F001021A701A7842F002021A700122054B1A6070BDB099FF1FE880FF1F936400407B64004080E200E008B505F029FB064A137843F00403137051
:402940001032137843F00403137005F021FB08BDA543004010B50C46284B18700023284A1370284A1370284A1370284A1370284A1370284A1370284A1370284B4FF400022F
:402980001A604FF080721A604FF400121A6010221A6020221A600321214A11704FF480021A6050221F4B1A701F4804F08FFF04F0D7FF04F077FF14B1012C06D00BE01B4AD1
:4029C000137803F0FE0313700AE0184A137843F00103137004E0154A137803F0FE0313700322134B1A708022203B1A70012005F0C3FA04220F4B1A7010BD00BF989AFF1FB2
:402A0000B59AFF1FE29AFF1F999AFF1FA29AFF1FB49AFF1FA39AFF1FB99AFF1F00E100E09E6000409C600040F555000009600040286000401260004010B50222124B1A7034
:402A400081220E3B1A70082202331A70052211331A70002401331C704FF400420B4B1A6006210F20FFF764FC09490F20FFF778FC084B102283F8222083F8234083F8244033
:402A800083F8254010BD00BFD649004080E100E0F52D0000B099FF1FF8B505F075FA0546454A137843F0010313701032137843F0010313700127414B1F700226943B1E7002
:402AC00002F5E2521B32137803F07F0313700020FFF71AFA3A4C237803F0F9032370394A137803F0DF03137023783B4323703846FFF70AFA2820FFF707FA334B1A7802F043
:402B00007F021A701A7802F0BF021A702378334323703046FFF7F8F9237843F00403237000232A4A13700132137006E0FF222849CA542849CA5401339BB2082BF6D928466C
:402B400005F026FA03211720FFF7F2FB22491720FFF706FC03211820FFF7EAFB1F491820FFF7FEFB03211520FFF7E2FB1C491520FFF7F6FB03210420FFF7DAFB194904205C
:402B8000FFF7EEFB03210520FFF7D2FB16490520FFF7E6FB00211620FFF7CAFB13491620FFF7DEFB03210C20FFF7C2FB10490C20FFF7D6FBF8BD00BFA54300409D60004034
:402BC0009443004012600040F851004084600040489BFF1FB099FF1F7D56000081540000C54C00007958000031580000395500003155000010B505F0C7F90446184A13781F
:402C000043F0020313701032137843F00203137002F5AA521032137843F0030313701822104B1A70013B1A7842F040021A701A7802F0FC021A70C822053B1A700222A3F56E
:402C40009753123B1A70084A137843F0080313700A20FFF759F9204605F09AF910BD00BFAB4300400E5900402F5B0040F0B583B016461F460B4C0625A570002301930093F0
:402C80002B460A4601462846FFF70CFD3A463146A078FFF735FD0421A078FFF74BFDA07803B0F0BDE880FF1FF0B583B016461F460B4C0725E5700023019300932B460A4673
:402CC00001462846FFF7EEFC3A463146E078FFF717FD0421E078FFF72DFDE07803B0F0BDE880FF1F10B541F6FF734FF4804201210220FFF7D9FF084C607241F6FF731A4657
:402D000001210A20FFF7B2FFA0720448FFF76EFD0020FFF763FD10BDB099FF1F0928000008B50A280FD00C2802D0082806D102E04FF4805209E04FF4807206E00020FFF71A
:402D400087FA002201E04FF4806209490020C88442F2107303FB02F303F27263054A82FB03E21A44DB17C3EBE2238B62888508BDB099FF1FEF09E09E10B504460A280DD00A
:402D80000C2802D0082804D101E0C22207E0422205E00020FFF75CFAC22200E08222034B1A702046FFF7BCFF10BD00BF0A59004008B5064A137843F0060313700C20FFF7A8
:402DC000DBFF0022024BDA8508BD00BF09590040B099FF1F08B5064B93F830302BB9FFF7E7FF0122024B83F83020FFF703FF08BDB099FF1F38B5B74B1C78B74B93F8223024
:402E000013F0400F00F05A81E4B214F0010F00F03A81B14B93F82230453B052B00F23081DFE813F006008D002E012E010600F50004F0DF0504F00A04082C48D1A64B93F89B
:402E40002230DBB2452B39D1A34B93F8313013F0FF0F10D0A04B5A6B1278D2B29F490A7004219C4A1170012283F82520462283F822202C4607E1984B93F8383013F0020F36
:402E80000FD0954B93F8232042F00A0283F82320602283F822204FF40042914B1A602C46F1E0904A137843F01003137010228E4B1A700422023B1A702C46E4E00022854B54
:402EC0001A704A22844B83F822202C46DBE00A2C30D1814B93F8232042F0A00283F8232093F8383013F0020F17D07B4B93F8223013F0080F01D0092200E00A22764B93F8C1
:402F000023100A4383F82320602283F822204FF40042734B1A602C46B5E0724A137843F0100313701022704B1A700422023B1A702C46A8E00020FFF78BF92C46A3E014F04F
:402F4000020F3CD1644B93F82520D2B293F83130DBB29A4212D2604A92F82530DBB2516BCB5CDBB25D490B7004215A4B197092F825300133DBB282F8253084E0564B93F8FE
:402F8000383013F0020F0ED0534B93F8232042F00A0283F82320602283F822204FF400424F4B1A606FE04F4A137843F01003137010224D4B1A700422023B1A7063E0464B26
:402FC00093F8383013F0020F0ED0434B93F8232042F09A0283F82320602283F822204FF400423F4B1A604EE03E4A137843F01003137010223C4B1A700422023B1A70364A82
:4030000092F8233043F0900382F823303BE0324B93F82420D2B2D86B30490978C9B2815493F824200132D2B283F8242093F82420D2B293F84030DBB29A4203D21022254B35
:403040001A7020E0244B93F8383013F0020F0ED0214B93F8232042F0090283F82320602283F822204FF400421D4B1A600BE01D4A137843F0100313700022164B1A7002E002
:403080000020FFF7E5F814F0200F21D0124B93F8223013F0080F01D0012200E002220E4B93F823100A4383F823200E490A7802F0EF020A70102283F8222038BD064B93F895
:4030C000223013F0100F03D11022034B83F8222038BD00BFD7490040B099FF1FD849004080E100E0D6490040D9490040F1B91F490B5CDB0003F1804303F5F0431C4A32F8A7
:40310000102092B2203A92B21A800B5CDB0003F1804303F5F043174A02EB8002526C203292B29A800122144B1A5415E00F4A135CDB0003F1804303F5F04302211980135CEC
:40314000DB0003F1804303F5F0430A4A02EB8002526C1E3292B29A80084B1A5C084B03EB0213024A125C5A72704700BF489BFF1FE89AFF1FB099FF1FFC9AFF1F549BFF1F7F
:403180001070004010B5044600EB40039800164B1844037913F0800F03D00A0C4FF4804302E00B0C4FF48042012C02D0022C07D00CE00121202004F097FB0C4B185505E041
:4031C0000121202004F0AEFB084B1855631EDBB2072B07D8FFF74CFA054B1855FFF748FA044B185510BD00BF0CA4FF1F549BFF1F489BFF1FB099FF1F431EDBB2072B00F223
:40320000AA802DE9F04715460E46044600EB40029300514A1344DB7843EA15234F49020188188B54EBB243704D4B1B5DFF2B03D131462046FFF7A6FF002E43D0494F385D56
:40324000FFF79EFA484B23F81450DFF8348108EB84035E64DFF80891112318F804202946202D28BF202119F80400FFF7D3F94FEA041A0AF108023D4D2A4492B2B1B219F847
:403280000400FFF7B9F918F80400394B1B5D02460121FFF7BFF90AEB050292B2354989B218F80400FFF7A8F9385DFFF755FA19F80410385DFFF718FA0121385DFFF772FAE1
:4032C000BDE8F08704EB44029300234A134400225A70002D33D0244B23F81450264B1A55204E305DFFF74CFA1D4FDFF89480112318F804202946202D28BF2021385DFFF7D7
:4033000089F908EB840822010832184D2A4492B2B8F84410385DFFF76FF9305DFFF71CFA395D305DFFF7E0F90121305DFFF73AFA24012B5D43F001032B55BDE8F08704EB4E
:4033400044029300044A13445A79D2B224010B4B1A55BDE8F08770470CA4FF1FFC5F0040489BFF1F549BFF1FE89AFF1F7060004000C20000EC80FF1FFC9AFF1FFE5F0040F7
:40338000B099FF1F431EDBB2072B0BD8064B00011A18185C00F00F00537843EA0020023880B2704700207047FC5F004000EB40008300024A13445878704700BF0CA4FF1F9A
:4033C000064B1B7813F0FF0F05D0044B1878C0B200221A7070470020704700BFE29AFF1F014B1878704700BF999AFF1F08B50920FFF70CFA04F0C8FD214A137803F07F0376
:4034000013700A32137803F0FB031370A2F5E3520D3A137803F0FE0313701032137803F0FE031370174B1A7842F080021A701A7842F040021A7004F0ABFD134B4FF4000274
:403440001A604FF080721A604FF400121A6010221A6020221A6004F07DFB4FF480520B4B1A6000230A4A13700A4A13700A4A13700A4A13700A4A13700A4A82F8683008BD1E
:4034800008600040F851004080E100E080E200E0E29AFF1F999AFF1FA29AFF1FB49AFF1FA39AFF1FB099FF1F00230A4A13700A4A13700A4A13700A4A13700A4A13700A4A3B
:4034C00013700A4A13700322094B1A708022203B1A707047B59AFF1FE29AFF1F999AFF1FA29AFF1FB49AFF1FA39AFF1FB99AFF1F2860004038B504460D46074B93F8683080
:403500002BB9FFF7C9FA0122034B83F8682029462046FFF71FFA38BDB099FF1FF0B583B016461F460B4C032565710023019300930A4601462846FFF7B5F83A46314660798A
:40354000FFF7DEF829466079FFF7F4F8607903B0F0BD00BFE880FF1FF0B583B016461F460B4C0225A5710023019300930A4601462846FFF797F83A463146A079FFF7C0F818
:403580000321A079FFF7D6F8A07903B0F0BD00BFE880FF1F044A137803F0FD03400000F00200184310707047F0510040044A137803F0DF03400100F02000184310707047AA
:4035C000F0510040044A137803F0FE0300F0010018431070704700BFF0510040C0F10400044A02EB4000B0F91830908D181A00B2704700BFB099FF1F044B1B7803F0FF02E5
:403600000BB90028F8D01046704700BF6464004008B5FFF7F1F808BD08B5074BDB6E23B9FFF760FB0122044BDA66FFF7D3FBFFF719F9024B1B7808BDB099FF1F646400408A
:40364000024B1878C0F38000704700BFF1510040024B1878C0F3C000704700BFF1510040024B1878C0F34000704700BF315100404FF40043054A1360054A92F8230000218D
:4036800082F82310034A1360704700BF80E100E0B099FF1F00E100E04FF40042084B1A60084B93F82300C0B293F8223013F0400F01D040F004004FF40042034B1A607047C1
:4036C00080E100E0B099FF1F00E100E070B400294ED00D46284991F82210C9B2102906D12649097811F0080F14D1002415E0224991F82210C9B260290ED14FF400442049ED
:403700000C601D4C94F8231001F0F70184F82310002402E0012400E0022454BB1649492681F82260002681F8246081F84020CD6381F8383091F8232002F0FE0281F82320CD
:403740004200D2B242F001020E490A7013F0010F06D01222094B1A700422023B1A7002E00122064B1A704FF40042074B1A6000E00224204670BC7047B099FF1FD94900404C
:4037800080E200E0D849004000E100E070B400294CD00D46274991F82210C9B2102906D12549097811F0080F14D1002415E0214991F82210C9B260290ED14FF400441F4937
:4037C0000C601C4C94F8231001F0F70184F82310002402E0012400E0022444BB1549452681F82260002681F8256081F831204D6381F8383091F8232002F0FD0281F82320B2
:403800004200D2B20E490A7013F0010F06D01222094B1A700422023B1A7002E00122064B1A704FF40042074B1A6000E00224204670BC7047B099FF1FD949004080E200E07E
:40384000D849004000E100E02DE9F8434FF40049224BC3F80090DFF8A48098F80030204CE372204F3B7823731F4E3378637330783B7843EA002001301C4D2B7803F0FE0396
:403880002B7080B204F078FB04F07EFB184A137803F0FB0313701032137803F0FB03137004F076FB2B7843F002032B70E37A88F80030E37A88F80030237B3B70637B337006
:4038C0002B7803F0EF032B700A4BC3F800901022094B83F82220BDE8F88300BF80E100E0E880FF1FDB490040DC490040D6490040A543004080E200E0B099FF1FCA490040D0
:4039000008B5084B93F870302BB9FFF795F80122044B83F87020FFF70BF84FF40042024B1A6008BDB099FF1F00E100E0054A137843F0080313701032137843F0080313700D
:40394000704700BFA2430040054A137843F0040313701032137843F004031370704700BFA243004008B501E00A4B1B780A4B1B7813F0200FF8D104F007FB084B1A7842F07A
:4039800001021A701A7802F0FE021A7004F000FB08BD00BF5B6500406B6500409B65004008B504F0F1FA064B1A7842F001021A701A7802F0FE021A7004F0EAFA08BD00BF01
:4039C0009B65004001E0044B1B78044B1B7813F0200FF8D1704700BF5B6500406B650040014B1878704700BF6B650040014B1878704700BF6765004008B5064B93F8713067
:403A00002BB9FEF7A5F80122024B83F87120FEF785F808BDB099FF1FF0B5059C069F00251560DD01A54206D85E1CF601013EB44203D9002602E0002600E00126D6B104F09C
:403A40007F02803202603C44A54206D80133DB01013B9C4203D9002302E0002300E001231BB117440F600020F0BD4FF480730B600020F0BD04EB070E754505D80133DB01BE
:403A8000013B9E4500D8012666B180230360FB1864F07F041C440C6003681C1B274417600020F0BD0120F0BDC1680268D30912F07F0200D001221A44436803FB02F3027A99
:403AC00002FB033301EB032321B1B3F5802F03D903207047032070470020704710B404460022FF2013E0A35C584000230BE010F0800F04D04000C0B280F0310001E0400033
:403B0000C0B20133DBB2072BF1D9013292B28A42E9D110BC704700BF30B4044618B1086800F5807008600D681868854201D398690860002010605868844218D31C69012CB7
:403B400013D90968A1EB00259B699D420BD204F1FF1404F57F4400FB04F003EB0020C91A0844106003E0156001E00B68136030BC704700BF8B6904E003F580730A6893428C
:403B800003D21A688242F7D100E000231846704770B48A6902600024264608E013681BB19E4201D202601E4602F5807201344D680B6903FB05F39C42F0D370BC704700BFD9
:403BC000094B1B7803F00C035B08084A127812F0040F00D0013303F1924393F82031DBB2034A1370704700BF205800402158004008460040054B1A7802F0FD021A701A781E
:403C000000F0020010431870704700BF205800400F490B7803F0FC0200F0030313430B7001280AD10B4B1B78DBB20B4A13700B4B1B78DBB2013213707047094B1B78DBB24D
:403C4000054A1370074B1B78DBB201321370704740580040100100493046004014010049AD010049B501004908441044024AA2FB0030C0F34F007047ABAAAAAAF0B5C508CA
:403C800000F0070201239340DBB21C4A115C02EB41063789348B0A4492F828E0184A525D13420DD0164E06EB400080883C1BA0421DDA22EA03027255314481F814E016E061
:403CC0000F4E06EB400080883C44A0420BDD30460844007D012801D81A437255084A11440138087503E0064A114481F814E0044A505D184000D00120F0BD00BF0CC20000AF
:403D0000249AFF1F70B50A4B184490F8304090F838502544EDB200262046FFF7AFFF00B101260134E4B2A542F6D8304670BD00BF0CC2000070B40B490A5C0B4D05EB4003A0
:403D40001C8C1C862844002680F840609E80114491F828102A441175A3F84840A3F8584070BC70470CC20000249AFF1F2DE9F0410546304B1A5C03EB4203B3F840602E4CC9
:403D800004EB4004278CB4F84880B4F8582041463846FFF769FFA4F85880A4F84870228E904203D3841AA4B2012702E0141AA4B20027B7B9082C14D91F4B2B4493F86830CC
:403DC000092B08D92846FFF7B5FF1B4B2B44002283F868201DE0184A2A44013382F8683017E0B44202D9072C13D897B9124901EB050E9EF8403043EA02231844801AC0F3F8
:403E00000F2301EB45010B868EF8400000238EF86830B44206D92FB1074B03EB4505AC80BDE8F081044B03EB45050023AB80BDE8F08100BF0CC20000249AFF1F70B5044642
:403E40000E46C0F30725FEF7CDFB32462946C4F30740FEF7BDFB0446FEF734F80CB1042070BD002070BD00BFF0B5C3B00446836800931D680127002623E0009F4FF48072B1
:403E8000394601A805F040FA01350195802121A8FFF724FE2090224601A93846FFF7CEFFA069009B1B1A2068224601A91844FFF7C5FF0746234641AA69462846FFF72CFEF3
:403EC00001366268236903FB02F39E42D5D3384643B0F0BD2DE9F047C0B005468A4690469946489EB469041B33681C44C76F80210844FFF7F3FD874207D14A4605EB0801BF
:403F0000504605F001FA00241BE0E76F80216018FFF7E4FD874213D14FF480722146684605F0F2F9324669462846FFF787FF044638B94A460DEB8801504605F0E5F900E019
:403F40000224204640B0BDE8F08700BF10B5002404E0204602F0B6F90134E4B2062CF8D910BD00BF70B50546104B034493F8504093F85860032802D802F0A4F903E0043899
:403F8000C0B202F07FF90F2C00D10724074800EB8404226E137823EA0603137000EB8500D0F8803009221A7070BD00BF0CC2000008B5134B1B7813F0040F09D1104B1B7895
:403FC00013F0080F04D10E4A137803F0FC0313700C4B1B781B020C4901EB40010B840B4A12781343DB430B84FFF7BCFF002003F027FD074A137843F00103137008BD00BF7E
:40400000796400401F640040249AFF1F0F6400407258004010B5104B1A1892F8501092F8584003EB8003D3F8803009221A700F2900D10721084A02EB8102126E13782343A4
:404040001370032802D802F04DF910BD0438C0B202F028F910BD00BF0CC200007F230C4A137080210B4A117007E0DA0002F1804202F5F042013BDBB21370002BF5D1DB00EF
:4040800003F1804303F5F04300221A70704700BFE680FF1FE780FF1F2DE9F04FCDB01D4600230B930A93AB6809930391002A00F09F80824693461318EA68934200F29A80E5
:4040C000002900F099800BF1FF331B094C4AA2FB0323059301330493002307939946012081E0099B1C682B4608AA09A92046FFF713FD4FF4807200210CA803F079FF04F18F
:404100000108CDF83080CDF834A00399059B994502D1CDF838B007E070230E93ABF1700B9A44039B703303930E9A0FA805F0ECF8089921B1802211442CA805F0E5F86C68CB
:40414000A04503D9C4EB0804013400E00124002731E0444501D10CAE04E029462046FFF709FD0646099BAA699A1A120A6968B2FBF1F301FB132356B17268B1680191009202
:4041800007AA0AA90BA8FFF747FC074600E001374FB90B98079931440A9A121A0C310CAB184405F0B1F82B7D23B180212CA8FFF795FC2B9001344445CBD92A460CA9099871
:4041C000FFF73CFE2B7D4BB140B9AA69099B9B1A28682A460CA91844FFF730FE68B9099BAB6009F10109049B9945FFF47AAF04E0012002E0012000E001204DB0BDE8F08FBA
:40420000264992242DE9F04F8BB00691002A00F0E68081461F46934613181C460793FB689C4200F2DF80002900F0DF80B8680368099304F1FF3A4FEAD913C3EBDA1A0AF165
:40424000010ABC69031B7A681502B3FBF5F303FB02F304EB0323039300250EE0B9EBC51F06D36B1CDB01013B994503D9002302E0002300E001231BB901359542EED3002503
:40428000039BC01A030A184605933B69012B09D905EB0A03013B854207D8984208D20123049307E00023049304E00123049301E000230493C84600260123CDF8209089460C
:4042C00035E0039B03EB052008F07F0404F180010136B24502D9C4F1800400E05C46049B63B1059B9D4209D97B68A0EB0320BA69904203D238685B1BA0EB03203B7D5BB14C
:40430000009723460A464946FFF7E4FD034648B18246DDF820900FE022460144484604F0F3FF0023A044C4EB0B0BA14401355645C7D39A46DDF820905346002B57D1099B17
:40434000002B54D07D689D4228BF1D46013D5D1BDDF81880079E1C463EE039462846FFF709FC8646002836D0436881681944994504D29E4294BF0022012203E089452CBFFD
:40438000002201223AB3994502D3C3EB090C01E04FF0000C994502D2C9EB030000E000200CF10C0CB14228BF314699452CBFC9EB0103CB1A40443A7D42B100976246014640
:4043C0007046FFF787FD824628B110E01A460EEB0C0104F099FF0135A542BED907E001239A4604E001239A4601E001239A4650460BB0BDE8F08F00BFF8B500293DD00D4634
:4044000000283CD0C368002B3BD043680A2B3AD80768002F39D00446FFF746FB0646002834D1EF6063682B61237A2B75637A6B75E368AB612368DA0913F07F0300D0012376
:4044400013446B60626802FB03F3E26802EB03232C4644F8083B29462046FFF799FBAB681B689BB92B7D8BB12846FFF7FDFC064629462046FFF78CFB08E0012606E00126CB
:4044800004E0012602E0012600E001263046F8BD054A137843F0020313701032137843F002031370704700BFA243004008B5FFF74DFD08BD014B1870704700BF805B0040D7
:4044C00008B5134B1B7813F0040F09D1104B1B7813F0080F04D10E4A137803F0FC0313700C4B1B781B020C4901EB40010B840B4A12781343DB430B84FFF734FD0020FFF7B2
:40450000D9FF074A137843F00103137008BD00BF796400401B640040249AFF1F0B6400407058004008B5064B1A7802F0F3021A701A7800F00C0010431870FFF741FB08BDA9
:404540002058004008B5064B1A7802F0FB021A701A7800F0040010431870FFF731FB08BD21580040054A137843F0010313701032137843F001031370704700BFA8430040AD
:4045800008B51422084B1A700133002018701A7842F004021A701A7842F002021A70FFF729FBFFF70DFB08BD20580040054A137843F0010313701032137843F001031370F9
:4045C000704700BFA743004008B50020FFF720FB0B4B1A7842F020021A701A7802F0FB021A701A7842F008021A7003F287231A7802F0E7021A701A7842F010021A7008BD49
:404600004058004038B500252C4606E02046FFF779FB00B101250134E4B2072CF6D9284638BD00BF10B500240BE004F007020123934013F0FF0F02D02046FFF797FB0134D4
:40464000E4B2072CF1D910BD024B187040081033187070472464004010B5044601F05EFD124B1A7842F001021A701B7813F0040F07D00F4A137803F0FE0313702046FFF733
:40468000C9FC0A4B1B7813F0080F08D0201D094A137803F0FE031370C0B2FFF7BBFC034A137843F00203137010BD00BF79640040705800407258004010B51E4C237803F09F
:4046C000F70323701C4B93F870000430C0B2FFF76FFC237813F0040F2BD1174B93F8713013F0800F07D0144A92F8713003F0FE0382F8713010BD104C94F8700001F03CFD39
:4047000084F8700094F87030DBB2032B04D994F87030DBB2032B05D8074B93F87000FFF79BFF10BD044A92F8713003F0FE0382F8713010BD79640040249AFF1F10B51D4CDF
:40474000237803F0FB0323701B4B93F87000FFF7B7FE237813F0080F2BD1174B93F8713013F0800F07D0144A92F8713003F0FE0382F8713010BD104C94F8700001F0FCFCC0
:4047800084F8700094F87030DBB2032B04D994F87030DBB2032B05D8074B93F87000FFF75BFF10BD044A92F8713003F0FE0382F8713010BD79640040249AFF1F10B50024E4
:4047C00004E02046FFF7CEFB0134E4B2072CF8D910BD00BF024B93F8710000F001007047249AFF1F10B5044601F060FCFFF7F2FF0028FBD1032C02D82046FFF79BFA032C28
:4048000003D8201DC0B2FFF795FA10BD10B5002404E02046FFF7E6FF0134E4B2032CF8D910BD00BF10B5114C002384F87130FF2384F8703094F8700001F09EFC84F8700024
:4048400094F87030DBB2032B04D994F87030DBB2032B0AD8054B93F8712042F0010283F8712093F87000FFF7F7FE10BD249AFF1F044B1B7813F0800F01D0024B5B780020EA
:40488000704700BF00600040014B1B7801487047989AFF1FB0C20000054B1B7828B9C3001033044A1344586870470020704700BF989AFF1FB0C2000010B50E4B1C79E4B2BA
:4048C0000D4B58780138C0B2FFF7E6FF43681B799C4201D9022C0AD8074B1C442379DBB22372044B9B78DBB22371012010BD002010BD00BF00600040989AFF1F08B5084B76
:4049000058780138C0B2FFF7C7FF30B142681279023200EBC203586808BD002008BD00BF989AFF1FF8B5474B5B7813F0FF0F00F08780444D68780138C0B2FFF7ADFF047A77
:40494000C268A87AC0B2002378E01178884272D13C4901440979C9B25578A9426BD1957805F07F05D67806F00306DFF8DCE0690029448F000EEB07014FF0000C81F803C05A
:4049800092F802C081F804C092F803C00EF807C097880F8192F9021000290DDA012E01D1072700E00D276E002E44B100264E31444F7101264E700CE0012E01D1052700E09D
:4049C00009276E002E44B1001F4E31444F7100264E7029011D4E012777541D4F7E5C06F0FE067E54691E4900C9B21A4E3170317841F0010131701749097811F0100FFAD03A
:404A000092F90210002908DA134F3E78013D0121A94026EA0101397008E00F4F3978013D012606FA05F52943C9B23970094D297801F0FE01297008320133DBB2A34284D315
:404A4000F8BD00BF989AFF1F0CA4FF1FFE5F004070600040146000408F60004070B4002401232EE026491A018D180C268E541D226A7003EB43018A0022490A44527912F0FC
:404A8000FF0F17D003EB43018A001E490A44127912F0800F03D018011B4A16540FE01801194A082111545A1E0121914041EA0402D4B204E01901154A0A448021917001331D
:404AC000DBB2082BCED95522114B1A70202230331A70002201331A7003222F3B1A7001331C700D331A7842F080021A701A7802F07F021A70FF22923B1A7070BC704700BF51
:404B0000706000400CA4FF1FFE5F0040FC5F00408C6000402DE9F041002310E0664D5900CA189600AC190022AA55A270E2702281A272627034462C4462710133DBB2082BD1
:404B4000ECD940B90AE05D4A1A440021117111720133DBB200E00023012BF4D9574B5B7813F0FF0F00F0A580544B58780138C0B2FFF792FE4368DB7913F0400F05D04F4AAB
:404B8000D37A43F00103D37204E04C4AD37A03F0FE03D372057A012471E0C16800236AE08A7802F07F02944262D1264604EB4407BA00414F3A44128992B28F88BA4207D2EA
:404BC00004EB440E4FEA8E02DFF8ECE0724417810A783A4F3A441279D2B24F78BA4247D191F802E0344F730033449A00BB1883F804E0CB78BB54CB7803F0030391F9022069
:404C0000002A1ADA012B02D14FF0070801E04FF00D08DFF8A4E0720002EB060C4FEA8C07774487F8058001267E708A79B24224D1022B22D1214B1C731FE0012B02D14FF024
:404C4000050801E04FF00908DFF86CE0720002EB060C4FEA8C07774487F8058000267E708A79012A09D1022B07D1144B5C7304E008310133DBB2AB4292D30134E4B2082C59
:404C80008BD9C06800220CE0837803F07F0310F8084B03EB43039900074B19448C720132D2B2AA42F0D3FFF729FE054B1860FFF7D5FEBDE8F08100BF0CA4FF1F989AFF1F0E
:404CC00078A4FF1F704700BF054B0022DA819B692BB1034A916900230B70926953807047989AFF1F054B9B693BB1044B9A6910709A69D989518000229A617047989AFF1F31
:404D000010B50B4B1B7F13F0FF0F07D0084A137F43F0800307490B7000231377044C002363770120FFF7DEFF0323A37710BD00BF989AFF1F08600040054B06225A779A7765
:404D40008022DA77002283F820200120704700BF989AFF1F274B1B7903F07F035A1ED2B2072A44D810B5590019448A0022490A44917801F0FE0191700021D1701F4C18011A
:404D8000215C01F07F012154517801F0FD015170127912F0800F13D003EB43018A0016490A445278D2B2012A04D1224602440C23937019E01B01114A1A440D23937013E08D
:404DC00003EB43018A000C490A445278D2B2012A05D11B01094A1A440823937004E01B01064A1A4409239370FFF7A6FF10BD0020704700BF006000400CA4FF1FFC5F004026
:404E000008B5154B1B7903F07F035A1ED2B2072A20D8590019448A0010490A44917841F0010191700021D170517841F002015170127912F0800F05D01B01094A1A448D2375
:404E4000937004E01B01064A1A4489239370FFF773FF08BD002008BD006000400CA4FF1FFC5F004010B5044C002363770120FFF739FF0323A37710BD989AFF1F10B4184BD2
:404E8000197801F00F010239C9B2164AD3899BB20B449BB2D381002011E0124A5469124B1B5CDBB223705369013353610130C0B20139C9B2138A9BB2013B9BB21382094B3B
:404EC0001B8A9BB20BB10029E7D1064B83F82010DA7F82F08002DA770B229A7710BC704729600040989AFF1F0060004010B5084C94F82120E3899BB213449BB2E381002345
:404F000063770120FFF7EEFE0323A37710BD00BF989AFF1F064B02225A778022DA770F229A77002283F8212083F8202001207047989AFF1F1D4A92F82110D3899BB20B4422
:404F40009BB2D38100220FE018494B691B78DBB2174883544B6901334B610132D2B20B8A9BB2013B9BB20B82104B1B8A9BB20BB1072AE9D90D4B93F82130DBB2082B00D011
:404F80004AB10A4BD97F81F08001D9770F2199770221597703E0054B022199775977034B83F8202083F82120704700BF989AFF1F0060004008B5FFF7BDFF08BD10B50E4B21
:404FC0001B8A9BB213B9FFF7A5FF12E00A4C022363770023E377FFF777FE084AD179937943EA0123228A92B2934200D22382FFF7A1FF012010BD00BF989AFF1F00600040C2
:4050000008B50B4B5B7FDBB2042B06D0062B07D0022B0BD1FFF76AFF08BDFFF72FFF08BD0320FFF75FFE0322014B9A7708BD00BF989AFF1F08B5094B5B7FDBB2042B06D08A
:40504000062B07D0022B07D1FFF7B4FF08BDFFF709FF08BDFFF754FE08BD00BF989AFF1F08B5094B1B7813F0FF0F0CD0074B187BFEF79CF9012806D1044B187B024B1A7815
:405080000021FEF7B9F808BD9EA4FF1F989AFF1F70B588B0054603AC174E0FCE0FC43368237035B322232B7003236B7001A8FCF7D1FE002402231AE008AA224412F81C2C39
:4050C00008A901EB121111F8141CE954581C00212954981C02F00F0208AE324412F8142C2A54DA1CA9540134E4B20433DBB2212BE2D908B070BD00BF44C4000010B59B4BDD
:405100001B78DBB200219A4A118213F0800F00F0B080964A5278D2B20A2A00F26081DFE812F067005E015E015E015E015E010B005E0195005E019D008C4BDB78DBB2012BE7
:4051400009D1FFF7A1FB4268894B5A6112221A82FFF734FF10BD854BDB78DBB2022B13D1824B9878FFF798FB002800F03A8142687F4B5A615A69D1785A69927842EA012273
:405180001A82FFF71BFF10BD784BDB78DBB2032B05D02AE00A7811440133DBB201E000237449724A9278D2B2934203D20A7812F0FF0FEFD16D4B9B7813F0FF0F09D06B4BBC
:4051C0009B78DBB2802B04D16B4C2046FFF760FF21460B7813F0FF0F00F005810B78644A13825161FFF7EAFE10BD02F011FB10BD13F003031AD0022B40F0F7805C4A1382BC
:405200005A4B1B7903F07F0303EB430399005B4B19448B78DBB282F84830002382F8493002F148035361FFF7C9FE10BD504B02221A82DA7AD2B283F84820002283F84920C0
:4052400003F148025A61FFF7B9FE10BD484B01221A829A185A61FFF7B1FE10BD444B01221A82424A1279191D0A445A61FFF7A6FE10BD3E4A5278013A0A2A00F2B880DFE8CD
:4052800002F045B67FB606B6B6B60EB62B00374B9B78DBB2364A1377FFF74EFD10BD334B9B7803F0FF041BB1601EC0B2FFF7F4FA04B110B9002C40F09C802D4B5B78DBB286
:4052C0009C4206D02A4B5C70012083F84A00FFF721FCFFF731FD10BDFFF7EEFA002800F08A80224A13791279D2B221498A720B441A7AD2B21B79DBB29A4204D0012281F88E
:405300004A20FFF70FFBFFF717FD10BD03F00303012B17D04BB1022B6FD1144B9B7813F0FF0F6CD1FFF716FD10BD104B9B78DBB2012B66D10E4AD37A03F0FD03D372FFF7F0
:40534000FBFC10BD094B1B79DBB2012B5BD8074B99781B79064A134493F84C2022EA010283F84C20FFF7E8FC10BD00BF00600040989AFF1FC8C20000BC9AFF1F0CA4FF1FE8
:4053800003F00303012B17D04BB1022B3DD1234B9B7813F0FF0F3AD1FFF732FD10BD1F4B9B78DBB2012B34D11D4AD37A43F00203D372FFF7C1FC10BD184B1B79DBB2012B7F
:4053C00029D8164B99781B79154A134493F84C2022EA010283F84C20FFF7AEFC10BD002010BD002010BD002010BD002010BD002010BD002010BD002010BD002010BD00200E
:4054000010BD002010BD002010BD002010BD002010BD002010BD002010BD00BF00600040989AFF1F08B5134B1A78D2B21A701B78DBB213F0800F02D00F4A937708BD0220D9
:40544000FFF750FC0D4B1B7803F06003202B05D0402B06D043B9FFF751FE06E002F0D8F903E0FFF705FA00E0002010B90322024B9A7708BD28600040989AFF1F00600040BD
:4054800008B5284B1B78DBB213F0100F48D013F0800F0CD003F00F03012B16D1FFF7C2FF214B9B7F13F0800F11D1012312E013F0400F03D0FFF7BEFD01230BE013F0200FFE
:4054C00007D0FFF79DFD012304E0002302E0002300E0002323B3134B1B7813F0800F1FD1114AD37F92F820201343104A13701278D2B2934214D10C4B9B7FDBB2094A12787C
:4055000012F0800F07D1084B9B7FDBB2054A1370137803F00F03044A927FD2B29342EAD108BD00BF28600040989AFF1F2960004008B502F00FFB08BDF8B5274B1F78FFB2E9
:40554000012445E017F0010F3FD026462201234B13449A785D78154015F0010F32D004EB440293001E4A13441B7913F0800F29D01A4922018B5C03F0FE038B54194B03EBDC
:405580004403B3F850309BB2202B04D900212046FDF7ACFD04E0134B2344012283F8642006EB460293000E4A13445A79D2B231010D4B5A540B4B1B7BDBB29C4202D10022BF
:4055C0000A4B1A7036010A4B9D550134E4B27F08002FB7D1F8BD00BF9F600040706000400CA4FF1F989AFF1FFE5F00409EA4FF1F726000402DE9F04102F0C0F900F07F05EF
:4056000002F05EF900F0030601242DE015F0010F20D02201164B9B5C13F0010F1AD1154B234493F8643013F0FF0F13D1DFF8488017464244002353716301023BDBB2137182
:4056400001212046FDF752FD18F8073043F0010308F807300134E4B26D08002DD6D1760802D006F001050824002EF6D1BDE8F08172600040989AFF1F7060004008B5FDF7F0
:4056800013FF08BD2DE9F04104460E461746374B1978C9B2364B1B7B03EB43039A00354B1A4413899BB2043B994201D9FFF7D8FC2E4B1978C9B22E4B1B7B03EB43039A0077
:4056C0002C4B1A4413899BB2043B994248D8231FDBB2EB2B08D93B4622463146204602F0F5FA4FF000083DE000253B4603227119F02002F0EBFA033CE4B20335EDB21B4B93
:405700001978C9B21A4B1B7B03EB43039A00194B1A4413899BB2043B994210D9FFF7A0FC124B1978C9B2124B1B7B03EB43039A00104B1A4413899BB2043B994204D8022C64
:40574000D3D84FF0000801E04FF00108B8F1000F08D13B4622467119F72002F0B7FA01E04FF001084046BDE8F08100BF9EA4FF1F989AFF1F0CA4FF1F08B5FFF771FC08BD69
:40578000024B187800F00100704700BF6A65004028B1064AD37A43F00103D3727047034AD37A03F0FE03D372704700BF989AFF1F431EDBB2072B0BD8420002449300054AE7
:4057C000134400225A705A79D2B20001024B1A54704700BF0CA4FF1FFE5F004038B5124B587BFDF7E3FD01281DD10F4B587BFDF7C9FDC5B2032D0FD811E00B4B234493F8BC
:40580000700060B1631C0949194400F0F000FBF72FF80434E4B200E00024AC42EDD3024B587BFFF7C5FF38BD989AFF1F089BFF1F08B502220D4B1A700F3B93F822300C4B1F
:405840001B7E03F00303012B04D0094AD37E83F08003D3760122064B5A76064B5B7BDBB2022B01D1FFF7BAFF08BD00BF0B6000400CA4FF1F989AFF1F08B501220C4B1A70FF
:405880000F3B9B7C0B4B1B7B03F00303934204D0084AD37B83F08003D3730122054B5A73054B5B7BDBB2934201D1FFF797FF08BD0B6000400CA4FF1F989AFF1FF8B599B370
:4058C000044616460F4688B3082831D81A4B034493F8B030FF2B01D1FDF754FC164D254495F8BC00FCF74CFF95F8B000122302463146FCF78FFE24011049214489B2BAB254
:4059000095F8B000FCF778FE95F8BC00FCF724FF95F8B01095F8BC00FCF7E6FE012195F8BC00FCF73FFF04E0002602E0002600E000263046F8BD00BF989AFF1F78600040EF
:4059400010B50022084B1A70084C207B40220849FDF752FC607B402204F17001FFF7AEFF607BFFF725FF10BD9EA4FF1F989AFF1FA0A4FF1FF0B40022174611E050F8276082
:40598000F3B226F0FF0608E001EB420511F812406D78A5550132013BDBB2002BF4D10137292FEBD9F0BC7047FEE700BF838A63B1838919448388994207DB00238381828B05
:4059C000C189438901FB02334381038CF3B110B4836933B9818BC38903FB01F1013909B200E0002143898CB2C28BC18901FB02F292B2234413449BB2C1888B4205D300239E
:405A00008381091B8A1A013A428110BC704700BF10B502F0B9FA04461C4A137843F020031370FEF735FDFEF7C1FDFEF79BFD02F051F802F02BF8164A137843F01003137071
:405A4000144B197841F010011970117841F0200111701A7842F020021A700F4A137843F0010313700232137843F001031370204602F08EFA094B02221A6004221A60084AC4
:405A8000137843F08003137010BD00BF9E640040BB430040AB4300407058004000E100E07964004008B502F077FA03680C2B00D1FEE7FEE7F8B5254B1B78DBB2244E34784A
:405AC000E4B2244F3D78EDB203F00701224A11701B090132137044F00303337045F003033B7002221D4B1A7010231D4A1370282110321170502110321170C03213700023B9
:405B000002F27362137002321370402397321370023213708022134B1A702023124A1370183213707A214D32117003321370193213702A220D4B1A700A20FCF7E5F93D708C
:405B4000347066220A4B1A70F8BD00BFCF010049F8460040F94600406E5800400D5100401D510040935A0040C35A0040585B00407658004008B503F0C7FB08BD38B500246B
:405B8000344B1C80502202331A7002331C80192502331D70042202331A8018232E490B7002310A8002310B7036200231088002310B702A492A48FFF7DDFF0622294B1A709F
:405BC000294B1B78DBB2294A13705222284B1A7040F62E5222331A8042F25122023B1A800BE0244B1B7803F0010343EA440404F00304782002F0C0F9013D0DB1032CF0D104
:405C000015B90320FFF7D0FE1B4A4FF48073138007231370002319490B704820023108701370053213700222154B1A7004220A331A70144A137843F01F031370013A137802
:405C400043F001031370013A137843F08003137038BD00BF804000408A4000407C0F004800410040004300400F010049A14600400042004025420040044000400640004023
:405C800001400040A243004008B50A46002102F0AFF908BD38B572B66122524B1A70FFF76DFF514A137843F00403137000240BE04E4D63001A19500002462A4491882858CE
:405CC000FFF7E2FF0134E4B2072CF1D900240BE04648A20011194B0003441A8F596B186BFFF748FF0134E4B2012CF1D940494FF09040FFF73FFE4FF440733E4A138002320B
:405D000013800A243C4B1C7003223B3B1A8040F2033206331A8004213848FFF7B5FF042237493848FFF726FF04213748FFF7ACFF04213648FFF7A8FF04213548FFF7A4FFD0
:405D400004213448FFF7A0FF042233493348FFF711FF042232493348FFF70CFF324A334B1A60334A137843F0020313701032137843F0020313702F4D2B7843F040032B70BE
:405D8000A2F58632513A137843F010031370082229492A48FFF7EEFE224629492948FFF7E9FE224628492948FFF7E4FE082228492848FFF7DFFE082227492848FFF7DAFEC5
:405DC000224627492748FFF7D5FE274A137843F008031370FFF76EFE0E2229462348FFF7C9FE38BD00480040E846004058C40000A8000048705800408358004000760040DD
:405E0000800F00480876004010760040187600402076004028760040840F004830760040880F004838760040040404C4580E014003500140A0430040400F0048025100409F
:405E4000480F0048C0510040540F0048F0510040600F004812510040680F004822510040700F00483051004022430040B04300402DE9F04F8DB00390049105921D46BDF871
:405E800058300693BDF85C709DF860A08269002A40F09F80014683880498984280F20381CB88059C9C4280F2FE800AEB4A0253000344012B00F1F78004EBCA03012B00F17F
:405EC000F280CB8A1BB9AF2D01D90135EDB24FF00008DDF81090DDF814B00795069E54E0079B03EB8303434403EB43039A00039B9B699D5C002442E015F0010F1DD0BAF1BA
:405F0000010F0AD104EB0B0208EB0901334612B209B2039800F0D4FE2EE01FFA8AF10FFA8AF304FB01B208FB01910196009312B209B2039800F0AEFE1EE0BE421CD0BAF144
:405F4000010F0AD104EB0B0208EB09013B4612B209B2039800F0B4FE0EE01FFA8AF10FFA8AF304FB01B208FB01910197009312B209B2039800F08EFE013464B26D08072CFD
:405F8000BADD08F101084FFA88F8B8F1040FA7DD069BBB4200F08780BAF1010F09D10499053100970823059A09B2039800F07EFE79E01FFA8AF303EB8301049A1144019733
:405FC000DB0000935346059A09B2039800F062FE69E0137AEB1ADBB2506800EBC301D2F800B030F8337091F80280CB78099391F905300A9391F906200B92BAF1010F04D916
:406000001BB2079313B2089302E000230893079300231C46994643E05E1CF6B213F0070F03D17B1C1BF807409FB214F0800F2AD0BAF1010F0ED10B9B059A9A184A440A9B36
:40604000049959182944069B12B209B2039800F037FE18E0079B59191FFA8AF0089B03EB09020FFA8AFE059B02FB0032049B01FB0031069B01937346CDF800E012B209B24C
:40608000039800F007FE6400E4B20135EDB2334600E000254545BFD309F101095FFA89F9099A9145F5D30DB0BDE8F08F08B50022174B1A70174B1870032805D8164A13783E
:4060C00043F00403137004E0134A137803F0FB031370032805D8104A137843F00803137004E00D4A137803F0F70313700A4B1B7813F0040F04D1084B1B7813F0080F06D016
:40610000034A137843F081031370FEF7A5FA08BD959AFF1F949AFF1F7964004070B5044603280CD8104B1D5C104E331893F84400FEF7C0F9354495F84C200D4B1A70032C43
:406140000DD80434084B1D5D084E344494F8440001F076FC354495F84C20064B1A70FA20FEF772FA70BD00BF0CC2000058C400005A6400405E640040031DDBB20130C0B246
:40618000032807D800F0070101228A4012F0FF0FF4D000E004200133DBB2072B07D803F0070101228A4012F0FF0FF4D000E00823043BDBB2984205D10C4A137843F00C03E0
:4061C00013707047984207D2084A137803F0F70343F004031370704704490A7802F0FB0242F008020A701846704700BF7964004008B5104A104B1A60104A136843F40073A4
:40620000136000230AE0032B03D80D4A52F8231000E00C490C4A42F8231001332F2BF2D90A4B1B78084A0A4B1A60FFF733FDFDF715FF08BD0004FA050CED00E014ED00E0F7
:4062400000000000A55A00000080FF1FBC76004008ED00E008B5094B1A681044084BC31AB3F5006F02DC054B186005E001F094FE0C2303604FF0FF32104608BDF880FF1F4B
:40628000F0A4FF1F06280AD8054B03EB8002526D184490F87010137823EA01031370704758C40000062809D8054B03EB8002526D184490F8701013780B431370704700BF83
:4062C00058C4000006280AD8054B03EB8002926F184490F89410137823EA01031370704758C40000062809D8054B03EB8002926F184490F8941013780B431370704700BF0D
:4063000058C40000F8B5FEF759FA0126424B1E7001F03AFE414A137843F0030313700132137843F00303137001F032FEFF243C4B1C7020331C70403B1C7021331C70303315
:406340001C70103B1C7001F01FFE364A137843F0030313700132137843F00303137001F017FE314B1C7020331C70403B1C7021331C7030331C70103B1C702C4F02253D6092
:406380002B493046FBF7ECFF05213046FBF7D0FF04243C6027492846FBF7E2FF05212846FBF7C6FFFEF782F82046FFF79BFF0520FFF798FF0620FFF795FF01F03DFB2046A3
:4063C000FFF770FF0520FFF76DFF0620FFF76AFF194B1A7822431A701A7842F008021A70FEF7F2F8FEF7CCF80020FEF7ABF82046FEF798F80020FEF75DF801F079FB01F0F4
:4064000053FB002001F032FB204601F01FFB002001F016FBF8BD00BF8E6400409A6400402A6400409E6400402E64004080E100E03D470000B94600007964004008B5054B89
:406440001B7823B9FFF75EFF0122024B1A70FFF7DFFA08BD609BFF1F01281CD810B44000C0B20D4B03EB8002D2F89C101A1892F8AC400A7822EA04020A700130C0B203EB9B
:406480008002D2F89C20184490F8AC10137823EA0103137010BC704758C4000001281AD810B44000C0B20C4B03EB8002D2F89C101A1892F8AC400A7822430A700130C0B2FC
:4064C00003EB8002D2F89C20184490F8AC1013780B43137010BC704758C4000001238340012823D8DBB2124A527813421ED010B40F4922EA03034B700E4B03EB8002D2F88E
:40650000B020184490F8B840137823EA0403137090F8BC30CA181379013BDBB2137123B9054A137823F01003137010BC704700BF609BFF1F58C40000005B00400123834006
:40654000012823D8DBB2124A527813421ED110B40F4913434B700F4B03EB8002D2F8B020184490F8B84013782343137090F8BC3019440A7922B908490A7842F010020A705F
:40658000034A13441A7901321A7110BC704700BF609BFF1F58C40000005B0040F8B507460E461546002411E0681E001B05F09AF90146084803F0A0FF05F0EAFBB6FBF0F356
:4065C00003F130023A5503FB106601342846AC42EADBF8BD00002041F0B50C4629B1836943BB43890633438124E08369D3B10023C3830E7A4F7A33460FE09A1B616801EB82
:40660000C202D17892F9062001EB020EC58BAE4501DDA0F81EE00133DBB2BB42EDD9A37A838307E013B14389063B4381082383830023C3838461F0BD007A70470182428222
:40664000704700BF09B189B200E00121C181704781814281704700BFF0B585B004460D4683693BBB0A2908D1828BC189438901FB023343810023838154E00D2952D0C189FF
:40668000890009B2FFF792F9B4F90A20B4F90C10A37B0293638A0193238A00932B462046FFF7E6FBE38903EB43035A00A3891344A38137E00A2908D1002282814189C28955
:4066C0009B7A03FB021343812CE00D292AD01A7A914227D3597A8D4224D8AA1A5E6806EBC206B378F278BBB1B2B196F90510C2890B4403FB02F109B2FFF758F9B4F90C10D2
:40670000B4F90A20238A608AA77B0297019000932B462046FFF7ACFB3179E289A38901FB0233A38105B0F0BD2DE9F04782B082460D4691461E46BDF92880BDF82C700C46CA
:4067400008E0009743464A462146504600F0AEFA013424B2AB199C42F3DB02B0BDE8F08710B582B0BDF8104001941344013B1BB200930B4600F0A8FA02B010BD08B5104EA2
:40678000104D16E029686B68AC68002204E051F8040B43F8040B0432A242F8D1E868002203E0002143F8041B04328242F9D11035013E002EE6D101F0F5FBFAF7ADF800BF50
:4067C000010000005CEB0000018042808180C28000230381438183810122C2814FF6FF71018241828282C3828361C38308238383704700BF00B583B0002101912023009370
:4068000080230A460248FFF78FFF03B05DF804FB689BFF1FF8B50E1E75DB054614461F4683889E426FDA002A6DDBC3889A426ADAFFF702FF02280AD0032813D0012817D111
:40684000B5F900301C1B631E34461EB210E0B5F900309E1B013E36B2B5F902301C1B013C24B205E0B5F902309E1B731E26461CB2012F03D0CFB1022F2FD0F8BDB5F90020E1
:406880002346002C00DAE31D43F3CF0302FB036604F00704012303FA04F41B4B1E4496F82430234386F82430F8BDB5F900202346002C00DAE31D43F3CF0302FB036604F0AD
:4068C0000704012303FA04F40F4B1E4496F8243023EA040386F82430F8BDB5F900202346002C00DAE31D43F3CF0302FB036604F00704012303FA04F4034B1E4496F82430E6
:406900005C4086F82440F8BD689BFF1F2DE9F04383B006460D461F4603F003031B010FFA82F9DFF8408003F10C0249464046FFF78FFE7A1C05EB45018B0000240194120196
:4069400000921BB23A0149464046FFF7EDFE04E0315D0448FFF780FE0134AC42F8DB03B0BDE8F083689BFF1F70B515461E46064CCAB201462046FFF711FE33462A460146DF
:406980002046FFF7C3FF70BD8C9FFF1F70B582B004460D461646FCF76BFE8DF807009DF8073013F0800F29D13346EAB215492046FCF7ECFE8DF807009DF8073013F0FF0F94
:4069C00019D14CF25034FCF767FE8DF807009DF80730013C02D180238DF807309DF8073013F0820F0AD19DF8073013F0FF0F05D0002CE8D102E080238DF807309DF807001D
:406A000002B070BDAC9FFF1F08B5054B002283F8442483F8450402213C20FFF7B7FF08BD689BFF1F38B504460D4611F0800F00D07F25072C00D907242120FFF7E5FF2846D9
:406A4000FFF7E2FF7F20FFF7DFFF2220FFF7DCFF2046FFF7D9FF0320FFF7D6FF38BD00BF08B500210846FFF7DDFF08BD70B5FFF7F7FF0020FFF7C8FF1020FFF7C5FF4020E8
:406A8000FFF7C2FF002426462CE0A6F15000C0B2FFF7BAFF0220FFF7B7FF1020FFF7B4FF4022124B83F84424002517E0591C03EB04130E4A134493F824300A4482F84434CE
:406AC0000B4600E000230F2BF0DD0134E4B2002211213C20FFF75AFF0135EDB2072DF1D90136F6B2032ED0D970BD00BF689BFF1F08B5FFF7BBFF08BD10B504460A490B48F1
:406B0000FFF76AFDFFF776FE00231A4609210848FFF7FCFE0123002202212046FFF724FFFFF7E6FF10BD00BF18C50000689BFF1FB8E9000038B5FFF75DFE1E4D1E4C05F1AA
:406B40000C012046FFF748FD01212046FFF77AFD0123002219461948FFF7D8FE01231C220221D4F84405FFF7FFFE05F118012046FFF732FD01212046FFF764FDD4F8443555
:406B800004F5A965C3EBC30358000023562203212844FFF7BBFED4F84435C3EBC303580003300123562203212844FFF7AFFEFFF79FFF38BD18C50000689BFF1FC4E90000E1
:406BC00008B5FFF7B7FF2121024B93F8440501F00FF808BD689BFF1F10B50446AE20FFF713FFD520FFF710FF8020FFF70DFFA820FFF70AFF1F20FFF707FFD320FFF704FF7C
:406C00000020FFF701FF4020FFF7FEFE8D20FFF7FBFE012C03D11020FFF7F6FE02E01420FFF7F2FE2020FFF7EFFE0020FFF7ECFEA120FFF7E9FEC820FFF7E6FEDA20FFF7C6
:406C4000E3FE0220FFF7E0FE8120FFF7DDFE8F20FFF7DAFED920FFF7D7FE012C03D12220FFF7D2FE02E0F120FFF7CEFEDB20FFF7CBFE4020FFF7C8FEA420FFF7C5FEA620B3
:406C8000FFF7C2FE2E20FFF7BFFEAF20FFF7BCFE10BD00BF10B582B0BDF814400194BDF910400094FFF740FD02B010BD10B582B0BDF810400094FFF753FD02B010BD00BF1D
:406CC00008B5FFF7A7FD08BD2DE9F04F85B002900D4616461F46BDF938B0BDF83C300393584604F0FFFD0446304604F0FBFD0146204604F041FD20F00048384604F0F2FD21
:406D00000446284604F0EEFD0146204604F034FD20F0004319460193404604F0F3FF28B13B465F469B462B4635461E46BD4205DD33465E469B462B463D461F46C5EB070A0F
:406D40001FFA8AFA0FFA8AF4584604F0CBFD8146304604F0C7FD0146484604F00DFD20F0004004F0EFFF0FFA80F904EBD47464105E4502DA4FF0010B21E04FF0FF3B1EE02C
:406D80000199404604F0BEFF30B1039B2A4631460298FFF795FF05E0039B324629460298FFF78EFFC9EB0404A3B21CB2002C04DA5E4436B20AEB030424B201352DB2BD4298
:406DC000DEDD05B0BDE8F08F38B5FFF713FD1B4D1B4C05F10C012046FFF7FEFB01212046FFF730FC012300220221D4F86006FFF7BBFD05F118012046FFF7EEFB0121204616
:406E0000FFF720FCD4F8603604F26465C3EBC30358000023302207212844FFF777FDD4F86036C3EBC303580007300123302207212844FFF76BFDFFF75BFE38BD18C50000F2
:406E4000689BFF1F38B50220FFF7C6FE002305E0134A1A44002182F824100133B3F5806FF6DB0F4C202280212046FFF7ADFC0D4D05F124012046FFF7AFFB29462046FFF771
:406E8000ABFB002201212046FFF7D8FB01212046FFF7D8FBFFF798FFFFF72AFE38BD00BF689BFF1F18C5000008B5FFF78DFF2021024B93F8600600F09BFE08BD689BFF1FDE
:406EC0002DE9F04186B000F0A3FDB0FA80F040090190FCF7C5FBB0FA80F040090290FCF7B7FBB0FA80F040090390FCF7A9FBB0FA80F04009049000F0C5FCB0FA80F04009AC
:406F0000059000232BE006AA02EB830252F8141C99B19A4A02EB8302D2F87C27012A0CD1964A02EB8302D2F89427632A05DC934800EB83000132C0F89427904A02EB83025D
:406F4000D2F87C272AB98D4A02EB83020020C2F894078A4A02EB8302C2F87C170133042BD1DD864BD3F894375F2B0DD1834CD4F8AC07B0FA80F04009C4F8AC07222100F03D
:406F800037FE6123C4F894377C4B93F8B23743B17A4BD3F8AC37B3FA83F35B09784A136004E0764BD3F8AC27754B1A60744B1B681BB1012000F05AFC02E0002000F056FCFD
:406FC0006E4BD3F898375F2B38D16C4B93F8B437C3B96A4BD3F86036122B04DC0133674AC2F8603603E00022644BC3F86026FFF75BFF624BD3F8602683F8B527032283F860
:40700000B62717E05D4BD3F84435122B04DC01335A4AC2F8443503E00022584BC3F84425FFF7CEFD554BD3F8442583F8B727042283F8B6276122514BC3F898274F4BD3F832
:407040009C375F2B38D14D4B93F8B437C3B94B4BD3F86036002B04DD013B484AC2F8603603E01322454BC3F86026FFF71DFF434BD3F8602683F8B527032283F8B62717E05A
:407080003E4BD3F84435002B04DD013B3B4AC2F8443503E01322394BC3F84425FFF790FD364BD3F8442583F8B727042283F8B6276122324BC3F89C27304BD3F8A0375F2B0F
:4070C00050D12E4BD3F8B807002828DD0130C3F8B807102820DD0026C3F8B867B04615E005EB8804264B03EB8404771CB1B2607900F07EFDB9B20236207900F079FD0135FF
:4071000000E00025032DEBDD08F10108B8F1030FF7DDFFF7C9FE21E0FFF7EEFC1EE0174BD3F88437012B0BD1144BD3F87C37012B06D10120114BC3F8B807FFF7DDFC0DE0A2
:407140000E4A92F8B437B3FA83F35B0982F8B43713B1FFF735FD01E0FFF7A6FE6122074BC3F8A027054BD3F8A4375F2B03D16122024BC3F8A42706B0BDE8F081689BFF1F01
:40718000FC80FF1FF8B5074616460D1E14DD284604F0A8FB4FF05E5104F0F8FB03F02AFB424904F0E9FA424904F0F0FB04F0CAFD05467F2800DD7F25002D0DDC5DE03D4AFD
:4071C00002EBC302D2F8C027914203DA3949C1F8DC371146013301E000231946032BEEDD092D05DD1D2905DD1E2D05DD002304E0012302E0002300E00123BBB134E02D4BAE
:4072000003EBC403D3F8BC0700280DDB00221146F9F7ECFA274B03EBC4034FF0FF32C3F8BC270022C3F8C027013400E00024032CE5DD204C04F5FC6300200021C3E90001D7
