:400000000080002011000000512000005120000080B500AF024A034B1B68136002F04AF8BC760040FA46004001000000002000400100000000200140010000000048004047
:400040000100000000480140010000000100000008000223000008760800032300001076080004230000287608000523000030760500062300002070050007230000307065
:4000800005000823000060700500FE230000707019000A220000C8493000FE22000040518000FE220000801407000D230000005207000E230000085207000F230000105219
:4000C00007001023000018520600112300006052080012230000604507001323000078520800142300007845080015230000285B40001623000000642000172300007064BD
:4001000040001823000000652000FE230000706508001A230000005180001B230000000080001C230000800080001D230000000280001E230000800280001F23000000046B
:4001400080002023000080048000212300000006800022230000800680002323000000088000242300008008800025230000000A800026230000800A800027230000000C0B
:40018000800028230000800C800029230000000E80002A230000800E80002B230000001480002C230000001680002D230000801680002E230000001880002F230000801833
:4001C000800030230000001A800031230000801A10003223000010501000332300000050800034230000004D800035230000804D800036230000004C800037230000804C95
:400200008000382300000047800039230000804780003A230000004680003B230000804680003C230000004580003D230000804580003E230000004480003F23000080449E
:40024000800040230000001B800041230000801B8000422300000015800043230000801580004423000000198000452300008019800046230000001780004723000080178A
:400280008000482300000009800049230000800980004A230000000780004B230000800780004C230000000B80004D230000800B80004E230000000580004F23000080058A
:4002C000800050230000000D800051230000800D80005223000000038000532300008003800054230000000F800055230000800F800056230000000180005723000080010A
:400300008000582300000049800059230000804980005A230000004880005B230000804880005C230000004380005D230000804380005E230000004280005F23000080429D
:400340008000602300000041800061230000804180006223000000408000FE230000804010B5054C237833B9044B13B10448AFF300800123237010BD4882FF1F0000000044
:40038000FCC40000084B10B51BB108490848AFF300800848036803B910BD074B002BFBD0BDE81040184700BF000000004C82FF1FFCC40000C880FF1F0000000080B582B0BE
:4003C00000AF78604FF0000178680AF0DBFA0346002B0ED0094978680AF018F90346184609F004F90346064918460AF00FF9034600E0044B18460837BD4680BDD27EFA3D87
:40040000AC7F8A410080BBC4B0B584B000AFF860B9607A603B603968386A09F0EDFF03461C46B968F86809F0E7FF03461D46B968786809F0E1FF0346194628460AF09AF93D
:400440000346194620460AF0E1F803463968184609F0D4FF034618461037BD46B0BD00BF80B500AF08F044FC08F0E4FB00F002F800BF80BD80B500AF184B022218490020A5
:4004800003F044F803461A46164B1A7006F0D6FC0346012B20D1124B1B78DBB2012B0CD1114B00221A700D4B02220F49002003F0B3F90E4B01221A700EE00B4B01221A7033
:4004C000064B02220849002003F0A6F906F0E4F805F02EFB04F0D0F900BF80BD748DFF1F8482FF1F5089FF1F8882FF1F6C82FF1FF0B589B002AF62B6002008F09FFFA24B23
:40050000184608F001FC03461A46A04B1A70012006F074FC9E4808F09DFB06F08FFC0346002B01D1FFF7A6FF08F04EFC04F000FE04F074FC00F02CFF00F062FF05F040FCB6
:4005400005F056FC05F05CFA01F0C4FF914B924A1A600A2004F0A0F902F054FB012008F06DFF0A2004F098F9002005F029FE00F07DFE012005F024FE052004F0AFF902F045
:4005800013F902F005FC02F0D1F8844B1B68002B40F08E824FF08C437B60814B1B68814A52F823304FF6FF72934240F013817C4B1B687B4A12687C4951F822207B4941F8FF
:4005C0002320774B1B687A4AD35C002B00F0B380734B1B68724A1168714A1268754830F81220013202F01F02734849010A4450F822206E4941F82320694B1B68684A1268B7
:400600006C4931F812201046654A1268674951F8222069495B01034441F82320604B1B685F4A1268634931F81220013292B202F01F0291B25F4A22F81310604B1B68002BBB
:4006400052D0574B1B68594A52F82340544B1B685B4A52F823205B4B1B681946104609F0CDFE0346194620460AF08CF90346002B17D14B4B1B684D4A52F82340484B1B6891
:400680004F4A52F823204F4B1B681946104609F0B3FE0346194620460AF056F90346002B18D03F4B1C683E4B1B68404A52F82330184608F077FF02463C4B43F82420384B07
:4006C0001B68374A1268394951F822203C4941F8232009E0324B1B68314A1268384951F82220324941F823202D4B1B682F4A52F823002B4B1B682C4A52F82330194609F048
:400700007BFE03463049184609F080FF03464FF08C41184609F072FE03467B60204B1B682A4A002142F823101D4B1B6828497A6841F82320BCE11A4B1B68194A12681D49F6
:4007400031F812201046164A1268174951F8222019495B01034441F82320114B1B68104A1268144931F81220013292B202F01F0291B2104A22F81310094B1B6814497A689D
:4007800041F8232094E100BF00C500005089FF1F610400006C8BFF1F40EA6F3F7482FF1FB082FF1F9C86FF1F1881FF1F0883FF1F8883FF1F8C83FF1FD086FF1F0481FF1F0A
:4007C0001883FF1F2881FF1F0080AA43CC82FF1F588BFF1F8E4B1B688E4AD35C002B14D08B4B1B688A4A1168894A12688A4830F81220013202F01F02884849010A4450F818
:400800002220874941F82320B5E0814B1B68804A126884498A5C10467D4A1268824951F822201146814A5B00034442F82310784B1B687F4A002142F8231000237B6113E0A2
:40084000734B1B6879495A007B69134451F823206F4B1B68764951F823100A44744941F823207B6901337B617B69012BE8DD684B1B68674A12686B498A5C0132D2B202F0E8
:400880000102D1B2674AD154614B1B68604A1268674951F822205208654941F823205C4B1C685B4B1B68624A52F82330184609F055FE0546564B1B685E4A52F83330184661
:4008C00009F04CFE0646524B1B685A4ADB0013445B68184609F042FE0146574B1A68564B5B68009313460A4631462846FFF78CFD034619464FF07E5009F03CFF03461A4618
:400900004E4B43F82420424B1C68414B1B684B4A52F823003E4B1B68494A52F82330194609F074FE03461846FFF748FD02463C4B43F82420364B1B68354A1268364931F8A2
:4009400012201046324A1268354951F8222033495B01034441F823202D4B1B682C4A12682D4931F81220013292B202F01F0291B2294A22F81310334B1B68002B72D0244B3F
:400980001B68274A52F82340214B1B682E4A52F823202E4B1B681946104609F02FFD03461946204609F0EEFF0346002B17D1184B1B681B4A52F82340154B1B68224A52F8EB
:4009C0002320224B1B681946104609F015FD03461946204609F0B8FF0346002B38D00C4B1C680B4B1B680E4A52F82330184608F0D9FD02460A4B43F82420054B1B68044AB8
:400A00001268074951F822200F4941F8232029E0B082FF1F8883FF1F8C83FF1FD086FF1F0883FF1F5083FF1F9C86FF1F7C86FF1F5483FF1FD480FF1FF480FF1FF882FF1FDF
:400A40000881FF1F0481FF1F1883FF1F2881FF1FA74B1B68A64A1268A64951F82220A64941F82320A24B1B68A34A52F82300A04B1B68A24A52F82330194609F0BDFC0346CD
:400A80009F49184609F0C2FD03464FF08C41184609F0B4FC03467B60954B1B68994A002142F82310924B1B6897497A6841F82320964B1B68002B2BD18D4B1B68944A52F838
:400AC0003330002B24DB8A4B1B688F4A52F82330184609F077FF02468E4B1B689A4217D0834B1B68884A52F82330184609F090FF03460021184600F04FFB7D4B1B68824AA8
:400B000052F82330184609F05DFF0246814B1A60012005F073F90346002B00F0B08000233B61A1E07C4B1C683B699BB2184605F07BF903461946794A3B69DB00234442F8F3
:400B40002310774A3B69002142F823100023FB6012E0734A3B6952F8232070483B69D900FB680B4450F823301A446D493B6941F82320FB680133FB60FB68072BE9DD684A3C
:400B80003B6952F82330DA0865493B6941F82320634A3B6952F8233062493A6931F812201146614A12880A4493420DD85C4A3B6952F823305B493A6931F8122011465A4A85
:400BC00012888A1A93420AD2554A3B6952F823305B09D9B2554A3B6913440A461A70534A3B6913441B789AB251493B6931F813309A4222D03B69032B0CDC3B6903F1110071
:400C00004A4A3B6913441B78C3F17F030022194600F0F8FA3B69042B0FD108F001FB0346002B0AD03B6903F11100404A3B6913441B780022194600F0E5FA3C4A3B69134472
:400C40001B7899B23A4A3B6922F81310374A3B6913441B789BB25B0199B2324A3B6922F813103B6901333B613B69042B7FF75AAF294B1B68013303F00703274A136000BF40
:400C800004F0DCFE034603F00103002B06D104F0D5FE034603F01003002B01D0012300E00023002BECD00023BB60DEE0214B1B781A46BB68043342FA03F303F00103002BFB
:400CC00040D01D4ABB6852F823304FF6FF72934238D11A4ABB68134401221A70184ABB6852F823305A1C1649BB6841F8232033E0B082FF1F1883FF1F0883FF1F1881FF1F8C
:400D00000080AA43CC82FF1F588BFF1FC882FF1F9082FF1F2883FF1F2C83FF1F888AFF1FD488FF1F4483FF1F2C81FF1F3083FF1F3883FF1FC88BFF1F9C86FF1F8483FF1FD1
:400D40007483FF1F8B4ABB68134400221A708A4ABB68002142F82310864ABB6813441B78002B0BD0854ABB6852F83330002B05DB834ABB68134401221A7004E0804ABB688C
:400D8000134400221A707C4ABB6852F82330802B0ED97A4ABB6852F83330002B08DB794ABB6852F82330BA680021184600F060FBBB685B00744AD35CDBB21B02BA6852007E
:400DC000013271498A5CD2B21A447049BB6841F823206E4ABB6852F82330002B25DD6C4ABB6852F82330002B1FD16A4ABB6852F82330184609F0E6FD0146674B1A6813462E
:400E00005B0013449B00CA185E49BB6841F823205C4ABB6852F823005C4ABB6852F82330BA68194600F024FB14E0584ABB6852F82330002B0ED1564ABB6852F82330002B26
:400E400008DD504ABB6852F82330BA680021184600F00EFB4D4ABB6852F823204C49BB6841F82320BB680133BB60BB68032B7FF71DAF4A4B1B78DBB2002B01D000F0A6F8DA
:400E8000474B1B78DBB2002B13D005F0D7FF0346002B0ED0434B1B88402B05D9424B1B8801339AB2404B1A803E4B00221A8000F0B7F800BF01F06AFC0346002BFAD102F0DB
:400EC00041F83A4B1A783A4B1A723A4B1B685B00384A1268384951F8222092B21212D1B2334AD154334B1B685B000133314A1268314951F82220D1B22D4AD1542F4B1B78E3
:400F000003F00F03DAB22A4BDA732C4B1B780133DAB22A4B1A70264B1B7ADBB203F00103002B06D0012008F03FF9012008F05AF905E0002008F038F9002008F053F904F0C7
:400F400099FD1F4B1B78DBB20121184603F0F0F81C4B1B78DBB20121184603F0E9F81A4B18CB013344F10004174AC2E90034FFF7FBBA00BF8483FF1F7483FF1F9082FF1F52
:400F80008883FF1FB882FF1F4089FF1F488BFF1F748AFF1F1881FF1F8082FF1F6C82FF1F6B82FF1F6E82FF1F7082FF1FC88BFF1F5489FF1FB082FF1F9C86FF1F9883FF1F7B
:400FC000708BFF1FCC86FF1FE082FF1F80B500AF05F034FF0346002B05D105F05DFB0E4B00221A7013E00C4B1B78DBB2002B0ED10121002005F084F900BF05F0D3FB03464D
:40100000002BFAD007F028FB034B01221A70034B00221A7000BF80BD6B82FF1F6C82FF1F80B500AF05F0CAFB0346002B10D005F0B9FB0346002B0BD0244B1B78DBB2002BF5
:4010400006D005F0FBFE0346002B01D007F004FB05F0A8FB0346002B35D005F0AFFB0346002B18D01A4B1B78D8B21A4B1B78DBB29BB21A46184905F011FD184B1B78DBB2CA
:4010800040221749184605F02DFE144B1B78DBB2184605F085FE0D4B1B78DBB2002B06D005F0CCFE0346002B01D007F063FB074B1B78DBB2002B06D005F0C0FE0346002B2F
:4010C00001D007F0F1FA00BF80BD00BF6B82FF1F308DFF1F318DFF1F348DFF1F328DFF1FF08CFF1F80B582B000AF03463960FB713B681A780C4B1A703B685A780A4B5A705C
:401100003B689A78084B9A703B68DA78064BDA70064B1B78DBB2002B01D005F08FFE00BF0837BD4680BD00BFE888FF1F6B82FF1F80B584B000AFF860B9607A607B68DBB2B5
:40114000703BDAB2114B1A70FB68DAB20F4B5A70BB68DAB20D4B9A700D4B1B78DBB2002B09D005F06BFE0346002B04D000220749032007F005FB074B1B8804339AB2054BB8
:401180001A8000BF1037BD4680BD00BFB086FF1F6B82FF1F6E82FF1F80B582B000AF786039603B68DBB2203BDAB2134B1A707B68DBB203F07F03DAB20F4B5A707B68DB1139
:4011C000DAB20D4B9A700D4B1B78DBB2002B09D005F034FE0346002B04D000220649032007F0CEFA064B1B8804339AB2044B1A8000BF0837BD4680BDB086FF1F6B82FF1FC6
:401200006E82FF1F80B584B000AFF860B9607A607B68DBB2503BDAB2114B1A70FB68DAB20F4B5A70BB68DAB20D4B9A700D4B1B78DBB2002B09D005F001FE0346002B04D0F4
:4012400000220749032007F09BFA074B1B8804339AB2054B1A8000BF1037BD4680BD00BFB086FF1F6B82FF1F6E82FF1F90B585B000AF0023BB600023FB6000237B603F4B0C
:401280001B68DBB203F00103DBB2184604F07CFF3A4B1B6803F002035B10DBB2184604F0ADFF374B00221A60354B1B68DBB2184603F0D2FD042003F011FB03F051FF002083
:4012C00003F05EFF03F082FF02462E4B1A602C4B01221A602A4B1B68DBB2184603F0BCFD042003F0FBFA03F03BFF002003F048FF03F06CFFB860BA687B68D31ABB60BB6813
:40130000B3F57A7F08DD1F4B1B68B3F57A7F03DA4FF6FF73FB6018E0B86809F023F90446184B1B68184609F01DF903461946204609F020FA03461449184609F067F9034619
:40134000184609F03FFB0346FB600C4B1B680F49FA6841F82320094B1B68013303F00303064A1360064B1B68013303F00103044A136000BF1437BD4690BD00BFB082FF1F38
:401380007482FF1F9C83FF1F0060EA469C86FF1F80B500AF4FF4804341F6FF720121012004F07CFF03461A46124B1A7003F042F803461A46104B1A700F4B1B78D8B20123E2
:4013C000FE22102103F090F80B4B1B78DBB20B4A91B246F24742184603F0C6F8054B1B78DAB2054B1B78DBB21946104602F0B4FF00BF80BDCC86FF1F848AFF1F5489FF1F77
:4014000080B500AF41F6FF734FF480420121012004F012FF03461A46124B1A7003F00AF803461A46104B1A700F4B1B78D8B20223FE22102103F058F80B4B1B78DBB20B4AC4
:4014400092B246F25741184603F08EF8054B1B78DAB2054B1B78DBB21946104602F07CFF00BF80BD708BFF1FEC88FF1F4089FF1F90B589B000AFF860B9607A60BB68002B2C
:4014800025DDB86809F06EF803463B614FF05E51386909F0BBF803463B61386908F01AF938618049386908F0A7FF03463B617E49386909F0ABF803463B61386909F082FA75
:4014C0000346BB60BB687F2B01DD7F23BB60774B1B68002B07D07B6801331A46B968F868FFF726FEDAE00023FB61BB68002B40F3B5800023BB6113E06D4ABB69DB00134499
:401500005A68FB699A4208DD694ABB69DB0013445B68FB61674ABB691360BB690133BB61BB69032BE8DDFB69A3F11902BB689A4202DDBB68232B52DD00237B6122E05C4A91
:401540007B6952F83330002B14DB594A7B6952F83330002200211846FFF7EAFD544A7B694FF0FF3142F83310514A7B69DB00134400225A60504A7B690A2142F823107B6919
:4015800001337B617B69032BD9DD4C4A4FF000034FF00004C2E9003445497B68FA6841F83320434A7B68DB001344BA685A60444A7B68134400221A700022B968F868FFF76F
:4015C000B7FD404B1B7819463F4B002243F821203C4B1B781A463D4B002199545EE03C4B1A683C4913469B0013449B000B44FA681A60374B1A68374913469B0013449B003B
:401600000B440433BA681A60314B1A68314913469B0013449B000B440833FA691A602C4B1A68244B19682B4813469B0013449B0003440C331960264B1A68264913469B002C
:4016400013449B000B4410337A681A60204B1B68013303F01F031E4A13601FE0144A7B6852F83330002B08DD114A7B6852F83330002200211846FFF75BFD0D4A7B684FF028
:40168000FF3142F833100A4A7B68DB00134400225A600B4A7B68134400221A7000BF2437BD4690BD0918C43C551D0243C882FF1F9082FF1FDC82FF1FCC82FF1FE082FF1FBB
:4016C0008883FF1F7C82FF1F7483FF1F8483FF1F9483FF1FFC83FF1F80B582B000AF786039603A680021786809F0E9F900BF0837BD4680BD80B584B000AFF860B9607A60F3
:401700007A68B968F86809F0CFF900BF1037BD4680BD00BF80B483B000AF0346FB71FEE780B582B000AF454B00221A60444B10221A70444B01221A70434B00221A70434B3F
:401740004FF444721A80424B01221A70414B03221A70414B414A92B21A80414B47F608021A80404B00221A803F4B4FF480421A803E4B09221A703E4B0B221A703D4B0C225B
:401780001A703D4B19221A70BFF35F8F3B4B01221A70BFF35F8F00BF2C4B1B889BB2002BFAD100237B600DE07B68DA00344B13441946344A7B6852F823309BB20B807B682D
:4017C00001337B607B68612BEED9BFF35F8F2B4B01221A70BFF35F8F00BF2B4B1B78DBB203F00103002BF8D100BF284B1B78DBB203F00103002BF8D100BF254B1B78DBB275
:4018000003F00103002BF8D100BF224B1B78DBB203F00103002BF8D100BF1F4B1B78DBB203F00103002BF8D106224FF090411B48FFF760FF00BF0837BD4680BDA883FF1FDB
:4018400000760040107000401970004000780040027800400378004004780040500000000678004004760040067600402970004039700040697000407970004014700040F4
:401880000C78004074C9000018700040287000403870004068700040787000401051014080B582B000AF484B00221A80474B50221A70474B00221A80464B19221A70464B95
:4018C00007221A80454B18221A70454B26221A80444B18221A70444B30221A80434B18221A70042242494348FFF704FF424B06221A70424B424A1278D2B21A70414B52221A
:401900001A70414B40F21A721A80404B42F251221A800023FB7019237B6013E0FB785B00DAB23B4B1B78DBB203F00103DBB21343DBB203F00303FB70782007F09DFD7B68FE
:40194000013B7B607B68002B02D0FB78032BE5D17B68002B02D10320FFF7DCFE2D4B4FF480721A802B4B07221A702B4B00221A702A4B48221A70274B00221A70284B002297
:401980001A70284B02221A70274B04221A70274A264B1B78DBB243F01F03DBB21370244A234B1B78DBB243F00103DBB21370214A204B1B78DBB263F07F03DBB2137000BF16
:4019C0000837BD4680BD00BF80400040824000408440004086400040884000408A4000408C4000408E4000409040004092400040F42400480041004000430040A1460040C4
:401A00000F0100490042004022420040204200402542004004400040064000400840004009400040014000400B400040A2430040A1430040A043004080B582B000AF304BBA
:401A40001B78FB712F4B1B78BB712F4B1B787B712E4AFB7903F00703DBB213702C4AFB791B09DBB21370274ABB7943F00303DBB21370254A7B7943F00303DBB21370254B14
:401A800002221A70244B10221A70244B28221A70234B50221A70234B10221A70224B00221A70224B00221A70214B40221A70214B40221A70204B80221A70204B20221A70C6
:401AC0001F4B20221A701F4B7A221A701E4B20221A701E4B20221A701D4B2A221A700A2002F0FCFE084A7B791370064ABB791370184B66221A7000BF0837BD4680BD00BF20
:401B0000CF010049F8460040F94600406E5800406F5800400D5100401D5100402D5100403D510040FD5100407058004072580040095900400B590040935A0040C35A00403A
:401B4000DB5A0040285B00402B5B0040445B0040585B00407658004080B485B000AF0346FB71FB79012202FA03F3FB73FB79012B33D81C4B1A78FB7B1340DBB2002B2CD1A1
:401B8000184B1A78FB7B1343DAB2164B1A70FB79154A52F82330FA79134951F822201178FA791248825C0A43D2B21A70FB79104AD35CBB73BB7B0F4AD35C002B06D10E4A51
:401BC0000D4B1B7810210B43DBB21370BB7B094AD25C0132D1B2074AD15400BF1437BD4680BC7047A083FF1F00C9000008C9000014C90000A483FF1F005B004080B485B087
:401C000000AF0346FB71FB79012202FA03F3FB73FB79012B39D81F4B1A78FB7B1340DBB2002B32D0FB7BDB43DAB21A4B1B781340DAB2184B1A70FB79174A52F82330FA7950
:401C4000154951F822201178FA791448825CD243D2B20A40D2B21A70FB79114AD35CBB73BB7B104AD25C013AD1B20E4AD154BB7B0C4AD35C002B08D10B490B4B1A78102301
:401C8000DB43DBB21340DBB20B7000BF1437BD4680BC7047A083FF1F00C9000008C9000014C90000A483FF1F005B004080B483B000AF0346FB71FB79012B24D8FA79FB7938
:401CC0001344FB71FB79124A52F82330FA79104951F822201178FA790E48825C0A43D2B21A70FB790133FB71FB79094A52F82330FA79074951F822201178FA790548825CE5
:401D00000A43D2B21A7000BF0C37BD4680BC704718C9000028C9000080B483B000AF0346FB71FB79012B28D8FA79FB791344FB71FB79144A52F82330FA79124951F82220A1
:401D40001178FA791048825CD243D2B20A40D2B21A70FB790133FB71FB790A4A52F82330FA79084951F822201178FA790648825CD243D2B20A40D2B21A7000BF0C37BD465A
:401D800080BC704718C9000028C9000080B483B000AF0346FB71FB79062B0ED8FB79094A52F82330FA79074951F822201178FA790548825C0A43D2B21A7000BF0C37BD46CF
:401DC00080BC70472CC9000048C9000080B483B000AF0346FB71FB79062B10D8FB790A4A52F82330FA79084951F822201178FA790648825CD243D2B20A40D2B21A7000BF06
:401E00000C37BD4680BC70472CC9000048C9000080B483B000AF0346FB71FB79062B0ED8FB79094A52F82330FA79074951F822201178FA790548825C0A43D2B21A7000BF1A
:401E40000C37BD4680BC704750C900006CC9000080B483B000AF0346FB71FB79062B10D8FB790A4A52F82330FA79084951F822201178FA790648825CD243D2B20A40D2B240
:401E80001A7000BF0C37BD4680BC704750C900006CC9000080B500AF72B6494B61221A70FFF7FEFC474A474B1B78DBB243F00403DBB21370FFF734FC434B4FF440721A80E5
:401EC000424B4FF440721A80414B0A221A70414B03221A80404B40F203321A8004213F48FFF7FAFB04223E493E48FFF703FC04213D48FFF7F1FB04213C48FFF7EDFB0421B6
:401F00003B48FFF7E9FB04213A48FFF7E5FB042239493A48FFF7EEFB042239493948FFF7E9FB394A384B1B78DBB243F00203DBB21370364A354B1B78DBB243F00203DBB268
:401F40001370334A324B1B78DBB243F04003DBB21370304A2F4B1B78DBB243F01003DBB2137008222C492D48FFF7C4FB0A222C492C48FFF7BFFB0A222B492C48FFF7BAFB87
:401F800008222B492B48FFF7B5FB08222A492B48FFF7B0FB0A222A492A48FFF7ABFB2A4A294B1B78DBB243F00803DBB21370FFF743FD0E2216492548FFF79CFB00BF80BDFB
:401FC00000480040E8460040705800407258004083580040485800404E58004000760040F82400480876004010760040187600402076004028760040FC240048307600408A
:4020000000250048387600400350014013500140A0430040C2430040B824004802510040C0240048C0510040CC240048F0510040D824004812510040E024004822510040D2
:40204000E82400483051004022430040B043004080B500AF08F0FCFC03461B680C2B00D1FEE7FEE780B584B000AF78600F4B1A687B6813441A460E4BD31A802B09DC0B4B6F
:402080001B68FB60094B1A687B681344074A136007E008F0DDFC02460C2313604FF0FF33FB60FB6818461037BD4680BD3081FF1FB88DFF1F80B586B000AF224B7B61224BB6
:4020C0003B61204B7B6135E03B691B68FB603B695B68BB603B699B683B6000237B600CE0FB681A68BB681A60BB680433BB60FB680433FB607B6804337B607A683B689A4276
:40210000EED13B69DB683B6000237B6008E0BB6800221A60BB680433BB607B6804337B607A683B689A42F2D13B6910333B617B69013B7B617B69002BC6D108F08FFCFEF78E
:40214000D7F9FEE70100000084CE000080B582B000AF194B194A1A60194A194B1B6843F40073136000237B600FE07B68032B04D8144A7B6852F8233000E0134B13497A6865
:4021800041F822307B6801337B607B682F2BECD90F4B1B78DAB20F4B1A700F4B0B4A1A60FFF778FE01F096FF0C4B00221A6000BF0837BD4680BD00BF0CED00E00004FA055C
:4021C00014ED00E000000000512000000080FF1FBC760040C480FF1F08ED00E0C080FF1F80B582B000AF00F0DFFA022000F088FC07F04AF90346FB71664A664B1B78DBB203
:4022000043F00303DBB21370634A634B1B78DBB243F00303DBB21370FB79184607F038F95E4B4FF434421A805D4B4FF6FF721A805C4B01221A7007F027F90346FB715A4ADF
:40224000594B1B78DBB243F00303DBB21370574A564B1B78DBB243F00303DBB21370FB79184607F015F9524BFF221A70514BFF221A70514BFF221A70504BFF221A70504B18
:40228000FF221A704F4BFF221A7007F0FDF80346FB714D4A4C4B1B78DBB243F00303DBB213704A4A494B1B78DBB243F00303DBB21370FB79184607F0EBF8454BFF221A707E
:4022C000444BFF221A70444BFF221A70434BFF221A70434BFF221A70424BFF221A70424B04221A604149022002F03AFB0721022002F05EFB3C4B08221A603D49032002F065
:402300002FFB0721032002F053FB01F05BF80420FFF73CFD0520FFF739FD0620FFF736FD06F028FF0420FFF773FD0520FFF770FD0620FFF76DFD2F4A2E4B1B78DBB243F0B7
:402340000403DBB213702B4A2A4B1B78DBB243F00803DBB2137000F0CDFE00F05BFF002000F0B6FF042000F0D3FF002000F0F0FF06F098FD06F026FE002006F081FE0420E1
:4023800006F09EFE002006F0BBFE00BF0837BD4680BD00BF936400409464004023640040436400408B650040986400409865004028640040486400400864004028650040C8
:4023C00058650040486500409A6500409B6500402A6500404A6500400A6500402B6500405B6500404B65004080E100E0A92F00004D3000007B64004080B582B000AF07F085
:4024000043F80346FB712C4A2B4B1B78DBB243F02003DBB2137000F0EFFF00F09FFE00F01DFF06F073FD06F0F1FD244A234B1B78DBB243F01003DBB21370214A204B1B78BE
:40244000DBB243F01003DBB213701C4A1B4B1B78DBB243F02003DBB21370194A184B1B78DBB243F02003DBB21370164A154B1B78DBB243F00103DBB21370134A124B1B7867
:40248000DBB243F00103DBB21370FB79184606F0FFFF0E4B04221A600C4B08221A600C4A0B4B1B78DBB263F07F03DBB2137000BF0837BD4680BD00BF9B650040BB43004062
:4024C000AB430040705800407258004000E100E07B64004080B500AF064B1B78002B04D1FFF77EFE034B01221A70FFF785FF00BF80BD00BFAC83FF1F80B485B000AF0346A4
:40250000FB71FB79FB73FB790433BB73FB7B0133FB73FB7B032B02D90423FB7311E0FB7BDB087B73FB7B03F00703012202FA03F33B737B7B2F4AD25C3B7B1340DBB2002B7C
:40254000E4D0BB7B0133BB73BB7B072B02D90823BB7311E0BB7BDB087B73BB7B03F00703012202FA03F33B737B7B224AD25C3B7B1340DBB2002BE4D0BB7B043BBB73FA7B68
:40258000BB7B9A420AD1FB7BFB711B4A1A4B1B78DBB243F00C03DBB2137024E0FA7BBB7B9A4210D2FB7BFB71134B1B78FB72FB7A43F00403FB72FB7A23F00803FB720E4AEF
:4025C000FB7A13700FE0BB7BFB710B4B1B78FB72FB7A43F00803FB72FB7A23F00403FB72054AFB7A1370FB7918461437BD4680BC704700BF3481FF1F7B64004080B584B06C
:4026000000AF0346FB71FB79032B0ED8FB79154AD35CFB73FB79144AD35C184600F098FE124AFB7B1249CB5C1370FB79032B10D8FB7904330B4AD35CFB73FB7904330A4A5C
:40264000D35C184606F05CFD0A4AFB7B0849CB5C1370094B1B78184600F03CFA00BF1037BD4680BD4CCB00003881FF1F58640040B083FF1F5A6500404081FF1F80B582B088
:4026800000AF0346FB71264B00221A70254AFB791370FB79032B08D8234A234B1B78DBB243F00403DBB2137007E01F4A1E4B1B78DBB223F00403DBB21370FB79032B08D8E7
:4026C000194A194B1B78DBB243F00803DBB2137007E0154A144B1B78DBB223F00803DBB21370114B1B78DBB203F00403002B06D10D4B1B78DBB203F00803002B0BD0084B6B
:402700001B78DBB263F07E03DAB2054B1A70FB79184600F0DFF800BF0837BD4680BD00BF858BFF1F848BFF1F7B64004080B500AF144B00221A70144BFF221A70124B1B7846
:40274000DBB21846FFF7D8FE03461A460E4B1A700D4B1B78DBB2032B04D90B4B1B78DBB2032B0DD8074B1B78DBB243F00103DAB2044B1A70044B1B78DBB2184600F0AAF89D
:4027800000BF80BD858BFF1F848BFF1F80B400AF044B1B78DBB203F00103DBB21846BD4680BC7047858BFF1F80B582B000AF0023FB7106E0FB79184600F04AF8FB79013333
:4027C000FB71FB79072BF5D900BF0837BD4680BD80B584B000AF0346FB71FB79184AD35CFB73FB79174AD35CBB73FB79164A52F8233009221A70FB7B0F2B01D10723FB7309
:40280000FB7B124A52F82330FA7B104951F822201178BA7B0A43D2B21A70FB79032B04D8FB791846FFF7B2FA05E0FB79043BDBB21846FFF7EDFA00BF1037BD4680BD00BF60
:402840001CCB000024CB0000FCCA00002CCB000080B584B000AF0346FB71FB79194AD35CFB73FB79184AD35CBB73FB79032B04D8FB791846FFF7AAFA05E0FB79043BDBB242
:402880001846FFF7E5FAFB7B0F2B01D10723FB73FB7B0E4A52F82330FA7B0C4951F822201178BA7BD243D2B20A40D2B21A70FB79074A52F8233009221A7000BF1037BD463C
:4028C00080BD00BF1CCB000024CB00002CCB0000FCCA000080B582B000AF0346FB71FB791846FFF78BFE1E4A1D4B1B78DBB243F00103DBB213701A4B1B78DBB203F0040377
:40290000002B0BD0174A174B1B78DBB223F00103DBB21370FB791846FFF75AFF104B1B78DBB203F00803002B0ED0FB790433FB710D4A0D4B1B78DBB223F00103DBB21370D7
:40294000FB791846FFF744FF054A054B1B78DBB243F00203DBB2137000BF0837BD4680BD7B640040705800407258004080B582B000AF0346FB71254B1B78DBB203F0040381
:40298000002B0ED1214B1B78DBB203F00803002B07D11E4A1D4B1B78DBB223F00303DBB21370FB791A4A1278D2B292B2120291B2184A22F81310184B1B78DBB29AB2FB7904
:4029C000F979144830F811100A4391B2114A22F81310FB79FA790F4931F81220D24391B20C4A22F81310FB791846FFF731FF002000F0AEFC094A094B1B78DBB243F0010363
:402A0000DBB2137000BF0837BD4680BD7B64004018650040748BFF1F086500407058004080B582B000AF0346FB71254B1B78DBB203F00403002B0ED1214B1B78DBB203F0BC
:402A40000803002B07D11E4A1D4B1B78DBB223F00303DBB21370FB791A4A1278D2B292B2120291B2184A22F81310184B1B78DBB29AB2FB79F979144830F811100A4391B225
:402A8000114A22F81310FB79FA790F4931F81220D24391B20C4A22F81310FB791846FFF7D7FE002006F02CFB094A094B1B78DBB243F00103DBB2137000BF0837BD4680BDD3
:402AC0007B6400401B650040748BFF1F0B6500407258004080B483B000AF0346FB71064AFB791370054AFB795B08DBB2137000BF0C37BD4680BC70472B6400403B64004032
:402B000080B483B000AF0346FB71FB79012B08D10A4A0A4B1B78DBB223F01003DBB2137007E0064A054B1B78DBB243F01003DBB2137000BF0C37BD4680BC70477B6400403E
:402B400080B485B000AF0346FB71FB79134AD35CFB73FB79FA79124931F81210114A22F81310FB79104A0021D154FB790F4A002122F81310FB7BFA7B0D49895C0D4AD15414
:402B8000FB79FA79064931F812100B4A22F8131000BF1437BD4680BC704700BF4CCB0000748BFF1FA88BFF1F908BFF1F988BFF1F7481FF1FB883FF1FB88BFF1F80B582B010
:402BC00000AF0346FB71FB791846FFF757FD00BFFFF7DCFD0346002BFAD1FB79032B03D8FB791846FFF7ACFFFB79032B05D8FB790433DBB21846FFF7A3FF00BF0837BD46EA
:402C000080BD00BF80B582B000AF0023FB7106E0FB791846FFF7D2FFFB790133FB71FB79032BF5D900BF0837BD4680BD80B586B000AF0346FB71FB794D4AD35C7B757B7DC1
:402C40004C4A32F813307B82FB794B4A32F813303B82FB79494A32F813203B8A1146184600F08CF903463B82FB7944493A8A21F81320FB79424A32F813303A8A9A4209D3CE
:402C8000FB793F4A32F813303A8AD31AFB8201237B7508E0FB793A4A32F813203B8AD31AFB8200237B757B7D002B18D1FB8A142B15D9FB79334AD35C1D2B08D9FB79184610
:402CC000FFF73EFFFB792F4A0021D1543AE0FB792C4AD25C0132D1B22A4AD15432E0FA8A7B8A9A4205D9FB8A132B2BD87B7D002B28D1FB79224A32F813301B02FB60FB797D
:402D0000214AD35C1A46FB681343FB603B8AFA681344FB60FB791A4A32F813301A46FB689B1AFB60FB79FA68120A91B2144A22F81310FB79FA68D1B2134AD154FB79114A1A
:402D40000021D154FA8A7B8A9A4208D97B7D002B05D0FB790D49FA8A21F8132004E0FB790A4A002122F8131000BF1837BD4680BD4CCB00005481FF1F748BFF1FB88BFF1F55
:402D8000A88BFF1F888BFF1F908BFF1F988BFF1F80B582B000AF0023FB7118E0FB79DB08BB71FB7903F00703012202FA03F37B71BB790A4AD25C7B791340DBB2002B03D0FD
:402DC000FB791846FFF732FFFB790133FB71FB79072BE3D900BF0837BD4680BD3481FF1F80B487B000AF0346FB71FB79DB08FB75FB7903F00703012202FA03F3BB75FB7993
:402E0000344AD35C7B757B7D334A32F813307B827B7D324A32F813303B827B7D304AD35CFB737B7DBB73FB7D2E4AD25CBB7D1340DBB2002B19D0FB792B4A32F81330194644
:402E40007A8A3B8AD31A994233DAFB7DFA7D2549895CBA7DD243D2B20A40D1B2214AD154BB7B2249FA7BCA5423E0FB791E4A32F8133019467A8A3B8A1344994215DDBB7B43
:402E80001A4AD35C012B08D8FB7DFA7D1549895CBA7D0A43D1B2134AD154BB7B134AD25C013AD1B2114AD15403E0BB7B0F49FA7BCA54FB7D0B4AD25CBB7D1340DBB2002B77
:402EC00001D0012300E0002318461C37BD4680BC704700BF4CCB00004481FF1F6481FF1F7481FF1FC88BFF1F988BFF1FB883FF1F80B584B000AF0346FB71FB790F4AD35C90
:402F0000FB73FB790E4AD25CFB7B13447B730023BB73FB7B1846FFF763FF0346002B01D00123BB73FB7B0133FB73FA7B7B7B9A42EFD3BB7B18461037BD4680BD54CB0000FF
:402F40005CCB000080B582B000AF0023BB710023FB710BE0FB791846FFF7CAFF0346002B01D00123BB71FB790133FB71FB79072BF0D9BB7918460837BD4680BD80B485B028
:402F800000AF03460A46FB801346BB80FA88BB881344FB60FB685B08FB60FB689BB218461437BD4680BC704780B500AF244A244B1B78DBB223F00403DBB21370214B1B78C9
:402FC000DBB21846FFF7D2FC1D4B1B78DBB203F00803002B31D11C4B1B78DBB25BB2002B08DA194B1B78DBB223F00103DAB2164B1A7022E0134B1B78DBB21846FFF77CFA72
:4030000003461A460F4B1A700E4B1B78DBB2032B04D90C4B1B78DBB2032B06D8094B1B78DBB21846FFF756FC07E0074B1B78DBB223F00103DAB2044B1A7000BF80BD00BF52
:403040007B640040848BFF1F858BFF1F80B500AF254A254B1B78DBB223F00803DBB21370224B1B78DBB20433DBB21846FFF7D8FC1D4B1B78DBB203F00403002B31D11C4B36
:403080001B78DBB25BB2002B08DA194B1B78DBB223F00103DAB2164B1A7022E0134B1B78DBB21846FFF728FA03461A460F4B1A700E4B1B78DBB2032B04D90C4B1B78DBB246
:4030C000032B06D8094B1B78DBB21846FFF702FC07E0074B1B78DBB223F00103DAB2044B1A7000BF80BD00BF7B640040848BFF1F858BFF1F80B500AF002000F049F8154A60
:40310000144B1B78DBB243F02003DBB21370114A104B1B78DBB223F00403DBB213700D4A0C4B1B78DBB243F00803DBB213700A4A094B1B78DBB223F01803DBB21370064A38
:40314000054B1B78DBB243F01003DBB2137000BF80BD00BF40580040C75A004080B400AF094A094B1B78DBB243F00103DBB21370064A064B1B78DBB243F00103DBB213709C
:4031800000BFBD4680BC7047A7430040B743004080B483B000AF0346FB711749164B1B78DBB25BB223F003035AB297F9073003F003035BB213435BB2DBB20B70FB79012B40
:4031C0000AD10E4B0E4A1278D2B21A700D4B0E4A1278D2B21A7009E0084B0C4A1278D2B21A70084B0A4A1278D2B21A7000BF0C37BD4680BC704700BF4058004030460040B5
:40320000100100493146004014010049AD010049B501004980B500AF0E4B14221A700E4B00221A700C4A0C4B1B78DBB243F00403DBB21370084A084B1B78DBB243F0020313
:40324000DBB21370002000F023F800F091F800BF80BD00BF205800402158004080B400AF094A094B1B78DBB243F00103DBB21370064A064B1B78DBB243F00103DBB2137075
:4032800000BFBD4680BC7047A8430040B843004080B483B000AF0346FB710C4A0B4B1B78DBB223F00203DBB213700849074B1B78DAB2FB7903F00203DBB21343DBB20B701B
:4032C00000BF0C37BD4680BC704700BF2058004080B582B000AF0346FB710C4A0B4B1B78DBB223F00403DBB213700849074B1B78DAB2FB7903F00403DBB21343DBB20B7083
:4033000000F036F800BF0837BD4680BD2158004080B582B000AF0346FB710C4A0B4B1B78DBB223F00C03DBB213700849074B1B78DAB2FB7903F00C03DBB21343DBB20B708C
:4033400000F016F800BF0837BD4680BD2058004080B483B000AF0346FB71044AFB79137000BF0C37BD4680BC704700BF805B004080B483B000AF104B1B78DBB203F00C03E4
:403380005B08FB710D4B1B78DBB203F00403DBB2002B02D0FB790133FB71094AFB7903F1924303F590731B78DBB2137000BF0C37BD4680BC704700BF2058004021580040D8
:4033C0000846004080B500AF00F002F800BF80BD80B582B000AF0023FB7106E0FB791846FEF7F4FCFB790133FB71FB79062BF5D900BF0837BD4680BD80B400AF094A094BE4
:403400001B78DBB243F00203DBB21370064A064B1B78DBB243F00203DBB2137000BFBD4680BC7047A2430040B243004080B584B000AF786039600123FB733B68002B5FD0F4
:403440007B68002B5CD07B68DB68002B58D07B685B680A2B54D87B681B68002B50D0786800F066FC0346FB73FB7B002B48D17B681A683B68DA607B685A683B681A617B6856
:403480001A7A3B681A757B685A7A3B685A757B68DA683B689A617B681B68DA097B681B6803F07F03002B01D0012300E000231A443B685A603B685B687A68526802FB03F363
:4034C0001A027B68DB681A443B681A603B6808333968184600F046FB3B689B681B68002B0ED13B681B7D002B0AD0386800F072FD0346FB733B6808333968184600F032FBDE
:40350000FB7B18461037BD4680BD00BF80B59AB002AFF860B9607A603B60012387F85F300023FB640023BB64BB687B647B68002B00F06B81FA687B681A443B68DB689A4214
:4035400000F26381BB68002B00F05F81FB683B647B68FB633B689B681B687B630023BB633A6CFB6B1344013BDA093B6CDB09D31A01333B633B689A683B689B69D21A3B6825
:403580005B681B02B2FBF3F33A68526802FB03F31A023B689B691344FB620023BB6518E0BB6DDA013B6C9A4208D8BB6D0133DB015A1E3B6C9A4201D3012300E00023002BD8
:4035C00004D0BB6DBB64BB6CFB6407E0BB6D0133BB653B685A68BB6D9A42E1D83B689A68FB6AD31A1B0ABB623B681B69012B12D93A6BBB6C1344013B7B62BA6CBB6A9A42CB
:4036000007D87A6ABB6A9A4201D9012302E0002300E00123BB630023BB6563E0FB6C1A02FB6A13443B653B6C03F07F0380333B62BB6D5A1C3B6B9A4206D23B6C03F07F03BC
:40364000C3F180037B6501E0FB6B7B65BB6B002B17D0FA6CBB6A9A4213D93B685B681B023A6DD31A3B653B689A693B6D9A4208D93B681A683B685968FB6CCB1A1B02D31AE0
:403680003B653B681B7D002B0FD03B6800937B6D3A6A796C386D00F0A3FB034687F85F3097F85F30002B0BD020E0786C3A6D3B6A13447A6D194607F0F7F9002387F85F30EB
:4036C0003A6C7B6D13443B64FA6B7B6DD31AFB637A6C7B6D13447B64FB6C0133FB64BB6D0133BB65BA6D3B6B9A4297D397F85F30002B40F08A807B6B002B00F086803B68F4
:403700005A687B6B934228BF13463B633B6B013B3B637A6B3B6BD31ABB6572E03968B86D00F056FA38653B6D002B67D03B6D04331B68FB613B6D08331A68FB691344BB611D
:40374000FA69FB689A4209D9FA687B681A44FB699A428CBF01230023DBB206E0FA68BB699A4234BF01230023DBB2002B46D0FA69FB689A4203D8FA68FB69D31A00E0002340
:403780007B61FA69FB689A4203D9FA69FB68D31A00E000233B61FA68FB69934238BF13463B647B690C337B61FA687B681A44BB699A4228BF1A463B6CD31A7B65BA683B69B0
:4037C00013447B643B681B7D002B0FD03B6800937B6D7A69796C386D00F002FB034687F85F3097F85F30002B08D00EE0786C3A6D7B6913447A6D194607F056F9BB6D0133C2
:40380000BB65BA6D7B6B9A4288D997F85F3018466037BD4680BD00BF90B5D7B002AF07F10C04206007F108000160391D0A603A461360012387F84F3107F1200300221A6019
:4038400007F11C0300221A603B461B689A6807F118031A6007F108031B68C7F83C313B1D1B68002B00F0748107F10C023B1D12681B681A443B461B68DB689A4200F26881AE
:4038800007F108031B68002B00F062813B1D1B68013B1B09B24AA2FB03230133C7F8343107F1100300221A600023C7F8443146E10023C7F8383107F118031B681B68C7F8EA
:4038C00030313B4607F1140207F118011B68D7F8300100F09DF907F124034FF480720021184607F0ECF8D7F830310133C7F8303107F12403D7F830211A6007F1240307F1BC
:403900000C0212685A60D7F83C31C7F82C31D7F834315A1ED7F844319A4205D107F124033A1D12689A6014E007F1240370229A603B1D3A1D1268703A1A6007F10C0307F176
:403940000C02126870321A60D7F83C317033C7F83C3107F124039A6807F124030C33D7F82C11184607F0A0F807F114031B68002B0BD007F114031B688033194607F12403C5
:4039800080338022184607F08FF83B461B685A68D7F830319A4207D23B461B685B68D7F83021D31A013300E00123C7F848317EE0D7F84821D7F830319A4204D107F1240351
:4039C000C7F8403107E03B461968D7F8480100F0FFF8C7F8400107F118031A683B461B689B69D31A1B0A3A4612685268B3FBF2F102FB01F29B1AC7F82831D7F84031002B93
:403A000017D0D7F8403104331B68D7F840210832126807F1100407F11C0107F1200001920093D7F82831224600F056FAC7F8380104E0D7F838310133C7F83831D7F83831EA
:403A4000002B1ED107F1240207F120031B681344C7F8243107F110031A68D7F8403113440C33C7F84031D7F82401D7F8401107F11C031A6807F120031B68D31A1A4607F0E3
:403A800013F83B461B681B7D002B0BD007F1240380338021184600F015F903461A4607F12403DA67D7F848310133C7F84831D7F84821D7F830319A427FF67AAF07F11803D8
:403AC00018683B4607F124011A6800F063F9034687F84F3107F118031B68C7F840313B461B681B7D002B1BD097F84F31002B17D107F118031A683B461B689B69D21A3B46EE
:403B00001B681B681344C7F840313B4607F124011A68D7F8400100F03DF9034687F84F3197F84F31002B12D107F118031A683B461B689A60D7F844310133C7F84431D7F82F
:403B40004421D7F834319A42FFF4B2AE00E000BF97F84F31184607F5AA77BD4690BD00BF2649922480B487B000AF786039600023BB6000237B613B689B69FB607B68FA6811
:403B80001A6000233B6115E0FB681B68BB60BB68002B08D0BA687B699A4204D9BB687B617B68FA681A60FB6803F58073FB603B6901333B613B685B683A68126902FB03F2A1
:403BC0003B699A42E0D800BF1C37BD4680BC704780B485B000AF786039603B689B69FB600BE0FB6803F58073FB603B681A68FB689A4202D80023FB6004E0FB681A687B68FE
:403C00009A42EED1FB6818461437BD4680BC704780B485B000AFF860B9607A603B60FB68002B05D0BB681B6803F58072BB681A60BB681A683B681B689A4203D33B689A6936
:403C4000BB681A607B6800221A603B685A68FB689A4231D83B681B69012B29D9BB681A683B685B681B02D21A3B689B699A4216D23B689A693B6859683B681B6903F1FF1370
:403C800003F57F4303FB01F31B021A44BB6819683B689B69CB1A1A447B681A600CE0BB681A683B685B681B02D21A7B681A6003E0BB681A687B681A6000BF1437BD4680BC67
:403CC000704700BF80B485B000AF78603960FF23FB730023BB8121E0BB897A6813441A78FB7B5340FB730023BB7311E097F90F30002B06DAFB7B5B00DBB283F03103DBB2A1
:403D000002E0FB7B5B00DBB2FB73BB7B0133BB73BB7B072BEAD9BB890133BB81BA893B689A42D9D1FB7B18461437BD4680BC704780B487B000AF78600323FB757B68DB682F
:403D40003B617B681B68DA097B681B6803F07F03002B01D0012300E0002313447A68526802FB03F37A68127A013202FB03F31A023B691344FB603B69002B05D0FB68B3F5C5
:403D8000802F01D80023FB75FB7D18461C37BD4680BC704780B588B000AFF860B9607A600423FB77FB681B0ADBB2BB6100F080FCFB681B0C7B617B69DBB2BA6991B2BA68CD
:403DC000184600F087FC386100F09CFD3B69002B01D10023FB77FB7F18462037BD4680BD90B5C7B000AF07F10C04206007F108000160391D0A603A461360D7F828319B69F8
:403E000007F10C021268D21AD7F828311B681344C7F8103107F10C031B687C331C6807F10C031B68803380211846FFF74BFF03469C4211D107F10803186807F10C023B1DF1
:403E400012681B68134419463B461A6806F02CFE002387F8173137E0D7F810317C331C68D7F81031803380211846FFF72BFF03469C4226D1D7F8101107F110034FF48072F8
:403E8000184606F011FE07F1100107F10C03D7F828211868FFF77EFF034687F8173197F81731002B10D107F1080318683B1D1B689B0007F11002D1183B461A6806F0F4FDBB
:403EC00002E0022387F8173197F81731184607F58E77BD4690BD00BF80B487B000AFF860B9607A603B6000237B617B6800221A603B68DA013B6A9A4208D83B680133DB019F
:403F00005A1E3B6A9A4201D3012300E00023002B27D03B6A03F07F0303F18002FB681A603A6A7B6A1A443B68DB019A420AD33A6A7B6A1A443B680133DB01013B9A4201D854
:403F4000012300E00023002B06D0FB681A687B6A1A44BB681A6036E0BB684FF480721A6031E03A6A7B6A1A443B68DB019A420AD33A6A7B6A1A443B680133DB01013B9A428A
:403F800001D8012300E00023002B19D0FB6880221A60FB681A687B6A1A443B6A03F07F01FB681B68CB1A1A44BB681A60FB681A68BB681B68D21A7B6A1A447B681A6002E06F
:403FC0007B6901337B617B6918461C37BD4680BC704700BF80B5C8B000AF3B1D18603B1D1B689A6807F108031A6007F108031B681B68C7F81831012387F817310023C7F81F
:404000001C3153E007F108031B68194607F10C034FF48072184606F047FDD7F818310133C7F8183107F10C03D7F818211A6007F10C03803380211846FFF744FE03461A46D0
:4040400007F10C03DA6707F1080318683B1D07F10C011A68FFF79EFE034687F8173107F108031A683B1D1B689B69D21A3B1D1B681B681344C7F810313B1D07F10C011A6810
:40408000D7F81001FFF786FE034687F817313B1D07F5867207F108011B68D7F81801FFF7B7FDD7F81C310133C7F81C313B1D1B685B683A1D1268126902FB03F2D7F81C31E0
:4040C0009A429FD897F81731184607F59077BD4680BD00BF80B483B000AF134B7F221A70124B80221A707F23FB710CE0FB79DB0003F1804303F5F043FA79013AD2B21A7027
:40410000FB79013BFB71FB79002BEFD1FB79DB0003F1804303F5F04300221A7000BF0C37BD4680BC704700BF7D81FF1F7C81FF1F80B485B000AF03460A46FB711346BB7197
:404140000123FB60FB79172B2FD8BB79002B0ED0FB791A01184B1344FA791101164A0A441278D2B242F02002D2B21A700DE0FB791A01114B1344FA7911010F4A0A441278F5
:40418000D2B222F02002D2B21A70FB791A010A4B1344FA791101084A0A441278D2B242F00102D2B21A700023FB60FB6818461437BD4680BC704700BF1070004080B485B020
:4041C00000AF0346FB710123FB60FB79172B1DD8FB791A01104B1344FA7911010E4A0A441278D2B222F00102D2B21A70FB791A01094B1344FA791101074A0A441278D2B228
:4042000022F02002D2B21A700023FB60FB6818461437BD4680BC70471070004080B485B000AF0346FB710123FB60FB79172B1DD8FB791A01104B1344FA7911010E4A0A4499
:404240001279D2B242F00402D2B21A71FB791A01094B1344FA791101074A0A441278D2B242F00102D2B21A700023FB60FB6818461437BD4680BC70471070004080B485B090
:4042800000AF03460A46FB711346BB710123FB60FB79172B1BD8FB791A01104B13441B78DBB223F00E03FB72FB791A010B4B1344BA795200D2B252B202F00E0251B297F9CD
:4042C0000B200A4352B2D2B21A700023FB60FB6818461437BD4680BC704700BF1070004080B485B000AF0346FB710B46BB8013467B800123FB60BB8841F6FF72934202D176
:404300004FF40053BB807B8841F6FF72934202D14FF400537B80FB79172B17D8FB79DB0003F1804303F5EC430433BB60BB68BA881A80FB79DB0003F1804303F5EC4306333F
:40434000BB60BB687A881A800023FB60FB6818461437BD4680BC704780B485B000AF03460A46FB711346BB710123FB60FB79172B07D8FB791A01064B1344BA795A720023D4
:40438000FB60FB6818461437BD4680BC704700BF1070004090B484B000AF0446084611461A462346FB710346BB710B467B7113463B710123FB60FB79172B34D8FB79DB008F
:4043C00003F1804303F5EC43BA7902F07F02D1B27A79D201D2B20A43D2B21A70FB79DB0003F1804303F5EC433A7E1201D1B23A7902F00F02D2B20A43D2B25A70FB79DB0072
:4044000003F1804303F5EC433A7F02F00F02D2B29A70FB79DB0003F1804303F5EC430022DA700023FB60FB6818461037BD4690BC704700BF80B582B000AFFF23FB7105F0D7
:4044400023F80346BB71104B1B78182B12D90F4B1B78FB710C4B1B78013BDAB20A4B1A70FB79DB0003F1804303F5F0431B78DAB2064B1A70BB79184605F00AF8FB79184620
:404480000837BD4680BD00BF7C81FF1F7D81FF1F80B584B000AF0346FB7197F90730002B19DB04F0F1FF0346FB73FB79DB0003F1804303F5F0430A4A12781A70084AFB79DA
:4044C0001370084B1B780133DAB2064B1A70FB7B184604F0DDFF00BF1037BD4680BD00BF7D81FF1F7C81FF1F90B484B000AF0446084611461A462346FB710346BB800B46B8
:40450000BB711346FB700123FB6097F90730002B23DBBB8823F47F6323F00F039BB2002B1BD1FB79DB0003F1804303F5F043BB60BB68BA881A80FB79DB0003F1804303F50E
:40454000F043BA799A70FB79DB0003F1804303F5F043FA78DA700023FB60FB6818461037BD4690BC704700BF80B485B000AF0346FB710B46BB8013467B800123FB6097F9D7
:404580000730002B17DBFB79DB0003F1804303F5F0430433BB60BB68BA881A80FB79DB0003F1804303F5F0430633BB60BB687A881A800023FB60FB6818461437BD4680BC18
:4045C000704700BF80B582B000AF00F077FA4FF0FF337B6000F0A4FB0346002B24D1012000F06CFB0346072B1BD10221124800F089FA0346022B0DD100237B6002E0012066
:4046000000F06CF90D4B1B78DBB203F00203002BF5D006E0094B1B78DBB203F00203002BE3D000F0B1FB01E004237B607B6818460837BD4680BD00BFCC8BFF1F2247004079
:4046400080B582B000AF00F039FA00F069FB0346002B23D100F0C0FB78607B68072B1AD102E0012000F03AF9104B1B78DBB203F00203002BF5D00D4B1B78DBB203F00203C9
:40468000002B08D0094B1B78DBB29B08DBB2002B01D100237B6000F077FB01E004237B607B6818460837BD4680BD00BF2247004080B582B000AFFFF7C3FF78607B68002B37
:4046C00002D1FFF77FFF78607B6818460837BD4680BD00BF80B584B000AF03463A60FB710B46BB80FB793F2B01D9102301E04FF48073FB81FB89B988F8793A6800F006F8E5
:40470000B860BB6818461037BD4680BD80B586B000AFBA601A460346FB730B46BB811346FB8000237B61FB7B3F2B04D8FB7B042B01D901237B6197F90F30002B01DA01237A
:404740007B61FB7B3F2B04D9FB7B412B01D901237B61FB7B3F2B06D8BB89B3F5807F0CD901237B6109E0BB89802B01D901237B61FB88102B01D001237B61BB68002B01D1F5
:4047800001237B617B69002B60D100F0C9FA0346002B59D1FB88B989F87BBA6800F0DCF978617B69072B4CD102E0012000F096F8294B1B78DBB203F00203002BF5D0264BCF
:4047C0001B78DBB203F00203002B09D0224B1B78DBB29B08DBB2002B02D100237B6102E04FF0FF337B617B69002B2AD11B4B1A781A4B5B78B989F87B00F014FA78617B690A
:40480000072B1ED102E0012000F068F8124B1B78DBB203F00203002BF5D00F4B1B78DBB203F00203002B09D00B4B1B78DBB29B08DBB2002B02D100237B6102E04FF0FF3333
:404840007B6100F0A1FA01E004237B617B6918461837BD4680BD00BF22470040CC8BFF1F80B483B000AF0346FB7101BE00BF0C37BD4680BC704700BF80B400AF054A054B7C
:404880001B78DBB243F00103DBB2137000BFBD4680BC7047F646004080B582B000AF786008E00C4B1B68184604F0E6FD7B68A3F500437B607B68B3F5004FF2D8064B1B686A
:4048C0007A6802FB03F3184604F0D6FD00BF0837BD4680BD9081FF1F8881FF1F80B582B000AF0346FB80FB88054A127802FB03F3184604F0C1FD00BF0837BD4680BD00BFF4
:404900008C81FF1F80B582B000AF04F0BDFD0346FB7100BF00BF00BF00BF00BF00BF00BF00BF00BF00BF00BF00BF00BF00BF00BF00BF0A4A094B1B889BB243F004039BB2C4
:404940001380064B1B88BFF36F8FFB79184604F09FFD00BF0837BD4680BD00BF0048004080B584B000AF03463960FB710F4B1B68FB60FB791F2B02D90020FFF771FFFB79E8
:4049800003F01F0310339B00FA6813441B68BB60FB7903F01F0310339B00FA6813443A681A60BB6818461037BD4680BD08ED00E080B582B000AF03460A46FB711346BB71F4
:4049C000BB79072B02D90020FFF74AFFFB791F2B02D90020FFF744FFFB7903F01F0303F1604303F56443BA795201D2B21A7000BF0837BD4680BD00BF80B483B000AF7860E7
:404A0000264B1B78DBB21A467B681A60244B1B78DBB21B027A6812681A437B681A60214B1B78DBB21B047A6812681A437B681A601D4B1B78DBB21B067A6812681A437B6860
:404A40001A607B680433194A1278D2B21A60184B1B78DBB21A027B6804337968043109680A431A60134B1B78DBB21A047B6804337968043109680A431A600F4B1B78DBB232
:404A80001A067B6804337968043109680A431A6000BF0C37BD4680BC704700BF0301004904010049EC460040020100490101004900010049050100490601004980B582B0C3
:404AC00000AF04F0E1FC0346FB710C4A0B4B1B78DBB243F00803DBB21370094A084B1B78DBB243F00803DBB21370FB79184604F0CFFC00BF0837BD4680BD00BFA0430040A2
:404B0000B043004080B584B000AF78600B46FB700023FB7313E00120FFF7E0FE0C4B1B78DBB203F00103002BF5D0FB7B7A681344084A1278D2B21A70FB7B0133FB73FA7B99
:404B4000FB789A42EAD3FB7B18461037BD4680BD224700402047004080B489B000AFBA601A460346FB730B46BB811346FB800723FB612A4B1B78DBB203F00203002B45D07D
:404B8000274BB6221A70264BD5221A70244B02221A70224B1B78DBB203F00203002B32D11F4AFB7B137000237B8308E01C497B8BBA6813441B780B707B8B01337B837A8BC5
:404BC000FB889A42F2D3FB88B3F5807F20D1FB7B3F2B1DD8FB7B03F510331A02BB8913445B017B6100237B8309E00D497A8B7B6913441B78DBB20B707B8B01337B837B8B88
:404C00001F2BF2D904E00923FB6101E00423FB61FB6918462437BD4680BC7047224700402047004090B484B000AF0446084611461A462346FB710346BB800B46BB71134687
:404C4000FB700723FB601B4B1B78DBB203F00203002B26D0184BB6221A70174BD8221A70154B05221A70134B1B78DBB203F00203002B13D1104AFB7913700F4ABB881B0A52
:404C80009BB2DBB213700C4BBA88D2B21A700A4ABB791370084AFB78137004E00923FB6001E00423FB60FB6818461037BD4690BC704700BF224700402047004080B485B049
:404CC00000AF0346FB710723FB60134B1B78DBB203F00203002B16D0104BB6221A700F4BE1221A700D4B0E221A700B4B1B78DBB203F00203002B03D1084AFB79137004E0F4
:404D00000923FB6001E00423FB60FB6818461437BD4680BC704700BF224700402047004080B582B000AF04237B6004F0ADFB0346FB70124B1B78002B16D1104B01221A7006
:404D400000237B600E4B1B6803F00103002B0BD00B4A0B4B1B6823F00103136000BF00BF00BF084B01221A60FB78184604F090FB7B6818460837BD4680BD00BFC483FF1F43
:404D800004000840C883FF1F80B582B000AF04F07BFB0346FB710D4B00221A700C4B1B68012B0BD10B4A0B4B1B6843F00103136000BF00BF00BF064B00221A60FB7918464F
:404DC00004F066FB00BF0837BD4680BDC483FF1FC883FF1F0400084080B483B000AF07237B600C4B1B78DBB203F00203002B09D0094BB6221A70084BE0221A70064B0D2263
:404E00001A7001E004237B607B6818460C37BD4680BC7047224700402047004080B582B000AF0023FB710AE0FB791846FCF7E6FEFB791846FCF770FFFB790133FB71FB7947
:404E4000012BF1D9034BFF221A7000BF0837BD4680BD00BF9481FF1F80B582B000AF0346FB710C4B1B78FF2B04D00A4B1B78184600F012F8FB791846FCF76EFEFB7918461D
:404E8000FCF714FF034AFB79137000BF0837BD4680BD00BF9481FF1F80B582B000AF0346FB71FB791846FCF7A9FEFB791846FCF733FF00BF0837BD4680BD00BF80B582B0E6
:404EC00002AF324B01221A70314B00221A70102000F03AFC102000F01DFD07211D20FFF767FD2C4B04221A702B4B00221A702B4B00221A702A4A2A4B1B78DBB243F018039E
:404F0000DBB21370274B00221A70274B00221A70264B00221A70264B0A221A70254B00221A70254B00221A70244B12221A70244B13221A70234B00221A70234B14221A7006
:404F4000012300930E2347F2E97248F65C71072000F040FA1D4A0D4B1B78DBB2013B1C499B000B449B7813701A4A084B1B78DBB2013B174931F823301380044B1B78DBB268
:404F8000184600F077F900BFBD4680BD9581FF1FCC83FF1F96580040975800409E580040075B004093580040885B0040895B00408058004081580040835800408858004080
:404FC000895800408D580040014E00400E4E0040D483FF1F0C4E004080B582B000AF04F053FA0346FB71444B1B78BB71434A434B1B78DBB243F00103DBB213703F4A3F4B42
:405000001B78DBB243F01003DBB213703C4A3C4B1B78DBB243F00103DBB21370384A384B1B78DBB243F01003DBB21370354A354B1B78DBB243F00203DBB21370324A324BAB
:405040001B78DBB243F00203DBB213702F4A2F4B1B78DBB243F00303DBB213700320FFF73DFC284A274B1B78DBB223F00203DBB21370254A244B1B78DBB223F00203DBB24B
:405080001370234A224B1B78DBB243F00603DBB21370204B7A221A701F4A1F4B1B78DBB243F00103DBB213701C4A1C4B1B78DBB243F00103DBB21370194A194B1B78DBB241
:4050C00043F00103DBB21370164A164B1B78DBB243F00103DBB21370134B4FF000521A60124B4FF000521A60FB79184604F0D0F900BF0837BD4680BD9581FF1FAA43004042
:40510000BA430040F8460040F9460040915800407758004082580040A1430040B1430040A2430040B243004080E200E000E100E080B500AF084B1B78002B09D1074B1B787A
:40514000DBB2002B01D1FFF7B9FE034B01221A70FFF742FF00BF80BDCE83FF1FCF83FF1F80B400AF054A054B1B78DBB243F00103DBB2137000BFBD4680BC7047004E0040BF
:4051800080B485B000AF0346FB710D4B1B78DBB2002B03D00B4B1B78FB7305E00A4B1B78DBB203F00103FB73FB7B012B02D0FB79002BEAD0FB7B18461437BD4680BC7047B4
:4051C000CD83FF1FCC83FF1F014E004080B483B000AF224B1B78DBB203F00303FB70FB78012B0BD81E4B1B889BB27B607B681B041C4A128892B213437B6020E0FB78022B71
:4052000012D1174B1B889BB27B607B681B04154A1278D2B213437B60134B1B78DBB21B027A6813437B600AE00E4B1B889BB27B600B4B1B889BB21B047A6813437B600B4B34
:405240001B78DBB2002B02D0094B00221A707B6818460C37BD4680BC704700BF144E0040124E0040104E0040114E0040CD83FF1FCC83FF1F80B582B000AF0346FB71374B31
:4052800000221A70FB79012B63D1354B30221A70344B05221A70344B08221A70334B00221A70334B00221A70324B2D221A70324B00221A70314B00221A70314B00221A708C
:4052C000304B01221A70304B14221A702F4B10221A702F4B09221A702E4B00221A702E4B22221A702D4B24221A702D4B04221A702C4B02221A702C4B22221A702B4B2822E0
:405300001A702B4BEB221A70442000F01BF9294BC0221A70284B03221A70284B01221A70274B01221A70274B00221A70264B0A221A70264B4FF47A521A600121062000F0B6
:4053400045F90121102000F027FA21491D20FFF707FB00BF0837BD4680BD00BFCD83FF1F004E0040024E0040034E0040044E0040054E0040064E0040084E0040094E0040ED
:405380000A4E0040144E0040845800408558004086580040875800408A5800408B5800408C5800408E5800408F580040905800409158004094580040955800409A580040AB
:4053C0009B5800409C5800409D580040D08BFF1FC155000090B587B000AF0446084611461A462346FB710346BB800B467B801346BB7197F82830002B00F08B8097F82830EA
:40540000012B00F28680FB79013B092B4AD801A252F823F03D540000A5540000A55400003D540000A5540000A55400005754000071540000A55400008B540000BB790F2B86
:4054400004D9374B1B78DBB2FB752EE0354B1B78DBB2FB7529E0BB790F2B04D9324B1B78DBB2FB7521E0314B1B78DBB2FB751CE0BB790F2B04D92E4B1B78DBB2FB7514E06D
:405480002C4B1B78DBB2FB750FE0BB790F2B04D9294B1B78DBB2FB7507E0284B1B78DBB2FB7502E00023FB7500BFBA8897F917305B0113443B617B883A6902FB03F3FB602D
:4054C000FB68DB0BBB82BB790D2B12D8BA8ABB79C3F10E0342FA03F3BB8297F82830013BBA790132D1B2164A9B0013440A469A7007E097F82830013B114A9B0013440F22E4
:405500009A7097F82830013B0D49BA8A21F8232002E00020FFF7A4F900BF1C37BD4690BD180100491C010049190100491D0100491A0100491E0100491B0100491F01004925
:40554000D483FF1F80B584B000AF0346FB7103F09BFF0346FB73174A164B1B78DBB243F00303DBB21370144A134B1B78DBB243F00303DBB21370114AFB7913700320FFF7EA
:40558000ADF90C4A0B4B1B78DBB223F00303DBB21370094A084B1B78DBB223F00303DBB21370FB7B184603F073FF00BF1037BD4680BD00BFF8460040F946004092580040FC
:4055C00080B400AF00BFBD4680BC704780B584B000AF03460A46FB8013467B7100F0CEF80346FB7300F0A4F80346BB81FA88BB899A4200F08880464B1B78DBB203F00103E2
:40560000FB72FB7B002B20D1BB89002B02D0FB88002B1AD1BB89002B0BD13E4AFB8813803D4A3D4B1B78DBB223F04003DBB2137069E0394A384B1B78DBB243F04003DBB2A1
:405640001370344AFB8813805DE0FB7A002B33D0324B00221A70324B01221A70314B00221A70314A304B1B78DBB203F07F03DBB21370294B1B78DBB203F00803002B02D08E
:40568000FB88002B18D1294ABB891380234B07221A7000BF214B1B78DBB203F00103002BF8D11B4A1A4B1B78DBB223F00103DBB213701A4B00221A70154B1B78DBB203F01D
:4056C0000103002B13D0194AFB881380134A7B79002B01D0032300E00123137000BF0F4B1B78DBB203F00103002BF8D10BE0094AFB8813800649064B1B78DAB2FB7A134323
:40570000DBB20B70FFE700BF1037BD4680BD00BFA24300408040004082400040014000401040004014400040084000400240004080B400AF034B1B889BB21846BD4680BCE2
:40574000704700BF8040004080B483B000AF0346FB710949084B1B78DBB25AB297F9073023F007035BB213435BB2DBB20B7000BF0C37BD4680BC70478240004080B400AFDE
:40578000044B1B78DBB203F00703DBB21846BD4680BC70478240004080B584B000AF03460A46FB8013467B7100F0CEF80346FB7300F0A4F80346BB81FA88BB899A4200F019
:4057C0008880464B1B78DBB203F00103FB72FB7B002B20D1BB89002B02D0FB88002B1AD1BB89002B0BD13E4AFB8813803D4A3D4B1B78DBB223F04003DBB2137069E0394AD6
:40580000384B1B78DBB243F04003DBB21370344AFB8813805DE0FB7A002B33D0324B00221A70324B01221A70314B00221A70314A304B1B78DBB203F07F03DBB21370294B41
:405840001B78DBB203F00803002B02D0FB88002B18D1294ABB891380234B07221A7000BF214B1B78DBB203F00103002BF8D11B4A1A4B1B78DBB223F00103DBB213701A4B5F
:4058800000221A70154B1B78DBB203F00103002B13D0194AFB881380134A7B79002B01D0032300E00123137000BF0F4B1B78DBB203F00103002BF8D10BE0094AFB881380CC
:4058C0000649064B1B78DAB2FB7A1343DBB20B70FFE700BF1037BD4680BD00BFA14300400041004002410040014000401440004010400040084000400240004080B400AF71
:40590000034B1B889BB21846BD4680BC704700BF0041004080B483B000AF0346FB710949084B1B78DBB25AB297F9073023F007035BB213435BB2DBB20B7000BF0C37BD4698
:4059400080BC70470241004080B400AF044B1B78DBB203F00703DBB21846BD4680BC70470241004080B500AF084B0F221A7000F095F800F063F800F06FF8054B02221A70EF
:40598000044B20221A7000BF80BD00BF87640040876500408F64004080B582B000AF03F073FD0346FB71134A124B1B78DBB243F02003DBB21370104A0F4B1B78DBB243F012
:4059C0001003DBB213700D4A0C4B1B78DBB243F01003DBB21370FB79184603F059FD00F08DF800F01FF800F023F800BF0837BD4680BD00BF97640040976500409F64004007
:405A000080B500AF064B1B78002B04D1FFF7AAFF034B01221A70FFF7BFFF00BF80BD00BFD883FF1F80B400AF00BFBD4680BC704780B400AF00BFBD4680BC704780B483B085
:405A400000AF044B1B78FB71FB7918460C37BD4680BC70476765004080B483B000AF044B1B78FB71FB7918460C37BD4680BC70476F64004080B400AF01E0064B1B78064B97
:405A80001B78DBB203F02003002BF6D100BFBD4680BC7047576400406F64004080B582B000AF01E0124B1B78124B1B78DBB203F02003002BF6D103F0E7FC0346FB710E4AAC
:405AC0000D4B1B78DBB243F00103DBB213700A4A094B1B78DBB223F00103DBB21370FB79184603F0D5FC00BF0837BD4680BD00BF576400406F6400409764004080B400AF39
:405B0000094A094B1B78DBB243F00403DBB21370064A064B1B78DBB243F00403DBB2137000BFBD4680BC7047A2430040B243004080B582B000AF384B4FF400421A60374B20
:405B40001B78DAB2364BDA70364B1B78DAB2344B1A71354B1B78DAB2314B5A71324B1B78DBB29BB21B029AB22E4B1B78DBB29BB213439BB20133FB802C4A2C4B1B78DBB213
:405B800023F00103DBB21370FB88184603F074FC03F07AFC03467B71254A254B1B78DBB223F00403DBB21370224A224B1B78DBB223F00403DBB213707B79184603F068FCE7
:405BC0001A4A1A4B1B78DBB243F00203DBB21370124B134AD2781A70104B114AD2781A70104B0F4A12791A700F4B0D4A52791A700E4A0E4B1B78DBB223F01003DBB2137086
:405C00000D4B4FF400421A600C4B10221A7000BF0837BD4680BD00BF80E100E0CA4900409881FF1FDB490040DC490040D6490040A5430040B543004080E200E0D48BFF1FEB
:405C400080B500AF41F6FF734FF480420121022000F012FA03461A460A4B1A7041F6FF7341F6FF7201210A2000F038FA03461A46054B1A70054800F063FA012000F072FA71
:405C800000BF80BDE083FF1FE183FF1F615E000080B582B000AF414B1B781846FEF7BEFA3F4B1B781846FEF7B9FA3E4B1B78FF2B05D1FEF7BFFB03461A463A4B1A70394BBC
:405CC0001878384B1A7806230A21FEF70DFC354B1B78354A92B245F6A2311846FEF744FC2E4B1A782F4B1B7819461046FEF734FB2E4B1B78FF2B05D1FEF79CFB03461A4604
:405D00002A4B1A70294B1878284B1A7807230A21FEF7EAFB254B1B78234A91B2244A92B21846FEF721FC1E4B1A78204B1B7819461046FEF711FB194B1B7801211846FEF73C
:405D4000F7F9174B1B7801211846FEF7F1F903F09BFB0346FB71174A164B1B78DBB243F02003DBB21370FB79184603F091FB124A114B1B78DBB243F00103DBB213700E4A91
:405D80000D4B1B78DBB243F00203DBB213700B4B02221A6000BF0837BD4680BDE083FF1FE183FF1F9E81FF1FE483FF1F9F81FF1FD88BFF1F9C6400407664004080E200E0D1
:405DC00080B500AF084B1B68002B04D1FFF738FF054B01221A6000F049F8FFF759FF034B1B7800BF80BD00BFDC83FF1F6A64004080B500AF00F0EEF800BF80BD80B485B00A
:405E000000AF0346FB71074B1B78FB73FB7B002B02D1FB79002BF6D0FB7B18461437BD4680BC70476A64004080B483B000AF0346FB80FB88C3F10403074A32F913309AB28C
:405E4000064B1B881BB29BB2D31A9BB21BB218460C37BD4680BC7047D88BFF1FEC8BFF1F80B400AF00BFBD4680BC704780B500AF064B1B78002B04D100F00AF8034B01229D
:405E80001A7000F01BF800BF80BD00BFEE83FF1F80B500AF074A074B1B78DBB243F00603DBB213700C2000F06BF8034B00221A8000BF80BD09590040E68BFF1F80B582B0FB
:405EC00000AF03F0E1FA0346FB71254A244B1B78DBB243F00203DBB21370224A214B1B78DBB243F00203DBB213701F4B1B78BB71BB7943F00203BB71BB7943F00103BB7192
:405F0000194ABB791370194B18221A70184A184B1B78DBB243F04003DBB21370144A144B1B78DBB223F00303DBB21370114BC8221A70114B02221A70104A104B1B78DBB2FF
:405F400043F00803DBB213700A20FEF7C7FCFB79184603F09DFA00BF0837BD4680BD00BFAB430040BB4300400B5900400E5900400D59004008590040164600402F5B004034
:405F800080B584B000AF0346FB71FB790A2B07D00C2B02D0082B06D008E0C223FB730BE08223FB7308E04223FB7305E0C223FB730020FEF755FC00BF054AFB7B1370FB7975
:405FC000184600F017F800BF1037BD4680BD00BF0A59004080B400AF054A054B1B78DBB243F00103DBB2137000BFBD4680BC70470859004080B584B000AF0346FB71FB791C
:406000000A2B08D00C2B02D0082B08D00BE04FF48053FB600DE04FF48063FB6009E04FF48073FB6005E00023FB600020FEF718FC00BF0D4B00221A80FB6842F2107202FB86
:4060400003F303F27263094A82FB03121A44D212DB17D31A064A1360064B00221A8000BF1037BD4680BD00BFE48BFF1FEF09E09EE88BFF1FEC8BFF1F90B585B002AF0446E7
:40608000084611461A462346FB710346BB710B46BB8013467B80104B07221A700E4B1878BA79F97900230193002300930723FEF771F9094B1B787A88B9881846FEF710F999
:4060C000054B1B7802211846FEF7D8F8024B1B7818460C37BD4690BDA081FF1F90B585B002AF0446084611461A462346FB710346BB710B46BB8013467B80104B06221A70B6
:406100000E4B1878BA79F97900230193002300930623FEF73FF9094B1B787A88B9881846FEF7DEF8054B1B7802211846FEF7A6F8024B1B7818460C37BD4690BDA181FF1FB3
:4061400080B485B000AF7860054B1B68FB60FB6844337A681A6000BF1437BD4680BC704708ED00E080B483B000AF0346FB71054AFB795B01DBB2137000BF0C37BD4680BCBB
:40618000704700BF01E400E080B485B000AF0346FB710A4B1B78DBB223F00103FB730749FB7903F00103DAB2FB7B1343DBB20B7000BF1437BD4680BC704700BFF051004082
:4061C00080B485B000AF0346FB710B4B1B78DBB223F02003FB730849FB795B01DBB203F02003DAB2FB7B1343DBB20B7000BF1437BD4680BC704700BFF051004080B485B0EB
:4062000000AF0346FB710B4B1B78DBB223F00203FB730849FB795B00DBB203F00203DAB2FB7B1343DBB20B7000BF1437BD4680BC704700BFF051004090B585B002AF044644
:40624000084611461A462346FB710346BB710B46BB8013467B80104B02221A700E4B1878BA79F97900230193002300930023FEF791F8094B1B787A88B9881846FEF730F8A5
:40628000054B1B7802211846FDF7F8FF024B1B7818460C37BD4690BDA281FF1F90B585B002AF0446084611461A462346FB710346BB710B46BB8013467B80104B03221A70CF
:4062C0000E4B1878BA79F97900230193002300930023FEF75FF8094B1B787A88B9881846FDF7FEFF054B1B7802211846FDF7C6FF024B1B7818460C37BD4690BDA381FF1F8B
:4063000080B582B000AF03460A46FB711346BB71094B1B78002B04D100F010F8064B01221A70BA79FB791146184600F0EDF800BF0837BD4680BD00BFEF83FF1F80B582B0BB
:4063400000AF03F0A1F803467B715C4A5B4B1B78DBB243F00103DBB21370594A584B1B78DBB243F00103DBB21370564B01221A70554B02221A70554A544B1B78DBB203F060
:406380007F03DBB213700020FEF7A8FA504A504B1B78DBB223F00603DBB213704D4A4D4B1B78DBB223F02003DBB21370484A484B1B78DBB243F00103DBB213700120FEF7DC
:4063C0008DFA2820FEF78AFA434A434B1B78DBB203F07F03DBB213703F4A3F4B1B78DBB223F04003DBB21370394A394B1B78DBB243F00203DBB213700220FEF76FFA344A8F
:40640000334B1B78DBB243F00403DBB21370334B00221A70324B00221A700023FB800AE0FB88304AFF21D154FB882F4AFF21D154FB880133FB80FB88082BF1D97B79184612
:4064400003F026F803211720FEF7B2FA27491720FEF786FA03211820FEF7AAFA24491820FEF77EFA03211520FEF7A2FA21491520FEF776FA03210520FEF79AFA1E490520A0
:40648000FEF76EFA03210620FEF792FA1B490620FEF766FA00211620FEF78AFA18491620FEF75EFA03210C20FEF782FA15490C20FEF756FA00BF0837BD4680BDA54300402B
:4064C000B54300409D60004009600040106000409443004012600040F85100408460004085600040208CFF1F4C8CFF1FDD740000616E0000D174000021740000797400008C
:40650000E9740000DD76000080B582B000AF03460A46FB711346BB71354AFB791370354B00221A70344B00221A70344B00221A70334B00221A70334B00221A70324B002220
:406540001A70324B00221A70314B4FF400021A602F4B4FF080721A602D4B4FF400121A602B4B20221A602A4B40221A60294B03221A70274B4FF480021A60274B50221A70FC
:40658000264802F0E7FE02F067FE02F03DFFBB79002B02D0012B09D011E0214A204B1B78DBB223F00103DBB2137011E01C4A1C4B1B78DBB243F00103DBB2137008E0184A5E
:4065C000174B1B78DBB223F00103DBB2137000BF144B03221A70144B80221A70012002F04BFF124B04221A7000BF0837BD4680BD638CFF1F588CFF1F6A8CFF1F708CFF1FB5
:40660000598CFF1F648CFF1F818CFF1F5A8CFF1F00E100E09E6000409C600040017600000960004028600040086000401260004080B400AF0F4B00221A700F4B00221A70AE
:406640000E4B00221A700E4B00221A700D4B00221A700D4B00221A700C4B00221A700C4B03221A700B4B80221A7000BFBD4680BC704700BF588CFF1F6A8CFF1F708CFF1FD9
:40668000598CFF1F648CFF1F818CFF1F5A8CFF1F286000400860004080B582B000AF092000F048F902F0F0FE0346FB71304A304B1B78DBB203F07F03DBB213702D4A2D4B9C
:4066C0001B78DBB223F00403DBB213702A4A2A4B1B78DBB223F00103DBB21370274A274B1B78DBB223F00103DBB21370244A244B1B78DBB263F07F03DBB21370204A204B3F
:406700001B78DBB243F04003DBB21370FB79184602F0BEFE1B4B4FF400021A60194B4FF080721A60174B4FF400121A60154B20221A60144B40221A6002F004FB124B4FF4E6
:4067400080521A60114B00221A70114B00221A70104B00221A70104B00221A700F4B00221A700F4B00221A7000BF0837BD4680BD0860004012600040A5430040B5430040AB
:40678000F851004080E100E080E200E06A8CFF1F708CFF1F598CFF1F648CFF1F818CFF1FEF83FF1F80B400AF034B1B78DBB21846BD4680BC704700BF708CFF1F80B483B0EE
:4067C00000AF0023FB71084B1B78DBB2002B05D0054B1B78FB71044B00221A70FB7918460C37BD4680BC70476A8CFF1F80B483B000AF0346FB71FA79064913465B001344E7
:406800009B000B4401331B78DBB218460C37BD4680BC7047848CFF1F80B485B000AF0346FB710023FB81FB79002B1CD0FB79082B19D8104AFB791B0113441B78DBB29BB218
:4068400003F00F03FB81FB891B029AB20949FB791B010B4401331B78DBB29BB21343FB81FB89023BFB81FB8918461437BD4680BC704700BFFC5F004090B585B000AF0346DA
:406880003960FB71FA79274913465B0013449B000B4404331B78DBB25BB2002B06DA3B681B0CFB814FF48043BB8105E04FF48043FB813B681B0CBB81FB79012B02D0022BF8
:4068C0000CD017E0FC79BB89FA890121202002F00FFD03461A46144B1A550BE0FC79BB89FA890121202002F0D1FC03461A460E4B1A5500BFFB79002B10D0FB79082B0DD82F
:40690000FC79FDF797FD03461A46084B1A55FC79FDF790FD03461A46054B1A5500BF1437BD4690BD848CFF1F2C8CFF1F208CFF1F4C8CFF1F80B584B000AF0346FB71FB7932
:40694000082B01D8FB7900E00123FB73FB7B184AD35CFF2B0FD0FB7B164AD35C1846FDF72DFCFB7B124AD35C1846FDF791FDFB7B0F4AFF21D154FB7B0F4AD35CFF2B09D09F
:40698000FB7B0D4AD35C1846FDF782FDFB7B0A4AFF21D154FB7B0133FB73FB7B082B02D8FB79092BD2D000BF1037BD4680BD00BF208CFF1F2C8CFF1F4C8CFF1F80B485B012
:4069C00000AF03460A46FB711346BB71BB79002B29D1FB792B4AD35CDB0003F1804303F5F043FB60FB79284A32F813309BB2203B9AB2FB681A80FB79224AD35CDB0003F1B3
:406A0000804303F5F0430433FB60FB791F4A52F823309BB220339AB2FB681A80FB791C4A0121D1541EE0FB79164AD35CDB0003F1804303F5F043FB60FB6802221A80FB79A4
:406A4000104AD35CDB0003F1804303F5F0430433FB60FB790D4A52F823309BB21E339AB2FB681A80FB790B4AD35C1A010A4B1344FA7904498A5C5A7200BF1437BD4680BC75
:406A8000704700BF208CFF1F388CFF1FFC8BFF1FF08BFF1F2C8CFF1F10700040B0B582B000AF03463960FB711346BB80FB79002B00F0FE80FB79082B00F2FA807E4CF9795C
:406AC000BB881B0A9BB2D8B2FA797C4D13465B0013449B002B4403331B78DBB20343DAB20B0123441A70744AFB79B988C9B21B01134401330A461A70FB79714AD35CFF2BEA
:406B000004D1FB7939681846FFF7B6FE3B68002B5DD0FB796B4AD35C1846FDF74FFBFB796949BA8821F81320FB7968493A6841F82320FB79624AD05CBB88202B28BF202379
:406B400099B2FB79624AD25C1123FDF7CDFCFB795B4AD05C3B6899B2FB791B0103F108025C4B13449BB21A46FDF7FEFCFB79584AD05CFB79564AD15CFB79574AD35C0A461A
:406B80000121FDF7B1FCFB79514AD05C534B99B2FB791A014F4B13449BB21A46FDF7E4FCFB79484AD35C1846FDF738FBFB79454AD05CFB79424AD35C1946FDF7CDFBFB7946
:406BC000404AD35C01211846FDF7B2FA70E0FA793A4913465B0013449B000B44013300221A70BB88002B53D0FB793749BA8821F81320FB793A4A0021D154FB79314AD35C32
:406C00001846FDF7DBFAFB792D4AD05CBB88202B28BF202399B2FB792D4AD25C1123FDF763FCFB79264AD05CFB79284A52F8233099B2FB791B0103F10802264B13449BB2F2
:406C40001A46FDF791FCFB791E4AD35C1846FDF7E5FAFB791B4AD05CFB79194AD35C1946FDF77AFBFB79174AD35C01211846FDF75FFA1849FB791748FA79120102441278C9
:406C8000D2B242F00102D2B21B010B441A700FE00948F979FA79094C13465B0013449B00234405331B78DAB20B01034402331A7000BF0837BD46B0BDFC5F0040848CFF1F7B
:406CC000208CFF1F2C8CFF1F388CFF1FFC8BFF1F4C8CFF1F7060004064CB0000A481FF1FF08BFF1F80B582B000AF03463960FB711346BB803B68002B45D0FB79002B42D0D0
:406D0000FB79082B3FD8FB79224AD35CFF2B04D1FB7939681846FFF7AFFDFB791E4AD35C1846FDF74BFAFB791A4AD05CFB79194AD25CB9881223FDF7D7FBFB79154AD05C8C
:406D4000FB791B0103F10802144B13449BB23A6892B21946FDF708FCFB790F4AD35C1846FDF75CFAFB790C4AD05CFB79094AD35C1946FDF7F1FAFB79074AD35C0121184603
:406D8000FDF7D6F901E00023BB80BB8818460837BD4680BD208CFF1F2C8CFF1F7060004090B482B000AF0346FB71FB79002B1CD0FB79082B19D8FA790E4913465B0013442F
:406DC0009B000B44013300221A700B48F979FA79084C13465B0013449B00234405331B78DAB20B01034402331A7000BF0837BD4690BC7047848CFF1FFC5F004080B483B093
:406E000000AF0346FB71FB79002B08D00A4B1B78DBB243F00103DAB2074B1A7007E0064B1B78DBB223F00103DAB2034B1A7000BF0C37BD4680BC7047818CFF1F80B400AF8A
:406E4000064B1B78DBB203F00103002B14BF01230023DBB21846BD4680BC70476A65004080B582B000AF374B1B78BB71BB7903F01003002B62D00123FB7197F90630002B06
:406E800012DABB7903F00F03012B02D00023FB711CE000F061F82C4B1B78DBB25BB2002B14DA0023FB7111E0BB7903F04003002B02D000F095F809E0BB7903F02003002B5C
:406EC00002D000F0B3F801E00023FB71FB79002B34D01C4B1B78BB7197F90630002B2DDB1A4B1B78DAB21A4B1B78DBB21343BB71184ABB791370174B1B78DBB2BA799A42BE
:406F00001CD1114B1B78FB710E4B1B78DBB223F07F03BB71BB79002B0AD10A4B0A4A1278D2B21A70074B1B78DBB203F00F03FB71054B1B78DBB2FA799A42E2D100BF083701
:406F4000BD4680BD28600040628CFF1F658CFF1F808CFF1F2960004080B582B000AF1D4B1B78FB711B4AFB7913701A4B1B78FB7197F90730002B03DA174AFB79137025E092
:406F8000022000F013FA154B1B78DBB203F06003202B08D0402B0BD0002B0ED100F0A4FB0346FB710CE002F077FA0346FB7107E001F038FB0346FB7102E00023FB7100BF31
:406FC000FB79002B02D1044B03221A7000BF0837BD4680BD28600040628CFF1F0060004080B500AF104B1B78DBB2062B19D801A252F823F023700000237000001170000047
:407000002370000017700000237000001D70000000F0F8F806E000F075F903E000F0A0F900E000BF00BF80BD588CFF1F80B500AF124B1B78DBB2062B1DD801A252F823F062
:4070400077700000777000005D7000007770000063700000777000006970000000F0D8F80AE000F0F5F807E0032000F09FF9044B03221A7000E000BF00BF80BD588CFF1F47
:40708000628CFF1F80B483B000AF0023FB71294B1B78DBB29AB2284B1B889BB213449AB2254B1A8015E02549FB79254A52681278D2B2CA54224B5B680133214A5360FB790D
:4070C0000133FB711E4B1B889BB2013B9AB21C4B1A801B4B1B889BB2002B02D0FB79072BE1D9144B1B78DBB2082B02D0FB79002B0FD0144B1B78DBB283F07F03DB43DAB23B
:40710000104B1A70104B0F221A70104B02221A7005E00D4B02221A700C4B02221A700C4AFB791370034AFB79137000BF0C37BD4680BC70475A8CFF1F6E8CFF1F0060004016
:40714000748CFF1F658CFF1F628CFF1F588CFF1F808CFF1F80B582B000AF164B1B889BB2002B02D100F02EF81EE0134B02221A70124B00221A7000F039F9114BDB79DBB2BD
:407180009BB21B029AB20E4B9B79DBB29BB21343FB80084B1B889BB2FA889A4202D2054AFB881380FFF76EFF012318460837BD4680BD00BF748CFF1F588CFF1F658CFF1FD5
:4071C0000060004080B400AF094B02221A70094B80221A70084B0F221A70084B00221A70074B00221A7001231846BD4680BC7047588CFF1F658CFF1F628CFF1F5A8CFF1FE6
:40720000808CFF1F80B500AFFFF73CFF00BF80BD80B500AF0A4B1B78DBB29AB2094B1B889BB213449AB2074B1A80074B00221A70012000F0BBF8054B03221A7000BF80BDDE
