:400000000080002011000000C94B0000C94B000008B5044B1A6803F53F5302331A6005F049FC00BFFA46004010B5054C237833B9044B13B10448AFF300800123237010BD05
:40004000F081FF1F0000000030BB0000084B10B51BB108490848AFF300800848036803B910BD074B002BFBD0BDE81040184700BF00000000F481FF1F30BB0000C080FF1FE4
:40008000000000002DE9F04107460D4690461C46194606980BF020FA0646294638460BF01BFA0746294640460BF016FA014638460BF0D0FB014630460BF018FB0146204676
:4000C0000BF00CFABDE8F08110B503F045F960B103F052F948B11A4B1B7813F0FF0F04D004F0EEFB08B104F0CBFC03F045F930B303F032F978B1134B1878134B1A781349E8
:4001000003F046F8124C20784022124904F076FC207804F0EDFB0A4B1B7813F0FF0F04D004F0CEFB08B104F0C7FB054B1B7813F0FF0F04D004F0C4FB08B104F0EFFB10BD29
:4001400018A6FF1F689AFF1FEEA6FF1FF0A6FF1F699AFF1FCC9AFF1F08B504F0B1FB28B903F010F900220C4B1A7011E00A4B1B7813F0FF0F0CD10121002003F087F903F0CC
:40018000FBF80028FBD004F07BFC0122024B1A700022024B1A7008BD18A6FF1F1082FF1F10B5154B02221549002006F0E5FD04F087FB01281FD1124B1B79DBB2012B0BD1F6
:4001C0000F4C0020214601F8080F0B4B022206F01DFD0123237010BD0949012301F8083F054B0222002006F011FD03F0CBF803F0F7FA01F0EDFF10BDD0A6FF1F1482FF1F25
:400200001082FF1F08B507F071FB07F085FBFFF7C7FF08BD10B5044600210BF023FC48B1054920460BF062FA09F0A2FF03490BF05DFA10BD024810BDD27EFA3DAC7F8A410F
:400240000080BBC410B504460C490BF0F7FB90B90B4920460BF006FC18B10948FFF7F2FF10BD084920460BF041FA09F00FFF06490BF03CFA10BD002010BD00BF0080BBC474
:400280000060BB4420986C3D13D002412DE9F843B64B01229A721B7B002B40F0B181B34B0022C3F80C2883F810285D7B83F8115802240FE0A01EAD4A13191B7B03F07F0335
:4002C000024482F81438C5EBC502A94901EB4202135401340F2CEDD90122A44B83F8102800250FE0A31EA1480219127B02F07F02034483F814280134013100E000210D2982
:40030000F0DD0135072DF9DD0222984B83F810286FE1964A13191D7B611C11440B7B5B0543EA0573A11C11440D7B43EA8533E11C11440D7B43EAC513211D11440D7B05F037
:400340007F051D43C2F8145C92F81038022B72D1D2F80C68AEB928460BF0CAFB80B2834BA3F8180C06F17E02010A1A4482F81418B21CC3F80C287F36C0B2334483F8140823
:4003800036E17A4BB3F8183C01335B009E421AD2784928460BF0AAF90BF0AAFB80B2734B06F17E02010A1A4482F81418B21CC3F80C287F36C0B21E4486F8140803EB8203D1
:4003C000C3F81C5C14E19E4240F012816A4BC3F86451D3F8640169490BF026FBE8B1664BD3F8640166490BF03DFBB0B15F4A06F17E031344EF2183F81418B31CC2F80C3856
:4004000006F17F03134483F81418032382F810380022594BC3F86821EAE0574BD3F86C210132C3F86C210022C3F8702155490A7083F87421DCE0032B1ED128460BF058FBE9
:4004400080B24D4DA5F87601484AD2F80C3803F17E01060A114481F81468991CC2F80C187F33C0B2134483F81408042382F810380023A5F87831BBE0042B40F0B9803E4B7C
:40048000B3F87861B3F876319E427FD23A4BD3F8683113F003030FD1344FD7F80C385A1CC7F80C2803F17E0628460BF021FBC0B2BB1983F8140851E0012B0FD12B4FD7F804
:4004C0000C385A1CC7F80C2803F17E0628460BF00FFBC0B2BB1983F814083FE0022B20D1002128460BF0A0FA58B1204AD2F80C38591CC2F80C187E331344FF2283F8142872
:400500002CE01A4FD7F80C385A1CC7F80C2803F17E0628460BF0ECFAC0B2BB1983F814081CE0194928460BF0E1F80BF0BBFA00B20E4AD2F80C3803F17E01C0F30725114417
:4005400081F81458991CC2F80C187F33C0B2134483F814080136084BA3F87861064AD2F868310133C2F8683142E000BF1082FF1F90A1FF1F00FF7F470893FF1F0000C0BFDC
:40058000000020C0DEA2FF1F00FEFF468F4928460BF04AFAF8B18E4928460BF063FAD0B18C4AD2F80C3803F17E011144FE2081F81408991CC2F80C187F33134483F814089C
:4005C000052382F810380122834B1A707E31834BA3F87A110CE0814BD3F86C210132C3F86C210022C3F870217B490A7083F8742105347A4BD3F870319C42FFF48AAEDBE07E
:40060000012B79D1734B0E22C3F80C285D7B734B83F87C51022310E09A1E6E491944097B01F07F01C5EBC5006D4C04EB400081546A48024482F8801101330F2BECDD102512
:4006400030E0644C6319187B6A1C2244137B5B0543EA0073AA1C2244107B43EA8033EA1C2244107B43EAC0132A1D2244107B00F07F001843C4F8140C4FF088410BF036F894
:400680000BF036FA80B2D4F80C28531C53490A44060A82F880615A1CC4F80C280B4483F8800105354D4BD3F870319D42C9D3494CD4F80C385A1C49490B44EF2083F88001A8
:4006C000531CC4F80C380A4482F880019BB2A1F87A31B3F5887F0BD00B46D1F86C210132C1F86C2100223C490A7083F8742163E00222394B1A705FE0032B5DD10027354B1F
:40070000C3F80C780225232651E0324A53191C7B691C11440B7B5B0543EA0473A91C11440C7B43EA8433E91C11440C7B43EAC413291D11440C7B04F07F041C43C2F8144C7A
:40074000284B17EA030805D508F1FF3868F0030808F101081F4BD3F8142CDFF88C9049F82820D3F8140CFFF76DFD09EB8808C8F81000013706F10108B1B2200E07F0E6F85D
:4007800006F102091FFA88F1C4F3074007F0DEF806F103081FFA89F1C4F3072007F0D6F81FFA88F10436E0B207F0D0F805350B4BD3F870319D42A8D30023064A9372074A66
:4007C000C2F8703182F87431BDE8F883000020C0000060C01082FF1FDEA2FF1F0893FF1F74A0FF1F03000080C480FF1F10B5194B703A1A7058709970174B1B7813F0FF0F0D
:4008000007D004F05DF820B100221249032003F0D9FF124A138804331380114B1B680B2B10D8581C0B490C780E4AD45402334C781454841C0A4804608978D15401220A4B7D
:400840001A6010BD094A13889BB201339BB2138010BD00BF14A6FF1F18A6FF1F1AA6FF1F1CA6FF1F20A6FF1F30A6FF1F34A6FF1F10B4274B93F89032D3B91DE0CA5C12F0E0
:40088000800F0CD12248D0F87021541CC0F87041C2F30A02C85C1F4C2244107306E0F72A04D100221A4B83F890222EE0013300E00023022BE2DD28E00B78F02B25D1154B3A
:4008C0009B7A13BB4B787E2B04D10122104B83F874211AE0012B01D9032B16D10C4B012283F89022D3F870317BB99A18C3F30A03084803444C781C73541C054BC3F870415F
:40090000C2F30A0283188A781A7310BC704700BF0893FF1F1082FF1F2DE9804885B062B606F066FE0028FBD007F07AF8B34806F0C7FF012003F0CCFFB14806F0DFFF03F0EA
:40094000BFFF08B9FFF72CFC06F09EFF01F0B8FD01F07EF905F0D2FD05F082FD02F028FE02F022FE01F0FCF803F012F802F094FF642001F017FC02F0DFFF00244FE002F0D3
:40098000EDFFA04B1878012101F0D8FE9E4B1878012101F0D3FE02F0F5FF10F0010F06D102F0F0FF10F0100F03D1002302E0012300E00123002BEED0944B1B78DBB2FD2BAC
:4009C00013D1924B5A78D2B2132A0BD90DE0991C8E48455CC2EBC20041008D480144CD54013300E000230D2BF1DD884B1B78DBB2FE2B13D1854B5A78D2B2132A0BD90DE04A
:400A0000991C8248455CC2EBC200410081480144CD54013300E000230D2BF1DD0134272CADDD05F0ABFA002517E006EB85084FEA4804A4B2204606F075FF0746601C80B28E
:400A400006F070FF00EB0720734B43F82800013600E00026032EE8DD0135032DF9DD202006F060FF6D4B1860212006F05BFF6C4B1860222006F056FF6A4B18606A4B186003
:400A80000026232520E06F1CA8B206F04BFF040605F10208B8B206F045FF44EA0044EF1C1FFA88F006F03EFF44EA0024B8B2043506F038FF20435D4C44F82600FFF7C2FB71
:400AC00004EB860420610136032EDCDD584B04241C70584A12785A7002F040FF494B1878012101F02BFE484B1878012101F026FE05F006FA4A4B1A684F4B1A704F4B1C704D
:400B0000012002F01FFD4FF4FA7001F0C5F904F031FD404B45221A7054225A700A2001F041FB06F0EDFB06F0DBFB0028FBD106F0F3FB06F0D5FB0028FBD106F0EDFB06F0E5
:400B4000CFFB0028FBD106F0E7FB06F0C9FB0028FBD106F0E1FB06F0C3FB0028FBD1002305E0374A1A443C2182F894120133072BF7DD0A2001F016FB002002F0E3FC0520D7
:400B800001F08AF905F008FD012002F0DBFC052001F082F905F030FA00220421082005F04FFC06F0B9FB0122264B1A6006F098FB0028FBD10022224B83F89C2211E0224B23
:400BC00033F812301E49881890F89402834294BF00230123934091F89C02034481F89C320132072AEBDD164B93F8743113F0FF0F01D0FFF74BFB002473E200BF00BC0000AD
:400C000005020000C0A5FF1FE8A5FF1FC4A5FF1F90A1FF1F74A0FF1F0881FF1F8CA1FF1F70A0FF1F0481FF1FD8A2FF1FC480FF1FECA5FF1FDDA2FF1FDFA2FF1FDEA2FF1F31
:400C40000893FF1F1CA6FF1F48A6FF1F231DA74A92F89C2242FA03F313F0010F18D0A44B53F824204FF6FF739A4211D10122A14B1A55A14B53F824307E2B0FD89F4A52F86A
:400C80003420002A0ADB01339B4A42F8243005E00023984A1355984A42F82430954B1B5D43B1964B53F83430002B03DB0122944B1A5502E00022924B1A55914B187806F060
:400CC0005DFD8D4B53F82430462B0DD98B4B53F83430002B08DB854B03EB840322460021D3F8A00205F0DCFA854B187806F046FD7F4B53F824204FF6FF739A422CD1814BE5
:400D000053F82420794B03EB8403C3F8B0227C4B1B5DCBB1754901EB4405B5F8C03203F11F0202F01F026001024401EB8202D2F8C822184401EB8001C1F8C822013303F08B
:400D40001F03A5F8C032B3E1684B03EB84034FF40052C3F8C824ABE1694B1B5DCBB1634901EB4405B5F8C03203F11F0202F01F026001024401EB8202D2F8C822184401EBDB
:400D80008001C1F8C822013303F01F03A5F8C0328EE1564A131993F8D80461005318B3F8C0321F3303F01F0303EB441302EB8303D3F8C832014402EB8101C1F8DC3402EBDE
:400DC00084020023C2F8FC340EE0484A03EB440102EB8101D1F8DC1402EB8402D2F8FC542944C2F8FC140133012BEEDD3F4B1A19013000F0010082F8D80403EB8403D3F821
:400E0000FC546D08C3F8FC543F4B1B68002B15DD013B1A46002B00DADA1C92103B490B4003D5013B63F00303013392002F491144D1F8FC141344364A42F823104FF6FF73DC
:400E40009D4207D1294B03EB84034FF07E52C3F80C2585E02E4B03EB04135E68B54220D928460AF0EBFB05462301294AD75830460AF0E4FB064638460AF0E0FB254B0093EE
:400E8000254B324601462846FFF7FCF801464FF07E500AF0DFFC154B03EB8403C3F80C055EE0B5423CD81A4B03EB04139868854236D90AF0C3FB074630460AF0BFFB0646DD
:400EC00028460AF0BBFB154B0093124B3A463146FFF7D8F801464FF07E500AF0BBFC034B03EB8403C3F80C053AE000BF0893FF1F04A6FF1F20A3FF1F10A3FF1FE4A2FF1F83
:400F00000CA3FF1FC480FF1FE0A2FF1F030000800881FF1F85C83F3FC1A1713FEF37183FAD4B03EB04139E68D8680AF087FB074630460AF083FB064628460AF07FFBA74B44
:400F40000093A74B3A463146FFF79CF801464FF07E500AF07FFCA34B03EB8403C3F80C05A04DA300EF18A04A13441969D7F80C050AF0BCFBFFF74EF90646C7F8B00205EB9E
:400F80004401B1F8C032994A52F824E003EB441205EB8202C2F8C8E2013303F01F03A1F8C03205EBC405D5F820B5D5F81C95C5F82095C5F81C05D5F840A5D5F83C85C5F80A
:400FC00040858B490AF092FB03908A4948460AF08DFB014603980AF081FA8146844958460AF084FB014648460AF078FA8146824940460AF07BFB014648460AF06FFA804692
:401000007E4950460AF072FB014640460AF064FAC5F83C05D7F85C55794928460AF05EFA014630460AF01EFD40B9754928460AF053FA014630460AF0F7FCA8B1304609F017
:4010400001F8684B03EB8402C2F86C05C2F85C0503EBC403C3F81C05C3F820050022C3F83C25C3F8402504E05E4B03EB8403C3F86C55644B1B6833B15A4B03EB8403D3F8C2
:401080006C25C3F8B022574D05EB8405564B53F82410D5F8B0020AF01FFA5B490AF026FB4FF08C410AF01AFA0AF0FCFCC5F8C804564B53F83430002B12DB4A4B03EB84027E
:4010C000D2F8C804D3F87C35984209D0002105F005FB444B03EB8402D2F8C824C3F87C250134032C7FF7B2AD3E4A92F880350133DBB282F88035012002F04AFA002840F061
:401100008780D1E0374DD5F88465A0B202F032FA06EBC40605EB8606C6F8880505EB84050022C5F828260EE02E4B02EBC40103EB8101D1F8881503EB8403D3F82806014483
:40114000C3F828160132072AEEDD264A02EB8401D1F82836DB08C1F8283602EB4402B2F83C2602F119018B4202D8193A934204D25B091C4A224482F848361A4B1A1992F809
:4011800048168AB203EB4403B3F850369A4216D0032C06DC0022C1F17F0104F1090005F057FA042C0BD106F0D9FA40B10D4B2344002293F8481604F1090005F049FA094BAA
:4011C0001A1992F8482603EB4403A3F850265201A3F83C2601341CE00881FF1FFE44D73EEF37183F0893FF1FC480FF1F04A6FF1FC6DB7A3FC6DBFABFDBC1FA3F64EB753F13
:401200009A99193F0481FF1F00802A43E4A2FF1F0024042C7FF776AFB24AD2F88435013303F00703C2F8843592F88035DBB2642B3AD992F85A36DBB2032B0CD892F85A06CC
:4012400092F85A36134493F848160022C1F17F01093005F0FDF9A34B93F85A36DBB2042B0ED106F07BFA58B19E4A92F85A0692F85A361344002293F84816093005F0E8F927
:401280009849002381F8803591F85A260132A3F1993383FB0230D317C3EB600303EB8303D31ADBB281F85A3600F03EFC10F0010F06D100F039FC10F0100F03D1002302E090
:4012C000012300E00123002BEED0874B1A684FF6FE739A4203D8844A13680133136000244CE06300814A12F814500133D35C03EB05257C4B03EB8403C3F85C56002D20DDF2
:40130000784B03EB8403D3F86C36D3B9784A42F82430784A1355784B5E78013E774B53F824000AF0BFFB06EB4606B30018446D4B03EB8403C3F8A0022246294604F0B0FFF5
:4013400014E09DB9674B03EB8403D3F86C36002B0CDD644B03EB840322460021D3F8A00204F09EFF0022624B43F824205D4B03EB8403D3F85C26C3F86C260134032CB0DDDA
:4013800002F000FB10F0010F06D102F0FBFA10F0100F03D1002302E0012300E00123002BEED0574B1B7813F0FF0F09D019E05549CA5CD2B25448C2540022CA54013300E003
:4013C00000230F2BF3D9514B1B681BB101224E4B1A7002E000224C4B1A7000224B4B1A60B7E0474B1B78DBB2012B3DD13D4B93F87C369BB1444AFD231370454B93F8113813
:401400005370444A136004F0EBFD364A002382F87C363B490B70A2F87E369AE03A4A022313703B4991F8111851701AE02D49B1F87E26B1F87A118A420BD2501C2949A1F842
:401440007E0633490A4492F81428D2B22E49CA5406E0EE212C4AD1540121224A82F87C1601330F2BE2D974E0254B1B78DBB2022B52D11C4B93F87C3673B1234AFD231370E0
:40148000184B93F87C115170002283F87C261C490A70A3F87E265CE01B4B03221A70114A92F87C215A70022318E00E49B1F87E26B1F87A118A4209D20A49501CA1F87E067E
:4014C0000A4492F88011104AD15406E0EE210E4AD1540121034A82F87C1601330F2BE4D937E000BF0893FF1F08A3FF1FB0A5FF1F10A3FF1F0CA3FF1FA8A5FF1FC480FF1FB6
:40150000DEA2FF1F20A6FF1FECA5FF1F30A6FF1F1082FF1F8CA1FF1F6E4B1B78DBB2032B09D16D4B04221A706C4A12785A700022684B1A700DE0674B1B78DBB2042B08D112
:40154000654B05221A70664A12785A700022614B1A700122634B1A60634B1B78DBB2FD2B21D1614B5B78DBB2604A927A012A1AD0584A127812F0FF0F15D118465C4A126804
:40158000934210D0132B0BD90DE09A1C56498C5CC0EBC0014A0057490A44D454013300E000230D2BF1DD504B1B78DBB2FE2B21D14D4B5B78DBB24D4A927A012A1AD0454A0C
:4015C000127812F0FF0F15D118464B4A1268934210D0132B0BD90DE09A1C43498C5CC0EBC0014A0045490A44D454013300E000230D2BF1DD384B1B7813F0FF0F0BD002F025
:40160000ADF93F4B1878012101F098F83D4B1878012101F093F8354B1B7813F0FF0F01D0FEF79AFD384B1B7813F0FF0F11D003F047F970B1354B1B88402B05D9344AB2F820
:4016400080360133A2F880360022304B1A80FEF73BFD2F4B93F89C222E4B1A7200230CE059002D4A52F82320C2F30724294800F813400131D2B242540133032BF0DD244914
:4016800091F8823603F00F00224AD073013381F88236137A13F0010F03D0012006F06EF802E0002006F06AF800F030FA1B4B1878012101F043F81A4B1878012101F03EF8ED
:4016C0001849D1E90023013243F10003C1E90023FFF752BADEA2FF1FECA5FF1FDDA2FF1FDFA2FF1F1CA6FF1FC4A5FF1F1082FF1F8CA1FF1F90A1FF1F70A0FF1F74A0FF1FD9
:40170000C0A5FF1FE8A5FF1F18A6FF1F1AA6FF1F0893FF1FD8A5FF1F04A6FF1FACA5FF1FD4A5FF1F9099FF1F014B1878704700BF64650040024B187800F00700704700BFB3
:4017400002410040034B1A7800F0F80010431870704700BF02410040014B188880B270470041004070B505460E46FFF7E3FF0446FFF7F2FFA84256D02B4B1B7803F0010218
:4017800094B900B185B938B9284B1D80284A137803F0BF03137070BD254A137843F040031370224B1D8070BD22B3002321490B70012413310C7004390B7008390B7803F02F
:4017C0007F030B701A4B1B7813F0080F00D08DB9194B18800721013B1970164B1B7813F0010FFAD110490B7803F0FE030B700021104B19700C4B1B7813F0010F0DD00E4B86
:401800001D800EB1032200E001220A4B1A70094B1B7813F0010FFAD170BD044B1D8002490B7813430B7070BDA143004000410040024100400140004002400040024B187893
:4018400000F00700704700BF82400040034B1A7800F0F80010431870704700BF82400040014B188880B270478040004070B505460E46FFF7E3FF0446FFF7F2FFA84256D02C
:401880002B4B1B7803F0010294B900B185B938B9284B1D80284A137803F0BF03137070BD254A137843F040031370224B1D8070BD22B3002321490B7001240F310C7004316D
:4018C0000B700C390B7803F07F030B701A4B1B7813F0080F00D08DB9194B18800721013B1970164B1B7813F0010FFAD110490B7803F0FE030B700021104B19700C4B1B7898
:4019000013F0010F0DD00E4B1D800EB1032200E001220A4B1A70094B1B7813F0010FFAD170BD044B1D8002490B7813430B7070BDA2430040804000408240004001400040A9
:4019400002400040704700BF074B1B7813F0020F08D0064BB6221A70E0221A700D221A70072070470420704722470040204700400C4B1B7813F0020F0FD00B4BB6221A7008
:40198000E1221A700E221A7002331B7813F0020F05D1054B187007207047042070470920704700BF224700402047004070B41D4C247814F0020F2CD01B4CB6252570D525A3
:4019C0002570022525700234247814F0020F22D1154C2070002404E0165D134D2E700134A4B29C42F8D3B3F5807F16D13F2816D800F5103001EB00214801002305E01A5C32
:401A0000D2B209490A7001339BB21F2BF7D9072006E0042004E0092002E0072000E0072070BC7047224700402047004008B501E00A4B1B780A4B1B7813F0200FF8D106F0DB
:401A400053F9084B1A7842F001021A701A7802F0FE021A7006F04CF908BD00BF57650040646500409765004008B506F03DF90A4A137843F020031370A2F58072137843F080
:401A800010031370FD32137843F01003137006F02FF901F025FF08BD9765004010B5044603F0B8FD204603F073FD10BD08B506F01BF90A4A137843F020031370033A137845
:401AC00043F0100313700732137843F01003137006F00EF901F0F6FE08BD00BF9864004008B50F22074B1A7001F008FF01F04AFF01F042FF0222044B1A70202207331A70BD
:401B000008BD00BF886400408564004001E0044B1B78044B1B7813F0200FF8D1704700BF5765004064650040014B1878704700BF6764004008B50F22074B1A70FFF776FF1F
:401B4000FFF7F2FFFFF7F0FD0222044B1A702022FD331A7008BD00BF876500408764004008B5054B1B7823B9FFF7E4FF0122024B1A70FFF779FF08BDD499FF1F154B1B78C7
:401B800003F00303012B07D8134B1888023B1B889BB243EA004013E0022B0AD10E4B1888023B1B7843EA00430C4A107843EA002006E00B4B188883B2074A108843EA0040C3
:401BC000084B5B7813F0FF0F02D00022054B9A70704700BF144E0040124E0040114E0040104E0040D499FF1F094B5B7813F0FF0F03D0074B9B78DBB203E0064B1B7803F029
:401C00000103012B01D00028EED01846704700BFD499FF1F014E0040024A137843F0010313707047004E004010B50446074B1878FF2801D0FFF732FF204603F01BFD204612
:401C400003F0C8FC014B1C7010BD00BFEC80FF1F10B5002407E0204603F0DCFC204603F097FC0134E4B2012CF5D9FF22014B1A7010BD00BFEC80FF1F08B506F035F80A4BCA
:401C80000022DA705B68012B0AD1084A136843F00103136000BF00BF00BF0022024B5A6006F026F808BD00BFD499FF1F0400084010B506F019F80F4BDB78A3B901220D4B52
:401CC000DA700D4B1B6813F0010F0ED00A4A136823F00103136000BF00BF00BF0122054B5A60002402E0042400E0002406F000F8204610BDD499FF1F0400084030B4104CA1
:401D0000247814F0020F15D00E4CB6252570D8252570052525700234247814F0020F0BD1084C2070080A2070C9B2217022702370072002E0042000E0092030BC704700BFE0
:401D4000224700402047004030B43E2801D81F2B03D93F2827D90F2B27D8174C247814F0020F24D0154CB6252570D4252570012525700234247814F0020F1AD10F4C20704B
:401D8000C1F300202070C9B22170591EC9B22170002104E0545C094804700131C9B29942F8D3072006E0012004E0012002E0042000E0092030BC704722470040204700402E
:401DC00008B505F091FF064A137843F0080313701032137843F00803137005F089FF08BDA0430040134B1B78DBB20360124A127843EA02230360114A127843EA02430360DC
:401E00000F4A127843EA026303600E4B1B78DBB243600D4A127843EA022343600B4A127843EA024343600A4A127843EA02634360704700BF0301004904010049EC4600404E
:401E4000020100490101004900010049050100490601004908B505F047FF00BF00BF00BF00BF00BF00BF00BF00BF00BF00BF00BF00BF00BF00BF00BF00BF064A13889BB2C2
:401E800043F0040313801388BFF36F8F05F030FF08BD00BF0048004008B500EB8003C0EB031005F019FF08BDF8B5074605F01CFF06460D4D2B7843F003032B700B4C237806
:401EC00043F0030323700A4B1F700320FFF7E4FF2B7803F0FC032B70237803F0FC032370304605F005FFF8BDF8460040F94600409258004070B505F0F7FE06462A4B5B78F8
:401F00002A4B1A7842F001021A701A7842F010021A7010331A7842F001021A701A7842F010021A70224D2B7843F002032B70214C237843F0020323701F4A137843F00303A2
:401F400013700320FFF7A8FF2B7803F0FD032B70237803F0FD032370184A137843F0060313707A22164B1A70164A137843F0010313701032137843F0010313700F3A137899
:401F800043F0010313701032137843F0010313704FF000530C4A1360A2F5C0721360304605F0A6FE70BD00BFEC80FF1FAA430040F8460040F9460040915800407758004062
:401FC00082580040A143004080E200E070B506460D4600240CE00120FFF75EFF064B1B7813F0010FF7D0054B1B7833550134E4B2AC42F3D3204670BD22470040204700408E
:402000002DE9F041441FE4B23A2C01D9002500E0012510F0800F00D00125412800D901253F2803D8B1F5807F06D808E0802900D90125102B02D102E0012500E0012502B9DC
:402040000125002D50D1984616460F460446FFF72FFE002847D14346324639462046FFF7A5FC064607283AD102E00120FFF714FF1F4B1B7813F0020FF7D01D4B1B7813F0CB
:40208000020F06D01A4B1B789B0805D04FF0FF3603E04FF0FF3600E02E4606BB154A5378127839462046FFF729FE072804D0064615E00120FFF7F0FE0D4B1B7813F0020FEB
:4020C000F7D00B4B1B7813F0020F06D0084B1B789B0804D04FF0FF3601E04FF0FF36FFF7CBFD354600E004252846BDE8F08100BF22470040ECA6FF1F10B5FFF761FEFFF732
:40210000D7FDD0B9FFF720FC0446072812D102E00120FFF7C1FE0A4B1B7813F0020FF7D0074B1B7813F0020F04D0054B1B789B0800D10024FFF7A0FD00E00424204610BD43
:402140002247004010B5FFF73BFEFFF7B1FD10BB0120FFF70DFC072818D102210F48FFF735FF02280AD102E00120FFF795FE0C4B1B7813F0020FF7D0002409E0084B1B782E
:4021800013F0020FE9D04FF0FF3401E04FF0FF34FFF772FD00E00424204610BDECA6FF1F2247004010B5044604E0074805F094FDA4F50044B4F5004FF7D8044800FB04F0ED
:4021C00005F08AFD10BD00BF0000059A0A340100024A137843F0010313707047F646004001BE704710B59DF80840012C52D1013809282ED8DFE800F0052D2D052D2D0F19C0
:402200002D230F2B03D92548007840B222E02448007840B21EE00F2B03D92248007840B218E02148007840B214E00F2B03D91F48007840B20EE01E48007840B20AE00F2B19
:4022400003D91C48007840B204E01B48007840B200E0002001EB401101FB02F1C90B8AB20D2B0BD8C3F10E0289B211418AB2611E124800EB810101338B7205E0631E0F49EA
:4022800001EB83030F219972013C0C4B03EB8404228110BD0020FFF7A3FF10BD180100491C010049190100491D0100491A0100491E0100491B0100491F010049D499FF1FBB
:4022C00038B504460D46072902D90020FFF788FF1F2C02D90020FFF783FF04F01F0000F1604000F564406D01EDB2057038BD00BF70B504460E46074B1D681F2802D900209F
:40230000FFF76EFF04F01F04103455F8240045F8246070BD08ED00E0F8B500222F4B5A7001285AD130222E4B1A70062702331F7009232C4A13700024013214700132147047
:402340001F210132117002321470013214700132147001250A321570142102F527621170102601321670013213701F4B1C70222304321370242101321170042101321170BB
:40238000022102321170013213702822174B1A70EB2201331A704420FFF786FDC022144B1A70032201331A7005331D7001331D7001331C700A2201331A704FF47A62074B62
:4023C000DA6029463846FFF751FA29463046FFF7C9F908491D20FFF78BFFF8BDD499FF1F004E0040034E004087580040905800409458004045190000F0B583B0294E012723
:402400007770294D0024AC701020FFF71FFA1020FFF798F906211D20FFF752FF0422234B1A7001331C7007331C70214A137843F0180313701F4B1C7003F2F5231C70013330
:402440001C700A22A3F209331A7001331C7002331C70122205331A70132201331A7004331C701422A3F68C231A7000970C234FF4004248F65C710720FFF7B4FE7378013BC8
:4024800005EB83039A7A0C4B1A707378013B05EB83052A89094B1A807078FFF73DFF03B0F0BD00BFEC80FF1FD499FF1F96580040075B0040935800400E4E00400C4E0040F2
:4024C00008B5084B1B7C4BB9064B5B7C13F0FF0F01D1FFF791FF0122024B1A74FFF70AFD08BD00BFD499FF1F024A137803F0FE031370704702470040054A137843F00103F7
:402500001370034B1B7813F0020FFAD0704700BF0247004008B505F0E7FB0F4A137843F0080313701032137843F008031370C8220A4B1A700A4A137843F0100313701032E0
:40254000137843F010031370064B1B7813F0200FFAD005F0CDFB08BDA043004001470040AC4300400047004008B53F2801D9102301E04FF48073FFF743FD08BD08B5FFF74E
:40258000BBFD034610B9FFF7DDFD0346184608BD10F0800F08D1C00000F1804000F5F0408180C280002070470120704710F0800F0CD111F4704F0BD1C00000F1804000F5B3
:4025C000F04001808270C37000207047012070470120704710F0800F12D110B5044605F083FBE30003F1804303F5F043054A917819709470D3780133D37005F079FB10BDE8
:40260000704700BFEC80FF1F10B505F06DFB0A4BDB78182B0BD9084A9478013BD370E30003F1804303F5F0431B78937000E0FF2405F05EFB204610BDEC80FF1F17281BD831
:4026400010B4C00000F1804404F5EC44D201D2B201F07F01114321709DF804201201D2B203F00F03134363709DF8083003F00F03A3700020E07001E00120704710BC70473C
:40268000172805D8034B03EB0010417200207047012070471070004041F6FF73994201D14FF4005141F6FF739A4201D14FF40052172808D8C00000F1804000F5EC40818008
:4026C000C280002070470120704700BF17280BD80001064A835C03F0F103490001F00E011943815400207047012070471070004017280CD80001074BC1180A7942F00402FE
:402700000A71C25C42F00102C254002070470120704700BF1070004017280BD80001064BC25C02F0FE02C254C25C02F0DF02C254002070470120704710700040172815D84B
:4027400031B103010A495A5C42F020025A5405E0030107495A5C02F0DF025A540001044A835C43F0010383540020704701207047107000404001C0B2014B1870704700BF50
:4027800000E400E0014B1B681864704708ED00E0024A137843F001031370704708590040704700BFF8B50646082801D9012400E0044625460E4B1B5DFF2B09D00D4B185DC1
:4027C000FFF7AAFF0A4F385DFFF704FFFF233B55094B585DFF2804D0FFF7FCFEFF22064B5A550134E4B2082C01D8092EE1D0F8BD0C9BFF1F189BFF1FE899FF1F70B52D4C44
:40280000607AFFF775FFA07AFFF772FF2A4B1B78FF2B03D1FFF7F8FE274B1870264C2078062302460A21FFF7C1FE224E06F10C05ADB22A4645F6A2312078FFF7A9FE217869
:40284000707AFFF71DFF6378FF2B02D1FFF7DCFE6070194E7078072302460A21FFF7A6FE144C04F1180292B229467078FFF790FE7178A07AFFF704FF0121607AFFF75EFF85
:402880000121A07AFFF75AFF05F02EFA0B4A137843F02003137005F02BFA094B1A7842F001021A701A7842F002021A700122054B1A6070BDE899FF1FF080FF1F9B64004020
:4028C0007164004080E200E008B505F00DFA064A137843F0040313701032137843F00403137005F005FA08BDA543004010B50C46284B18700023284A1370284A1370284A34
:402900001370284A1370284A1370284A1370284A1370284B4FF400021A604FF080721A604FF400121A6010221A6020221A600321214A11704FF480021A6050221F4B1A7077
:402940001F4804F071FE04F0B9FE04F059FE14B1012C06D00BE01B4A137803F0FE0313700AE0184A137843F00103137004E0154A137803F0FE0313700322134B1A708022F8
:40298000203B1A70012005F0A7F904220F4B1A7010BD00BF5C9AFF1F799AFF1FA69AFF1F5D9AFF1F669AFF1F789AFF1F679AFF1F7D9AFF1F00E100E09E6000409C60004051
:4029C0003547000009600040286000401260004010B50222124B1A7081220E3B1A70082202331A70052211331A70002401331C704FF400420B4B1A6006210F20FFF760FC33
:402A000009490F20FFF774FC084B102283F8222083F8234083F8244083F8254010BD00BFD649004080E100E08D2D0000E899FF1FF8B505F059F90546454A137843F00103BB
:402A400013701032137843F0010313700127414B1F700226943B1E7002F5E2521B32137803F07F0313700020FFF716FA3A4C237803F0F9032370394A137803F0DF0313705A
:402A800023783B4323703846FFF706FA2820FFF703FA334B1A7802F07F021A701A7802F0BF021A702378334323703046FFF7F4F9237843F00403237000232A4A137001322D
:402AC000137006E0FF222849CA542849CA5401339BB2082BF6D9284605F00AF903211720FFF7EEFB22491720FFF702FC03211820FFF7E6FB1F491820FFF7FAFB032115205E
:402B0000FFF7DEFB1C491520FFF7F2FB03210420FFF7D6FB19490420FFF7EAFB03210520FFF7CEFB16490520FFF7E2FB00211620FFF7C6FB13491620FFF7DAFB03210C20BF
:402B4000FFF7BEFB10490C20FFF7D2FBF8BD00BFA54300409D6000409443004012600040F8510040846000400C9BFF1FE899FF1FBD470000C1450000053E0000B94900005C
:402B800071490000794600007146000010B505F0ABF80446184A137843F0020313701032137843F00203137002F5AA521032137843F0030313701822104B1A70013B1A78A5
:402BC00042F040021A701A7802F0FC021A70C822053B1A700222A3F59753123B1A70084A137843F0080313700A20FFF755F9204605F07EF810BD00BFAB4300400E5900405C
:402C00002F5B0040F0B583B016461F460B4C0625A5700023019300932B460A4601462846FFF70CFD3A463146A078FFF735FD0421A078FFF74BFDA07803B0F0BDF080FF1F23
:402C4000F0B583B016461F460B4C0725E5700023019300932B460A4601462846FFF7EEFC3A463146E078FFF717FD0421E078FFF72DFDE07803B0F0BDF080FF1F10B541F60B
:402C8000FF734FF4804201210220FFF7D9FF084C607241F6FF731A4601210A20FFF7B2FFA0720448FFF76EFD0020FFF763FD10BDE899FF1FA127000008B50A280FD00C28FE
:402CC00002D0082806D102E04FF4805209E04FF4807206E00020FFF783FA002201E04FF4806209490020C88442F2107303FB02F303F27263054A82FB03E21A44DB17C3EB64
:402D0000E2238B62888508BDE899FF1FEF09E09E10B504460A280DD00C2802D0082804D101E0C22207E0422205E00020FFF758FAC22200E08222034B1A702046FFF7BCFFDD
:402D400010BD00BF0A59004008B5064A137843F0060313700C20FFF7DBFF0022024BDA8508BD00BF09590040E899FF1F08B5064B93F830302BB9FFF7E7FF0122024B83F89A
:402D80003020FFF703FF08BDE899FF1F38B5B74B1C78B74B93F8223013F0400F00F05A81E4B214F0010F00F03A81B14B93F82230453B052B00F23081DFE813F006008D000A
:402DC0002E012E010600F50004F0DF0504F00A04082C48D1A64B93F82230DBB2452B39D1A34B93F8313013F0FF0F10D0A04B5A6B1278D2B29F490A7004219C4A11700122E4
:402E000083F82520462283F822202C4607E1984B93F8383013F0020F0FD0954B93F8232042F00A0283F82320602283F822204FF40042914B1A602C46F1E0904A137843F0EB
:402E40001003137010228E4B1A700422023B1A702C46E4E00022854B1A704A22844B83F822202C46DBE00A2C30D1814B93F8232042F0A00283F8232093F8383013F0020FF9
:402E800017D07B4B93F8223013F0080F01D0092200E00A22764B93F823100A4383F82320602283F822204FF40042734B1A602C46B5E0724A137843F0100313701022704BDC
:402EC0001A700422023B1A702C46A8E00020FFF787F92C46A3E014F0020F3CD1644B93F82520D2B293F83130DBB29A4212D2604A92F82530DBB2516BCB5CDBB25D490B70D1
:402F000004215A4B197092F825300133DBB282F8253084E0564B93F8383013F0020F0ED0534B93F8232042F00A0283F82320602283F822204FF400424F4B1A606FE04F4ABD
:402F4000137843F01003137010224D4B1A700422023B1A7063E0464B93F8383013F0020F0ED0434B93F8232042F09A0283F82320602283F822204FF400423F4B1A604EE025
:402F80003E4A137843F01003137010223C4B1A700422023B1A70364A92F8233043F0900382F823303BE0324B93F82420D2B2D86B30490978C9B2815493F824200132D2B217
:402FC00083F8242093F82420D2B293F84030DBB29A4203D21022254B1A7020E0244B93F8383013F0020F0ED0214B93F8232042F0090283F82320602283F822204FF400420D
:403000001D4B1A600BE01D4A137843F0100313700022164B1A7002E00020FFF7E1F814F0200F21D0124B93F8223013F0080F01D0012200E002220E4B93F823100A4383F8DB
:4030400023200E490A7802F0EF020A70102283F8222038BD064B93F8223013F0100F03D11022034B83F8222038BD00BFD7490040E899FF1FD849004080E100E0D6490040DE
:40308000D9490040F1B91F490B5CDB0003F1804303F5F0431C4A32F8102092B2203A92B21A800B5CDB0003F1804303F5F043174A02EB8002526C203292B29A800122144B58
:4030C0001A5415E00F4A135CDB0003F1804303F5F04302211980135CDB0003F1804303F5F0430A4A02EB8002526C1E3292B29A80084B1A5C084B03EB0213024A125C5A722C
:40310000704700BF0C9BFF1FAC9AFF1FE899FF1FC09AFF1F189BFF1F1070004010B5044600EB40039800164B1844037913F0800F03D00A0C4FF4804302E00B0C4FF48042BB
:40314000012C02D0022C07D00CE00121202004F079FA0C4B185505E00121202004F090FA084B1855631EDBB2072B07D8FFF74CFA054B1855FFF748FA044B185510BD00BFB5
:403180005CA6FF1F189BFF1F0C9BFF1FE899FF1F431EDBB2072B00F2AA802DE9F04715460E46044600EB40029300514A1344DB7843EA15234F49020188188B54EBB2437064
:4031C0004D4B1B5DFF2B03D131462046FFF7A6FF002E43D0494F385DFFF79EFA484B23F81450DFF8348108EB84035E64DFF80891112318F804202946202D28BF202119F8A6
:403200000400FFF7D3F94FEA041A0AF108023D4D2A4492B2B1B219F80400FFF7B9F918F80400394B1B5D02460121FFF7BFF90AEB050292B2354989B218F80400FFF7A8F944
:40324000385DFFF755FA19F80410385DFFF718FA0121385DFFF772FABDE8F08704EB44029300234A134400225A70002D33D0244B23F81450264B1A55204E305DFFF74CFAD0
:403280001D4FDFF89480112318F804202946202D28BF2021385DFFF789F908EB840822010832184D2A4492B2B8F84410385DFFF76FF9305DFFF71CFA395D305DFFF7E0F9E9
:4032C0000121305DFFF73AFA24012B5D43F001032B55BDE8F08704EB44029300044A13445A79D2B224010B4B1A55BDE8F08770475CA6FF1FFC5F00400C9BFF1F189BFF1FA3
:40330000AC9AFF1F7060004000C00000F480FF1FC09AFF1FFE5F0040E899FF1F431EDBB2072B0BD8064B00011A18185C00F00F00537843EA0020023880B270470020704707
:40334000FC5F004000EB40008300024A13445878704700BF5CA6FF1F064B1B7813F0FF0F05D0044B1878C0B200221A7070470020704700BFA69AFF1F014B1878704700BF37
:403380005D9AFF1F08B50920FFF70CFA04F0ACFC214A137803F07F0313700A32137803F0FB031370A2F5E3520D3A137803F0FE0313701032137803F0FE031370174B1A7804
:4033C00042F080021A701A7842F040021A7004F08FFC134B4FF400021A604FF080721A604FF400121A6010221A6020221A6004F05FFA4FF480520B4B1A6000230A4A137055
:403400000A4A13700A4A13700A4A13700A4A13700A4A82F8683008BD08600040F851004080E100E080E200E0A69AFF1F5D9AFF1F669AFF1F789AFF1F679AFF1FE899FF1FD2
:4034400000230A4A13700A4A13700A4A13700A4A13700A4A13700A4A13700A4A13700322094B1A708022203B1A707047799AFF1FA69AFF1F5D9AFF1F669AFF1F789AFF1F15
:40348000679AFF1F7D9AFF1F2860004038B504460D46074B93F868302BB9FFF7C9FA0122034B83F8682029462046FFF71FFA38BDE899FF1FF0B583B016461F460B4C032550
:4034C00065710023019300930A4601462846FFF7B5F83A4631466079FFF7DEF829466079FFF7F4F8607903B0F0BD00BFF080FF1FF0B583B016461F460B4C0225A571002368
:40350000019300930A4601462846FFF797F83A463146A079FFF7C0F80321A079FFF7D6F8A07903B0F0BD00BFF080FF1F044A137803F0FD03400000F00200184310707047C5
:40354000F0510040044A137803F0DF03400100F02000184310707047F0510040044A137803F0FE0300F0010018431070704700BFF0510040C0F10400044A02EB4000B0F94F
:403580001830908D181A00B2704700BFE899FF1F044B1B7803F0FF020BB90028F8D01046704700BF6364004008B5FFF7F1F808BD08B5074BDB6E23B9FFF760FB0122044BF8
:4035C000DA66FFF7D3FBFFF719F9024B1B7808BDE899FF1F63640040024B1878C0F38000704700BFF1510040024B1878C0F3C000704700BFF1510040024B1878C0F3400054
:40360000704700BF315100404FF40043054A1360054A92F82300002182F82310034A1360704700BF80E100E0E899FF1F00E100E04FF40042084B1A60084B93F82300C0B2A4
:4036400093F8223013F0400F01D040F004004FF40042034B1A60704780E100E0E899FF1F00E100E070B400294ED00D46284991F82210C9B2102906D12649097811F0080FF4
:4036800014D1002415E0224991F82210C9B260290ED14FF4004420490C601D4C94F8231001F0F70184F82310002402E0012400E0022454BB1649492681F82260002681F83F
:4036C000246081F84020CD6381F8383091F8232002F0FE0281F823204200D2B242F001020E490A7013F0010F06D01222094B1A700422023B1A7002E00122064B1A704FF40B
:403700000042074B1A6000E00224204670BC7047E899FF1FD949004080E200E0D849004000E100E070B400294CD00D46274991F82210C9B2102906D12549097811F0080F4E
:4037400014D1002415E0214991F82210C9B260290ED14FF400441F490C601C4C94F8231001F0F70184F82310002402E0012400E0022444BB1549452681F82260002681F896
:40378000256081F831204D6381F8383091F8232002F0FD0281F823204200D2B20E490A7013F0010F06D01222094B1A700422023B1A7002E00122064B1A704FF40042074B7A
:4037C0001A6000E00224204670BC7047E899FF1FD949004080E200E0D849004000E100E02DE9F8434FF40049224BC3F80090DFF8A48098F80030204CE372204F3B782373D2
:403800001F4E3378637330783B7843EA002001301C4D2B7803F0FE032B7080B204F05CFA04F062FA184A137803F0FB0313701032137803F0FB03137004F05AFA2B7843F09A
:4038400002032B70E37A88F80030E37A88F80030237B3B70637B33702B7803F0EF032B700A4BC3F800901022094B83F82220BDE8F88300BF80E100E0F080FF1FDB490040AC
:40388000DC490040D6490040A543004080E200E0E899FF1FCA49004008B5084B93F870302BB9FFF795F80122044B83F87020FFF70BF84FF40042024B1A6008BDE899FF1F20
:4038C00000E100E0054A137843F0040313701032137843F004031370704700BFA2430040054A137843F0020313701032137843F002031370704700BFA243004008B501E0F5
:403900000A4B1B780A4B1B7813F0200FF8D104F0EBF9084B1A7842F001021A701A7802F0FE021A7004F0E4F908BD00BF5B6500406C6400409B65004008B504F0D5F9064BBD
:403940001A7842F001021A701A7802F0FE021A7004F0CEF908BD00BF9B65004001E0044B1B78044B1B7813F0200FF8D1704700BF5B6500406C640040014B1878704700BFF1
:403980006C640040014B1878704700BF6564004008B5064B93F871302BB9FEF7A1F80122024B83F87120FEF781F808BDE899FF1F044B1B7813F0800F01D0024B5B7800201D
:4039C000704700BF00600040014B1B78014870475C9AFF1F0CC00000054B1B7828B9C3001033044A1344586870470020704700BF5C9AFF1F0CC0000010B50E4B1C79E4B24D
:403A00000D4B58780138C0B2FFF7E6FF43681B799C4201D9022C0AD8074B1C442379DBB22372044B9B78DBB22371012010BD002010BD00BF006000405C9AFF1F08B5084B80
:403A400058780138C0B2FFF7C7FF30B142681279023200EBC203586808BD002008BD00BF5C9AFF1FF8B5474B5B7813F0FF0F00F08780444D68780138C0B2FFF7ADFF047A82
:403A8000C268A87AC0B2002378E01178884272D13C4901440979C9B25578A9426BD1957805F07F05D67806F00306DFF8DCE0690029448F000EEB07014FF0000C81F803C029
:403AC00092F802C081F804C092F803C00EF807C097880F8192F9021000290DDA012E01D1072700E00D276E002E44B100264E31444F7101264E700CE0012E01D1052700E06C
:403B000009276E002E44B1001F4E31444F7100264E7029011D4E012777541D4F7E5C06F0FE067E54691E4900C9B21A4E3170317841F0010131701749097811F0100FFAD008
:403B400092F90210002908DA134F3E78013D0121A94026EA0101397008E00F4F3978013D012606FA05F52943C9B23970094D297801F0FE01297008320133DBB2A34284D3E4
:403B8000F8BD00BF5C9AFF1F5CA6FF1FFE5F004070600040146000408F60004070B4002401232EE026491A018D180C268E541D226A7003EB43018A0022490A44527912F0B5
:403BC000FF0F17D003EB43018A001E490A44127912F0800F03D018011B4A16540FE01801194A082111545A1E0121914041EA0402D4B204E01901154A0A44802191700133EC
:403C0000DBB2082BCED95522114B1A70202230331A70002201331A7003222F3B1A7001331C700D331A7842F080021A701A7802F07F021A70FF22923B1A7070BC704700BF1F
:403C4000706000405CA6FF1FFE5F0040FC5F00408C6000402DE9F041002310E0664D5900CA189600AC190022AA55A270E2702281A272627034462C4462710133DBB2082B4E
:403C8000ECD940B90AE05D4A1A440021117111720133DBB200E00023012BF4D9574B5B7813F0FF0F00F0A580544B58780138C0B2FFF792FE4368DB7913F0400F05D04F4A7A
:403CC000D37A43F00103D37204E04C4AD37A03F0FE03D372057A012471E0C16800236AE08A7802F07F02944262D1264604EB4407BA00414F3A44128992B28F88BA4207D2B9
:403D000004EB440E4FEA8E02DFF8ECE0724417810A783A4F3A441279D2B24F78BA4247D191F802E0344F730033449A00BB1883F804E0CB78BB54CB7803F0030391F9022037
:403D4000002A1ADA012B02D14FF0070801E04FF00D08DFF8A4E0720002EB060C4FEA8C07774487F8058001267E708A79B24224D1022B22D1214B1C731FE0012B02D14FF0F3
:403D8000050801E04FF00908DFF86CE0720002EB060C4FEA8C07774487F8058000267E708A79012A09D1022B07D1144B5C7304E008310133DBB2AB4292D30134E4B2082C28
:403DC0008BD9C06800220CE0837803F07F0310F8084B03EB43039900074B19448C720132D2B2AA42F0D3FFF729FE054B1860FFF7D5FEBDE8F08100BF5CA6FF1F5C9AFF1FC7
:403E0000C8A6FF1F704700BF054B0022DA819B692BB1034A916900230B709269538070475C9AFF1F054B9B693BB1044B9A6910709A69D989518000229A6170475C9AFF1F25
:403E400010B50B4B1B7F13F0FF0F07D0084A137F43F0800307490B7000231377044C002363770120FFF7DEFF0323A37710BD00BF5C9AFF1F08600040054B06225A779A7770
:403E80008022DA77002283F820200120704700BF5C9AFF1F274B1B7903F07F035A1ED2B2072A44D810B5590019448A0022490A44917801F0FE0191700021D1701F4C180125
:403EC000215C01F07F012154517801F0FD015170127912F0800F13D003EB43018A0016490A445278D2B2012A04D1224602440C23937019E01B01114A1A440D23937013E05C
:403F000003EB43018A000C490A445278D2B2012A05D11B01094A1A440823937004E01B01064A1A4409239370FFF7A6FF10BD0020704700BF006000405CA6FF1FFC5F0040A2
:403F400008B5154B1B7903F07F035A1ED2B2072A20D8590019448A0010490A44917841F0010191700021D170517841F002015170127912F0800F05D01B01094A1A448D2344
:403F8000937004E01B01064A1A4489239370FFF773FF08BD002008BD006000405CA6FF1FFC5F004010B5044C002363770120FFF739FF0323A37710BD5C9AFF1F10B4184B8B
:403FC000197801F00F010239C9B2164AD3899BB20B449BB2D381002011E0124A5469124B1B5CDBB223705369013353610130C0B20139C9B2138A9BB2013B9BB21382094B0A
:404000001B8A9BB20BB10029E7D1064B83F82010DA7F82F08002DA770B229A7710BC7047296000405C9AFF1F0060004010B5084C94F82120E3899BB213449BB2E38100234F
:4040400063770120FFF7EEFE0323A37710BD00BF5C9AFF1F064B02225A778022DA770F229A77002283F8212083F82020012070475C9AFF1F1D4A92F82110D3899BB20B4469
:404080009BB2D38100220FE018494B691B78DBB2174883544B6901334B610132D2B20B8A9BB2013B9BB20B82104B1B8A9BB20BB1072AE9D90D4B93F82130DBB2082B00D0E0
:4040C0004AB10A4BD97F81F08001D9770F2199770221597703E0054B022199775977034B83F8202083F82120704700BF5C9AFF1F0060004008B5FFF7BDFF08BD10B50E4B2C
:404100001B8A9BB213B9FFF7A5FF12E00A4C022363770023E377FFF777FE084AD179937943EA0123228A92B2934200D22382FFF7A1FF012010BD00BF5C9AFF1F00600040CC
:4041400008B50B4B5B7FDBB2042B06D0062B07D0022B0BD1FFF76AFF08BDFFF72FFF08BD0320FFF75FFE0322014B9A7708BD00BF5C9AFF1F08B5094B5B7FDBB2042B06D095
:40418000062B07D0022B07D1FFF7B4FF08BDFFF709FF08BDFFF754FE08BD00BF5C9AFF1F08B5094B1B7813F0FF0F0CD0074B187BFFF7C8F8012806D1044B187B024B1A78F4
:4041C0000021FEF7E5FF08BDEEA6FF1F5C9AFF1F70B588B0054603AC174E0FCE0FC43368237035B322232B7003236B7001A8FDF7F9FD002402231AE008AA224412F81C2C97
:4042000008A901EB121111F8141CE954581C00212954981C02F00F0208AE324412F8142C2A54DA1CA9540134E4B20433DBB2212BE2D908B070BD00BFA0C1000010B59B4B52
:404240001B78DBB200219A4A118213F0800F00F0B080964A5278D2B20A2A00F26081DFE812F067005E015E015E015E015E010B005E0195005E019D008C4BDB78DBB2012BB6
:4042800009D1FFF7A1FB4268894B5A6112221A82FFF734FF10BD854BDB78DBB2022B13D1824B9878FFF798FB002800F03A8142687F4B5A615A69D1785A69927842EA012242
:4042C0001A82FFF71BFF10BD784BDB78DBB2032B05D02AE00A7811440133DBB201E000237449724A9278D2B2934203D20A7812F0FF0FEFD16D4B9B7813F0FF0F09D06B4B8B
:404300009B78DBB2802B04D16B4C2046FFF760FF21460B7813F0FF0F00F005810B78644A13825161FFF7EAFE10BD03F01FF910BD13F003031AD0022B40F0F7805C4A13827D
:404340005A4B1B7903F07F0303EB430399005B4B19448B78DBB282F84830002382F8493002F148035361FFF7C9FE10BD504B02221A82DA7AD2B283F84820002283F849208F
:4043800003F148025A61FFF7B9FE10BD484B01221A829A185A61FFF7B1FE10BD444B01221A82424A1279191D0A445A61FFF7A6FE10BD3E4A5278013A0A2A00F2B880DFE89C
:4043C00002F045B67FB606B6B6B60EB62B00374B9B78DBB2364A1377FFF74EFD10BD334B9B7803F0FF041BB1601EC0B2FFF7F4FA04B110B9002C40F09C802D4B5B78DBB255
:404400009C4206D02A4B5C70012083F84A00FFF721FCFFF731FD10BDFFF7EEFA002800F08A80224A13791279D2B221498A720B441A7AD2B21B79DBB29A4204D0012281F85C
:404440004A20FFF70FFBFFF717FD10BD03F00303012B17D04BB1022B6FD1144B9B7813F0FF0F6CD1FFF716FD10BD104B9B78DBB2012B66D10E4AD37A03F0FD03D372FFF7BF
:40448000FBFC10BD094B1B79DBB2012B5BD8074B99781B79064A134493F84C2022EA010283F84C20FFF7E8FC10BD00BF006000405C9AFF1F24C00000809AFF1F5CA6FF1F83
:4044C00003F00303012B17D04BB1022B3DD1234B9B7813F0FF0F3AD1FFF732FD10BD1F4B9B78DBB2012B34D11D4AD37A43F00203D372FFF7C1FC10BD184B1B79DBB2012B4E
:4045000029D8164B99781B79154A134493F84C2022EA010283F84C20FFF7AEFC10BD002010BD002010BD002010BD002010BD002010BD002010BD002010BD002010BD0020DC
:4045400010BD002010BD002010BD002010BD002010BD002010BD002010BD00BF006000405C9AFF1F08B5134B1A78D2B21A701B78DBB213F0800F02D00F4A937708BD0220E4
:40458000FFF750FC0D4B1B7803F06003202B05D0402B06D043B9FFF751FE06E002F0E6FF03E0FFF705FA00E0002010B90322024B9A7708BD286000405C9AFF1F00600040B4
:4045C00008B5284B1B78DBB213F0100F48D013F0800F0CD003F00F03012B16D1FFF7C2FF214B9B7F13F0800F11D1012312E013F0400F03D0FFF7BEFD01230BE013F0200FCD
:4046000007D0FFF79DFD012304E0002302E0002300E0002323B3134B1B7813F0800F1FD1114AD37F92F820201343104A13701278D2B2934214D10C4B9B7FDBB2094A12784A
:4046400012F0800F07D1084B9B7FDBB2054A1370137803F00F03044A927FD2B29342EAD108BD00BF286000405C9AFF1F2960004008B503F01DF908BDF8B5274B1F78FFB2E7
:40468000012445E017F0010F3FD026462201234B13449A785D78154015F0010F32D004EB440293001E4A13441B7913F0800F29D01A4922018B5C03F0FE038B54194B03EBAB
:4046C0004403B3F850309BB2202B04D900212046FEF7D8FC04E0134B2344012283F8642006EB460293000E4A13445A79D2B231010D4B5A540B4B1B7BDBB29C4202D1002262
:404700000A4B1A7036010A4B9D550134E4B27F08002FB7D1F8BD00BF9F600040706000405CA6FF1F5C9AFF1FFE5F0040EEA6FF1F726000402DE9F04102F0CEFF00F07F0541
:4047400002F06CFF00F0030601242DE015F0010F20D02201164B9B5C13F0010F1AD1154B234493F8643013F0FF0F13D1DFF8488017464244002353716301023BDBB213713D
:4047800001212046FEF77EFC18F8073043F0010308F807300134E4B26D08002DD6D1760802D006F001050824002EF6D1BDE8F081726000405C9AFF1F7060004008B5FEF7CE
:4047C0003FFE08BD2DE9F04104460E461746374B1978C9B2364B1B7B03EB43039A00354B1A4413899BB2043B994201D9FFF7D8FC2E4B1978C9B22E4B1B7B03EB43039A001B
:404800002C4B1A4413899BB2043B994248D8231FDBB2EB2B08D93B4622463146204603F003F94FF000083DE000253B4603227119F02003F0F9F8033CE4B20335EDB21B4B46
:404840001978C9B21A4B1B7B03EB43039A00194B1A4413899BB2043B994210D9FFF7A0FC124B1978C9B2124B1B7B03EB43039A00104B1A4413899BB2043B994204D8022C33
:40488000D3D84FF0000801E04FF00108B8F1000F08D13B4622467119F72003F0C5F801E04FF001084046BDE8F08100BFEEA6FF1F5C9AFF1F5CA6FF1F08B5FFF771FC08BDC3
:4048C000024B187800F00100704700BF6565004028B1064AD37A43F00103D3727047034AD37A03F0FE03D372704700BF5C9AFF1F431EDBB2072B0BD8420002449300054AF7
:40490000134400225A705A79D2B20001024B1A54704700BF5CA6FF1FFE5F004038B5124B587BFEF70FFD01281DD10F4B587BFEF7F5FCC5B2032D0FD811E00B4B234493F8DF
:40494000700060B1631C0949194400F0F000FBF78FFF0434E4B200E00024AC42EDD3024B587BFFF7C5FF38BD5C9AFF1FCC9AFF1F08B502220D4B1A700F3B93F822300C4B00
:404980001B7E03F00303012B04D0094AD37E83F08003D3760122064B5A76064B5B7BDBB2022B01D1FFF7BAFF08BD00BF0B6000405CA6FF1F5C9AFF1F08B501220C4B1A70B8
:4049C0000F3B9B7C0B4B1B7B03F00303934204D0084AD37B83F08003D3730122054B5A73054B5B7BDBB2934201D1FFF797FF08BD0B6000405CA6FF1F5C9AFF1FF8B599B329
:404A0000044616460F4688B3082831D81A4B034493F8B030FF2B01D1FEF780FB164D254495F8BC00FDF778FE95F8B000122302463146FDF7BBFD24011049214489B2BAB29E
:404A400095F8B000FDF7A4FD95F8BC00FDF750FE95F8B01095F8BC00FDF712FE012195F8BC00FDF76BFE04E0002602E0002600E000263046F8BD00BF5C9AFF1F7860004049
:404A800010B50022084B1A70084C207B40220849FEF77EFB607B402204F17001FFF7AEFF607BFFF725FF10BDEEA6FF1F5C9AFF1FF0A6FF1FFEE700BF838A63B18389194472
:404AC0008388994207DB00238381828BC189438901FB02334381038CF3B110B4836933B9818BC38903FB01F1013909B200E0002143898CB2C28BC18901FB02F292B2234466
:404B000013449BB2C1888B4205D300238381091B8A1A013A428110BC704700BF10B503F0E3F80446224A137843F0010313701032137843F00103137002F503522332137873
:404B400043F02003137002F05DFA02F0E9FA02F0C3FA02F06DFE02F047FE164A137843F010031370144B197841F010011970117841F0200111701A7842F020021A700F4A67
:404B8000137843F0010313700232137843F001031370204603F0ACF8094B02221A6004221A60084A137843F08003137010BD00BFA3430040BB430040AB430040705800406C
:404BC00000E100E07464004008B503F095F803680C2B00D1FEE7FEE7F8B5254B1B78DBB2244E3478E4B2244F3D78EDB203F00701224A11701B090132137044F0030333700B
:404C000045F003033B7002221D4B1A7010231D4A1370282110321170502110321170C0321370002302F27362137002321370402397321370023213708022134B1A7020234D
:404C4000124A1370183213707A214D32117003321370193213702A220D4B1A700A20FDF71BF93D70347066220A4B1A70F8BD00BFCF010049F8460040F94600406E580040BF
:404C80000D5100401D510040935A0040C35A0040585B00407658004008B504F0E5F908BD38B50024344B1C80502202331A70042202331A80182331490B7002310A80023157
:404CC0000B70012002310880192502310D7036200231088002310B7029492A48FFF7DCFF0622294B1A70294B1B78DBB2284A13705222284B1A7040F62E5222331A8042F202
:404D00005122023B1A800BE0234B1B7803F0010343EA440404F00304782002F0DDFF013D0DB1032CF0D115B90320FFF7C3FE1B4A4FF48073138007231370002318490B7002
:404D40004820023108701370053213700222154B1A7004220A331A70134A137843F01F031370013A137843F001031370013A137843F08003137038BD8040004086400040AE
:404D8000B823004800410040004300400F010049A14600400042004025420040044000400640004001400040A243004008B50A46002102F0CDFF08BD38B572B66122504B8F
:404DC0001A70FFF76DFF4F4A137843F00403137000240BE04C4D63001A19500002462A4491882858FFF7E2FF0134E4B2022CF1D900240BE04448A20011194B0003449A8B51
:404E000099695869FFF748FF0134E4B2542CF1D94FF440733D4A1380023213800A243C4B1C7003223B3B1A8040F2033206331A8004213848FFF7BAFF042237493748FFF767
:404E40002BFF04213648FFF7B1FF04213548FFF7ADFF04213448FFF7A9FF04213348FFF7A5FF042232493348FFF716FF042232493248FFF711FF324A324B1A60324A137840
:404E800043F0020313701032137843F0020313702E4D2B7843F040032B70A2F58632513A137843F010031370082229492948FFF7F3FE224628492948FFF7EEFE2246284959
:404EC0002848FFF7E9FE082227492848FFF7E4FE082227492748FFF7DFFE224626492748FFF7DAFE264A137843F008031370FFF773FE0E2229462348FFF7CEFE38BD00BFF0
:404F000000480040E8460040B4C10000705800408358004000760040BC2300480876004010760040187600402076004028760040C023004830760040C423004838760040D2
:404F4000040400C45806014003500140A04300407C2300480251004084230048C051004090230048F05100409C23004812510040A423004822510040AC2300483051004095
:404F800022430040B04300402DE9F04F8DB00390049105921D46BDF858300693BDF85C709DF860A08269002A40F09F80014683880498984280F20381CB88059C9C4280F213
:404FC000FE800AEB4A0253000344012B00F1F78004EBCA03012B00F1F280CB8A1BB9AF2D01D90135EDB24FF00008DDF81090DDF814B00795069E54E0079B03EB830343445F
:4050000003EB43039A00039B9B699D5C002442E015F0010F1DD0BAF1010F0AD104EB0B0208EB0901334612B209B2039800F0E4FE2EE01FFA8AF10FFA8AF304FB01B208FBEE
:4050400001910196009312B209B2039800F0BEFE1EE0BE421CD0BAF1010F0AD104EB0B0208EB09013B4612B209B2039800F0C4FE0EE01FFA8AF10FFA8AF304FB01B208FB2B
:4050800001910197009312B209B2039800F09EFE013464B26D08072CBADD08F101084FFA88F8B8F1040FA7DD069BBB4200F08780BAF1010F09D10499053100970823059A9A
:4050C00009B2039800F08EFE79E01FFA8AF303EB8301049A11440197DB0000935346059A09B2039800F072FE69E0137AEB1ADBB2506800EBC301D2F800B030F8337091F8F9
:405100000280CB78099391F905300A9391F906200B92BAF1010F04D91BB2079313B2089302E000230893079300231C46994643E05E1CF6B213F0070F03D17B1C1BF8074045
:405140009FB214F0800F2AD0BAF1010F0ED10B9B059A9A184A440A9B049959182944069B12B209B2039800F047FE18E0079B59191FFA8AF0089B03EB09020FFA8AFE059BB6
:4051800002FB0032049B01FB0031069B01937346CDF800E012B209B2039800F017FE6400E4B20135EDB2334600E000254545BFD309F101095FFA89F9099A9145F5D30DB0FC
:4051C000BDE8F08F08B50022174B1A70174B1870032805D8164A137843F00403137004E0134A137803F0FB031370032805D8104A137843F00803137004E00D4A137803F07F
:40520000F70313700A4B1B7813F0040F04D1084B1B7813F0080F06D0034A137843F08103137001F0B3FF08BD59A6FF1F58A6FF1F7464004070B5044603280CD8104B1D5C2B
:40524000104E331893F8680301F0EEFE354495F870230D4B1A70032C0DD80434084B1D5D084E344494F8680302F098FA354495F87023064B1A70FF2001F07EFF70BD00BFE8
:4052800098EA0000B4C100005064004052640040031DDBB20130C0B2032807D800F0070101228A4012F0FF0FF4D000E004200133DBB2072B07D803F0070101228A4012F03A
:4052C000FF0FF4D000E00823043BDBB2984205D10C4A137843F00C0313707047984207D2084A137803F0F70343F004031370704704490A7802F0FB0242F008020A70184635
:40530000704700BF7464004008B5104A104B1A60104A136843F40073136000230AE0032B03D80D4A52F8231000E00C490C4A42F8231001332F2BF2D90A4B1B78084A0A4B37
:405340001A60FFF739FD01F043FC08BD0004FA050CED00E014ED00E000000000C94B00000080FF1FBC76004008ED00E008B5094B1A681044084BC31AB3F5006F02DC054B80
:40538000186005E002F0B8FC0C2303604FF0FF32104608BD0081FF1F40A7FF1F06280BD8064B03EB8002D2F87823184490F89413137823EA01031370704700BFB4C100005D
:4053C00006280AD8054B03EB8002D2F87823184490F8941313780B4313707047B4C1000006280BD8064B03EB8002D2F89C23184490F8B813137823EA01031370704700BFC6
:40540000B4C1000006280AD8054B03EB8002D2F89C23184490F8B81313780B4313707047B4C10000F8B501F04FFF0322464B1A70464A137843F0200313700126444B1E7003
:4054400002F052FC434A137843F0030313700432137843F00303137002F04AFCFF243E4B1C7020331C70403B1C7024331C7030331C70103B1C7002F037FC384A137843F037
:4054800003031370013A137843F00303137002F02FFC334B1C7020331C70403B1C701F331C7030331C70103B1C702E4F02253D602D493046FCF71CFF05213046FCF700FF67
:4054C00004243C6029492846FCF712FF05212846FCF7F6FE01F0A4FD2046FFF793FF0520FFF790FF0620FFF78DFF02F053F92046FFF766FF0520FFF763FF0620FFF760FFC0
:405500001B4B1A7822431A701A7842F008021A7001F014FE01F0EEFD002001F0CDFD204601F0BAFD002001F07FFD02F08FF902F069F9002002F048F9204602F035F9002010
:4055400002F02CF9F8BD00BF004F0040024F0040866400409064004020640040926400402264004080E100E05D720000ED7100007464004008B5054B1B7823B9FFF752FF19
:405580000122024B1A70FFF7C9FA08BD249BFF1F01281CD810B44000C0B20D4B03EB8002D2F8C0131A1892F8D0430A7822EA04020A700130C0B203EB8002D2F8C0231844A5
:4055C00090F8D013137823EA0103137010BC7047B4C1000001281AD810B44000C0B20C4B03EB8002D2F8C0131A1892F8D0430A7822430A700130C0B203EB8002D2F8C02344
:40560000184490F8D01313780B43137010BC7047B4C1000001238340012823D8DBB2124A527813421ED010B40F4922EA03034B700E4B03EB8002D2F8D423184490F8DC43D8
:40564000137823EA0403137090F8E033CA181379013BDBB2137123B9054A137823F01003137010BC704700BF249BFF1FB4C10000005B004001238340012823D8DBB2124A30
:40568000527813421ED110B40F4913434B700F4B03EB8002D2F8D423184490F8DC4313782343137090F8E03319440A7922B908490A7842F010020A70034A13441A7901325C
:4056C0001A7110BC704700BF249BFF1FB4C10000005B0040F8B507460E461546002411E0681E001B05F0AEFF0146084804F0B4FD06F0FEF9B6FBF0F303F130023A5503FB7F
:40570000106601342846AC42EADBF8BD00002041F0B50C4629B1836943BB43890633438124E08369D3B10023C3830E7A4F7A33460FE09A1B616801EBC202D17892F9062045
:4057400001EB020EC58BAE4501DDA0F81EE00133DBB2BB42EDD9A37A838307E013B14389063B4381082383830023C3838461F0BD007A704701824282704700BF09B189B244
:4057800000E00121C181704781814281704700BFF0B585B004460D4683693BBB0A2908D1828BC189438901FB023343810023838154E00D2952D0C189890009B2FFF77CF98A
:4057C000B4F90A20B4F90C10A37B0293638A0193238A00932B462046FFF7D6FBE38903EB43035A00A3891344A38137E00A2908D1002282814189C2899B7A03FB021343810D
:405800002CE00D292AD01A7A914227D3597A8D4224D8AA1A5E6806EBC206B378F278BBB1B2B196F90510C2890B4403FB02F109B2FFF742F9B4F90C10B4F90A20238A608A34
:40584000A77B0297019000932B462046FFF79CFB3179E289A38901FB0233A38105B0F0BD2DE9F04782B082460D4691461E46BDF92880BDF82C700C4608E0009743464A467F
:405880002146504600F0AEFA013424B2AB199C42F3DB02B0BDE8F08710B582B0BDF8104001941344013B1BB200930B4600F0A8FA02B010BD08B5104E104D16E029686B6852
:4058C000AC68002204E051F8040B43F8040B0432A242F8D1E868002203E0002143F8041B04328242F9D11035013E002EE6D102F009FAFBF711F800BF010000003CEC000034
:40590000018042808180C28000230381438183810122C2814FF6FF71018241828282C3828361C38308238383704700BF00B583B0002101912023009380230A460248FFF753
:405940008FFF03B05DF804FB2C9BFF1FF8B50E1E75DB054614461F4683889E426FDA002A6DDBC3889A426ADAFFF702FF02280AD0032813D0012817D1B5F900301C1B631EB9
:4059800034461EB210E0B5F900309E1B013E36B2B5F902301C1B013C24B205E0B5F902309E1B731E26461CB2012F03D0CFB1022F2FD0F8BDB5F900202346002C00DAE31DD7
:4059C00043F3CF0302FB036604F00704012303FA04F41B4B1E4496F82430234386F82430F8BDB5F900202346002C00DAE31D43F3CF0302FB036604F00704012303FA04F4C7
:405A00000F4B1E4496F8243023EA040386F82430F8BDB5F900202346002C00DAE31D43F3CF0302FB036604F00704012303FA04F4034B1E4496F824305C4086F82440F8BDA5
:405A40002C9BFF1F2DE9F04383B006460D461F4603F003031B010FFA82F9DFF8408003F10C0249464046FFF78FFE7A1C05EB45018B0000240194120100921BB23A014946AB
:405A80004046FFF7EDFE04E0315D0448FFF780FE0134AC42F8DB03B0BDE8F0832C9BFF1F70B515461E46064CCAB201462046FFF711FE33462A4601462046FFF7C3FF70BDC8
:405AC000509FFF1F70B582B004460D461646FDF79BFD8DF807009DF8073013F0800F29D13346EAB215492046FDF71CFE8DF807009DF8073013F0FF0F19D14CF25034FDF7E9
:405B000097FD8DF807009DF80730013C02D180238DF807309DF8073013F0820F0AD19DF8073013F0FF0F05D0002CE8D102E080238DF807309DF8070002B070BD709FFF1F4F
:405B400008B5054B002283F8442483F8450402213C20FFF7B7FF08BD2C9BFF1F38B504460D4611F0800F00D07F25072C00D907242120FFF7E5FF2846FFF7E2FF7F20FFF7C0
:405B8000DFFF2220FFF7DCFF2046FFF7D9FF0320FFF7D6FF38BD00BF08B500210846FFF7DDFF08BD70B5FFF7F7FF0020FFF7C8FF1020FFF7C5FF4020FFF7C2FF00242646DC
:405BC0002CE0A6F15000C0B2FFF7BAFF0220FFF7B7FF1020FFF7B4FF4022124B83F84424002517E0591C03EB04130E4A134493F824300A4482F844340B4600E000230F2B56
:405C0000F0DD0134E4B2002211213C20FFF75AFF0135EDB2072DF1D90136F6B2032ED0D970BD00BF2C9BFF1F08B5FFF7BBFF08BD10B504460A490B48FFF76AFDFFF776FEC2
:405C400000231A4609210848FFF7FCFE0123002202212046FFF724FFFFF7E6FF10BD00BF98C500002C9BFF1F38EA000038B5FFF75DFE1E4D1E4C05F10C012046FFF748FDCD
:405C800001212046FFF77AFD0123002219461948FFF7D8FE01231C220221D4F84405FFF7FFFE05F118012046FFF732FD01212046FFF764FDD4F8443504F5A965C3EBC30357
:405CC00058000023562203212844FFF7BBFED4F84435C3EBC303580003300123562203212844FFF7AFFEFFF79FFF38BD98C500002C9BFF1F44EA000008B5FFF7B7FF2121BB
:405D0000024B93F8440501F021FE08BD2C9BFF1F10B50446AE20FFF713FFD520FFF710FF8020FFF70DFFA820FFF70AFF1F20FFF707FFD320FFF704FF0020FFF701FF4020A3
:405D4000FFF7FEFE8D20FFF7FBFE012C03D11020FFF7F6FE02E01420FFF7F2FE2020FFF7EFFE0020FFF7ECFEA120FFF7E9FEC820FFF7E6FEDA20FFF7E3FE0220FFF7E0FE34
:405D80008120FFF7DDFE8F20FFF7DAFED920FFF7D7FE012C03D12220FFF7D2FE02E0F120FFF7CEFEDB20FFF7CBFE4020FFF7C8FEA420FFF7C5FEA620FFF7C2FE2E20FFF75F
:405DC000BFFEAF20FFF7BCFE10BD00BF10B582B0BDF814400194BDF910400094FFF740FD02B010BD10B582B0BDF810400094FFF753FD02B010BD00BF08B5FFF7A7FD08BDCA
:405E00002DE9F04F85B002900D4616461F46BDF938B0BDF83C300393584605F013FC0446304605F00FFC0146204605F055FB20F00048384605F006FC0446284605F002FC11
:405E40000146204605F048FB20F0004319460193404605F007FE28B13B465F469B462B4635461E46BD4205DD33465E469B462B463D461F46C5EB070A1FFA8AFA0FFA8AF42A
:405E8000584605F0DFFB8146304605F0DBFB0146484605F021FB20F0004005F003FE0FFA80F904EBD47464105E4502DA4FF0010B21E04FF0FF3B1EE00199404605F0D2FDEE
:405EC00030B1039B2A4631460298FFF795FF05E0039B324629460298FFF78EFFC9EB0404A3B21CB2002C04DA5E4436B20AEB030424B201352DB2BD42DEDD05B0BDE8F08FA4
:405F000038B5FFF713FD1B4D1B4C05F10C012046FFF7FEFB01212046FFF730FC012300220221D4F86006FFF7BBFD05F118012046FFF7EEFB01212046FFF720FCD4F8603604
:405F400004F26465C3EBC30358000023302207212844FFF777FDD4F86036C3EBC303580007300123302207212844FFF76BFDFFF75BFE38BD98C500002C9BFF1F38B50220C1
:405F8000FFF7C6FE002305E0134A1A44002182F824100133B3F5806FF6DB0F4C202280212046FFF7ADFC0D4D05F124012046FFF7AFFB29462046FFF7ABFB00220121204620
:405FC000FFF7D8FB01212046FFF7D8FBFFF798FFFFF72AFE38BD00BF2C9BFF1F98C5000008B5FFF78DFF2021024B93F8600601F0ADFC08BD2C9BFF1F2DE9F04186B001F076
:40600000B5FBB0FA80F040090190FDF7F5FAB0FA80F040090290FDF7E7FAB0FA80F040090390FDF7D9FAB0FA80F04009049001F0D7FAB0FA80F04009059000232BE006AAC3
:4060400002EB830252F8141C99B1934A02EB8302D2F87C27012A0CD18F4A02EB8302D2F89427632A05DC8C4800EB83000132C0F89427894A02EB8302D2F87C272AB9864A9B
:4060800002EB83020020C2F89407834A02EB8302C2F87C170133042BD1DD7F4BD3F894375F2B0DD17C4CD4F8AC07B0FA80F04009C4F8AC07222101F049FC6123C4F89437F7
:4060C000754BD3F8AC37754A13601BB1012001F07BFA02E0002001F077FA6F4BD3F898375F2B38D16C4B93F8B037C3B96A4BD3F86036122B04DC0133674AC2F8603603E072
:406100000022654BC3F86026FFF76AFF624BD3F8602683F8B127032283F8B22717E05E4BD3F84435122B04DC01335B4AC2F8443503E00022584BC3F84425FFF7DDFD564BD9
:40614000D3F8442583F8B327042283F8B2276122514BC3F89827504BD3F89C375F2B38D14D4B93F8B037C3B94B4BD3F86036002B04DD013B484AC2F8603603E01322464B67
:40618000C3F86026FFF72CFF434BD3F8602683F8B127032283F8B22717E03F4BD3F84435002B04DD013B3C4AC2F8443503E01322394BC3F84425FFF79FFD374BD3F8442504
:4061C00083F8B327042283F8B2276122324BC3F89C27314BD3F8A0375F2B50D12E4BD3F8B407002828DD0130C3F8B407102820DD0026C3F8B467B04615E005EB8804274BAC
:4062000003EB8404771CB1B2607901F09FFBB9B20236207901F09AFB013500E00025032DEBDD08F10108B8F1030FF7DDFFF7D8FE21E0FFF7FDFC1EE0174BD3F88437012B3A
:406240000BD1154BD3F87C37012B06D10120124BC3F8B407FFF7ECFC0DE00F4A92F8B037B3FA83F35B0982F8B03713B1FFF744FD01E0FFF7B5FE6122074BC3F8A027064BC3
:40628000D3F8A4375F2B03D16122034BC3F8A42706B0BDE8F08100BF2C9BFF1F0481FF1F2DE9F843074616460D1E14DD284605F0C9F94FF05E5105F019FA04F04BF95D4961
:4062C00005F00AF95C4905F011FA05F0EBFB05467F2800DD7F25002D0DDC90E0574A02EBC302D2F8BC27914203DA5449C1F8D8371146013301E000231946032BEEDD022D02
:406300000ADD45290ADD322D0ADC4C4BD3F8DC37132B07D9002306E0012304E0002302E0002300E00123BBB135E0444B03EBC403D3F8B80700280DDB00221146FAF756FAF3
:406340003E4B03EBC4034FF0FF32C3F8B8270022C3F8BC27013400E00024032CE5DD374C4FF00008C4F8DC8704EBC603C3F8B877C3F8BC5704EB060989F8E08742462946B5
:406380003846FAF733FA04EB8606C6F8E48789F8F487BDE8F883294BD3F8F82702EB820290001844C0F8FC77D3F8F82702EB820290001844C0F80058D3F8F82702EB8202E9
:4063C00090001844C0F80418D3F8F827D3F8D80702EB820291001944C1F80808D3F8F82702EB820291001944C1F80C68D3F8F827013202F01F02C3F8F827BDE8F8830F4B27
:4064000003EBC603D3F8B807002803DD00221146FAF7ECF9094A02EBC6014FF0FF33C1F8B8370023C1F8BC37164486F8E037BDE8F88300BF0918C43C551D02432C9BFF1F4A
:4064400000B583B01346CAB20449FDF70BF98DF807009DF8070003B05DF804FBA8A5FF1F10B541F6FF734FF4804201210846FDF73FF8214C84F8800AFCF7C6F884F8810A47
:4064800094F8810A0223FE221021FCF78FF894F8810A04F6842292B246F25751FCF778F894F8800A94F8811AFCF7EAF841F6FF734FF480420121084601F032F984F8940A31
:4064C000FCF7A2F884F8950A94F8950A0223FE221021FCF76BF894F8950A04F6982292B246F25B51FCF754F894F8940A94F8951AFCF7C6F810BD00BF2C9BFF1F10B54FF428
:40650000804341F6FF7201210846FCF7D3FF214C84F8A80AFCF778F884F8A90A94F8A90A0123FE221021FCF741F894F8A90A04F6AC2146F2475289B2FCF72AF894F8A80A49
:4065400094F8A91AFCF79CF84FF4804341F6FF720121084601F0C6F884F8BC0AFCF754F884F8BD0A94F8BD0A0123FE221021FCF71DF894F8BD0A04F52C6146F24B5289B2FB
:40658000FCF706F894F8BC0A94F8BD1AFCF778F810BD00BF2C9BFF1F70B5002451E004F00100FCF7DBFFC4F34000FCF7BFFF264E0025C6F8D05A2846FBF736FB0420FBF755
:4065C0006BFCFBF729FB2846FBF70EFBFBF7D6FAC6F8D40A0120C6F8D00AFBF725FB0420FBF75AFCFBF718FB2846FBF7FDFAFBF7C5FAB0F57A7F03DDD6F8D43A632B11DD3D
:4066000005F020F80546104BD3F8D40A05F01AF80146284605F01EF90C4905F067F805F041FA01E04FF6FF70074A02EB8403C3F8D80AD2F8D03A013303F00103C2F8D03AA3
:406640000134032CABDD70BD2C9BFF1F00409C4608B5204B503A83F8E82A83F8E90A83F8EA1A93F8EC3A13F0FF0F07D0FEF728F920B1002218490320FEF7A4F8154BB3F80C
:40668000EE2A0432A3F8EE2AD3F8F03A0B2B18D8591C104A92F8E80A134483F8F40A4B1C92F8E90A114481F8F40A591CC2F8F01A92F8EA1A134483F8F41A0123C2F8043B2F
:4066C00008BD044AB2F8083B9BB201339BB2A2F8083B08BD2C9BFF1F14A6FF1F08B5224B203983F8E81A00F07F0283F8E92AC01183F8EA0A93F8EC3A13F0FF0F07D0FEF7A0
:40670000DFF820B1002219490320FEF75BF8164BB3F8EE2A0432A3F8EE2AD3F8F03A0B2B18D8591C104A92F8E80A134483F8F40A4B1C92F8E90A114481F8F40A591CC2F8A0
:40674000F01A92F8EA1A134483F8F41A0123C2F8043B08BD044AB2F8083B9BB201339BB2A2F8083B08BD00BF2C9BFF1F14A6FF1FF0B5059C069F00251560DD01A54206D870
:406780005E1CF601013EB44203D9002602E0002600E00126D6B104F07F02803202603C44A54206D80133DB01013B9C4203D9002302E0002300E001231BB117440F600020E5
:4067C000F0BD4FF480730B600020F0BD04EB070E754505D80133DB01013B9E4500D8012666B180230360FB1864F07F041C440C6003681C1B274417600020F0BD0120F0BDC3
:40680000C1680268D30912F07F0200D001221A44436803FB02F3027A02FB033301EB032321B1B3F5802F03D903207047032070470020704710B404460022FF2013E0A35CE5
:40684000584000230BE010F0800F04D04000C0B280F0310001E04000C0B20133DBB2072BF1D9013292B28A42E9D110BC704700BF30B4044618B1086800F5807008600D6804
:406880001868854201D398690860002010605868844218D31C69012C13D90968A1EB00259B699D420BD204F1FF1404F57F4400FB04F003EB0020C91A0844106003E015601B
:4068C00001E00B68136030BC704700BF8B6904E003F580730A68934203D21A688242F7D100E000231846704770B48A6902600024264608E013681BB19E4201D202601E46B9
:4069000002F5807201344D680B6903FB05F39C42F0D370BC704700BF094B1B7803F00C035B08084A127812F0040F00D0013303F1924393F82031DBB2034A1370704700BF1E
:40694000205800402158004008460040054B1A7802F0FD021A701A7800F0020010431870704700BF205800400F490B7803F0FC0200F0030313430B7001280AD10B4B1B78AE
:40698000DBB20B4A13700B4B1B78DBB2013213707047094B1B78DBB2054A1370074B1B78DBB201321370704740580040100100493046004014010049AD010049B50100492E
:4069C00070B504460E46C0F30725FBF7D7FD32462946C4F30740FBF7C7FD0446FBF73AFA0CB1042070BD002070BD00BFF0B5C3B00446836800931D680127002623E0009FB5
:406A00004FF48072394601A802F02EFB01350195802121A8FFF70EFF2090224601A93846FFF7CEFFA069009B1B1A2068224601A91844FFF7C5FF0746234641AA694628465B
:406A4000FFF716FF01366268236903FB02F39E42D5D3384643B0F0BD2DE9F047C0B005468A4690469946489EB469041B33681C44C76F80210844FFF7DDFE874207D14A4616
:406A800005EB0801504602F0EFFA00241BE0E76F80216018FFF7CEFE874213D14FF480722146684602F0E0FA324669462846FFF787FF044638B94A460DEB8801504602F074
:406AC000D3FA00E00224204640B0BDE8F08700BF10B5002404E02046FEF782FC0134E4B2062CF8D910BD00BF70B504460E4B1D5C03441E7A032802D8FEF772FC03E00438EB
:406B0000C0B2FEF74BFC0F2D00D10725064B03EB850529690A7822EA06020A7003EB8404236B09221A7070BD48EA000008B5134B1B7813F0040F09D1104B1B7813F0080F45
:406B400004D10E4A137803F0FC0313700C4B1B781B020C4921F810300B4A12781343DB4321F81030FFF7C0FF002000F017FE074A137843F00103137008BD00BF746400407B
:406B80001164004048A6FF1F016400407258004010B50E4B195C1A18147A03EB80031B6B09221A700F2900D10721084A02EB81021269137823431370032802D8FEF722FC6C
:406BC00010BD0438C0B2FEF7FBFB10BD48EA00007F230C4A137080210B4A117007E0DA0002F1804202F5F042013BDBB21370002BF5D1DB0003F1804303F5F04300221A70F9
:406C0000704700BFEE80FF1FEF80FF1F2DE9F04FCDB01D4600230B930A93AB6809930391002A00F09F80824693461318EA68934200F29A80002900F099800BF1FF331B0933
:406C40004C4AA2FB0323059301330493002307939946012081E0099B1C682B4608AA09A92046FFF705FE4FF4807200210CA801F06FF804F10108CDF83080CDF834A00399D4
:406C8000059B994502D1CDF838B007E070230E93ABF1700B9A44039B703303930E9A0FA802F0E2F9089921B1802211442CA802F0DBF96C68A04503D9C4EB0804013400E05A
:406CC0000124002731E0444501D10CAE04E029462046FFF7FBFD0646099BAA699A1A120A6968B2FBF1F301FB132356B17268B1680191009207AA0AA90BA8FFF739FD074666
:406D000000E001374FB90B98079931440A9A121A0C310CAB184402F0A7F92B7D23B180212CA8FFF787FD2B9001344445CBD92A460CA90998FFF744FE2B7D4BB140B9AA6993
:406D4000099B9B1A28682A460CA91844FFF738FE68B9099BAB6009F10109049B9945FFF47AAF04E0012002E0012000E001204DB0BDE8F08F264992242DE9F04F8BB006919A
:406D8000002A00F0E68081461F46934613181C460793FB689C4200F2DF80002900F0DF80B8680368099304F1FF3A4FEAD913C3EBDA1A0AF1010ABC69031B7A681502B3FB11
:406DC000F5F303FB02F304EB0323039300250EE0B9EBC51F06D36B1CDB01013B994503D9002302E0002300E001231BB901359542EED30025039BC01A030A184605933B692E
:406E0000012B09D905EB0A03013B854207D8984208D20123049307E00023049304E00123049301E000230493C84600260123CDF82090894635E0039B03EB052008F07F043E
:406E400004F180010136B24502D9C4F1800400E05C46049B63B1059B9D4209D97B68A0EB0320BA69904203D238685B1BA0EB03203B7D5BB1009723460A464946FFF7ECFD23
:406E8000034648B18246DDF820900FE022460144484602F0E9F80023A044C4EB0B0BA14401355645C7D39A46DDF820905346002B57D1099B002B54D07D689D4228BF1D46D8
:406EC000013D5D1BDDF81880079E1C463EE039462846FFF7FBFC8646002836D0436881681944994504D29E4294BF0022012203E089452CBF002201223AB3994502D3C3EB2A
:406F0000090C01E04FF0000C994502D2C9EB030000E000200CF10C0CB14228BF314699452CBFC9EB0103CB1A40443A7D42B10097624601467046FFF78FFD824628B110E05E
:406F40001A460EEB0C0102F08FF80135A542BED907E001239A4604E001239A4601E001239A4650460BB0BDE8F08F00BFF8B500293DD00D4600283CD0C368002B3BD043681C
:406F80000A2B3AD80768002F39D00446FFF738FC0646002834D1EF6063682B61237A2B75637A6B75E368AB612368DA0913F07F0300D0012313446B60626802FB03F3E268EF
:406FC00002EB03232C4644F8083B29462046FFF78BFCAB681B689BB92B7D8BB12846FFF705FD064629462046FFF77EFC08E0012606E0012604E0012602E0012600E001263F
:407000003046F8BD054A137843F0080313701032137843F008031370704700BFA243004008B5FFF755FD08BD014B1870704700BF805B004008B5134B1B7813F0040F09D194
:40704000104B1B7813F0080F04D10E4A137803F0FC0313700C4B1B781B020C4921F810300B4A12781343DB4321F81030FFF73CFD0020FFF7D9FF074A137843F001031370C7
:4070800008BD00BF746400401464004048A6FF1F046400407058004008B5064B1A7802F0F3021A701A7800F00C0010431870FFF733FC08BD2058004008B5064B1A7802F012
:4070C000FB021A701A7800F0040010431870FFF723FC08BD21580040054A137843F0010313701032137843F001031370704700BFA843004008B51422084B1A700133002035
:4071000018701A7842F004021A701A7842F002021A70FFF71BFCFFF7FFFB08BD20580040054A137843F0010313701032137843F001031370704700BFA743004008B500200F
:40714000FFF712FC0B4B1A7842F020021A701A7802F0FB021A701A7842F008021A7003F287231A7802F0E7021A701A7842F010021A7008BD4058004082B2034B1A804008EB
:4071800002331880704700BF044F004010B50446FEF750F8124B1A7842F001021A701B7813F0040F07D00F4A137803F0FE0313702046FFF7EDFC0A4B1B7813F0080F08D005
:4071C000201D094A137803F0FE031370C0B2FFF7DFFC034A137843F00203137010BD00BF74640040705800407258004010B5194C237803F0F7032370174B187C0430C0B290
:40720000FFF794FC237813F0040F21D1124B5B7C13F0800F05D0104A537C03F0FE03537410BD0D4C207CFEF733F82074237CDBB2032B03D9237CDBB2032B04D8064B187CDF
