:4000000000800020110000005557000055570000144A80B5144B1268144F1A60F7B1144E002556F80C4C56F8080C56F8102C234638B1043A52F8041F43F8041B191B81425F
:40004000F8D156F8040C1A4620B142F8045BD11A8842FAD1013F06F11006E2D106F09EFB00F0C2F9FA460040BC76004001000000B4A00000080002230000087608000323B5
:4000800000001076080004230000287608000523000030760500062300002070050007230000307005000823000060700500FE230000707019000A220000C8493000FE22DE
:4000C000000040518001FE220000000007000D230000085207000E230000105207000F230000185206001023000060520800112300006045070012230000785208001323F0
:4001000000007845080014230000285B400015230000006420001623000070642000FE23000070650800182300000051800019230000000280001A230000800280001B23D2
:400140000000000480001C230000800480001D230000000680001E230000800680001F23000000088000202300008008800021230000000A800022230000800A8000232333
:400180000000000C800024230000800C800025230000000E800026230000800E80002723000000148000282300008014800029230000001680002A230000801680002B2363
:4001C0000000001880002C230000801880002D230000001A80002E230000801A10002F23000010501000302300000050800031230000004D800032230000804D800033231D
:400200000000004C800034230000804C8000352300000047800036230000804780003723000000468000382300008046800039230000004580003A230000804580003B23AE
:400240000000004480003C230000804480003D230000001B80003E230000801B80003F23000000158000402300008015800041230000001980004223000080198000432350
:400280000000001780004423000080178000452300000009800046230000800980004723000000078000482300008007800049230000000B80004A230000800B80004B2386
:4002C0000000000580004C230000800580004D230000000D80004E230000800D80004F23000000038000502300008003800051230000000F800052230000800F8000532322
:400300000000800180005423000000498000552300008049800056230000004880005723000080488000582300000043800059230000804380005A230000004280005B23FE
:400340000000804280005C230000004180005D230000804180005E23000000408000FE23000080400100000001000000010000000048014001000000004800400100000002
:4003800000200140010000000020004010B5054C237833B9044B13B10448AFF300800123237010BD8081FF1F00000000E4960000084B10B51BB108490848AFF30080084849
:4003C000036803B910BD074B002BFBD0BDE81040184700BF000000008481FF1FE4960000C080FF1F000000002DE980488BB062B6C649DFF8A4B30B780BF58064002203F0C9
:40040000BF0380260425B4F5802F0B708DF821208DF8202006960795CDF824B042F27685BB4BBB491B78BB4A43F001030B701268B94CBA4D4FF40063B948BA492360D5668B
:40044000E024B94A04700B601378DF0701D406F087F8DFF8F09299F8001009BBB34BB44A1420187011701178C9B21170197801F0FD011970197841F0020119701B781278EB
:4004800003F00C035B08560748BF013303F1924393F82831A749DBB201220B7089F80020A549A64A0B78A64C43F004030B70137899F8010043F0040380251370A1492570D0
:4004C000002842F08F848A7802F0FF03002A02F0C3849D4B0493012389F8013006F050F9049F9A4A3B461B781178994B41F0010111701178974D41F0100111701A78964C42
:4005000042F001021A701978944A41F0100119702B78064643F002032B702378032043F00203237013780343137004F0ADFE2B788B4A03F0FD032B7023788A4903F0FD031D
:400540002370137888487A2443F0060313700C700378A1F5A65143F00103037011390B78A2F5A65243F001030B70153A13787F4D43F0010313704B786A4C4FF0005243F057
:4005800001034B7030462A60226006F0FDF8002005F0AAFB764977480B78027803F07F0322F0020202700B70012005F09DFB7249724B0A78032422F040020A708120002202
:4005C0004FF480414FF40055FF267E70BC7018705A7020469A70DA709D80D98005F09EFF89F8094004F07EFD89F80A0099F80A30DBB21D060AD4A34003F1804303F5F0432A
:400600001020FE21012218809970DA705C4946F24B5289B299F80A0004F092FF99F8090099F80A1004F09AFF564B0498002205248121C47019705A704FF400519A70DA701D
:400640004FF4804299802046DA8005F067FF89F81C4004F047FD89F81D0099F81D30DBB218060AD4DB0003F1804303F5F0431020FE21012218809970DA70434946F24342C4
:4006800089B299F81D0004F05BFF99F81C0099F81D1004F063FF3D4B0498002202248121047119705A704FF480419A70DA704FF4005299802046DA8005F030FF89F8304091
:4006C00004F010FD89F8310099F83130DBB2190609D4DB0003F1804303F5F0431021FE2219809A70DC702A4A46F25B5192B299F8310004F025FF99F8300099F8311004F0D2
:400700002DFF244B04980022042447E000510040898FFF1F08ED00E080E100E0556700000BE400E000E100E06D64004028580040295800400A460040A8430040B843004060
:40074000825B00409C81FF1FC480FF1FAA430040BA430040F8460040F9460040915800407758004082580040A143004080E200E0045B0040455B0040035B004018760040B5
:40078000A881FF1F28760040BC81FF1F10760040D081FF1F20760040009700008121447119705A704FF480419A70DA704FF4005299802046DA8005F0B1FE89F8444004F00A
:4007C00091FC89F8450099F84530DBB21A060AD4DB0003F1804303F5F0431020FE21022218809970DA70CB4D46F2534105F1480292B299F8450004F0A3FE99F8440099F8C1
:40080000451004F0ABFED9F8584084BB0498C24B072782214FF480424FF400588771197038465F709C70DC709A80A3F8068005F075FE0498B94B06268A22C6711A7030468C
:400840005E709C70DC70A3F80480A3F8068085F85C7005F063FEB24BB24C18682022A3F60713012185F85D604464A9651A7099F85E20A84B9AB943F27C04AB48AB4D0178F9
:4008800041F006010170C22129700121A3F8602083F85E105C66A3F86820A3F86A2005F06FFF0446A248A3490378A34A43F0020303700B7800F5AB5043F002030B7013789C
:4008C000033043F00303137018219C4B01701A789B4942F040021A701A788E4F02F0FC021A70C82200F8062C0223964A0B7013780A2043F00803137004F0C6FC204605F000
:4009000043FF99F85C50904E284604F033FE99F85D0004F02FFE049B1C7AFF2C05D104F0E1FB044697F85C503072230609D4E30003F1804303F5F0430A21062219809C70C8
:40094000DA70744F45F6A23107F16C06B6B23246204604F0F5FD2146284604F0FFFD049BDFF8E4815C7AFF2C06D104F0BBFB044697F85C5088F80900270609D4E30003F1B5
:40098000804303F5F0430A21072219809C70DA706E4A314692B2204604F0D2FD99F85D602146304604F0DAFD284605F0C7FD304605F0C4FD05F0E4FE654A02251378654C38
:4009C00043F02003137005F0DFFE634B63491A78634842F001021A701A782A431A70256003780B7899F8822043F001030B70002A02F0ED8205F0C4FE5A4A5B49137843F0BD
:400A0000200313700B7843F010030B7012F8013C43F0100302F8013C05F0B6FE5349544A0B7899F8830043F004030B70137843F004031370002802F0AB8105F0A1FE4D4A20
:400A40004D49137843F0200313700B7843F010030B70537943F01003537105F095FE4349434A0B7899F8845043F008030B70137843F008031370002D00F0208305F080FEA1
:400A80003E493A4C0B783A4A43F020030B702378A1F5035143F0020323701378383943F0020313700B78364F43F001030B703B78344E43F001033B703378DFF8D08043F074
:400AC00001033370A57D1A4B45F00105A57591F800E02D4D4EF0080E81F800E097F800E001F5A6514EF0080E87F800E037780B3147F002073770A67DDFF894A046F0020696
:400B0000A675567A002446F0100656721F78464640E000BF9C81FF1F387600403076004008ED00E05D4F0000095900400A590040AB430040BB4300400B5900400D59004005
:400B4000164600402F5B0040C480FF1F1482FF1F9465004080E200E07B650040085900406C6400409965004097650040A2430040B243004093640040976400409F64004024
:400B8000B7430040A8430040705800407E6400403686FF1F47F010071F7092F809E09D4F4EF0200E82F809E01A7842F020021A702B7843F001032B700B78974D43F001033E
:400BC0000B7005F0E1FD954B0421082219601A6098F8003043F0800388F8003003F064FE05F11003029305F120030193A5F10E084FF000028A4BE0B21A708A4B18703378D9
:400C000043F004033370337843F00803337033785A0702D433781B0707D5814B804A1B7843F08103137002F05BFC7D4B1B7813F00103FAD139783A790BEB010090F800E420
:400C40007948494420F81430029881F8C0E0774920F8023F31F8141088F8003088F8043002900BEB0203724893F8003420F814104A44203020F8141082F8C0303AF8021F34
:400C8000019B013423F8021F042C08F1010807F1010725F8021F0193AAD1664AA0F1B00A137803F0BF0343F04003137003F0FCFD614B614A1B78002103F0DF031370D9F854
:400CC000CC30127803F0010302F0FE0213435A4A1370594BD9F8CC201B7802F0020203F0FD031343544A1370049BC9F8D0105B78012B41F28482514B50491B78DD0714D4A8
:400D000043F001034E4A0B7013784E4943F0100313700B7833B992F8F33943F0100382F8F3390B78474A013313704748474902780B7842F0020263F07F0302700B70049AF0
:400D400000234FF49C70537005F012FD404A137843F00103137004E09AF80330DBB2012B09D099F80830002BF6D13A4B1B7803F00103012BF5D1384B1B7803F00303012B39
:400D800041F2EA81022B01F0B782344B344A1B8812889BB243EA024399F8082012B100228AF80320049AC9F8D430527801239A42C9F8D03041F26282204B20491B789C07F3
:400DC00014D443F002031E4A0B7013781D4943F0010313700B7833B992F8F33943F0100382F8F3390B78174A013313701D4A4FF49C70137843F0400313704FF00102049B7E
:400E00005A7005F0B5FC124A137843F0010313702FE000BF249C00003282FF1F00E100E04086FF1F2E86FF1F3C82FF1F3086FF1F2C82FF1F00510040F05100407C8FFF1F13
:400E40000D510040808FFF1F455B0040045B0040004E0040014E0040144E0040104E0040124E0040035B00409AF80330DBB2012B09D099F80830002BF6D17E4B1B7803F02C
:400E80000103012BF5D17C4B1B7803F00303012B41F26B81022B01F06582784B784A1B8810889BB243EA004099F8083013B100238AF80330B0F57A7FD9F8D44003DDB4F5AE
:400EC0007A7FC1F25C8208F097F90546204608F093F90146284608F097FA6A4908F0E0F908F0BAFBD9F8CC20D9F8CC3009EB8202013303F00303C9F8CC30634BC2F8D80010
:400F00001A78D9F8D030604902F0DF0242F0200201330A7003F001034FF4C370DFF890815A4DC9F8D03005F023FCDFF888E1584A9EF8007098F800C0287813780CF0AA0CEA
:400F400007F0AA0700F0560003F0560388F800C0504C8EF80070287013704F4A0923A8F58D782370DFF850C188F8003001924B4A6FF490708CF8003005440292484F494874
:400F8000494A4A4CAEF5007E8EF8003000213B702B700370137006230E46A4F12005A4F1100C04F1380EA4F12807039336E0121A92B24FF0010803998A4205D9132A00F214
:400FC000CE86B8F1000F12D1397805914FF000018EF80010059941EA00210B44181A030A2B80039B38709A4200F2B98600220136082E2CF8022B04F1020405F102050EF198
:40100000010E07F1010700F06A82029B13F8011F02930BEB4103B3F808340393019B288833F8028F0193238843445B089AB282422280BCD2821A92B2142A40F2DE869EF8F6
:4010400000301D2B41F258804FF000023A704FF000020BEB010393F800344944A5F80080ACF80020A4F800808EF8002081F8C030BCE700BF014E0040144E0040104E00403E
:40108000124E00400060EA46F05100403C5100401E520040105000402E86FF1F249C0000185000401D5000401F5000404C82FF1F2C5100401652004014500040E8B2013507
:4010C00002F0D6F9082DF9D14FF6FF77C24EFF2433784FF0040843F01003337005F050FBBE49BF4A0B7843F003030B70137843F00303137005F048FBBA4BBB494FF434429B
:401100001A8001220F8083F8632005F039FBB749B74A0B7843F003030B70137843F00303137005F031FBB34AB34BB449B44817701C7004700C7082F8294003F8074C05F07F
:401140001FFBB049B04A0B78B04F43F003030B70137843F00303137005F016FBAC4BAD49AD48AE4A1C700C7004701C7113680C7580F84440AA49AB48C1F80080986413686E
:40118000A94CAA48E02222700D60D8643B78A84DA84C81F88322A84823F05503297822783B70037821F0100122F0010223F01003297022700370404604F088FD052004F082
:4011C00085FD062004F082FDDFF8A4E217F8101C9EF8003095F8DF2803F056038EF8003014F8383C21F0100122F0010223F0100307F8101C404685F8DF2804F8383C04F06A
:4012000057FD052004F054FD062004F051FD32788A4B42EA080232703278894942F0080232701A78874802F0FC021A700A781425D2B202700A7A8449D2B20A701A7800F575
:40124000A45042F020021A701A78173002F0FB021A701C7801F58F5144F008041C7003787A4A03F0E703037003780F31002443F0100303700D7014701378754843EA08036C
:4012800013701378002443F0020313700B7803F0FD030B700B78DBB20B700B78127803F00C0357074FEA530348BF013303F1924393F820316649654ADBB20B70137801F502
:4012C000905103F0FB03137013781831DBB213700B78127803F00C0356074FEA530348BF013303F1924393F820215949594BD2B20A701A7801F5905102F0F3021A701A783A
:40130000193142F004021A701B780A7803F00C0355074FEA530348BF013303F1924393F820214D494D4BD2B202700C701A784C4902F0FC021A700A781425D2B280F82E2089
:401340000A7A4849D2B20A701A7800F5A65042F020021A701A78173002F0FB021A701A7801F58F5142F008021A7003783E4A03F0E703037003780D3143F0100303700D703D
:401380001470137843F004031370137843F0020313700B7803F0FD030B700B78DBB20B700B78127803F00C0354074FEA530348BF013303F1924393F830312C492A4ADBB240
:4013C0000B70137801F5905103F0FB03137013781B31DBB24EE000BF7E6400409C6400409D6400402C6400404C6400409F640040986400402F6400404F64004028640040D7
:401400000F6400409A6400409E6400402C5100402A6400404A6400400A64004008ED00E080E100E09937000002E400E045360000FC510040C35A0040835A0040405800404C
:40144000AD0100493046004031460040215800400846004020580040805B004043580040B30100493746004025580040094600403C51004013700B78127803F00C03500757
:401480004FEA530348BF013303F1924393F830219A499B4BD2B20A701A7801F5905102F0F3021A701A781C3142F004021A701B780A7803F00C0351074FEA530348BF013342
:4014C00003F1924393F830318C48DBB28D4A037000210123117089F88430FFF7CFBA8A4900220A70894AFF2313701378DBB25A1CD2B2032A01F297820533DBB2043BDBB24F
:401500009A4240F0228482490A7842F00C020A707E4A13701378032B02D91378032B09D8794B794A1B7843F001031370774B187801F0D6FF774AD9F8D03001211160002B3D
:401540007ED14FF6FF72DAF8CC300AEB8303D3F8D8309342DAF8CC3001F000806E4AD15C002900F01087DAF8CC20DAF8CC00DAF8CC100AEB82020AEB4101B1F800330133D7
:4015800003F01F0303EB40130AEB8303D3F80031C2F8F030614B1B68ABB3D9F8CC40D9F8CC3009EB840409EB83035D49D3F8080307F06EFD0146D4F8F00008F02DF8002831
:4015C00040F0B087DAF8CC40DAF8CC3054490AEB8303D3F8080307F059FD0AEB84040146D4F8F00007F0FAFF002840F09B87DAF8CC30DAF8CC200AEB83030AEB8202D2F869
:401600000823C3F8F020D9F8CC20D9F8CC3009EB82020BEB8303D2F8F000D9F8CC10D3F8181407F033FD3F4907F03AFE4FF08C4107F02EFDD9F8CC4009EB8404C4F818039C
:40164000D9F8CC30384A52F83330002B44DBDAF8CC300AEB8303D3F8180307F0FDFFDAF86C33984238D0DAF8CC300AEB8303D3F8180308F017F82D4B2D4900F07F021B7887
:40168000C0114A70E02288700A70002B41F0B781284B28491A881F4B04321B680A800B2B1C4A0CD822492248234D09784478E9548078591C6C54991C033368541360D9F80D
:4016C000CC301E4A012109EB83031160D3F8180307F0C2FFC9F86C03194B1B78002B00F0B780184FD9F87013DFF8288007F2F22407F29236002501976CE000BF0946004001
:4017000024580040815B00404086FF1F2E86FF1F7E6400405887FF1F7087FF1FAC9D00009A99193F0080AA433487FF1F5487FF1FF086FF1F5687FF1F5C87FF1F6C87FF1F33
:401740006C6400401E82FF1F193883426CD33378B3481FFA83FE805A86452ED0042D67D0B048B149C3F17F0383700978B023037005F111034370002940F04383AB4BAB4854
:401780001988AB4B04311B6801800B2B0FD8A549A448A84F097890F801E0F9548078591C07F801E0991C03337854C8F80030A24B012119603078D9F87013994F013543015A
:4017C000B852052DA7F10C00835204F1200406F1010638D0019BB9F8680033F8022D121A019301EBC50312B209EB8303C3F87423A26894E809001844E36810442269184491
:4018000063691044A269184402448C48E36930F815001344DB088A4A00F1190E734542F825304FEA45028FD9C3F3471333708FE7844B1B785E0701F193834FEA4E13A9F8F6
:4018400044E4A9F838344B1C03F00703C9F870337D4A1378DF0740F1E9817C4F7C4E3B4637464FF00108002499F85824211D0A4112F0010200F0FF814FF6FF727549A0007A
:4018800051F824100190914200F0D5817249002241F8242071490A553A7009EB440109EB080291F8345092F8342002EB052543F8045B6B4A002D00F0E78101995258002A69
:4018C00000F0F1810134664A0199042C555007F1010708F10208C7D1624A1378DE0740F17C81614B604A1B78002B40F08081514A51491278D2B289F820204E4A137052781F
:40190000D2B289F821204B4A53709278D2B289F82220484A9370D278D2B289F82320454AD3701279D2B289F82420424A13715279D2B289F825203F4A53719279D2B289F869
:4019400026203C4A9371D279D2B289F82720394AD371127AD2B289F82820364A1372527AD2B289F82920334A5372927AD2B289F82A20304A9372D27A0968D2B289F82B2018
:401980002C4AD372127BD2B289F82C20294A1373527BD2B289F82D20264A5373927BD2B289F82E20234A9373D27BD2B289F82F20204AD373002900F0E1834FF001038AF8DA
:4019C00020301D4A00231360194B1B68102B00F22581174A99F8203001211160002B40F0908399F88034002B40F02E830E4B1B78002B40F03C831D4B1B78DA07FBD41C4B34
:401A000002931C4B0393029A039912F8013F029211F8012F1A44D2B2039101923CE000BFD885FF1FF086FF1F5487FF1F5687FF1F5887FF1F5C87FF1F6C87FF1FCC85FF1F60
:401A4000B885FF1F3151004067650040E485FF1F7087FF1F7482FF1FFC89FF1FF889FF1F0886FF1F67640040E88AFF1F4086FF1F239C0000FF9A0000B8F8A00024EA020266
:401A80006045514403DA86F8582481F8C0700133019ADBB29A4233D9B4490120C95C03F0070209EBD30600FA02F296F858440BEB4100B0F85854D2B2B0F868040BEB0107E3
:401AC0002242C0EB050C0AEB430897F800742844D2D1B8F8A0E00AEB010C864509EB010577DD9CF8C010013301299CBF224386F85824019ADBB201399A4285F8C010CBD87F
:401B0000029B1A469A4B9A427FF47DAF99F8583499F8842489F81430D9F8CC30D9F8CC1009EB430309EB810191F8D9101973D9F8CC30D9F8CC1009EB430309EB810191F852
:401B4000D810597302F00F0389F81B30013299F8143089F88424874A13F0010F137803F0FD0318BF43F002031370834A13789B0604D582490B7813789F06FBD499F83030AC
:401B8000DBB2172B0AD87E4A1B011A44137843F020031370137843F00103137099F80930DBB2172B0AD8764A1B011A44137843F020031370137843F001031370714B7149B5
:401BC000D3E90023013243F10003C1E90023FFF76FB8514481F8C07059E71378DD067FF57CAE694B684A1B78002B3FF480AE99F87C34002B00F0C582644B197803238AF818
:401C0000203000238AF87C341370AAF87E34604B8AF821101B68102B7FF6DBAE5D4A137803F0FB0343F004031370D2E61378DE063FF513AE0DE64FF00105574A57495848F9
:401C400052F8242051F83410055553480132002940F82420C1F2B7814FF00101802A39707FF61BAE02934F4BA2009858214602F0C5FD029B11E648493A7041F82420484906
:401C80000A55A200019208E601981258002A7FF719AE0293434B2146185802F0AFFD029B53F8045C0EE603933F4B0592585807F0D3FC3E4B3B4A196801EB410100EB81030B
:401CC0000199284653501E4607F096FA4FF05E5107F0E6FA06F09AFF354907F0D7F9354907F0DEFA07F0B8FC7F280290039B69DD7F220292294A5268002AC2BF2E480021FC
:401D000001602649D8BF0022C9688A4203DA0A46294901200860214949698A4203DA26480A46022101601D49C9698A4202DA224903220A60029A182A76DC204A1F49126838
:401D4000013202F01F020A60BCE51D4963D30A7802F0FB0242F008020A70FFF7D9BBB8F1000F3FF443A9FFF742B900BF249C00002B9C000020510040686500405B650040F9
:401D800010700040108AFF1FE88AFF1FA89D00005887FF1F00510040FC89FF1F3487FF1FF889FF1FF885FF1F189B0000AC9D00000918C43C551D0243288AFF1FF489FF1F53
:401DC0007E6400400028059A94DC934951F83400E10000280E4606DD1146029303F0B4FF029B53F8045C8C4800224FF0FF3E40F806E03A7040F8282064E54FF00008FFF7D7
:401E0000DAB8864B1B78D9077FF5B8AC029202F079FC029AB2E413460A7802F0F70242F004020A70FFF774BB7B4A1268002A32DB7B487C49427009789022027000228270C1
:401E4000002940F0E585784A77481188774A0431126801800B2A0FD8714871494578097890F802E072488154511C4554911C00F801E06E4903320A606E4900250A784FF04F
:401E8000FF3002F0FB020A70634A012155606A4A1160614A1060604A9268002A31DB60486049427009789022027000228270002940F0D9855C4A5C4811885C4A0431126841
:401EC00001800B2A0FD8564855494578097890F802E057488154511C4554911C00F801E0524903320A6053494B4D0A784FF0FF3002F0FB02A8600A704F4A00200121E8606F
:401F00001160454A1269002A31DB45484549427009789022027000228270002940F09885414A41481188414A0431126801800B2A0FD83B483A494578097890F802E03C483E
:401F40008154511C4554911C00F801E0374903320A603849304D0A784FF0FF3002F0FB0228610A70344A00200121686111602A4A9269002A31DB2A482A4942700978902298
:401F8000027000228270002940F05785264A26481188264A0431126801800B2A0FD820481F494578097890F802E021488154511C4554911C00F801E01C4903320A601D4987
:401FC000154D0A784FF0FF3002F0FB02A8610A70194A00200121E861116003930E4B304643F83460154B00250026DDF808E0C3E90056094B002243F828E04FF0000371466E
:402000003B7003F0A1FE0E4B00221A600D4B1A70039B53F8045C55E43487FF1F6D640040F086FF1F5487FF1F5687FF1F5887FF1F5C87FF1F005100406C87FF1F108AFF1F40
:40204000FC89FF1FF889FF1FB14B1B7813F0010400F0CF84AF4B1B78002B00F09383002389F88034AB4B1B78002B3FF4C4ACA84B1B78D9077FF5BFACA74B1B88402B04D9B5
:40208000B9F882340133A9F88234A44B00221978A14B1A80A14B21B119781A70002940F04B859F4B1B78002B3FF4A5AC9B4B1A782AB11A7800211970002A40F05085954B3A
:4020C0001B78002B40F03F86924B1B78002B3FF492AC8F4B1B78D9077FF58DAC914B924A1B7803EB430302EB83035B78012B7FF482AC02F089FC7EE401338EF80030FEF7DD
:4021000075BF8A4A13789C0604D589490B7813789806FBD499F84430DBB2172B0AD8854A1B011A44137843F020031370137843F00103137099F81C30DBB2172B3FF651ACBE
:402140007C4A1B011A44137843F020031370137843F00103137044E4774A784B12881B889BB243EA0243FEF717BE734A734B10881B889BB243EA0040FEF796BE8AF8201099
:402180001FE402226E4B8AF820206E4A19781288BAF87E348AF821109342C0F04F82FE238AF82230FE2389F82330FE2389F82430FE2389F82530FE2389F82630FE2389F8BC
:4021C0002730FE2389F82830FE2389F82930FE2389F82A30FE2389F82B30FE2389F82C30FE2389F82D30FE2389F82E304FF00102FE2389F87C2489F82F30FFF7E5BB524908
:4022000001229A400978D2B20A424F4819D021EA02024E49027051F823404D492278C95C4C4822EA01022270C05C4B4A4A49125C013AD2B20A5422B948490A7822F01002A1
:402240000A705B00DBB20BEB8302D2F878040BEB03010133027891F88844DBB20BEB830122EA0402D1F8781402705B4493F888240B7823EA02030B70FEF73DBD324993403B
:402280000978DBB20B42304819D021EA03032F49037051F822402E492378895C2D4823EA01032370805C2C4B2B491B5C013BDBB20B5423B929490B7823F010030B70530080
:4022C000DBB20BEB8302D2F878040BEB03010133027891F88844DBB20BEB830122EA0402D1F8781402705B4493F888240B7823EA02030B70FEF760BD0F4B1049184A1B8803
:4023000009781278120242EA03430B43FEF744BD6D6400405487FF1F5687FF1F858FFF1F868FFF1F948AFF1F8486FF1F686400405364004010700040124E0040104E0040F9
:40234000A89D0000EA8AFF1F7C8FFF1F349F00003C9F0000409F0000808FFF1F005B0040114E0040AB49AC4AAC4B088812781B781B0243EA004342EA0300FEF795BD4FF693
:40238000FF70FEF7AFBDDAF8CC50DAF8CC00DAF8CC20504490F848330AEB8202D2F8D82003EB4503DAF8CC400AEB8303DAF8CC00C3F82823DAF8CC200AEB8404C4F84C13A8
:4023C0000AEBC0030AEB8202D2F84C03D3F82843DAF8CC10DAF8CC302044C2F84C030AEB83030AEBC102D2F82C13D3F84C23DAF8CC601144DAF8CC00C3F84C13DAF8CC2035
:40240000DAF8CC10504490F848330AEB8101DAF8CC50D1F84C13DAF8CC40DAF8CC00013303F001030AEB8202490856440BEBC00086F84833C2F84C13D0F8280406F0D8FE37
:4024400006460AEB8404D4F84C0306F0D1FE314606F01CFEDAF8CC4007460BEBC404D4F82C0406F0C5FE314606F010FE0146384606F0CAFF6A4906F013FF6A4906F008FE25
:4024800001464FF07E5006F0BFFFDAF8CC40DAF8CC20DAF8CC300AEB8505C5F85C030AEB82020BEB8303D3F84814D2F85C0306F0F7FE0021054607F0AFF8002800F06A82D1
:4024C0005949284606F0ECFE06F02CFB574906F0E7FE09EB8404D9F8CC50C4F8F000D9F8CC20D9F8CC30D9F8CC10D9F8CC4009EB830009EB420209EB4403B2F80023B3F8C9
:40250000003302EB4512D0F8F000013309EB820209EB410103F01F03C2F80001A1F80033FFF738B8D9F8CC40D9F8CC3009EB840409EB8303D3F8F00006F0D0FAD9F8CC3020
:40254000D9F8CC20C4F8F00009EB8202D2F8F02009EB8303C3F80823FFF755B8DAF8CC20DAF8CC000BEB8202D2F81814304A0AEB8303125CC3F8F0102E49002A00F00C8234
:40258000DAF8CC10DAF8CC00DAF8CC20DAF8CC400AEB4202B2F80033DAF8CC20013303F01F0303EB40130AEB8303DAF8CC00D3F800510AEB4203B3F800230AEB8101C1F868
:4025C000F0500AEB8000DAF8CC10DAF8CC3002EB4412D0F8F0000AEB82020AEB4303B3F80033C2F80001144A013312680AEB410103F01F03A1F80033002A3FF404A8DAF863
:40260000CC40DAF8CC300AEB84040AEB8303FEF7CCBF00BF124E0040104E0040114E0040C1A1F1BEC1A1713FD27EFA3DAC7F8A417087FF1F00970000AC9D00005049C85C5A
:40264000591C89B2C0B291428AF82200AAF87E144B48BFF4A7AD445C991C89B2E4B291428AF82340AAF87E14BFF49FAD445CD91C89B2E4B291428AF82440AAF87E14BFF4DC
:4026800097AD445C191D89B2E4B28A428AF82540AAF87E147FF68FAD445C591D89B2E4B28A428AF82640AAF87E147FF687AD445C991D89B2E4B291428AF82740AAF87E1408
:4026C000BFF47FAD405CD91D89B2C0B291428AF82800AAF87E14BFF477AD2948405C03F1080189B2C0B2914289F82900A9F87E142348BFF46CAD445C03F1090189B2E4B227
:4027000091428AF82A40AAF87E14BFF463AD445C03F10A0189B2E4B291428AF82B40AAF87E14BFF45AAD445C03F10B0189B2E4B291428AF82C40AAF87E14BFF451AD445C0E
:4027400003F10C0189B2E4B291428AF82D40AAF87E14BFF448AD445C03F10D0189B2E4B291428AF82E40AAF87E14BFF43FAD425C0E33D2B28AF82F20AAF87E34FFF724B985
:40278000708BFF1FBD4B1D781E46002D40F0A18003F0F6FF4FF001040746B948B94A0378B94943F001030370137800F5E35043F001031370043002F5E25202230C701B3223
:4027C00003701378B14C03F07F031370284603F0CFFF2378AE4A03F0F903237013784E2003F0DF031370237843F00103237003F0BFFF4FF4436003F0BBFFA64B9C201A7869
:4028000002F07F021A701A7802F0BF021A70237843F00203237003F0ABFF23789E499F4A43F0040323700D7015709D4AFF23537013709C4A384613705370994A04F1A024FA
:402840009370984A82349370954AD370954AD370934A1371934A1371914A5371914A53718F4A93718F4A93718D4AD3718D4AD3718B4A13728B4A137203F086FF8A4B8B48B2
:402880006022196802708A48C1F89C008948196802708948C1F8A0008848196802708848C1F89400874819680270874848658748196802708648886518682570854C86493E
:4028C000C0F898401B680A70844A1A674FF001033370834900230B708249734A0B7082494FF400040B70814981480B708149824E0B7082490B7082490B7082490B70824B5A
:4029000015681C604FF080741C604FF400141C6020241C607D4940241C6003240C707C4A4FF480011960502111707A4910220260E0202E6508701A6003F022FF764A774EA9
:402940001378802543F01003137003F01DFF03F017FF734A137843F01003137003F014FF704A71491378012043F00103137034700D7003F0FDFE464B04221A705B4B1B78CC
:40298000002BFBD002F0C2F94FF00102674B1A70FFF765BB66489CE5DAF8CC50DAF8CC40DAF8CC60DAF8CC00DAF8CC300AEB4404B4F800230AEB4303B3F8003301EB8601E3
:4029C000D1F8184402EB4512DAF8CC100AEB820201330AEB400003F01F030AEB8101C2F800414FF08C42A0F80033C1F81823FEF727BE02F091FB4D4B1C70FFF730BB4D4B96
:402A00001B78D8077EF544AE01F07CFEFEF740BE484A1278D5077FF516AA039301F072FE039BFFF710BA0533DBB2072B98BF04227EF664AD0423FEF766BD3E4A1278D207BD
:402A40007FF5A4AA039301F05DFE039BFFF79EBA384A1278D1077FF563AA039301F052FE039BFFF75DBA334A1278D0077FF522AA039301F047FE039BFFF71CBA708FFF1F6E
:402A8000A5430040B54300409D6000409443004012600040F851004084600040856000402C8AFF1F648AFF1F08ED00E017E400E0DD5F000018E400E0ED38000015E400E038
:402AC0000D60000005E400E06560000006E400E011600000AD5E00000CE400E0B54800006686FF1F848FFF1F858FFF1F868FFF1F80E100E0878FFF1FD15D0000888FFF1F50
:402B0000898FFF1F8A8FFF1F00E100E09E6000409C60004004E400E095640040286000409664004009600040086000405487FF1F0080BBC46D640040AC4B1B78002B3FF4A8
:402B4000B0AAAB4B1B78002B3FF4ABAAA94B1B78DA077FF5A6AA02F0D9F8FFF7A2BAA64B1C78A64BE4B21D78631E072BEDB27FD8A34A04EB440302EB8303DA78A14B260139
:402B80003344D2B21A705D709F4B9F4F1B5DFF2B00F0F8809D4A115D17290AD89C4A09010A44117801F0FE011170117801F0DF011170984AADB222F814509749974A202D8A
:402BC00042F82410964A28BF20251F06105D17D4DB0003F1804303F5F04311271D809870DF70894B8F481B5D30441D0680B206D4DB0003F1804303F5F0439980D880105D94
:402C0000894B195D030619D44FF00102C30003F1804303F5F0431A809870D970804B834A1B5D834932441F0692B289B206D4DB0003F1804303F5F0439980DA80734B1A5D4D
:402C4000172A15D8724B120113441A7942F004021A711A7842F001021A706B4A125D5A721A7842F020021A701A7842F001021A70704B1C78E4B2631E072B4BD8624B195DC9
:402C80001D46FF2978D0614B1A5D172A0AD8604B10010344187800F0FE001870187800F0DF0018700E061DD4CB0003F1804303F5F0431222402018809970DA70524B22011A
:402CC0001B5D5D4902F5C0421D0602F1780289B206D4DB0003F1804303F5F0439A80D9804A4B1A5D172A15D8494B120113441A7942F004021A711A7842F001021A70424A7D
:402D0000125D5A721A7842F020021A701A7842F001021A70474B1B78DBB25A1E072A3FF6CEA9374903EB430201EB8202002151705179344A1B011A44C9B22D4B91701B7842
:402D4000002B3FF4C1A92B4B1B78D8077FF5BCA92A4B1B78002B3FF4B7A9274B284A1B7803EB430302EB83035B78012B7FF4ACA901F0A6FDFFF7A8B92F49204602F0F0F87C
:402D8000295D80E72449204602F0EAF83B5D01E702F5035211320F21284B11701A78900604D5274A117819788906FBD403F0E8FC244B1A7842F001021A701A7802F0FE0247
:402DC0001A7003F0E1FC2048204B1C490078204A02200978187020210123117089F88330FDF72BBE1B4B0493FDF778BB868FFF1F5487FF1F6D6400408186FF1F8086FF1F93
:402E00008486FF1FFC5F00402C8AFF1F588AFF1F10700040388AFF1FF486FF1F708AFF1F648AFF1F78600040B09D000070600040CE80FF1F948AFF1F988AFF1F6864004036
:402E40005364004093640040676400408764004088640040C480FF1F714A724D1646049201223270CB702A786F4C47F2E97042F010022A7022786D4D42F010022270E022FB
:402E80002A706B4A042414706A4C6B4D2370137294F8702242F0180284F87022674A2B70A2F5427282F8083384F8F2320A241470634C537023701224147213245472614C10
:402EC000A2F67F222370142414705F4A0F2412788C7152B25201347802F50F425C3200FB02F201EB840084785848D20B047030788A8031F82000564A108032780B72012A45
:402F00007DF4E9AA02F0C6F9FDF7E5BA514BDBF80011DE60012683E850081D611A755A75C3F818B05846DBF800200BF5807419B1914284BF0A469C60D0F80012464C19B15B
:402F4000914284BF0A469C60D0F80013434800293DF466AA91427DF663AA9860FDF760BA3F4B404993F818243F4B8A701B78B0220A7015224A70FBB93C4B3C491A883C4BAF
:402F800004321B680A800B2B394A0CD835493548384D09784478E9548078591C6C54991C033368541360344B01221A60D9F8701399F818E4FEF741BC304B1B78DB07DBD561
:402FC00001F0A0FBD8E700223A70FEF766BC2C4A0F212C4B11701A78950604D52A4A117819788C06FBD403F0CBFB284B1A7842F001021A701A7802F0FE021A7003F0C4FBD3
:403000002348244B1F490078234A02200978187020210123117089F88230FDF7EBBC00BFC480FF1F82400040024100401DE400E0965800409758004093580040885B004058
:40304000835800408D5800401D0100490E4E00400C4E0040A08FFF1F00990000009A00009C81FF1FF086FF1F5487FF1F5687FF1F5887FF1F5C87FF1F6C87FF1F6D64004010
:4030800089650040686500405B6500409B6500406765004087650040886500402DE9F84304460F4603F06CFB8A498B4A0B788B4D43F008030B701378C4F3072843F008037B
:4030C000137003F061FB03F05BFB2B78002B4DD003F05AFB240CE6B23F2E8CBF4FF010094FF4807921067DD4741F3A2C8CBF00240124412E0ED83F2E0DD89FB194B903F032
:403100003FFB2B780146754A002B6DD003F03CFB042408E00124B8F1810F28BF0124B9F1100FEAD0012403F02BFB00BF00BF00BF00BF00BF00BF00BF00BF00BF00BF00BFAA
:4031400000BF00BF00BF00BF00BF654A13889BB243F0040313801388BFF36F8F03F014FB002C14BF04200020BDE8F88301215D4B297002461868C00707D5186820F0010021
:40318000186000BF00BF00BF6960104603F0FCFA554B1A78920740F1AB80544AB6211170E0200D21107011701A78910706D41E464E2003F0DDFA33789B07F9D54A4B1A7824
:4031C000920740F129811E78B60840F0258103F0D7FA6B680146012B2E7000F0938003F0D3FA9FE0012484E701203E4B1070D3F800E01EF0010F09D0D3F800E02EF0010E13
:40320000C3F800E000BF00BF00BF5060084603F0BBFA354B1A78900740F1F2803349B6220A70D520022208700A701B789A0700F1FF8008463A460E7012F8011BD31B9BB29A
:4032400099450170F8D8B9F5807F00F0F380264F3B78990705D44E2003F08AFA3B789B07F9D5214B1A78970730D51A7892082DD11A78920740F1C4801C4AB627D8200521AA
:4032800017701070117019782F7A01F0020101F0FF0E687A002940F0CB80167082F800E082F80080177010701A78960706D41E464E2003F05DFA33789907F9D50A4B1A78CE
:4032C000900703D51B789B0800F09B804FF0FF3497E000BFA0430040B04300402486FF1F00480040040008402247004020470040042603F045FA6B680022012B01462A70D6
:403300007FF4E6AE544A136843F00103136000BF00BF00BF002308466B6003F035FA002E7FF4D8AE03F02CFA4C494D4A0B7843F008030B70137843F00803137003F024FA23
:4033400003F01EFA2B780146464A002B7FF4C0AE0120414B10701E68F60707D51E6826F001061E6000BF00BF00BF50603E4E084603F00AFA33789B072FD53C4BB6221A7017
:40338000E1210E2219701A703278920725D401221A703378DB0705D44E2003F0E9F93378D907F9D5314B304E1A7833782A72D80705D44E2003F0DCF93378DB07F9D52B4A4C
:4033C000294B11781A786972920706D41E464E2003F0CEF933789807F9D503F0D1F96A680023012A2B701F497FF472AE1A4E326842F00102326000BF00BF00BF4B6067E6DB
:40340000042403F0BDF96A680023012A2B70154904D003F0B9F986E607266AE70E4D2A6842F001022A6000BF00BF00BF4B60F0E70924E6E73F2E3FF60AAF06F5103108EB50
:403440000121490109480A46203112F8013BDBB28A420370F9D1FAE604000840A0430040B04300402486FF1F2247004020470040194B032803EB000170B41A5C0C7A18D8EA
:4034800080001D182D6991F82C60297821EA060129700F2A1ABF03EB8202926D0F4A18441378816F23EA040309201370087070BC7047011FC9B206290BD803EB81056D6B99
:4034C000194491F850602978800021EA06012970DFE78000DDE700BF8C9B00007E5200400328F0B51AD84D4A031D1518134493F8981095F8984095F8A0E014440A4494F896
:40350000A860474F93F8A040464D92F8A8204649464B87F800E02E700C701A70444A454C454B1E250F21257011701A7842F001021A701B785A0732D43F4B1B781B0705D4DF
:403540003D4A137843F002031370F0BD021DD2B2324B3A4D96002C7899198F6F995C04F0FE042C700F294FF0090503EB02043D70257A3CD003EB81018C6D2178032A41EA8E
:403580000501217035D90628DAD803EB8002526B1844117890F850300B431370D0E71F4BA4F6B534850021785A19966F1A5C01F0FE012170092719180F2A37700C7A21D0B2
:4035C00003EB8202916D0A78032842EA04020A701AD9021FD2B2062AAED803EB8201496B134493F850300A7813430B70A4E7144CC3E71E443169134493F82C300A78134333
:403600000B709DE70E49DEE71D442A690344117893F82C300B4313708EE700BF8C9B0000805B00405F640040815B00405A64004035640040256400407E6400407258004092
:403640007E520040F0B44C4A4C49137803F0F7031370887A1478C0B2031D6507DBB206D41478240703D4147804F0FC041470444A01EB43041278434E1502A5813278424E98
:403680002A43D243F518032BA2812F7AF25C4CD89B00F018046995F82C50207820EA050020700F2A1ABF06EB8202906D3748334402789E6F364C22EA07030025354A092752
:4036C00003703770257013782B4843F0010313700378580727D40A7F284B12061FD49B7ADBB25A1CD2B20533032ADBB235D8043BDBB29A4238D0204827D3027802F0FB0271
:4037000042F0080202708B728A7A1C4B032A02D99A7A032A03D8F0BC887AFFF7E1BE1A7F02F0FE021A77F0BC704706280BD806EB8004646B304490F8505020789B0020EA5F
:4037400005002070ADE79B00ABE71346027802F0F70242F004020270D5E7072B0AD8043B0422DBB29A42C6D10348027842F00C020270C8E70423F7E77E6400402486FF1F41
:403780001E6400400E6400408C9B00007E520040815B004072580040F0B44C4A4C49137803F0FB0313708B7A1078DBB2450706D41078040703D4107800F0FC001070454A3D
:4037C00001EB4304127844481502A581027843482A43D243C518032BA2812E7AC25C4CD89B00C418276995F82C503C7824EA05043C700F2A1ABF00EB8202946D384C0344D0
:40380000227838489F6F002522EA0603364A092623703E700570137843F00103137090F8FE38180727D40A7F294B12061FD49B7ADBB25A1CD2B20533032ADBB237D8043BC0
:40384000DBB29A423AD0214829D3027802F0FB0242F0080202708B728A7A1D4B032A02D99A7A032A03D8F0BC887AFFF739BE1A7F02F0FE021A77F0BC70471C1FE4B2062CAF
:403880000BD800EB84056D6B044494F850702C789B0024EA07042C70ABE79B00A9E71346027802F0F70242F004020270D3E7072B0AD8043B0422DBB29A42C4D10348027836
:4038C00042F00C020270C6E70423F7E77E6400402486FF1F18640040086400408C9B00007E520040805B0040705800402DE9F04F934A89B01378DBB2D80609D519060AD47C
:4039000003F0400202F0FF01002A70D19C064ED409B0BDE8F08F03F00F03012BF8D11378DBB213701378DBB21A0600F15383854CA36843B1A2680221834B1170A2681988C9
:4039400000235180A360814A137803F06003202B00F06481402B00F05B81002B00F086817B4903230B700B781D06D1D4744A13781B06CDD47749784B08781B7877490343D4
:403980000B7009788B42C3D171490C460B781078DBB2000605D42378DBB21370137803F00F0308789842F1D109B0BDE8F08F6C4A1378DBB2042B00F0F980062B00F0EF80FD
:4039C000022BD3D1674B604C1D7823885D482B449BB2238011708368002B00F0DC80836801221A70836822885A808160D3E05C4A1378DBB2042B00F0C180062B00F0B48063
:403A0000022BB3D15048574D4E4C2E780188314489B20180208880B2002800F0E88261684A480978C9B201706168013161602188013989B22180218889B2002900F0D582AC
:403A400061680978C9B241706168013161602188013989B22180218889B2002900F0C28263681B78DBB283706368013363602388013B9BB2238023889BB2002B00F05F83A8
:403A800063681978C9B2C1706168013161602188013989B22180218889B2002900F04D8361680978C9B201716168013161602188013989B22180218889B2002900F0438341
:403AC00061680978C9B241716168013161602188013989B22180218889B2002900F0318361680978C9B281716168013161602188013989B22180218889B2002900F027834A
:403B000061680978C9B2C1716168013161602188013989B2218023889BB2002B00F015832B7808200B4C0A4923780F2783F08003022623700F701670074B1870287015E7FE
:403B4000286000408C8FFF1F9C8FFF1F00600040998FFF1F988FFF1F9A8FFF1F29600040848FFF1F8A8FFF1F6E4B197831B119786D4C41F0800100202170187000216B4B20
:403B800011709A683AB19A680124694814709A68008850809960674903230B70E6E6634B9A68002AF7D09A680324EEE7624B60481A78038802F00F02023AD2B213449BB253
:403BC0005A4C038023889BB2ABB1FAB15B4801E00131DAB16568435C013ADBB22B706368D2B2013363602388013B9BB2238023889BB2002BECD1524B52481A7003784D49BE
:403C000083F080030B2203700A70AFE60022F2E713781E067FF5A4AE5378A1E6137803F00303012B00F0D981022B40F0D9811379454A03F07F0303EB430302EB83039B7A20
:403C4000DBB2022B3FF68CAE404A526AD35C012B7FF486AE394B1A78197802F00302022A02D0012A7FF47CAE5B7879E611782380CBB21F06527800F1C281013A0A2A3FF6CD
:403C80006FAE01A151F822F0653F000061390000053F000061390000E33E0000613900006139000061390000613D000061390000B53C00002148264C03792178234AC9B2DE
:403CC0000129DBB292F8225040F04382022B3FF647AE134493F82C501E4EEDB283F830508578EDB283F82C50037900791344C0B2307093F8300093F82C30984205D0164BBE
:403D000019702378002B40F07F83144E09490D4C0B4A06238025002033700B702570107021E600BF888FFF1F086000408C8FFF1F9C8FFF1F998FFF1F2960004000600040AB
:403D40009A8FFF1F988FFF1F8486FF1F4486FF1F868FFF1F878FFF1F858FFF1F848FFF1FC04B9B7803F0FF012BB1BF4B012993F822307FF4F5ADBD4803789942C5D0BC4BD3
:403D8000B94ABC4D0024012601702E701C709C70DC701C819C725C705C711C739C73DC739C829C755C735C741C769C76DC761C8483F822405C765C7783F8244083F82640E2
:403DC00083F827409C8583F82E4083F8254083F8294083F8304083F8324083F833401C8783F83A4083F8314083F8354083F83C4083F83E4083F83F40A3F8444083F84640CF
:403E000083F83D4083F8414083F8484083F84A4083F84B40A3F8504083F8524083F8494083F84D4083F8544083F8564083F85740A3F85C4083F85E4083F8554083F8594096
:403E400083F8604083F8624083F86340A3F8684083F86A4083F8614083F8654082F82C4082F8304082F82D4082F83140017800293FF44BAF017892F82250C9B2B14240F0C4
:403E800065827D4D1F462C788B4634432C70DFF80CA202244FF0090840264FF0810C4FF00D0906E0022900F057810131092900F0948101295FFA81FEF4D19D8AADB23F2DE7
:403EC00000D8BE8292F82D50002DEED16B4D83F810C01C7383F8119083F80DB085F800E0E3E7604B664F9B78664EDBB26649674C67483B7006228025002332700A70257099
:403F0000037030E503F00303012B00F03781C0F00682022B7FF424AD524B9A7802F0FF00002A7FF41DAD1B7903F07F035A1E072A3FF616AD4E490C2202FB031291781B01D6
:403F400041F001019170D070517841F002015170127912F0800F4F4A1A4414BF8D2389239370D2E603F00303012B00F00781C0F0EF81022B7FF4F4AC3A4B9A7802F0FF008D
:403F8000002A7FF4EDAC1A7902F07F02531E072B3FF6E6AC364B0C2404FB023399783D4D01F0FE019970D87028461201515D104401F07F015155597801F0FD025A701A79E2
:403FC0005B78170600F12883012B0CBF0823092383709AE62C490B70C5E41379DBB230E6002331E618462B789CE50120FBE7297808293FF497AD24490B7013709CE50A2A84
:404000003FF6AEAC01A151F822F000BFFF4000006139000061390000613900006139000061390000A14000006139000055400000613900003940000001220A4B22801B7923
:40404000154A1344636002F037F800283FF488AC0D4988E4054B01222280636002F02CF8F3E700BF006000404486FF1F868FFF1F8486FF1F858FFF1F898FFF1F8186FF1F5E
:40408000888FFF1F848FFF1F998FFF1F988FFF1F9A8FFF1FFC5F00407086FF1F948AFF1FB24AD378012B00F0D182D378022B00F0BA82D378032B7DD19378002B00F0D7823D
:4040C000AB4B197851B1002101E0187830B11D7801319078C9B281422B44F6D3A34A917819B19278802A00F04D821A78002A3FF437AC1A782280636001F0DEFFA5E713F026
:40410000030300F07181022B7FF42AAC974A23801279984B02F07F020C2101FB0233964A9B7802F12801DBB2002082F8283082F82900616001F0C0FF87E7042053E70320CD
:4041400051E706204FE705204DE708204BE7072049E700235B68FFDE1D8CADB23F2D00D83E8492F82D50002D7FF49FAE1C771C7683F81D805D768AF800E096E67B490B79A6
:40418000012B3FF6EDAB88787B4A0B797B4F134493F834207A4922EA00027A4D7A4C83F83420062080260023387008702E702370FFF7D9BB137803F00303012B3FF40DAF27
:4041C000022B7FF40DAF12796A4B02F07F020C2101FB02339B7ADBB233E501249C7583F82240007869496A4DA04218BF00210C201D2692F82270516228706E70597C5D4D97
:4042000001F0FF02002940F0B48162498020887061481D240C21017044705C7F5548002C40F092815D49802088705D481D240C210170447093F829404E48002C40F08E812D
:4042400058498020887058481D240C210170447093F835404748002C40F0618153498020887053481D240C210170447093F841404048002C40F05D814E49802088704E4810
:404280001D240C210170447093F84D403948002C40F03A8149498020887049481D240C210170447093F859403248002C40F0218144498020887044480C211D24017044708D
:4042C00093F865002B4B002800F00F8193F8643013F0800F3D4B40F00A81082142F0800299703B4C3B4B3C483C4955263C4D26702027002603241F702E7004700A7013F86C
:40430000202CFF2042F0800203F8202C13F8202C02F07F0203F8202C01F8850CF5E4134B9B78012B7FF41CAB2E48144F03781449144D154C43F002030370062280260023BD
:404340003A700A702E702370FFF70DBB6368FFDE064B9B78012B7FF403AB2248074F03780749084D084C03F0FD03E5E700600040409C00008486FF1F4486FF1F848FFF1F21
:40438000998FFF1F988FFF1F9A8FFF1F049D0000806000400C600040906000401C600040A06000402C600040B06000403C600040C06000404C600040D06000405C600040E2
:4043C000E06000406C600040F06000407C6000408C600040BC6000408E6000408F600040BD600040898FFF1F0221AB4A21801178AA4AC9B202F1280082F8281082F82930BC
:40440000606001F059FE20E6207892F82230C0B2012867D13778A249FFB2DFF8E092A14DDFF8DCE23A444FF0000804E09E4B08318B423FF46AAC11F8083CBB42F6D192F894
:404440002C3011F8074C9C42F0D111F806CC0C240CF07F0304FB03FB11F8056C31F804AC09EB0B041CF0800F84F8038084F804C009F80B6006F00306A4F808A040F0F080E0
:40448000012E14BF09260526667184F80180874E4FEA031C864C6644B070644494F800C0013B5E000CF0FE0CF6B284F800C02E702C7844F001042C702C78E406FCD511F90B
:4044C000064C00FA03F3002C9EF80040AABF234324EA0303DBB28EF800302B7803F0FE032B70A3E700231B7AFFDE724B80219970F7E690F85800050600F1BB806E490820C7
:4045000042F040028870D6E690F84C00060600F1B6806A49082042F020028870BDE690F83400000600F1A880654908200243887097E690F84000070600F1A7806149082058
:4045400042F0100288709AE6007F050600F19A805D49082042F00202887066E690F82800040600F195805949082042F00402887069E62A7C564916065ABF0820224600226D
:40458000887045E6534E03AD0FCE0FC53168434E2222514B3270297000211B780846DBB24E4D01932F784E4D43EA072301932F784C4D43EA074301932F78023D43EA0763DE
:4045C00001936B780327DBB202932D78324643EA0523454D02932D78777043EA0543434D02932D7801AE43EA05630293735C08AF03F00F053D4407EB1313013115F8145CE6
:4046000013F8143C0829D07050711571937002F10402EBD1214B68E5012B16BF0D2384708370FFF772BB93781C4A92F82220002B7FF496A92E4B63606368DA7863689B786A
:4046400043EA0223238001F037FDFEE4294A1349122391F822106260238001F02DFDF4E4012E14BF0D260726667160700FE7224B34E5114881701EE611488170F1E50F48DD
:4046800081700AE610488170CFE50E488170F6E50E488170D7E500BF898FFF1F4486FF1F8C9D0000146000409C9D0000FC5F0040706000407C6000406C6000405C60004035
:4046C0003C6000404C6000401C6000402C6000400C600040949D00000301004904010049EC4600400201004905010049060100491C9D0000089D0000409C00008486FF1F33
:404700008F600040F8B53C4C2278637803EB430304EB83039B899BB2043B9A4238D822786378354903EB430304EB83039B899BB2043B9A422AD891F8702091F87100EF2A05
:4047400034D80D780B780D4401331609DBB285F874600B702778237894F872100133DBB223702678237827440133DBB2237025782378264401332544DBB287F87420237022
:4047800086F8740085F874100020F8BD0120F8BD2378002BC3D0637803EB430304EB83035B79012BBBD100F08BF8B8E7F62A0FD002F0FD03F12B15D0F22ACBD10D780B782E
:4047C0000D4401330326DBB285F874600B70C1E70D780B780D4401330526DBB285F874600B70B7E70D780B780D4401330226DBB285F874600B70ADE78086FF1FF0B5274C7D
:40480000CD006319D3F8B43083B0002B30DD94F8D4209026002084F8713084F8706084F8720092BBB4F8D620D4F8D83004320B2BA4F8D620194A13D892F87070D01880F88F
:40484000DC705E1C981C92F871E092F8727016441044033386F8DCE0C2F8D83080F8DC700F4A01201378C4F8EC0003F0FB0313702544002321444FF0FF32C5F8B420C5F803
:40488000B83081F8F03003B0F0BD064B1B78DB07C8D50191FFF736FF0199C3E78086FF1F005100406D640040014801F061BF00BFE0E60B00014B1B78704700BF8F4500409A
:4048C0002DE9F047484A494B14781D78E4B2631E072B24D8464F4FEA44083A46454E08EB040306EB8303DB784FEA0419DBB2EDB24F44DFF808A109F802307D701AF80430F3
:40490000FF2B6CD008EB040306EB8306ADB20023737035B97379DBB2BB70BDE8F087BDE8F0870AEB040191F82C20D044172AA8F80C5081F8203009D82F4B1101C85C00F004
:40494000FE00C854C85C00F0DF00C8541AF804302A49180621D40819DB0090F83820202D03F1804303F5F04328BF202511261D809A70DE700B5D224A01EB84014A441D06E9
:40498000B1F8441092B206D4DB0003F1804303F5F0439980DA8090F82C20172A16D81649120111440879144B40F004000871D05C40F00100D0541AF804004872D15C41F0A6
:4049C0002001D154D15C41F00101D1540D4A19F8023043F0010309F80230BDE8F0870021204600F0BDFA8DE78186FF1F8086FF1FFC5F00408486FF1F107000402C8AFF1F8A
:404A000078600040706000402DE9F04FDFF8F8928FB099F86830DBB25A1E072A00F28280B14A1B0111461A445B5C5378023B03F0FF03032B059375D90022CA46154609EBF1
:404A4000050393F86C30002B6CD0A84B6A1C9AF8AC40134401920293002C52D019469AF8B53000229C46DAF8B830964606939AF8BC3010460C93BAF8BE30DAF8B0800A9321
:404A80000B469AF8B4600233DAF8C0B009920B920892039204924F1E0093079517F8013F190655D409EB080181F8C430012308F101080393009BBB42F0D1049B079D002B6B
:404AC00040F00E81039B0BB1C9F8B08008B1C9F8C0B0089B0BB189F8B5C00B9B1BB19DF8303089F8BC30099B1BB1BDF82830A9F8BE30BEF1000F01D089F8B4600AB189F82D
:404B0000AC40019B4B4493F86C30F02B00F0A380774B1B780BB1774B1B780435059BEDB2AB428CD899F86830DBB25A1E072A0CD8714A03EB430102EB81020021517051798E
:404B4000694A1B01C9B21A4491700FB0BDE8F08FF72BAFD199F8C430002B77D19AF8C63023B901229C469B4610460892B8F1030F6CD90D97614E0325674633E0604920468B
:404B800004F08EFB04F08EFD0BF1010182B24FEA122C2046D2B209EB010409EB0B0E8EF844C1584984F844210BF1020404F00CFD002863D04FF0FF310122174610460BF1B8
:404BC00003035344544484F8441183F84411002308920BF1040B049206930535454506F1050631D23279F47896F807E0520542EA047174790EF07F020A43B17942EA8432D6
:404C000042EAC114002FB9D0012FE6D1069B13F0030236D10021204604F0E0FC002847D1204604F03FFD09EB0B02C0B20BF1010B82F84401069B0120053503444545069357
:404C4000049006F10506CDD3BC460D9F01220024964626462EE79AF8B430002B7FF458AF029A02235078917801228AF8C4008AF8C5108AF8AC20CAF8B03049E7A346012015
:404C8000ABE7032A2046CCD11D4904F009FB04F009FD0BF1010280B2040A09EB0B01C0B24A4481F844410BF1020B82F84401C1E74FF0FF330BF1010209EB0B010BF1020BB4
:404CC00081F844311FFA8BF30A934FF0FF334A440C9709970B97089782F844310227A9E7069BC9F8B830EDE6FC5F0040988AFF1F5487FF1F6D6400408486FF1FF08AFF1FA5
:404D000000FEFF46000080BF2C8AFF1FF8B5874A874B002111701C78E4B2631E072B00F2F1806700834B3A1903EB8203DA78824B26011846D2B233444021804D32545970D4
:404D40002B5DFF2B00F0E7802A1992F82C20172A09D87B491201505C00F0FE005054505C00F0DF00505477492F4405EB84024FF0400E281913F0800FA7F80CE051646F4FB4
:404D800090F838201DD1DB0003F1804303F5F0434FF0200C4FF0110EA3F800C09A7083F803E0694A3B5D32441F0689B292B206D4DB0003F1804303F5F0439980DA8090F8E5
:404DC000382017061BD46149D300085D03F1804303F5F043012119809A702919D87091F838305B4A5B493244180692B289B206D4DB0003F1804303F5F0439980DA802B19A1
:404E000093F82C304D4E172B15D84D491B01194408794B4A40F004000871985C40F001009854305D4872995C41F020019954995C41F00101995495F86840404EE4B2631E74
:404E4000072B4BD8325DFF2A5ED02B1993F82C30172B09D83A491801465C06F0FE064654465C06F0DF06465417061FD4D30003F1804303F5F0434021122019809A70D8707D
:404E80002E492B5D220101F16C0002F5C0421E0680B202F1780244D4DB0003F1804303F5F0439A802144D88091F82C30172B15D823491B0119440879214A40F00400087178
:404EC000985C40F001009854285D4872995C41F020019954995C41F00101995495F86830DBB25A1E072A0CD8124A03EB430102EB81020021517051790F4A1B01C9B21A44E2
:404F00009170F8BD0D4D96E706F16C01204600F027F8325D99E70B49204600F021F82B5D12E7214491F82C30C0E700BF8086FF1F8186FF1F8486FF1FFC5F00402C8AFF1F28
:404F400010700040F486FF1F78600040B09D000070600040CE80FF1F704700BF704700BFF8B5574B00EB400203EB82031B79090C1B0660D401288BB224D002281ED1514912
:404F8000514D01220024A0260E706A704A708C704FF48042CC7041F6FF718B4208BF4FF40053484C4949A280E3800B78484A03F0F10343F0040301240B709470431E072B0E
:404FC00021D9F8BD41F6FF76B14208BF4FF40053404C3D4F0025A0223D70227065704FF48042A570E5703B4C3B49A280E3800B78374A03F0F10343F004030B70431E0024CF
:40500000072B5470DDD8304C054601F0B9FBA378182B49D8FF2601F0B7FB304B5E5501F0AFFBA378284A182B2FD801F0ADFB2C4BFF245C55F8BD01288AB214D00228BDD1D8
:4050400041F6FF751F4B204E01240021A027AA421F7008BF4FF4005274705C709970D9704FF4804397E741F6FF73994208BF4FF400521849144B0024A0251C700D704FF46E
:4050800080434C708C70CC70ADE7D478013BE10001F18041937001F5F0410B78D37001F073FB0F4B5C55F8BDE678013BF20002F18042A37002F5F0421378E370ABE700BFCE
:4050C0008486FF1F08760040CF80FF1F20700040588AFF1F00760040107000402C8AFF1F648AFF1F10B501F04BFB0A4B9A78182A04D8FF2401F048FB204610BDDC78013A9D
:40510000E10001F180419A7001F5F0410A78DA70F0E700BFCF80FF1F2DE9F047484CDFF86081484F484E04F1080A4FF0FF0914F8015FFF2D20D03A78172A0AD8434B1201C9
:4051400013441A7802F0FE021A701A7802F0DF021A702A060ED401F013FBEB00F27803F1804303F5F0431A70B378F5700133B37001F00AFB84F8009018F8015FFF2D12D0A2
:405180002B060ED401F0FCFAEB00F27803F1804303F5F0431A70B378F5700133B37001F0F3FA88F80090544507F10107BFD101F0E7FA2749274A0B78274C03F07F030B709D
:4051C0001378A1F5E25103F0FB0313702278133902F0FE0222700A78204B02F0FE020A701A784FF4000542F080021A701A784FF0807442F040021A7001F0C6FA184B4FF4F2
:40520000001020214022DFF87CE01D60154F1C60186019601A609EF80030134E4FF48053124C13481349144A144D3B60002333702B70237003700B701370BDE8F08700BFD4
:405240002C8AFF1F598AFF1FCF80FF1F107000400860004012600040A5430040F851004080E100E080E200E0858FFF1F868FFF1F878FFF1F888FFF1F898FFF1F708FFF1F7D
:40528000648AFF1F8F4500404E2303FB00F001F06FBA00BF2DE9F0418B4D8C4E30272F708B4C052737708B488B49082626708B4A00248B4B8B4F04708B4E0C702D21117051
:4052C0001C706C723C7001273770142680F8806A8649102682F87F6A09260E7083F87F4A222385F88A3A242580F8875A042582F8865A7F4E02250D72EB212825337080F842
:405300008C5A82F88B1A01F03BFA8046A6F58C56173E3378774D43F0030333702B78764A442143F003032B7003201170FFF7ACFF3378404603F0FC0333702B7806F58D5637
:4053400003F0FC032B7001F01FFA6C496C4BC02008706C4A05F58D550320187002356A4B177004362F704FF47A520A20674D684F347048725A602A783B889BB2062B10D0CA
:405380000931A1F5A7511B39097802F0070201F0010122BB1BBB06233B802B7803F0BF032B705C495C480A78038802F007029BB2102B0DD0594C247804F00104002A41D1AC
:4053C000002B3FD1102303800B7803F0BF030B70534B544A1B68C3F8B420BDE8F08101B3514D524E524C002252480127227037702A7002786E3502F07F0202702A7816079D
:405400000FD42046072225F8803C22700378484A13F00103FAD1484C207800F0FE0020701370454B1A78D5073FD56FF4687423441A46424806240321048019701378D8071C
:40544000FCD4AEE70CB3394D3948374E002239490127027037702A700A78F23502F07F020A702A78110710D40146A5F5807507222B8002700B782E4A13F00103FAD1274871
:40548000017801F0FE0101701370244B1A78D20712D5A3F568731A46284810240321048019701378DB07FCD492E7194A062010801A781143197074E7174A102111801A78D8
:4054C00014431C7084E700BF004E0040024E0040034E0040044E0040054E0040064E0040084E00400A4E0040144E0040865800408F580040F946004092580040945800404D
:40550000955800409A580040708FFF1F82400040804000400241004000410040A143004008ED00E0594F000014400040104000400140004008400040A24300400240004074
:40554000030608D4C00000F1804303F5F04399800020DA8070470120704700BF172805D8034B00010344597200207047012070471070004017280FD810B4084A03011A443C
:405580001179064C41F0040111711A5D002042F001021A5510BC704701207047107000402DE9F04104461646C0B00D461F464799469BD0F87C805B1A191800F17F0E00F152
:4055C000FF0CFF231EF8012F5A405300DBB212F0800F83F0310208BF1A46D2B25300DBB212F0800F83F0310208BF1A46D2B25300DBB212F0800F83F0310208BF1A46D2B258
:405600005300DBB212F0800F83F0310208BF1A46D2B25300DBB212F0800F83F0310208BF1A46D2B25300DBB212F0800F83F0310008BF1846C0B24200D2B282F0310310F0CE
:40564000800F18BF1A46D2B25300DBB212F0800F83F0310218BF1346F445DBB2B2D198455BD0D1F87CC001F17F0001F1FF0EFF2210F8013F5A405300DBB212F0800F83F0EC
:40568000310208BF1A46D2B25300DBB212F0800F83F0310208BF1A46D2B25300DBB212F0800F83F0310208BF1A46D2B25300DBB212F0800F83F0310208BF1A46D2B2530073
:4056C000DBB212F0800F83F0310208BF1A46D2B25300DBB212F0800F83F0310208BF1A46D2B25300DBB212F0800F83F0310218BF1346DBB25A00D2B213F0800F82F031038F
:4057000018BF1A468645D2B2B2D1624518BF02240DD0204640B0BDE8F081A1193A462846002402F0EDF9204640B0BDE8F0814FF48072684602F0E4F920466946FDF7AEFCFE
:4057400004460028E5D13A460DEB8601284602F0D7F9DEE708B501F01BF803680C2B00D0FEE7FEE72DE9F84F334A344B34491A600B68344A43F4007333480B600023032BEE
:4057800094BF50F8231031490133302B42F8041FF5D12F4A2F4930480078116072B640F21A7642F251252D4A2D4F612010702D492D4C00223A802D48502727700A802C4FC2
:4057C0001922027007223A801822227209240C81284C02723B810620274B227081F87C021B7801F5BE71DBB287F819362348244B52270F70A4F890611C68058091F8253073
:40580000A0F59070253104607820144603F001050E4600F0ADFF01E0032D33D03278782002F0010242EA450303F0030500F0A0FF013CF1D1FEE700BF0004FA050CED00E076
:4058400014ED00E0FC7FFF1F000000005557000008ED00E00080FF1FBC760040004800408040004084400040824000408640004088400040924000400F0100492042004074
:40588000AC23004847F60804CA4B4FF480721A80C94F07221A70C94900223A70C848C94E48270F701A700227042302703770CB7090F89933DFF898C343F01F0380F8993399
:4058C00091F89933DFF854E343F0010381F8993390F8973306F5405643F0800380F8973391F8E036B84F43F0040381F8E0361023CCF800200F368EF800300121B34B3170AC
:405900003A704FF43C771F80B14FB24886F8F217DFF840C33D70B04D80B2A6F8F4072C80ACF800204FF48042AEF80620193609240B22A7F2CA77A9483470A5F29D753A70AC
:405940000C261724A64A2E700470BFF35F8F1170BFF35F8F1A8892B2002AFBD1A14AA24902F5BC7052F8043F9BB2904221F8083BF8D1BFF35F8F9A4B01221A70BFF35F8F7F
:4059800004331A78D407FCD4984B1A78D007FCD4974B1A78D107FCD4964B1A78D207FCD4954B1C7814F00104FBD140F20330DFF8A8E2DFF8A8C2914F914D924A4FF440733F
:4059C0004FF00A0A90490326ACF80030AEF8003087F800A02E8010800B7802F5774243F002030B70C5321378A5F5A55543F002031370083D2B78854E43F040032B7033781D
:405A000083488449844AD0F800900F68DFF85082116843F0100300F1784002F17842337000F5A54002F5A5427C4BC8F8009006F586360760DFF82CB21160DFF82C92784F61
:405A40004FF0904292E8030006F5A7761C60754A754B3060B180CBF80040C9F80040C8F818403C60A7F5115703CB283F1060516093E8070003C7A6F57F463A800C33203EAF
:405A800093E8070003C60C333280684A03CB46F8E60C46F8E21C03CBC83E1060516093E8070003C6624932800B78624A43F008030B70A8F53C581378A9F53C59A8F1100899
:405AC00098F80060A9F11F0999F800705A4ADBB201F5AA5103F0070BF6B20C311B09FFB281F800B0137046F0030388F80030504647F003036FF4EC6A89F800305144022383
:405B0000DFF868A10B7010238AF80030A2F242724FF0280A82F800A04FF0500A81F830A0DFF84CB1DFF84CA182F8D0308CF80040424B4FF0400C8EF800408BF800C08AF8F7
:405B400000C04FF0800A83F800A03D4C202381F8B639DFF824C182F8AE397A2222702A228EF8B9328CF8003081F84B2AFFF78CFB95E80F004FF07F0E7446DFF800C189F8FB
:405B800000701035662788F800608CF8007007C52C482D492D4A2B8080F800A081F800E0013CE4B202F80849002CF9D1074B1C70BDE8F88F044000400640004008400040D6
:405BC000094000400140004019700040007800400378004074000000067800407970004014700040B89D00000C78004028700040387000406870004078700040835800400C
:405C0000485800404E58004003500140C2430040B0230048B4230048B8230048007600402876004002510040702300482251004022430040CF0100496F580040935A0040C1
:405C4000285B0040D180FF1FD280FF1FF87B0040788FFF1F0476004072580040705800400876004010760040187600401D510040095900400B590040445B004076580040AB
:405C8000094908B50A68094B1044C31A802B02DC0860104608BD00F07BFD0C234FF0FF320360104608BD00BFD480FF1FF090FF1F044A054B52F820201B5C11780B43137085
:405CC000704700BFC09B0000DC9B0000044A054B52F820201B5C11780B431370704700BF9C9B0000B89B0000012800D970471349012383400A79DBB21342F7D030B4104DFA
:405D000022EA030305EB8002D2F878410B712844227890F8805190F8843122EA0502227019440B7A013BDBB20B7223B9054A137823F01003137030BC704700BF788FFF1F91
:405D4000BC9D0000005B0040F0B5194B194C1B78703A83B022706070A17003BB1648174D02882B6804320B2B02800AD82078144A6778A478D0545E1C981C033397552B6081
:405D80001454104A0029137803F0FB03C8BF43F0040313700C4B01221A6003B0F0BD0B4B1B78DB07DAD50191FEF7ACFC0199D5E75487FF1FF086FF1F5687FF1F5887FF1F60
:405DC0005C87FF1F005100406C87FF1F6D6400402DE9F04F2D4B2E4A1B7892F800E01EF0030E51D003F07F0301222A4FDFF8B0C0DFF8B090DFF8B0A0C3B150010238C0B266
:405E00004FF0020824491401DE07214402F1010500F1200406D58E78F60703D4BE5C06F0FF0B66B15B08EAB2E0B2EBD14FEA5E0101239E4608220029DFD1BDE8F08F81F8CC
:405E400005B008711CF8020059F82260C00000F1804000F5F040A0F800801CF802001E36C00000F1804000F5F040B6B286801AF802600A481CF802203601304442720A7812
:405E800042F001020A70CDE7BDE8F08F65640040666400404C8AFF1F70600040107000402C8AFF1F708AFF1F588AFF1F3F4B1B78002B7AD02DE9F04FDFF808C13C4EDFF8B0
:405EC00008E1DFF80881DFF80891DFF808B103F0FF0183B00123374A1C01C80722440FD592F802A050785D000AEA0000EF1810F0010F06EB870702D03F793F0607D49070D3
:405F000001334908DBB2E6D103B0BDE8F08F17784FF0010A07F0FE0717703EF81370BFB2202F12D808F803A01D4406EB85056D79214F2744ECB2BC709CF800409C42DED197
:405F40004FF000051D4C2570D9E719F803703EF813A0FF0007F18047AAF1200A07F5F0471FFA8AFAA7F800A019F803A05BF823704FEACA0A0AF1804A20370AF5F04ABFB2B3
:405F8000AAF804700E4FDFF850A0FF5C3F01019719F803700097019FBA44012708F803709DF800708AF80970BEE770479F6000408486FF1F70600040FC5F00408086FF1F8E
:405FC000588AFF1F8186FF1F388AFF1F4C8AFF1F2C8AFF1F708AFF1F1070004030B4084B084C09490022032580201A705A709A70DA701A715A719A712570087030BC70477C
:40600000848FFF1F2860004008600040704700BF10490220104A114B087092F822201A7E02F00302012A03D0DA7E82F08002DA7601210B4A597613780849022B00D07047D5
:40604000137803EB430301EB83014B78012BF6D1FEF7DABC0B600040FC5F00408486FF1F948AFF1F10490120104A114B0870927C1A7B02F00302824203D0DA7B82F08002E4
:40608000DA7301210B4A597313780949012B00D07047137803EB430301EB83014B78012BF6D1FEF7B1BC00BF0B600040FC5F00408486FF1F948AFF1F694A10B413899BB2B0
:4060C000002B00F0A98002210023117013751383116919B111690B7011694B806149604CC8798B79118943EA002389B28B4238BF23819079118B5A4B014489B211831189D9
:4061000089B2002900F09680D86856490078C0B20870D8680130D8601889013880B21881188980B2002800F08C80D8680078C0B24870D8680130D8601889013880B218813F
:40614000188980B200287ED0D8680078C0B28870D8680130D8601889013880B21881188980B2002871D0D8680078C0B2C870D8680130D8601889013880B21881188980B2A7
:40618000002854D0D8680078C0B20871D8680130D8601889013880B21881188980B2002855D0D8680078C0B24871D8680130D8601889013880B21881188980B2002848D03E
:4061C000D8680078C0B28871D8680130D8601889013880B21881188980B200283BD0D8680078C0B2C871D9680131D9601989013989B21981198989B279B39B790821137D92
:406200000F2483F08003022013755475107091759171012010BC7047022480200F2114701075517593719375012010BC704704219379E4E798790828E1D0022058751870BC
:40624000E5E70121F4E70221F2E70321F0E70521EEE70621ECE70721EAE70821E8E700BF848FFF1F006000402DE9F04FAA4EC3B0F368D6F808B0012B40F24981DBF80070DC
:406280000FB10BF5807B3368A34A74685B4598BFD2F818B0A742A04DC0F025812B69012B40F23381A9692202C2EB0B058D4205D203F1FF1303F57F4302FB03B50DF1080947
:4062C0004FF480724846002100F08EFAB38B01370222C9F80070C9F80820A9F80C302DB105F18001802222A801F00AFCBC423ABFC4F10104E4190124BC4200F2B6800023DD
:4063000098469A469C460DF20715A74200F00181B169D6F800E00A4604E002F58072964540F2AE801068A042F7D1002A00F0A880D6F804E0C1EB0B0C4FEA1C21B1FBFEF03E
:406340000EFB10115068C9018842D2F808E0C0F09C8001F17F0C604500F2978000F07F0A704481420AF1800A00F2A6808445C0F0A3800EEB0A034FF0000808EB02010C3155
:40638000CAEB030209EB0A00019301F0B9FB019B4FF0000C327D002A63D00DF18701FF2211F801EF82EA0E024FEA420E5FFA8EFE12F0800F8EF0310218BF96465FFA8EFE95
:4063C0004FEA4E02D2B21EF0800F82F0310E18BF7246D2B24FEA420E5FFA8EFE12F0800F8EF0310218BF96465FFA8EFE4FEA4E02D2B21EF0800F82F0310E08BF96465FFA90
:406400008EFE4FEA4E02D2B21EF0800F82F0310E08BF96465FFA8EFE4FEA4E02D2B21EF0800F82F0310E08BF96465FFA8EFE4FEA4E02D2B21EF0800F82F0310E18BF724620
:40644000D2B24FEA420E5FFA8EFE12F0800F8EF0310218BF96468D425FFA8EF2A0D1C9F87C200134BC427FF650AF49465846FCF715FE337D284A7BB338B343B0BDE8F08F93
:406480001CF1010C86D1624677E700EB0E0C61450BD87F318C4508D800F07F0808EB0E034FF0800AC8F1800867E7327D4AB14FF000084FF0010C70E74FF480734FF0000892
:4064C0005BE790464FF0010CCBE7136890694946181A5844FCF7E2FD0028CED1C6F808B043B0BDE8F08F0DF108094FF480724846002100F079F9AA8B01370223C9F8007077
:40650000A9F80C20C9F80830F0E65D46D6E60120B3E74A46B16908E7A08FFF1F172809D8054903015A5C002002F0F10242F004025A547047012070471070004017280BD83B
:40654000064A0301995C002041F020019954995C41F001019954704701207047107000402DE9F0476C4E82B0F3686C4F012B5AD9B168B26970688B1A0002B3FBF0F3347D6C
:40658000B846D1F8009000FB0320002C52D0336839460192009380220223FFF701F8002841D1B9F1000F3ED0736809F10105994594BFC9EB0505ED1AA94534D3B2693168A7
:4065C000144603E004F58074A14229D923689D42F8D12CB36068A368034478B301288CBF4FF0000E4FF0010EBEF1000F18D08646002896F814C038BF4FF0000E022B94BF66
:40660000CEEB0303CEF102034044BCF1000F1BD08DE8060001460C222046FEF7C1FF10B90135A945CAD23E4B1B78DB0712D402B0BDE8F087B0F880303B80B2E713F1000EA8
:4066400018BF4FF0010ECFE71A4604F10C0101F057FAE5E73C78334BE4B2012C2F4F54D001221A70FFF700FEFEF756FD2E4BDFF8DCA0DFF8DC802D4E4FF40049C3F80090FE
:406680009AF800E02A4C98F800103278307898F80030284D43EA00202378013003F0FE03237080B285F803E029716A7100F060F800F066F82049214A0B7803F0FB030B70CB
:4066C000137803F0FB03137000F05EF82378EA782879697943F0020323708AF800208AF8002088F80000317023781548154A03F0EF0310212370C0F80090B970137843F076
:406700000103137002B0BDE8F08700221A70FFF7ABFD0D4B1C708AE7A08FFF1FC08FFF1F6D640040BC8FFF1F80E100E0DC490040D6490040D880FF1FA5430040B543004056
:4067400080E200E0F64600401C86FF1FCA490040DB490040034A4FF40061034B11601B78FFF7FEBE80E200E08C450040000000000230800803D000BF01380046FCD170474D
:40678000EFF3108072B6704780F31088704700BF014B1868704700BF4081FF1F0E4B70B51E460E4C0025E41AA410A54204D056F8253098470135F8E703F062FC084B094C88
:4067C0001E46E41AA4100025A54204D056F8253098470135F8E770BD8CA000008CA000008CA0000094A0000003460244934202D003F8011BFAE770472DE9F04788B0149F0A
:40680000002B1E461299B8BF03F1004327F02007B6BF1E4600232D23462F1446109DDDF84CA00B7003D0452F03D1013501E0032300E0022307AA049206AA03928DE82804A4
:406840002246334600F0B8FB472F804602D1119BDB0728D5462F08EB050911D198F80030302B0AD1002200232046314602F0C6F818B9C5F10105CAF80050DAF8003099445C
:40688000002200232046314602F0B8F808B9302202E0CDF81C9006E0079B994503D9591C07911A70F8E74046079B159AC8EB0303136008B0BDE8F087034673B50029B8BF0E
:4068C000494203F8022BB4BF2D222B22092942701ADD0DF1070216460A2591FBF5F405FB1411092C01F1300102F8011D2146F4DC3031541E02F8011CB4421A460AD214F800
:40690000012B03F8012BF7E71A463024214402F8024B5970101A02B070BD00002DE9F04F91B00C46DDF8688016461F46054601F0DBF803681846099300F0AAFA00230E93C2
:40694000D8F800300A90073323F0070303F1080294F81890D4F800B0C8F80020D3E90023C4E91223D4F84CA0D4F848802AF000430B934FF0FF32A74B40460B9902F070F8AA
:40698000A0B94FF0FF32A34B40460B9902F04AF860B9002200234046514602F039F810B12D2384F843309C4B9C4A0AE0424653464046514602F054F8002800F09281984BE3
:4069C000984AB9F1470F8CBF90469846032323612BF0040323604FF0000A3DE0B9F1670F00F08A81B9F1470F00F0868123600193636800210DF13302059002920093424675
:406A000053460691CDF81090CDF80CE02846FFF7F3FE09F0DF03472B804600F08481B9F1650F0D9900F28D8101394A4604F150000D91FFF741FF0E9A82468318012A236152
:406A400000F37C812268D10700F178819DF8333013B12D2384F84330009733460FAA2146284600F09FF9013002D14FF0FF3096E123685A0501D4236965E0B9F1650F40F2F0
:406A8000D580D4E912010022002301F0B7FF78B30123654A31462846B8470130E5D00E9B0D9A9A420BDB2368D80708D423689B0740F111814FF0000804F1190906E10A9BCB
:406AC000099A31462846B8470130CED04FF0000804F11A090E9B013B9845E7DA01234A4631462846B8470130BFD008F10108F1E70D9B002B29DC01234B4A31462846B847B7
:406B00000130B2D00D9B23B90E9B13B92368D907CCD50A9B099A31462846B8470130A4D04FF0000904F11A0A0D9B5B42994509DA0123524631462846B847013095D009F135
:406B40000109F1E70E9B4246A7E00E9AA36D9A42A8BF1A46002A914606DC4FF0000A29EAE97904F11A0B11E01346314642462846B8470130F1D178E701235A4631462846B4
:406B8000B84701303FF471AF0AF1010AA36DC9EB03029245F0DB08EB03090D9A0E9B9A420FDB2368DA070CD40E9B0D9A9844C9EB08089B1A9845A8BF9846B8F1000F08DC1D
:406BC0000FE00A9B099A31462846B8470130EBD14BE743464A4631462846B84701303FF444AF4FF0000928EAE87804F11A0A09E00123524631462846B84701303FF435AF63
:406C000009F101090D9A0E9B9B1AC8EB03039945EEDB4BE7FFFFEF7F449F0000489F00004C9F0000509F0000549F00000E9A012A01DCDB0738D50123424631462846B84787
:406C400001303FF412AF0A9B099A31462846B84701303FF40AAFD4E912010022002301F0CDFE20B14FF0000804F11A090EE00E9B08F10102013B19E001234A463146284644
:406C8000B84701303FF4F1AE08F101080E9B013B9845F1DB534604F1500231462846B84701307FF403AFE0E64246012331462846B8470130EED1D8E601234A46314628468B
:406CC000B84701303FF4D1AE08F10108E3680F9A9B1A9845F0DBE0680F9B9842B8BF18465DE062680EA8531C0DF1340E4BF480637FF474AE062201E012B90122626075E687
:406D0000002106910DF133018DE80C00236005904246CDF81090CDF80CE0029153462846FFF76AFD80460D9BD81C02DB626893421DDDA9F102095FFA89F970E601332361D5
:406D400084E6B9F1660F14D10029636807DD216113B92268D2071DD501330B4419E013B92268D00701D5023313E0012311E04FF067090D9B0E9A934205DB22682361D107D4
:406D800008D5013305E0002BD4BFC3F102030123134423610D9B4FF0000AA36556E611B0BDE8F08F2DE9F04791461F460A698B6806469342B8BF1346C9F8003091F8432090
:406DC0000C46DDF8208012B10133C9F800302368990642BFD9F800300233C9F80030256815F0060510D104F1190A07E00123524639463046C04701301AD00135E368D9F8F0
:406E000000209B1A9D42F1DB94F843302268003318BF012392060FD5E118302081F843005A1C94F845102244023382F8431003E04FF0FF30BDE8F08704F14302394630463F
:406E4000C0470130F4D02268D9F80050E36802F00602042A08BF5D1B2269A3680CBF25EAE57500259342C4BF9B1AED184FF000091A344D4509D00123224639463046C0472F
:406E80000130D5D009F10109F3E70020BDE8F087034613F8012B002AFBD1181A013870472DE9F74F03690C6980469C427FDC013C01F114074FEA840E00F1140606EB0E03EC
:406EC00057F82450019356F824300135B3FBF5F507EB0E09C5B34FF0000A3846B446D34650F8043B9AB205FB02A21B0C4FEA124A05FB03A392B2C2EB0B0BBCF800204FEA83
:406F0000134A5A441FFA83FBDCF800308145CBEB134303EB224392B242EA03424FEA234B4CF8042BDCD256F80E306BB9019B043B9E421A4602D3C8F8104005E01268043BCB
:406F4000002AF8D1013CF3E7404600F0F0FF00282BDB304601354FF0000E57F8042B036891B2C1EB0E0E120C99B27144C2EB134303EB214389B24FEA234EB94541EA0343C0
:406F800040F8043BE9D256F8242006EB840362B9043B9E421A4602D3C8F8104005E01268043B002AF8D1013CF3E7284600E0002003B0BDE8F08F00002DE9F04F456A95B0E0
:406FC0008246219CCDE9022345B9102000F090FDCAF82400456085600560C560DAF82430196859B15A68012393404A608B60504600F0C6FDDAF8243000221A60039BA04AFA
:40700000002BBDBF01232360039B0023BCBF23F000430393DDF80C80A8BF236028F000431B0D1B0593421DD142F20F73209A1360029B43B9934A944BC8F31300002814BF28
:407040001846104600E09048229B002B00F04685C37813B100F1080300E0C31C229A136000F03CBDDDE90245002200232046294601F0C4FC074658B1209A01231360229BF3
:40708000002B00F01E8581481860013800F026BD12AB019313AB009322462B46504600F0C1FFC8F30A56049056B1C5F3130343F07F51204641F44011A6F2FF3611971DE01F
:4070C000139B129E1E4406F23243202B0ADD029A06F21240C3F1400322FA00F008FA03F3184304E0C3F12000029B03FA00F001F0A7F90123A1F1F871013E11930022644B4F
:4071000001F060F858A3D3E9002301F00FFA58A3D3E9002301F058F8044630460D4601F09FF955A3D3E9002301F000FA02460B462046294601F048F804460D4601F0A6FCEA
:407140000022834600232046294601F061FC58B1584601F085F902460B462046294601F04DFC08B90BF1FF3BBBF1160F0DD8DDE90223484901EBCB01D1E9000101F066FC31
:4071800030B10BF1FF3B002300E00123109300E01090129B9E1B731E079343BFC3F10008002307934FF00008BBF1000F06DB079BCDF82CB05B440793002705E00023CBEB1E
:4071C0000808CBF100070B931E9B092B28D8052BC4BF043B1E931E9BC8BF0025A3F10203D8BF0125032B20D8DFE803F0060E0204012302E0012308E000230A931F9B002B22
:407200001DDD9946059321E000230A931F9B0BEB030909F10103012B0593B8BF012315E0012500231E930A9501E001230A934FF0FF390022CDF8149012231F9206E04FF0C6
