:400000000080002011000000F1240000F124000008B5044B1A6803F53F5302331A6003F0EBF900BFFA460040080002230000087608000323000010760800042300002876DC
:4000400008000523000030760500062300002070050007230000307005000823000060700500FE230000707019000A220000C8493000FE22000040518001FE22000000003F
:4000800007000D230000005207000E230000085207000F23000010520700102300001852060011230000605208001223000060450700132300007852080014230000784515
:4000C000080015230000285B4000162300000064200017230000706440001823000000652000FE230000706508001A230000005180001B230000000280001C2300008002A5
:4001000080001D230000000480001E230000800480001F2300000006800020230000800680002123000000088000222300008008800023230000000A800024230000800A6B
:40014000800025230000000C800026230000800C800027230000000E800028230000800E800029230000001480002A230000801480002B230000001680002C23000080169B
:4001800080002D230000001880002E230000801880002F230000001A800030230000801A10003123000010501000322300000050800033230000004D800034230000804D55
:4001C000800035230000004C800036230000804C80003723000000478000382300008047800039230000004680003A230000804680003B230000004580003C2300008045E7
:4002000080003D230000004480003E230000804480003F230000001B800040230000801B800041230000001580004223000080158000432300000019800044230000801988
:400240008000452300000017800046230000801780004723000000098000482300008009800049230000000780004A230000800780004B230000000B80004C230000800BBE
:4002800080004D230000000580004E230000800580004F230000000D800050230000800D80005123000000038000522300008003800053230000000F800054230000800F5A
:4002C0008000552300008001800056230000004980005723000080498000582300000048800059230000804880005A230000004380005B230000804380005C230000004237
:4003000080005D230000804280005E230000004180005F230000804180006023000000408000FE23000080400100000001000000010000000048014001000000004800403D
:400340000100000000200140010000000020004010B5054C237833B9044B13B10448AFF300800123237010BD8881FF1F00000000A4920000084B10B51BB108490848AFF394
:4003800000800848036803B910BD074B002BFBD0BDE81040184700BF000000008C81FF1FA4920000C080FF1F00000000024B187800F00700704700BF82400040034B1A7833
:4003C00000F0F80010431870704700BF82400040014B188880B270478040004070B505460E46FFF7E3FF0446FFF7F2FFA84256D02B4B1B7803F0010294B900B185B938B9E4
:40040000284B1D80284A137803F0BF03137070BD254A137843F040031370224B1D8070BD22B3002321490B7001240F310C7004310B700C390B7803F07F030B701A4B1B7802
:4004400013F0080F00D08DB9194B18800721013B1970164B1B7813F0010FFAD110490B7803F0FE030B700021104B19700C4B1B7813F0010F0DD00E4B1D800EB1032200E0AD
:4004800001220A4B1A70094B1B7813F0010FFAD170BD044B1D8002490B7813430B7070BDA243004080400040824000400140004002400040704700BF074B1B7813F0020FF7
:4004C00008D0064BB6221A70E0221A700D221A70072070470420704722470040204700400C4B1B7813F0020F0FD00B4BB6221A70E1221A700E221A7002331B7813F0020F6B
:4005000005D1054B187007207047042070470920704700BF224700402047004030B4104C247814F0020F15D00E4CB6252570D8252570052525700234247814F0020F0BD1B1
:40054000084C2070080A2070C9B2217022702370072002E0042000E0092030BC704700BF224700402047004070B41D4C247814F0020F2CD01B4CB6252570D5252570022515
:4005800025700234247814F0020F22D1154C2070002404E0165D134D2E700134A4B29C42F8D3B3F5807F16D13F2816D800F5103001EB00214801002305E01A5CD2B209496C
:4005C0000A7001339BB21F2BF7D9072006E0042004E0092002E0072000E0072070BC7047224700402047004070B505460E4605F0A9FE044605F0B8FEA84256D02B4B1B78F7
:4006000003F0010294B900B185B938B9284B1D80284A137803F0BF03137070BD254A137843F040031370224B1D8070BD22B3002321490B70012413310C7004390B70083940
:400640000B7803F07F030B701A4B1B7813F0080F00D08DB9194B18800721013B1970164B1B7813F0010FFAD110490B7803F0FE030B700021104B19700C4B1B7813F0010FD7
:400680000DD00E4B1D800EB1032200E001220A4B1A70094B1B7813F0010FFAD170BD044B1D8002490B7813430B7070BDA143004000410040024100400140004002400040CC
:4006C00008B505F061FE0A4B00221A705B68012B0AD1084A136843F00103136000BF00BF00BF0022024B5A6005F052FE08BD00BFA481FF1F0400084010B505F045FE0F4B92
:400700001B78A3B901220D4B1A700D4B1B6813F0010F0ED00A4A136823F00103136000BF00BF00BF0122054B5A60002402E0042400E0002405F02CFE204610BDA481FF1F6F
:400740000400084008B505F01FFE064A137843F0080313701032137843F00803137005F017FE08BDA043004010B5044602F08AFB204602F045FB10BD154B1B7803F003036B
:40078000012B07D8134B1888023B1B889BB243EA004013E0022B0AD10E4B1888023B1B7843EA00430C4A107843EA002006E00B4B188883B2074A108843EA0040084B1B7AE8
:4007C00013F0FF0F02D00022054B5A72704700BF144E0040124E0040114E0040104E0040A481FF1F094B1B7A13F0FF0F03D0074B5B7ADBB203E0064B1B7803F00103012B35
:4008000001D00028EED01846704700BFA481FF1F014E0040024A137843F0010313707047004E004010B50446074B1878FF2801D0FFF79AFF204602F059FB204602F002FB0C
:40084000014B1C7010BD00BFC480FF1F10B5002407E0204602F016FB204602F0D1FA0134E4B2012CF5D9FF22014B1A7010BD00BFC480FF1F134B1B78DBB20360124A1278E4
:4008800043EA02230360114A127843EA024303600F4A127843EA026303600E4B1B78DBB243600D4A127843EA022343600B4A127843EA024343600A4A127843EA02634360F8
:4008C000704700BF0301004904010049EC460040020100490101004900010049050100490601004908B505F04FFD00BF00BF00BF00BF00BF00BF00BF00BF00BF00BF00BFC2
:4009000000BF00BF00BF00BF00BF064A13889BB243F0040313801388BFF36F8F05F038FD08BD00BF0048004008B500EBC003D80005F022FD08BD00BFF8B5074605F024FD8B
:4009400006460D4D2B7843F003032B700B4C237843F0030323700A4B1F700320FFF7E4FF2B7803F0FC032B70237803F0FC032370304605F00DFDF8BDF8460040F946004045
:400980009258004070B505F0FFFC06462A4B5B782A4B1A7842F001021A701A7842F010021A7010331A7842F001021A701A7842F010021A70224D2B7843F002032B70214CF8
:4009C000237843F0020323701F4A137843F0030313700320FFF7A8FF2B7803F0FD032B70237803F0FD032370184A137843F0060313707A22164B1A70164A137843F001037A
:400A000013701032137843F0010313700F3A137843F0010313701032137843F0010313704FF000530C4A1360A2F5C0721360304605F0AEFC70BD00BFC480FF1FAA43004070
:400A4000F8460040F9460040915800407758004082580040A143004080E200E070B506460D4600240CE00120FFF75EFF064B1B7813F0010FF7D0054B1B7833550134E4B285
:400A8000AC42F3D3204670BD22470040204700402DE9F041441FE4B23A2C01D9002500E0012510F0800F00D00125412800D901253F2803D8B1F5807F06D808E0802900D9D8
:400AC0000125102B02D102E0012500E0012502B90125002D50D1984616460F460446FFF70BFE002847D14346324639462046FFF73BFD064607283AD102E00120FFF714FFC7
:400B00001F4B1B7813F0020FF7D01D4B1B7813F0020F06D01A4B1B789B0805D04FF0FF3603E04FF0FF3600E02E4606BB154A537B127B39462046FFF7F1FC072804D00646D7
:400B400015E00120FFF7F0FE0D4B1B7813F0020FF7D00B4B1B7813F0020F06D0084B1B789B0804D04FF0FF3601E04FF0FF36FFF7A7FD354600E004252846BDE8F08100BF5B
:400B800022470040A481FF1F10B5FFF7DBFDFFF7B3FDD0B9FFF790FC0446072812D102E00120FFF7C1FE0A4B1B7813F0020FF7D0074B1B7813F0020F04D0054B1B789B08DB
:400BC00000D10024FFF77CFD00E00424204610BD2247004010B5FFF7B5FDFFF78DFD10BB0120FFF77DFC072818D102210F48FFF735FF02280AD102E00120FFF795FE0C4BC1
:400C00001B7813F0020FF7D0002409E0084B1B7813F0020FE9D04FF0FF3401E04FF0FF34FFF74EFD00E00424204610BDB081FF1F2247004010B5044604E0074805F09CFB7F
:400C4000A4F50044B4F5004FF7D8044800FB04F005F092FB10BD00BF0000A08C40190100024A137843F0010313707047F646004001BE704710B59DF80840012C52D101389C
:400C800009282ED8DFE800F0052D2D052D2D0F192D230F2B03D92548007840B222E02448007840B21EE00F2B03D92248007840B218E02148007840B214E00F2B03D91F4827
:400CC000007840B20EE01E48007840B20AE00F2B03D91C48007840B204E01B48007840B200E0002001EB401101FB02F1C90B8AB20D2B0BD8C3F10E0289B211418AB2611EEA
:400D0000124800EB810101338B7405E0631E0F4901EB83030F219974013C0C4B03EB8404228210BD0020FFF7A3FF10BD180100491C010049190100491D0100491A01004956
:400D40001E0100491B0100491F010049A481FF1F38B504460D46072902D90020FFF788FF1F2C02D90020FFF783FF04F01F0000F1604000F564406D01EDB2057038BD00BF97
:400D800070B504460E46074B1D681F2802D90020FFF76EFF04F01F04103455F8240045F8246070BD08ED00E00022314B1A7201285DD170B530222F4B1A70052602331E707B
:400DC000082201331A70002401331C7001331C702D2201331A7002331C7001331C7001331C7001250A331D70142203F527631A70102201331A70092201331A7001331C704E
:400E000022231D4A1370242101321170042101321170022102321170013213702822174B1A70EB2201331A704420FFF785FDC022134B1A70032201331A7005331D700133A0
:400E40001D7001331C700A2201331A704FF47A52074B5A6129463046FFF7C0FA29460E20FFF7C2FB07491D20FFF78AFF70BD7047A481FF1F004E00408A580040905800402F
:400E800094580040B5040000F0B583B0294E01277770294D00246C721020FFF78FFA102005F058FA07211D20FFF752FF0422234B1A7001331C7007331C70214A137843F0D8
:400EC000180313701F4B1C7003F2F5231C7001331C700A22A3F209331A7001331C7002331C70122205331A70132201331A7004331C701422A3F68C231A7000970E2347F248
:400F0000E97248F65C710720FFF7B4FE7378013B05EB83039A7C0C4B1A707378013B05EB83052A8A094B1A807078FFF73DFF03B0F0BD00BFC480FF1FA481FF1F965800409B
:400F4000075B0040935800400E4E00400C4E004008B5084B1B7E4BB9064B5B7E13F0FF0F01D1FFF791FF0122024B1A76FFF70AFD08BD00BFA481FF1F08B53F2801D9102339
:400F800001E04FF48073FFF783FD08BD08B5FFF7FBFD034610B9FFF71DFE0346184608BD10F0800F08D1C00000F1804000F5F0408180C280002070470120704710F0800F26
:400FC0000CD111F4704F0BD1C00000F1804000F5F04001808270C37000207047012070470120704710F0800F12D110B5044605F0CBF9E30003F1804303F5F043054A91785A
:4010000019709470D3780133D37005F0C1F910BD704700BFC480FF1F10B505F0B5F90A4BDB78182B0BD9084A9478013BD370E30003F1804303F5F0431B78937000E0FF249B
:4010400005F0A6F9204610BDC480FF1F17281BD810B4C00000F1804404F5EC44D201D2B201F07F01114321709DF804201201D2B203F00F03134363709DF8083003F00F03B6
:40108000A3700020E07001E00120704710BC7047172805D8034B03EB0010417200207047012070471070004041F6FF73994201D14FF4005141F6FF739A4201D14FF4005211
:4010C000172808D8C00000F1804000F5EC408180C280002070470120704700BF17280BD80001064A835C03F0F103490001F00E01194381540020704701207047107000406C
:4011000017280CD80001074BC1180A7942F004020A71C25C42F00102C254002070470120704700BF1070004017280BD80001064BC25C02F0FE02C254C25C02F0DF02C254F2
:40114000002070470120704710700040172815D831B103010A495A5C42F020025A5405E0030107495A5C02F0DF025A540001044A835C43F001038354002070470120704788
:40118000107000400B4A7F2393708021D17007E0DA0002F1804202F5F042013BDBB21370002BF5D1DB0003F1804303F5F04300221A707047C480FF1FF0B5C3B004468368E8
:4011C00000931D680127002623E0009F4FF48072394601A806F098FA01350195802121A802F03AFB2090224601A9384602F01EFBA069009B1B1A2068224601A9184402F099
:4012000015FB0746234641AA6946284602F042FB01366268236903FB02F39E42D5D3384643B0F0BDF0B5059C069F00251560DD01A54206D85E1CF601013EB44203D90026BB
:4012400002E0002600E00126D6B104F07F02803202603C44A54206D80133DB01013B9C4203D9002302E0002300E001231BB117440F600020F0BD4FF480730B600020F0BD07
:4012800004EB070E754505D80133DB01013B9E4500D8012666B180230360FB1864F07F041C440C6003681C1B274417600020F0BD0120F0BD2DE9F047C0B005468A469046C5
:4012C0009946489EB469041B33681C44C76F8021084402F0C1FA874207D14A4605EB0801504606F011FA00241BE0E76F8021601802F0B2FA874213D14FF48072214668463E
:4013000006F002FA32466946284602F08FFA044638B94A460DEB8801504606F0F5F900E00224204640B0BDE8F08700BF70B4002401232EE026491A018D180C268E541D22B2
:401340006A7003EB43018A0022490A44527912F0FF0F17D003EB43018A001E490A44127912F0800F03D018011B4A16540FE01801194A082111545A1E0121914041EA04027F
:40138000D4B204E01901154A0A44802191700133DBB2082BCED95522114B1A70202230331A70002201331A7003222F3B1A7001331C700D331A7842F080021A701A7802F0E6
:4013C0007F021A70FF22923B1A7070BC704700BF70600040EC90FF1FFE5F0040FC5F00408C600040704700BF054B00221A80DB682BB1034AD16800230B70D2685380704731
:40140000C081FF1F054BDB683BB1044BDA681070DA68198851800022DA607047C081FF1F10B50B4B1B7C13F0FF0F07D0084A137C43F0800307490B7000231374044C00237E
:4014400063740120FFF7DEFF0323A37410BD00BFC081FF1F0860004010B5044C002363740120FFF7CFFF0323A37410BDC081FF1F10B4184B197801F00F010239C9B2164AA5
:4014800013889BB20B449BB21380002011E0124A9468124B1B5CDBB223709368013393600130C0B20139C9B293889BB2013B9BB29380094B9B889BB20BB10029E7D1064B88
:4014C000D9741A7D82F080021A750B229A7410BC704700BF29600040C081FF1F0060004010B5074C627D23889BB213449BB22380002363740120FFF785FF0323A37410BD6B
:40150000C081FF1F054B02225A7480221A750F229A7400225A75DA7401207047C081FF1F1B4A517D13889BB20B449BB2138000220FE017498B681B78DBB2164883548B682E
:4015400001338B600132D2B28B889BB2013B9BB28B800F4B9B889BB20BB1072AE9D90C4B5B7DDBB2082B00D04AB1094B197D81F0800119750F2199740221597403E0044BA5
:40158000022199745974024BDA745A75704700BFC081FF1F0060004008B5FFF7C1FF08BD10B50E4B9B889BB213B9FFF7ABFF12E00A4C0223637400232375FFF715FF084AC2
:4015C000D179937943EA0123A28892B2934200D2A380FFF7A5FF012010BD00BFC081FF1F0060004008B50B4B5B7CDBB2042B06D0062B07D0022B0BD1FFF772FF08BDFFF717
:4016000037FF08BD0320FFF7FDFE0322014B9A7408BD00BFC081FF1F08B5094B5B7CDBB2042B06D0062B07D0022B07D1FFF7B4FF08BDFFF711FF08BDFFF7F2FE08BD00BF0F
:40164000C081FF1F10B4F1B91F4C21180B7EDB0003F1804303F5F04304EB4002928C92B2203A92B21A800B7EDB0003F1804303F5F04304EB8004A26B203292B29A8001234E
:4016800081F85C3015E0104A11180B7EDB0003F1804303F5F04302241C800B7EDB0003F1804303F5F04302EB8002926B1E3292B29A80054B184490F86820044B03EB021337
:4016C000027E5A7210BC7047C081FF1F10700040F8B5264B1F78FFB2012444E017F0010F3ED026462201224B13449A785D78154015F0010F31D004EB440293001D4A1344FD
:401700001B7913F0800F28D0194922018B5C03F0FE038B54184B03EB44039B8C9BB2202B04D900212046FFF78DFF04E0124B2344012283F85C2006EB460293000D4A1344D3
:401740005A79D2B231010D4B5A540D4B1B78DBB29C4202D100220B4B1A7036010A4B9D550134E4B27F08002FB8D1F8BD9F60004070600040EC90FF1FC081FF1FFE5F00408D
:40178000E890FF1FA490FF1F7260004070B588B0054603AC174E0FCE0FC43368237035B322232B7003236B7001A8FFF763F8002402231AE008AA224412F81C2C08A901EB88
:4017C000121111F8141CE954581C00212954981C02F00F0208AE324412F8142C2A54DA1CA9540134E4B20433DBB2212BE2D908B070BD00BFD093000008B503F095FE08BDFB
:401800002DE9F04103F0A0FD00F07F0503F03EFD00F0030601242DE015F0010F20D02201164B9B5C13F0010F1AD1154B234493F85C3013F0FF0F13D1DFF848801746424431
:40184000002353716301023BDBB2137101212046FFF7F8FE18F8073043F0010308F807300134E4B26D08002DD6D1760802D006F001050824002EF6D1BDE8F08172600040FD
:40188000C081FF1F7060004008B504F0BFFB08BD08B502220D4B1A700F3B93F822300C4B1B7E03F00303012B04D0094AD37E83F08003D3760122064B5A76064B1B78DBB21E
:4018C000022B01D103F0E4FE08BD00BF0B600040EC90FF1F7C91FF1F08B501220C4B1A700F3B9B7C0B4B1B7B03F00303934204D0084AD37B83F08003D3730122054B5A7354
:40190000054B1B78DBB2934201D103F0C1FE08BD0B600040EC90FF1F7C91FF1F10B5044600EB40039800184B1844037913F0800F03D00A0C4FF4804302E00B0C4FF480421A
:40194000012C02D0022C09D010E00121202003F0B1FC0E4B234483F8680007E00121202003F0C6FC094B234483F86800631EDBB2072B08D8FFF750FB044B1C442076FFF794
:401980004BFB84F8740010BDEC90FF1FC081FF1F054B1B7828B9C3001033044A1344586870470020704700BFCA91FF1F409B0000F8B5474B1B7813F0FF0F00F08880444BF1
:4019C00018780138C0B2FFF7E3FF047AC268414B93F87D00C0B2002377E01178884271D13D49095CC9B25578A9426BD1957805F07F05D67806F00306DFF8E0E0690029447D
:401A00008F000EEB07014FF0000C81F803C092F802C081F804C092F803C00EF807C097880F8192F9021000290DDA012E01D1072700E00D276E002E44B100284E31444F7111
:401A400001264E700CE0012E01D1052700E009276E002E44B100214E31444F7100264E7029011F4E012777541E4F7E5C06F0FE067E54691E4900C9B21B4E3170317841F073
:401A8000010131701849097811F0100FFAD092F90210002908DA154F3E78013D0121A94026EA0101397008E0104F3978013D012606FA05F52943C9B239700B4D297801F020
:401AC000FE01297008320133DBB2A34285D3F8BDC091FF1FC081FF1FC491FF1FEC90FF1FFE5F004070600040146000408F6000402DE9F041002310E0684D5900CA18960016
:401B0000AC190022AA55A270E2702281A272627034462C4462710133DBB2082BECD940B90AE000225E49CA545E49CA540133DBB200E00023012BF4D95B4B1B7813F0FF0FC6
:401B400000F0AA80584B18780138C0B2FFF720FF4368DB7913F0400F07D0544A92F87E3043F0010382F87E3006E0504A92F87E3003F0FE0382F87E30057A012472E0C16808
:401B800000236BE08A7802F07F02944263D1274604EB4406B200414E3244128992B28E88B24207D204EB440E4FEA8E02DFF8ECE0724416810A783A4EB25CD2B24E78B242C9
:401BC00049D191F802E0354E7B003B449A00B31883F804E0CB78B354CB7803F0030391F90220002A1BDA012B02D14FF0070801E04FF00D08DFF8A4E07A0002EB070C4FEA3E
:401C00008C06764486F805803246012656708A79B24225D1022B23D1254B1C7020E0012B02D14FF0050801E04FF00908DFF86CE07A0002EB070C4FEA8C06764486F8058045
:401C40003246002656708A79012A09D1022B07D1184B1C7004E008310133DBB2AB4291D30134E4B2082C8AD9C06800220CE0837803F07F0310F8084B03EB43039900074B53
:401C800019448C720132D2B2AA42F0D303F00EFE094B1860FFF74AFBBDE8F081EC90FF1FC491FF1FC891FF1FC091FF1FC081FF1FE890FF1F7C91FF1F5891FF1F044B0622B6
:401CC0005A749A7480221A750022DA7401207047C081FF1F10B5984B1B78DBB20021974A918013F0800F00F0B180934A5278D2B20A2A00F27581DFE812F067007301730143
:401D00007301730173010B007301960073019E00894BDB78DBB2012B09D103F0DBFD4268864B9A6012229A80FFF73AFC10BD824BDB78DBB2022B13D17F4B9878FFF728FE2B
:401D4000002800F04F8142687C4B9A609A68D1789A68927842EA01229A80FFF721FC10BD754BDB78DBB2032B05D02AE00A7811440133DBB201E0002371496F4A9278D2B226
:401D8000934203D20A7812F0FF0FEFD16A4B9B7813F0FF0F09D0684B9B78DBB2802B04D1684C2046FFF7F2FC21460B7813F0FF0F00F01A810B78614A93809160FFF7F0FB0B
:401DC00010BD03F01DFA10BD13F003031AD0022B40F00C81594A9380574B1B7903F07F0303EB43039900584B19448B78DBB282F8A430002382F8A53002F1A4039360FFF761
:401E0000CFFB10BD4D4B02229A8093F87E20D2B283F8A420002283F8A52003F1A4029A60FFF7BEFB10BD454B01229A80474A9A60FFF7B6FB10BD414A012393803E4B1B792C
:401E400043490B449360FFF7ABFB10BD3A4A5278013A0A2A00F2CC80DFE812F04F00CA009100CA000B00CA00CA00CA001300CA003100314B9B78DBB2304A1374FFF71EFF4C
:401E800010BD2D4B9B7803F0FF041BB1601EC0B2FFF77EFD04B110B9002C40F0AB802B4B1B78DBB29C4207D0284B1C700120234B83F8A600FFF71CFEFFF700FF10BD03F0E3
:401EC00039FC002800F098801B4A1379DBB21279D2B21A4981F87D201E4AD25CD2B21C49CB5CDBB29A4205D00122144B83F8A620FFF75EFDFFF7E2FE10BD03F00303012BB7
:401F00002AD04BB1022B79D10B4B9B7813F0FF0F76D103F035FC10BD074B9B78DBB2012B70D1064A92F87E3003F0FD0382F87E30FFF7C4FE10BD00BF00600040C081FF1F3D
:401F4000009300004082FF1FEC90FF1FC091FF1FC491FF1FC891FF1F304B1B79DBB2012B52D82E4B99781B792D4A134493F8A82022EA010283F8A820FFF7A0FE10BD03F024
:401F80000303012B19D04BB1022B3FD1234B9B7813F0FF0F3CD103F051FC10BD1F4B9B78DBB2012B36D11E4A92F87E3043F0020382F87E30FFF782FE10BD184B1B79DBB21D
:401FC000012B29D8154B99781B79154A134493F8A82022EA010283F8A820FFF76FFE10BD002010BD002010BD002010BD002010BD002010BD002010BD002010BD002010BDBC
:40200000002010BD002010BD002010BD002010BD002010BD002010BD002010BD00600040C081FF1F08B5134B1A78D2B21A701B78DBB213F0800F02D00F4A937408BD0220A0
:40204000FFF7E0F90D4B1B7803F06003202B05D0402B06D043B9FFF73DFE06E003F0D0F803E003F05BFB00E0002010B90322024B9A7408BD28600040C081FF1F0060004020
:4020800008B5274B1B78DBB213F0100F47D013F0800F0CD003F00F03012B16D1FFF7C2FF204B9B7C13F0800F11D1012312E013F0400F03D0FFF7B0FA01230BE013F0200F49
:4020C00007D0FFF78FFA012304E0002302E0002300E000231BB3124B1B7813F0800F1ED1104A137DD27C13430F4A13701278D2B2934214D10B4B9B7CDBB2094A127812F00D
:40210000800F07D1074B9B7CDBB2054A1370137803F00F03034A927CD2B29342EAD108BD28600040C081FF1F29600040024B187800F00100704700BF6964004038B1084A30
:4021400092F87E3043F0010382F87E307047044A92F87E3003F0FE0382F87E30704700BFC081FF1F431EDBB2072B0BD8420002449300054A134400225A705A79D2B2000192
:40218000024B1A54704700BFEC90FF1FFE5F0040F8B579B3044616460F4668B308282DD8184B03441B7EFF2B01D1FFF7B7FB154D254495F86800FEF7B7FF287E122302461E
:4021C0003146FEF7FBFE24010F49214489B2BAB2287EFEF7E5FE95F86800FEF791FF297E95F86800FEF754FF012195F86800FEF7ADFF04E0002602E0002600E000263046CF
:40220000F8BD00BFC081FF1F78600040431EDBB2072B00F2AE802DE9F04116460F46044600EB40029300534A1344DB7843EA16235149020188188B54F3B243704F4B23444F
:402240001B7EFF2B03D139462046FFF767FB002F46D0DFF8288108EB040595F86800FEF763FF08EB44039E8408EB8408C8F83870112395F874203146202E28BF2021287E52
:40228000FEF79CFE4FEA041808F108023C4E324492B2B9B2287EFEF783FE95F87400394B1C4494F8C43002460121FEF787FE08EB060292B2344989B295F87400FEF770FEC8
:4022C00095F86800FEF71CFF297E95F86800FEF7DFFE012195F86800FEF738FFBDE8F08104EB44029300234A134400225A70A6B3224F07EB44039E843D1985F85C2095F899
:402300006800FEF711FF112395F874203146202E28BF2021287EFEF751FE07EB840722010832174E324492B2398F287EFEF738FE95F86800FEF7E4FE297E95F86800FEF715
:40234000A7FE012195F86800FEF700FF2401335D43F001033355BDE8F08104EB44029300044A13445A79D2B22401084B1A55BDE8F0817047EC90FF1FFC5F0040C081FF1F17
:402380007060004000930000C880FF1FFE5F0040F8B50646082801D9012400E004462546114B23441B7EFF2B0AD00F4F274497F86800FEF7B9FE387EFEF714FEFF233B765E
:4023C000094B2B4493F87400FF2806D0FEF70AFE054B1D44FF2385F874300134E4B2082C01D8092EDBD0F8BDC081FF1F431EDBB2072B0BD8064B00011A18185C00F00F0065
:40240000537843EA0020023880B2704700207047FC5F004000EB40008300024A13445878704700BFEC90FF1F074B93F8A63013F0FF0F07D0044B93F8A600C0B2002283F894
:40244000A620704700207047C081FF1F014B1878704700BFC091FF1FFEE700BF10B503F093FF04461C4A137843F02003137001F03BFC01F0C7FC01F0A1FC03F015F802F08A
:40248000EFFF164A137843F010031370144B197841F010011970117841F0200111701A7842F020021A700F4A137843F0010313700232137843F001031370204603F068FF1C
:4024C000094B04221A6008221A60084A137843F08003137010BD00BF9A640040BB430040AB4300407058004000E100E07964004008B503F051FF03680C2B00D1FEE7FEE7D5
:40250000F8B5254B1B78DBB2244E3478E4B2244F3D78EDB203F00701224A11701B090132137044F00303337045F003033B7002221D4B1A7010231D4A13702821103211701F
:40254000502110321170C0321370002302F27362137002321370402397321370023213708022134B1A702023124A1370183213707A214D32117003321370193213702A2240
:402580000D4B1A700A20FEF7CFF93D70347066220A4B1A70F8BD00BFCF010049F8460040F94600406E5800400D5100401D510040935A0040C35A0040585B00407658004033
:4025C00008B505F0A1F808BD38B50024354B1C80502202331A70022202331A801823324A1370042231490A801C213148017002300280023001702C202E49088002310B709F
:402600002D492E48FFF7DCFF06222D4B1A702D4B1B78DBB22C4A137052222C4B1A704FF4E36222331A8042F25122023B1A8019250BE0274B1B7803F0010343EA440404F02A
:402640000304782003F098FE013D0DB1032CF0D115B90320FFF700FF1E4A4FF4807313800723137000231C490B704820023108701370053213700222184B1A7004220A33BB
:402680001A70174A137843F01F031370013A137843F001031370013A137843F08003137038BD00BF8040004086400040884000408A40004090400040F42300480041004091
:4026C000004300400F010049A14600400042004025420040044000400640004001400040A243004008B50022364B1A601021364B1970012301F1804101F5E0410B70093146
:402700000A704FF4407001F2E771088002310B7003200131087001312C48088047F6080002310880A1F202210A804FF48041284A11800921A2F2DD5211700B21103211700C
:402740000C2130321170192110321170BFF35F8F653A1370BFF35F8F1E4B1B889BB2002BFAD106E01C4A32F823101C4A22F8331001335F2BF6D9BFF35F8F0122184B1A70F2
:40278000BFF35F8F174B1B7813F0010FFAD1164B1B7813F0010FFAD1144B1B7813F0010FFAD1134B1B7813F0010FFAD1114B1B7813F0010FFAD106224FF090410E48FFF7E4
:4027C000FFFE08BD7082FF1F00760040280000000676004000780040E49300000C7800401470004018700040287000403870004068700040787000401051014008B50A463F
:40280000002103F0F5FD08BD38B572B661223F4B1A70FFF7D9FE3E4A137843F004031370FFF760FF4FF440733A4A1380023213800A24394B1C7003223B3B1A8040F2033281
:4028400006331A8004213548FFF7D8FF042234493448FFF7B5FE04213348FFF7CFFF04213248FFF7CBFF04213148FFF7C7FF04213048FFF7C3FF04222F493048FFF7A0FE32
:4028800004222F492F48FFF79BFE2F4A137843F0020313701032137843F0020313702B4D2B7843F040032B70A2F58632513A137843F010031370082225492648FFF780FE59
:4028C000224625492548FFF77BFE224624492548FFF776FE082224492448FFF771FE082223492448FFF76CFE224623492348FFF767FE234A137843F008031370FFF700FE69
:402900000E2229461F48FFF75BFE38BD00480040E8460040705800408358004000760040F82300480876004010760040187600402076004028760040FC23004830760040C8
:40294000002400483876004003500140A0430040B823004802510040C0230048C0510040CC230048F0510040D823004812510040E023004822510040E82300483051004064
:4029800022430040B043004010B50C461B4B703A1A71587199711B7A13F0FF0F07D0FFF7C5FB20B100221649032002F0F7FD134B5A8904325A81DA680B2A0FD8511C18797E
:4029C0001A4410744A1C587919440874511CD96099791A44117401221A6205E0074A938C9BB201339BB29384002C03DD012002F0F5FC10BD002002F0F1FC10BD7082FF1FB8
:402A00007482FF1F08B50022174B1A70174B1870032805D8164A137843F00403137004E0134A137803F0FB031370032805D8104A137843F00803137004E00D4A137803F076
:402A4000F70313700A4B1B7813F0040F04D1084B1B7813F0080F06D0034A137843F08103137001F035FA08BDD187FF1FD087FF1F7964004070B5044603280CD8104B1D5CDF
:402A8000104E331893F8800101F040F9354495F888210D4B1A70032C0DD80434084B1D5D084E344494F8800102F0B4FC354495F88821064B1A701E2001F002FA70BD00BF6F
:402AC000E4950000E4930000586400405F640040031DDBB20130C0B2032807D800F0070101228A4012F0FF0FF4D000E004200133DBB2072B07D803F0070101228A4012F014
:402B0000FF0FF4D000E00823043BDBB2984205D10C4A137843F00C0313707047984207D2084A137803F0F70343F004031370704704490A7802F0FB0242F008020A7018461C
:402B4000704700BF7964004008B5104A104B1A60104A136843F40073136000230AE0032B03D80D4A52F8231000E00C490C4A42F8231001332F2BF2D90A4B1B78084A0A4B1A
:402B80001A60FFF741FEFEF7FDFA08BD0004FA050CED00E014ED00E000000000F12400000080FF1FBC76004008ED00E008B5094B1A681044084BC31A802B02DC054B186096
:402BC00005E003F0E9FB0C2303604FF0FF32104608BD00BFCC80FF1F0892FF1F06280BD8064B03EB8002D2F89021184490F8AC11137823EA01031370704700BFE493000021
:402C000006280AD8054B03EB8002D2F89021184490F8AC1113780B4313707047E493000006280BD8064B03EB8002D2F8B421184490F8D011137823EA01031370704700BF53
:402C4000E493000006280AD8054B03EB8002D2F8B421184490F8D01113780B4313707047E493000070B501F0E5F9022001F018F903F08AFB504A137843F00303137001327B
:402C8000137843F00303137003F082FB4B4B1A7800251D705A786FF04B025A7020331A784FF0FF341C705A785C70012241331A7003F06AFB424A137843F00303137002F27A
:402CC0000312137843F00303137003F061FB3D4B1C7020331C70403B1C7003F223131C7030331C70103B1C7003F04EFB364A137843F003031370013A137843F0030313702D
:402D000003F046FB314B1C7020331C70403B1C701F331C7030331C70103B1C702C4E042434602C490220FEF72BF807210220FEF70FF80823336028490320FEF721F807211A
:402D40000320FEF705F800F0DDFF2046FFF77AFF0520FFF777FF0620FFF774FF02F056FB2046FFF74DFF0520FFF74AFF0620FFF747FF1A4B1A7822431A701A7842F0080218
:402D80001A7001F04DF801F027F8284601F006F8204600F0F3FF284600F0B8FF02F092FB02F06CFB284602F04BFB204602F038FB284602F02FFB70BD9964004029640040BF
:402DC00098640040286400409F6400402F64004080E100E0B53F0000313F00007964004008B5064B93F826302BB9FFF73BFF0122024B83F82620FFF731FB08BD7082FF1FC8
:402E000001281CD810B44000C0B20D4B03EB8002D2F8D8111A1892F8E8410A7822EA04020A700130C0B203EB8002D2F8D821184490F8E811137823EA0103137010BC70473C
:402E4000E493000001281AD810B44000C0B20C4B03EB8002D2F8D8111A1892F8E8410A7822430A700130C0B203EB8002D2F8D821184490F8E81113780B43137010BC7047F8
:402E8000E493000001238340012827D8DBB2144A92F82720134221D010B4114922EA030381F827300F4B03EB8002D2F8EC21184490F8F441137823EA0403137090F8F831FD
:402EC000CA1892F82830013BDBB282F8283023B9054A137823F01003137010BC704700BF7082FF1FE4930000005B004001238340012828D8DBB2144A92F82720134222D19C
:402F000010B41149134381F82730104B03EB8002D2F8EC21184490F8F44113782343137090F8F831194491F8282022B908490A7842F010020A70044A134493F82820013228
:402F400083F8282010BC70477082FF1FE4930000005B0040F8B5074616460D1E14DD284605F02AFF4FF05E5105F07AFF05F02EFC374905F06BFE374905F072FF06F04CF971
:402F800005467F2800DD7F25002D0BDC49E0324A02EBC302126B914202DA2F49CB641146013301E000231946032BF0DD182D01DC012300E00023A3B12CE0274B03EBC403A7
:402FC000D86A00280BDB00221146FFF7DDFC224B03EBC4034FF0FF32DA6200221A63013400E00024032CE8DD1B4C00220023C4E9142304EBC603DF621D63A319002683F839
:403000005860324629463846FFF7BEFCE66584F86C60F8BD104A136F013303F01F031367F8BD0D4B03EBC603D86A002803DD00221146FFF7A9FC084A02EBC6014FF0FF3343
:40304000CB6200230B63164486F85830F8BD00BF0918C43C551D02437082FF1F10B541F6FF734FF480420121084603F027F8214C84F87400FDF7D0FF84F8750094F87500CF
:403080000223FE221021FDF799FF94F8750004F1780292B246F25B41FDF782FF94F8740094F87510FDF7F4FF41F6FF734FF480420121084602F06CF984F88800FDF7ACFF01
:4030C00084F8890094F889000223FE221021FDF775FF94F8890004F18C0292B246F25851FDF75EFF94F8880094F88910FDF7D0FF10BD00BF7082FF1F10B54FF4804341F630
:40310000FF720121084602F0BBFF214C84F89C00FDF782FF84F89D0094F89D000123FE221021FDF74BFF94F89D0004F1A00146F24B4289B2FDF734FF94F89C0094F89D10CC
:40314000FDF7A6FF4FF4804341F6FF720121084602F000F984F8B000FDF75EFF84F8B10094F8B1000123FE221021FDF727FF94F8B10004F1B40146F2485289B2FDF710FF40
:4031800094F8B00094F8B110FDF782FF10BD00BF7082FF1F38B5304CD4F8C40000F0010002F0C2FFD4F8C400C0F3400002F0A4FF0025C4F8C8502846FDF734FB0420FDF71E
:4031C000B3FBFDF727FB2846FDF70CFBFDF7D4FAC4F8CC000120C4F8C800FDF723FB0420FDF7A2FBFDF716FB2846FDF7FBFAFDF7C3FAB0F57A7F04DDD4F8CC30B3F57A7FF7
:4032000011DB05F0D9FD0446134BD3F8CC0005F0D3FD0146204605F0D7FE104905F020FE05F0FAFF01E04FF6FF700B4BD3F8C42003EB8202C2F8D000D3F8C420013202F098
:403240000302C3F8C420D3F8C820013202F00102C3F8C82038BD00BF7082FF1F0060EA4608B5184B503A1A71587199711B7A13F0FF0F07D0FEF75AFF20B100221249032094
:4032800002F08CF90F4B5A8904325A81DB680B2B10D8591C0B4A1079134418744B1C507911440874591CD1609179134419740123136208BD034A938C9BB201339BB293846E
:4032C00008BD00BF7082FF1F7482FF1F08B5194B2039197100F07F025A71C01198711B7A13F0FF0F07D0FEF721FF20B100221249032002F053F90F4B5A8904325A81DB683A
:403300000B2B10D8591C0B4A1079134418744B1C507911440874591CD1609179134419740123136208BD034A938C9BB201339BB2938408BD7082FF1F7482FF1F10B40A78C6
:403340002C4B83F8E0204A7883F8E1208A7883F8E220CA7883F8E32093F8E430D3B91DE0CA5C12F0800F0CD12248D0F8E820541CC0F8E840C2F30902CC5C024482F8EC40C4
:4033800006E0F72A04D100221A4B83F8E4202FE0013300E00023022BE2DD29E00B78F02B26D1144B93F8EC3413BB4B787E2B04D10122104B83F8ED241AE0CBB90D4B01223F
:4033C00083F8E420D3F8E83093B99A180948C0F8E820C3F309034C78034483F8EC40531CC0F8E830C2F309028978831883F8EC1010BC70477082FF1F08B5104E104D16E0D5
:4034000029686B68AC68002204E051F8040B43F8040B0432A242F8D1E868002203E0002143F8041B04328242F9D11035013E002EE6D102F0B7FF01F0A1F800BF010000009A
:403440007C9D0000C1680268D30912F07F0200D001221A44436803FB02F3027A02FB033301EB032321B1B3F5802F03D90320704703207047002070478B6904E003F580733E
:403480000A68934203D21A688242F7D100E000231846704770B48A6902600024264608E013681BB19E4201D202601E4602F5807201344D680B6903FB05F39C42F0D370BC0F
:4034C000704700BF094B1B7803F00C035B08084A127812F0040F00D0013303F1924393F82031DBB2034A1370704700BF205800402158004008460040054B1A7802F0FD02CB
:403500001A701A7800F0020010431870704700BF205800400F490B7803F0FC0200F0030313430B7001280AD10B4B1B78DBB20B4A13700B4B1B78DBB2013213707047094B58
:403540001B78DBB2054A1370074B1B78DBB201321370704740580040100100493046004014010049AD010049B50100490844C0F34F007047F0B5C50800F0070201239340D7
:40358000DBB21C4A115C02EB41063789348B0A4492F828E0184A525D13420DD0164E06EB400080883C1BA0421DDA22EA03027255314481F814E016E00F4E06EB40008088C2
:4035C0003C44A0420BDD30460844007D012801D81A437255084A11440138087503E0064A114481F814E0044A505D184000D00120F0BD00BFE49500007087FF1F70B50A4B12
:40360000184490F8304090F838502544EDB200262046FFF7AFFF00B101260134E4B2A542F6D8304670BD00BFE495000070B40A490A5C0A4C04EB40031D8C1D862044002680
:4036400080F840609E80114491F8281022441175A3F8485070BC7047E49500007087FF1FF8B505462B4B1A5C03EB4203B3F84060294C04EB4004B4F84810208CFFF776FF49
:40368000A4F84800228E904203D3841AA4B2012702E0141AA4B20027B7B9142C14D91E4B2B4493F858301D2B08D92846FFF7BEFF194B2B44002283F858201DE0164A2A44A0
:4036C000013382F8583017E0B44202D9132C13D897B9114901EB050E9EF8403043EA02231844801AC0F30F2301EB45010B868EF8400000238EF85830B44205D927B1064B0F
:4037000003EB4505AC80F8BD034B03EB45050023AB80F8BDE49500007087FF1F10B5002404E02046FFF77CFA0134E4B2062CF8D910BD00BF70B50546104B034493F8504033
:4037400093F85860032802D8FFF76AFA03E00438C0B2FFF743FA0F2C00D10724074800EB8404226E137823EA0603137000EB8500D0F8803009221A7070BD00BFE495000034
:4037800008B5134B1B7813F0040F09D1104B1B7813F0080F04D10E4A137803F0FC0313700C4B1B781B020C4901EB40010B840B4A12781343DB430B84FFF7BCFF002001F07A
:4037C00029FE074A137843F00103137008BD00BF796400401E6400407087FF1F0E6400407258004010B5104B1A1892F8501092F8584003EB8003D3F8803009221A700F29A1
:4038000000D10721084A02EB8102126E137823431370032802D8FFF715FA10BD0438C0B2FFF7EEF910BD00BFE495000070B504460E46C0F30725FDF7A9FB32462946C4F39A
:403840000740FDF799FB0446FDF74CF80CB1042070BD002070BD00BF10B404460022FF2013E0A35C584000230BE010F0800F04D04000C0B280F0310001E04000C0B2013379
:40388000DBB2072BF1D9013292B28A42E9D110BC704700BF30B4044618B1086800F5807008600D681868854201D398690860002010605868844218D31C69012C13D9096883
:4038C000A1EB00259B699D420BD204F1FF1404F57F4400FB04F003EB0020C91A0844106003E0156001E00B68136030BC704700BF2DE9F04FCDB01D4600230B930A93AB68D0
:4039000009930391002A00F09F80824693461318EA68934200F29A80002900F099800BF1FF331B094C4AA2FB0323059301330493002307939946012081E0099B1C682B4628
:4039400008AA09A92046FFF7A5FF4FF4807200210CA802F04DFD04F10108CDF83080CDF834A00399059B994502D1CDF838B007E070230E93ABF1700B9A44039B7033039310
:403980000E9A0FA803F0C0FE089921B1802211442CA803F0B9FE6C68A04503D9C4EB0804013400E00124002731E0444501D10CAE04E029462046FFF75FFD0646099BAA692A
:4039C0009A1A120A6968B2FBF1F301FB132356B17268B1680191009207AA0AA90BA8FDF721FC074600E001374FB90B98079931440A9A121A0C310CAB184403F085FE2B7DBA
:403A000023B180212CA8FFF727FF2B9001344445CBD92A460CA90998FFF708FF2B7D4BB140B9AA69099B9B1A28682A460CA91844FFF7FCFE68B9099BAB6009F10109049BC4
:403A40009945FFF47AAF04E0012002E0012000E001204DB0BDE8F08F264992242DE9F04F8BB00691002A00F0E68081461F46934613181C460793FB689C4200F2DF8000296F
:403A800000F0DF80B8680368099304F1FF3A4FEAD913C3EBDA1A0AF1010ABC69031B7A681502B3FBF5F303FB02F304EB0323039300250EE0B9EBC51F06D36B1CDB01013B12
:403AC000994503D9002302E0002300E001231BB901359542EED30025039BC01A030A184605933B69012B09D905EB0A03013B854207D8984208D20123049307E000230493FD
:403B000004E00123049301E000230493C84600260123CDF82090894635E0039B03EB052008F07F0404F180010136B24502D9C4F1800400E05C46049B63B1059B9D4209D920
:403B40007B68A0EB0320BA69904203D238685B1BA0EB03203B7D5BB1009723460A464946FDF7A8FB034648B18246DDF820900FE022460144484603F0C7FD0023A044C4EBC6
:403B80000B0BA14401355645C7D39A46DDF820905346002B57D1099B002B54D07D689D4228BF1D46013D5D1BDDF81880079E1C463EE039462846FFF75FFC8646002836D0CD
:403BC000436881681944994504D29E4294BF0022012203E089452CBF002201223AB3994502D3C3EB090C01E04FF0000C994502D2C9EB030000E000200CF10C0CB14228BFE0
:403C0000314699452CBFC9EB0103CB1A40443A7D42B10097624601467046FDF74BFB824628B110E01A460EEB0C0103F06DFD0135A542BED907E001239A4604E001239A4628
:403C400001E001239A4650460BB0BDE8F08F00BFF8B500293DD00D4600283CD0C368002B3BD043680A2B3AD80768002F39D00446FFF7E8FB0646002834D1EF6063682B6185
:403C8000237A2B75637A6B75E368AB612368DA0913F07F0300D0012313446B60626802FB03F3E26802EB03232C4644F8083B29462046FFF7EFFBAB681B689BB92B7D8BB11C
:403CC0002846FDF779FA064629462046FFF7E2FB08E0012606E0012604E0012602E0012600E001263046F8BD054A137843F0020313701032137843F002031370704700BF06
:403D0000A243004008B5FFF709FD08BD014B1870704700BF805B004008B5134B1B7813F0040F09D1104B1B7813F0080F04D10E4A137803F0FC0313700C4B1B781B020C494C
:403D400001EB40010B840B4A12781343DB430B84FFF7F0FC0020FFF7D9FF074A137843F00103137008BD00BF796400401B6500407087FF1F0B6500407058004008B5064B03
:403D80001A7802F0F3021A701A7800F00C0010431870FFF797FB08BD2058004008B5064B1A7802F0FB021A701A7800F0040010431870FFF787FB08BD21580040054A137848
:403DC00043F0010313701032137843F001031370704700BFA843004008B51422084B1A700133002018701A7842F004021A701A7842F002021A70FFF77FFBFFF763FB08BD06
:403E000020580040054A137843F0010313701032137843F001031370704700BFA743004008B50020FFF776FB0B4B1A7842F020021A701A7802F0FB021A701A7842F008022C
:403E40001A7003F287231A7802F0E7021A701A7842F010021A7008BD4058004038B500252C4606E02046FFF7C9FB00B101250134E4B2072CF6D9284638BD00BF10B50024EC
:403E80000BE004F007020123934013F0FF0F02D02046FFF7E5FB0134E4B2072CF1D910BD012805D1054A137803F0EF0313707047024A137843F01003137070477964004003
:403EC000024B187040081033187070472364004010B50446FEF7CEFD124B1A7842F001021A701B7813F0040F07D00F4A137803F0FE0313702046FFF775FC0A4B1B7813F04C
:403F0000080F08D0201D094A137803F0FE031370C0B2FFF767FC034A137843F00203137010BD00BF79640040705800407258004010B51E4C237803F0F70323701C4B93F8AB
:403F400060000430C0B2FFF71BFC237813F0040F2BD1174B93F8613013F0800F07D0144A92F8613003F0FE0382F8613010BD104C94F86000FEF7ACFD84F8600094F8603077
:403F8000DBB2032B04D994F86030DBB2032B05D8074B93F86000FFF79BFF10BD044A92F8613003F0FE0382F8613010BD796400407087FF1F10B51D4C237803F0FB03237067
:403FC0001B4B93F86000FFF7A7FE237813F0080F2BD1174B93F8613013F0800F07D0144A92F8613003F0FE0382F8613010BD104C94F86000FEF76CFD84F8600094F860305A
:40400000DBB2032B04D994F86030DBB2032B05D8074B93F86000FFF75BFF10BD044A92F8613003F0FE0382F8613010BD796400407087FF1F10B5002404E02046FFF77AFBD5
:404040000134E4B2072CF8D910BD00BF024B93F8610000F0010070477087FF1F10B50446FEF7D0FCFFF7F2FF0028FBD1032C02D82046FFF7DBFA032C03D8201DC0B2FFF75B
:40408000D5FA10BD10B5002404E02046FFF7E6FF0134E4B2032CF8D910BD00BF10B5114C002384F86130FF2384F8603094F86000FEF70EFD84F8600094F86030DBB2032BE0
:4040C00004D994F86030DBB2032B0AD8054B93F8612042F0010283F8612093F86000FFF7F7FE10BD7087FF1FF8B50122994B1A70994B1B78002B40F02481984B00221A60B1
:404100001A71954A52785A71022515E1924A545D6B1CD35C5B0543EA0473A91C545C43EA8434EB1CD35C44EAC313291D545C04F07F041C43894B9C601B79002B5AD1874B30
:404140001E687EB9204605F08DF880B2834A9081731C010A16443174591C1160C0B213441874E8E07D4B9B8901335B009E4211D27B49204604F074FE05F074F880B2731C06
:40418000764A010A16443174591C1160C0B213441874D0E09E4240F0CE80704BC3F81044D3F810046F4904F0F9FFA8B16B4BD3F810046D4905F010F870B1721C674B1E443B
:4041C000EF213174501C18601A44117401221A710022C3F81424AEE0604AD2F818340133C2F81834002361490B6082F81C34604A1370A0E0012B16D1204605F033F880B27E
:40420000564BA3F81E0419684A1C040A19440C74511C1960C0B21A44107402221A710022A3F8202487E0022B40F085804B4BB3F82064B3F81E349E4254D2484BD3F814342D
:4042400013F003030AD1454F3E68731C3B60204605F008F8C0B23E4430743CE0012B0AD13E4F3E68731C3B60204604F0FBFFC0B23E4430742FE0022B17D10021204604F0F8
:404280008DFF38B1354A1368591C11601344FF221A7420E0314F3E68731C3B60204604F0E1FFC0B23E44307415E03249204604F0D7FD04F0B1FF00B2284B19684A1CC0F380
:4042C000072419440C74511C1960C0B21A4410740136A3F82064214AD2F814340133C2F8143428E02049204604F058FFB0B12249204604F071FF88B1184B19684A1C1944DB
:40430000FE200874511C19601A44107403221A71012283F81C24A3F822140CE00F4AD2F818340133C2F81834002310490B6082F81C340F4A137005350C4B1B689D42FFF4B4
:40434000E5AE0023034A1370084A1360084A1370F8BD00BF5C87FF1F5C83FF1FD487FF1F00FF7F470000C0BF000020C05883FF1F5D87FF1F00FEFF46000060C02DE9F04169
:4043800007460D4690461C461946069804F05EFC06462946384604F059FC07462946404604F054FC0146384604F00EFE0146304604F056FD0146204604F04AFCBDE8F0810C
:4043C00010B5FEF731F860B1FEF740F848B1264B1B7813F0FF0F04D0FDF7A8FE08B101F085F9FEF733F800283CD0FEF71DF870B11E4B187840221E49FDF708FF1D4C2078BB
:4044000040221D49FDF7C4FE2078FDF7ABFE174B1878FDF7FFFF012806D1144B1878174B1A780021FDF7F2FE124B1878FDF7F2FF012803D10F4B1878FDF794FE0A4B1B78D6
:4044400013F0FF0F04D0FDF771FE08B101F01CF9054B1B7813F0FF0F04D0FDF767FE08B101F016F910BD00BF7882FF1FE890FF1FA890FF1F7C91FF1F8091FF1FA490FF1F1F
:4044800008B5FDF753FE28B901F062FD00220D4B1A7011E00B4B1B7813F0FF0F0CD10121002001F0D9FDFDF7D1FF0028FBD001F01DF90122034B1A700022034B83F8242408
:4044C00008BD00BF7882FF1FD487FF1F10B5184B022218490020FFF7C1FAFDF727FE012824D1154B93F82834DBB2012B0DD1124C002084F82C040E4B022204F22C41FFF714
:40450000F7F9012384F8243410BD0B49012381F82C34074B022201F22C410020FFF7E8F901F016FD01F03EFEFCF79AFB10BD00BF6091FF1FFC8BFF1FD487FF1F08B501F088
:4045400011F801F025F8FFF7C1FF08BD10B50446002104F041FE48B10549204604F080FC04F0C0F8034904F07BFC10BD024810BDD27EFA3DAC7F8A410080BBC480B582B0FF
:4045800062B600F06DFE0028FBD0894800F0D4FF0120FDF7D3FD874800F0ECFFFDF7C6FD08B9FFF793FF00F0ABFFFCF7D1FCFCF74DF9FEF7A1FDFEF751FD01F0DFFD01F04B
:4045C000D9FD01F0AFFE01F073FEFEF709FC0A20FCF730FBFFF756FD0A20FCF72BFB002001F096FDFEF7D6FD012001F091FD0520FCF79AF9FFF71EFDFFF740FCFFF74EFDDC
:4046000001226D4B1A606D4B1B7813F0FF0F01D0FFF76AFD6A4B1B68002B40F08181694B1A68694B53F822204FF6FF739A4240F08A80644B18681A685D4901EB8201D1F833
:404640000014624A02EB8002C2F830141B68604AD35C002B4ED05B4D2A68286829685B4C04EB4101B1F84034013303F01F0303EB401304EB8303D3F8481404EB8203C3F8C3
:40468000301429682A6804EB4202B2F840342A6804EB8202D2F8302403EB411304EB8303C3F848242A682B6804EB4303B3F8403404EB4202013303F01F03A2F840342B68AB
:4046C00004EB830329683A4A02EB8102D2F80014D3F8300404F0BAFA3E4904F0C1FB4FF08C4104F0B5FA2B682B6804EB8304C4F8480615E1334A14681068344B03EB40009B
:40470000B0F8401415682A4800EB8500D0F8000401EB441103EB8101C1F848041068116803EB4101B1F8401403EB4000013101F01F01A0F84014126803EB82034FF08C4227
:40474000C3F84826ECE01F4B1B68214AD35CB3B11C4908680C6809681C4A02EB4101B1F84034013303F01F0303EB441302EB8303D3F8483402EB8002C2F83034B4E011492A
:404780000C680868114B184490F858260D680E4850F8250002EB440203EB8202C2F85C060A6803EB82020023C2F87C3626E000BF009700003D4500007C82FF1F5D87FF1FEF
:4047C0003883FF1F3483FF1F4083FF1FD487FF1FC882FF1F0080AA43C1480168C14A03EB410102EB8101D1F85C16006802EB8002D2F87C060144C2F87C160133012BEBDDA9
:40480000B74C22682368B74D2B4493F858362A44013303F0010382F858362368226805EB8202D2F87C26520805EB8303C3F87C262768236805EB8303D3F87C0604F0B8FA8E
:4048400080462368A84E06EBC303D3F81094236806EBC303D3F8140404F0AAFA8246484604F0A6FAA14B0093A14B524601464046FFF784FD01464FF07E5004F0A5FB05EB05
:404880008707C7F88C062768236805EB8303226806EB8206D6F83014D3F88C0604F0E0FAFFF754FE05EB8707C7F830042168226805EB4202B2F84034226805EB8202D2F863
:4048C000302403EB411305EB8303C3F848242268236805EB4303B3F8403405EB4205013303F01F03A5F840347D4D2B687D4C04EB830329687C4A02EB8102D2F80014D3F87F
:40490000300404F0A3F97B4904F0AAFA4FF08C4104F09EF92B682B6804EB8304C4F848066F4B1A68744B53F83230002B20DB6C4B1B686C4C04EB8303D3F8480604F06CFC70
:40494000D4F89C36984213D0654D2B6804EB8303D3F8480604F086FC0021FEF7B7FC2B6804EB8303D3F8480604F056FCC4F89C06012001F0F3FB00286AD174E0594DD5F8DB
:40498000A066A0B201F0DCFB06EBC40605EB8606C6F8A40605EB84050022C5F844270EE0504B02EBC40103EB8101D1F8A41603EB8403D3F844070144C3F844170132072AFD
:4049C000EEDD484A02EB8401D1F84437DB08C1F8443702EB4402B2F8582702F119018B4202D8193A934204D25B093E4A224482F864373C4B1A1992F864178AB203EB4403E8
:404A0000B3F86C379A4216D0032C06DC0022C1F17F0104F11100FEF723FC042C0BD100F0D5FC40B12F4B2344002293F8641704F11100FEF715FC2B4B1A1992F8642703EB68
:404A40004403A3F86C275201A3F85827013400E00024042C92DD234AD2F8A036013303F00703C2F8A03601F041FC10F0010F06D101F03CFC10F0100F03D1002302E0012354
:404A800000E00123002BEED0002495E01B4B1B78221D134113F0010F10D0194B53F824204FF6FF739A4209D10122164B1A55164A52F82430013342F8243005E00023114A7B
:404AC0001355114A42F824300E4B1B5D03B30A4B53F83430002B1BDB01220C4B1A551AE03483FF1FD487FF1F00970000C1A1F13EC1A1713F0080AA439C82FF1F7087FF1F90
:404B00004083FF1FDC82FF1FCC82FF1FC882FF1F00229D4B1A559D4B53F82430802B0DD99B4B53F83430002B08DB9A4B03EB840322460021D3F87807FEF70CFA6300964AA5
:404B400012F814500133D35C03EB0525914B03EB8403C3F88857002D15DD8E4B03EB8403D3F898377BB9A6008C4B3344D3F8000404F052FB874B1E44C6F8780722462946DA
:404B8000FEF7E8F910E07DB9824B03EB8403D3F89837002B08DD7F4B03EB840322460021D3F87807FEF7D6F97A4B03EB8403D3F88827C3F898270134032C7FF767AF01F028
:404BC0005BFB10F0010F06D101F056FB10F0100F03D1002302E0012300E00123002BEED06C4B93F81C3413F0FF0F09D019E06C49CA5CD2B26B48C2540022CA54013300E03C
:404C000000230F2BF3D9684B1B681BB10122654B1A7002E00022634B1A700022624B1A6033E05C4B93F8A8376BB15E4A03231370584B59795170002283F8A82783F81C2479
:404C4000A3F8AA2721E0574A0223137051494979517018E04F49B1F8AA27B1F822148A4209D24C49501CA1F8AA070A44127CD2B24C49CA5406E0EE214A4AD1540121454A14
:404C800082F8A81701330F2BE4D9484B1B68102B02D9012000F0A2FB0122444B1A60414B1B7813F0FF0F0BD001F0D8FA404B18780121FCF74BFA3F4B18780121FCF746FAD8
:404CC000344B93F8243413F0FF0F01D0FFF7D8FB394B1B7813F0FF0F11D0FDF727FA70B1364B1B88402B05D92A4AB2F8AC370133A2F8AC370022314B1A80FFF761FBFFF7C9
:404D0000A5F90028FBD1FFF7A9F82D4B1A782D4B1A722D490C680A682C4850F82220C2F3072203F814200A6852000132096810F821109954174991F8AE2702F00F00D8733D
:404D4000013281F8AE271B7A13F0010F03D0012000F050FB02E0002000F04CFB01F0B8FA1B4B18780121FCF7F1F91A4B18780121FCF7ECF91849D1E90023013243F1000373
:404D8000C1E900232BE400BFC882FF1FCC82FF1F9C82FF1FD487FF1FE882FF1F009700008082FF1F2483FF1F9082FF1F7C82FF1FF882FF1F2083FF1F7882FF1F7A82FF1FF4
:404DC0007087FF1F1083FF1F3483FF1F4083FF1FE482FF1F0C83FF1FC082FF1F0E4A137803F00303127812F0800F09D0022B02D1094B5B780DE0012B0BD1074B5B7808E0AD
:404E0000022B02D1044B5B7803E0012B01D1024B5B780020704700BF006000401022014B1A60704780E100E01022014B1A60704700E100E04001C0B2014B1870704700BFBC
:404E400004E400E0014B1B681865704708ED00E0094B1B7803F00C035B08084A127812F0040F00D0013303F1924393F83031DBB2034A1370704700BF245800402558004050
:404E800009460040054B1A7802F0FD021A701A7800F0020010431870704700BF245800400F490B7803F0FC0200F0030313430B7001280AD10B4B1B78DBB20B4A13700B4B3A
:404EC0001B78DBB2013213707047094B1B78DBB2054A1370074B1B78DBB201321370704743580040130100493646004017010049B3010049BB010049094B1B7803F00C03C0
:404F00005B08084A127812F0040F00D0013303F1924393F82831DBB2034A1370704700BF28580040295800400A460040014B1870704700BF825B0040054B1A7802F0FD024E
:404F40001A701A7800F0020010431870704700BF28580040054A137843F0040313701032137843F004031370704700BFA843004008B51422064B1A70013300221A701A7810
:404F8000D2B21A700220FFF7D7FFFFF7B5FF08BD285800404FF40062014B1A60704700BF80E100E04FF40062014B1A60704700BF00E100E04001C0B2014B1870704700BF05
:404FC0000BE400E0014B1B68D866704708ED00E030B40D784C78F72820D9764A1178114443F00F030B7113780133DBB2137013781344187113780133DBB2137013781344BA
:405000000021197113780133DBB2137013781344197113780133DBB21370C9E0032801D9F02859D1F0280AD1624A1078104443F00403037113780133DBB2137034E0EF2DA3
:405040000AD85C4A1078104443EA1513037113780133DBB2137027E0F62D0AD1554A1078104443F00503037113780133DBB213701AE0F12D01D0F32D0AD14E4A10781044DE
:4050800043F00203037113780133DBB213700BE0F22D09D1474A1078104443F00303037113780133DBB21370424B1A781A4415711A780132D2B21A701A781A4414711A78CB
:4050C0000132D2B21A701A7889781A4411711A780132D2B21A706BE0F72869D1012A25D012B1022A44D063E0324A1178114443F005030B7113780133DBB21370137813445D
:40510000F721197113780133DBB21370137813440021197113780133DBB2137013781344197113780133DBB2137041E0214A1178114443F006030B7113780133DBB2137076
:40514000137813441D7113780133DBB2137013781344F721197113780133DBB21370137813440021197113780133DBB213701FE0104A1178114443F007030B711378013392
:40518000DBB21370137813441D7113780133DBB21370137813441C7113780133DBB2137013781344F721197113780133DBB2137030BC7047A490FF1F10B5002404E02046E7
:4051C000FDF70CFD0134E4B2062CF8D910BD00BF08B50A4B1B7813F0FF0F0DD0074B93F84400FDF717F9012806D1044B93F844001A780021FDF70AF808BD00BFA490FF1F03
:4052000008B5154B1B7803F00303012B02D0022B04D010E0104B1B79DBB20DE00E4B1B7903F07F0303EB43039A000C4B1A4492F85230DBB200E00023022B08D8074AD2F8C4
:40524000B420D35C012B04D1FFF7C8FD08BD002008BD002008BD00BF00600040A490FF1F024B1878C0F38010704700BF0151004008B501F089F8044A137843F01003137036
:4052800001F086F808BD00BF96640040014B1878704700BF6664004010B50446FFF7BEFD2046FFF7CFFD0720FFF7C4FDFFF7BCFD10BD00BFF0B583B016461F460B4D00244F
:4052C0002C700194009423460A4601462046FBF7BDFE3A4631462878FBF7E6FE02212878FBF7FCFE287803B0F0BD00BFD080FF1FF0B583B016461F460B4C0125657000237F
:40530000019300932B460A4601462846FBF79EFE3A4631466078FBF7C7FE02216078FBF7DDFE607803B0F0BDD080FF1F08B501F02BF8044A137843F01003137001F028F8CA
:4053400008BD00BF96650040014B1878704700BF66650040F0B583B016461F460B4C0525A5700023019300930A4601462846FBF76DFE3A463146A078FBF796FE0321A07865
:40538000FBF7ACFEA07803B0F0BD00BFD080FF1FF0B583B016461F460B4C0425E5700023019300930A4601462846FBF74FFE3A463146E078FBF778FE0321E078FBF78EFEFF
:4053C000E07803B0F0BD00BFD080FF1F024B1878C0F38000704700BF31510040044A137803F0FB03800000F0040018431070704700510040044A137803F0FD03400000F023
:4054000002001843107070472051004008B5FFF7D3FE08BD014B1870704700BF815B004008B5064B1A7802F0F3021A701A7800F00C0010431870FFF70BFD08BD245800407F
:4054400008B5064B1A7802F0FB021A701A7800F0040010431870FFF7FBFC08BD25580040054A137843F0020313701032137843F002031370704700BFA843004008B5142292
:40548000084B1A700133002018701A7842F004021A701A7842F002021A70FFF7F3FCFFF7D7FC08BD24580040054A137843F0080313701032137843F008031370704700BFBF
:4054C000A743004008B50020FFF7EAFC0B4B1A7842F020021A701A7802F0FB021A701A7842F008021A7003F527731A7802F0E7021A701A7842F010021A7008BD4358004017
:4055000008B5084B93F8B8302BB9FFF731FD0122044B83F8B820FFF71DFD8020FFF706FD08BD00BFA490FF1F024B1878C0F38010704700BF8F45004000B585B000238DF860
:405540000930802200928DF8083004230193039003496846FEF77CFB05B05DF804FB00BF6091FF1F4FF40062014B1A60704700BF80E200E010B50446FFF70CFD2046FFF7E9
:4055800021FD0720FFF716FDFFF70CFD10BD00BF014B1878C00970478C4500402DE9F04104460E46174637480178C9B290F8443003EB43039A000244B2F850309BB2043B2A
:4055C000994201D9FFF704FE2E480178C9B290F8443003EB43039A000244B2F850309BB2043B994248D8231FDBB2EB2B08D93B46224631462046FFF7EBFC4FF000083DE006
:4056000000253B4603227119F020FFF7E1FC033CE4B20335EDB21B480178C9B290F8443003EB43039A000244B2F850309BB2043B994210D9FFF7CCFD12480178C9B290F810
:40564000443003EB43039A000244B2F850309BB2043B994204D8022CD3D84FF0000801E04FF00108B8F1000F08D13B4622467119F720FFF7ADFC01E04FF001084046BDE8DE
:40568000F08100BFA490FF1F08B5FFF7A1FD08BD38B5144B93F8D800FCF7BCFE01281FD1104B93F8D800FCF7A1FEC5B2032D0FD811E00C4B234493F8DC0060B1631C0A4906
:4056C000194400F0F000FDF739FE0434E4B200E00024AC42EDD3034B93F8D800FCF742FD38BD00BFA490FF1F8091FF1F10B50A4C0023237094F844004022211DFCF786FDF3
:4057000094F8D800402204F1DC01FCF741FD94F8D800FCF727FD10BDA490FF1F044B1B7813F0800F01D0024B5B780020704700BF0060004010B5104B1C79E4B20F4B93F83B
:405740001C010138C0B2FCF723F943681B799C4201D9022C0DD8094B1C4494F82031DBB284F82431044B9B78DBB284F82031012010BD002010BD00BF00600040A490FF1F11
:405780002B4B1B7903F07F035A1ED2B2072A4CD810B5590019448A0026490A4492F84A1001F0FE0182F84A10002182F84B10224C1801215C01F07F01215492F8491001F0FB
:4057C000FD0182F8491092F84C2012F0800F14D003EB43018A0017490A4492F84920D2B2012A04D1224602440C2393701AE01B01114A1A440D23937014E003EB43018A00FA
:405800000C490A4492F84920D2B2012A05D11B01094A1A440823937004E01B01064A1A4409239370FCF74AFA10BD0020704700BF00600040A490FF1FFC5F004008B5184B2E
:405840001B7903F07F035A1ED2B2072A26D8590019448A0013490A4492F84A1041F0010182F84A10002182F84B1092F8491041F0020182F8491092F84C2012F0800F05D0E3
:405880001B01094A1A448D23937004E01B01064A1A4489239370FCF711FA08BD002008BD00600040A490FF1FFC5F004008B5084B93F81C010138C0B2FCF76AF830B1426893
:4058C0001279023200EBC203586808BD002008BDA490FF1F024B93F826310248704700BFA490FF1F409B00004001C0B2014B1870704700BF01E400E0014B1B68586470475D
:4059000008ED00E0024A137843F001031370704708590040704700BF054A137843F0080313701032137843F008031370704700BFA2430040054A137843F004031370103296
:40594000137843F004031370704700BFA2430040014B1878704700BF6C640040014B1878704700BF6465004008B501E00A4B1B780A4B1B7813F0200FF8D100F005FD084BD9
:405980001A7842F001021A701A7802F0FE021A7000F0FEFC08BD00BF586500406C6400409865004008B500F0EFFC0A4A137843F02003137002F58472137843F0100313703F
:4059C000FF3A137843F01003137000F0E1FCFFF7A3FF08BD9364004008B501E00A4B1B780A4B1B7813F0200FF8D100F0CDFC084B1A7842F001021A701A7802F0FE021A70E5
:405A000000F0C6FC08BD00BF5B640040646500409B64004008B500F0B7FC0A4A137843F0200313700732137843F010031370F932137843F01003137000F0AAFCFFF77AFFC0
:405A400008BD00BF9464004010B50C46284B18700023284A1370284A1370284A1370284A1370284A1370284A1370284A1370284B4FF400021A604FF080721A604FF4001250
:405A80001A6020221A6040221A600321214A11704FF480021A6050221F4B1A701F48FFF7FBFBFFF743FCFFF7E3FB14B1012C06D00BE01B4A137803F0FE0313700AE0184A5D
:405AC000137843F00103137004E0154A137803F0FE0313700322134B1A708022203B1A70012000F049FC04220F4B1A7010BD00BFCA91FF1FD181FF1F6682FF1FC091FF1F3E
:405B00003D82FF1FD081FF1F3E82FF1FD581FF1F00E100E09E6000409C60004001180000096000402860004012600040F8B500F02BFC0546454A137843F00103137010322B
:405B4000137843F0010313700127414B1F700226943B1E7002F5E2521B32137803F07F0313700020FAF7E0FE3A4C237803F0F9032370394A137803F0DF03137023783B430C
:405B800023703846FAF7D0FE2820FAF7CDFE334B1A7802F07F021A701A7802F0BF021A702378334323703046FAF7BEFE237843F00403237000232A4A13700132137006E050
:405BC000FF222849CA542849CA5401339BB2082BF6D9284600F0DCFB03211720FBF7B8F822491720FBF7CCF803211820FBF7B0F81F491820FBF7C4F803211520FBF7A8F82A
:405C00001C491520FBF7BCF803210520FBF7A0F819490520FBF7B4F803210620FBF798F816490620FBF7ACF800211620FBF790F813491620FBF7A4F803210C20FBF788F892
:405C400010490C20FBF79CF8F8BD00BFA54300409D6000409443004012600040F851004084600040D881FF1F3482FF1F8918000081200000E5130000D918000091180000AB
:405C8000D1160000F917000010B500F07DFB0446184A137843F0020313701032137843F00203137002F5AA521032137843F0030313701822104B1A70013B1A7842F0400269
:405CC0001A701A7802F0FC021A70C822053B1A700222A3F59753123B1A70084A137843F0080313700A20FAF71FFE204600F050FB10BD00BFAB4300400E5900402F5B00403B
:405D0000F0B583B016461F460B4C062525700023019300932B460A4601462846FBF796F93A4631462078FBF7BFF904212078FBF7D5F9207803B0F0BDD480FF1FF0B583B07A
:405D400016461F460B4C072565700023019300932B460A4601462846FBF778F93A4631466078FBF7A1F904216078FBF7B7F9607803B0F0BDD480FF1F10B541F6FF734FF492
:405D8000804201210220FFF7D9FF084C207041F6FF731A4601210A20FFF7B2FF60700448FFF7AAFD0120FFF79FFD10BDCC91FF1F1559000008B50A280FD00C2802D0082809
:405DC00006D102E04FF4805209E04FF4807206E00020FAF74DFF002201E04FF4806209490020488042F2107303FB02F303F27263054A82FB03E21A44DB17C3EBE2234B603F
:405E0000088108BDCC91FF1FEF09E09E10B504460A280DD00C2802D0082804D101E0C22207E0422205E00020FAF722FFC22200E08222034B1A702046FFF7BCFF10BD00BFF0
:405E40000A59004008B5064A137843F0060313700C20FFF7DBFF0022024B5A8108BD00BF09590040CC91FF1F08B5054B1B7B23B9FFF7E8FF0122024B1A73FFF705FF08BD29
:405E8000CC91FF1F70B52D4C2078FBF739F96078FBF736F92A4B9B78FF2B03D1FBF7BCF8274B9870264CA078062302460A21FBF785F8224E06F11005ADB22A4645F6A23180
:405EC000A078FBF76DF8A1783078FBF7E1F8E378FF2B02D1FBF7A0F8E070194EF078072302460A21FBF76AF8144C04F11C0292B22946F078FBF754F8F1786078FBF7C8F8F6
:405F000001212078FBF722F901216078FBF71EF900F03AFA0B4A137843F02003137000F037FA094B1A7842F001021A701A7842F002021A700222054B1A6070BDCC91FF1F0C
:405F4000D480FF1F976400407F64004080E200E008B50920FCF71CFA00F016FA214A137803F07F0313700A32137803F0FB031370A2F5E3520D3A137803F0FE0313701032A0
:405F8000137803F0FE031370174B1A7842F080021A701A7842F040021A7000F0F9F9134B4FF400021A604FF080721A604FF400121A6020221A6040221A60FFF7B5FA4FF424
:405FC00080520B4B1A6000230A4A13700A4A13700A4A13700A4A13700A4A13700A4A82F8263008BD08600040F851004080E100E080E200E06682FF1FC091FF1F3D82FF1FBA
:40600000D081FF1F3E82FF1FCC91FF1F00230A4A13700A4A13700A4A13700A4A13700A4A13700A4A13700A4A13700322094B1A708022203B1A707047D181FF1F6682FF1FDD
:40604000C091FF1F3D82FF1FD081FF1F3E82FF1FD581FF1F2860004038B504460D46074B93F826302BB9FFF761FD0122034B83F8262029462046FFF7E7FC38BDCC91FF1F06
:40608000F0B583B016461F460B4C032525710023019300930A4601462846FAF7D7FF3A4631462079FBF700F829462079FBF716F8207903B0F0BD00BFD480FF1FF0B583B098
:4060C00016461F460B4C022565710023019300930A4601462846FAF7B9FF3A4631466079FAF7E2FF03216079FAF7F8FF607903B0F0BD00BFD480FF1F044A137803F0FD03D6
:40610000400000F00200184310707047F0510040044A137803F0DF03400100F02000184310707047F0510040044A137803F0FE0300F0010018431070704700BFF051004078
:40614000C0F10400044A02EB4000B0F91C301089181A00B2704700BFCC91FF1F044B1B7803F0FF020BB90028F8D01046704700BF6264004008B5FFF7C5FB08BD08B5074BE9
:406180009B6A23B9FFF7F8FD0122044B9A62FFF76BFEFFF777FE024B1B7808BDCC91FF1F626400402DE9F8434FF40049224BC3F80090DFF8A48098F80030204CE372204F35
:4061C0003B7823731F4E3378637330783B7843EA002001301C4D2B7803F0FE032B7080B200F0CAF800F0D0F8184A137803F0FB0313701032137803F0FB03137000F0C8F806
:406200002B7843F002032B70E37A88F80030E37A88F80030237B3B70637B33702B7803F0EF032B700A4BC3F800901022094B83F82C20BDE8F88300BF80E100E0D480FF1F62
:40624000DB490040DC490040D6490040A543004080E200E0CC91FF1FCA49004001E0044B1B78044B1B7813F0200FF8D1704700BF586500406C640040014B1878704700BF49
:406280006B65004008B50F22074B1A70FFF76CFBFFF7F2FFFFF75CFB0222044B1A702022FF3B1A7008BD00BF836400408B65004008B5064B93F82D302BB9FFF7E3FF0122C0
:4062C000024B83F82D20FFF76DFB08BDCC91FF1F01E0044B1B78044B1B7813F0200FF8D1704700BF5B64004064650040014B1878704700BF6B64004008B50F22074B1A70A2
:40630000FFF76AFBFFF7F2FFFFF728FB0222044B1A702022F9331A7008BD00BF846400408B64004008B5064B93F82E302BB9FFF7E3FF0122024B83F82E20FFF76BFB08BD25
:40634000CC91FF1F024B187800F00700704700BF02410040034B1A7800F0F80010431870704700BF02410040014B188880B2704700410040000000000230800803D000BF97
:4063800001380046FCD17047EFF3108072B6704780F31088704700BF014B1868704700BF4481FF1F0E4B70B51E460E4C0025E41AA410A54204D056F8253098470135F8E77E
:4063C00003F0CAFC084B094C1E46E41AA4100025A54204D056F8253098470135F8E770BD649D0000649D0000649D00006C9D000003460244934202D003F8011BFAE7704791
:406400002DE9F04788B0149F002B1E461299B8BF03F1004327F02007B6BF1E4600232D23462F1446109DDDF84CA00B7003D0452F03D1013501E0032300E0022307AA049256
:4064400006AA03928DE828042246334600F0B8FB472F804602D1119BDB0728D5462F08EB050911D198F80030302B0AD1002200232046314602F0C6F818B9C5F10105CAF8A9
:406480000050DAF800309944002200232046314602F0B8F808B9302202E0CDF81C9006E0079B994503D9591C07911A70F8E74046079B159AC8EB0303136008B0BDE8F087F4
:4064C000034673B50029B8BF494203F8022BB4BF2D222B22092942701ADD0DF1070216460A2591FBF5F405FB1411092C01F1300102F8011D2146F4DC3031541E02F8011C31
:40650000B4421A460AD214F8012B03F8012BF7E71A463024214402F8024B5970101A02B070BD00002DE9F04F91B00C46DDF8688016461F46054601F0DBF8036818460993E0
:4065400000F0AAFA00230E93D8F800300A90073323F0070303F1080294F81890D4F800B0C8F80020D3E90023C4E91223D4F84CA0D4F848802AF000430B934FF0FF32A74BDA
:4065800040460B9902F070F8A0B94FF0FF32A34B40460B9902F04AF860B9002200234046514602F039F810B12D2384F843309C4B9C4A0AE0424653464046514602F054F871
:4065C000002800F09281984B984AB9F1470F8CBF90469846032323612BF0040323604FF0000A3DE0B9F1670F00F08A81B9F1470F00F0868123600193636800210DF13302AF
:40660000059002920093424653460691CDF81090CDF80CE02846FFF7F3FE09F0DF03472B804600F08481B9F1650F0D9900F28D8101394A4604F150000D91FFF741FF0E9A24
:4066400082468318012A236100F37C812268D10700F178819DF8333013B12D2384F84330009733460FAA2146284600F09FF9013002D14FF0FF3096E123685A0501D4236977
:4066800065E0B9F1650F40F2D580D4E912010022002301F0B7FF78B30123654A31462846B8470130E5D00E9B0D9A9A420BDB2368D80708D423689B0740F111814FF00008DD
:4066C00004F1190906E10A9B099A31462846B8470130CED04FF0000804F11A090E9B013B9845E7DA01234A4631462846B8470130BFD008F10108F1E70D9B002B29DC012391
:406700004B4A31462846B8470130B2D00D9B23B90E9B13B92368D907CCD50A9B099A31462846B8470130A4D04FF0000904F11A0A0D9B5B42994509DA01235246314628464F
:40674000B847013095D009F10109F1E70E9B4246A7E00E9AA36D9A42A8BF1A46002A914606DC4FF0000A29EAE97904F11A0B11E01346314642462846B8470130F1D178E7D2
:4067800001235A4631462846B84701303FF471AF0AF1010AA36DC9EB03029245F0DB08EB03090D9A0E9B9A420FDB2368DA070CD40E9B0D9A9844C9EB08089B1A9845A8BFF2
:4067C0009846B8F1000F08DC0FE00A9B099A31462846B8470130EBD14BE743464A4631462846B84701303FF444AF4FF0000928EAE87804F11A0A09E0012352463146284634
:40680000B84701303FF435AF09F101090D9A0E9B9B1AC8EB03039945EEDB4BE7FFFFEF7F1A9C00001E9C0000229C0000269C00002A9C00000E9A012A01DCDB0738D5012391
:40684000424631462846B84701303FF412AF0A9B099A31462846B84701303FF40AAFD4E912010022002301F0CDFE20B14FF0000804F11A090EE00E9B08F10102013B19E075
:4068800001234A4631462846B84701303FF4F1AE08F101080E9B013B9845F1DB534604F1500231462846B84701307FF403AFE0E64246012331462846B8470130EED1D8E68F
:4068C00001234A4631462846B84701303FF4D1AE08F10108E3680F9A9B1A9845F0DBE0680F9B9842B8BF18465DE062680EA8531C0DF1340E4BF480637FF474AE062201E0FD
:4069000012B90122626075E6002106910DF133018DE80C00236005904246CDF81090CDF80CE0029153462846FFF76AFD80460D9BD81C02DB626893421DDDA9F102095FFA5E
:4069400089F970E60133236184E6B9F1660F14D10029636807DD216113B92268D2071DD501330B4419E013B92268D00701D5023313E0012311E04FF067090D9B0E9A93420E
:4069800005DB22682361D10708D5013305E0002BD4BFC3F102030123134423610D9B4FF0000AA36556E611B0BDE8F08F2DE9F04791461F460A698B6806469342B8BF1346AB
:4069C000C9F8003091F843200C46DDF8208012B10133C9F800302368990642BFD9F800300233C9F80030256815F0060510D104F1190A07E00123524639463046C047013053
:406A00001AD00135E368D9F800209B1A9D42F1DB94F843302268003318BF012392060FD5E118302081F843005A1C94F845102244023382F8431003E04FF0FF30BDE8F08736
:406A400004F1430239463046C0470130F4D02268D9F80050E36802F00602042A08BF5D1B2269A3680CBF25EAE57500259342C4BF9B1AED184FF000091A344D4509D0012368
:406A8000224639463046C0470130D5D009F10109F3E70020BDE8F087034613F8012B002AFBD1181A013870472DE9F74F03690C6980469C427FDC013C01F114074FEA840E99
:406AC00000F1140606EB0E0357F82450019356F824300135B3FBF5F507EB0E09C5B34FF0000A3846B446D34650F8043B9AB205FB02A21B0C4FEA124A05FB03A392B2C2EB9D
:406B00000B0BBCF800204FEA134A5A441FFA83FBDCF800308145CBEB134303EB224392B242EA03424FEA234B4CF8042BDCD256F80E306BB9019B043B9E421A4602D3C8F89A
:406B4000104005E01268043B002AF8D1013CF3E7404600F0F0FF00282BDB304601354FF0000E57F8042B036891B2C1EB0E0E120C99B27144C2EB134303EB214389B24FEAB6
:406B8000234EB94541EA034340F8043BE9D256F8242006EB840362B9043B9E421A4602D3C8F8104005E01268043B002AF8D1013CF3E7284600E0002003B0BDE8F08F00004D
:406BC0002DE9F04F456A95B08246219CCDE9022345B9102000F090FDCAF82400456085600560C560DAF82430196859B15A68012393404A608B60504600F0C6FDDAF82430D9
:406C000000221A60039BA04A002BBDBF01232360039B0023BCBF23F000430393DDF80C80A8BF236028F000431B0D1B0593421DD142F20F73209A1360029B43B9934A944BD1
:406C4000C8F31300002814BF1846104600E09048229B002B00F04685C37813B100F1080300E0C31C229A136000F03CBDDDE90245002200232046294601F0C4FC074658B13C
:406C8000209A01231360229B002B00F01E8581481860013800F026BD12AB019313AB009322462B46504600F0C1FFC8F30A56049056B1C5F3130343F07F51204641F4401187
:406CC000A6F2FF3611971DE0139B129E1E4406F23243202B0ADD029A06F21240C3F1400322FA00F008FA03F3184304E0C3F12000029B03FA00F001F0A7F90123A1F1F87195
:406D0000013E11930022644B01F060F858A3D3E9002301F00FFA58A3D3E9002301F058F8044630460D4601F09FF955A3D3E9002301F000FA02460B462046294601F048F86A
:406D400004460D4601F0A6FC0022834600232046294601F061FC58B1584601F085F902460B462046294601F04DFC08B90BF1FF3BBBF1160F0DD8DDE90223484901EBCB0113
:406D8000D1E9000101F066FC30B10BF1FF3B002300E00123109300E01090129B9E1B731E079343BFC3F10008002307934FF00008BBF1000F06DB079BCDF82CB05B440793F9
:406DC000002705E00023CBEB0808CBF100070B931E9B092B28D8052BC4BF043B1E931E9BC8BF0025A3F10203D8BF0125032B20D8DFE803F0060E0204012302E0012308E0E6
:406E000000230A931F9B002B1DDD9946059321E000230A931F9B0BEB030909F10103012B0593B8BF012315E0012500231E930A9501E001230A934FF0FF390022CDF8149030
:406E400012231F9206E04FF001094B46CDF81490CDF87C90DAF8244000226260042101F114029A421CD86268490001326260F6E761436F63A787D23FB3C8608B288AC63F64
:406E8000FB799F501344D33F0000F07F2C9C0000359C00002B9C00000000F83F489C00006168504600F03BFCDAF8243020601B680693059B0E2B00F25B81002D00F0588137
:406EC000DDE90234BBF1000FCDE90E3430DD9F4A0BF00F034FEA2B1502EBC303E80618CBCDE908340CD5DDE90E01994B05F00F05D3E9082301F048FA0324CDE9020100E074
:406F00000224934E6DB1E90708D5DDE90801D6E9002301F00FF9CDE9080101346D100836F0E7DDE90823DDE9020101F02DFA20E0CBF1000505B3DDE90E01844B05F00F023A
:406F400003EBC203D3E9002301F0F4F8CDE902017F4E2D110023022455B1EA0705D5D6E9002301F0E7F8013401236D100836F3E71BB1CDE9020100E00224109BE3B1DDE994
:406F800002560022734B2846314601F045FB98B1059B8BB1B9F1000F40F3E6800BF1FF330893314600226C4B284601F0C3F80134CDE902014E4602E0059ECDF820B02046D7
:406FC00001F052F8DDE9022301F0B4F8634B002200F0FEFEA1F1507304460C931D46D6B9DDE9020100225E4B00F0F0FE22460C9BCDE9020101F02EFB002840F03F820C99D0
:40700000224601F10043DDE9020101F005FB002840F02B82A8E00A9A4C4B711E002A49D003EBC103D3E9002300204E4901F0ACF922462B4600F0CAFECDE90C01069CDDE9C5
:40704000020101F027FB054601F00EF802460B46DDE9020100F0BAFEDDE90C23303504F8015BCDE9020101F0D7FA002840F01D83DDE902230020374900F0A8FEDDE90C2373
:4070800001F0CAFA002840F0D180069BE31AB3426ADADDE90C0100222F4B01F04BF80022CDE90C01DDE902012B4B01F043F8CDE90201C4E703EBC1012246D1E900012B4600
:4070C00001F038F8069BCDE90C011D469C19DDE9020101F0DFFA064600F0C6FF02460B46DDE9020100F072FE303605F8016BAC42CDE902014FF0000222D11A4BDDE90C01BB
:4071000000F066FE02460B46DDE9020101F0A2FA002840F08B80DDE90C230020114900F055FE02460B46DDE9020101F075FAD8B114F8013C621E302B40F0B7821446F7E7E7
:40714000054B00F0F7FFCDE90201C0E7489C0000209D00000000F03F0000244000001C40000014400000E03FDDE90E34CDE90234139B002B7CDBBBF10E0F79DCAB4B03EB50
:40718000CB03D3E900671F9B002B14DA059B002B11DC40F06C810022A54B3046394600F0C9FFDDE9022301F04BFA059D2E46002840F05F8165E1069CDDE9028932463B46D6
:4071C0004046494601F0E0F801F064FA054600F04BFF32463B4600F0ADFF0B4602464946404600F0F3FD05F1300E069B04F801EBC3EB040E059B73452DD102460B4600F05E
:40720000E7FD8046894602460B463046394601F003FA78B942464B463046394601F0F2F9002800F04482EB0704D440E2DDF820B000E01C4614F8012C631E392A07D1069AF8
