:400000000080002011000000B5570000B557000008B5044B1A6803F53F5302331A6006F035FA00BFFA46004010B5054C237833B9044B13B10448AFF300800123237010BD2A
:40004000C881FF1F00000000B0B70000084B10B51BB108490848AFF300800848036803B910BD074B002BFBD0BDE81040184700BF00000000CC81FF1FB0B70000C080FF1F3C
:4000800000000000F8B5C54B01221A701B79002B40F0A981C14B0022C3F8042883F808285D7983F8095802240FE0A01EBB4A13191B7903F07F03024482F80C38C5EBC502C3
:4000C000B74901EB4202135401340F2CEDD90122B24B83F8082800250FE0A31EAF480219127902F07F02034483F80C280134013100E000210D29F0DD0135072DF9DD0222BE
:40010000A64B83F8082867E1A44A13191D79611C11440B795B0543EA0573A11C11440D7943EA8533E11C11440D7943EAC513211D11440D7905F07F051D43C2F80C5C92F8D8
:400140000838022B6DD1D2F80468AEB928460BF00FFB80B2914BA3F8100C06F17E02010A1A4482F80C18B21CC3F804287F36C0B2334483F80C082EE1884BB3F8103C013392
:400180005B009E4216D2874928460BF0EFF80BF0EFFA80B2814B06F17E02010A1A4482F80C18B21CC3F804287F36C0B21E4486F80C0810E19E4240F00E81784BC3F8145C4E
:4001C000D3F8140C78490BF06FFAE0B1734BD3F8140C76490BF086FAA8B1704A06F17E031344EF2183F80C18B31CC2F8043806F17F03134483F80C18032382F808380023B3
:40020000C2F8183CE7E0654BD3F81C2C0132C3F81C2C0022C3F8202C65490A7083F8242CD9E0032B1DD128460BF0A2FA80B25B4BA3F8260CD3F8042802F17E01050A194480
:4002400081F80C58911CC3F804187F32C0B21A4482F80C08042283F808280022A3F8282CB9E0042B40F0B7804C4BB3F8286CB3F8263C9E426DD2494BD3F8183C13F003033F
:400280000FD1464FD7F804385A1CC7F8042803F17E0628460BF06CFAC0B2BB1983F80C0850E0012B0FD13D4FD7F804385A1CC7F8042803F17E0628460BF05AFAC0B2BB1992
:4002C00083F80C083EE0022B20D1002128460BF0EBF958B1314AD2F80438591CC2F804187E331344FF2283F80C282BE02B4FD7F804385A1CC7F8042803F17E0628460BF046
:4003000037FAC0B2BB1983F80C081BE0294928460BF02CF80BF006FA00B2204AD2F8043803F17E01C0F30725114481F80C58991CC2F804187F33C0B2134483F80C08013650
:40034000A2F8286C154AD2F8183C0133C2F8183C41E0164928460BF0A7F978B3164928460BF0C0F950B30D4AD2F8043803F17E011144FE2081F80C08991CC2F804187F334B
:40038000134483F80C08052382F808380120084B18707E31A2F82A1C1DE000BFE481FF1F409AFF1F00FF7F470000C0BF000020C0969BFF1F00FEFF46000060C03F4BD3F888
:4003C0001C2C0132C3F81C2C0022C3F8202C3C490A7083F8242C0534384BD3F8203C9C42FFF492AE62E0012B60D1344B0022C3F804285A7983F8092802252FE02F4C6319C5
:4004000018796A1C224413795B0543EA0073AA1C2244107943EA8033EA1C2244107943EAC0132A1D2244107900F07F001843C4F80C0C4FF088410AF099FF0BF099F980B2FC
:40044000D4F80428531C2244010A82F82C1C5A1CC4F804281C4484F82C0C0535174BD3F8203C9D42CAD3154AD2F80438591C1344EF2083F82C0C4B1CC2F80438114481F813
:400480002C0C9BB2A2F82A3CB3F5817F0BD01346D2F81C2C0132C3F81C2C002208490A7083F8242C02E00222054B1A70034B00221A70C3F8202C83F8242CF8BDE481FF1FF7
:4004C000969BFF1F2DE9F04107460D4690461C46194606980AF040FE0646294638460AF03BFE0746294640460AF036FE014638460AF0F0FF014630460AF038FF0146204634
:400500000AF02CFEBDE8F08110B502F0F3FD60B102F000FE48B11A4B1B7813F0FF0F04D004F0B6FF08B105F093F802F0F3FD30B302F0E0FD78B1134B1878134B1A7813492A
:4005400002F0F4FC124C20784022124905F03EF8207804F0B5FF0A4B1B7813F0FF0F04D004F096FF08B104F08FFF054B1B7813F0FF0F04D004F08CFF08B104F0B7FF10BD73
:40058000549CFF1F3094FF1F169DFF1F189DFF1F3194FF1F9494FF1F08B504F079FF28B902F0BEFD00220D4B1A7011E00B4B1B7813F0FF0F0CD10121002002F035FE02F0A2
:4005C000A9FD0028FBD005F043F80122034B1A700022034B83F82E2D08BD00BF549CFF1FE481FF1F10B5184B02221849002003F091FC04F04DFF012824D1154B93F8303DD9
:40060000DBB2012B0DD1124C002084F8340D0E4B022204F6345103F0C7FB012384F82E3D10BD0B49012381F8343D074B022201F63451002003F0B8FB02F072FD02F09EFF55
:4006400001F098FC10BD00BFF89CFF1F148FFF1FE481FF1F08B507F0F9F807F00DF9FFF7C1FF08BD10B5044600210BF03BF848B1054920460AF07AFE09F0B8FC03490AF0E6
:4006800075FE10BD024810BDD27EFA3DAC7F8A410080BBC410B5194B703A1A7058709970174B1B7813F0FF0F07D004F0F1FE20B100221249032004F06DFE124A138804337B
:4006C0001380114B1B680B2B10D8581C0B490C780E4AD45402334C781454841C0A4804608978D15401220A4B1A6010BD094A13889BB201339BB2138010BD00BF509CFF1F1D
:40070000549CFF1F569CFF1F589CFF1F5C9CFF1F6C9CFF1F709CFF1F10B4254B93F8363DCBB91CE0CA5C12F0800F0BD12048D0F8202C541CC0F8204CC2F30A02CC5C02449F
:40074000147106E0F72A04D10022194B83F8362D2BE0013300E00023022BE3DD25E00B78F02B22D1124B1B78FBB94B787E2B04D101220F4B83F8242C17E0012B15D80C4B5B
:40078000012283F8362DD3F8203C73B99A180848C3F30A0303444C781C71531CC0F8203CC2F30A0283188A781A7110BC704700BFE481FF1F80B582B062B606F0C9FE0028F3
:4007C000FBD007F0DDF8B14807F02AF8012004F067FEAF4807F042F804F05AFE08B9FFF701FF07F001F801F039FD01F003F906F01FFC06F0CFFB02F0A9FD02F0A3FD01F0BB
:4008000081F802F081FF02F015FF642001F09CFB002436E002F05EFF9E4B1878012101F05BFE9D4B1878012101F056FE02F066FF10F0010F06D102F061FF10F0100F03D1EB
:40084000002302E0012300E00123002BEED0934B1B78DBB2FD2B13D1904B5A78D2B2132A0BD90DE0991C8D48455CC2EBC20041008B480144CD54013300E000230D2BF1DDC8
:400880000134132CC6DD06F045F9002517E006EB85084FEA4804A4B2204606F0F3FF0746601C80B206F0EEFF00EB07207D4B43F82800013600E00026032EE8DD0135032D76
:4008C000F9DD05F043FC0A2001F03EFB03F026FE0A2001F039FB002002F002FD06F0F6FB012002F0FDFC052001F0A8F906F048F900220421082006F03DFB03F0E7FD03F0DB
:4009000019FD03F017FE0122674B1A60674B93F8243C13F0FF0F01D0FFF7B4FB644B1B68002B40F0CF82634B1A68634B53F822204FF6FF739A422BD15E4B18681A68534907
:4009400001EB8201D1F80014584A02EB8002C2F8381D1B68594AD35C83B1564B1D681B68524C04EB8303D3F8480D0AF0DBFE04EB85040AF0A7FCC4F8480DA3E24D4B1A680E
:400980004A4B03EB82034FF08C42C3F8482D99E248490D680868454A104490F8580D0E680C6802EB4404B4F85C3D013B03F01F0303EB461302EB8303D3F8644D00EB450313
:4009C00002EB8303C3F8644F0B6802EB83020023C2F8843F11E037480168344A03EB410102EB8101D1F8641F006802EB8002D2F8840F0144C2F8841F0133012BEBDD2D49DB
:400A000008680A68294B1A4492F8582D1844013202F0010280F8582D08680A6803EB8202D2F8842F520803EB8003C3F8842F244B1B68002B15DD013B1A46002B00DADA1CC2
:400A4000921020490B4003D5013B63F003030133920016491144D1F8841F1344114A42F82310144B1A68114B03EB8203D3F8842F4FF6FF739A4227D10E4B1A680B4B03EBD6
:400A800082034FF07E52C3F8942FD6E000B8000055060000F89BFF1F209CFF1FFC9BFF1F409AFF1FE080FF1F589CFF1FE481FF1F389CFF1F349CFF1F409CFF1FC89BFF1FB5
:400AC000989BFF1F03000080404A1168404B03EB8103D3F8841F12683E4B03EB02135B6899422BD9394D2E682B68394C04EB8303D3F8840F0AF0E2FB07462A68354B1201BC
:400B000053F802802A6803EB021358680AF0D6FB054640460AF0D2FB2F4B00932F4B2A4601463846FFF7CEFC01464FF07E500AF0D1FC04EB8604C4F8940F7EE0234A11687D
:400B4000234B03EB8103D3F8841F1268214B03EB02135B68994245D81C4A11681C4B03EB8103D3F8841F12681A4B03EB02139B68994237D9154A15681368154C04EB830360
:400B8000D3F8846F1168134B03EB01114F68126803EB021398680AF091FB804638460AF08DFB074630460AF089FB0D4B00930A4B42463946FFF786FC01464FF07E500AF0D2
:400BC00089FC04EB8504C4F8940F36E0349CFF1FE481FF1FE080FF1F85C83F3FC1A1713FEF37183F8E4A156813688E4C04EB8303D3F8846F11688C4B03EB01118F6812689C
:400C000003EB0213D8680AF059FB804638460AF055FB074630460AF051FB844B0093844B42463946FFF74EFC01464FF07E500AF051FC04EB8504C4F8940F794D2E682B68B3
:400C4000784C04EB830329687A4A02EB8102D2F81014D3F8940F0AF089FBFFF703FD04EB8606C6F8380D29682A6804EB4202B2F85C3D2868704A52F8202003EB411304EB8A
:400C80008303C3F8642D2A682B6804EB4303B3F85C3D04EB4202013303F01F03A2F85C3D2B6804EBC303D3F8A87F2B682A6804EBC202D2F8A42F04EBC303C3F8A82F2B688C
:400CC0002A6804EB8202D2F8382D04EBC303C3F8A42F2B6804EBC303D3F8C86F2B682A6804EBC202D2F8C42F04EBC303C3F8C82F2B6804EBC3035149D3F8A40F0AF036FBAC
:400D000080462B6804EBC3034D49D3F8A80F0AF02DFB014640460AF021FA8046474938460AF024FB014640460AF018FA07462B6804EBC3034349D3F8C80F0AF017FB0146AD
:400D400038460AF00BFA07463F4930460AF00EFB014638460AF000FA06462B6804EBC303C3F8C40F2B6804EB8303D3F8387D2B6804EB83043549D4F8E40F0AF0EFF90146D6
:400D800038460AF0AFFC98B92A68264B03EB8202D2F8384D2A6803EB82032C49D3F8E40F0AF0DAF9014620460AF07EFC00284FD01B4D2F682B681B4C04EB8303D3F8380D10
:400DC00009F0F0F804EB8707C7F8F40F2B682A6804EB8202D2F8F42F04EB8303C3F8E42F2B682A6804EB8202D2F8F42F04EBC303C3F8A42F2B682A6804EB8202D2F8F42FBE
:400E000004EBC303C3F8A82F2B6804EBC3030022C3F8C42F2B6804EBC304C4F8C82F23E0349CFF1FE481FF1FE080FF1FFE44D73EEF37183F00B80000409CFF1FC6DB7A3F85
:400E4000C6DBFABFDBC1FA3F64EB753F9A99193FB54A11681268B54B03EB8202D2F8E42F03EB8103C3F8F42FB14B1B6873B1AE4B1D681B68AD4C04EB8303D3F8F41F3046BE
:400E80000AF06CF904EB8504C4F8380DA64D2B68A64C04EB83032968A64A02EB8102D2F80014D3F8380D0AF057F9A3490AF05EFA4FF08C410AF052F92B682B6804EB830419
:400EC000C4F8480D984B1A689C4B53F83230002B23DB954B1A68954B03EB8203D3F8480D0AF020FC964B53F8F43C984215D08E4D2B688E4C04EB8303D3F8480D0AF038FCAE
:400F0000002106F08DF92B6804EB8304D4F8480D0AF008FC8A4B43F8F40C012002F006FA00286AD174E0864D55F8F06CA0B202F0EFF906EBC40605EB860646F8EC0C05EB0D
:400F40008405002245F84C2C0EE07D4B02EBC40103EB810151F8EC1C03EB840353F84C0C014443F84C1C0132072AEEDD744A02EB840151F84C3CDB0841F84C3C02EB4402E1
:400F800032F8382C02F119018B4202D8193A934204D25B096A4A224402F82C3C684B1A1912F82C1C8AB203EB440333F8243C9A4216D0032C06DC0022C1F17F0104F10900B8
:400FC00006F0E8F8042C0BD106F078FB40B15C4B2344002213F82C1C04F1090006F0DAF8574B1A1912F82C2C03EB440323F8242C520123F8382C013400E00024042C92DDEB
:401000004F4A52F8F03C013303F0070342F8F03C00F05CFC10F0010F06D100F057FC10F0100F03D1002302E0012300E00123002BEED00024AFE0434B1B78221D134113F025
:40104000010F18D0404B53F824204FF6FF739A4211D101223D4B1A553D4B53F824307E2B0FD8364A52F83420002A0ADB0133384A42F8243005E00023344A1355344A42F801
:401080002430324B1B5D43B12C4B53F83430002B03DB01222F4B1A5502E000222D4B1A552B4B53F824303C2B0DD9244B53F83430002B08DB224B03EB84032246002153F889
:4010C000180C05F0BDFE6300234A12F814500133D35C03EB05251A4B03EB840343F8085C002D3DDD164B03EB84039B68002B37D1174A42F82430174A1355184B5E78013E67
:40110000A7000C4B3B44D3F800040AF00BFB06EB4606B30018440A4B1F4447F8180C2246294605F08DFE2FE0349CFF1FE481FF1FDC80FF1F00B8000000802A439C9BFF1FB1
:40114000DC92FF1FB093FF1F409CFF1FDC9BFF1FCC9BFF1FC89BFF1FE89BFF1F909BFF1F95B9854B03EB84039B68002B0CDD824B03EB84032246002153F8180C05F060FECC
:4011800000227E4B43F824207B4B03EB840353F8082C9A600134032C7FF74DAF02F0AEFA10F0010F06D102F0A9FA10F0100F03D1002302E0012300E00123002BEED0704B61
:4011C0001B7813F0FF0F09D019E06E49CA5CD2B26D48C2540022CA54013300E000230F2BF3D96A4B1B681BB10122674B1A7002E00022654B1A700022644B1A6094E0604BC5
:401200001B78DBB2012B38D15B4B1B7E8BB15E4AFD2313705E4B93F8093853705D4A136005F0AAFC544A0023137655490B7053837AE0554A02231370554991F809185170C3
:4012400018E04D4A528B5249B1F82A1C8A420AD2501C494948834E490A4492F80C28D2B24949CA5405E0EE21474AD1540121424A117601330F2BE4D956E0414B1B78DBB244
:40128000022B34D13C4B1B7E6BB13F4BFD221A703F4A92F809285A70374A0023137638490B70538340E0384B03221A70384A92F809285A70022317E02F4A528B3449B1F88F
:4012C0002A1C8A4209D2501C2B49488330490A4492F82C1C2C4AD15405E0EE212A4AD1540121254A117601330F2BE5D91CE0244B1B78DBB2032B09D1234B04221A70264A30
:4013000012785A7000221E4B1A700DE01C4B1B78DBB2042B08D11C4B05221A701F4A12785A700022164B1A7001221D4B1A601D4B1B78DBB2FD2B3CD11A4B5B78DBB2144A01
:401340001278012A35D00E4A127812F0FF0F30D11846104A126893422BD0132B26D928E09A1C10498C5CC0EBC0014A000E490A44D45401331BE000BFDC92FF1FCC9BFF1F00
:40138000969BFF1F5C9CFF1F249CFF1F6C9CFF1FE481FF1F3C9AFF1F959BFF1F979BFF1F589CFF1FFC9BFF1F409AFF1F00230D2BD6DD384B1B7813F0FF0F0BD002F08AF96B
:4013C000354B1878012101F087F8344B1878012101F082F8324B93F82E3D13F0FF0F01D0FFF7DAF82F4B1B7813F0FF0F0FD004F04FF860B12C4B1B88402B03D92B4A938B55
:40140000013393830022284B1A80FFF77DF803F069F80028FBD102F07DFF254B1A78254B1A7225490C680A68244850F82220C2F3072203F814200A6852000132096810F84D
:401440002110995419498A7F02F00F00D87301328A771B7A13F0010F03D0012006F03EF902E0002006F03AF900F022FA144B1878012101F031F8134B1878012101F02CF813
:401480001149D1E90023013243F10003C1E90023FFF721BA249CFF1FF89BFF1F209CFF1FE481FF1F549CFF1F569CFF1FDC92FF1FB093FF1F109CFF1F349CFF1F409CFF1F44
:4014C000E49BFF1F0C9CFF1FC09BFF1F014B1878704700BF6A640040024B187800F00700704700BF02410040034B1A7800F0F80010431870704700BF02410040014B18885B
:4015000080B270470041004070B505460E46FFF7E3FF0446FFF7F2FFA84256D02B4B1B7803F0010294B900B185B938B9284B1D80284A137803F0BF03137070BD254A1378CC
:4015400043F040031370224B1D8070BD22B3002321490B70012413310C7004390B7008390B7803F07F030B701A4B1B7813F0080F00D08DB9194B18800721013B1970164B9B
:401580001B7813F0010FFAD110490B7803F0FE030B700021104B19700C4B1B7813F0010F0DD00E4B1D800EB1032200E001220A4B1A70094B1B7813F0010FFAD170BD044B93
:4015C0001D8002490B7813430B7070BDA143004000410040024100400140004002400040024B187800F00700704700BF82400040034B1A7800F0F80010431870704700BFF2
:4016000082400040014B188880B270478040004070B505460E46FFF7E3FF0446FFF7F2FFA84256D02B4B1B7803F0010294B900B185B938B9284B1D80284A137803F0BF0308
:40164000137070BD254A137843F040031370224B1D8070BD22B3002321490B7001240F310C7004310B700C390B7803F07F030B701A4B1B7813F0080F00D08DB9194B188046
:401680000721013B1970164B1B7813F0010FFAD110490B7803F0FE030B700021104B19700C4B1B7813F0010F0DD00E4B1D800EB1032200E001220A4B1A70094B1B7813F09B
:4016C000010FFAD170BD044B1D8002490B7813430B7070BDA243004080400040824000400140004002400040704700BF074B1B7813F0020F08D0064BB6221A70E0221A707A
:401700000D221A70072070470420704722470040204700400C4B1B7813F0020F0FD00B4BB6221A70E1221A700E221A7002331B7813F0020F05D1054B18700720704704207F
:4017400070470920704700BF224700402047004070B41D4C247814F0020F2CD01B4CB6252570D5252570022525700234247814F0020F22D1154C2070002404E0165D134DC1
:401780002E700134A4B29C42F8D3B3F5807F16D13F2816D800F5103001EB00214801002305E01A5CD2B209490A7001339BB21F2BF7D9072006E0042004E0092002E0072039
:4017C00000E0072070BC7047224700402047004008B501E00A4B1B780A4B1B7813F0200FF8D106F031FA084B1A7842F001021A701A7802F0FE021A7006F02AFA08BD00BFD5
:401800005D6400406A6400409D64004008B506F01BFA0A4A137843F020031370FB3A137843F010031370033A137843F01003137006F00EFA01F022FF08BD00BF98650040ED
:4018400010B5044604F0D2FC204604F08DFC10BD08B506F0F9F90A4A137843F0200313700332137843F0100313700432137843F01003137006F0ECF901F0F2FE08BD00BF37
:401880009465004008B50F22074B1A7001F004FF01F034FF01F02CFF0222044B1A70202204331A7008BD00BF846500408765004001E0044B1B78044B1B7813F0200FF8D178
:4018C000704700BF5D6400406A640040014B1878704700BF6D64004008B50F22074B1A70FFF776FFFFF7F2FFFFF7F0FD0222044B1A702022033B1A7008BD00BF8865004049
:401900008D64004008B5054B1B7823B9FFF7E4FF0122024B1A70FFF779FF08BD2893FF1F154B1B7803F00303012B07D8134B1888023B1B889BB243EA004013E0022B0AD191
:401940000E4B1888023B1B7843EA00430C4A107843EA002006E00B4B188883B2074A108843EA0040084B5B7813F0FF0F02D00022054B9A70704700BF144E0040124E00405F
:40198000114E0040104E00402893FF1F094B5B7813F0FF0F03D0074B9B78DBB203E0064B1B7803F00103012B01D00028EED01846704700BF2893FF1F014E0040024A137860
:4019C00043F0010313707047004E004010B50446074B1878FF2801D0FFF732FF204604F035FC204604F0E2FB014B1C7010BD00BFC480FF1F10B5002407E0204604F0F6FB35
:401A0000204604F0B1FB0134E4B2012CF5D9FF22014B1A7010BD00BFC480FF1F08B506F013F90A4B0022DA705B68012B0AD1084A136843F00103136000BF00BF00BF0022D5
:401A4000024B5A6006F004F908BD00BF2893FF1F0400084010B506F0F7F80F4BDB78A3B901220D4BDA700D4B1B6813F0010F0ED00A4A136823F00103136000BF00BF00BFE9
:401A80000122054B5A60002402E0042400E0002406F0DEF8204610BD2893FF1F0400084030B4104C247814F0020F15D00E4CB6252570D8252570052525700234247814F0DC
:401AC000020F0BD1084C2070080A2070C9B2217022702370072002E0042000E0092030BC704700BF224700402047004030B43E2801D81F2B03D93F2827D90F2B27D8174C0E
:401B0000247814F0020F24D0154CB6252570D4252570012525700234247814F0020F1AD10F4C2070C1F300202070C9B22170591EC9B22170002104E0545C0948047001318A
:401B4000C9B29942F8D3072006E0012004E0012002E0042000E0092030BC7047224700402047004008B506F06FF8064A137843F0080313701032137843F00803137006F0D5
:401B800067F808BDA0430040134B1B78DBB20360124A127843EA02230360114A127843EA024303600F4A127843EA026303600E4B1B78DBB243600D4A127843EA02234360DE
:401BC0000B4A127843EA024343600A4A127843EA02634360704700BF0301004904010049EC460040020100490101004900010049050100490601004908B506F025F800BF4C
:401C000000BF00BF00BF00BF00BF00BF00BF00BF00BF00BF00BF00BF00BF00BF00BF064A13889BB243F0040313801388BFF36F8F06F00EF808BD00BF0048004008B500EB73
:401C40008003C0EB031005F0F7FF08BDF8B5074605F0FAFF06460D4D2B7843F003032B700B4C237843F0030323700A4B1F700320FFF7E4FF2B7803F0FC032B70237803F012
:401C8000FC032370304605F0E3FFF8BDF8460040F94600409258004070B505F0D5FF06462A4B5B782A4B1A7842F001021A701A7842F010021A7010331A7842F001021A702D
:401CC0001A7842F010021A70224D2B7843F002032B70214C237843F0020323701F4A137843F0030313700320FFF7A8FF2B7803F0FD032B70237803F0FD032370184A13781D
:401D000043F0060313707A22164B1A70164A137843F0010313701032137843F0010313700F3A137843F0010313701032137843F0010313704FF000530C4A1360A2F5C072F8
:401D40001360304605F084FF70BD00BFC480FF1FAA430040F8460040F9460040915800407758004082580040A143004080E200E070B506460D4600240CE00120FFF75EFF8A
:401D8000064B1B7813F0010FF7D0054B1B7833550134E4B2AC42F3D3204670BD22470040204700402DE9F041441FE4B23A2C01D9002500E0012510F0800F00D001254128FF
:401DC00000D901253F2803D8B1F5807F06D808E0802900D90125102B02D102E0012500E0012502B90125002D50D1984616460F460446FFF72FFE002847D143463246394688
:401E00002046FFF7A5FC064607283AD102E00120FFF714FF1F4B1B7813F0020FF7D01D4B1B7813F0020F06D01A4B1B789B0805D04FF0FF3603E04FF0FF3600E02E4606BB06
:401E4000154A5378127839462046FFF729FE072804D0064615E00120FFF7F0FE0D4B1B7813F0020FF7D00B4B1B7813F0020F06D0084B1B789B0804D04FF0FF3601E04FF0D9
:401E8000FF36FFF7CBFD354600E004252846BDE8F08100BF22470040149DFF1F10B5FFF761FEFFF7D7FDD0B9FFF720FC0446072812D102E00120FFF7C1FE0A4B1B7813F072
:401EC000020FF7D0074B1B7813F0020F04D0054B1B789B0800D10024FFF7A0FD00E00424204610BD2247004010B5FFF73BFEFFF7B1FD10BB0120FFF70DFC072818D102218D
:401F00000F48FFF735FF02280AD102E00120FFF795FE0C4B1B7813F0020FF7D0002409E0084B1B7813F0020FE9D04FF0FF3401E04FF0FF34FFF772FD00E00424204610BDA5
:401F4000149DFF1F2247004010B5044604E0074805F072FEA4F50044B4F5004FF7D8044800FB04F005F068FE10BD00BF0000059A0A340100024A137843F001031370704756
:401F8000F646004001BE704710B59DF80840012C52D1013809282ED8DFE800F0052D2D052D2D0F192D230F2B03D92548007840B222E02448007840B21EE00F2B03D922489D
:401FC000007840B218E02148007840B214E00F2B03D91F48007840B20EE01E48007840B20AE00F2B03D91C48007840B204E01B48007840B200E0002001EB401101FB02F168
:40200000C90B8AB20D2B0BD8C3F10E0289B211418AB2611E124800EB810101338B7205E0631E0F4901EB83030F219972013C0C4B03EB8404228110BD0020FFF7A3FF10BD07
:40204000180100491C010049190100491D0100491A0100491E0100491B0100491F0100492893FF1F38B504460D46072902D90020FFF788FF1F2C02D90020FFF783FF04F077
:402080001F0000F1604000F564406D01EDB2057038BD00BF70B504460E46074B1D681F2802D90020FFF76EFF04F01F04103455F8240045F8246070BD08ED00E00022314B35
:4020C0005A7001285DD170B530222F4B1A70042202331A70072201331A70002401331C7001331C703F2201331A7002331C7001331C7001331C7001250A331D70502203F51A
:4021000027631A703C2201331A70222201331A7001331C70442003331870462201331A70062601331E70022202331A70122201331A70282201331A70EB2201331A70FFF7D9
:4021400085FDC022114B1A70032201331A7005331D7001331D7001331C700A2201331A704FF47A42074BDA6029463046FFF750FA29461C20FFF7C8F905491D20FFF78AFFE6
:4021800070BD70472893FF1F004E004094580040E9160000F0B583B0294E01277770294D0024AC701020FFF723FA1020FFF79CF906211D20FFF756FF0422234B1A70013396
:4021C0001C7007331C70214A137843F0180313701F4B1C7003F2F5231C7001331C700A22A3F209331A7001331C7002331C705B2205331A705E2201331A7004331C701422F9
:40220000A3F68C231A70009710234FF4004249F2B9010720FFF7B8FE7378013B05EB83039A7A0C4B1A707378013B05EB83052A89094B1A807078FFF741FF03B0F0BD00BFA6
:40224000C480FF1F2893FF1F96580040075B0040935800400E4E00400C4E004008B5084B1B7C4BB9064B5B7C13F0FF0F01D1FFF791FF0122024B1A74FFF70EFD08BD00BF33
:402280002893FF1F024A137803F0FE031370704702470040054A137843F001031370034B1B7813F0020FFAD0704700BF0247004008B505F0C9FC0F4A137843F00803137049
:4022C0001032137843F008031370C8220A4B1A700A4A137843F0100313701032137843F010031370064B1B7813F0200FFAD005F0AFFC08BDA043004001470040AC4300402A
:402300000047004008B53F2801D9102301E04FF48073FFF747FD08BD08B5FFF7BFFD034610B9FFF7E1FD0346184608BD10F0800F08D1C00000F1804000F5F0408180C280CD
:40234000002070470120704710F0800F0CD111F4704F0BD1C00000F1804000F5F04001808270C37000207047012070470120704710F0800F12D110B5044605F065FCE30025
:4023800003F1804303F5F043054A917819709470D3780133D37005F05BFC10BD704700BFC480FF1F10B505F04FFC0A4BDB78182B0BD9084A9478013BD370E30003F1804358
:4023C00003F5F0431B78937000E0FF2405F040FC204610BDC480FF1F17281BD810B4C00000F1804404F5EC44D201D2B201F07F01114321709DF804201201D2B203F00F03BD
:40240000134363709DF8083003F00F03A3700020E07001E00120704710BC7047172805D8034B03EB0010417200207047012070471070004041F6FF73994201D14FF400516E
:4024400041F6FF739A4201D14FF40052172808D8C00000F1804000F5EC408180C280002070470120704700BF17280BD80001064A835C03F0F103490001F00E01194381545B
:4024800000207047012070471070004017280CD80001074BC1180A7942F004020A71C25C42F00102C254002070470120704700BF1070004017280BD80001064BC25C02F00D
:4024C000FE02C254C25C02F0DF02C254002070470120704710700040172815D831B103010A495A5C42F020025A5405E0030107495A5C02F0DF025A540001044A835C43F062
:40250000010383540020704701207047107000404001C0B2014B1870704700BF00E400E0014B1B681864704708ED00E0024A137843F001031370704708590040704700BF5A
:40254000F8B50646082801D9012400E0044625460E4B1B5DFF2B09D00D4B185DFFF7AAFF0A4F385DFFF704FFFF233B55094B585DFF2804D0FFF7FCFEFF22064B5A5501347B
:40258000E4B2082C01D8092EE1D0F8BDD494FF1FE094FF1F3C93FF1F70B52D4C607AFFF775FFA07AFFF772FF2A4B1B78FF2B03D1FFF7F8FE274B1870264C2078062302460C
:4025C0000A21FFF7C1FE224E06F10C05ADB22A4645F6A2312078FFF7A9FE2178707AFFF71DFF6378FF2B02D1FFF7DCFE6070194E7078072302460A21FFF7A6FE144C04F189
:40260000180292B229467078FFF790FE7178A07AFFF704FF0121607AFFF75EFF0121A07AFFF75AFF05F010FB0B4A137843F02003137005F00DFB094B1A7842F001021A7030
:402640001A7842F002021A700122054B1A6070BD3C93FF1FC880FF1F936400407B64004080E200E008B505F0EFFA064A137843F0040313701032137843F00403137005F051
:40268000E7FA08BDA543004010B50C46284B18700023284A1370284A1370284A1370284A1370284A1370284A1370284A1370284B4FF400021A604FF080721A604FF4001232
:4026C0001A6010221A6020221A600321214A11704FF480021A6050221F4B1A701F4804F053FF04F09BFF04F03BFF14B1012C06D00BE01B4A137803F0FE0313700AE0184A74
:40270000137843F00103137004E0154A137803F0FE0313700322134B1A708022203B1A70012005F089FA04220F4B1A7010BD00BF2494FF1F4194FF1F6E94FF1F2594FF1F8C
:402740002E94FF1F4094FF1F2F94FF1F4594FF1F00E100E09E6000409C6000400553000009600040286000401260004010B50222124B1A7081220E3B1A70082202331A70CA
:40278000052211331A70002401331C704FF400420B4B1A6006210F20FFF764FC09490F20FFF778FC084B102283F8222083F8234083F8244083F8254010BD00BFD64900408A
:4027C00080E100E0292B00003C93FF1FF8B505F03BFA0546454A137843F0010313701032137843F0010313700127414B1F700226943B1E7002F5E2521B32137803F07F039A
:4028000013700020FFF71AFA3A4C237803F0F9032370394A137803F0DF03137023783B4323703846FFF70AFA2820FFF707FA334B1A7802F07F021A701A7802F0BF021A70A3
:402840002378334323703046FFF7F8F9237843F00403237000232A4A13700132137006E0FF222849CA542849CA5401339BB2082BF6D9284605F0ECF903211720FFF7F2FBF1
:4028800022491720FFF706FC03211820FFF7EAFB1F491820FFF7FEFB03211520FFF7E2FB1C491520FFF7F6FB03210420FFF7DAFB19490420FFF7EEFB03210520FFF7D2FB87
:4028C00016490520FFF7E6FB00211620FFF7CAFB13491620FFF7DEFB03210C20FFF7C2FB10490C20FFF7D6FBF8BD00BFA54300409D6000409443004012600040F851004090
:4029000084600040D494FF1F3C93FF1F8D53000091510000D54900008955000041550000495200004152000010B505F08DF90446184A137843F0020313701032137843F04C
:402940000203137002F5AA521032137843F0030313701822104B1A70013B1A7842F040021A701A7802F0FC021A70C822053B1A700222A3F59753123B1A70084A137843F01B
:40298000080313700A20FFF759F9204605F060F910BD00BFAB4300400E5900402F5B0040F0B583B016461F460B4C0625A5700023019300932B460A4601462846FFF70CFD49
:4029C0003A463146A078FFF735FD0421A078FFF74BFDA07803B0F0BDC880FF1FF0B583B016461F460B4C0725E5700023019300932B460A4601462846FFF7EEFC3A4631463F
:402A0000E078FFF717FD0421E078FFF72DFDE07803B0F0BDC880FF1F10B541F6FF734FF4804201210220FFF7D9FF084C607241F6FF731A4601210A20FFF7B2FFA072044874
:402A4000FFF76EFD0020FFF763FD10BD3C93FF1F3D25000008B50A280FD00C2802D0082806D102E04FF4805209E04FF4807206E00020FFF787FA002201E04FF4806209497C
:402A80000020C88442F2107303FB02F303F27263054A82FB03E21A44DB17C3EBE2238B62888508BD3C93FF1FEF09E09E10B504460A280DD00C2802D0082804D101E0C22272
:402AC00007E0422205E00020FFF75CFAC22200E08222034B1A702046FFF7BCFF10BD00BF0A59004008B5064A137843F0060313700C20FFF7DBFF0022024BDA8508BD00BF0F
:402B0000095900403C93FF1F08B5064B93F830302BB9FFF7E7FF0122024B83F83020FFF703FF08BD3C93FF1F38B5B74B1C78B74B93F8223013F0400F00F05A81E4B214F04F
:402B4000010F00F03A81B14B93F82230453B052B00F23081DFE813F006008D002E012E010600F50004F0DF0504F00A04082C48D1A64B93F82230DBB2452B39D1A34B93F843
:402B8000313013F0FF0F10D0A04B5A6B1278D2B29F490A7004219C4A1170012283F82520462283F822202C4607E1984B93F8383013F0020F0FD0954B93F8232042F00A0200
:402BC00083F82320602283F822204FF40042914B1A602C46F1E0904A137843F01003137010228E4B1A700422023B1A702C46E4E00022854B1A704A22844B83F822202C46EE
:402C0000DBE00A2C30D1814B93F8232042F0A00283F8232093F8383013F0020F17D07B4B93F8223013F0080F01D0092200E00A22764B93F823100A4383F82320602283F83C
:402C400022204FF40042734B1A602C46B5E0724A137843F0100313701022704B1A700422023B1A702C46A8E00020FFF78BF92C46A3E014F0020F3CD1644B93F82520D2B22C
:402C800093F83130DBB29A4212D2604A92F82530DBB2516BCB5CDBB25D490B7004215A4B197092F825300133DBB282F8253084E0564B93F8383013F0020F0ED0534B93F85F
:402CC000232042F00A0283F82320602283F822204FF400424F4B1A606FE04F4A137843F01003137010224D4B1A700422023B1A7063E0464B93F8383013F0020F0ED0434BF9
:402D000093F8232042F09A0283F82320602283F822204FF400423F4B1A604EE03E4A137843F01003137010223C4B1A700422023B1A70364A92F8233043F0900382F8233047
:402D40003BE0324B93F82420D2B2D86B30490978C9B2815493F824200132D2B283F8242093F82420D2B293F84030DBB29A4203D21022254B1A7020E0244B93F8383013F079
:402D8000020F0ED0214B93F8232042F0090283F82320602283F822204FF400421D4B1A600BE01D4A137843F0100313700022164B1A7002E00020FFF7E5F814F0200F21D09D
:402DC000124B93F8223013F0080F01D0012200E002220E4B93F823100A4383F823200E490A7802F0EF020A70102283F8222038BD064B93F8223013F0100F03D11022034BA7
:402E000083F8222038BD00BFD74900403C93FF1FD849004080E100E0D6490040D9490040F1B91F490B5CDB0003F1804303F5F0431C4A32F8102092B2203A92B21A800B5C98
:402E4000DB0003F1804303F5F043174A02EB8002526C203292B29A800122144B1A5415E00F4A135CDB0003F1804303F5F04302211980135CDB0003F1804303F5F0430A4AB1
:402E800002EB8002526C1E3292B29A80084B1A5C084B03EB0213024A125C5A72704700BFD494FF1F7494FF1F3C93FF1F8894FF1FE094FF1F1070004010B5044600EB4003BA
:402EC0009800164B1844037913F0800F03D00A0C4FF4804302E00B0C4FF48042012C02D0022C07D00CE00121202004F05BFB0C4B185505E00121202004F072FB084B1855BA
:402F0000631EDBB2072B07D8FFF74CFA054B1855FFF748FA044B185510BD00BF849CFF1FE094FF1FD494FF1F3C93FF1F431EDBB2072B00F2AA802DE9F04715460E46044634
:402F400000EB40029300514A1344DB7843EA15234F49020188188B54EBB243704D4B1B5DFF2B03D131462046FFF7A6FF002E43D0494F385DFFF79EFA484B23F81450DFF812
:402F8000348108EB84035E64DFF80891112318F804202946202D28BF202119F80400FFF7D3F94FEA041A0AF108023D4D2A4492B2B1B219F80400FFF7B9F918F80400394B3D
:402FC0001B5D02460121FFF7BFF90AEB050292B2354989B218F80400FFF7A8F9385DFFF755FA19F80410385DFFF718FA0121385DFFF772FABDE8F08704EB44029300234A97
:40300000134400225A70002D33D0244B23F81450264B1A55204E305DFFF74CFA1D4FDFF89480112318F804202946202D28BF2021385DFFF789F908EB840822010832184D27
:403040002A4492B2B8F84410385DFFF76FF9305DFFF71CFA395D305DFFF7E0F90121305DFFF73AFA24012B5D43F001032B55BDE8F08704EB44029300044A13445A79D2B2FF
:4030800024010B4B1A55BDE8F0877047849CFF1FFC5F0040D494FF1FE094FF1F7494FF1F7060004020BC0000CC80FF1F8894FF1FFE5F00403C93FF1F431EDBB2072B0BD81F
:4030C000064B00011A18185C00F00F00537843EA0020023880B2704700207047FC5F004000EB40008300024A13445878704700BF849CFF1F064B1B7813F0FF0F05D0044B3E
:403100001878C0B200221A7070470020704700BF6E94FF1F014B1878704700BF2594FF1F08B50920FFF70CFA04F08EFD214A137803F07F0313700A32137803F0FB031370C1
:40314000A2F5E3520D3A137803F0FE0313701032137803F0FE031370174B1A7842F080021A701A7842F040021A7004F071FD134B4FF400021A604FF080721A604FF40012B5
:403180001A6010221A6020221A6004F041FB4FF480520B4B1A6000230A4A13700A4A13700A4A13700A4A13700A4A13700A4A82F8683008BD08600040F851004080E100E025
:4031C00080E200E06E94FF1F2594FF1F2E94FF1F4094FF1F2F94FF1F3C93FF1F00230A4A13700A4A13700A4A13700A4A13700A4A13700A4A13700A4A13700322094B1A70EF
:403200008022203B1A7070474194FF1F6E94FF1F2594FF1F2E94FF1F4094FF1F2F94FF1F4594FF1F2860004038B504460D46074B93F868302BB9FFF7C9FA0122034B83F86C
:40324000682029462046FFF71FFA38BD3C93FF1FF0B583B016461F460B4C032565710023019300930A4601462846FFF7B5F83A4631466079FFF7DEF829466079FFF7F4F85A
:40328000607903B0F0BD00BFC880FF1FF0B583B016461F460B4C0225A5710023019300930A4601462846FFF797F83A463146A079FFF7C0F80321A079FFF7D6F8A07903B024
:4032C000F0BD00BFC880FF1F044A137803F0FD03400000F00200184310707047F0510040044A137803F0DF03400100F02000184310707047F0510040044A137803F0FE030C
:4033000000F0010018431070704700BFF0510040C0F10400044A02EB4000B0F91830908D181A00B2704700BF3C93FF1F044B1B7803F0FF020BB90028F8D01046704700BFEF
:403340006464004008B5FFF7F1F808BD08B5074BDB6E23B9FFF760FB0122044BDA66FFF7D3FBFFF719F9024B1B7808BD3C93FF1F64640040024B1878C0F38000704700BFC1
:40338000F1510040024B1878C0F3C000704700BFF1510040024B1878C0F34000704700BF315100404FF40043054A1360054A92F82300002182F82310034A1360704700BFF3
:4033C00080E100E03C93FF1F00E100E04FF40042084B1A60084B93F82300C0B293F8223013F0400F01D040F004004FF40042034B1A60704780E100E03C93FF1F00E100E0F2
:4034000070B400294ED00D46284991F82210C9B2102906D12649097811F0080F14D1002415E0224991F82210C9B260290ED14FF4004420490C601D4C94F8231001F0F7019B
:4034400084F82310002402E0012400E0022454BB1649492681F82260002681F8246081F84020CD6381F8383091F8232002F0FE0281F823204200D2B242F001020E490A7041
:4034800013F0010F06D01222094B1A700422023B1A7002E00122064B1A704FF40042074B1A6000E00224204670BC70473C93FF1FD949004080E200E0D849004000E100E0F1
:4034C00070B400294CD00D46274991F82210C9B2102906D12549097811F0080F14D1002415E0214991F82210C9B260290ED14FF400441F490C601C4C94F8231001F0F701E2
:4035000084F82310002402E0012400E0022444BB1549452681F82260002681F8256081F831204D6381F8383091F8232002F0FD0281F823204200D2B20E490A7013F0010F46
:4035400006D01222094B1A700422023B1A7002E00122064B1A704FF40042074B1A6000E00224204670BC70473C93FF1FD949004080E200E0D849004000E100E02DE9F843F2
:403580004FF40049224BC3F80090DFF8A48098F80030204CE372204F3B7823731F4E3378637330783B7843EA002001301C4D2B7803F0FE032B7080B204F03EFB04F044FB9F
:4035C000184A137803F0FB0313701032137803F0FB03137004F03CFB2B7843F002032B70E37A88F80030E37A88F80030237B3B70637B33702B7803F0EF032B700A4BC3F871
:4036000000901022094B83F82220BDE8F88300BF80E100E0C880FF1FDB490040DC490040D6490040A543004080E200E03C93FF1FCA49004008B5084B93F870302BB9FFF74A
:4036400095F80122044B83F87020FFF70BF84FF40042024B1A6008BD3C93FF1F00E100E0054A137843F0080313701032137843F008031370704700BFA2430040054A1378EA
:4036800043F0040313701032137843F004031370704700BFA243004008B501E00A4B1B780A4B1B7813F0200FF8D104F0CDFA084B1A7842F001021A701A7802F0FE021A7052
:4036C00004F0C6FA08BD00BF5B6500406B6500409B65004001E0044B1B78044B1B7813F0200FF8D1704700BF5B6500406B650040014B1878704700BF6B650040014B1878DE
:40370000704700BF6765004008B5064B93F871302BB9FEF7B7F80122024B83F87120FEF797F808BD3C93FF1FF0B5059C069F00251560DD01A54206D85E1CF601013EB442C5
:4037400003D9002602E0002600E00126D6B104F07F02803202603C44A54206D80133DB01013B9C4203D9002302E0002300E001231BB117440F600020F0BD4FF480730B60AD
:403780000020F0BD04EB070E754505D80133DB01013B9E4500D8012666B180230360FB1864F07F041C440C6003681C1B274417600020F0BD0120F0BDC1680268D30912F010
:4037C0007F0200D001221A44436803FB02F3027A02FB033301EB032321B1B3F5802F03D903207047032070470020704710B404460022FF2013E0A35C584000230BE010F021
:40380000800F04D04000C0B280F0310001E04000C0B20133DBB2072BF1D9013292B28A42E9D110BC704700BF30B4044618B1086800F5807008600D681868854201D39869FE
:403840000860002010605868844218D31C69012C13D90968A1EB00259B699D420BD204F1FF1404F57F4400FB04F003EB0020C91A0844106003E0156001E00B68136030BCF4
:40388000704700BF8B6904E003F580730A68934203D21A688242F7D100E000231846704770B48A6902600024264608E013681BB19E4201D202601E4602F5807201344D6809
:4038C0000B6903FB05F39C42F0D370BC704700BF094B1B7803F00C035B08084A127812F0040F00D0013303F1924393F82031DBB2034A1370704700BF2058004021580040F1
:4039000008460040054B1A7802F0FD021A701A7800F0020010431870704700BF205800400F490B7803F0FC0200F0030313430B7001280AD10B4B1B78DBB20B4A13700B4BD4
:403940001B78DBB2013213707047094B1B78DBB2054A1370074B1B78DBB201321370704740580040100100493046004014010049AD010049B501004908441044024AA2FBD0
:403980000030C0F34F007047ABAAAAAAF0B5C50800F0070201239340DBB21C4A115C02EB41063789348B0A4492F828E0184A525D13420DD0164E06EB400080883C1BA04207
:4039C0001DDA22EA03027255314481F814E016E00F4E06EB400080883C44A0420BDD30460844007D012801D81A437255084A11440138087503E0064A114481F814E0044A3B
:403A0000505D184000D00120F0BD00BF2CBC0000B093FF1F70B50A4B184490F8304090F838502544EDB200262046FFF7AFFF00B101260134E4B2A542F6D8304670BD00BF0B
:403A40002CBC000070B40B490A5C0B4D05EB40031C8C1C862844002680F840609E80114491F828102A441175A3F84840A3F8584070BC70472CBC0000B093FF1F2DE9F04110
:403A80000546304B1A5C03EB4203B3F840602E4C04EB4004278CB4F84880B4F8582041463846FFF769FFA4F85880A4F84870228E904203D3841AA4B2012702E0141AA4B24F
:403AC0000027B7B9082C14D91F4B2B4493F86830092B08D92846FFF7B5FF1B4B2B44002283F868201DE0184A2A44013382F8683017E0B44202D9072C13D897B9124901EB5B
:403B0000050E9EF8403043EA02231844801AC0F30F2301EB45010B868EF8400000238EF86830B44206D92FB1074B03EB4505AC80BDE8F081044B03EB45050023AB80BDE87A
:403B4000F08100BF2CBC0000B093FF1F70B504460E46C0F30725FEF7DFFB32462946C4F30740FEF7CFFB0446FEF746F80CB1042070BD002070BD00BFF0B5C3B004468368D3
:403B800000931D680127002623E0009F4FF48072394601A805F018FA01350195802121A8FFF724FE2090224601A93846FFF7CEFFA069009B1B1A2068224601A91844FFF783
:403BC000C5FF0746234641AA69462846FFF72CFE01366268236903FB02F39E42D5D3384643B0F0BD2DE9F047C0B005468A4690469946489EB469041B33681C44C76F80217C
:403C00000844FFF7F3FD874207D14A4605EB0801504605F0D9F900241BE0E76F80216018FFF7E4FD874213D14FF480722146684605F0CAF9324669462846FFF787FF04465C
:403C400038B94A460DEB8801504605F0BDF900E00224204640B0BDE8F08700BF10B5002404E0204602F0B6F90134E4B2062CF8D910BD00BF70B50546104B034493F850406F
:403C800093F85860032802D802F0A4F903E00438C0B202F07FF90F2C00D10724074800EB8404226E137823EA0603137000EB8500D0F8803009221A7070BD00BF2CBC000014
:403CC00008B5134B1B7813F0040F09D1104B1B7813F0080F04D10E4A137803F0FC0313700C4B1B781B020C4901EB40010B840B4A12781343DB430B84FFF7BCFF002003F033
:403D0000FDFC074A137843F00103137008BD00BF796400401F640040B093FF1F0F6400407258004010B5104B1A1892F8501092F8584003EB8003D3F8803009221A700F293B
:403D400000D10721084A02EB8102126E137823431370032802D802F04DF910BD0438C0B202F028F910BD00BF2CBC00007F230C4A137080210B4A117007E0DA0002F18042ED
:403D800002F5F042013BDBB21370002BF5D1DB0003F1804303F5F04300221A70704700BFC680FF1FC780FF1F2DE9F04FCDB01D4600230B930A93AB6809930391002A00F005
:403DC0009F80824693461318EA68934200F29A80002900F099800BF1FF331B094C4AA2FB0323059301330493002307939946012081E0099B1C682B4608AA09A92046FFF7EE
:403E000013FD4FF4807200210CA803F051FF04F10108CDF83080CDF834A00399059B994502D1CDF838B007E070230E93ABF1700B9A44039B703303930E9A0FA805F0C4F888
:403E4000089921B1802211442CA805F0BDF86C68A04503D9C4EB0804013400E00124002731E0444501D10CAE04E029462046FFF709FD0646099BAA699A1A120A6968B2FB7D
:403E8000F1F301FB132356B17268B1680191009207AA0AA90BA8FFF747FC074600E001374FB90B98079931440A9A121A0C310CAB184405F089F82B7D23B180212CA8FFF7DC
:403EC00095FC2B9001344445CBD92A460CA90998FFF73CFE2B7D4BB140B9AA69099B9B1A28682A460CA91844FFF730FE68B9099BAB6009F10109049B9945FFF47AAF04E08F
:403F0000012002E0012000E001204DB0BDE8F08F264992242DE9F04F8BB00691002A00F0E68081461F46934613181C460793FB689C4200F2DF80002900F0DF80B8680368AE
:403F4000099304F1FF3A4FEAD913C3EBDA1A0AF1010ABC69031B7A681502B3FBF5F303FB02F304EB0323039300250EE0B9EBC51F06D36B1CDB01013B994503D9002302E068
:403F8000002300E001231BB901359542EED30025039BC01A030A184605933B69012B09D905EB0A03013B854207D8984208D20123049307E00023049304E00123049301E077
:403FC00000230493C84600260123CDF82090894635E0039B03EB052008F07F0404F180010136B24502D9C4F1800400E05C46049B63B1059B9D4209D97B68A0EB0320BA6928
:40400000904203D238685B1BA0EB03203B7D5BB1009723460A464946FFF7E4FD034648B18246DDF820900FE022460144484604F0CBFF0023A044C4EB0B0BA14401355645A2
:40404000C7D39A46DDF820905346002B57D1099B002B54D07D689D4228BF1D46013D5D1BDDF81880079E1C463EE039462846FFF709FC8646002836D043688168194499455B
:4040800004D29E4294BF0022012203E089452CBF002201223AB3994502D3C3EB090C01E04FF0000C994502D2C9EB030000E000200CF10C0CB14228BF314699452CBFC9EBF6
:4040C0000103CB1A40443A7D42B10097624601467046FFF787FD824628B110E01A460EEB0C0104F071FF0135A542BED907E001239A4604E001239A4601E001239A46504696
:404100000BB0BDE8F08F00BFF8B500293DD00D4600283CD0C368002B3BD043680A2B3AD80768002F39D00446FFF746FB0646002834D1EF6063682B61237A2B75637A6B75E3
:40414000E368AB612368DA0913F07F0300D0012313446B60626802FB03F3E26802EB03232C4644F8083B29462046FFF799FBAB681B689BB92B7D8BB12846FFF7FDFC0646FE
:4041800029462046FFF78CFB08E0012606E0012604E0012602E0012600E001263046F8BD054A137843F0020313701032137843F002031370704700BFA243004008B5FFF7E0
:4041C0004DFD08BD014B1870704700BF805B004008B5134B1B7813F0040F09D1104B1B7813F0080F04D10E4A137803F0FC0313700C4B1B781B020C4901EB40010B840B4A0B
:4042000012781343DB430B84FFF734FD0020FFF7D9FF074A137843F00103137008BD00BF796400401B640040B093FF1F0B6400407058004008B5064B1A7802F0F3021A70BD
:404240001A7800F00C0010431870FFF741FB08BD2058004008B5064B1A7802F0FB021A701A7800F0040010431870FFF731FB08BD21580040054A137843F001031370103236
:40428000137843F001031370704700BFA843004008B51422084B1A700133002018701A7842F004021A701A7842F002021A70FFF729FBFFF70DFB08BD20580040054A137857
:4042C00043F0010313701032137843F001031370704700BFA743004008B50020FFF720FB0B4B1A7842F020021A701A7802F0FB021A701A7842F008021A7003F287231A7895
:4043000002F0E7021A701A7842F010021A7008BD4058004038B500252C4606E02046FFF779FB00B101250134E4B2072CF6D9284638BD00BF10B500240BE004F00702012326
:40434000934013F0FF0F02D02046FFF797FB0134E4B2072CF1D910BD024B187040081033187070472464004010B5044601F05EFD124B1A7842F001021A701B7813F0040FEB
:4043800007D00F4A137803F0FE0313702046FFF7C9FC0A4B1B7813F0080F08D0201D094A137803F0FE031370C0B2FFF7BBFC034A137843F00203137010BD00BF79640040E3
:4043C000705800407258004010B51E4C237803F0F70323701C4B93F870000430C0B2FFF76FFC237813F0040F2BD1174B93F8713013F0800F07D0144A92F8713003F0FE03D7
:4044000082F8713010BD104C94F8700001F03CFD84F8700094F87030DBB2032B04D994F87030DBB2032B05D8074B93F87000FFF79BFF10BD044A92F8713003F0FE0382F80D
:40444000713010BD79640040B093FF1F10B51D4C237803F0FB0323701B4B93F87000FFF7B7FE237813F0080F2BD1174B93F8713013F0800F07D0144A92F8713003F0FE03D2
:4044800082F8713010BD104C94F8700001F0FCFC84F8700094F87030DBB2032B04D994F87030DBB2032B05D8074B93F87000FFF75BFF10BD044A92F8713003F0FE0382F80E
:4044C000713010BD79640040B093FF1F10B5002404E02046FFF7CEFB0134E4B2072CF8D910BD00BF024B93F8710000F001007047B093FF1F10B5044601F060FCFFF7F2FFEE
:404500000028FBD1032C02D82046FFF79BFA032C03D8201DC0B2FFF795FA10BD10B5002404E02046FFF7E6FF0134E4B2032CF8D910BD00BF10B5114C002384F87130FF2399
:4045400084F8703094F8700001F09EFC84F8700094F87030DBB2032B04D994F87030DBB2032B0AD8054B93F8712042F0010283F8712093F87000FFF7F7FE10BDB093FF1F5E
:40458000044B1B7813F0800F01D0024B5B780020704700BF00600040014B1B78014870472494FF1FD0BC0000054B1B7828B9C3001033044A1344586870470020704700BFA3
:4045C0002494FF1FD0BC000010B50E4B1C79E4B20D4B58780138C0B2FFF7E6FF43681B799C4201D9022C0AD8074B1C442379DBB22372044B9B78DBB22371012010BD00205A
:4046000010BD00BF006000402494FF1F08B5084B58780138C0B2FFF7C7FF30B142681279023200EBC203586808BD002008BD00BF2494FF1FF8B5474B5B7813F0FF0F00F025
:404640008780444D68780138C0B2FFF7ADFF047AC268A87AC0B2002378E01178884272D13C4901440979C9B25578A9426BD1957805F07F05D67806F00306DFF8DCE069009E
:4046800029448F000EEB07014FF0000C81F803C092F802C081F804C092F803C00EF807C097880F8192F9021000290DDA012E01D1072700E00D276E002E44B100264E3144BA
:4046C0004F7101264E700CE0012E01D1052700E009276E002E44B1001F4E31444F7100264E7029011D4E012777541D4F7E5C06F0FE067E54691E4900C9B21A4E317031783E
:4047000041F0010131701749097811F0100FFAD092F90210002908DA134F3E78013D0121A94026EA0101397008E00F4F3978013D012606FA05F52943C9B23970094D297839
:4047400001F0FE01297008320133DBB2A34284D3F8BD00BF2494FF1F849CFF1FFE5F004070600040146000408F60004070B4002401232EE026491A018D180C268E541D2265
:404780006A7003EB43018A0022490A44527912F0FF0F17D003EB43018A001E490A44127912F0800F03D018011B4A16540FE01801194A082111545A1E0121914041EA04020B
:4047C000D4B204E01901154A0A44802191700133DBB2082BCED95522114B1A70202230331A70002201331A7003222F3B1A7001331C700D331A7842F080021A701A7802F072
:404800007F021A70FF22923B1A7070BC704700BF70600040849CFF1FFE5F0040FC5F00408C6000402DE9F041002310E0664D5900CA189600AC190022AA55A270E2702281D6
:40484000A272627034462C4462710133DBB2082BECD940B90AE05D4A1A440021117111720133DBB200E00023012BF4D9574B5B7813F0FF0F00F0A580544B58780138C0B25C
:40488000FFF792FE4368DB7913F0400F05D04F4AD37A43F00103D37204E04C4AD37A03F0FE03D372057A012471E0C16800236AE08A7802F07F02944262D1264604EB44073B
:4048C000BA00414F3A44128992B28F88BA4207D204EB440E4FEA8E02DFF8ECE0724417810A783A4F3A441279D2B24F78BA4247D191F802E0344F730033449A00BB1883F8F7
:4049000004E0CB78BB54CB7803F0030391F90220002A1ADA012B02D14FF0070801E04FF00D08DFF8A4E0720002EB060C4FEA8C07774487F8058001267E708A79B24224D161
:40494000022B22D1214B1C731FE0012B02D14FF0050801E04FF00908DFF86CE0720002EB060C4FEA8C07774487F8058000267E708A79012A09D1022B07D1144B5C7304E04F
:4049800008310133DBB2AB4292D30134E4B2082C8BD9C06800220CE0837803F07F0310F8084B03EB43039900074B19448C720132D2B2AA42F0D3FFF729FE054B1860FFF78C
:4049C000D5FEBDE8F08100BF849CFF1F2494FF1FF09CFF1F704700BF054B0022DA819B692BB1034A916900230B709269538070472494FF1F054B9B693BB1044B9A691070DC
:404A00009A69D989518000229A6170472494FF1F10B50B4B1B7F13F0FF0F07D0084A137F43F0800307490B7000231377044C002363770120FFF7DEFF0323A37710BD00BFDA
:404A40002494FF1F08600040054B06225A779A778022DA77002283F820200120704700BF2494FF1F274B1B7903F07F035A1ED2B2072A44D810B5590019448A0022490A449F
:404A8000917801F0FE0191700021D1701F4C1801215C01F07F012154517801F0FD015170127912F0800F13D003EB43018A0016490A445278D2B2012A04D1224602440C23A7
:404AC000937019E01B01114A1A440D23937013E003EB43018A000C490A445278D2B2012A05D11B01094A1A440823937004E01B01064A1A4409239370FFF7A6FF10BD0020B1
:404B0000704700BF00600040849CFF1FFC5F004008B5154B1B7903F07F035A1ED2B2072A20D8590019448A0010490A44917841F0010191700021D170517841F002015170F7
:404B4000127912F0800F05D01B01094A1A448D23937004E01B01064A1A4489239370FFF773FF08BD002008BD00600040849CFF1FFC5F004010B5044C002363770120FFF7B3
:404B800039FF0323A37710BD2494FF1F10B4184B197801F00F010239C9B2164AD3899BB20B449BB2D381002011E0124A5469124B1B5CDBB223705369013353610130C0B20D
:404BC0000139C9B2138A9BB2013B9BB21382094B1B8A9BB20BB10029E7D1064B83F82010DA7F82F08002DA770B229A7710BC7047296000402494FF1F0060004010B5084C62
:404C000094F82120E3899BB213449BB2E381002363770120FFF7EEFE0323A37710BD00BF2494FF1F064B02225A778022DA770F229A77002283F8212083F820200120704758
:404C40002494FF1F1D4A92F82110D3899BB20B449BB2D38100220FE018494B691B78DBB2174883544B6901334B610132D2B20B8A9BB2013B9BB20B82104B1B8A9BB20BB1DB
:404C8000072AE9D90D4B93F82130DBB2082B00D04AB10A4BD97F81F08001D9770F2199770221597703E0054B022199775977034B83F8202083F82120704700BF2494FF1FD9
:404CC0000060004008B5FFF7BDFF08BD10B50E4B1B8A9BB213B9FFF7A5FF12E00A4C022363770023E377FFF777FE084AD179937943EA0123228A92B2934200D22382FFF710
:404D0000A1FF012010BD00BF2494FF1F0060004008B50B4B5B7FDBB2042B06D0062B07D0022B0BD1FFF76AFF08BDFFF72FFF08BD0320FFF75FFE0322014B9A7708BD00BF97
:404D40002494FF1F08B5094B5B7FDBB2042B06D0062B07D0022B07D1FFF7B4FF08BDFFF709FF08BDFFF754FE08BD00BF2494FF1F08B5094B1B7813F0FF0F0CD0074B187B8A
:404D8000FEF7AEF9012806D1044B187B024B1A780021FEF7CBF808BD169DFF1F2494FF1F70B588B0054603AC174E0FCE0FC43368237035B322232B7003236B7001A8FCF752
:404DC000E3FE002402231AE008AA224412F81C2C08A901EB121111F8141CE954581C00212954981C02F00F0208AE324412F8142C2A54DA1CA9540134E4B20433DBB2212B64
:404E0000E2D908B070BD00BF64BE000010B59B4B1B78DBB200219A4A118213F0800F00F0B080964A5278D2B20A2A00F26081DFE812F067005E015E015E015E015E010B0091
:404E40005E0195005E019D008C4BDB78DBB2012B09D1FFF7A1FB4268894B5A6112221A82FFF734FF10BD854BDB78DBB2022B13D1824B9878FFF798FB002800F03A81426850
:404E80007F4B5A615A69D1785A69927842EA01221A82FFF71BFF10BD784BDB78DBB2032B05D02AE00A7811440133DBB201E000237449724A9278D2B2934203D20A7812F04B
:404EC000FF0FEFD16D4B9B7813F0FF0F09D06B4B9B78DBB2802B04D16B4C2046FFF760FF21460B7813F0FF0F00F005810B78644A13825161FFF7EAFE10BD02F0E7FA10BDB3
:404F000013F003031AD0022B40F0F7805C4A13825A4B1B7903F07F0303EB430399005B4B19448B78DBB282F84830002382F8493002F148035361FFF7C9FE10BD504B02221E
:404F40001A82DA7AD2B283F84820002283F8492003F148025A61FFF7B9FE10BD484B01221A829A185A61FFF7B1FE10BD444B01221A82424A1279191D0A445A61FFF7A6FEF2
:404F800010BD3E4A5278013A0A2A00F2B880DFE802F045B67FB606B6B6B60EB62B00374B9B78DBB2364A1377FFF74EFD10BD334B9B7803F0FF041BB1601EC0B2FFF7F4FAD8
:404FC00004B110B9002C40F09C802D4B5B78DBB29C4206D02A4B5C70012083F84A00FFF721FCFFF731FD10BDFFF7EEFA002800F08A80224A13791279D2B221498A720B4448
:405000001A7AD2B21B79DBB29A4204D0012281F84A20FFF70FFBFFF717FD10BD03F00303012B17D04BB1022B6FD1144B9B7813F0FF0F6CD1FFF716FD10BD104B9B78DBB2A4
:40504000012B66D10E4AD37A03F0FD03D372FFF7FBFC10BD094B1B79DBB2012B5BD8074B99781B79064A134493F84C2022EA010283F84C20FFF7E8FC10BD00BF00600040D1
:405080002494FF1FE8BC00004894FF1F849CFF1F03F00303012B17D04BB1022B3DD1234B9B7813F0FF0F3AD1FFF732FD10BD1F4B9B78DBB2012B34D11D4AD37A43F0020345
:4050C000D372FFF7C1FC10BD184B1B79DBB2012B29D8164B99781B79154A134493F84C2022EA010283F84C20FFF7AEFC10BD002010BD002010BD002010BD002010BD002050
:4051000010BD002010BD002010BD002010BD002010BD002010BD002010BD002010BD002010BD002010BD002010BD00BF006000402494FF1F08B5134B1A78D2B21A701B78DD
:40514000DBB213F0800F02D00F4A937708BD0220FFF750FC0D4B1B7803F06003202B05D0402B06D043B9FFF751FE06E002F0AEF903E0FFF705FA00E0002010B90322024B3D
:405180009A7708BD286000402494FF1F0060004008B5284B1B78DBB213F0100F48D013F0800F0CD003F00F03012B16D1FFF7C2FF214B9B7F13F0800F11D1012312E013F001
:4051C000400F03D0FFF7BEFD01230BE013F0200F07D0FFF79DFD012304E0002302E0002300E0002323B3134B1B7813F0800F1FD1114AD37F92F820201343104A1370127884
:40520000D2B2934214D10C4B9B7FDBB2094A127812F0800F07D1084B9B7FDBB2054A1370137803F00F03044A927FD2B29342EAD108BD00BF286000402494FF1F2960004032
:4052400008B502F0E5FA08BDF8B5274B1F78FFB2012445E017F0010F3FD026462201234B13449A785D78154015F0010F32D004EB440293001E4A13441B7913F0800F29D0B7
:405280001A4922018B5C03F0FE038B54194B03EB4403B3F850309BB2202B04D900212046FDF7BEFD04E0134B2344012283F8642006EB460293000E4A13445A79D2B2310170
:4052C0000D4B5A540B4B1B7BDBB29C4202D100220A4B1A7036010A4B9D550134E4B27F08002FB7D1F8BD00BF9F60004070600040849CFF1F2494FF1FFE5F0040169DFF1FB1
:40530000726000402DE9F04102F096F900F07F0502F034F900F0030601242DE015F0010F20D02201164B9B5C13F0010F1AD1154B234493F8643013F0FF0F13D1DFF84880DD
:4053400017464244002353716301023BDBB2137101212046FDF764FD18F8073043F0010308F807300134E4B26D08002DD6D1760802D006F001050824002EF6D1BDE8F08188
:40538000726000402494FF1F7060004008B5FDF725FF08BD2DE9F04104460E461746374B1978C9B2364B1B7B03EB43039A00354B1A4413899BB2043B994201D9FFF7D8FC21
:4053C0002E4B1978C9B22E4B1B7B03EB43039A002C4B1A4413899BB2043B994248D8231FDBB2EB2B08D93B4622463146204602F0CBFA4FF000083DE000253B460322711957
:40540000F02002F0C1FA033CE4B20335EDB21B4B1978C9B21A4B1B7B03EB43039A00194B1A4413899BB2043B994210D9FFF7A0FC124B1978C9B2124B1B7B03EB43039A005E
:40544000104B1A4413899BB2043B994204D8022CD3D84FF0000801E04FF00108B8F1000F08D13B4622467119F72002F08DFA01E04FF001084046BDE8F08100BF169DFF1F62
:405480002494FF1F849CFF1F08B5FFF771FC08BD024B187800F00100704700BF6A65004028B1064AD37A43F00103D3727047034AD37A03F0FE03D372704700BF2494FF1FD8
:4054C000431EDBB2072B0BD8420002449300054A134400225A705A79D2B20001024B1A54704700BF849CFF1FFE5F004038B5124B587BFDF7F5FD01281DD10F4B587BFDF75D
:40550000DBFDC5B2032D0FD811E00B4B234493F8700060B1631C0949194400F0F000FBF7FBF80434E4B200E00024AC42EDD3024B587BFFF7C5FF38BD2494FF1F9494FF1FED
:4055400008B502220D4B1A700F3B93F822300C4B1B7E03F00303012B04D0094AD37E83F08003D3760122064B5A76064B5B7BDBB2022B01D1FFF7BAFF08BD00BF0B600040A0
:40558000849CFF1F2494FF1F08B501220C4B1A700F3B9B7C0B4B1B7B03F00303934204D0084AD37B83F08003D3730122054B5A73054B5B7BDBB2934201D1FFF797FF08BD60
:4055C0000B600040849CFF1F2494FF1FF8B599B3044616460F4688B3082831D81A4B034493F8B030FF2B01D1FDF766FC164D254495F8BC00FCF75EFF95F8B00012230246FC
:405600003146FCF7A1FE24011049214489B2BAB295F8B000FCF78AFE95F8BC00FCF736FF95F8B01095F8BC00FCF7F8FE012195F8BC00FCF751FF04E0002602E0002600E08F
:4056400000263046F8BD00BF2494FF1F7860004010B50022084B1A70084C207B40220849FDF764FC607B402204F17001FFF7AEFF607BFFF725FF10BD169DFF1F2494FF1FC3
:40568000189DFF1FF0B40022174611E050F82760F3B226F0FF0608E001EB420511F812406D78A5550132013BDBB2002BF4D10137292FEBD9F0BC7047FEE700BF838A63B1B7
:4056C000838919448388994207DB00238381828BC189438901FB02334381038CF3B110B4836933B9818BC38903FB01F1013909B200E0002143898CB2C28BC18901FB02F29C
:4057000092B2234413449BB2C1888B4205D300238381091B8A1A013A428110BC704700BF10B502F091FA04461C4A137843F020031370FEF735FDFEF7C1FDFEF79BFD02F04E
:4057400027F802F001F8164A137843F010031370144B197841F010011970117841F0200111701A7842F020021A700F4A137843F0010313700232137843F001031370204667
:4057800002F066FA094B02221A6004221A60084A137843F08003137010BD00BF9E640040BB430040AB4300407058004000E100E07964004008B502F04FFA03680C2B00D164
:4057C000FEE7FEE7F8B5254B1B78DBB2244E3478E4B2244F3D78EDB203F00701224A11701B090132137044F00303337045F003033B7002221D4B1A7010231D4A1370282126
:4058000010321170502110321170C0321370002302F27362137002321370402397321370023213708022134B1A702023124A1370183213707A214D32117003321370193259
:4058400013702A220D4B1A700A20FCF7F7F93D70347066220A4B1A70F8BD00BFCF010049F8460040F94600406E5800400D5100401D510040935A0040C35A0040585B004059
:405880007658004008B503F09FFB08BD38B50024344B1C80502202331A7002331C80192502331D70042202331A8018232E490B7002310A8002310B703620023108800231CC
:4058C0000B702A492A48FFF7DDFF0622294B1A70294B1B78DBB2294A13705222284B1A7040F62E5222331A8042F25122023B1A800BE0244B1B7803F0010343EA440404F0E5
:405900000304782002F098F9013D0DB1032CF0D115B90320FFF7D0FE1B4A4FF48073138007231370002319490B704820023108701370053213700222154B1A7004220A3308
:405940001A70144A137843F01F031370013A137843F001031370013A137843F08003137038BD00BF804000408A4000407C0F004800410040004300400F010049A146004048
:405980000042004025420040044000400640004001400040A243004008B50A46002102F087F908BD38B572B66122524B1A70FFF76DFF514A137843F00403137000240BE096
:4059C0004E4D63001A19500002462A4491882858FFF7E2FF0134E4B2072CF1D900240BE04648A20011194B0003441A8F596B186BFFF748FF0134E4B2012CF1D940494FF086
:405A00009040FFF73FFE4FF440733E4A1380023213800A243C4B1C7003223B3B1A8040F2033206331A8004213848FFF7B5FF042237493848FFF726FF04213748FFF7ACFF06
:405A400004213648FFF7A8FF04213548FFF7A4FF04213448FFF7A0FF042233493348FFF711FF042232493348FFF70CFF324A334B1A60334A137843F0020313701032137831
:405A800043F0020313702F4D2B7843F040032B70A2F58632513A137843F010031370082229492A48FFF7EEFE224629492948FFF7E9FE224628492948FFF7E4FE08222849F8
:405AC0002848FFF7DFFE082227492848FFF7DAFE224627492748FFF7D5FE274A137843F008031370FFF76EFE0E2229462348FFF7C9FE38BD00480040E846004078BE000074
:405B0000A8000048705800408358004000760040800F00480876004010760040187600402076004028760040840F004830760040880F004838760040040404C4580E0140BA
:405B400003500140A0430040400F004802510040480F0048C0510040540F0048F0510040600F004812510040680F004822510040700F00483051004022430040B0430040FC
:405B80002DE9F04F8DB00390049105921D46BDF858300693BDF85C709DF860A08269002A40F09F80014683880498984280F20381CB88059C9C4280F2FE800AEB4A025300CD
:405BC0000344012B00F1F78004EBCA03012B00F1F280CB8A1BB9AF2D01D90135EDB24FF00008DDF81090DDF814B00795069E54E0079B03EB8303434403EB43039A00039BF9
:405C00009B699D5C002442E015F0010F1DD0BAF1010F0AD104EB0B0208EB0901334612B209B2039800F0F2FE2EE01FFA8AF10FFA8AF304FB01B208FB01910196009312B2C0
:405C400009B2039800F0CCFE1EE0BE421CD0BAF1010F0AD104EB0B0208EB09013B4612B209B2039800F0D2FE0EE01FFA8AF10FFA8AF304FB01B208FB01910197009312B202
:405C800009B2039800F0ACFE013464B26D08072CBADD08F101084FFA88F8B8F1040FA7DD069BBB4200F08780BAF1010F09D10499053100970823059A09B2039800F09CFE21
:405CC00079E01FFA8AF303EB8301049A11440197DB0000935346059A09B2039800F080FE69E0137AEB1ADBB2506800EBC301D2F800B030F8337091F80280CB78099391F9C6
:405D000005300A9391F906200B92BAF1010F04D91BB2079313B2089302E000230893079300231C46994643E05E1CF6B213F0070F03D17B1C1BF807409FB214F0800F2AD046
:405D4000BAF1010F0ED10B9B059A9A184A440A9B049959182944069B12B209B2039800F055FE18E0079B59191FFA8AF0089B03EB09020FFA8AFE059B02FB0032049B01FBB0
:405D80000031069B01937346CDF800E012B209B2039800F025FE6400E4B20135EDB2334600E000254545BFD309F101095FFA89F9099A9145F5D30DB0BDE8F08F08B50022A9
:405DC000174B1A70174B1870032805D8164A137843F00403137004E0134A137803F0FB031370032805D8104A137843F00803137004E00D4A137803F0F70313700A4B1B7811
:405E000013F0040F04D1084B1B7813F0080F06D0034A137843F081031370FEF7A5FA08BD2194FF1F2094FF1F7964004070B5044603280CD8104B1D5C104E331893F84400AA
:405E4000FEF7C0F9354495F84C200D4B1A70032C0DD80434084B1D5D084E344494F8440001F04CFC354495F84C20064B1A70FA20FEF772FA70BD00BF2CBC000078BE00005E
:405E80005A6400405E640040031DDBB20130C0B2032807D800F0070101228A4012F0FF0FF4D000E004200133DBB2072B07D803F0070101228A4012F0FF0FF4D000E0082332
:405EC000043BDBB2984205D10C4A137843F00C0313707047984207D2084A137803F0F70343F004031370704704490A7802F0FB0242F008020A701846704700BF7964004073
:405F000008B5104A104B1A60104A136843F40073136000230AE0032B03D80D4A52F8231000E00C490C4A42F8231001332F2BF2D90A4B1B78084A0A4B1A60FFF733FDFDF725
:405F400015FF08BD0004FA050CED00E014ED00E000000000B55700000080FF1FBC76004008ED00E008B5094B1A681044084BC31AB3F5006F02DC054B186005E001F06CFE86
:405F80000C2303604FF0FF32104608BDD880FF1F689DFF1F06280AD8054B03EB8002526D184490F87010137823EA01031370704778BE0000062809D8054B03EB8002526D9E
:405FC000184490F8701013780B431370704700BF78BE000006280AD8054B03EB8002926F184490F89410137823EA01031370704778BE0000062809D8054B03EB8002926F00
:40600000184490F8941013780B431370704700BF78BE0000F8B5FEF759FA0126424B1E7001F012FE414A137843F0030313700132137843F00303137001F00AFEFF243C4BA9
:406040001C7020331C70403B1C7021331C7030331C70103B1C7001F0F7FD364A137843F0030313700132137843F00303137001F0EFFD314B1C7020331C70403B1C702133C3
:406080001C7030331C70103B1C702C4F02253D602B493046FBF7FEFF05213046FBF7E2FF04243C6027492846FBF7F4FF05212846FBF7D8FFFEF782F82046FFF79BFF052099
:4060C000FFF798FF0620FFF795FF01F013FB2046FFF770FF0520FFF76DFF0620FFF76AFF194B1A7822431A701A7842F008021A70FEF7F2F8FEF7CCF80020FEF7ABF820469A
:40610000FEF798F80020FEF75DF801F04FFB01F029FB002001F008FB204601F0F5FA002001F0ECFAF8BD00BF8E6400409A6400402A6400409E6400402E64004080E100E0C8
:406140004D440000C94300007964004008B5054B1B7823B9FFF75EFF0122024B1A70FFF7DFFA08BDEC94FF1F01281CD810B44000C0B20D4B03EB8002D2F89C101A1892F8DD
:40618000AC400A7822EA04020A700130C0B203EB8002D2F89C20184490F8AC10137823EA0103137010BC704778BE000001281AD810B44000C0B20C4B03EB8002D2F89C1006
:4061C0001A1892F8AC400A7822430A700130C0B203EB8002D2F89C20184490F8AC1013780B43137010BC704778BE000001238340012823D8DBB2124A527813421ED010B483
:406200000F4922EA03034B700E4B03EB8002D2F8B020184490F8B840137823EA0403137090F8BC30CA181379013BDBB2137123B9054A137823F01003137010BC704700BF08
:40624000EC94FF1F78BE0000005B004001238340012823D8DBB2124A527813421ED110B40F4913434B700F4B03EB8002D2F8B020184490F8B84013782343137090F8BC3058
:4062800019440A7922B908490A7842F010020A70034A13441A7901321A7110BC704700BFEC94FF1F78BE0000005B0040F8B507460E461546002411E0681E001B05F002F89E
:4062C0000146084803F006FF05F052FAB6FBF0F303F130023A5503FB106601342846AC42EADBF8BD00002041F0B50C4629B1836943BB43890633438124E08369D3B100238A
:40630000C3830E7A4F7A33460FE09A1B616801EBC202D17892F9062001EB020EC58BAE4501DDA0F81EE00133DBB2BB42EDD9A37A838307E013B14389063B4381082383832F
:406340000023C3838461F0BD007A704701824282704700BF09B189B200E00121C181704781814281704700BFF0B585B004460D4683693BBB0A2908D1828BC189438901FB85
:40638000023343810023838154E00D2952D0C189890009B2FFF792F9B4F90A20B4F90C10A37B0293638A0193238A00932B462046FFF7E6FBE38903EB43035A00A3891344E3
:4063C000A38137E00A2908D1002282814189C2899B7A03FB021343812CE00D292AD01A7A914227D3597A8D4224D8AA1A5E6806EBC206B378F278BBB1B2B196F90510C2895F
:406400000B4403FB02F109B2FFF758F9B4F90C10B4F90A20238A608AA77B0297019000932B462046FFF7ACFB3179E289A38901FB0233A38105B0F0BD2DE9F04782B0824651
:406440000D4691461E46BDF92880BDF82C700C4608E0009743464A462146504600F0CCFA013424B2AB199C42F3DB02B0BDE8F08710B582B0BDF8104001941344013B1BB208
:4064800000930B4600F0C6FA02B010BD08B5104E104D16E029686B68AC68002204E051F8040B43F8040B0432A242F8D1E868002203E0002143F8041B04328242F9D110357F
:4064C000013E002EE6D101F0CDFBFAF773F900BF010000005CE50000018042808180C28000230381438183810122C2814FF6FF71018241828282C3828361C3830823838367
:40650000704700BF00B583B0002101912023009380230A460248FFF78FFF03B05DF804FBF894FF1FF8B50E1E75DB054614461F4683889E426FDA002A6DDBC3889A426ADABE
:40654000FFF702FF02280AD0032813D0012817D1B5F900301C1B631E34461EB210E0B5F900309E1B013E36B2B5F902301C1B013C24B205E0B5F902309E1B731E26461CB200
:40658000012F03D0CFB1022F2FD0F8BDB5F900202346002C00DAE31D43F3CF0302FB036604F00704012303FA04F41B4B1E4496F82430234386F82430F8BDB5F900202346E2
:4065C000002C00DAE31D43F3CF0302FB036604F00704012303FA04F40F4B1E4496F8243023EA040386F82430F8BDB5F900202346002C00DAE31D43F3CF0302FB036604F037
:406600000704012303FA04F4034B1E4496F824305C4086F82440F8BDF894FF1F2DE9F04383B006460D461F4603F003031B010FFA82F9DFF8408003F10C0249464046FFF70A
:406640008FFE7A1C05EB45018B0000240194120100921BB23A0149464046FFF7EDFE04E0315D0448FFF780FE0134AC42F8DB03B0BDE8F083F894FF1F70B515461E46064C07
:40668000CAB201462046FFF711FE33462A4601462046FFF7C3FF70BD1C99FF1F70B582B004460D461646FCF77DFE8DF807009DF8073013F0800F29D13346EAB215492046E3
:4066C000FCF7FEFE8DF807009DF8073013F0FF0F19D14CF25034FCF779FE8DF807009DF80730013C02D180238DF807309DF8073013F0820F0AD19DF8073013F0FF0F05D078
:40670000002CE8D102E080238DF807309DF8070002B070BD3C99FF1F08B5054B002283F8442483F8450402213C20FFF7B7FF08BDF894FF1F38B504460D4611F0800F00D06B
:406740007F25072C00D907242120FFF7E5FF2846FFF7E2FF7F20FFF7DFFF2220FFF7DCFF2046FFF7D9FF0320FFF7D6FF38BD00BF08B500210846FFF7DDFF08BD70B5FFF7A4
:40678000F7FF0020FFF7C8FF1020FFF7C5FF4020FFF7C2FF002426462CE0A6F15000C0B2FFF7BAFF0220FFF7B7FF1020FFF7B4FF4022124B83F84424002517E0591C03EB99
:4067C00004130E4A134493F824300A4482F844340B4600E000230F2BF0DD0134E4B2002211213C20FFF75AFF0135EDB2072DF1D90136F6B2032ED0D970BD00BFF894FF1F6D
:4068000008B5FFF7BBFF08BD10B504460A490B48FFF76AFDFFF776FE00231A4609210848FFF7FCFE0123002202212046FFF724FFFFF7E6FF10BD00BF38BF0000F894FF1FCD
:40684000D8E3000038B5FFF75DFE1B4D1B4C05F10C012046FFF748FD01212046FFF77AFD012300220221D4F84405FFF705FF05F118012046FFF738FD01212046FFF76AFDBA
:40688000D4F8443504F5A965C3EBC30358000023302207212844FFF7C1FED4F84435C3EBC303580007300123302207212844FFF7B5FEFFF7A5FF38BD38BF0000F894FF1FD7
:4068C00038B5FFF71FFE124D124C05F10C012046FFF70AFD01212046FFF73CFD0123002219460D48FFF79AFE01231E220221D4F86006FFF7C1FE05F118012046FFF7F4FC6D
:4069000001212046FFF726FDFFF77AFF38BD00BF38BF0000F894FF1FE4E3000008B5FFF7CFFF08BD10B50446AE20FFF7F5FED520FFF7F2FE8020FFF7EFFEA820FFF7ECFE19
:406940001F20FFF7E9FED320FFF7E6FE0020FFF7E3FE4020FFF7E0FE8D20FFF7DDFE012C03D11020FFF7D8FE02E01420FFF7D4FE2020FFF7D1FE0020FFF7CEFEA120FFF70C
:40698000CBFEC820FFF7C8FEDA20FFF7C5FE0220FFF7C2FE8120FFF7BFFE8F20FFF7BCFED920FFF7B9FE012C03D12220FFF7B4FE02E0F120FFF7B0FEDB20FFF7ADFE402008
:4069C000FFF7AAFEA420FFF7A7FEA620FFF7A4FE2E20FFF7A1FEAF20FFF79EFE10BD00BF10B582B0BDF814400194BDF910400094FFF722FD02B010BD10B582B0BDF81040AD
:406A00000094FFF735FD02B010BD00BF08B5FFF789FD08BD2DE9F04F85B002900D4616461F46BDF938B0BDF83C300393584604F049FC0446304604F045FC0146204604F06C
:406A40008BFB20F00048384604F03CFC0446284604F038FC0146204604F07EFB20F0004319460193404604F03DFE28B13B465F469B462B4635461E46BD4205DD33465E466B
:406A80009B462B463D461F46C5EB070A1FFA8AFA0FFA8AF4584604F015FC8146304604F011FC0146484604F057FB20F0004004F039FE0FFA80F904EBD47464105E4502DA94
:406AC0004FF0010B21E04FF0FF3B1EE00199404604F008FE30B1039B2A4631460298FFF795FF05E0039B324629460298FFF78EFFC9EB0404A3B21CB2002C04DA5E4436B235
:406B00000AEB030424B201352DB2BD42DEDD05B0BDE8F08F38B50220FFF704FF002305E0134A1A44002182F824100133B3F5806FF6DB0F4C202280212046FFF7CDFC0D4DE8
:406B400005F124012046FFF7CFFB29462046FFF7CBFB002201212046FFF7F8FB01212046FFF7F8FBFFF76EFEFFF74AFE38BD00BFF894FF1F38BF000008B5FFF763FE08BD71
:406B80002DE9F04186B000F0A1FDB0FA80F040090190FCF7FFFBB0FA80F040090290FCF7F1FBB0FA80F040090390FCF7E3FBB0FA80F04009049000F0C3FCB0FA80F0400945
:406BC000059000232BE006AA02EB830252F8141C99B1994A02EB8302D2F86426012A0CD1954A02EB8302D2F87C26632A05DC924800EB83000132C0F87C268F4A02EB8302F0
:406C0000D2F864262AB98C4A02EB83020020C2F87C06894A02EB8302C2F864160133042BD1DD854BD3F87C365F2B0AD1824AD2F89436B3FA83F35B09C2F894366123C2F894
:406C40007C367D4B93F89A3643B17B4BD3F89436B3FA83F35B09794A136004E0764BD3F89426764B1A60754B1B681BB1012000F05BFC02E0002000F057FC6F4BD3F88036D7
:406C80005F2B38D16C4B93F89C36C3B96A4BD3F84435122B04DC0133674AC2F8443503E00022654BC3F84425FFF766FF624BD3F8442583F89D26032283F89E2617E05E4B2C
:406CC000D3F86036122B04DC01335B4AC2F8603603E00022584BC3F86026FFF71FFE564BD3F8602683F89F26042283F89E266122514BC3F88026504BD3F884365F2B38D127
:406D00004D4B93F89C36C3B94B4BD3F84435002B04DD013B484AC2F8443503E01322464BC3F84425FFF728FF434BD3F8442583F89D26032283F89E2617E03F4BD3F86036CB
:406D4000002B04DD013B3C4AC2F8603603E01322394BC3F86026FFF7E1FD374BD3F8602683F89F26042283F89E266122324BC3F88426314BD3F888365F2B50D12E4BD3F873
:406D8000A006002828DD0130C3F8A006102820DD0026C3F8A066B04615E005EB8804274B03EB8404771CB1B2607900F07FFDB9B20236207900F07AFD013500E00025032DBA
:406DC000EBDD08F10108B8F1030FF7DDFFF7D4FE21E0FFF719FD1EE0174BD3F86C36012B0BD1154BD3F86436012B06D10120124BC3F8A006FFF708FD0DE00F4A92F89C364C
:406E0000B3FA83F35B0982F89C3613B1FFF786FD01E0FFF7B1FE6122074BC3F88826064BD3F88C365F2B03D16122034BC3F88C2606B0BDE8F08100BFF894FF1FDC80FF1F55
:406E4000F8B5074616460D1E14DD284604F03AFA4FF05E5104F08AFA03F0BAFA424904F07BF9424904F082FA04F05CFC05467F2800DD7F25002D0DDC5DE03D4A02EBC302C4
:406E8000D2F8A826914203DA3949C1F8C4361146013301E000231946032BEEDD092D05DD1D2905DD1E2D05DD002304E0012302E0002300E00123BBB134E02D4B03EBC40320
:406EC000D3F8A40600280DDB00221146F9F7E2FB274B03EBC4034FF0FF32C3F8A4260022C3F8A826013400E00024032CE5DD204C04F5D96300200021C3E9000104EBC6038F
:406F0000C3F8A476C3F8A856A319002683F8D066324629463846F9F7BDFBC4F8D46684F8E466F8BD124AD2F8E836013303F01F03C2F8E836F8BD0E4B03EBC603D3F8A40613
:406F4000002803DD00221146F9F7A4FB084A02EBC6014FF0FF33C1F8A4360023C1F8A836164486F8D036F8BD0918C43C551D0243F894FF1F00B583B01346CAB20449FCF72B
:406F80003FFA8DF807009DF8070003B05DF804FB909BFF1F10B541F6FF734FF4804201210846FCF773F9214C84F8EC06FBF7FAF984F8ED0694F8ED060223FE221021FBF7C8
:406FC000C3F994F8ED0604F5DE6292B246F25D41FBF7ACF994F8EC0694F8ED16FBF71EFA41F6FF734FF480420121084600F048FB84F80007FBF7D6F984F8010794F80107A8
:407000000223FE221021FBF79FF994F8010704F2047292B246F25B51FBF788F994F8000794F80117FBF7FAF910BD00BFF894FF1F10B54FF4804341F6FF7201210846FCF78D
:4070400007F9214C84F81407FBF7ACF984F8150794F815070123FE221021FBF775F994F8150704F5E36146F24D4289B2FBF75EF994F8140794F81517FBF7D0F94FF4804310
:4070800041F6FF720121084600F0DCFA84F82807FBF788F984F8290794F829070123FE221021FBF751F994F8290704F22C7146F24B5289B2FBF73AF994F8280794F82917B0
:4070C000FBF7ACF910BD00BFF894FF1F38B52F4CD4F83C0700F00100FCF70EF9D4F83C07C0F34000FCF7F0F80025C4F840572846FAF76CFC0420FAF7A1FDFAF75FFC2846D8
:40710000FAF744FCFAF70CFCC4F844070120C4F84007FAF75BFC0420FAF790FDFAF74EFC2846FAF733FCFAF7FBFBB0F57A7F03DDD4F84437632B11DD04F0C4F80446134BC7
:40714000D3F8440704F0BEF80146204604F0C2F90F4904F00BF904F0E5FA01E04FF6FF700A4BD3F83C2703EB8202C2F84807D3F83C27013202F00302C3F83C27D3F8402795
:40718000013202F00102C3F8402738BDF894FF1F00409C4608B5204B503A83F8582783F8590783F85A1793F85C3713F0FF0F07D0FEF76EF920B1002218490320FEF7EAF8A1
:4071C000154BB3F85E270432A3F85E27D3F860370B2B18D8591C104A92F85807134483F864074B1C92F85907114481F86407591CC2F8601792F85A17134483F86417012390
:40720000C2F8743708BD044AB2F878379BB201339BB2A2F8783708BDF894FF1F509CFF1F08B5224B203983F8581700F07F0283F85927C01183F85A0793F85C3713F0FF0F38
