:4000000000800020110000003D4200003D42000008B5044B1A6803F53F5302331A6004F0D7FF00BFFA46004008000223000008760800032300001076080004230000287615
:4000400008000523000030760500062300002070050007230000307005000823000060700500FE230000707019000A220000C8493000FE22000040518000FE2200000043FD
:4000800007000D230000005207000E230000085207000F23000010520700102300001852060011230000605208001223000060450700132300007852080014230000784515
:4000C000080015230000285B400016230000006420001723000070642000FE2300007065080019230000005180001A230000000080001B230000800080001C2300000002CB
:4001000080001D230000800280001E230000000480001F23000080048000202300000006800021230000800680002223000000088000232300008008800024230000000A73
:40014000800025230000800A800026230000000C800027230000800C800028230000000E800029230000800E80002A230000001480002B230000801480002C2300000016A7
:4001800080002D230000801680002E230000001880002F2300008018800030230000001A800031230000801A10003223000010501000332300000050800034230000004D8C
:4001C000800035230000804D800036230000004C800037230000804C8000382300000047800039230000804780003A230000004680003B230000804680003C2300000045DF
:4002000080003D230000804580003E230000004480003F2300008044800040230000001B800041230000801B8000422300000015800043230000801580004423000000195C
:400240008000452300008019800046230000001780004723000080178000482300000009800049230000800980004A230000000780004B230000800780004C230000000BB0
:4002800080004D230000800B80004E230000000580004F2300008005800050230000000D800051230000800D80005223000000038000532300008003800054230000000F5E
:4002C000800055230000800F800056230000000180005723000080018000582300000049800059230000804980005A230000004880005B230000804880005C23000080432C
:4003000080005D230000004280005E230000804280005F2300000041800060230000804180006123000000408000FE23000080400100000001000000010000000048014080
:4003400001000000004800400100000000200140010000000020004010B5054C237833B9044B13B10448AFF300800123237010BD8881FF1F00000000ECA50000084B10B5BF
:400380001BB108490848AFF300800848036803B910BD074B002BFBD0BDE81040184700BF000000008C81FF1FECA50000C080FF1F00000000018042808180C28000230381C8
:4003C000438183810122C2814FF6FF71018241828282C3828361C38308238383704700BFF8B5B34B01221A701B79002B40F05481AF4B0022C3F8042483F808245A7983F8AA
:400400000924022541E1AA4A53191C79691C11440B795B0543EA0473A91C11440C7943EA8434EB1C13441B7944EAC313291D11440C7904F07F041C43C2F80C4492F80834AF
:40044000002B66D1D2F804649EB920460AF0AEF880B2974AA2F81004731C010A164486F81414591CC2F80414C0B2134483F814040AE18F4BB3F8103401335B009E4214D284
:400480008C49204609F090FE0AF090F880B2731C874A010A164486F81414591CC2F80414C0B2134483F81404EEE09E4240F0EC807F4BC3F81448D3F814087F490AF012F8DA
:4004C000C8B17B4BD3F814087C490AF029F890B1721C774B1E44EF2186F81414501CC3F804041A4482F81414012283F808240022C3F81828C8E06E4BD3F81C280132C3F8D9
:400500001C280022C3F8202883F8242883F82528BAE0012B1BD120460AF048F880B2644BA3F82608D3F804144A1C040A194481F81444511CC3F80414C0B21A4482F81404A0
:40054000022283F808240022A3F828289CE0022B40F09A80564BB3F82868B3F826389E4264D2534BD3F8183813F003030DD1504FD7F80464731CC7F8043420460AF016F84B
:40058000C0B23E4486F8140449E0012B0DD1484FD7F80464731CC7F8043420460AF006F8C0B23E4486F8140439E0022B1DD10021204609F097FF50B13D4AD2F80434591CF9
:4005C000C2F804141344FF2283F8142427E0384FD7F80464731CC7F80434204609F0E6FFC0B23E4486F8140419E03549204609F0DBFD09F0B5FF00B22D4BD3F804144A1C17
:40060000C0F30724194481F81444511CC3F80414C0B21A4482F814040136A3F82868244AD2F818380133C2F818382DE02349204609F058FFD8B12349204609F071FFB0B190
:400640001B4BD3F804144A1C1944FE2081F81404511CC3F804141A4482F81404032283F80824012283F82428A3F82A180CE0104BD3F81C280132C3F81C280022C3F820284F
:4006800083F8242883F825280535094BD3F820389D42FFF4B8AE70E0012B6ED1044B0022C3F804245A7983F8092402253CE000BFA881FF1F00FF7F470000C0BF000020C0CB
:4006C00000FEFF46000060C0304C631918796A1C224413795B0543EA0073AA1C2244107943EA8033EA1C2244107943EAC0132A1D2244107900F07F001843C4F80C044FF001
:40070000884109F051FD09F051FF80B2D4F80424531C2244010A82F82C185A1CC4F804241C4484F82C080535184BD3F820389D42CAD3164AD2F80434591C1344EF2083F83E
:400740002C084B1CC2F80434114481F82C089BB2A2F82A38B3F5817F0BD01346D2F81C280132C3F81C28002283F8242883F8252803E00222054B83F82428044B00221A70BB
:40078000C3F8202883F82528F8BD00BFA881FF1F2DE9F04107460D4690461C461946069809F0F8FB06462946384609F0F3FB07462946404609F0EEFB0146384609F0A8FD04
:4007C0000146304609F0F0FC0146204609F0E4FBBDE8F08100B583B0002101912023009380230A46024804F0C9FB03B05DF804FBD88AFF1FF8B50E1E75DB054614461F469C
:4008000083889E426FDA002A6DDBC3889A426ADA04F03CFB02280AD0032813D0012817D1B5F900301C1B631E34461EB210E0B5F900309E1B013E36B2B5F902301C1B013C77
:4008400024B205E0B5F902309E1B731E26461CB2012F03D0CFB1022F2FD0F8BDB5F900202346002C00DAE31D43F3CF0302FB036604F00704012303FA04F41B4B1E4496F8D8
:400880005439234386F85439F8BDB5F900202346002C00DAE31D43F3CF0302FB036604F00704012303FA04F40F4B1E4496F8543923EA040386F85439F8BDB5F900202346E0
:4008C000002C00DAE31D43F3CF0302FB036604F00704012303FA04F4034B1E4496F854395C4086F85449F8BDA881FF1F2DE9F04383B006460D461F4603F003031B010FFA50
:4009000082F9DFF8408003F10C024946404604F0C9FA7A1C05EB45018B0000240194120100921BB23A014946404604F027FB04E0315D044804F0BAFA0134AC42F8DB03B0E0
:40094000BDE8F083D88AFF1F10B586B0FFF742FF684607F021FA0B4B1B882DF80030684607F01AFA0446012300220C210648FFF7BDFF00231A4621466846FFF7B7FF06B02F
:4009800010BD00BF68BC00006CBC000070B582B004460D46164605F06BFF8DF807009DF8073013F0800F29D13346EAB21549204605F088FF8DF807009DF8073013F0FF0F0E
:4009C00019D14CF2503405F065FF8DF807009DF80730013C02D180238DF807309DF8073013F0820F0AD19DF8073013F0FF0F05D0002CE8D102E080238DF807309DF807007C
:400A000002B070BDFC8EFF1F08B5054B002283F8542D83F8550D02213C20FFF7B7FF08BDA881FF1F38B504460D4611F0800F00D07F25072C00D907242120FFF7E5FF2846A2
:400A4000FFF7E2FF7F20FFF7DFFF2220FFF7DCFF2046FFF7D9FF0320FFF7D6FF38BD00BF08B500210846FFF7DDFF08BD70B5FFF7F7FF0020FFF7C8FF1020FFF7C5FF402048
:400A8000FFF7C2FF002426462CE0A6F15000C0B2FFF7BAFF0220FFF7B7FF1020FFF7B4FF4022124B83F8542D002517E0591C03EB04130E4A134493F854390A4482F8543DC3
:400AC0000B4600E000230F2BF0DD0134E4B2002211213C20FFF75AFF0135EDB2072DF1D90136F6B2032ED0D970BD00BFA881FF1F08B5FFF7BBFF08BD10B50446AE20FFF70D
:400B000083FFD520FFF780FF8020FFF77DFFA820FFF77AFF1F20FFF777FFD320FFF774FF0020FFF771FF4020FFF76EFF8D20FFF76BFF012C03D11020FFF766FF02E0142081
:400B4000FFF762FF2020FFF75FFF0020FFF75CFFA120FFF759FFC820FFF756FFDA20FFF753FF0220FFF750FF8120FFF74DFF8F20FFF74AFFD920FFF747FF012C03D12220E5
:400B8000FFF742FF02E0F120FFF73EFFDB20FFF73BFF4020FFF738FFA420FFF735FFA620FFF732FF2E20FFF72FFFAF20FFF72CFF10BD00BF38B50220FFF79EFF002305E0AD
:400BC000134A1A44002182F854190133B3F5806FF6DB104C202280212046FFF7EBFB0E4D2946204604F022F905F10C01204604F01DF900220121204604F04AF901212046FA
:400C000004F04AF9FFF7A0FEFFF772FF38BD00BFA881FF1FD88AFF1F00A6000010B541F6FF734FF480420121084605F0ADFD214C84F8540E02F0A0F884F8550E94F8550E3C
:400C40000223FE22102102F069F894F8550E04F6586292B246F25A5102F052F894F8540E94F8551E02F0C4F841F6FF734FF480420121084606F054FA84F8680E02F07CF850
:400C800084F8690E94F8690E0223FE22102102F045F894F8690E04F66C6292B246F2534102F02EF894F8680E94F8691E02F0A0F810BD00BFA881FF1F10B54FF4804341F632
:400CC000FF720121084605F041FD214C84F87C0E02F052F884F87D0E94F87D0E0123FE22102102F01BF894F87D0E04F5686146F24A5289B202F004F894F87C0E94F87D1E86
:400D000002F076F84FF4804341F6FF720121084606F0E8F984F8900E02F02EF884F8910E94F8910E0123FE22102101F0F7FF94F8910E04F6946146F2434289B201F0E0FFA8
:400D400094F8900E94F8911E02F052F810BD00BFA881FF1F38B5304CD4F8A40E00F0010005F048FDD4F8A40EC0F3400005F02AFD0025C4F8A85E284601F004FC042001F005
:400D800083FC01F0F7FB284601F0DCFB01F0A4FBC4F8AC0E0120C4F8A80E01F0F3FB042001F072FC01F0E6FB284601F0CBFB01F093FBB0F57A7F04DDD4F8AC3EB3F57A7F54
:400DC00011DB09F09DF90446134BD3F8AC0E09F097F90146204609F09BFA104909F0E4F909F0BEFB01E04FF6FF700B4BD3F8A42E03EB8202C2F8B00ED3F8A42E013202F072
:400E00000302C3F8A42ED3F8A82E013202F00102C3F8A82E38BD00BFA881FF1F0060EA4608B5204B503A83F8C02E83F8C10E83F8C21E93F8C43E13F0FF0F07D002F0EAFF2B
:400E400020B100221849032006F070FA154BB3F8C62E0432A3F8C62ED3F8C83E0B2B18D8591C104A92F8C00E134483F8CC0E4B1C92F8C10E114481F8CC0E591CC2F8C81E90
:400E800092F8C21E134483F8CC1E0123C2F8DC3E08BD044AB2F8E03E9BB201339BB2A2F8E03E08BDA881FF1F6890FF1F08B5224B203983F8C01E00F07F0283F8C12EC01109
:400EC00083F8C20E93F8C43E13F0FF0F07D002F0A1FF20B100221949032006F027FA164BB3F8C62E0432A3F8C62ED3F8C83E0B2B18D8591C104A92F8C00E134483F8CC0E82
:400F00004B1C92F8C10E114481F8CC0E591CC2F8C81E92F8C21E134483F8CC1E0123C2F8DC3E08BD044AB2F8E03E9BB201339BB2A2F8E03E08BD00BFA881FF1F6890FF1FD4
:400F400010B50C46244B703A83F8C02E83F8C10E83F8C21E93F8C43E13F0FF0F07D002F059FF20B100221D49032006F0DFF91A4BB3F8C62E0432A3F8C62ED3F8C82E0B2A6B
:400F800017D8511C93F8C00E1A4482F8CC0E4A1C93F8C10E194481F8CC0E511CC3F8C81E93F8C21E1A4482F8CC1E0122C3F8DC2E07E0094AB2F8E03E9BB201339BB2A2F8CD
:400FC000E03E002C03DD012006F0D0F810BD002006F0CCF810BD00BFA881FF1F6890FF1FF8B5074616460D1E14DD284609F088F84FF05E5109F0D8F808F08CFD3E4908F048
:40100000C9FF3E4909F0D0F809F0AAFA05467F2800DD7F25002D0DDC55E0394A02EBC302D2F8E82E914203DA3549C1F8043F1146013301E000231946032BEEDD182D01DDFC
:40104000002300E00123BBB134E02D4B03EBC403D3F8E40E00280DDB00221146FFF770FF274B03EBC4034FF0FF32C3F8E42E0022C3F8E82E013400E00024032CE5DD204C04
:4010800004F6087300200021C3E9000104EBC603C3F8E47EC3F8E85EA319002683F8106F324629463846FFF74BFFC4F8146F84F8246FF8BD124AD2F8283F013303F01F039D
:4010C000C2F8283FF8BD0E4B03EBC603D3F8E40E002803DD00221146FFF732FF084A02EBC6014FF0FF33C1F8E43E0023C1F8E83E164486F8103FF8BD0918C43C551D02439D
:40110000A881FF1F10B503F003F868B103F012F850B11C4B93F8C43E13F0FF0F04D002F079FE08B106F0AAF903F004F840B302F0EFFF78B1144B1878144B1A78144902F0F0
:40114000D9FE144C20784022134902F095FE207802F07CFE0B4B93F8C43E13F0FF0F04D002F058FE08B106F057F9064B93F8C43E13F0FF0F04D002F04DFE08B106F050F952
:4011800010BD00BFA881FF1F4896FF1F0496FF1F0896FF1FDC96FF1FE096FF1F08B502F039FE30B905F03AFA00220E4B83F8C42E13E00C4B93F8C43E13F0FF0F0DD1012100
:4011C000002005F0AFFA02F0B5FF0028FBD006F055F90122034B83F8C42E0022014B83F82C2F08BDA881FF1F10B5184B02221849002004F05DFA02F00DFE012824D1154B93
:4012000093F8303FDBB2012B0DD1124C002084F8340F0E4B022204F6347104F093F9012384F82C3F10BD0B49012381F8343F074B022201F63471002004F084F905F0EEF989
:4012400005F094FB01F0BCFB10BD00BFC096FF1FD890FF1FA881FF1F08B506F04BF806F05FF8FFF7C1FF08BD10B50446002109F057F948B10549204608F096FF08F0D6FB3B
:40128000034908F091FF10BD024810BDD27EFA3DAC7F8A410080BBC410B582B0BDF814400194BDF91040009403F068FE02B010BD10B582B0BDF81040009403F07BFE02B045
:4012C00010BD00BF08B5FFF795FA08BD2DE9F04F85B002900D4616461F46BDF938B0BDF83C300393584608F00BFF0446304608F007FF0146204608F04DFE20F000483846B2
:4013000008F0FEFE0446284608F0FAFE0146204608F040FE20F0004319460193404609F0FFF828B13B465F469B462B4635461E46BD4205DD33465E469B462B463D461F460A
:40134000C5EB070A1FFA8AFA0FFA8AF4584608F0D7FE8146304608F0D3FE0146484608F019FE20F0004009F0FBF80FFA80F904EBD47464105E4502DA4FF0010B21E04FF0C0
:40138000FF3B1EE00199404609F0CAF830B1039B2A4631460298FFF795FF05E0039B324629460298FFF78EFFC9EB0404A3B21CB2002C04DA5E4436B20AEB030424B201358E
:4013C0002DB2BD42DEDD05B0BDE8F08F10B4254B93F8363FCBB91CE0CA5C12F0800F0BD12048D0F82028541CC0F82048C2F30902CC5C0244147106E0F72A04D10022194B17
:4014000083F8362F2BE0013300E00023022BE3DD25E00B78F02B22D1124B1B78FBB94B787E2B04D101220F4B83F8252817E0012B15D80C4B012283F8362FD3F8203873B924
:401440009A180848C3F3090303444C781C71531CC0F82038C2F3090283188A781A7110BC704700BFA881FF1F80B582B062B605F0BFFD0028FBD0CD4805F026FF012002F0BB
:40148000D1FCCB4805F03EFF02F0C4FC08B9FFF7ABFE05F0FDFE01F00BFC01F087F8FFF70BFCFFF7BBFB05F0CFF905F0C9F905F04DFB05F003FB05F0B3FA642001F06AFAE8
:4014C000FFF778FB03F002FC0A2001F063FA04F003FC0A2001F05EFA002005F07FF9FFF739FC012005F07AF9052001F0CDF804F0CBFB04F0EDFA04F0FBFBAE4B0122C3F842
:40150000C82E93F8253813F0FF0F01D0FEF768FFA84BD3F8A83E002B40F0D082A54BD3F8A42E03EB8203D3F8B02E4FF6FF739A4240F095819F4BD3F8A42ED3F8A40E9E49D1
:4015400001EB8001D1F8001503EB8202C2F8381FD3F8A42E134493F8103F002B00F03881944AD2F8A45ED2F8A41E114491F8481FD2F8A44ED2F8A40E02EB4000B0F84C3FE8
:40158000013303F01F0303EB441302EB8303D3F8544F8A4801EB450300EB8303DC65D2F8A43E00EB83000023C36710E08148D0F8A41E824A03EB410102EB8101C96DD0F8F1
:4015C000A40E02EB8002D06F0144D1670133012BECDD784CD4F8A42ED4F8A43E234493F8483F2244013303F0010382F8483FD4F8A43ED4F8A42E714D05EB8202D26F5208B1
:4016000005EB8303DA67D4F8A47ED4F8A43E05EB8303D86F08F070FD8046D4F8A43E664E06EBC303D3F81095D4F8A43E06EBC303D3F8140508F060FD8246484608F05CFDA1
:401640005F4B00935F4B524601464046FFF7A0F801464FF07E5008F05BFE05EB8707C7F88C00D4F8A47ED4F8A43E05EB8303D4F8A42E06EB8206D6F83015D3F88C0008F097
:4016800093FDFFF7F1FD04EB8707C7F8380FD4F8A43E05EB8305EA6F4FF6FF739A420CD1D4F8A41ED4F8A40E434A02EB8002D2F8002504EB8103C3F8382F3E4BD3F8A42E92
:4016C00003EB8202D2F8384FD3F8A42E3B4B03EB82033D49D3F89C0008F05EFC0146204608F01EFFA8B9334BD3F8A42E03EB8202D2F8384FD3F8A42E304B03EB820332494B
:40170000D3F89C0008F046FC0146204608F0EAFEE0B1284CD4F8A45ED4F8A43E04EB8303D3F8380F08F05EF904EB8505C5F8380FD4F8A41ED4F8A43E04EB8304D4F8382FC2
:401740001E4B03EB8103C3F89C200DE0194BD3F8A41ED3F8A40E194A02EB8002D2F89C2003EB8103C3F8382F124CD4F8A43E04EB8303D4F8A41E104A02EB8102D2F8001518
:40178000D3F8380F08F006FC104908F00DFD4FF08C4108F001FCD4F8A43ED4F8A42E074B03EB8203C3F8AC0088E100BF00A7000059120000A881FF1F00A60000A092FF1FD2
:4017C000C1A1F13EC1A1713F9A99193F0080AA43DD4BD3F8A42ED3F8A41EDC4A02EB81024FF08C41C2F8AC10D3F8A42E03EBC203D3F8E43E002B40F36181D34BD3F8A40ECC
:40180000D3F8A41E03EB8101D1F8381FCF4A02EB8002C2F89C10D3F8A40ED3F8A41E03EB4101B1F84C2FD3F8A41E03EB8101D1F8B01E02EB401203EB8202C2F8541FD3F802
:40184000A41ED3F8A42E03EB4202B2F84C2F03EB4103013202F01F02A3F84C2F2EE1BA4AD2F8A45ED2F8A41E114491F8481FD2F8A44ED2F8A40E02EB4000B0F84C3F143395
:4018800003F01F0303EB441302EB8303D3F8544FAE4801EB450300EB8303DC65D2F8A43E00EB83000023C36710E0A748D0F8A41EA64A03EB410102EB8101C96DD0F8A40E02
:4018C00002EB8002D06F0144D1670133012BECDD9D4CD4F8A42ED4F8A43E234493F8483F2244013303F0010382F8483FD4F8A43ED4F8A42E954D05EB8202D26F520805EB27
:401900008303DA67D4F8A47ED4F8A43E05EB8303D86F08F0F1FB8046D4F8A43E8C4E06EBC303D3F81095D4F8A43E06EBC303D3F8140508F0E1FB8246484608F0DDFB854B1B
:401940000093854B524601464046FEF721FF01464FF07E5008F0DCFC05EB8707C7F88C00D4F8A47ED4F8A43E05EB8303D4F8A42E06EB8206D6F83015D3F88C0008F014FC02
:40198000FFF772FC04EB8707C7F8380FD4F8A41ED4F8A42E04EB4202B2F84C3FD4F8A42E04EB8202D2F8B02E03EB411304EB8303C3F8542FD4F8A42ED4F8A43E04EB43037D
:4019C000B3F84C3F04EB4202013303F01F03A2F84C3FD4F8A43E04EB8303D3F8386FD4F8A43E05EB83055D49D5F89C0008F0D4FA0146304608F094FDA8B92346D4F8A42ED2
:401A000004EB8202D2F8384FD3F8A42E4F4B03EB82035249D3F89C0008F0BCFA0146204608F060FDE0B1484CD4F8A45ED4F8A43E04EB8303D3F8380F07F0D4FF04EB85051B
:401A4000C5F8380FD4F8A41ED4F8A43E04EB8304D4F8382F3D4B03EB8103C3F89C200DE0394BD3F8A41ED3F8A40E384A02EB8002D2F89C2003EB8103C3F8382F324CD4F83C
:401A8000A43E04EB8303D4F8A41E314A02EB8102D2F80015D3F8380F08F07CFA304908F083FB4FF08C4108F077FAD4F8A43ED4F8A42E264B03EB8203C3F8AC00224BD3F8C4
:401AC000A42E03EBC203D3F8E43E002B23DB1E4BD3F8A43E1D4C04EB8303D3F8AC0008F03FFDD4F8BC30984215D0174DD5F8A43E04EB8303D3F8AC0008F058FD0021FFF7D2
:401B0000D5F9D5F8A43E04EB8303D3F8AC0008F027FDC4F8BC00012004F086FE002879D183E00A4DD5F8C060A0B204F06FFE06EBC40605EB8606C6F8C40005EB84050022EF
:401B4000C5F864211DE000BFA881FF1FA092FF1F00A60000C1A1F13EC1A1713F9A99193F0080AA43C14B02EBC40103EB8101D1F8C41003EB8403D3F864010144C3F86411AA
:401B80000132072AEEDDB94A02EB8401D1F86431DB08C1F8643102EB4402B2F8782102F119018B4202D8193A934204D25B09AF4A224482F88431AD4B1A1992F884118AB252
:401BC00003EB4403B3F88C319A4216D0032C06DC0022C1F17F0104F11100FFF721F9042C0BD105F0BBFA40B1A04B2344002293F8841104F11100FFF713F99C4B1A1992F824
:401C0000842103EB4403A3F88C215201A3F87821013400E00024042C83DD944AD2F8C030013303F00703C2F8C03004F089FF10F0010F06D104F084FF10F0100F03D10023CF
:401C400002E0012300E00123002BEED00024ADE0874B1B78221D134113F0010F21D0854B03EB8403D3F8B02E4FF6FF739A4218D1804B1A19012182F8241F03EB8403D3F83D
:401C8000143F7E2B16D87B4A02EBC402D2F8E42E002A0FDB774A02EB84020B44C2F8143F08E0744B1919002281F8242F03EB8403C3F8142F6F4B234493F8243F63B16D4B2D
:401CC00003EBC403D3F8E43E002B05DB694B2344012283F8102F04E0664B2344002283F8102F644B03EB8403D3F8143F7D2B0FD9604B03EBC403D3F8E43E002B08DB5B4B94
:401D000003EB840322460021D3F89801FFF768F96300584AD11891F8585E0133134493F8583E03EB0525514B03EB8403C3F8A851002D1DDD4D4B03EB8403D3F8B831BBB9D8
:401D40001346A60091190022C1F8142F234483F8102F494B3344D3F8000508F001FC434B1E44C6F8980122462946FFF739F915E0A5B93E4B03EB8403D3F8B831002B0DDD4B
:401D8000A5003A4B2B4422460021D3F89801FFF727F9384B1D440023C5F8143F334B03EB8403D3F8A821C3F8B8210134032C7FF74FAF04F067FE10F0010F06D104F062FEE9
:401DC00010F0100F03D1002302E0012300E00123002BEED0274B93F8243813F0FF0F0CD020E0244B134493F8CC1EC9B283F8941E002183F8CC1E013200E000220F2AF0D9F4
:401E00001C4BD3F8DC3E23B101221A4B83F8942E03E00022174B83F8942E0022154BC3F8DC2E92E0134B93F82438DBB2012B47D10E4B93F8C83183B10E4BFD2283F8942E84
:401E400093F8092483F8952E0849002281F8C82183F82428A1F8CA2177E0064A022382F8943E92F8091482F8951E26E0A092FF1F6495FF1FA881FF1F00A600007C4AB2F896
:401E8000CA217C49B1F82A188A420CD2501C7849A1F8CA0177490A4492F81424D2B2194481F8942E08E0734A1A44EE2182F8941E01216F4A82F8C81101330F2BDED944E0AB
:401EC0006C4B93F82438DBB2022B3ED1684B93F8C83183B1674BFD2283F8942E93F8092483F8952E6249002281F8C82183F82428A1F8CA2129E05F4B032283F8942E93F8F2
:401F0000092483F8952E02231DE0594AB2F8CA215849B1F82A188A420BD2501C5449A1F8CA0154490A4492F82C28194481F8942E08E0504A1A44EE2182F8941E01214C4A06
:401F400082F8C81101330F2BDFD94A4BD3F8C83E102B02D9012005F009F9464B0122C3F8C82E93F8943E13F0FF0F0CD004F07CFD404C94F8680E012100F098FF94F8900ED7
:401F8000012100F093FF3B4B93F82C3F13F0FF0F01D0FFF703F9374B93F8C43E13F0FF0F13D001F037FF80B1324BB3F8C63E402B05D92F4AB2F8CC310133A2F8CC31002250
:401FC0002C4BA3F8C62EFFF79DF803F069FE0028FBD103F06DFD284B1A78264B83F8882ED3F8A42ED3F8A41E03EB810191F8B11E03EB420282F8801ED3F8A42E52000132A0
:40200000D3F8A41E03EB810191F8B01E1A4482F8801E174991F8CE2102F00F0083F88F0E013281F8CE2193F8883E13F0010F03D0012005F0A7F802E0002005F0A3F804F0D8
:402040006BFD0C4C94F8540E012100F02FFF94F87C0E012100F02AFF04F60874D4E90023013243F10003C4E90023FFF735BA00BFA092FF1FA881FF1F6495FF1F024B187862
:4020800000F00700704700BF02410040034B1A7800F0F80010431870704700BF02410040014B188880B270470041004070B505460E46FFF7E3FF0446FFF7F2FFA84256D061
:4020C0002B4B1B7803F0010294B900B185B938B9284B1D80284A137803F0BF03137070BD254A137843F040031370224B1D8070BD22B3002321490B70012413310C70043919
:402100000B7008390B7803F07F030B701A4B1B7813F0080F00D08DB9194B18800721013B1970164B1B7813F0010FFAD110490B7803F0FE030B700021104B19700C4B1B7853
:4021400013F0010F0DD00E4B1D800EB1032200E001220A4B1A70094B1B7813F0010FFAD170BD044B1D8002490B7813430B7070BDA143004000410040024100400140004060
:4021800002400040024B187800F00700704700BF82400040034B1A7800F0F80010431870704700BF82400040014B188880B270478040004070B505460E46FFF7E3FF04467B
:4021C000FFF7F2FFA84256D02B4B1B7803F0010294B900B185B938B9284B1D80284A137803F0BF03137070BD254A137843F040031370224B1D8070BD22B3002321490B7043
:4022000001240F310C7004310B700C390B7803F07F030B701A4B1B7813F0080F00D08DB9194B18800721013B1970164B1B7813F0010FFAD110490B7803F0FE030B70002106
:40224000104B19700C4B1B7813F0010F0DD00E4B1D800EB1032200E001220A4B1A70094B1B7813F0010FFAD170BD044B1D8002490B7813430B7070BDA24300408040004015
:40228000824000400140004002400040704700BF074B1B7813F0020F08D0064BB6221A70E0221A700D221A70072070470420704722470040204700400C4B1B7813F0020FD3
:4022C0000FD00B4BB6221A70E1221A700E221A7002331B7813F0020F05D1054B187007207047042070470920704700BF224700402047004030B4104C247814F0020F15D0F8
:402300000E4CB6252570D8252570052525700234247814F0020F0BD1084C2070080A2070C9B2217022702370072002E0042000E0092030BC704700BF224700402047004020
:4023400070B41D4C247814F0020F2CD01B4CB6252570D5252570022525700234247814F0020F22D1154C2070002404E0165D134D2E700134A4B29C42F8D3B3F5807F16D1FB
:402380003F2816D800F5103001EB00214801002305E01A5CD2B209490A7001339BB21F2BF7D9072006E0042004E0092002E0072000E0072070BC7047224700402047004053
:4023C00008B505F061F90A4B00221A705B68012B0AD1084A136843F00103136000BF00BF00BF0022024B5A6005F052F908BD00BF8C94FF1F0400084010B505F045F90F4B89
:402400001B78A3B901220D4B1A700D4B1B6813F0010F0ED00A4A136823F00103136000BF00BF00BF0122054B5A60002402E0042400E0002405F02CF9204610BD8C94FF1F5C
:402440000400084008B505F01FF9064A137843F0080313701032137843F00803137005F017F908BDA043004010B5044602F07EFC204602F039FC10BD08B505F005F90A4A56
:40248000137843F020031370013A137843F010031370A2F58072137843F01003137005F0F7F804F0D3FA08BD9A65004008B50F22074B1A7004F012FB04F042FB04F03AFB7E
:4024C0000222044B1A702022A3F580731A7008BD8A65004089650040154B1B7803F00303012B07D8134B1888023B1B889BB243EA004013E0022B0AD10E4B1888023B1B7813
:4025000043EA00430C4A107843EA002006E00B4B188883B2074A108843EA0040084B1B7A13F0FF0F02D00022054B5A72704700BF144E0040124E0040114E0040104E00409B
:402540008C94FF1F094B1B7A13F0FF0F03D0074B5B7ADBB203E0064B1B7803F00103012B01D00028EED01846704700BF8C94FF1F014E0040024A137843F001031370704712
:40258000004E004010B50446074B1878FF2801D0FFF76AFF204602F019FC204602F0C6FB014B1C7010BD00BFC480FF1F10B5002407E0204602F0DAFB204602F095FB0134DF
:4025C000E4B2012CF5D9FF22014B1A7010BD00BFC480FF1F134B1B78DBB20360124A127843EA02230360114A127843EA024303600F4A127843EA026303600E4B1B78DBB2DE
:4026000043600D4A127843EA022343600B4A127843EA024343600A4A127843EA02634360704700BF0301004904010049EC4600400201004901010049000100490501004967
:402640000601004908B505F01FF800BF00BF00BF00BF00BF00BF00BF00BF00BF00BF00BF00BF00BF00BF00BF00BF064A13889BB243F0040313801388BFF36F8F05F008F80C
:4026800008BD00BF0048004008B500EB8003C0EB031004F0F1FF08BDF8B5074604F0F4FF06460D4D2B7843F003032B700B4C237843F0030323700A4B1F700320FFF7E4FFE0
:4026C0002B7803F0FC032B70237803F0FC032370304604F0DDFFF8BDF8460040F94600409258004070B504F0CFFF06462A4B5B782A4B1A7842F001021A701A7842F0100251
:402700001A7010331A7842F001021A701A7842F010021A70224D2B7843F002032B70214C237843F0020323701F4A137843F0030313700320FFF7A8FF2B7803F0FD032B70C2
:40274000237803F0FD032370184A137843F0060313707A22164B1A70164A137843F0010313701032137843F0010313700F3A137843F0010313701032137843F001031370C4
:402780004FF000530C4A1360A2F5C0721360304604F07EFF70BD00BFC480FF1FAA430040F8460040F9460040915800407758004082580040A143004080E200E070B50646FA
:4027C0000D4600240CE00120FFF75EFF064B1B7813F0010FF7D0054B1B7833550134E4B2AC42F3D3204670BD22470040204700402DE9F041441FE4B23A2C01D9002500E0F2
:40280000012510F0800F00D00125412800D901253F2803D8B1F5807F06D808E0802900D90125102B02D102E0012500E0012502B90125002D50D1984616460F460446FFF716
:40284000DBFD002847D14346324639462046FFF777FD064607283AD102E00120FFF714FF1F4B1B7813F0020FF7D01D4B1B7813F0020F06D01A4B1B789B0805D04FF0FF36BD
:4028800003E04FF0FF3600E02E4606BB154A537B127B39462046FFF72DFD072804D0064615E00120FFF7F0FE0D4B1B7813F0020FF7D00B4B1B7813F0020F06D0084B1B7825
:4028C0009B0804D04FF0FF3601E04FF0FF36FFF777FD354600E004252846BDE8F08100BF224700408C94FF1F10B5FFF7ABFDFFF783FDD0B9FFF7CCFC0446072812D102E022
:402900000120FFF7C1FE0A4B1B7813F0020FF7D0074B1B7813F0020F04D0054B1B789B0800D10024FFF74CFD00E00424204610BD2247004010B5FFF785FDFFF75DFD10BB3B
:402940000120FFF7B9FC072818D102210F48FFF735FF02280AD102E00120FFF795FE0C4B1B7813F0020FF7D0002409E0084B1B7813F0020FE9D04FF0FF3401E04FF0FF34F4
:40298000FFF71EFD00E00424204610BD9894FF1F2247004010B5044604E0074804F06CFEA4F50044B4F5004FF7D8044800FB04F004F062FE10BD00BF0000059A0A3401009B
:4029C000024A137843F0010313707047F646004001BE704710B59DF80840012C52D1013809282ED8DFE800F0052D2D052D2D0F192D230F2B03D92548007840B222E02448F3
:402A0000007840B21EE00F2B03D92248007840B218E02148007840B214E00F2B03D91F48007840B20EE01E48007840B20AE00F2B03D91C48007840B204E01B48007840B261
:402A400000E0002001EB401101FB02F1C90B8AB20D2B0BD8C3F10E0289B211418AB2611E124800EB810101338B7405E0631E0F4901EB83030F219974013C0C4B03EB840482
:402A8000228210BD0020FFF7A3FF10BD180100491C010049190100491D0100491A0100491E0100491B0100491F0100498C94FF1F38B504460D46072902D90020FFF788FF84
:402AC0001F2C02D90020FFF783FF04F01F0000F1604000F564406D01EDB2057038BD00BF70B504460E46074B1D681F2802D90020FFF76EFF04F01F04103455F8240045F85D
:402B0000246070BD08ED00E00022314B1A7201285DD170B530222F4B1A70052202331A70082201331A70002401331C7001331C702D2201331A7002331C7001331C700133DF
:402B40001C7001250A331D70142203F527631A70102601331E70092201331A7001331C7022231D4A1370242101321170042101321170022102321170013213702822174BBB
:402B80001A70EB2201331A704420FFF785FDC022134B1A70032201331A7005331D7001331D7001331C700A2201331A704FF47A52074B5A6129460620FFF7FCFA2946304685
:402BC000FFF774FA07491D20FFF78AFF70BD70478C94FF1F004E00408A58004090580040945800408D220000F0B583B0294E01277770294D00246C721020FFF7CBFA10209F
:402C0000FFF744FA06211D20FFF752FF0422234B1A7001331C7007331C70214A137843F0180313701F4B1C7003F2F5231C7001331C700A22A3F209331A7001331C7002337F
:402C40001C70122205331A70132201331A7004331C701422A3F68C231A7000970E2347F2E97248F65C710720FFF7B4FE7378013B05EB83039A7C0C4B1A707378013B05EB33
:402C800083052A8A094B1A807078FFF73DFF03B0F0BD00BFC480FF1F8C94FF1F96580040075B0040935800400E4E00400C4E004008B5084B1B7E4BB9064B5B7E13F0FF0FF8
:402CC00001D1FFF791FF0122024B1A76FFF70AFD08BD00BF8C94FF1F08B53F2801D9102301E04FF48073FFF783FD08BD08B5FFF7FBFD034610B9FFF71DFE0346184608BD00
:402D000010F0800F08D1C00000F1804000F5F0408180C280002070470120704710F0800F0CD111F4704F0BD1C00000F1804000F5F04001808270C3700020704701207047AC
:402D40000120704710F0800F12D110B5044604F09BFCE30003F1804303F5F043054A917819709470D3780133D37004F091FC10BD704700BFC480FF1F10B504F085FC0A4B4E
:402D8000DB78182B0BD9084A9478013BD370E30003F1804303F5F0431B78937000E0FF2404F076FC204610BDC480FF1F17281BD810B4C00000F1804404F5EC44D201D2B278
:402DC00001F07F01114321709DF804201201D2B203F00F03134363709DF8083003F00F03A3700020E07001E00120704710BC7047172805D8034B03EB00104172002070477C
:402E0000012070471070004041F6FF73994201D14FF4005141F6FF739A4201D14FF40052172808D8C00000F1804000F5EC408180C280002070470120704700BF17280BD8A0
:402E40000001064A835C03F0F103490001F00E011943815400207047012070471070004017280CD80001074BC1180A7942F004020A71C25C42F00102C2540020704701206C
:402E8000704700BF1070004017280BD80001064BC25C02F0FE02C254C25C02F0DF02C254002070470120704710700040172815D831B103010A495A5C42F020025A5405E0CA
:402EC000030107495A5C02F0DF025A540001044A835C43F0010383540020704701207047107000400B4A7F2393708021D17007E0DA0002F1804202F5F042013BDBB21370D5
:402F0000002BF5D1DB0003F1804303F5F04300221A707047C480FF1FF0B5C3B00446836800931D680127002623E0009F4FF48072394601A805F068FD01350195802121A8DC
:402F400002F078FA2090224601A9384602F05CFAA069009B1B1A2068224601A9184402F053FA0746234641AA6946284602F0BCFA01366268236903FB02F39E42D5D338466B
:402F800043B0F0BDF0B5059C069F00251560DD01A54206D85E1CF601013EB44203D9002602E0002600E00126D6B104F07F02803202603C44A54206D80133DB01013B9C4213
:402FC00003D9002302E0002300E001231BB117440F600020F0BD4FF480730B600020F0BD04EB070E754505D80133DB01013B9E4500D8012666B180230360FB1864F07F0428
:403000001C440C6003681C1B274417600020F0BD0120F0BD70B4002401232EE026491A018D180C268E541D226A7003EB43018A0022490A44527912F0FF0F17D003EB430166
:403040008A001E490A44127912F0800F03D018011B4A16540FE01801194A082111545A1E0121914041EA0402D4B204E01901154A0A44802191700133DBB2082BCED95522C0
:40308000114B1A70202230331A70002201331A7003222F3B1A7001331C700D331A7842F080021A701A7802F07F021A70FF22923B1A7070BC704700BF706000404C96FF1F79
:4030C000FE5F0040FC5F00408C600040704700BF054B00221A80DB682BB1034AD16800230B70D26853807047A894FF1F054BDB683BB1044BDA681070DA6819885180002223
:40310000DA607047A894FF1F10B50B4B1B7C13F0FF0F07D0084A137C43F0800307490B7000231374044C002363740120FFF7DEFF0323A37410BD00BFA894FF1F0860004095
:4031400010B5044C002363740120FFF7CFFF0323A37410BDA894FF1F10B4184B197801F00F010239C9B2164A13889BB20B449BB21380002011E0124A9468124B1B5CDBB247
:4031800023709368013393600130C0B20139C9B293889BB2013B9BB29380094B9B889BB20BB10029E7D1064BD9741A7D82F080021A750B229A7410BC704700BF296000409F
:4031C000A894FF1F0060004010B5074C627D23889BB213449BB22380002363740120FFF785FF0323A37410BDA894FF1F054B02225A7480221A750F229A7400225A75DA74B5
:4032000001207047A894FF1F1B4A517D13889BB20B449BB2138000220FE017498B681B78DBB2164883548B6801338B600132D2B28B889BB2013B9BB28B800F4B9B889BB2D2
:403240000BB1072AE9D90C4B5B7DDBB2082B00D04AB1094B197D81F0800119750F2199740221597403E0044B022199745974024BDA745A75704700BFA894FF1F0060004045
:4032800008B5FFF7C1FF08BD10B50E4B9B889BB213B9FFF7ABFF12E00A4C0223637400232375FFF715FF084AD179937943EA0123A28892B2934200D2A380FFF7A5FF0120E7
:4032C00010BD00BFA894FF1F0060004008B50B4B5B7CDBB2042B06D0062B07D0022B0BD1FFF772FF08BDFFF737FF08BD0320FFF7FDFE0322014B9A7408BD00BFA894FF1F2D
:4033000008B5094B5B7CDBB2042B06D0062B07D0022B07D1FFF7B4FF08BDFFF711FF08BDFFF7F2FE08BD00BFA894FF1F10B4F1B91F4C21180B7EDB0003F1804303F5F043B1
:4033400004EB4002928C92B2203A92B21A800B7EDB0003F1804303F5F04304EB8004A26B203292B29A80012381F85C3015E0104A11180B7EDB0003F1804303F5F0430224FF
:403380001C800B7EDB0003F1804303F5F04302EB8002926B1E3292B29A80054B184490F86820044B03EB0213027E5A7210BC7047A894FF1F10700040F8B5264B1F78FFB2B4
:4033C000012444E017F0010F3ED026462201224B13449A785D78154015F0010F31D004EB440293001D4A13441B7913F0800F28D0194922018B5C03F0FE038B54184B03EB86
:4034000044039B8C9BB2202B04D900212046FFF78DFF04E0124B2344012283F85C2006EB460293000D4A13445A79D2B231010D4B5A540D4B1B78DBB29C4202D100220B4B34
:403440001A7036010A4B9D550134E4B27F08002FB8D1F8BD9F600040706000404C96FF1FA894FF1FFE5F00404896FF1F0496FF1F7260004070B588B0054603AC174E0FCEE0
:403480000FC43368237035B322232B7003236B7001A8FFF79FF8002402231AE008AA224412F81C2C08A901EB121111F8141CE954581C00212954981C02F00F0208AE324434
:4034C00012F8142C2A54DA1CA9540134E4B20433DBB2212BE2D908B070BD00BF48BD000008B503F0E9FE08BD2DE9F04103F0F4FD00F07F0503F092FD00F0030601242DE02A
:4035000015F0010F20D02201164B9B5C13F0010F1AD1154B234493F85C3013F0FF0F13D1DFF8488017464244002353716301023BDBB2137101212046FFF7F8FE18F8073064
:4035400043F0010308F807300134E4B26D08002DD6D1760802D006F001050824002EF6D1BDE8F08172600040A894FF1F7060004008B503F0B1F808BD08B502220D4B1A70E9
:403580000F3B93F822300C4B1B7E03F00303012B04D0094AD37E83F08003D3760122064B5A76064B1B78DBB2022B01D103F038FF08BD00BF0B6000404C96FF1FDC96FF1F7B
:4035C00008B501220C4B1A700F3B9B7C0B4B1B7B03F00303934204D0084AD37B83F08003D3730122054B5A73054B1B78DBB2934201D103F015FF08BD0B6000404C96FF1F71
:40360000DC96FF1F10B5044600EB40039800184B1844037913F0800F03D00A0C4FF4804302E00B0C4FF48042012C02D0022C09D010E00121202003F005FD0E4B234483F8E3
:40364000680007E00121202003F01AFD094B234483F86800631EDBB2072B08D8FFF78CFB044B1C442076FFF787FB84F8740010BD4C96FF1FA894FF1F054B1B7828B9C300F9
:403680001033044A1344586870470020704700BF2A97FF1F00C00000F8B5474B1B7813F0FF0F00F08880444B18780138C0B2FFF7E3FF047AC268414B93F87D00C0B2002328
:4036C00077E01178884271D13D49095CC9B25578A9426BD1957805F07F05D67806F00306DFF8E0E0690029448F000EEB07014FF0000C81F803C092F802C081F804C092F81A
:4037000003C00EF807C097880F8192F9021000290DDA012E01D1072700E00D276E002E44B100284E31444F7101264E700CE0012E01D1052700E009276E002E44B100214E10
:4037400031444F7100264E7029011F4E012777541E4F7E5C06F0FE067E54691E4900C9B21B4E3170317841F0010131701849097811F0100FFAD092F90210002908DA154FE9
:403780003E78013D0121A94026EA0101397008E0104F3978013D012606FA05F52943C9B239700B4D297801F0FE01297008320133DBB2A34285D3F8BD2097FF1FA894FF1FCA
:4037C0002497FF1F4C96FF1FFE5F004070600040146000408F6000402DE9F041002310E0684D5900CA189600AC190022AA55A270E2702281A272627034462C4462710133BC
:40380000DBB2082BECD940B90AE000225E49CA545E49CA540133DBB200E00023012BF4D95B4B1B7813F0FF0F00F0AA80584B18780138C0B2FFF720FF4368DB7913F0400F0F
:4038400007D0544A92F87E3043F0010382F87E3006E0504A92F87E3003F0FE0382F87E30057A012472E0C16800236BE08A7802F07F02944263D1274604EB4406B200414E75
:403880003244128992B28E88B24207D204EB440E4FEA8E02DFF8ECE0724416810A783A4EB25CD2B24E78B24249D191F802E0354E7B003B449A00B31883F804E0CB78B35470
:4038C000CB7803F0030391F90220002A1BDA012B02D14FF0070801E04FF00D08DFF8A4E07A0002EB070C4FEA8C06764486F805803246012656708A79B24225D1022B23D16F
:40390000254B1C7020E0012B02D14FF0050801E04FF00908DFF86CE07A0002EB070C4FEA8C06764486F805803246002656708A79012A09D1022B07D1184B1C7004E008316D
:403940000133DBB2AB4291D30134E4B2082C8AD9C06800220CE0837803F07F0310F8084B03EB43039900074B19448C720132D2B2AA42F0D303F062FE094B1860FFF74AFB98
:40398000BDE8F0814C96FF1F2497FF1F2897FF1F2097FF1FA894FF1F4896FF1FDC96FF1FB896FF1F044B06225A749A7480221A750022DA7401207047A894FF1F10B5984B46
:4039C0001B78DBB20021974A918013F0800F00F0B180934A5278D2B20A2A00F27581DFE812F06700730173017301730173010B007301960073019E00894BDB78DBB2012B1F
:403A000009D103F02FFE4268864B9A6012229A80FFF73AFC10BD824BDB78DBB2022B13D17F4B9878FFF728FE002800F04F8142687C4B9A609A68D1789A68927842EA012223
:403A40009A80FFF721FC10BD754BDB78DBB2032B05D02AE00A7811440133DBB201E0002371496F4A9278D2B2934203D20A7812F0FF0FEFD16A4B9B7813F0FF0F09D0684BA1
:403A80009B78DBB2802B04D1684C2046FFF7F2FC21460B7813F0FF0F00F01A810B78614A93809160FFF7F0FB10BD03F071FA10BD13F003031AD0022B40F00C81594A9380C4
:403AC000574B1B7903F07F0303EB43039900584B19448B78DBB282F8A430002382F8A53002F1A4039360FFF7CFFB10BD4D4B02229A8093F87E20D2B283F8A420002283F885
:403B0000A52003F1A4029A60FFF7BEFB10BD454B01229A80474A9A60FFF7B6FB10BD414A012393803E4B1B7943490B449360FFF7ABFB10BD3A4A5278013A0A2A00F2CC80D3
:403B4000DFE812F04F00CA009100CA000B00CA00CA00CA001300CA003100314B9B78DBB2304A1374FFF71EFF10BD2D4B9B7803F0FF041BB1601EC0B2FFF77EFD04B110B968
:403B8000002C40F0AB802B4B1B78DBB29C4207D0284B1C700120234B83F8A600FFF71CFEFFF700FF10BD03F08DFC002800F098801B4A1379DBB21279D2B21A4981F87D2000
:403BC0001E4AD25CD2B21C49CB5CDBB29A4205D00122144B83F8A620FFF75EFDFFF7E2FE10BD03F00303012B2AD04BB1022B79D10B4B9B7813F0FF0F76D103F089FC10BD92
:403C0000074B9B78DBB2012B70D1064A92F87E3003F0FD0382F87E30FFF7C4FE10BD00BF00600040A894FF1F78BC00002895FF1F4C96FF1F2097FF1F2497FF1F2897FF1FAA
:403C4000304B1B79DBB2012B52D82E4B99781B792D4A134493F8A82022EA010283F8A820FFF7A0FE10BD03F00303012B19D04BB1022B3FD1234B9B7813F0FF0F3CD103F087
:403C8000A5FC10BD1F4B9B78DBB2012B36D11E4A92F87E3043F0020382F87E30FFF782FE10BD184B1B79DBB2012B29D8154B99781B79154A134493F8A82022EA010283F8CD
:403CC000A820FFF76FFE10BD002010BD002010BD002010BD002010BD002010BD002010BD002010BD002010BD002010BD002010BD002010BD002010BD002010BD002010BDD6
:403D0000002010BD00600040A894FF1F08B5134B1A78D2B21A701B78DBB213F0800F02D00F4A937408BD0220FFF7E0F90D4B1B7803F06003202B05D0402B06D043B9FFF7B3
:403D40003DFE06E003F024F903E003F0AFFB00E0002010B90322024B9A7408BD28600040A894FF1F0060004008B5274B1B78DBB213F0100F47D013F0800F0CD003F00F03C7
:403D8000012B16D1FFF7C2FF204B9B7C13F0800F11D1012312E013F0400F03D0FFF7B0FA01230BE013F0200F07D0FFF78FFA012304E0002302E0002300E000231BB3124B73
:403DC0001B7813F0800F1ED1104A137DD27C13430F4A13701278D2B2934214D10B4B9B7CDBB2094A127812F0800F07D1074B9B7CDBB2054A1370137803F00F03034A927C8A
:403E0000D2B29342EAD108BD28600040A894FF1F29600040024B187800F00100704700BF6A64004038B1084A92F87E3043F0010382F87E307047044A92F87E3003F0FE0369
:403E400082F87E30704700BFA894FF1F431EDBB2072B0BD8420002449300054A134400225A705A79D2B20001024B1A54704700BF4C96FF1FFE5F0040F8B579B304461646F5
:403E80000F4668B308282DD8184B03441B7EFF2B01D1FFF7B7FB154D254495F86800FEF7F3FF287E122302463146FEF737FF24010F49214489B2BAB2287EFEF721FF95F839
:403EC0006800FEF7CDFF297E95F86800FEF790FF012195F86800FEF7E9FF04E0002602E0002600E000263046F8BD00BFA894FF1F78600040431EDBB2072B00F2AE802DE9BB
:403F0000F04116460F46044600EB40029300534A1344DB7843EA16235149020188188B54F3B243704F4B23441B7EFF2B03D139462046FFF767FB002F46D0DFF8288108EBE7
:403F4000040595F86800FEF79FFF08EB44039E8408EB8408C8F83870112395F874203146202E28BF2021287EFEF7D8FE4FEA041808F108023C4E324492B2B9B2287EFEF718
:403F8000BFFE95F87400394B1C4494F8C43002460121FEF7C3FE08EB060292B2344989B295F87400FEF7ACFE95F86800FEF758FF297E95F86800FEF71BFF012195F8680025
:403FC000FEF774FFBDE8F08104EB44029300234A134400225A70A6B3224F07EB44039E843D1985F85C2095F86800FEF74DFF112395F874203146202E28BF2021287EFEF744
:404000008DFE07EB840722010832174E324492B2398F287EFEF774FE95F86800FEF720FF297E95F86800FEF7E3FE012195F86800FEF73CFF2401335D43F001033355BDE84C
:40404000F08104EB44029300044A13445A79D2B22401084B1A55BDE8F08170474C96FF1FFC5F0040A894FF1F7060004078BC0000C880FF1FFE5F0040F8B50646082801D918
:40408000012400E004462546114B23441B7EFF2B0AD00F4F274497F86800FEF7F5FE387EFEF750FEFF233B76094B2B4493F87400FF2806D0FEF746FE054B1D44FF2385F82A
:4040C00074300134E4B2082C01D8092EDBD0F8BDA894FF1F431EDBB2072B0BD8064B00011A18185C00F00F00537843EA0020023880B2704700207047FC5F004000EB400081
:404100008300024A13445878704700BF4C96FF1F074B93F8A63013F0FF0F07D0044B93F8A600C0B2002283F8A620704700207047A894FF1F014B1878704700BF2097FF1F14
:40414000FEE700BF838A63B1838919448388994207DB00238381828BC189438901FB02334381038CF3B110B4836933B9818BC38903FB01F1013909B200E0002143898CB2F3
:40418000C28BC18901FB02F292B2234413449BB2C1888B4205D300238381091B8A1A013A428110BC704700BF10B503F06DFA04461C4A137843F02003137001F0BFFB01F03D
:4041C0004BFC01F025FC03F037F803F011F8164A137843F010031370144B197841F010011970117841F0200111701A7842F020021A700F4A137843F00103137002321378B0
:4042000043F001031370204603F042FA094B02221A6004221A60084A137843F08003137010BD00BF9A640040BB430040AB4300407058004000E100E07C64004008B503F0B8
:404240002BFA03680C2B00D1FEE7FEE7F8B5254B1B78DBB2244E3478E4B2244F3D78EDB203F00701224A11701B090132137044F00303337045F003033B7002221D4B1A7089
:4042800010231D4A1370282110321170502110321170C0321370002302F27362137002321370402397321370023213708022134B1A702023124A1370183213707A214D320D
:4042C000117003321370193213702A220D4B1A700A20FEF7D9F93D70347066220A4B1A70F8BD00BFCF010049F8460040F94600406E5800400D5100401D510040935A0040D7
:40430000C35A0040585B00407658004008B504F07BFB08BD38B50024344B1C80502202331A7002331C80192502331D70042202331A8018232E490B7002310A8002310B7078
:4043400036200231088002310B702A492A48FFF7DDFF0622294B1A70294B1B78DBB2294A13705222284B1A7040F62E5222331A8042F25122023B1A800BE0244B1B7803F0A3
:40438000010343EA440404F00304782003F074F9013D0DB1032CF0D115B90320FFF7D0FE1B4A4FF48073138007231370002319490B704820023108701370053213700222A1
:4043C000154B1A7004220A331A70144A137843F01F031370013A137843F001031370013A137843F08003137038BD00BF804000408A400040B42400480041004000430040C4
:404400000F010049A14600400042004025420040044000400640004001400040A243004008B50022364B1A601021364B1970012301F1804101F5E0410B7009310A704FF4AE
:40444000427001F2E771088002310B7003200131087001312C48088047F6080002310880A1F202210A804FF48041284A11800921A2F2DD5211700B21103211700C213032DB
:404480001170182110321170BFF35F8F653A1370BFF35F8F1E4B1B889BB2002BFAD106E01C4A32F823101C4A22F833100133602BF6D9BFF35F8F0122184B1A70BFF35F8F84
:4044C000174B1B7813F0010FFAD1164B1B7813F0010FFAD1144B1B7813F0010FFAD1134B1B7813F0010FFAD1114B1B7813F0010FFAD106224FF090410E48FFF707FF08BD5C
:404500005895FF1F007600402800000006760040007800405CBD00000C7800401470004018700040287000403870004068700040787000401051014008B50A46002103F0F2
:40454000D7F808BD38B572B661223F4B1A70FFF7E1FE3E4A137843F004031370FFF760FF4FF440733A4A1380023213800A24394B1C7003223B3B1A8040F2033206331A8080
:4045800004213548FFF7D8FF042234493448FFF7BDFE04213348FFF7CFFF04213248FFF7CBFF04213148FFF7C7FF04213048FFF7C3FF04222F493048FFF7A8FE04222F49FA
:4045C0002F48FFF7A3FE2F4A137843F0020313701032137843F0020313702B4D2B7843F040032B70A2F58632513A137843F010031370082225492648FFF788FE22462549B4
:404600002548FFF783FE224624492548FFF77EFE082224492448FFF779FE082223492448FFF774FE224623492348FFF76FFE234A137843F008031370FFF708FE0E22294612
:404640001F48FFF763FE38BD00480040E8460040705800408358004000760040B82400480876004010760040187600402076004028760040BC24004830760040C024004854
:404680003876004003500140A0430040782400480251004080240048C05100408C240048F05100409824004812510040A024004822510040A8240048305100402243004048
:4046C000B04300402DE9F04F8DB00390049105921D46BDF858300693BDF85C709DF860A08269002A40F09F80014683880498984280F20381CB88059C9C4280F2FE800AEB0E
:404700004A0253000344012B00F1F78004EBCA03012B00F1F280CB8A1BB9AF2D01D90135EDB24FF00008DDF81090DDF814B00795069E54E0079B03EB8303434403EB430366
:404740009A00039B9B699D5C002442E015F0010F1DD0BAF1010F0AD104EB0B0208EB0901334612B209B20398FCF7ACFD2EE01FFA8AF10FFA8AF304FB01B208FB01910196F8
:40478000009312B209B20398FCF786FD1EE0BE421CD0BAF1010F0AD104EB0B0208EB09013B4612B209B20398FCF78CFD0EE01FFA8AF10FFA8AF304FB01B208FB019101975F
:4047C000009312B209B20398FCF766FD013464B26D08072CBADD08F101084FFA88F8B8F1040FA7DD069BBB4200F08780BAF1010F09D10499053100970823059A09B203986D
:40480000FCF756FD79E01FFA8AF303EB8301049A11440197DB0000935346059A09B20398FCF73AFD69E0137AEB1ADBB2506800EBC301D2F800B030F8337091F80280CB78BE
:40484000099391F905300A9391F906200B92BAF1010F04D91BB2079313B2089302E000230893079300231C46994643E05E1CF6B213F0070F03D17B1C1BF807409FB214F07E
:40488000800F2AD0BAF1010F0ED10B9B059A9A184A440A9B049959182944069B12B209B20398FCF70FFD18E0079B59191FFA8AF0089B03EB09020FFA8AFE059B02FB0032DB
:4048C000049B01FB0031069B01937346CDF800E012B209B20398FCF7DFFC6400E4B20135EDB2334600E000254545BFD309F101095FFA89F9099A9145F5D30DB0BDE8F08F07
:4049000008B50022174B1A70174B1870032805D8164A137843F00403137004E0134A137803F0FB031370032805D8104A137843F00803137004E00D4A137803F0F7031370EE
:404940000A4B1B7813F0040F04D1084B1B7813F0080F06D0034A137843F08103137001F0E1F808BDC595FF1FC495FF1F7C64004070B5044603280CD8104B1D5C104E3318E3
:4049800093F8840100F0ECFF354495F88C210D4B1A70032C0DD80434084B1D5D084E344494F8840102F0FEFB354495F88C21064B1A701E2001F0AEF870BD00BF5CBF00002A
:4049C0005CBD00005F64004059640040031DDBB20130C0B2032807D800F0070101228A4012F0FF0FF4D000E004200133DBB2072B07D803F0070101228A4012F0FF0FF4D0F9
:404A000000E00823043BDBB2984205D10C4A137843F00C0313707047984207D2084A137803F0F70343F004031370704704490A7802F0FB0242F008020A701846704700BF59
:404A40007C64004008B5104A104B1A60104A136843F40073136000230AE0032B03D80D4A52F8231000E00C490C4A42F8231001332F2BF2D90A4B1B78084A0A4B1A60FFF7FE
:404A800061FDFEF72FFA08BD0004FA050CED00E014ED00E0000000003D4200000080FF1FBC76004008ED00E008B5094B1A681044084BC31AB3F5006F02DC054B186005E0DB
:404AC00002F0EAFD0C2303604FF0FF32104608BDCC80FF1F3897FF1F06280BD8064B03EB8002D2F89421184490F8B011137823EA01031370704700BF5CBD000006280AD8B5
:404B0000054B03EB8002D2F89421184490F8B01113780B43137070475CBD000006280BD8064B03EB8002D2F8B821184490F8D411137823EA01031370704700BF5CBD000079
:404B400006280AD8054B03EB8002D2F8B821184490F8D41113780B43137070475CBD000070B501F091F8022000F0C4FF02F08CFD4C4A137843F0030313700132137843F010
:404B80000303137002F084FD4FF43442464B1A804FF6FF7520331D8003223E331A7002F073FD424A137843F003031370013A137843F00303137002F06BFDFF243C4B1D7004
:404BC00020331C70403B1C701F331C7030331C70103B1C7002F058FD364A137843F0030313700232137843F00303137002F050FD314B1C7020331C70403B1C7022331C7094
:404C000030331C70103B1C702C4E022535602C490120FDF765FF05210120FDF749FF0424346028492846FDF75BFF05212846FDF73FFF00F091FE2046FFF782FF0520FFF7E1
:404C40007FFF0620FFF77CFF02F0A8FA2046FFF755FF0520FFF752FF0620FFF74FFF1A4B1A7822431A701A7842F008021A7000F001FF00F0DBFE002000F0BAFE204600F0F0
:404C8000A7FE002000F06CFE02F0E4FA02F0BEFA002002F09DFA204602F08AFA002002F081FA70BD9C6400402C6400409F6400402F640040996400402964004080E100E0AB
:404CC000095C0000855B00007C64004008B5054B1B7923B9FFF744FF0122024B1A71FFF763FA08BD5895FF1F01281CD810B44000C0B20D4B03EB8002D2F8DC111A1892F8AD
:404D0000EC410A7822EA04020A700130C0B203EB8002D2F8DC21184490F8EC11137823EA0103137010BC70475CBD000001281AD810B44000C0B20C4B03EB8002D2F8DC11B3
:404D40001A1892F8EC410A7822430A700130C0B203EB8002D2F8DC21184490F8EC1113780B43137010BC70475CBD000001238340012823D8DBB2124A527913421ED010B470
:404D80000F4922EA03034B710E4B03EB8002D2F8F021184490F8F841137823EA0403137090F8FC31CA18137A013BDBB2137223B9054A137823F01003137010BC704700BFD7
:404DC0005895FF1F5CBD0000005B004001238340012823D8DBB2124A527913421ED110B40F4913434B710F4B03EB8002D2F8F021184490F8F84113782343137090F8FC31D8
:404E000019440A7A22B908490A7842F010020A70034A13441A7A01321A7210BC704700BF5895FF1F5CBD0000005B0040F0B50C4629B1836943BB43890633438124E08369B9
:404E4000D3B10023C3830E7A4F7A33460FE09A1B616801EBC202D17892F9062001EB020EC58BAE4501DDA0F81EE00133DBB2BB42EDD9A37A838307E013B14389063B43818E
:404E8000082383830023C3838461F0BD007A704701824282704700BF09B189B200E00121C181704781814281704700BFF0B585B004460D4683693BBB0A2908D1828BC189F1
:404EC000438901FB023343810023838154E00D2952D0C189890009B2FFF734F9B4F90A20B4F90C10A37B0293638A0193238A00932B462046FFF7E6FBE38903EB43035A00D1
:404F0000A3891344A38137E00A2908D1002282814189C2899B7A03FB021343812CE00D292AD01A7A914227D3597A8D4224D8AA1A5E6806EBC206B378F278BBB1B2B196F910
:404F40000510C2890B4403FB02F109B2FFF7FAF8B4F90C10B4F90A20238A608AA77B0297019000932B462046FFF7ACFB3179E289A38901FB0233A38105B0F0BD2DE9F0471F
:404F800082B082460D4691461E46BDF92880BDF82C700C4608E0009743464A4621465046FCF786F9013424B2AB199C42F3DB02B0BDE8F08710B582B0BDF810400194134430
:404FC000013B1BB200930B46FCF780F902B010BD08B5104E104D16E029686B68AC68002204E051F8040B43F8040B0432A242F8D1E868002203E0002143F8041B043282429E
:40500000F9D11035013E002EE6D102F04BFBFCF72BFA00BF010000003CC20000C1680268D30912F07F0200D001221A44436803FB02F3027A02FB033301EB032321B1B3F513
:40504000802F03D90320704703207047002070478B6904E003F580730A68934203D21A688242F7D100E000231846704770B48A6902600024264608E013681BB19E4201D22A
:4050800002601E4602F5807201344D680B6903FB05F39C42F0D370BC704700BF094B1B7803F00C035B08084A127812F0040F00D0013303F1924393F82031DBB2034A137067
:4050C000704700BF205800402158004008460040054B1A7802F0FD021A701A7800F0020010431870704700BF205800400F490B7803F0FC0200F0030313430B7001280AD1BA
:405100000B4B1B78DBB20B4A13700B4B1B78DBB2013213707047094B1B78DBB2054A1370074B1B78DBB201321370704740580040100100493046004014010049AD010049DC
:40514000B5010049C1EBC1010844C0F3CF007047F0B5C50800F0070201239340DBB21C4A115C02EB41063789348B0A4492F828E0184A525D13420DD0164E06EB4000808808
:405180003C1BA0421DDA22EA03027255314481F814E016E00F4E06EB400080883C44A0420BDD30460844007D012801D81A437255084A11440138087503E0064A114481F86C
:4051C00014E0044A505D184000D00120F0BD00BF5CBF00006495FF1F70B50A4B184490F8304090F838502544EDB200262046FFF7AFFF00B101260134E4B2A542F6D83046F5
:4052000070BD00BF5CBF000070B40A490A5C0A4C04EB40031D8C1D862044002680F840609E80114491F8281022441175A3F8485070BC70475CBF00006495FF1FF8B50546B4
:405240002B4B1A5C03EB4203B3F84060294C04EB4004B4F84810208CFFF774FFA4F84800228E904203D3841AA4B2012702E0141AA4B20027B7B9142C14D91E4B2B4493F81E
:4052800058301D2B08D92846FFF7BEFF194B2B44002283F858201DE0164A2A44013382F8583017E0B44202D9132C13D897B9114901EB050E9EF8403043EA02231844801A4A
:4052C000C0F30F2301EB45010B868EF8400000238EF85830B44205D927B1064B03EB4505AC80F8BD034B03EB45050023AB80F8BD5CBF00006495FF1F10B5002404E020460B
:40530000FFF70CFC0134E4B2062CF8D910BD00BF70B50546104B034493F8504093F85860032802D8FFF7FAFB03E00438C0B2FFF7D3FB0F2C00D10724074800EB8404226ED7
:40534000137823EA0603137000EB8500D0F8803009221A7070BD00BF5CBF000008B5134B1B7813F0040F09D1104B1B7813F0080F04D10E4A137803F0FC0313700C4B1B78A8
:405380001B020C4901EB40010B840B4A12781343DB430B84FFF7BCFF002001F003FF074A137843F00103137008BD00BF7C6400401B6400406495FF1F0B6400407258004050
:4053C00010B5104B1A1892F8501092F8584003EB8003D3F8803009221A700F2900D10721084A02EB8102126E137823431370032802D8FFF7A5FB10BD0438C0B2FFF77EFB42
:4054000010BD00BF5CBF000070B504460E46C0F30725FDF76BFC32462946C4F30740FDF75BFC0446FDF70EF90CB1042070BD002070BD00BF10B404460022FF2013E0A35CF8
:40544000584000230BE010F0800F04D04000C0B280F0310001E04000C0B20133DBB2072BF1D9013292B28A42E9D110BC704700BF2DE9F047C0B005468A4690469946489ECE
:40548000B469041B33681C44C76F80210844FFF7D1FF874207D14A4605EB0801504603F0B3FA00241BE0E76F80216018FFF7C2FF874213D14FF480722146684603F0A4FA9F
:4054C000324669462846FFF79FFF044638B94A460DEB8801504603F097FA00E00224204640B0BDE8F08700BF30B4044618B1086800F5807008600D681868854201D39869A1
:405500000860002010605868844218D31C69012C13D90968A1EB00259B699D420BD204F1FF1404F57F4400FB04F003EB0020C91A0844106003E0156001E00B68136030BC17
:40554000704700BF2DE9F04FCDB01D4600230B930A93AB6809930391002A00F09F80824693461318EA68934200F29A80002900F099800BF1FF331B094C4AA2FB0323059332
:4055800001330493002307939946012081E0099B1C682B4608AA09A92046FFF7A5FF4FF4807200210CA802F0A3F804F10108CDF83080CDF834A00399059B994502D1CDF8B0
:4055C00038B007E070230E93ABF1700B9A44039B703303930E9A0FA803F016FA089921B1802211442CA803F00FFA6C68A04503D9C4EB0804013400E00124002731E04445F5
:4056000001D10CAE04E029462046FFF721FD0646099BAA699A1A120A6968B2FBF1F301FB132356B17268B1680191009207AA0AA90BA8FDF7A7FC074600E001374FB90B98CE
:40564000079931440A9A121A0C310CAB184403F0DBF92B7D23B180212CA8FFF7EBFE2B9001344445CBD92A460CA90998FFF7CCFE2B7D4BB140B9AA69099B9B1A28682A46B2
:405680000CA91844FFF7C0FE68B9099BAB6009F10109049B9945FFF47AAF04E0012002E0012000E001204DB0BDE8F08F264992242DE9F04F8BB00691002A00F0E6808146FB
:4056C0001F46934613181C460793FB689C4200F2DF80002900F0DF80B8680368099304F1FF3A4FEAD913C3EBDA1A0AF1010ABC69031B7A681502B3FBF5F303FB02F304EB65
:405700000323039300250EE0B9EBC51F06D36B1CDB01013B994503D9002302E0002300E001231BB901359542EED30025039BC01A030A184605933B69012B09D905EB0A03C3
:40574000013B854207D8984208D20123049307E00023049304E00123049301E000230493C84600260123CDF82090894635E0039B03EB052008F07F0404F180010136B2457C
:4057800002D9C4F1800400E05C46049B63B1059B9D4209D97B68A0EB0320BA69904203D238685B1BA0EB03203B7D5BB1009723460A464946FFF75CFE034648B18246DDF84E
:4057C00020900FE022460144484603F01DF90023A044C4EB0B0BA14401355645C7D39A46DDF820905346002B57D1099B002B54D07D689D4228BF1D46013D5D1BDDF8188035
:40580000079E1C463EE039462846FFF721FC8646002836D0436881681944994504D29E4294BF0022012203E089452CBF002201223AB3994502D3C3EB090C01E04FF0000CBC
:40584000994502D2C9EB030000E000200CF10C0CB14228BF314699452CBFC9EB0103CB1A40443A7D42B10097624601467046FFF7FFFD824628B110E01A460EEB0C0103F0AD
:40588000C3F80135A542BED907E001239A4604E001239A4601E001239A4650460BB0BDE8F08F00BFF8B500293DD00D4600283CD0C368002B3BD043680A2B3AD80768002F32
:4058C00039D00446FFF7AAFB0646002834D1EF6063682B61237A2B75637A6B75E368AB612368DA0913F07F0300D0012313446B60626802FB03F3E26802EB03232C4644F879
:40590000083B29462046FFF7B1FBAB681B689BB92B7D8BB12846FDF7FFFA064629462046FFF7A4FB08E0012606E0012604E0012602E0012600E001263046F8BD054A137892
:4059400043F0020313701032137843F002031370704700BFA243004008B5FFF7CDFC08BD014B1870704700BF805B004008B5134B1B7813F0040F09D1104B1B7813F0080FFD
:4059800004D10E4A137803F0FC0313700C4B1B781B020C4901EB40010B840B4A12781343DB430B84FFF7B4FC0020FFF7D9FF074A137843F00103137008BD00BF7C640040F2
:4059C0001E6400406495FF1F0E6400407058004008B5064B1A7802F0F3021A701A7800F00C0010431870FFF759FB08BD2058004008B5064B1A7802F0FB021A701A7800F038
:405A0000040010431870FFF749FB08BD21580040054A137843F0010313701032137843F001031370704700BFA843004008B51422084B1A700133002018701A7842F004029D
:405A40001A701A7842F002021A70FFF741FBFFF725FB08BD20580040054A137843F0010313701032137843F001031370704700BFA743004008B50020FFF738FB0B4B1A78DC
:405A800042F020021A701A7802F0FB021A701A7842F008021A7003F287231A7802F0E7021A701A7842F010021A7008BD4058004038B500252C4606E02046FFF78DFB00B113
:405AC00001250134E4B2072CF6D9284638BD00BF10B500240BE004F007020123934013F0FF0F02D02046FFF7A9FB0134E4B2072CF1D910BD012805D1054A137803F0EF0393
:405B000013707047024A137843F01003137070477C640040024B187040081033187070472A64004010B50446FEF722FF124B1A7842F001021A701B7813F0040F07D00F4A9B
:405B4000137803F0FE0313702046FFF739FC0A4B1B7813F0080F08D0201D094A137803F0FE031370C0B2FFF72BFC034A137843F00203137010BD00BF7C6400407058004050
:405B80007258004010B51E4C237803F0F70323701C4B93F860000430C0B2FFF7DFFB237813F0040F2BD1174B93F8613013F0800F07D0144A92F8613003F0FE0382F86130BD
:405BC00010BD104C94F86000FEF700FF84F8600094F86030DBB2032B04D994F86030DBB2032B05D8074B93F86000FFF79BFF10BD044A92F8613003F0FE0382F8613010BD89
:405C00007C6400406495FF1F10B51D4C237803F0FB0323701B4B93F86000FFF7A7FE237813F0080F2BD1174B93F8613013F0800F07D0144A92F8613003F0FE0382F86130E4
:405C400010BD104C94F86000FEF7C0FE84F8600094F86030DBB2032B04D994F86030DBB2032B05D8074B93F86000FFF75BFF10BD044A92F8613003F0FE0382F8613010BD89
:405C80007C6400406495FF1F10B5002404E02046FFF73EFB0134E4B2072CF8D910BD00BF024B93F8610000F0010070476495FF1F10B50446FEF724FEFFF7F2FF0028FBD1F7
:405CC000032C02D82046FFF79FFA032C03D8201DC0B2FFF799FA10BD10B5002404E02046FFF7E6FF0134E4B2032CF8D910BD00BF10B5114C002384F86130FF2384F86030B2
:405D000094F86000FEF762FE84F8600094F86030DBB2032B04D994F86030DBB2032B0AD8054B93F8612042F0010283F8612093F86000FFF7F7FE10BD6495FF1F4001C0B2DF
:405D4000014B1870704700BF00E400E0014B1B681864704708ED00E0024A137843F001031370704708590040704700BF054A137843F0080313701032137843F008031370B6
:405D8000704700BFA2430040014B1878704700BF6465004008B501F077FC064A137843F0040313701032137843F00403137001F06FFC08BDA543004008B501E00A4B1B78DB
:405DC0000A4B1B7813F0200FF8D101F05DFC084B1A7842F001021A701A7802F0FE021A7001F056FC08BD00BF53640040646500409364004008B501F047FC0A4A137843F0C3
:405E00002003137002F58072137843F010031370023A137843F01003137001F039FCFFF7A5FF08BD9664004010B50C46284B18700023284A1370284A1370284A1370284AAA
:405E40001370284A1370284A1370284A1370284B4FF400021A604FF080721A604FF400121A6010221A6020221A600321214A11704FF480021A6050221F4B1A701F4801F09F
:405E8000D3F801F01BF901F0BBF814B1012C06D00BE01B4A137803F0FE0313700AE0184A137843F00103137004E0154A137803F0FE0313700322134B1A708022203B1A70EA
:405EC000012001F0D9FB04220F4B1A7010BD00BF2A97FF1FB994FF1F4E95FF1F2097FF1F2595FF1FB894FF1F2695FF1FBD94FF1F00E100E09E6000409C600040E934000024
:405F000009600040286000401260004010B50222104B1A7081220E3B1A70082202331A70322211331A70002401331C704FF40042094B1A6006210F20FCF7BAFD07490F2039
:405F4000FCF7CEFD064B10221A705C709C70DC7010BD00BFD649004080E100E0BD620000C895FF1FF8B501F08FFB0546454A137843F0010313701032137843F0010313709E
:405F80000127414B1F700226943B1E7002F5E2521B32137803F07F0313700020FCF774FB3A4C237803F0F9032370394A137803F0DF03137023783B4323703846FCF764FB17
:405FC0002820FCF761FB334B1A7802F07F021A701A7802F0BF021A702378334323703046FCF752FB237843F00403237000232A4A13700132137006E0FF222849CA54284995
:40600000CA5401339BB2082BF6D9284601F040FB03211720FCF74CFD22491720FCF760FD03211820FCF744FD1F491820FCF758FD03211520FCF73CFD1C491520FCF750FDC5
:4060400003210420FCF734FD19490420FCF748FD03210520FCF72CFD16490520FCF740FD00211620FCF724FD13491620FCF738FD03210C20FCF71CFD10490C20FCF730FDB7
:40608000F8BD00BFA54300409D6000409443004012600040F851004084600040C094FF1F1C95FF1F71350000693D0000CD300000C135000079350000B9330000E134000062
:4060C00010B501F0E1FA0446184A137843F0020313701032137843F00203137002F5AA521032137843F0030313701822104B1A70013B1A7842F040021A701A7802F0FC02AC
:406100001A70C822053B1A700222A3F59753123B1A70084A137843F0080313700A20FCF7B3FA204601F0B4FA10BD00BFAB4300400E5900402F5B0040F0B583B016461F4673
:406140000B4C062525700023019300932B460A4601462846FCF72AFE3A4631462078FCF753FE04212078FCF769FE207803B0F0BDD080FF1FF0B583B016461F460B4C0725C1
:4061800065700023019300932B460A4601462846FCF70CFE3A4631466078FCF735FE04216078FCF74BFE607803B0F0BDD080FF1F10B541F6FF734FF4804201210220FFF7CC
:4061C000D9FF084C207141F6FF731A4601210A20FFF7B2FF60710448FFF7B8FD0020FFF7ADFD10BDC895FF1F695D000008B50A280FD00C2802D0082806D102E04FF480527E
:4062000009E04FF4807206E00020FCF7E1FB002201E04FF4806209490020C88042F2107303FB02F303F27263054A82FB03E21A44DB17C3EBE2238B60888108BDC895FF1F2D
:40624000EF09E09E10B504460A280DD00C2802D0082804D101E0C22207E0422205E00020FCF7B6FBC22200E08222034B1A702046FFF7BCFF10BD00BF0A59004008B5064A33
:40628000137843F0060313700C20FFF7DBFF0022024BDA8108BD00BF09590040C895FF1F08B5054B1B7C23B9FFF7E8FF0122024B1A74FFF705FF08BDC895FF1F38B59E4BC2
:4062C0001C789E4B1B7813F0400F00F02C81E4B214F0010F00F01081984B1B78453B052B00F20781DFE813F006007D00050105010600D60004F0DF0504F00A04082C3FD181
:406300008E4B1B78DBB2452B32D18C4B5B7C13F0FF0F0ED0894B5A691278D2B288490A700421854A11700122DA7046221A702C46E2E0824B1B7E13F0020F0CD07F4B5A786A
:4063400042F00A025A7060221A704FF400427D4B1A602C46D0E07C4A137843F01003137010227A4B1A700422023B1A702C46C3E00022714B1A704A22704B1A702C46BBE05D
:406380000A2C29D16D4B5A7842F0A0025A701B7E13F0020F13D0694B1B7813F0080F01D0092200E00A22654B59780A435A7060221A704FF40042634B1A602C469CE0624AA1
:4063C000137843F0100313701022604B1A700422023B1A702C468FE00020FCF7F9FA2C468AE014F0020F33D1544BDA78D2B25B7CDBB29A420FD2514AD378DBB25169CB5C2F
:40640000DBB24F490B7004214B4B1970D3780133DBB2D37070E0494B1B7E13F0020F0BD0464B5A7842F00A025A7060221A704FF40042444B1A605FE0434A137843F010031B
:4064400013701022414B1A700422023B1A7053E03A4B1B7E13F0020F0BD0384B5A7842F09A025A7060221A704FF40042354B1A6042E0354A137843F0100313701022334B07
:406480001A700422023B1A702C4A537843F09003537031E0294B9A78D2B229490978C9B211709A780132D2B29A709A78D2B25B7EDBB29A4203D210221F4B1A701CE01F4B85
:4064C0001B7E13F0020F0BD01C4B5A7842F009025A7060221A704FF400421A4B1A600BE0194A137843F0100313700022124B1A7002E00020FCF76CFA14F0200F1BD00F4BE6
:406500001B7813F0080F01D0012200E002220B4B59780A435A700C490A7802F0EF020A7010221A7038BD054B1B7813F0100F02D11022024B1A7038BDD7490040C895FF1FE2
:40654000D849004080E100E0D6490040D949004070B52D4C2079FCF783FC6079FCF780FC2A4B9B78FF2B03D1FCF706FC274B9870264CA078062302460A21FCF7CFFB224E7F
:4065800006F11C05ADB22A4645F6A231A078FCF7B7FBA1783079FCF72BFCE378FF2B02D1FCF7EAFBE070194EF078072302460A21FCF7B4FB144C04F1280292B22946F07825
:4065C000FCF79EFBF1786079FCF712FC01212079FCF76CFC01216079FCF768FC01F054F80B4A137843F02003137001F051F8094B1A7842F001021A701A7842F002021A703D
:406600000122054B1A6070BDC895FF1FD080FF1F906400407D64004080E200E008B50920FDF72AFD01F030F8214A137803F07F0313700A32137803F0FB031370A2F5E352B1
:406640000D3A137803F0FE0313701032137803F0FE031370174B1A7842F080021A701A7842F040021A7001F013F8134B4FF400021A604FF080721A604FF400121A60102206
:406680001A6020221A6000F017FE4FF480520B4B1A6000230A4A13700A4A13700A4A13700A4A13700A4A13700A4A82F8323008BD08600040F851004080E100E080E200E0BB
:4066C0004E95FF1F2097FF1F2595FF1FB894FF1F2695FF1FC895FF1F00230A4A13700A4A13700A4A13700A4A13700A4A13700A4A13700A4A13700322094B1A708022203B2A
:406700001A707047B994FF1F4E95FF1F2097FF1F2595FF1FB894FF1F2695FF1FBD94FF1F2860004038B504460D46074B93F832302BB9FFF717FC0122034B83F83220294622
:406740002046FFF771FB38BDC895FF1FF0B583B016461F460B4C032525710023019300930A4601462846FCF721FB3A4631462079FCF74AFB29462079FCF760FB207903B06B
:40678000F0BD00BFD080FF1FF0B583B016461F460B4C022565710023019300930A4601462846FCF703FB3A4631466079FCF72CFB03216079FCF742FB607903B0F0BD00BFC3
:4067C000D080FF1F044A137803F0FD03400000F00200184310707047F0510040044A137803F0DF03400100F02000184310707047F0510040044A137803F0FE0300F001004A
:4068000018431070704700BFF0510040C0F10400044A02EB4000B0F928309089181A00B2704700BFC895FF1F044B1B7803F0FF020BB90028F8D01046704700BF6865004004
:4068400008B5FFF789FA08BD08B5074B5B6B23B9FFF7AEFC0122044B5A63FFF721FDFFF777FE024B1B7808BDC895FF1F686500404FF40043044A1360044A507800215170B2
:40688000034A1360704700BF80E100E0C895FF1F00E100E04FF40042074B1A60074B5878C0B21B7813F0400F01D040F004004FF40042034B1A60704780E100E0C895FF1F96
:4068C00000E100E070B4002942D00D4622490978C9B2102906D12149097811F0080F11D1002412E01C490978C9B260290CD14FF400441B490C60184C617801F0F70161709E
:40690000002402E0012400E0022414BB124945260E700026CE704A744D610B764A7802F0FD024A704200D2B20E490A7013F0010F06D01222094B1A700422023B1A7002E0F4
:406940000122064B1A704FF40042074B1A6000E00224204670BC7047C895FF1FD949004080E200E0D849004000E100E02DE9F8434FF40049214BC3F80090DFF8A08098F81D
:4069800000301F4CE3721F4F3B7823731E4E3378637330783B7843EA002001301B4D2B7803F0FE032B7080B200F066FE00F06CFE174A137803F0FB0313701032137803F0D0
:4069C000FB03137000F064FE2B7843F002032B70E37A88F80030E37A88F80030237B3B70637B33702B7803F0EF032B70094BC3F800901022084B1A70BDE8F88380E100E038
:406A0000D080FF1FDB490040DC490040D6490040A543004080E200E0C895FF1FCA49004008B5084B93F838302BB9FFF76FFA0122044B83F83820FFF7ADF94FF40042024B8F
:406A40001A6008BDC895FF1F00E100E0054A137843F0040313701032137843F004031370704700BFA243004001E0044B1B78044B1B7813F0200FF8D1704700BF53640040D2
:406A800064650040014B1878704700BF6665004008B50F22074B1A70FFF78EF9FFF7F2FFFFF772F90222044B1A702022023B1A7008BD00BF866400408665004008B5064BF4
:406AC00093F839302BB9FFF7E3FF0122024B83F83920FFF78FF908BDC895FF1F08B501E00A4B1B780A4B1B7813F0200FF8D100F0CBFD084B1A7842F001021A701A7802F09B
:406B0000FE021A7000F0C4FD08BD00BF5A650040696400409A65004001E0044B1B78044B1B7813F0200FF8D1704700BF5A65004069640040014B1878704700BF69640040CA
:406B4000014B1878704700BF6965004008B5064B93F83A302BB9FBF7A9FC0122024B83F83A20FBF789FC08BDC895FF1F0E4A137803F00303127812F0800F09D0022B02D16B
:406B8000094B5B780DE0012B0BD1074B5B7808E0022B02D1044B5B7803E0012B01D1024B5B780020704700BF006000400822014B1A60704780E100E00822014B1A607047C4
:406BC00000E100E04001C0B2014B1870704700BF03E400E0014B1B68D864704708ED00E0094B1B7803F00C035B08084A127812F0040F00D0013303F1924393F83031DBB2F6
:406C0000034A1370704700BF245800402558004009460040054B1A7802F0FD021A701A7800F0020010431870704700BF245800400F490B7803F0FC0200F0030313430B7085
:406C400001280AD10B4B1B78DBB20B4A13700B4B1B78DBB2013213707047094B1B78DBB2054A1370074B1B78DBB20132137070474358004013010049364600401701004965
:406C8000B3010049BB010049094B1B7803F00C035B08084A127812F0040F00D0013303F1924393F82831DBB2034A1370704700BF28580040295800400A460040014B18702C
:406CC000704700BF825B0040054B1A7802F0FD021A701A7800F0020010431870704700BF28580040054A137843F0040313701032137843F004031370704700BFA84300404D
:406D000008B51422064B1A70013300221A701A78D2B21A700220FFF7D7FFFFF7B5FF08BD285800404FF40062014B1A60704700BF80E100E04FF40062014B1A60704700BFE5
:406D400000E100E04001C0B2014B1870704700BF0BE400E0014B1B68D866704708ED00E030B40D784C78F72820D9764A1178114443F00F030B7113780133DBB213701378EF
:406D80001344187113780133DBB21370137813440021197113780133DBB2137013781344197113780133DBB21370C9E0032801D9F02859D1F0280AD1624A1078104443F0EF
:406DC0000403037113780133DBB2137034E0EF2D0AD85C4A1078104443EA1513037113780133DBB2137027E0F62D0AD1554A1078104443F00503037113780133DBB213701F
:406E00001AE0F12D01D0F32D0AD14E4A1078104443F00203037113780133DBB213700BE0F22D09D1474A1078104443F00303037113780133DBB21370424B1A781A441571AF
:406E40001A780132D2B21A701A781A4414711A780132D2B21A701A7889781A4411711A780132D2B21A706BE0F72869D1012A25D012B1022A44D063E0324A1178114443F01A
:406E800005030B7113780133DBB2137013781344F721197113780133DBB21370137813440021197113780133DBB2137013781344197113780133DBB2137041E0214A117880
:406EC000114443F006030B7113780133DBB21370137813441D7113780133DBB2137013781344F721197113780133DBB21370137813440021197113780133DBB213701FE0C9
:406F0000104A1178114443F007030B7113780133DBB21370137813441D7113780133DBB21370137813441C7113780133DBB2137013781344F721197113780133DBB21370C1
:406F400030BC70470496FF1F10B5002404E02046FDF7C2FD0134E4B2062CF8D910BD00BF08B50A4B1B7813F0FF0F0DD0074B93F84400FDF7C3F8012806D1044B93F84400F5
:406F80001A780021FCF7B6FF08BD00BF0496FF1F08B5154B1B7803F00303012B02D0022B04D010E0104B1B79DBB20DE00E4B1B7903F07F0303EB43039A000C4B1A4492F8CA
:406FC0005230DBB200E00023022B08D8074AD2F8B420D35C012B04D1FFF7C8FD08BD002008BD002008BD00BF006000400496FF1F024B1878C0F38010704700BF01510040CA
:4070000008B500F041FB044A137843F01003137000F03EFB08BD00BF97640040014B1878704700BF6764004010B50446FFF7BEFD2046FFF7CFFD0720FFF7C4FDFFF7BCFD0B
:4070400010BD00BFF0B583B016461F460B4D00242C700194009423460A4601462046FBF7A5FE3A4631462878FBF7CEFE02212878FBF7E4FE287803B0F0BD00BFDE80FF1F88
:40708000F0B583B016461F460B4C012565700023019300932B460A4601462846FBF786FE3A4631466078FBF7AFFE02216078FBF7C5FE607803B0F0BDDE80FF1F08B500F030
:4070C000E3FA044A137843F01003137000F0E0FA08BD00BF94640040014B1878704700BF64640040F0B583B016461F460B4C0525A5700023019300930A4601462846FBF7C1
:4071000055FE3A463146A078FBF77EFE0321A078FBF794FEA07803B0F0BD00BFDE80FF1FF0B583B016461F460B4C0425E5700023019300930A4601462846FBF737FE3A46A8
:407140003146E078FBF760FE0321E078FBF776FEE07803B0F0BD00BFDE80FF1F024B1878C0F38000704700BF31510040044A137803F0FB03800000F0040018431070704703
:4071800000510040044A137803F0FD03400000F002001843107070472051004008B5FFF7D3FE08BD014B1870704700BF815B004008B5064B1A7802F0F3021A701A7800F0BB
:4071C0000C0010431870FFF70BFD08BD2458004008B5064B1A7802F0FB021A701A7800F0040010431870FFF7FBFC08BD25580040054A137843F0020313701032137843F0AB
:4072000002031370704700BFA843004008B51422084B1A700133002018701A7842F004021A701A7842F002021A70FFF7F3FCFFF7D7FC08BD24580040054A137843F008038C
