:400000000080002011000000413E0000413E000008B5044B1A6803F53F5302331A6004F0D9FD00BFFA46004008000223000008760800032300001076080004230000287615
:4000400008000523000030760500062300002070050007230000307005000823000060700500FE230000707019000A220000C8493000FE22000040518000FE2200000043FD
:4000800007000D230000005207000E230000085207000F23000010520700102300001852060011230000605208001223000060450700132300007852080014230000784515
:4000C000080015230000285B400016230000006420001723000070642000FE2300007065080019230000005180001A230000000080001B230000800080001C2300000002CB
:4001000080001D230000800280001E230000000480001F23000080048000202300000006800021230000800680002223000000088000232300008008800024230000000A73
:40014000800025230000800A800026230000000C800027230000800C800028230000000E800029230000800E80002A230000001480002B230000801480002C2300000016A7
:4001800080002D230000801680002E230000001880002F2300008018800030230000001A800031230000801A10003223000010501000332300000050800034230000004D8C
:4001C000800035230000804D800036230000004C800037230000804C8000382300000047800039230000804780003A230000004680003B230000804680003C2300000045DF
:4002000080003D230000804580003E230000004480003F2300008044800040230000001B800041230000801B8000422300000015800043230000801580004423000000195C
:400240008000452300008019800046230000001780004723000080178000482300000009800049230000800980004A230000000780004B230000800780004C230000000BB0
:4002800080004D230000800B80004E230000000580004F2300008005800050230000000D800051230000800D80005223000000038000532300008003800054230000000F5E
:4002C000800055230000800F800056230000000180005723000080018000582300000049800059230000804980005A230000004880005B230000804880005C23000080432C
:4003000080005D230000004280005E230000804280005F2300000041800060230000804180006123000000408000FE23000080400100000001000000010000000048014080
:4003400001000000004800400100000000200140010000000020004010B5054C237833B9044B13B10448AFF300800123237010BD8881FF1F00000000A4A10000084B10B50B
:400380001BB108490848AFF300800848036803B910BD074B002BFBD0BDE81040184700BF000000008C81FF1FA4A10000C080FF1F00000000018042808180C2800023038114
:4003C000438183810122C2814FF6FF71018241828282C3828361C38308238383704700BFF8B5B14B01221A701B79002B40F05381AD4B0022C3F8042483F808245A7983F8AF
:400400000924022541E1A84A53191C79691C11440B795B0543EA0473A91C11440C7943EA8434EB1C13441B7944EAC313291D11440C7904F07F041C43C2F80C4492F80834B1
:40044000002B66D1D2F804649EB9204609F08AFE80B2954AA2F81004731C010A164486F81414591CC2F80414C0B2134483F814040AE18D4BB3F8103401335B009E4214D2A7
:400480008A49204609F06CFC09F06CFE80B2731C854A010A164486F81414591CC2F80414C0B2134483F81404EEE09E4240F0EC807D4BC3F81448D3F814087D4909F0EEFD47
:4004C000C8B1794BD3F814087A4909F005FE90B1721C754B1E44EF2186F81414501CC3F804041A4482F81414012283F808240022C3F81828C8E06C4BD3F81C280132C3F800
:400500001C280022C3F8202883F8242883F82528BAE0012B1BD1204609F024FE80B2624BA3F82608D3F804144A1C040A194481F81444511CC3F80414C0B21A4482F81404C1
:40054000022283F808240022A3F828289CE0022B40F09A80544BB3F82868B3F826389E4264D2514BD3F8183813F003030DD14E4FD7F80464731CC7F80434204609F0F2FD71
:40058000C0B23E4486F8140449E0012B0DD1464FD7F80464731CC7F80434204609F0E2FDC0B23E4486F8140439E0022B1DD10021204609F073FD50B13B4AD2F80434591C43
:4005C000C2F804141344FF2283F8142427E0364FD7F80464731CC7F80434204609F0C2FDC0B23E4486F8140419E03349204609F0B7FB09F091FD00B22B4BD3F804144A1C8F
:40060000C0F30724194481F81444511CC3F80414C0B21A4482F814040136A3F82868224AD2F818380133C2F818382DE02149204609F034FDD8B12149204609F04DFDB0B1E2
:40064000194BD3F804144A1C1944FE2081F81404511CC3F804141A4482F81404032283F80824012283F82428A3F82A180CE00E4BD3F81C280132C3F81C280022C3F8202853
:4006800083F8242883F825280535074BD3F820389D42FFF4B8AE044B00221A70C3F8202883F82528F8BD00BFA881FF1F00FF7F470000C0BF000020C000FEFF46000060C0BC
:4006C0002DE9F04107460D4690461C461946069809F03CFA06462946384609F037FA07462946404609F032FA0146384609F0ECFB0146304609F034FB0146204609F028FA93
:40070000BDE8F08100B583B0002101912023009380230A46024804F033FA03B05DF804FBD489FF1FF8B50E1E75DB054614461F4683889E426FDA002A6DDBC3889A426ADA0E
:4007400004F0A6F902280AD0032813D0012817D1B5F900301C1B631E34461EB210E0B5F900309E1B013E36B2B5F902301C1B013C24B205E0B5F902309E1B731E26461CB2C2
:40078000012F03D0CFB1022F2FD0F8BDB5F900202346002C00DAE31D43F3CF0302FB036604F00704012303FA04F41B4B1E4496F85038234386F85038F8BDB5F900202346D8
:4007C000002C00DAE31D43F3CF0302FB036604F00704012303FA04F40F4B1E4496F8503823EA040386F85038F8BDB5F900202346002C00DAE31D43F3CF0302FB036604F02D
:400800000704012303FA04F4034B1E4496F850385C4086F85048F8BDA881FF1F2DE9F04383B006460D461F4603F003031B010FFA82F9DFF8408003F10C024946404604F065
:4008400033F97A1C05EB45018B0000240194120100921BB23A014946404604F091F904E0315D044804F024F90134AC42F8DB03B0BDE8F083D489FF1F10B586B0FFF742FFBF
:40088000684607F089F80B4B1B882DF80030684607F082F80446012300220C210648FFF7BDFF00231A4621466846FFF7B7FF06B010BD00BF68B800006CB8000070B582B0C7
:4008C00004460D46164605F0D3FD8DF807009DF8073013F0800F29D13346EAB21549204605F0F0FD8DF807009DF8073013F0FF0F19D14CF2503405F0CDFD8DF807009DF8A6
:400900000730013C02D180238DF807309DF8073013F0820F0AD19DF8073013F0FF0F05D0002CE8D102E080238DF807309DF8070002B070BDF88DFF1F08B5054B002283F836
:40094000502C83F8510C02213C20FFF7B7FF08BDA881FF1F38B504460D4611F0800F00D07F25072C00D907242120FFF7E5FF2846FFF7E2FF7F20FFF7DFFF2220FFF7DCFF41
:400980002046FFF7D9FF0320FFF7D6FF38BD00BF08B500210846FFF7DDFF08BD70B5FFF7F7FF0020FFF7C8FF1020FFF7C5FF4020FFF7C2FF002426462CE0A6F15000C0B2BA
:4009C000FFF7BAFF0220FFF7B7FF1020FFF7B4FF4022124B83F8502C002517E0591C03EB04130E4A134493F850380A4482F8503C0B4600E000230F2BF0DD0134E4B20022F7
:400A000011213C20FFF75AFF0135EDB2072DF1D90136F6B2032ED0D970BD00BFA881FF1F08B5FFF7BBFF08BD10B50446AE20FFF783FFD520FFF780FF8020FFF77DFFA8204F
:400A4000FFF77AFF1F20FFF777FFD320FFF774FF0020FFF771FF4020FFF76EFF8D20FFF76BFF012C03D11020FFF766FF02E01420FFF762FF2020FFF75FFF0020FFF75CFFAC
:400A8000A120FFF759FFC820FFF756FFDA20FFF753FF0220FFF750FF8120FFF74DFF8F20FFF74AFFD920FFF747FF012C03D12220FFF742FF02E0F120FFF73EFFDB20FFF7B4
:400AC0003BFF4020FFF738FFA420FFF735FFA620FFF732FF2E20FFF72FFFAF20FFF72CFF10BD00BF38B50220FFF79EFF002305E0134A1A44002182F850180133B3F5806F33
:400B0000F6DB104C202280212046FFF753FC0E4D2946204603F08CFF05F10C01204603F087FF00220121204603F0B4FF0121204603F0B4FFFFF7A0FEFFF772FF38BD00BF3D
:400B4000A881FF1FD489FF1F00A2000010B541F6FF734FF480420121084605F015FC214C84F8500D01F00AFF84F8510D94F8510D0223FE22102101F0D3FE94F8510D04F608
:400B8000545292B246F25A5101F0BCFE94F8500D94F8511D01F02EFF41F6FF734FF480420121084606F0BCF884F8640D01F0E6FE84F8650D94F8650D0223FE22102101F0DF
:400BC000AFFE94F8650D04F6685292B246F2534101F098FE94F8640D94F8651D01F00AFF10BD00BFA881FF1F10B54FF4804341F6FF720121084605F0A9FB214C84F8780D3D
:400C000001F0BCFE84F8790D94F8790D0123FE22102101F085FE94F8790D04F67C5146F24A5289B201F06EFE94F8780D94F8791D01F0E0FE4FF4804341F6FF7201210846A7
:400C400006F050F884F88C0D01F098FE84F88D0D94F88D0D0123FE22102101F061FE94F88D0D04F5596146F2434289B201F04AFE94F88C0D94F88D1D01F0BCFE10BD00BFFD
:400C8000A881FF1F38B5304CD4F8A00D00F0010005F0B0FBD4F8A00DC0F3400005F092FB0025C4F8A45D284601F06EFA042001F0EDFA01F061FA284601F046FA01F00EFA03
:400CC000C4F8A80D0120C4F8A40D01F05DFA042001F0DCFA01F050FA284601F035FA01F0FDF9B0F57A7F04DDD4F8A83DB3F57A7F11DB08F0E1FF0446134BD3F8A80D08F05D
:400D0000DBFF0146204609F0DFF8104909F028F809F002FA01E04FF6FF700B4BD3F8A02D03EB8202C2F8AC0DD3F8A02D013202F00302C3F8A02DD3F8A42D013202F001027F
:400D4000C3F8A42D38BD00BFA881FF1F0060EA4608B5204B503A83F8BC2D83F8BD0D83F8BE1D93F8C03D13F0FF0F07D002F054FE20B100221849032006F0D8F8154BB3F8AF
:400D8000C22D0432A3F8C22DD3F8C43D0B2B18D8591C104A92F8BC0D134483F8C80D4B1C92F8BD0D114481F8C80D591CC2F8C41D92F8BE1D134483F8C81D0123C2F8D83D4C
:400DC00008BD044AB2F8DC3D9BB201339BB2A2F8DC3D08BDA881FF1F648FFF1F08B5224B203983F8BC1D00F07F0283F8BD2DC01183F8BE0D93F8C03D13F0FF0F07D002F059
:400E00000BFE20B100221949032006F08FF8164BB3F8C22D0432A3F8C22DD3F8C43D0B2B18D8591C104A92F8BC0D134483F8C80D4B1C92F8BD0D114481F8C80D591CC2F8B1
:400E4000C41D92F8BE1D134483F8C81D0123C2F8D83D08BD044AB2F8DC3D9BB201339BB2A2F8DC3D08BD00BFA881FF1F648FFF1F10B50C46244B703A83F8BC2D83F8BD0D76
:400E800083F8BE1D93F8C03D13F0FF0F07D002F0C3FD20B100221D49032006F047F81A4BB3F8C22D0432A3F8C22DD3F8C42D0B2A17D8511C93F8BC0D1A4482F8C80D4A1C96
:400EC00093F8BD0D194481F8C80D511CC3F8C41D93F8BE1D1A4482F8C81D0122C3F8D82D07E0094AB2F8DC3D9BB201339BB2A2F8DC3D002C03DD012005F038FF10BD00201F
:400F000005F034FF10BD00BFA881FF1F648FFF1FF8B5074616460D1E14DD284608F0CCFE4FF05E5108F01CFF08F0D0FB3E4908F00DFE3E4908F014FF09F0EEF805467F2852
:400F400000DD7F25002D0DDC55E0394A02EBC302D2F8E42D914203DA3549C1F8003E1146013301E000231946032BEEDD182D01DD002300E00123BBB134E02D4B03EBC40392
:400F8000D3F8E00D00280DDB00221146FFF770FF274B03EBC4034FF0FF32C3F8E02D0022C3F8E42D013400E00024032CE5DD204C04F6086300200021C3E9000104EBC6039D
:400FC000C3F8E07DC3F8E45DA319002683F8106E324629463846FFF74BFFC4F8146E84F8246EF8BD124AD2F8283E013303F01F03C2F8283EF8BD0E4B03EBC603D3F8E00DEA
:40100000002803DD00221146FFF732FF084A02EBC6014FF0FF33C1F8E03D0023C1F8E43D164486F8103EF8BD0918C43C551D0243A881FF1F10B502F06DFE68B102F07CFE1D
:4010400050B11C4B93F8C03D13F0FF0F04D002F0E3FC08B106F012F802F06EFE40B302F059FE78B1144B1878144B1A78144902F043FD144C20784022134902F0FFFC2078A4
:4010800002F0E6FC0B4B93F8C03D13F0FF0F04D002F0C2FC08B105F0BFFF064B93F8C03D13F0FF0F04D002F0B7FC08B105F0B8FF10BD00BFA881FF1F3895FF1FF494FF1F51
:4010C000F894FF1FCC95FF1FD095FF1F08B502F0A3FC30B905F0A2F800220E4B83F8C02D13E00C4B93F8C03D13F0FF0F0DD10121002005F017F902F01FFE0028FBD005F09C
:40110000BDFF0122034B83F8C02D0022014B83F82C2E08BDA881FF1F10B5184B02221849002004F0C5F802F077FC012824D1154B93F8303EDBB2012B0DD1124C002084F8E0
:40114000340E0E4B022204F6346103F0FBFF012384F82C3E10BD0B49012381F8343E074B022201F63461002003F0ECFF05F056F805F0FCF901F026FA10BD00BFB095FF1FCD
:40118000D88FFF1FA881FF1F08B505F0B3FE05F0C7FEFFF7C1FF08BD10B50446002108F09BFF48B10549204608F0DAFD08F01AFA034908F0D5FD10BD024810BDD27EFA3D00
:4011C000AC7F8A410080BBC410B582B0BDF814400194BDF91040009403F0D2FC02B010BD10B582B0BDF81040009403F0E5FC02B010BD00BF08B5FFF795FA08BD2DE9F04F8D
:4012000085B002900D4616461F46BDF938B0BDF83C300393584608F04FFD0446304608F04BFD0146204608F091FC20F00048384608F042FD0446284608F03EFD01462046C5
:4012400008F084FC20F0004319460193404608F043FF28B13B465F469B462B4635461E46BD4205DD33465E469B462B463D461F46C5EB070A1FFA8AFA0FFA8AF4584608F00D
:401280001BFD8146304608F017FD0146484608F05DFC20F0004008F03FFF0FFA80F904EBD47464105E4502DA4FF0010B21E04FF0FF3B1EE00199404608F00EFF30B1039B0E
:4012C0002A4631460298FFF795FF05E0039B324629460298FFF78EFFC9EB0404A3B21CB2002C04DA5E4436B20AEB030424B201352DB2BD42DEDD05B0BDE8F08F10B4244B3C
:4013000093F8363ECBB91CE0CA5C12F0800F0BD11F48D0F82028541CC0F82048C2F30902CC5C0244147106E0F72A04D10022184B83F8362E2AE0013300E00023022BE3DD73
:4013400024E00B78F02B21D1114B1B78F3B94B787E2B04D101220E4B83F8252816E0ABB90B4B012283F8362ED3F8203873B99A180748C3F3090303444C781C71531CC0F836
:401380002038C2F3090283188A781A7110BC7047A881FF1F80B582B062B605F029FC0028FBD09D4805F090FD012002F03DFB9B4805F0A8FD02F030FB08B9FFF7ADFE05F0F4
:4013C00067FD01F077FA00F0F3FEFFF70DFCFFF7BDFB05F039F805F033F805F0B7F905F06DF905F01DF9642001F0D6F8FFF77AFB03F06EFA0A2001F0CFF804F06DFA0A20D8
:4014000001F0CAF8002004F0E9FFFFF73BFC012004F0E4FF052000F039FF04F035FA04F057F904F065FA7E4B0122C3F8C42D93F8253813F0FF0F01D0FEF7D2FF784BD3F81B
:40144000A43D002B40F0AE81754BD3F8A02D03EB8203D3F8AC2D4FF6FF739A4240F09F806F4BD3F8A02DD3F8A00D6E4901EB8001D1F8001503EB8202C2F8381ED3F8A02DCA
:40148000134493F8103E002B5AD0654CD4F8A02DD4F8A00DD4F8A01D04EB4101B1F8483E013303F01F0303EB401304EB8303D3F8501E04EB8203C3F8381ED4F8A01DD4F8E9
:4014C000A02D04EB4202B2F8483ED4F8A02D04EB8202D2F8382E03EB411304EB8303C3F8502ED4F8A02DD4F8A03D04EB4303B3F8483E04EB4202013303F01F03A2F8483E4C
:40150000D4F8A03D04EB8303D4F8A01D454A02EB8102D2F80015D3F8380E08F017FB424908F01EFC4FF08C4108F012FBD4F8A03DD4F8A02D3D4B03EB820343F8A80C31E11F
:40154000374BD3F8A00DD3F8A01D03EB4101B1F8482ED3F8A04D334901EB8401D1F8001502EB401203EB8202C2F8501ED3F8A01DD3F8A02D03EB4202B2F8482E03EB41019C
:40158000013202F01F02A1F8482ED3F8A02D274B03EB82034FF08C4243F8A82C02E1204AD2F8A03D134493F8103EBBB1D2F8A00DD2F8A04DD2F8A01D02EB4101B1F8483E9A
:4015C000013303F01F0303EB441302EB8303D3F8503E02EB8002C2F8383EC3E0104AD2F8A04DD2F8A00D114B184410F8981CD2F8A00D02EB8000D0F8AC0D01EB440103EBCF
:40160000810141F8940CD2F8A02D03EB8202002342F8743C20E000BF00A3000089110000A881FF1F00A200000080AA43A092FF1FD348D0F8A01DD34A03EB410102EB81013B
:4016400051F8941CD0F8A00D02EB800252F8740C014442F8741C0133012BE9DDC84CD4F8A02DD4F8A03DC74D2B4413F8983C2A44013303F0010302F8983CD4F8A03DD4F8FA
:40168000A02D05EB820252F8742C520805EB830343F8742CD4F8A07DD4F8A03D05EB830353F8740C08F004FB8046D4F8A03DB64E06EBC303D3F81095D4F8A03D06EBC30390
:4016C000D3F8140508F0F4FA8246484608F0F0FAAE4B0093AE4B524601464046FEF7F0FF01464FF07E5008F0EFFB05EB870747F8640CD4F8A07DD4F8A03D05EB8305D4F8E1
:40170000A03D06EB8306D6F8301555F8640C08F027FBFFF741FD04EB8707C7F8380ED4F8A01DD4F8A02D04EB4202B2F8483ED4F8A02D04EB8202D2F8382E03EB411304EBC0
:401740008303C3F8502ED4F8A02DD4F8A03D04EB4303B3F8483E04EB4204013303F01F03A4F8483E864CD4F8A03D04EB8303D4F8A01D854A02EB8102D2F80015D3F8380EBA
:4017800008F0E4F9834908F0EBFA4FF08C4108F0DFF9D4F8A03DD4F8A02D7A4B03EB820343F8A80C764BD3F8A02D03EBC203D3F8E03D002B23DB724BD3F8A03D714C04EB38
:4017C000830353F8A80C08F0A7FC54F8543C984215D06B4DD5F8A03D04EB830353F8A80C08F0C0FC0021FFF7F9FAD5F8A03D04EB830353F8A80C08F08FFC44F8540C01203C
:4018000004F012FE002865D16FE05E4D55F8506CA0B204F0FBFD06EBC40605EB860646F84C0C05EB840500226A650CE0554B02EBC40103EB810151F84C1C03EB8403586D35
:40184000014459650132072AF0DD4E4A02EB84014B6DDB084B6502EB4402B2F8682002F119018B4202D8193A934204D25B09454A224482F87430434B1A1992F874108AB246
:4018800003EB4403B3F87C309A4216D0032C06DC0022C1F17F0104F11100FFF759FA042C0BD105F05BFA40B1364B2344002293F8741004F11100FFF74BFA324B1A1992F84B
:4018C000742003EB4403A3F87C205201A3F86820013400E00024042C97DD2A4A52F8503C013303F0070342F8503C04F029FF10F0010F06D104F024FF10F0100F03D1002324
:4019000002E0012300E00123002BEED00024A2E0214B1B78221D134113F0010F15D0184B03EB8403D3F8AC2D4FF6FF739A420CD1134B1A19012182F8241E03EB8403D3F8E9
:40194000142E0A44C3F8142E08E00D4B1919002281F8242E03EB8403C3F8142E084B234493F8243ED3B1064B03EBC403D3F8E03D002B13DB024B2344012283F8102E12E055
:40198000A881FF1FA092FF1F00A20000C1A1F13EC1A1713F0080AA435494FF1FB44B2344002283F8102EB24B03EB8403D3F8143E802B0FD9AE4B03EBC403D3F8E03D002BB4
:4019C00008DBAC4B03EB840322460021D3F88800FFF79EFA6300A64AD11891F8545D0133134493F8543D03EB0525A24B03EB8403C3F89850002D15DD9E4B03EB8403D3F8AC
:401A0000A8307BB9A6009C4B3344D3F8000508F083FB984B1E44C6F8880022462946FFF777FA10E07DB9934B03EB8403D3F8A830002B08DD8F4B03EB840322460021D3F8B8
:401A40008800FFF765FA8B4B03EB8403D3F89820C3F8A8200134032C7FF75AAF04F012FE10F0010F06D104F00DFE10F0100F03D1002302E0012300E00123002BEED07C4B9B
:401A800093F8243813F0FF0F0CD020E0784B134493F8C81DC9B283F8901D002183F8C81D013200E000220F2AF0D9714BD3F8D83D23B101226E4B83F8902D03E000226C4B2D
:401AC00083F8902D00226A4BC3F8D82D3EE0694B93F8B83083B1664B032283F8902D93F8092483F8912D6349002281F8B82083F82428A1F8BA2029E05D4A022382F8903D2A
:401B000092F8091482F8911D1EE05A4AB2F8BA205749B1F82A188A420CD2501C5549A1F8BA0053490A4492F81424D2B2194481F8902D08E04E4A1A44EE2182F8901D012125
:401B40004C4A82F8B81001330F2BDED9484BD3F8C43D102B02D9012005F008F9444B0122C3F8C42D93F8903D13F0FF0F0CD004F07BFD3F4C94F8640D012100F099FF94F80F
:401B80008C0D012100F094FF394B93F82C3E13F0FF0F01D0FFF79AFA354B93F8C03D13F0FF0F13D001F038FF80B1314BB3F8C23D402B05D92F4AB2F8BC300133A2F8BC3075
:401BC00000222B4BA3F8C22DFFF734FA03F068FE0028FBD103F06CFD284B1A78244B83F8842DD3F8A02DD3F8A01D03EB810191F8AD1D03EB420282F87C1DD3F8A02D520044
:401C00000132D3F8A01D03EB810191F8AC1D1A4482F87C1D174991F8BE2002F00F0083F88B0D013281F8BE2093F8843D13F0010F03D0012005F0A6F802E0002005F0A2F8DA
:401C400004F06AFD0A4C94F8500D012100F030FF94F8780D012100F02BFF04F60864D4E90023013243F10003C4E90023FFF7CABBA881FF1FA092FF1F00A200005494FF1F02
:401C8000024B187800F00700704700BF02410040034B1A7800F0F80010431870704700BF02410040014B188880B270470041004070B505460E46FFF7E3FF0446FFF7F2FF98
:401CC000A84256D02B4B1B7803F0010294B900B185B938B9284B1D80284A137803F0BF03137070BD254A137843F040031370224B1D8070BD22B3002321490B7001241331C6
:401D00000C7004390B7008390B7803F07F030B701A4B1B7813F0080F00D08DB9194B18800721013B1970164B1B7813F0010FFAD110490B7803F0FE030B700021104B197088
:401D40000C4B1B7813F0010F0DD00E4B1D800EB1032200E001220A4B1A70094B1B7813F0010FFAD170BD044B1D8002490B7813430B7070BDA14300400041004002410040FB
:401D80000140004002400040024B187800F00700704700BF82400040034B1A7800F0F80010431870704700BF82400040014B188880B270478040004070B505460E46FFF72A
:401DC000E3FF0446FFF7F2FFA84256D02B4B1B7803F0010294B900B185B938B9284B1D80284A137803F0BF03137070BD254A137843F040031370224B1D8070BD22B3002300
:401E000021490B7001240F310C7004310B700C390B7803F07F030B701A4B1B7813F0080F00D08DB9194B18800721013B1970164B1B7813F0010FFAD110490B7803F0FE03C1
:401E40000B700021104B19700C4B1B7813F0010F0DD00E4B1D800EB1032200E001220A4B1A70094B1B7813F0010FFAD170BD044B1D8002490B7813430B7070BDA24300407D
:401E800080400040824000400140004002400040704700BF074B1B7813F0020F08D0064BB6221A70E0221A700D221A70072070470420704722470040204700400C4B1B78EB
:401EC00013F0020F0FD00B4BB6221A70E1221A700E221A7002331B7813F0020F05D1054B187007207047042070470920704700BF224700402047004030B4104C247814F0DE
:401F0000020F15D00E4CB6252570D8252570052525700234247814F0020F0BD1084C2070080A2070C9B2217022702370072002E0042000E0092030BC704700BF22470040D5
:401F40002047004070B41D4C247814F0020F2CD01B4CB6252570D5252570022525700234247814F0020F22D1154C2070002404E0165D134D2E700134A4B29C42F8D3B3F53E
:401F8000807F16D13F2816D800F5103001EB00214801002305E01A5CD2B209490A7001339BB21F2BF7D9072006E0042004E0092002E0072000E0072070BC70472247004018
:401FC0002047004008B505F05FF90A4B00221A705B68012B0AD1084A136843F00103136000BF00BF00BF0022024B5A6005F050F908BD00BF7C93FF1F0400084010B505F093
:4020000043F90F4B1B78A3B901220D4B1A700D4B1B6813F0010F0ED00A4A136823F00103136000BF00BF00BF0122054B5A60002402E0042400E0002405F02AF9204610BD0A
:402040007C93FF1F0400084008B505F01DF9064A137843F0080313701032137843F00803137005F015F908BDA043004010B5044602F07EFC204602F039FC10BD08B505F083
:4020800003F90A4A137843F020031370013A137843F010031370A2F58072137843F01003137005F0F5F804F0D1FA08BD9A65004008B50F22074B1A7004F010FB04F040FB63
:4020C00004F038FB0222044B1A702022A3F580731A7008BD8A65004089650040154B1B7803F00303012B07D8134B1888023B1B889BB243EA004013E0022B0AD10E4B1888C0
:40210000023B1B7843EA00430C4A107843EA002006E00B4B188883B2074A108843EA0040084B1B7A13F0FF0F02D00022054B5A72704700BF144E0040124E0040114E00406D
:40214000104E00407C93FF1F094B1B7A13F0FF0F03D0074B5B7ADBB203E0064B1B7803F00103012B01D00028EED01846704700BF7C93FF1F014E0040024A137843F00103D4
:4021800013707047004E004010B50446074B1878FF2801D0FFF76AFF204602F019FC204602F0C6FB014B1C7010BD00BFC480FF1F10B5002407E0204602F0DAFB204602F06E
:4021C00095FB0134E4B2012CF5D9FF22014B1A7010BD00BFC480FF1F134B1B78DBB20360124A127843EA02230360114A127843EA024303600F4A127843EA026303600E4B3D
:402200001B78DBB243600D4A127843EA022343600B4A127843EA024343600A4A127843EA02634360704700BF0301004904010049EC4600400201004901010049000100499A
:40224000050100490601004908B505F01DF800BF00BF00BF00BF00BF00BF00BF00BF00BF00BF00BF00BF00BF00BF00BF00BF064A13889BB243F0040313801388BFF36F8FB8
:4022800005F006F808BD00BF0048004008B500EB8003C0EB031004F0EFFF08BDF8B5074604F0F2FF06460D4D2B7843F003032B700B4C237843F0030323700A4B1F700320CE
:4022C000FFF7E4FF2B7803F0FC032B70237803F0FC032370304604F0DBFFF8BDF8460040F94600409258004070B504F0CDFF06462A4B5B782A4B1A7842F001021A701A78C4
:4023000042F010021A7010331A7842F001021A701A7842F010021A70224D2B7843F002032B70214C237843F0020323701F4A137843F0030313700320FFF7A8FF2B7803F01D
:40234000FD032B70237803F0FD032370184A137843F0060313707A22164B1A70164A137843F0010313701032137843F0010313700F3A137843F0010313701032137843F0B4
:40238000010313704FF000530C4A1360A2F5C0721360304604F07CFF70BD00BFC480FF1FAA430040F8460040F9460040915800407758004082580040A143004080E200E0EA
:4023C00070B506460D4600240CE00120FFF75EFF064B1B7813F0010FF7D0054B1B7833550134E4B2AC42F3D3204670BD22470040204700402DE9F041441FE4B23A2C01D98A
:40240000002500E0012510F0800F00D00125412800D901253F2803D8B1F5807F06D808E0802900D90125102B02D102E0012500E0012502B90125002D50D1984616460F4655
:402440000446FFF7DBFD002847D14346324639462046FFF777FD064607283AD102E00120FFF714FF1F4B1B7813F0020FF7D01D4B1B7813F0020F06D01A4B1B789B0805D0F5
:402480004FF0FF3603E04FF0FF3600E02E4606BB154A537B127B39462046FFF72DFD072804D0064615E00120FFF7F0FE0D4B1B7813F0020FF7D00B4B1B7813F0020F06D09B
:4024C000084B1B789B0804D04FF0FF3601E04FF0FF36FFF777FD354600E004252846BDE8F08100BF224700407C93FF1F10B5FFF7ABFDFFF783FDD0B9FFF7CCFC0446072816
:4025000012D102E00120FFF7C1FE0A4B1B7813F0020FF7D0074B1B7813F0020F04D0054B1B789B0800D10024FFF74CFD00E00424204610BD2247004010B5FFF785FDFFF79F
:402540005DFD10BB0120FFF7B9FC072818D102210F48FFF735FF02280AD102E00120FFF795FE0C4B1B7813F0020FF7D0002409E0084B1B7813F0020FE9D04FF0FF3401E045
:402580004FF0FF34FFF71EFD00E00424204610BD8893FF1F2247004010B5044604E0074804F06AFEA4F50044B4F5004FF7D8044800FB04F004F060FE10BD00BF0000059A81
:4025C0000A340100024A137843F0010313707047F646004001BE704710B59DF80840012C52D1013809282ED8DFE800F0052D2D052D2D0F192D230F2B03D92548007840B226
:4026000022E02448007840B21EE00F2B03D92248007840B218E02148007840B214E00F2B03D91F48007840B20EE01E48007840B20AE00F2B03D91C48007840B204E01B4861
:40264000007840B200E0002001EB401101FB02F1C90B8AB20D2B0BD8C3F10E0289B211418AB2611E124800EB810101338B7405E0631E0F4901EB83030F219974013C0C4B92
:4026800003EB8404228210BD0020FFF7A3FF10BD180100491C010049190100491D0100491A0100491E0100491B0100491F0100497C93FF1F38B504460D46072902D90020A0
:4026C000FFF788FF1F2C02D90020FFF783FF04F01F0000F1604000F564406D01EDB2057038BD00BF70B504460E46074B1D681F2802D90020FFF76EFF04F01F04103455F845
:40270000240045F8246070BD08ED00E00022314B1A7201285DD170B530222F4B1A70052202331A70082201331A70002401331C7001331C702D2201331A7002331C70013342
:402740001C7001331C7001250A331D70142203F527631A70102601331E70092201331A7001331C7022231D4A137024210132117004210132117002210232117001321370AB
:402780002822174B1A70EB2201331A704420FFF785FDC022134B1A70032201331A7005331D7001331D7001331C700A2201331A704FF47A52074B5A6129460620FFF7FCFAC2
:4027C00029463046FFF774FA07491D20FFF78AFF70BD70477C93FF1F004E00408A5800409058004094580040911E0000F0B583B0294E01277770294D00246C721020FFF7C4
:40280000CBFA1020FFF744FA06211D20FFF752FF0422234B1A7001331C7007331C70214A137843F0180313701F4B1C7003F2F5231C7001331C700A22A3F209331A7001334F
:402840001C7002331C70122205331A70132201331A7004331C701422A3F68C231A7000970E2347F2E97248F65C710720FFF7B4FE7378013B05EB83039A7C0C4B1A707378A2
:40288000013B05EB83052A8A094B1A807078FFF73DFF03B0F0BD00BFC480FF1F7C93FF1F96580040075B0040935800400E4E00400C4E004008B5084B1B7E4BB9064B5B7EF2
:4028C00013F0FF0F01D1FFF791FF0122024B1A76FFF70AFD08BD00BF7C93FF1F08B53F2801D9102301E04FF48073FFF783FD08BD08B5FFF7FBFD034610B9FFF71DFE034627
:40290000184608BD10F0800F08D1C00000F1804000F5F0408180C280002070470120704710F0800F0CD111F4704F0BD1C00000F1804000F5F04001808270C3700020704765
:40294000012070470120704710F0800F12D110B5044604F099FCE30003F1804303F5F043054A917819709470D3780133D37004F08FFC10BD704700BFC480FF1F10B504F054
:4029800083FC0A4BDB78182B0BD9084A9478013BD370E30003F1804303F5F0431B78937000E0FF2404F074FC204610BDC480FF1F17281BD810B4C00000F1804404F5EC4401
:4029C000D201D2B201F07F01114321709DF804201201D2B203F00F03134363709DF8083003F00F03A3700020E07001E00120704710BC7047172805D8034B03EB0010417200
:402A000000207047012070471070004041F6FF73994201D14FF4005141F6FF739A4201D14FF40052172808D8C00000F1804000F5EC408180C280002070470120704700BFEF
:402A400017280BD80001064A835C03F0F103490001F00E011943815400207047012070471070004017280CD80001074BC1180A7942F004020A71C25C42F00102C254002026
:402A800070470120704700BF1070004017280BD80001064BC25C02F0FE02C254C25C02F0DF02C254002070470120704710700040172815D831B103010A495A5C42F0200289
:402AC0005A5405E0030107495A5C02F0DF025A540001044A835C43F0010383540020704701207047107000400B4A7F2393708021D17007E0DA0002F1804202F5F042013B56
:402B0000DBB21370002BF5D1DB0003F1804303F5F04300221A707047C480FF1FF0B5C3B00446836800931D680127002623E0009F4FF48072394601A805F066FD013501953C
:402B4000802121A802F076FA2090224601A9384602F05AFAA069009B1B1A2068224601A9184402F051FA0746234641AA6946284602F0BAFA01366268236903FB02F39E4233
:402B8000D5D3384643B0F0BDF0B5059C069F00251560DD01A54206D85E1CF601013EB44203D9002602E0002600E00126D6B104F07F02803202603C44A54206D80133DB010B
:402BC000013B9C4203D9002302E0002300E001231BB117440F600020F0BD4FF480730B600020F0BD04EB070E754505D80133DB01013B9E4500D8012666B180230360FB18E9
:402C000064F07F041C440C6003681C1B274417600020F0BD0120F0BD70B4002401232EE026491A018D180C268E541D226A7003EB43018A0022490A44527912F0FF0F17D0C5
:402C400003EB43018A001E490A44127912F0800F03D018011B4A16540FE01801194A082111545A1E0121914041EA0402D4B204E01901154A0A44802191700133DBB2082BB0
:402C8000CED95522114B1A70202230331A70002201331A7003222F3B1A7001331C700D331A7842F080021A701A7802F07F021A70FF22923B1A7070BC704700BF706000405F
:402CC0003C95FF1FFE5F0040FC5F00408C600040704700BF054B00221A80DB682BB1034AD16800230B70D268538070479893FF1F054BDB683BB1044BDA681070DA6819883C
:402D000051800022DA6070479893FF1F10B50B4B1B7C13F0FF0F07D0084A137C43F0800307490B7000231374044C002363740120FFF7DEFF0323A37410BD00BF9893FF1F70
:402D40000860004010B5044C002363740120FFF7CFFF0323A37410BD9893FF1F10B4184B197801F00F010239C9B2164A13889BB20B449BB21380002011E0124A9468124BB8
:402D80001B5CDBB223709368013393600130C0B20139C9B293889BB2013B9BB29380094B9B889BB20BB10029E7D1064BD9741A7D82F080021A750B229A7410BC704700BF68
:402DC000296000409893FF1F0060004010B5074C627D23889BB213449BB22380002363740120FFF785FF0323A37410BD9893FF1F054B02225A7480221A750F229A7400222F
:402E00005A75DA74012070479893FF1F1B4A517D13889BB20B449BB2138000220FE017498B681B78DBB2164883548B6801338B600132D2B28B889BB2013B9BB28B800F4B3A
:402E40009B889BB20BB1072AE9D90C4B5B7DDBB2082B00D04AB1094B197D81F0800119750F2199740221597403E0044B022199745974024BDA745A75704700BF9893FF1F8A
:402E80000060004008B5FFF7C1FF08BD10B50E4B9B889BB213B9FFF7ABFF12E00A4C0223637400232375FFF715FF084AD179937943EA0123A28892B2934200D2A380FFF710
:402EC000A5FF012010BD00BF9893FF1F0060004008B50B4B5B7CDBB2042B06D0062B07D0022B0BD1FFF772FF08BDFFF737FF08BD0320FFF7FDFE0322014B9A7408BD00BFD7
:402F00009893FF1F08B5094B5B7CDBB2042B06D0062B07D0022B07D1FFF7B4FF08BDFFF711FF08BDFFF7F2FE08BD00BF9893FF1F10B4F1B91F4C21180B7EDB0003F18043A8
:402F400003F5F04304EB4002928C92B2203A92B21A800B7EDB0003F1804303F5F04304EB8004A26B203292B29A80012381F85C3015E0104A11180B7EDB0003F1804303F531
:402F8000F04302241C800B7EDB0003F1804303F5F04302EB8002926B1E3292B29A80054B184490F86820044B03EB0213027E5A7210BC70479893FF1F10700040F8B5264BB8
:402FC0001F78FFB2012444E017F0010F3ED026462201224B13449A785D78154015F0010F31D004EB440293001D4A13441B7913F0800F28D0194922018B5C03F0FE038B5493
:40300000184B03EB44039B8C9BB2202B04D900212046FFF78DFF04E0124B2344012283F85C2006EB460293000D4A13445A79D2B231010D4B5A540D4B1B78DBB29C4202D15F
:4030400000220B4B1A7036010A4B9D550134E4B27F08002FB8D1F8BD9F600040706000403C95FF1F9893FF1FFE5F00403895FF1FF494FF1F7260004070B588B0054603ACF3
:40308000174E0FCE0FC43368237035B322232B7003236B7001A8FFF79FF8002402231AE008AA224412F81C2C08A901EB121111F8141CE954581C00212954981C02F00F0222
:4030C00008AE324412F8142C2A54DA1CA9540134E4B20433DBB2212BE2D908B070BD00BF48B9000008B503F0E7FE08BD2DE9F04103F0F2FD00F07F0503F090FD00F003063E
:4031000001242DE015F0010F20D02201164B9B5C13F0010F1AD1154B234493F85C3013F0FF0F13D1DFF8488017464244002353716301023BDBB2137101212046FFF7F8FE7D
:4031400018F8073043F0010308F807300134E4B26D08002DD6D1760802D006F001050824002EF6D1BDE8F081726000409893FF1F7060004008B503F0AFF808BD08B502229B
:403180000D4B1A700F3B93F822300C4B1B7E03F00303012B04D0094AD37E83F08003D3760122064B5A76064B1B78DBB2022B01D103F036FF08BD00BF0B6000403C95FF1F40
:4031C000CC95FF1F08B501220C4B1A700F3B9B7C0B4B1B7B03F00303934204D0084AD37B83F08003D3730122054B5A73054B1B78DBB2934201D103F013FF08BD0B600040F8
:403200003C95FF1FCC95FF1F10B5044600EB40039800184B1844037913F0800F03D00A0C4FF4804302E00B0C4FF48042012C02D0022C09D010E00121202003F003FD0E4BED
:40324000234483F8680007E00121202003F018FD094B234483F86800631EDBB2072B08D8FFF78CFB044B1C442076FFF787FB84F8740010BD3C95FF1F9893FF1F054B1B78E3
:4032800028B9C3001033044A1344586870470020704700BF1A96FF1F00BC0000F8B5474B1B7813F0FF0F00F08880444B18780138C0B2FFF7E3FF047AC268414B93F87D0032
:4032C000C0B2002377E01178884271D13D49095CC9B25578A9426BD1957805F07F05D67806F00306DFF8E0E0690029448F000EEB07014FF0000C81F803C092F802C081F8D7
:4033000004C092F803C00EF807C097880F8192F9021000290DDA012E01D1072700E00D276E002E44B100284E31444F7101264E700CE0012E01D1052700E009276E002E44E6
:40334000B100214E31444F7100264E7029011F4E012777541E4F7E5C06F0FE067E54691E4900C9B21B4E3170317841F0010131701849097811F0100FFAD092F90210002913
:4033800008DA154F3E78013D0121A94026EA0101397008E0104F3978013D012606FA05F52943C9B239700B4D297801F0FE01297008320133DBB2A34285D3F8BD1096FF1FF3
:4033C0009893FF1F1496FF1F3C95FF1FFE5F004070600040146000408F6000402DE9F041002310E0684D5900CA189600AC190022AA55A270E2702281A272627034462C44A0
:4034000062710133DBB2082BECD940B90AE000225E49CA545E49CA540133DBB200E00023012BF4D95B4B1B7813F0FF0F00F0AA80584B18780138C0B2FFF720FF4368DB795E
:4034400013F0400F07D0544A92F87E3043F0010382F87E3006E0504A92F87E3003F0FE0382F87E30057A012472E0C16800236BE08A7802F07F02944263D1274604EB440668
:40348000B200414E3244128992B28E88B24207D204EB440E4FEA8E02DFF8ECE0724416810A783A4EB25CD2B24E78B24249D191F802E0354E7B003B449A00B31883F804E07D
:4034C000CB78B354CB7803F0030391F90220002A1BDA012B02D14FF0070801E04FF00D08DFF8A4E07A0002EB070C4FEA8C06764486F805803246012656708A79B24225D14A
:40350000022B23D1254B1C7020E0012B02D14FF0050801E04FF00908DFF86CE07A0002EB070C4FEA8C06764486F805803246002656708A79012A09D1022B07D1184B1C706D
:4035400004E008310133DBB2AB4291D30134E4B2082C8AD9C06800220CE0837803F07F0310F8084B03EB43039900074B19448C720132D2B2AA42F0D303F060FE094B1860BC
:40358000FFF74AFBBDE8F0813C95FF1F1496FF1F1896FF1F1096FF1F9893FF1F3895FF1FCC95FF1FA895FF1F044B06225A749A7480221A750022DA74012070479893FF1F50
:4035C00010B5984B1B78DBB20021974A918013F0800F00F0B180934A5278D2B20A2A00F27581DFE812F06700730173017301730173010B007301960073019E00894BDB7834
:40360000DBB2012B09D103F02DFE4268864B9A6012229A80FFF73AFC10BD824BDB78DBB2022B13D17F4B9878FFF728FE002800F04F8142687C4B9A609A68D1789A689278BF
:4036400042EA01229A80FFF721FC10BD754BDB78DBB2032B05D02AE00A7811440133DBB201E0002371496F4A9278D2B2934203D20A7812F0FF0FEFD16A4B9B7813F0FF0FE2
:4036800009D0684B9B78DBB2802B04D1684C2046FFF7F2FC21460B7813F0FF0F00F01A810B78614A93809160FFF7F0FB10BD03F06FFA10BD13F003031AD0022B40F00C81F4
:4036C000594A9380574B1B7903F07F0303EB43039900584B19448B78DBB282F8A430002382F8A53002F1A4039360FFF7CFFB10BD4D4B02229A8093F87E20D2B283F8A42070
:40370000002283F8A52003F1A4029A60FFF7BEFB10BD454B01229A80474A9A60FFF7B6FB10BD414A012393803E4B1B7943490B449360FFF7ABFB10BD3A4A5278013A0A2A78
:4037400000F2CC80DFE812F04F00CA009100CA000B00CA00CA00CA001300CA003100314B9B78DBB2304A1374FFF71EFF10BD2D4B9B7803F0FF041BB1601EC0B2FFF77EFDAC
:4037800004B110B9002C40F0AB802B4B1B78DBB29C4207D0284B1C700120234B83F8A600FFF71CFEFFF700FF10BD03F08BFC002800F098801B4A1379DBB21279D2B21A499E
:4037C00081F87D201E4AD25CD2B21C49CB5CDBB29A4205D00122144B83F8A620FFF75EFDFFF7E2FE10BD03F00303012B2AD04BB1022B79D10B4B9B7813F0FF0F76D103F0D2
:4038000087FC10BD074B9B78DBB2012B70D1064A92F87E3003F0FD0382F87E30FFF7C4FE10BD00BF006000409893FF1F78B800001894FF1F3C95FF1F1096FF1F1496FF1F94
:403840001896FF1F304B1B79DBB2012B52D82E4B99781B792D4A134493F8A82022EA010283F8A820FFF7A0FE10BD03F00303012B19D04BB1022B3FD1234B9B7813F0FF0FBF
:403880003CD103F0A3FC10BD1F4B9B78DBB2012B36D11E4A92F87E3043F0020382F87E30FFF782FE10BD184B1B79DBB2012B29D8154B99781B79154A134493F8A82022EA51
:4038C000010283F8A820FFF76FFE10BD002010BD002010BD002010BD002010BD002010BD002010BD002010BD002010BD002010BD002010BD002010BD002010BD002010BD49
:40390000002010BD002010BD006000409893FF1F08B5134B1A78D2B21A701B78DBB213F0800F02D00F4A937408BD0220FFF7E0F90D4B1B7803F06003202B05D0402B06D0CD
:4039400043B9FFF73DFE06E003F022F903E003F0ADFB00E0002010B90322024B9A7408BD286000409893FF1F0060004008B5274B1B78DBB213F0100F47D013F0800F0CD0F3
:4039800003F00F03012B16D1FFF7C2FF204B9B7C13F0800F11D1012312E013F0400F03D0FFF7B0FA01230BE013F0200F07D0FFF78FFA012304E0002302E0002300E000239D
:4039C0001BB3124B1B7813F0800F1ED1104A137DD27C13430F4A13701278D2B2934214D10B4B9B7CDBB2094A127812F0800F07D1074B9B7CDBB2054A1370137803F00F03BE
:403A0000034A927CD2B29342EAD108BD286000409893FF1F29600040024B187800F00100704700BF6A64004038B1084A92F87E3043F0010382F87E307047044A92F87E3017
:403A400003F0FE0382F87E30704700BF9893FF1F431EDBB2072B0BD8420002449300054A134400225A705A79D2B20001024B1A54704700BF3C95FF1FFE5F0040F8B579B3CD
:403A8000044616460F4668B308282DD8184B03441B7EFF2B01D1FFF7B7FB154D254495F86800FEF7F3FF287E122302463146FEF737FF24010F49214489B2BAB2287EFEF744
:403AC00021FF95F86800FEF7CDFF297E95F86800FEF790FF012195F86800FEF7E9FF04E0002602E0002600E000263046F8BD00BF9893FF1F78600040431EDBB2072B00F267
:403B0000AE802DE9F04116460F46044600EB40029300534A1344DB7843EA16235149020188188B54F3B243704F4B23441B7EFF2B03D139462046FFF767FB002F46D0DFF843
:403B4000288108EB040595F86800FEF79FFF08EB44039E8408EB8408C8F83870112395F874203146202E28BF2021287EFEF7D8FE4FEA041808F108023C4E324492B2B9B21B
:403B8000287EFEF7BFFE95F87400394B1C4494F8C43002460121FEF7C3FE08EB060292B2344989B295F87400FEF7ACFE95F86800FEF758FF297E95F86800FEF71BFF012183
:403BC00095F86800FEF774FFBDE8F08104EB44029300234A134400225A70A6B3224F07EB44039E843D1985F85C2095F86800FEF74DFF112395F874203146202E28BF2021EE
:403C0000287EFEF78DFE07EB840722010832174E324492B2398F287EFEF774FE95F86800FEF720FF297E95F86800FEF7E3FE012195F86800FEF73CFF2401335D43F00103E2
:403C40003355BDE8F08104EB44029300044A13445A79D2B22401084B1A55BDE8F08170473C95FF1FFC5F00409893FF1F7060004078B80000C880FF1FFE5F0040F8B506461F
:403C8000082801D9012400E004462546114B23441B7EFF2B0AD00F4F274497F86800FEF7F5FE387EFEF750FEFF233B76094B2B4493F87400FF2806D0FEF746FE054B1D44C3
:403CC000FF2385F874300134E4B2082C01D8092EDBD0F8BD9893FF1F431EDBB2072B0BD8064B00011A18185C00F00F00537843EA0020023880B2704700207047FC5F004022
:403D000000EB40008300024A13445878704700BF3C95FF1F074B93F8A63013F0FF0F07D0044B93F8A600C0B2002283F8A6207047002070479893FF1F014B1878704700BFE4
:403D40001096FF1FFEE700BF838A63B1838919448388994207DB00238381828BC189438901FB02334381038CF3B110B4836933B9818BC38903FB01F1013909B200E000213D
:403D800043898CB2C28BC18901FB02F292B2234413449BB2C1888B4205D300238381091B8A1A013A428110BC704700BF10B503F06BFA04461C4A137843F02003137001F0E4
:403DC000BDFB01F049FC01F023FC03F035F803F00FF8164A137843F010031370144B197841F010011970117841F0200111701A7842F020021A700F4A137843F001031370D2
:403E00000232137843F001031370204603F040FA094B02221A6004221A60084A137843F08003137010BD00BF9A640040BB430040AB4300407058004000E100E07C640040AF
:403E400008B503F029FA03680C2B00D1FEE7FEE7F8B5254B1B78DBB2244E3478E4B2244F3D78EDB203F00701224A11701B090132137044F00303337045F003033B700222D1
:403E80001D4B1A7010231D4A1370282110321170502110321170C0321370002302F27362137002321370402397321370023213708022134B1A702023124A13701832137039
:403EC0007A214D32117003321370193213702A220D4B1A700A20FEF7D9F93D70347066220A4B1A70F8BD00BFCF010049F8460040F94600406E5800400D5100401D510040EE
:403F0000935A0040C35A0040585B00407658004008B504F079FB08BD38B50024344B1C80502202331A7002331C80192502331D70042202331A8018232E490B7002310A80FF
:403F400002310B7036200231088002310B702A492A48FFF7DDFF0622294B1A70294B1B78DBB2294A13705222284B1A7040F62E5222331A8042F25122023B1A800BE0244B7F
:403F80001B7803F0010343EA440404F00304782003F072F9013D0DB1032CF0D115B90320FFF7D0FE1B4A4FF48073138007231370002319490B7048200231087013700532C8
:403FC00013700222154B1A7004220A331A70144A137843F01F031370013A137843F001031370013A137843F08003137038BD00BF804000408A400040B424004800410040A4
:40400000004300400F010049A14600400042004025420040044000400640004001400040A243004008B50022364B1A601021364B1970012301F1804101F5E0410B700931EC
:404040000A704FF4427001F2E771088002310B7003200131087001312C48088047F6080002310880A1F202210A804FF48041284A11800921A2F2DD5211700B2110321170B1
:404080000C2130321170182110321170BFF35F8F653A1370BFF35F8F1E4B1B889BB2002BFAD106E01C4A32F823101C4A22F833100133602BF6D9BFF35F8F0122184B1A7099
:4040C000BFF35F8F174B1B7813F0010FFAD1164B1B7813F0010FFAD1144B1B7813F0010FFAD1134B1B7813F0010FFAD1114B1B7813F0010FFAD106224FF090410E48FFF78B
:4041000007FF08BD4894FF1F007600402800000006760040007800405CB900000C7800401470004018700040287000403870004068700040787000401051014008B50A4654
:40414000002103F0D5F808BD38B572B661223F4B1A70FFF7E1FE3E4A137843F004031370FFF760FF4FF440733A4A1380023213800A24394B1C7003223B3B1A8040F2033245
:4041800006331A8004213548FFF7D8FF042234493448FFF7BDFE04213348FFF7CFFF04213248FFF7CBFF04213148FFF7C7FF04213048FFF7C3FF04222F493048FFF7A8FEC9
:4041C00004222F492F48FFF7A3FE2F4A137843F0020313701032137843F0020313702B4D2B7843F040032B70A2F58632513A137843F010031370082225492648FFF788FEF0
:40420000224625492548FFF783FE224624492548FFF77EFE082224492448FFF779FE082223492448FFF774FE224623492348FFF76FFE234A137843F008031370FFF708FEDF
:404240000E2229461F48FFF763FE38BD00480040E8460040705800408358004000760040B82400480876004010760040187600402076004028760040BC24004830760040E5
:40428000C02400483876004003500140A0430040782400480251004080240048C05100408C240048F05100409824004812510040A024004822510040A824004830510040C5
:4042C00022430040B04300402DE9F04F8DB00390049105921D46BDF858300693BDF85C709DF860A08269002A40F09F80014683880498984280F20381CB88059C9C4280F2E0
:40430000FE800AEB4A0253000344012B00F1F78004EBCA03012B00F1F280CB8A1BB9AF2D01D90135EDB24FF00008DDF81090DDF814B00795069E54E0079B03EB830343442B
:4043400003EB43039A00039B9B699D5C002442E015F0010F1DD0BAF1010F0AD104EB0B0208EB0901334612B209B20398FCF742FF2EE01FFA8AF10FFA8AF304FB01B208FB59
:4043800001910196009312B209B20398FCF71CFF1EE0BE421CD0BAF1010F0AD104EB0B0208EB09013B4612B209B20398FCF722FF0EE01FFA8AF10FFA8AF304FB01B208FB34
:4043C00001910197009312B209B20398FCF7FCFE013464B26D08072CBADD08F101084FFA88F8B8F1040FA7DD069BBB4200F08780BAF1010F09D10499053100970823059A06
:4044000009B20398FCF7ECFE79E01FFA8AF303EB8301049A11440197DB0000935346059A09B20398FCF7D0FE69E0137AEB1ADBB2506800EBC301D2F800B030F8337091F803
:404440000280CB78099391F905300A9391F906200B92BAF1010F04D91BB2079313B2089302E000230893079300231C46994643E05E1CF6B213F0070F03D17B1C1BF8074012
:404480009FB214F0800F2AD0BAF1010F0ED10B9B059A9A184A440A9B049959182944069B12B209B20398FCF7A5FE18E0079B59191FFA8AF0089B03EB09020FFA8AFE059B22
:4044C00002FB0032049B01FB0031069B01937346CDF800E012B209B20398FCF775FE6400E4B20135EDB2334600E000254545BFD309F101095FFA89F9099A9145F5D30DB068
:40450000BDE8F08F08B50022174B1A70174B1870032805D8164A137843F00403137004E0134A137803F0FB031370032805D8104A137843F00803137004E00D4A137803F04B
:40454000F70313700A4B1B7813F0040F04D1084B1B7813F0080F06D0034A137843F08103137001F0DFF808BDB594FF1FB494FF1F7C64004070B5044603280CD8104B1D5C37
:40458000104E331893F8840100F0EAFF354495F88C210D4B1A70032C0DD80434084B1D5D084E344494F8840102F0FCFB354495F88C21064B1A701E2001F0ACF870BD00BFA6
:4045C0005CBB00005CB900005F64004059640040031DDBB20130C0B2032807D800F0070101228A4012F0FF0FF4D000E004200133DBB2072B07D803F0070101228A4012F0BC
:40460000FF0FF4D000E00823043BDBB2984205D10C4A137843F00C0313707047984207D2084A137803F0F70343F004031370704704490A7802F0FB0242F008020A70184601
:40464000704700BF7C64004008B5104A104B1A60104A136843F40073136000230AE0032B03D80D4A52F8231000E00C490C4A42F8231001332F2BF2D90A4B1B78084A0A4BFC
:404680001A60FFF761FDFEF72FFA08BD0004FA050CED00E014ED00E000000000413E00000080FF1FBC76004008ED00E008B5094B1A681044084BC31AB3F5006F02DC054BCC
:4046C000186005E002F0E8FD0C2303604FF0FF32104608BDCC80FF1F2896FF1F06280BD8064B03EB8002D2F89421184490F8B011137823EA01031370704700BF5CB9000083
:4047000006280AD8054B03EB8002D2F89421184490F8B01113780B43137070475CB9000006280BD8064B03EB8002D2F8B821184490F8D411137823EA01031370704700BF8A
:404740005CB9000006280AD8054B03EB8002D2F8B821184490F8D41113780B43137070475CB90000F8B501F08FF8022000F0C2FF02F08AFD4C4A137843F00303137001323F
:40478000137843F00303137002F082FD4FF43442464B1A804FF6FF7520331D8001263E331E7002F071FD424A137843F003031370013A137843F00303137002F069FDFF245E
:4047C0003C4B1D7020331C70403B1C701F331C7030331C70103B1C7002F056FD364A137843F0030313700232137843F00303137002F04EFD314B1C7020331C70403B1C7069
:4048000022331C7030331C70103B1C702C4F02253D602C493046FDF765FF05213046FDF749FF04243C6028492846FDF75BFF05212846FDF73FFF00F08FFE2046FFF782FF66
:404840000520FFF77FFF0620FFF77CFF02F0A6FA2046FFF755FF0520FFF752FF0620FFF74FFF1A4B1A7822431A701A7842F008021A7000F0FFFE00F0D9FE002000F0B8FE38
:40488000204600F0A5FE002000F06AFE02F0E2FA02F0BCFA002002F09BFA204602F088FA002002F07FFAF8BD9C6400402C6400409F6400402F640040996400402964004020
:4048C00080E100E009580000855700007C64004008B5054B1B7923B9FFF744FF0122024B1A71FFF763FA08BD4894FF1F01281CD810B44000C0B20D4B03EB8002D2F8DC1145
:404900001A1892F8EC410A7822EA04020A700130C0B203EB8002D2F8DC21184490F8EC11137823EA0103137010BC70475CB9000001281AD810B44000C0B20C4B03EB8002B6
:40494000D2F8DC111A1892F8EC410A7822430A700130C0B203EB8002D2F8DC21184490F8EC1113780B43137010BC70475CB9000001238340012823D8DBB2124A5279134273
:404980001ED010B40F4922EA03034B710E4B03EB8002D2F8F021184490F8F841137823EA0403137090F8FC31CA18137A013BDBB2137223B9054A137823F01003137010BC9F
:4049C000704700BF4894FF1F5CB90000005B004001238340012823D8DBB2124A527913421ED110B40F4913434B710F4B03EB8002D2F8F021184490F8F84113782343137030
:404A000090F8FC3119440A7A22B908490A7842F010020A70034A13441A7A01321A7210BC704700BF4894FF1F5CB90000005B0040F0B50C4629B1836943BB4389063343810D
:404A400024E08369D3B10023C3830E7A4F7A33460FE09A1B616801EBC202D17892F9062001EB020EC58BAE4501DDA0F81EE00133DBB2BB42EDD9A37A838307E013B14389A7
:404A8000063B4381082383830023C3838461F0BD007A704701824282704700BF09B189B200E00121C181704781814281704700BFF0B585B004460D4683693BBB0A2908D147
:404AC000828BC189438901FB023343810023838154E00D2952D0C189890009B2FFF734F9B4F90A20B4F90C10A37B0293638A0193238A00932B462046FFF7E6FBE38903EB1E
:404B000043035A00A3891344A38137E00A2908D1002282814189C2899B7A03FB021343812CE00D292AD01A7A914227D3597A8D4224D8AA1A5E6806EBC206B378F278BBB166
:404B4000B2B196F90510C2890B4403FB02F109B2FFF7FAF8B4F90C10B4F90A20238A608AA77B0297019000932B462046FFF7ACFB3179E289A38901FB0233A38105B0F0BD7E
:404B80002DE9F04782B082460D4691461E46BDF92880BDF82C700C4608E0009743464A4621465046FCF71CFB013424B2AB199C42F3DB02B0BDE8F08710B582B0BDF810403B
:404BC00001941344013B1BB200930B46FCF716FB02B010BD08B5104E104D16E029686B68AC68002204E051F8040B43F8040B0432A242F8D1E868002203E0002143F8041B18
:404C000004328242F9D11035013E002EE6D102F049FBFCF7BFFB00BF010000003CBE0000C1680268D30912F07F0200D001221A44436803FB02F3027A02FB033301EB032308
:404C400021B1B3F5802F03D90320704703207047002070478B6904E003F580730A68934203D21A688242F7D100E000231846704770B48A6902600024264608E013681BB167
:404C80009E4201D202601E4602F5807201344D680B6903FB05F39C42F0D370BC704700BF094B1B7803F00C035B08084A127812F0040F00D0013303F1924393F82031DBB288
:404CC000034A1370704700BF205800402158004008460040054B1A7802F0FD021A701A7800F0020010431870704700BF205800400F490B7803F0FC0200F0030313430B70F2
:404D000001280AD10B4B1B78DBB20B4A13700B4B1B78DBB2013213707047094B1B78DBB2054A1370074B1B78DBB201321370704740580040100100493046004014010049D3
:404D4000AD010049B50100490844C0F34F007047F0B5C50800F0070201239340DBB21C4A115C02EB41063789348B0A4492F828E0184A525D13420DD0164E06EB4000808803
:404D80003C1BA0421DDA22EA03027255314481F814E016E00F4E06EB400080883C44A0420BDD30460844007D012801D81A437255084A11440138087503E0064A114481F870
:404DC00014E0044A505D184000D00120F0BD00BF5CBB00005494FF1F70B50A4B184490F8304090F838502544EDB200262046FFF7AFFF00B101260134E4B2A542F6D830460E
:404E000070BD00BF5CBB000070B40A490A5C0A4C04EB40031D8C1D862044002680F840609E80114491F8281022441175A3F8485070BC70475CBB00005494FF1FF8B50546D1
:404E40002B4B1A5C03EB4203B3F84060294C04EB4004B4F84810208CFFF776FFA4F84800228E904203D3841AA4B2012702E0141AA4B20027B7B9142C14D91E4B2B4493F820
:404E800058301D2B08D92846FFF7BEFF194B2B44002283F858201DE0164A2A44013382F8583017E0B44202D9132C13D897B9114901EB050E9EF8403043EA02231844801A4E
:404EC000C0F30F2301EB45010B868EF8400000238EF85830B44205D927B1064B03EB4505AC80F8BD034B03EB45050023AB80F8BD5CBB00005494FF1F10B5002404E0204624
:404F0000FFF70EFC0134E4B2062CF8D910BD00BF70B50546104B034493F8504093F85860032802D8FFF7FCFB03E00438C0B2FFF7D5FB0F2C00D10724074800EB8404226ED5
:404F4000137823EA0603137000EB8500D0F8803009221A7070BD00BF5CBB000008B5134B1B7813F0040F09D1104B1B7813F0080F04D10E4A137803F0FC0313700C4B1B78B0
:404F80001B020C4901EB40010B840B4A12781343DB430B84FFF7BCFF002001F003FF074A137843F00103137008BD00BF7C6400401B6400405494FF1F0B6400407258004065
:404FC00010B5104B1A1892F8501092F8584003EB8003D3F8803009221A700F2900D10721084A02EB8102126E137823431370032802D8FFF7A7FB10BD0438C0B2FFF780FB42
:4050000010BD00BF5CBB000070B504460E46C0F30725FDF76DFC32462946C4F30740FDF75DFC0446FDF710F90CB1042070BD002070BD00BF10B404460022FF2013E0A35CFA
:40504000584000230BE010F0800F04D04000C0B280F0310001E04000C0B20133DBB2072BF1D9013292B28A42E9D110BC704700BF2DE9F047C0B005468A4690469946489ED2
:40508000B469041B33681C44C76F80210844FFF7D1FF874207D14A4605EB0801504603F0B3FA00241BE0E76F80216018FFF7C2FF874213D14FF480722146684603F0A4FAA3
:4050C000324669462846FFF79FFF044638B94A460DEB8801504603F097FA00E00224204640B0BDE8F08700BF30B4044618B1086800F5807008600D681868854201D39869A5
:405100000860002010605868844218D31C69012C13D90968A1EB00259B699D420BD204F1FF1404F57F4400FB04F003EB0020C91A0844106003E0156001E00B68136030BC1B
:40514000704700BF2DE9F04FCDB01D4600230B930A93AB6809930391002A00F09F80824693461318EA68934200F29A80002900F099800BF1FF331B094C4AA2FB0323059336
:4051800001330493002307939946012081E0099B1C682B4608AA09A92046FFF7A5FF4FF4807200210CA802F0A3F804F10108CDF83080CDF834A00399059B994502D1CDF8B4
:4051C00038B007E070230E93ABF1700B9A44039B703303930E9A0FA803F016FA089921B1802211442CA803F00FFA6C68A04503D9C4EB0804013400E00124002731E04445F9
:4052000001D10CAE04E029462046FFF723FD0646099BAA699A1A120A6968B2FBF1F301FB132356B17268B1680191009207AA0AA90BA8FDF7A9FC074600E001374FB90B98CE
:40524000079931440A9A121A0C310CAB184403F0DBF92B7D23B180212CA8FFF7EBFE2B9001344445CBD92A460CA90998FFF7CCFE2B7D4BB140B9AA69099B9B1A28682A46B6
:405280000CA91844FFF7C0FE68B9099BAB6009F10109049B9945FFF47AAF04E0012002E0012000E001204DB0BDE8F08F264992242DE9F04F8BB00691002A00F0E6808146FF
:4052C0001F46934613181C460793FB689C4200F2DF80002900F0DF80B8680368099304F1FF3A4FEAD913C3EBDA1A0AF1010ABC69031B7A681502B3FBF5F303FB02F304EB69
:405300000323039300250EE0B9EBC51F06D36B1CDB01013B994503D9002302E0002300E001231BB901359542EED30025039BC01A030A184605933B69012B09D905EB0A03C7
:40534000013B854207D8984208D20123049307E00023049304E00123049301E000230493C84600260123CDF82090894635E0039B03EB052008F07F0404F180010136B24580
:4053800002D9C4F1800400E05C46049B63B1059B9D4209D97B68A0EB0320BA69904203D238685B1BA0EB03203B7D5BB1009723460A464946FFF75CFE034648B18246DDF852
:4053C00020900FE022460144484603F01DF90023A044C4EB0B0BA14401355645C7D39A46DDF820905346002B57D1099B002B54D07D689D4228BF1D46013D5D1BDDF8188039
:40540000079E1C463EE039462846FFF723FC8646002836D0436881681944994504D29E4294BF0022012203E089452CBF002201223AB3994502D3C3EB090C01E04FF0000CBE
:40544000994502D2C9EB030000E000200CF10C0CB14228BF314699452CBFC9EB0103CB1A40443A7D42B10097624601467046FFF7FFFD824628B110E01A460EEB0C0103F0B1
:40548000C3F80135A542BED907E001239A4604E001239A4601E001239A4650460BB0BDE8F08F00BFF8B500293DD00D4600283CD0C368002B3BD043680A2B3AD80768002F36
:4054C00039D00446FFF7ACFB0646002834D1EF6063682B61237A2B75637A6B75E368AB612368DA0913F07F0300D0012313446B60626802FB03F3E26802EB03232C4644F87B
:40550000083B29462046FFF7B3FBAB681B689BB92B7D8BB12846FDF701FB064629462046FFF7A6FB08E0012606E0012604E0012602E0012600E001263046F8BD054A13788F
:4055400043F0020313701032137843F002031370704700BFA243004008B5FFF7CDFC08BD014B1870704700BF805B004008B5134B1B7813F0040F09D1104B1B7813F0080F01
:4055800004D10E4A137803F0FC0313700C4B1B781B020C4901EB40010B840B4A12781343DB430B84FFF7B4FC0020FFF7D9FF074A137843F00103137008BD00BF7C640040F6
:4055C0001E6400405494FF1F0E6400407058004008B5064B1A7802F0F3021A701A7800F00C0010431870FFF75BFB08BD2058004008B5064B1A7802F0FB021A701A7800F04B
:40560000040010431870FFF74BFB08BD21580040054A137843F0010313701032137843F001031370704700BFA843004008B51422084B1A700133002018701A7842F004029F
:405640001A701A7842F002021A70FFF743FBFFF727FB08BD20580040054A137843F0010313701032137843F001031370704700BFA743004008B50020FFF73AFB0B4B1A78DA
:4056800042F020021A701A7802F0FB021A701A7842F008021A7003F287231A7802F0E7021A701A7842F010021A7008BD4058004038B500252C4606E02046FFF78DFB00B117
:4056C00001250134E4B2072CF6D9284638BD00BF10B500240BE004F007020123934013F0FF0F02D02046FFF7A9FB0134E4B2072CF1D910BD012805D1054A137803F0EF0397
:4057000013707047024A137843F01003137070477C640040024B187040081033187070472A64004010B50446FEF724FF124B1A7842F001021A701B7813F0040F07D00F4A9D
:40574000137803F0FE0313702046FFF739FC0A4B1B7813F0080F08D0201D094A137803F0FE031370C0B2FFF72BFC034A137843F00203137010BD00BF7C6400407058004054
:405780007258004010B51E4C237803F0F70323701C4B93F860000430C0B2FFF7DFFB237813F0040F2BD1174B93F8613013F0800F07D0144A92F8613003F0FE0382F86130C1
:4057C00010BD104C94F86000FEF702FF84F8600094F86030DBB2032B04D994F86030DBB2032B05D8074B93F86000FFF79BFF10BD044A92F8613003F0FE0382F8613010BD8B
:405800007C6400405494FF1F10B51D4C237803F0FB0323701B4B93F86000FFF7A7FE237813F0080F2BD1174B93F8613013F0800F07D0144A92F8613003F0FE0382F86130F9
:4058400010BD104C94F86000FEF7C2FE84F8600094F86030DBB2032B04D994F86030DBB2032B05D8074B93F86000FFF75BFF10BD044A92F8613003F0FE0382F8613010BD8B
:405880007C6400405494FF1F10B5002404E02046FFF73EFB0134E4B2072CF8D910BD00BF024B93F8610000F0010070475494FF1F10B50446FEF726FEFFF7F2FF0028FBD11B
:4058C000032C02D82046FFF79FFA032C03D8201DC0B2FFF799FA10BD10B5002404E02046FFF7E6FF0134E4B2032CF8D910BD00BF10B5114C002384F86130FF2384F86030B6
:4059000094F86000FEF764FE84F8600094F86030DBB2032B04D994F86030DBB2032B0AD8054B93F8612042F0010283F8612093F86000FFF7F7FE10BD5494FF1F4001C0B2F2
:40594000014B1870704700BF00E400E0014B1B681864704708ED00E0024A137843F001031370704708590040704700BF054A137843F0080313701032137843F008031370BA
:40598000704700BFA2430040014B1878704700BF6465004008B501F077FC064A137843F0040313701032137843F00403137001F06FFC08BDA543004008B501E00A4B1B78DF
:4059C0000A4B1B7813F0200FF8D101F05DFC084B1A7842F001021A701A7802F0FE021A7001F056FC08BD00BF53640040646500409364004008B501F047FC0A4A137843F0C7
:405A00002003137002F58072137843F010031370023A137843F01003137001F039FCFFF7A5FF08BD9664004010B50C46284B18700023284A1370284A1370284A1370284AAE
:405A40001370284A1370284A1370284A1370284B4FF400021A604FF080721A604FF400121A6010221A6020221A600321214A11704FF480021A6050221F4B1A701F4801F0A3
:405A8000D3F801F01BF901F0BBF814B1012C06D00BE01B4A137803F0FE0313700AE0184A137843F00103137004E0154A137803F0FE0313700322134B1A708022203B1A70EE
:405AC000012001F0D9FB04220F4B1A7010BD00BF1A96FF1FA993FF1F3E94FF1F1096FF1F1594FF1FA893FF1F1694FF1FAD93FF1F00E100E09E6000409C600040ED300000B0
:405B000009600040286000401260004010B50222104B1A7081220E3B1A70082202331A70322211331A70002401331C704FF40042094B1A6006210F20FCF7BCFD07490F203B
:405B4000FCF7D0FD064B10221A705C709C70DC7010BD00BFD649004080E100E0BD5E0000B894FF1FF8B501F08FFB0546454A137843F0010313701032137843F001031370B5
:405B80000127414B1F700226943B1E7002F5E2521B32137803F07F0313700020FCF776FB3A4C237803F0F9032370394A137803F0DF03137023783B4323703846FCF766FB17
:405BC0002820FCF763FB334B1A7802F07F021A701A7802F0BF021A702378334323703046FCF754FB237843F00403237000232A4A13700132137006E0FF222849CA54284995
:405C0000CA5401339BB2082BF6D9284601F040FB03211720FCF74EFD22491720FCF762FD03211820FCF746FD1F491820FCF75AFD03211520FCF73EFD1C491520FCF752FDBD
:405C400003210420FCF736FD19490420FCF74AFD03210520FCF72EFD16490520FCF742FD00211620FCF726FD13491620FCF73AFD03210C20FCF71EFD10490C20FCF732FDAB
:405C8000F8BD00BFA54300409D6000409443004012600040F851004084600040B093FF1F0C94FF1F753100006D390000D12C0000C53100007D310000BD2F0000E530000088
:405CC00010B501F0E1FA0446184A137843F0020313701032137843F00203137002F5AA521032137843F0030313701822104B1A70013B1A7842F040021A701A7802F0FC02B0
:405D00001A70C822053B1A700222A3F59753123B1A70084A137843F0080313700A20FCF7B5FA204601F0B4FA10BD00BFAB4300400E5900402F5B0040F0B583B016461F4675
:405D40000B4C062525700023019300932B460A4601462846FCF72CFE3A4631462078FCF755FE04212078FCF76BFE207803B0F0BDD080FF1FF0B583B016461F460B4C0725BF
:405D800065700023019300932B460A4601462846FCF70EFE3A4631466078FCF737FE04216078FCF74DFE607803B0F0BDD080FF1F10B541F6FF734FF4804201210220FFF7CA
:405DC000D9FF084C207141F6FF731A4601210A20FFF7B2FF60710448FFF7B8FD0020FFF7ADFD10BDB894FF1F6959000008B50A280FD00C2802D0082806D102E04FF4805297
:405E000009E04FF4807206E00020FCF7E3FB002201E04FF4806209490020C88042F2107303FB02F303F27263054A82FB03E21A44DB17C3EBE2238B60888108BDB894FF1F40
:405E4000EF09E09E10B504460A280DD00C2802D0082804D101E0C22207E0422205E00020FCF7B8FBC22200E08222034B1A702046FFF7BCFF10BD00BF0A59004008B5064A35
:405E8000137843F0060313700C20FFF7DBFF0022024BDA8108BD00BF09590040B894FF1F08B5054B1B7C23B9FFF7E8FF0122024B1A74FFF705FF08BDB894FF1F38B59E4BE8
:405EC0001C789E4B1B7813F0400F00F02C81E4B214F0010F00F01081984B1B78453B052B00F20781DFE813F006007D00050105010600D60004F0DF0504F00A04082C3FD185
:405F00008E4B1B78DBB2452B32D18C4B5B7C13F0FF0F0ED0894B5A691278D2B288490A700421854A11700122DA7046221A702C46E2E0824B1B7E13F0020F0CD07F4B5A786E
:405F400042F00A025A7060221A704FF400427D4B1A602C46D0E07C4A137843F01003137010227A4B1A700422023B1A702C46C3E00022714B1A704A22704B1A702C46BBE061
:405F80000A2C29D16D4B5A7842F0A0025A701B7E13F0020F13D0694B1B7813F0080F01D0092200E00A22654B59780A435A7060221A704FF40042634B1A602C469CE0624AA5
:405FC000137843F0100313701022604B1A700422023B1A702C468FE00020FCF7FBFA2C468AE014F0020F33D1544BDA78D2B25B7CDBB29A420FD2514AD378DBB25169CB5C31
:40600000DBB24F490B7004214B4B1970D3780133DBB2D37070E0494B1B7E13F0020F0BD0464B5A7842F00A025A7060221A704FF40042444B1A605FE0434A137843F010031F
:4060400013701022414B1A700422023B1A7053E03A4B1B7E13F0020F0BD0384B5A7842F09A025A7060221A704FF40042354B1A6042E0354A137843F0100313701022334B0B
:406080001A700422023B1A702C4A537843F09003537031E0294B9A78D2B229490978C9B211709A780132D2B29A709A78D2B25B7EDBB29A4203D210221F4B1A701CE01F4B89
:4060C0001B7E13F0020F0BD01C4B5A7842F009025A7060221A704FF400421A4B1A600BE0194A137843F0100313700022124B1A7002E00020FCF76EFA14F0200F1BD00F4BE8
:406100001B7813F0080F01D0012200E002220B4B59780A435A700C490A7802F0EF020A7010221A7038BD054B1B7813F0100F02D11022024B1A7038BDD7490040B894FF1FF7
:40614000D849004080E100E0D6490040D949004070B52D4C2079FCF785FC6079FCF782FC2A4B9B78FF2B03D1FCF708FC274B9870264CA078062302460A21FCF7D1FB224E7B
:4061800006F11C05ADB22A4645F6A231A078FCF7B9FBA1783079FCF72DFCE378FF2B02D1FCF7ECFBE070194EF078072302460A21FCF7B6FB144C04F1280292B22946F07821
:4061C000FCF7A0FBF1786079FCF714FC01212079FCF76EFC01216079FCF76AFC01F054F80B4A137843F02003137001F051F8094B1A7842F001021A701A7842F002021A7039
:406200000122054B1A6070BDB894FF1FD080FF1F906400407D64004080E200E008B50920FDF72CFD01F030F8214A137803F07F0313700A32137803F0FB031370A2F5E352C4
:406240000D3A137803F0FE0313701032137803F0FE031370174B1A7842F080021A701A7842F040021A7001F013F8134B4FF400021A604FF080721A604FF400121A6010220A
:406280001A6020221A6000F017FE4FF480520B4B1A6000230A4A13700A4A13700A4A13700A4A13700A4A13700A4A82F8323008BD08600040F851004080E100E080E200E0BF
:4062C0003E94FF1F1096FF1F1594FF1FA893FF1F1694FF1FB894FF1F00230A4A13700A4A13700A4A13700A4A13700A4A13700A4A13700A4A13700322094B1A708022203B94
:406300001A707047A993FF1F3E94FF1F1096FF1F1594FF1FA893FF1F1694FF1FAD93FF1F2860004038B504460D46074B93F832302BB9FFF717FC0122034B83F8322029469D
:406340002046FFF771FB38BDB894FF1FF0B583B016461F460B4C032525710023019300930A4601462846FCF723FB3A4631462079FCF74CFB29462079FCF762FB207903B07A
:40638000F0BD00BFD080FF1FF0B583B016461F460B4C022565710023019300930A4601462846FCF705FB3A4631466079FCF72EFB03216079FCF744FB607903B0F0BD00BFC1
:4063C000D080FF1F044A137803F0FD03400000F00200184310707047F0510040044A137803F0DF03400100F02000184310707047F0510040044A137803F0FE0300F001004E
:4064000018431070704700BFF0510040C0F10400044A02EB4000B0F928309089181A00B2704700BFB894FF1F044B1B7803F0FF020BB90028F8D01046704700BF6865004019
:4064400008B5FFF789FA08BD08B5074B5B6B23B9FFF7AEFC0122044B5A63FFF721FDFFF777FE024B1B7808BDB894FF1F686500404FF40043044A1360044A507800215170C7
:40648000034A1360704700BF80E100E0B894FF1F00E100E04FF40042074B1A60074B5878C0B21B7813F0400F01D040F004004FF40042034B1A60704780E100E0B894FF1FBC
:4064C00000E100E070B4002942D00D4622490978C9B2102906D12149097811F0080F11D1002412E01C490978C9B260290CD14FF400441B490C60184C617801F0F7016170A2
:40650000002402E0012400E0022414BB124945260E700026CE704A744D610B764A7802F0FD024A704200D2B20E490A7013F0010F06D01222094B1A700422023B1A7002E0F8
:406540000122064B1A704FF40042074B1A6000E00224204670BC7047B894FF1FD949004080E200E0D849004000E100E02DE9F8434FF40049214BC3F80090DFF8A08098F832
:4065800000301F4CE3721F4F3B7823731E4E3378637330783B7843EA002001301B4D2B7803F0FE032B7080B200F066FE00F06CFE174A137803F0FB0313701032137803F0D4
:4065C000FB03137000F064FE2B7843F002032B70E37A88F80030E37A88F80030237B3B70637B33702B7803F0EF032B70094BC3F800901022084B1A70BDE8F88380E100E03C
:40660000D080FF1FDB490040DC490040D6490040A543004080E200E0B894FF1FCA49004008B5084B93F838302BB9FFF76FFA0122044B83F83820FFF7ADF94FF40042024BA4
:406640001A6008BDB894FF1F00E100E0054A137843F0040313701032137843F004031370704700BFA243004001E0044B1B78044B1B7813F0200FF8D1704700BF53640040E7
:4066800064650040014B1878704700BF6665004008B50F22074B1A70FFF78EF9FFF7F2FFFFF772F90222044B1A702022023B1A7008BD00BF866400408665004008B5064BF8
:4066C00093F839302BB9FFF7E3FF0122024B83F83920FFF78FF908BDB894FF1F08B501E00A4B1B780A4B1B7813F0200FF8D100F0CBFD084B1A7842F001021A701A7802F0B0
:40670000FE021A7000F0C4FD08BD00BF5A650040696400409A65004001E0044B1B78044B1B7813F0200FF8D1704700BF5A65004069640040014B1878704700BF69640040CE
:40674000014B1878704700BF6965004008B5064B93F83A302BB9FBF7ABFC0122024B83F83A20FBF78BFC08BDB894FF1F0E4A137803F00303127812F0800F09D0022B02D17C
:40678000094B5B780DE0012B0BD1074B5B7808E0022B02D1044B5B7803E0012B01D1024B5B780020704700BF006000400822014B1A60704780E100E00822014B1A607047C8
:4067C00000E100E04001C0B2014B1870704700BF03E400E0014B1B68D864704708ED00E0094B1B7803F00C035B08084A127812F0040F00D0013303F1924393F83031DBB2FA
:40680000034A1370704700BF245800402558004009460040054B1A7802F0FD021A701A7800F0020010431870704700BF245800400F490B7803F0FC0200F0030313430B7089
:4068400001280AD10B4B1B78DBB20B4A13700B4B1B78DBB2013213707047094B1B78DBB2054A1370074B1B78DBB20132137070474358004013010049364600401701004969
:40688000B3010049BB010049094B1B7803F00C035B08084A127812F0040F00D0013303F1924393F82831DBB2034A1370704700BF28580040295800400A460040014B187030
:4068C000704700BF825B0040054B1A7802F0FD021A701A7800F0020010431870704700BF28580040054A137843F0040313701032137843F004031370704700BFA843004051
:4069000008B51422064B1A70013300221A701A78D2B21A700220FFF7D7FFFFF7B5FF08BD285800404FF40062014B1A60704700BF80E100E04FF40062014B1A60704700BFE9
:4069400000E100E04001C0B2014B1870704700BF0BE400E0014B1B68D866704708ED00E030B40D784C78F72820D9764A1178114443F00F030B7113780133DBB213701378F3
:406980001344187113780133DBB21370137813440021197113780133DBB2137013781344197113780133DBB21370C9E0032801D9F02859D1F0280AD1624A1078104443F0F3
:4069C0000403037113780133DBB2137034E0EF2D0AD85C4A1078104443EA1513037113780133DBB2137027E0F62D0AD1554A1078104443F00503037113780133DBB2137023
:406A00001AE0F12D01D0F32D0AD14E4A1078104443F00203037113780133DBB213700BE0F22D09D1474A1078104443F00303037113780133DBB21370424B1A781A441571B3
:406A40001A780132D2B21A701A781A4414711A780132D2B21A701A7889781A4411711A780132D2B21A706BE0F72869D1012A25D012B1022A44D063E0324A1178114443F01E
:406A800005030B7113780133DBB2137013781344F721197113780133DBB21370137813440021197113780133DBB2137013781344197113780133DBB2137041E0214A117884
:406AC000114443F006030B7113780133DBB21370137813441D7113780133DBB2137013781344F721197113780133DBB21370137813440021197113780133DBB213701FE0CD
:406B0000104A1178114443F007030B7113780133DBB21370137813441D7113780133DBB21370137813441C7113780133DBB2137013781344F721197113780133DBB21370C5
:406B400030BC7047F494FF1F10B5002404E02046FDF7C4FD0134E4B2062CF8D910BD00BF08B50A4B1B7813F0FF0F0DD0074B93F84400FDF7C5F8012806D1044B93F8440007
:406B80001A780021FCF7B8FF08BD00BFF494FF1F08B5154B1B7803F00303012B02D0022B04D010E0104B1B79DBB20DE00E4B1B7903F07F0303EB43039A000C4B1A4492F8DE
:406BC0005230DBB200E00023022B08D8074AD2F8B420D35C012B04D1FFF7C8FD08BD002008BD002008BD00BF00600040F494FF1F024B1878C0F38010704700BF01510040E0
:406C000008B500F041FB044A137843F01003137000F03EFB08BD00BF97640040014B1878704700BF6764004010B50446FFF7BEFD2046FFF7CFFD0720FFF7C4FDFFF7BCFD0F
:406C400010BD00BFF0B583B016461F460B4D00242C700194009423460A4601462046FBF7A7FE3A4631462878FBF7D0FE02212878FBF7E6FE287803B0F0BD00BFDE80FF1F86
:406C8000F0B583B016461F460B4C012565700023019300932B460A4601462846FBF788FE3A4631466078FBF7B1FE02216078FBF7C7FE607803B0F0BDDE80FF1F08B500F02E
:406CC000E3FA044A137843F01003137000F0E0FA08BD00BF94640040014B1878704700BF64640040F0B583B016461F460B4C0525A5700023019300930A4601462846FBF7C5
:406D000057FE3A463146A078FBF780FE0321A078FBF796FEA07803B0F0BD00BFDE80FF1FF0B583B016461F460B4C0425E5700023019300930A4601462846FBF739FE3A46A4
:406D40003146E078FBF762FE0321E078FBF778FEE07803B0F0BD00BFDE80FF1F024B1878C0F38000704700BF31510040044A137803F0FB03800000F0040018431070704703
:406D800000510040044A137803F0FD03400000F002001843107070472051004008B5FFF7D3FE08BD014B1870704700BF815B004008B5064B1A7802F0F3021A701A7800F0BF
:406DC0000C0010431870FFF70BFD08BD2458004008B5064B1A7802F0FB021A701A7800F0040010431870FFF7FBFC08BD25580040054A137843F0020313701032137843F0AF
:406E000002031370704700BFA843004008B51422084B1A700133002018701A7842F004021A701A7842F002021A70FFF7F3FCFFF7D7FC08BD24580040054A137843F0080390
:406E400013701032137843F008031370704700BFA743004008B50020FFF7EAFC0B4B1A7842F020021A701A7802F0FB021A701A7842F008021A7003F527731A7802F0E70280
:406E80001A701A7842F010021A7008BD4358004008B5084B93F8B8302BB9FFF731FD0122044B83F8B820FFF71DFD8020FFF706FD08BD00BFF494FF1F024B1878C0F3801005
:406EC000704700BF8F45004000B585B000238DF80930802200928DF8083004230193039003496846FEF7DEFA05B05DF804FB00BFB095FF1F4FF40062014B1A60704700BF2B
:406F000080E200E010B50446FFF70CFD2046FFF721FD0620FFF716FDFFF70CFD10BD00BF014B1878C00970478C4500402DE9F04104460E46174637480178C9B290F84430AF
:406F400003EB43039A000244B2F850309BB2043B994201D9FFF704FE2E480178C9B290F8443003EB43039A000244B2F850309BB2043B994248D8231FDBB2EB2B08D93B4628
:406F8000224631462046FFF7EBFC4FF000083DE000253B4603227119F020FFF7E1FC033CE4B20335EDB21B480178C9B290F8443003EB43039A000244B2F850309BB2043B4A
:406FC000994210D9FFF7CCFD12480178C9B290F8443003EB43039A000244B2F850309BB2043B994204D8022CD3D84FF0000801E04FF00108B8F1000F08D13B4622467119F6
:40700000F720FFF7ADFC01E04FF001084046BDE8F08100BFF494FF1F08B5FFF7A1FD08BD38B5144B93F8D800FCF76AFE01281FD1104B93F8D800FCF74FFEC5B2032D0FD8AB
:4070400011E00C4B234493F8DC0060B1631C0A49194400F0F000FAF751F90434E4B200E00024AC42EDD3034B93F8D800FCF7F0FC38BD00BFF494FF1FD095FF1F10B50A4C97
:407080000023237094F844004022211DFCF734FD94F8D800402204F1DC01FCF7EFFC94F8D800FCF7D5FC10BDF494FF1F044B1B7813F0800F01D0024B5B780020704700BF7A
:4070C0000060004010B5104B1C79E4B20F4B93F81C010138C0B2FCF7D1F843681B799C4201D9022C0DD8094B1C4494F82031DBB284F82431044B9B78DBB284F82031012066
:4071000010BD002010BD00BF00600040F494FF1F2B4B1B7903F07F035A1ED2B2072A4CD810B5590019448A0026490A4492F84A1001F0FE0182F84A10002182F84B10224CF2
:407140001801215C01F07F01215492F8491001F0FD0182F8491092F84C2012F0800F14D003EB43018A0017490A4492F84920D2B2012A04D1224602440C2393701AE01B01AC
:40718000114A1A440D23937014E003EB43018A000C490A4492F84920D2B2012A05D11B01094A1A440823937004E01B01064A1A4409239370FCF7F8F910BD0020704700BFF9
:4071C00000600040F494FF1FFC5F004008B5184B1B7903F07F035A1ED2B2072A26D8590019448A0013490A4492F84A1041F0010182F84A10002182F84B1092F8491041F07B
:40720000020182F8491092F84C2012F0800F05D01B01094A1A448D23937004E01B01064A1A4489239370FCF7BFF908BD002008BD00600040F494FF1FFC5F004008B5084BF9
