:2000000050A5000000000000020000000000000024600000000000002000000000005500F0
:20002000404000000000A900625000000000000000000000000000030000000040000000A2
:200040000000000000000200FF0A00C000000000000000000000008401000000010000004F
:20006000100000000100000001000000080021000400000001000000070018000000000021
:2000800022000800000040004000000000003F0080000000000040000000000000000000B7
:2000A000000000000000000000000000000002310400000E044000010000000000000000B6
:2000C0000000000000000000000000000000000000000000000000000DC00002520028FFD8
:2000E000117F62800D800000021F0D200D00009F4000306080C00001800000000DC00004A5
:2001000032C044080D9000400F008000700000FF080022000000004000000000000000005C
:200120000000000000000000000000000000000004040000030000010000000000000000B3
:2001400000000000000000000000000000000000000000000000000000000001000100009D
:2001600000000000000100000001000000000000000000000000000000010000000100007B
:2001800000010000000000000000000000010000000000000000000000000000000000005D
:2001A0000000000000000000000000000000000004040000440000010000000000000000F2
:2001C0000000000000000000000000000000000000000000000000000000010010002000EE
:2001E000080000000000080040008000000002000000040004000000020000000100000022
:20020000200010008000400000000000FF00000000000000000010006301200005DEF0CBBD
:200220003BFFFFFF2200F008040000000000080004040404409300010000C000400110115A
:20024000C00100114001400100000000000000000000000000000000010000000000100138
:20026000000008000800000020000000020000000400000000000400000002000000410001
:2002800020000000200000001F01000020004000020000000000110000000000000000008B
:2002A0000000000000000000000000007F00040004040004449000010000000000000000DA
:2002C00000000000000000000000000000000000000000000000000000000000000000001E
:2002E0000000000000000000000000000000000000000000000000000000000000000000FE
:200300000000000000000000000000000000000000000000000000000000000000000000DD
:200320000000000000000000000000000000080004040004449000010000000000000000D4
:20034000000000000000000000000000000000000000000000000000000400200042000433
:200360000001005E0042000000770008003900060000000000460000004600000000000092
:2003800000000046004600000008000F007000000008003000000001000000000000000011
:2003A0000000000000000000000000000000022804040004343000010000000000000000A2
:2003C0000000000000000000000000000000000000000000000000000020000000D100200C
:2003E0000003003C003000C10012000100C10030000000000000008000F100000005000A49
:200400000006003900F10000000300800040003C0000000200000014000000000000000097
:200420000000000000000000000000000300040004040004349000010000000000000000E4
:20044000000000000000000000000000000000000000000000000000080080001000010003
:20046000CE0031000000060077038800BF01400000000003FD00020020000100FF00000053
:2004800000030600000200007800040080000303000000000000004000000000000000000F
:2004A000000000000000000000000000000008000404000C0110000100000000000000000E
:2004C0000000000000000000000000000000000000000000000000000000000200000F000B
:2004E000000120000000000700000000C000000007071000060008000000A00000006000E8
:2005000009040400000000000400E0001807030000000000000051104205000000000062BA
:20052000300000000000000000000000400004000404040402210001000CF00C000C000CF3
:20054000404C404C9058000C0000000000000000000000000000000000000000000000008F
:2005600006000000000000000000000002000100000000000000000001000400010002006A
:200580000000000000000000000007000000000008000000000000005400000000040025CF
:2005A00031FFFFFF0220000500100000000002000404040442110801404080008000800068
:2005C000000000000000000000000000000000000000000000000000000000000500000016
:2005E00000000F0000000300C00000000300100040002000200080000A00000000000C0000
:20060000200040000F000000E0001C000300000002000000000014002304000000006020AF
:20062000280000000000000000000000000008000404040C43110001000CF00C000C000CFD
:20064000404C404C9058000C0000000000000000000000000000000000200000002B00142F
:2006600000100004000000200000002000200000001D0002002000000017000800000000A8
:20068000000000000000000300010006001800200000000000000000060100000000000011
:2006A00000FFFFFF020CF80000001F00000000000404040414110001000048A100000000F9
:2006C000F000F000F000F00000000000000000000000000000000000000300000403000050
:2006E000000000030000000000000000010000000403000000030B000801100200000003C3
:2007000000000000000010001802020001010400800000000000010006010000000000A07F
:2007200000FFFFFF030CF40000000302000000000404040441410001000048A10000000038
:20074000F000F000F000F000000000000000000000000000000000000000000300020000D4
:20076000950000000F0040003F0300002A008000000000000000BF000000000000010300E6
:20078000000030000000000003007003C0000C00000000000000550443050000000200063E
:2007A000110000000000000000000000000000000404040000010001000CF00C000C000CFA
:2007C000404C404C9058000C0000000000000000000000000000000001DF3220009000014A
:2007E00000000C4200660099007B0004007D1002047F53000000010000000000680003421A
:200800000008008100048200004070800F03803C0000000000000004260300000006000296
:20082000110000000000000000000000000000000404040013010001000CF00C000C000C66
:20084000404C404C9058000C00000000000000000000000000000000A4014000080010018E
:2008600000000004C0002F0040002C0091004E00710082006C0000016C0000026400080000
:200880002C00400000000000C00000020F0431010000C200000000400000000000000000E3
:2008A000000000000000000000000000400004000404000442300001000000000000000075
:2008C000000000000000000000000000000000000000000000000000000001000001010015
:2008E0000101000000010000010000010101000000000000000000000101000000000000EF
:200900000100000100000000000001010000000000000000000000000000000000000000D3
:200920000000000000000000000000000000080004040004449000010000000000000000CE
:20094000000000000000000000000000000000000000000000000000000000000000000097
:20096000000000000000000000000000000000000000000000000000000000000000000077
:20098000000000000000000000000000000000000000000000000000000000000000000057
:2009A0000000000000000000000000000900040004040004443000010000000000000000A9
:2009C000000000000000000000000000000000000000000000000000000000E00004000330
:2009E0000000000C00E0000000000001000000400120000000000012000802030001000287
:200A000000800000010000000110020F00E000000200000000000110000000000000000040
:200A20000000000000000000000000000000080004040004249000010000000000000000ED
:200A4000000000000000000000000000000000000000000000000000000000000000000096
:200A6000000000000000000000000000000000000000000000000000000000000000000076
:200A8000000000000000000000000000000000000000000000000000000000000000000056
:200AA000000000000000000000000000010000000404000C4440000100000000000000009C
:200AC00000000000000000000000000000000000000000000000000008C0210107001860AD
:200AE000041F0020109000400100C0FF22C0080801C00004C1C00002C100009FC180000038
:200B0000C07F008000008000000080003FFF40002000000000005410000000000000000014
:200B200000000000000000000000000009000400040400040020000100000000000000007B
:200B40000000000000000000000000000000000000000000000000006D00000040080000E0
:200B600002040D0371008200920164061200E800200800006D0000006D0300042D004000FF
:200B80000D05600200000000100000080F07F00088082020000005004205100003BEF0DC0A
:200BA0003BFFFFFF2200F008040000000000022404040404222200010000C0004001101142
:200BC000C001001140014001000000000000000000000000000000000000000200000000BF
:200BE0000000000000000000000000000100000000000000000000010001000000000000F2
:200C00000000000000000300000302000000010000000000000000000000000000000000CB
:200C2000000000000000000000000000000008000C04000494900001000000000000000073
:200C4000000000000000000000000000000000000000000000000000000000000000000094
:200C600000FFFFFF0000FFFF000000000000000000FF00FF0000FFFF00000000000000007D
:200C800000FF00FF0000FFFF00000000000000000000000000000000000000000000000058
:200CA0000000000000000000040000007F000F0300001F0000000000000000000000000080
:200CC0000000000000000000000000000000000000000F00000000001C01140000000000D4
:200CE00000001C01140100001E01140000000000180118011E001A00000000000000000025
:200D00000000000000000000000000000004000000000000000000000000000000000000CF
:200D20000000000000000000000000000000000000000000000000000000000000000000B3
:200D4000000000000000000000000000000000000000000000000000000000000000000093
:200D6000000000000000000000020000000010000000000000000000000000000000000061
:200D800000000000000000000000000000040000000010000000000000020000000000003D
:200DA0000000002400000008C0000000080000080000000000000000000000000400000033
:200DC00000000000000000000000000000000000000000000100040000000000000000000E
:200DE0000A00010000000100000000000000000000000000000000000000000000000000E7
:200E00000000000080000000000000244000000000000000000000200000000000000000CE
:200E20000000000000000000000000000000000800000000000000000000000000000000AA
:200E40000000000000000000000000000000200400000000000000000000002080000000CE
:200E6000000000000000000000000000000000000000000800200000000000000000000446
:200E8000000200000010000000000000000400008000300008000000000000100000002054
:200EA000000800000000404000000000000800000000000000000000000001000E00010092
:200EC000000000000100000000000000020000000300000000000300000000000C000000FD
:200EE0000000020000000000000000000000000000000000000000000008000000000000E8
:200F0000000000400000800000000000000000000000000000000000000000000000000011
:200F20000000000000000000000000000000000000000000000000000000000000000000B1
:200F4000000000000000000000000000000000000000000000000000000000000000000091
:200F6000000000000000000000000000000000000000000000000000000000100000000061
:200F80000000100000000000000000000004000080002000080040000008000000004020ED
:200FA00000002000000080000004000000000000000000000000000008000C000000000079
:200FC00000000000000000000000000000000000000000000000000000000000040000000D
:200FE0000000040000000000000000000000000000000000000000000000000000000000ED
:201000000000000000000000000000000000000000000000000000000000000000000000D0
:20102000000000000000000000000000000000000000000000000000000000000000400070
:20104000000000000000000000000000000000000000000000000000000000000000000090
:20106000000000000000000000000000000000000000000000000000000000000000002050
:20108000000000008000000000000000000000000000000008008000000800000000400000
:2010A000000000000000200000000000000000000000000000000000000000000000000010
:2010C000000000000000000001000000000000000000000000000000080000000000000007
:2010E0000000000000000000000000000000000000000000000000000000000000000000F0
:201100000000000000000100000000000000000000000000000000000008000000000000C6
:2011200000000000000000000000000000000000000080000000000000000000000000002F
:2011400000000000000000000000200000000000000000000000000000000000010000006E
:2011600000000000000000000000000000000000000000000000000000000000000041002E
:20118000030000000000000000000000000000000200000008000000000000000000000042
:2011A00000000000000000100000000000000000000000000000000000000100000000001E
:2011C0000200000000000800000000000400010000000000000000000000040004000000F8
:2011E0000000000000000000000000000000000000000000000000000000000000000000EF
:201200000000000000000000000000000000000000000000000000000000000000000000CE
:2012200002000000000000000000000000000000000000200000000000000000000000008C
:2012400000000000000000000000000000000000000000000000000000000000000000008E
:20126000000000000000000000000000000200000000000008000000000000000002000062
:2012800000000000000000000000000000000000000000000000000000000000000000004E
:2012A00000000000000000000000000000000000000000000000000000000000000000002E
:2012C0000000080000000800000000000000000000000000000005000000000000000000F9
:2012E000000000000000000000000000000000000000000000000000022012000800101092
:201300002900010000001000280000020000004000202241000010402010200000000040C6
:20132000080000400000004000100200000000404420008000000001080120800000000045
:20134000400A0200000000000420010000000000000000008000000000002000000000017B
:20136000A9800128000000000080000200000000010300400040000008C00000000001004C
:2013800000000120040000080440000040812200A0102000080A011000000280F8A00001EB
:2013A0000000000000021200000020010000100000000000000000000F002F008E0000001C
:2013C00000008500150086000F000800000010001400000000001000000010000000E000B2
:2013E000180081000000240000000000000000000000000000000000008220000000A008E6
:201400008000442001001000A020000000010020068204900000200008005C28000004002A
:20142000400880080001204801001880010008000412008088009000000000000000000023
:201440000000000000000000000000000000000000000000000000800028808000000000E4
:201460000000000000000000000000000000000000000000000000008110000000011810B2
:20148000A0000000000064800010108000018C00410800000002082040288008040000D064
:2014A0000040004000610400010000000000010000000000000000007D003F005E0000002B
:2014C0000000AF00CF007F0000000000000010000F00000000000000000041001400030098
:2014E0001A00810000000C0000000000000000000000000000000000A00114000000800808
:201500002880008240002004A80001001000000100140180000000000400000000000000EA
:201520002802000050008000A80001000000100900801482000000040000000000000000D5
:201540000000000000000000000000000000000000080150400000000001000200000000EF
:2015600000000000000000000000000000000000000000000040000020008000000010007B
:2015800000000000400100400040000400010000D00000090804110000000000002000006F
:2015A0008000000000000000000000044000000000000000000000005F00EF003F000000DA
:2015C0000000D700EF004F000000000000001F0009000000000010001000420030004000FC
:2015E000080001002000020000000000000000000000000000000000880108090000001115
:201600000100100800005000080002210101002000081001000000000010011000000000DA
:201620000000209008080040044001200100080000400A108800000000000000000000005A
:201640000000000000000000000000000000000000000008022000842090000000000042EA
:20166000000000000000000000000000000000000000000000000000008610000000044090
:2016800000100000000040000012408F00001810460022982114000040288A2004000101A4
:2016A00000004A000000000040000000000000400000000000000000AF003E00DB00000098
:2016C0000000E700CF005F00000000000000F2009E00000000000000010042001C004000C6
:2016E00008000100010042000000000000000000000000000000000018000000881080006E
:201700000800000A000222000001180000020014144040000812220C001000000000000276
:20172000080000000000000A00001000011008000001108000808000040040000200010096
:201740000040000000000000040108030000000000000000400000000224020001000000D0
:201760000000000000000000000000000000000000000000008000001000040000100200C3
:20178000001000400000000080502000080300045000801D0910100200000400004011008D
:2017A000000040000100000080000280000000000000000000000000F600B7007E000000BB
:2017C00000003400E4000D0005000800000010001F00000000001000000000008100000017
:2017E0008600000000000000000000000000000000000000000000008800000100000001D9
:2018000001001C00020054000200400001004010000000000000000000582142001404806F
:20182000044088A000008088800081080400440200472000002520400000000000000000F5
:20184000000000000000000000000000000000008010000000000000000000800000002058
:2018600000000000004480CA0000000000400000000000000000000000000A02000000048A
:201880000200201000000000001240A700A41C40C000401821440042C02000000414050B56
:2018A00000000000000000080000040000100001000000000000000085007E00D90000002F
:2018C0000000BF00DB00FF000000000000000C0041000000000000000000020000000C0014
:2018E0000000000000000000000000000000000000000000000000001000000008100100BF
:2019000008000000A0006000000110000102202010002000002840000000000000000000D3
:20192000400000000800008018010081500100082000000400000004000200020028000296
:20194000020800000000000002000004000021008000000000008000000000000200000054
:2019600000000000000000000000800000000000000000020080000010000028000000002D
:2019800040000000B00000008050000020000008100100144208820008024400000001001F
:2019A000000000000400000030080001000000000000000000000000E200F400FC00000018
:2019C0000000A100FF004600E1000800000018001000000000001800800000005000080020
:2019E000200080002200000000000000000000000000000000000000A00045A0000001009F
:201A000044021A0000005400280002010100401080104080000000008000000000000000C6
:201A200005000080010004C000000410000000008000050088001200000000000808180001
:201A400008000400000000000000000000000000220480000040000088088000000018006C
:201A60000000000000000000000000000000000000400100000000000040420000000000A3
:201A800000000080001600000012822580A418400200021000400042B02080204414048B8E
:201AA0000010800000000000440000000400000000000000000000008F007F00DF00000061
:201AC0000000DD000600FB000000000000001F006F0000000000000005000000000008008D
:201AE00000009000000000000000000000000000000000000000000000080000200001002D
:201B0000000021085008000082000000000006000020211100000000880000001642A05496
:201B2000100101000000008260000000000080192000060004029000000000C0000000405C
:201B4000002000000000002002000000000000000000000000000000000000000000000043
:201B600000500000400014020000000080000000000000000000000000000000001000002F
:201B8000400040000800050000000000124004000000000902008000000104000040210071
:201BA000004001000200000000000000000000000000000000000000C400E700C90000006E
:201BC00000009300FC00F700180024000000000000000000000000000000080050000200E9
:201BE000000000000200000000000000000000000000000000000000A80800918008020018
:201C000009005E0000001500221000010100000100000020000000000000000008000000EB
:201C20000908000000001580000004810100000080000000882022000050200000000000BE
:201C4000800004840000000000210C00000000000400000000000000021000200000000019
:201C60000000000000000000000000000000000000000000000000000000401020000040B4
:201C8000040000000000500000104221000400400000000020402442320000000014080B1A
:201CA000000004000000000000000000000000000000000000000000AF00EF009F000000E3
:201CC0000000EE008B00D8000E000C00000002000E000000000000000000080080000A00F7
:201CE00001000000000001000000000000000000000000000000000000000600001000408C
:201D0000024020000020210028000000008000040040501000102900000800000001021977
:201D20000000040000008408000002000000200902040000108600000000500000080010E4
:201D40002040000000041020080000000000040800000000000000000000000000000000DB
:201D600000000000000000000000000000000000000000000000000000400008000010000B
:201D80000000000000200044000000000000000000000000000000000000000000000000DF
:201DA0000000000000000000000000000000000000000000000000005300ED00A60000003D
:201DC00000007200E100F300630028000000000000000000000000001000000058000000CA
:201DE000000000000000000000000000000000000000000000000000028404400040284071
:201E00000404004A00021900022000020504000100004100000228140000000000000001A7
:201E2000000000000104100B0000000000C01802000000000228004000000000000000003E
:201E4000000000000000000000000000000000002000000000000000000000020000000060
:201E600012100200000000002000000100000000080000000000000008000000000000000D
:201E8000000000000014080200000000000000000000000000000000000000000000000024
:201EA000000000000000000000000000000000000000000000000000FF00FF00FB00000029
:201EC00000007000F000F0000000000000000400080000000000020000000400000004009C
:201EE0000000000000000000000000000000000000000000000000000000000000000000E2
:201F000000000000000000000000000200008004000000000020000000000000000000001B
:201F20000000000000000000000000000000000000000000000000000000000000000000A1
:201F400000000000000000000000000000000000000000000000000000000002000002007D
:201F6000000000000000000008000000000800000800000000000000000000000000000148
:201F8000000000000000820000000000000000000808000000000006080000000020000081
:201FA0000000500000200000000800000000000200000000000000000000000030008000F7
:201FC000000000000000000000000000000040008000000080006000000000000000100051
:201FE0001000A0000000000000000000000000000000000000000000000000000000000031
:202000000000000000000000000000000000000000000000000000000000000000000008B8
:202020000000000000000000000000000000000000000000000000000000000000000000A0
:20204000000000000000000000000000000000000000000000000000000000000000000080
:20206000000000000000000000000000000000000000000000000000000000000800080050
:202080000000000004008004000000000400500008000000000008080000000000008000CC
:2020A0000000001000000018000000000000080000000000000000000000000000000000F0
:2020C000200000000000000000000000000000000000000000000000000040000000400060
:2020E00010000000800040000000000000000000000000000000000000000000000000040C
:2021000000000000000000000000000004005024080000000000080000000010000088009F
:2021200000000000000100000000000000000000000000000000000000000000000000009E
:2021400000000000000000000000000000000000000000000000000000004000000000003F
:2021600010000000000000000000000000000000000000000000000000000000000000004F
:2021800000000000000000000000000000000000000000000000000000000000000000003F
:2021A00000000000000000000000000000000000000000000000100000000000000000000F
:2021C0000000000000000000000000000000000000000000000000000000000000000000FF
:2021E0000000000000000000000000000000000000000000000000000000000000000200DD
:20220000000000000000000000010000040040240800000000000A000000001000008800AB
:2022200000000000000000004800000000000008000000000000000000000000000000004E
:2022400000000000000020000000000000000000000000000000000000000000000010004E
:2022600000000000000000000000000000000000000000000000000000000000000000005E
:2022800000000000000000000000000000000000000000000000000000000000000000003E
:2022A0000000000000000000000020000000000000000800010040000000020000000000B3
:2022C0000000000000000000000000000000000800000000000000000000000000000000F6
:2022E0000000000000000000000000000000000000000000000000000000000000002000BE
:202300000000000800000000010100000400002400000008400000000000001000008800AB
:20232000000400000000000000000000000000000000000000000000000000000000000099
:20234000000000001000E000100000004000000000000000000000000000000000004000FD
:202360000000000000008000000000000000000000000000000000000000000000000000DD
:20238000000000000000000000000008000100000000001001000000000000000000000023
:2023A0000000000000000000000480000080080000000020000000040400000000000000E9
:2023C0000000000000000000000000000000000000000000000000000000000000000000FD
:2023E00000000000000000000000000000000000400000000000000000800000000000001D
:202400000000000000000000000000000000000000000000000000000000000000000000BC
:20242000000000000000000000000000000000000000000000000000000000003000C000AC
:2024400000000000F00090001000000000000000000000008000000000002000000000004C
:20246000000000000000000000000000000000000000000000000000404404000002BB0017
:202480000F00807C73007300000000004C00002F23000000D0000000806F6F00640010000B
:2024A000800257000028280006000006A9000050500000000F00180100010000000600006F
:2024C0000007000000000000000000000000000000000000000000000000000000000000F5
:00000001FF
