:2000000050A50000000000000200000000000000202000000000000008200000000055002C
:20002000404000000000A900526000000000000000000000000000030000000040000000A2
:200040000000000000000200FF0A00C0000000000000000000000084B45C0000941120225A
:200060000850750C20240210340C80504B00300000540008B45C0000140800003F21401E80
:200080008030340F0000004080007840070F003008003080000001040000000000000000F2
:2000A0000000000000000000000000000000022004040004333000010000000000000000AE
:2000C000000000000000000000000000000000000000000000000000000000000000000020
:2000E000000000000000000000000000000000000000000000000000000000000000000000
:200100000000000000000000000000000000000000000000000000000000000000000000DF
:200120000000000000000000000000000000080004040004449000010000000000000000D6
:2001400000000000000000000000000000000000000000000000000000000000000000009F
:2001600000000000000000000000000000000000000000000000000000000000000000007F
:2001800000000000000000000000000000000000000000000000000000000000000000005F
:2001A000000000000000000000000000000008000404000444900001000000000000000056
:2001C00000000000000000000000000000000000000000000000000000000000091F3220A5
:2001E00000C0000806800000200018601900249F00C0000400C0000200C00001007F0080F7
:200200002A0011FF009000403800000000FF070080000200000000103602400005CEFD0BB1
:200220001FFFFFFF2200F008040000000300040004040404039300010000C00040011011B4
:20024000C00100114001400100000000000000000000000000000000400180000001010087
:20026000000004000400000000000800100020000100000000000200020000000800000031
:20028000200010008000400000010000FF000000000200000000100100000000000000005B
:2002A0000000000000000000000000000000023E0404000C40400001000000000000000069
:2002C00000000000000000000000000000000000000000000000000000000000000000001E
:2002E0000000000000000000000000000000000000000000000000000000010000000000FD
:200300000000000000000000010000000000000000000000000000000000000000000000DC
:200320000000000000000000000000007F0004000404000444900001000000000000000059
:2003400000000000000000000000000000000000000000000000000000080000000000088D
:20036000000000010000000400000000000400000000001000000000000000020001000061
:200380000000000000020000000000000000001F008000000000004000000000000000007C
:2003A000000000000000000000000000000008000404000444900001000000000000000054
:2003C00000000000000000000000000000000000000000000000000000400000810732180B
:2003E000004002000001000000040C00841053800001100000010000000100000022010805
:20040000E8080321000100000F40003F70808008000A000000004044000000000000000033
:20042000000000000000000000000000000000000404000033000001000000000000000080
:200440000000000000000000000000000000000000000000000000006F000000002000000D
:2004600000806000000000E00F01800200E00C000000000C00006F0100080003250400038B
:200480004A0000120000104003000C0FE0E010100000000000001510320400000000200631
:2004A000180000000000000000000302000000000404040424410001000CF00C000C000C89
:2004C000404C404C9058000C00000000000000000000000000000000000000000700000009
:2004E0000000000001000000000000000000000000000200000000000400000000000000F5
:200500000000070000000000000000000700000000000000000010000000000000000000BD
:20052000000000000000000000000000000008000404000C4010000100000000000000004E
:2005400000000000000000000000000000000000000000000000000000000000000000009B
:2005600000000000000000000000000000000000000000000000000000000000000000007B
:200580000000000000000000000000000000000000000000000000006400000000045002A1
:2005A00019FFFFFF022000050010000000000000040404004401000140408000800080009C
:2005C0000000000000000000000000000000000000000000000000000000061D00140601DD
:2005E000FF09000400000000BF004000FD20020077008800CE00310008008000102001001A
:2006000020000100001C0002042003037804801800020000000000543204000000002006AB
:20062000180000000000000000000000010000000404040C11410001000CF00C000C000C16
:20064000404C404C9058000C000000000000000000000000000000000D0000000D00000173
:20066000020104000100020202010D000D01000002000801000100000D0000000D0000002A
:2006800000010000000000000F02000000000001000002000000000001050000000000003F
:2006A00000FFFFFF020CF80000000000000002000404040413110801000048A1000000000F
:2006C000F000F000F000F00000000000000000000000000000000000001703080200010035
:2006E000001000040000000300000000030B0014031D00020000000003000000000000009C
:200700000000030003000000020100180106000000000000000000000104000000000A00A2
:2007200000FFFFFF030CF40000001F00000000000404040414110001000048A1000000007B
:20074000F000F000F000F000000000000000000000000000000000000000000000000000D9
:20076000000000000000010000000200000000000000740001000200700008006000040023
:20078000140040000000000003000C004000300000000000000055002305000000260002E1
:2007A000130000000000000000000000000000000400040000010001000CF00C000C000CFC
:2007C000404C404C9058000C000000000000000000000000000000007B3B0044007D030291
:2007E00000007B0278000480008018000066001952000002000800010004004000100001B7
:20080000297F0000005F0020603C1803074000800000000000001500320400000000620086
:200820000C0000000000000000000000000008000404040F10110001000CF00C000C000C47
:20084000404C404C9058000C00000000000000000000000000000000000000000002000D7D
:200860000040002000000000002D000000720008002D00000052002400310042002D00002E
:20088000002D0000000D00200000000F006000100000002800000040000000000000000017
:2008A0000000000000000000000000000900040004040004242000010000000000000000DA
:2008C000000000000000000000000000000000000000000000000000000100000000000017
:2008E0000000060100010000060000000001010006000000040002000201040006010000CE
:200900000600000000010000040002010100000000000000000000000000000000000000C8
:200920000000000000000000000000004000040004040004443000010000000000000000F2
:20094000000000000000000000000000000000000000000000000000000000000000000196
:20096000000000000000000200000000000000000000000000000000000000000000000075
:20098000000000000000000000010000000200000000000000000000000000000000000054
:2009A00000000000000000000000000000000800040400044490000100000000000000004E
:2009C00000000000000000000000000000000000000000000000000000040000000000040F
:2009E0000004000000000100003000000010000D0004000000070018000B00200004000053
:200A0000000000020004000001310007000800000002000C00000010000000000000000071
:200A2000000000000000000000000000090004000404000424300001000000000000000048
:200A40000000000000000000000000000000000000000000000000001000EF002400000073
:200A600091006E00000000006C00000000006C00000000006C0000006C000000240048005B
:200A800048000000710082000000F00000000F000800000000000000000000000000000014
:200AA000000000000000000000000000400004000404000442200001000000000000000083
:200AC0000000000000000000000000000000000000000000000000000001000000046000B1
:200AE0007F088021C001020080400000C02208080001FF001F012000C0070118C010040065
:200B000000019F0090404000FF3F0000004000000022000000000101000000000000000083
:200B2000000000000000000000000000000000000404000420000001000000000000000088
:200B400000000000000000000000000000000000000000000000000000000000040003008E
:200B60000000000000000000000008000000000003002C0001001E0000000000000000001F
:200B80003500020000000000380000000700000008002000000004000000000000000000B3
:200BA0000000000000000000000000000000022404040004422000010000000000000000A0
:200BC00000000000000000000000000000000000000000000000000000000000000C000009
:200BE00000000000000C000000000008010C00000001000000000001000C030000000002C1
:200C0000000000000000000C000002080104000300000000000000142604300005DFC0EBB9
:200C20003BFFFFFF2200F00804000000000008000C040404949200010000C00040011011F5
:200C4000C00100114001400100000000000000000000000000000000000000000000000040
:200C6000FF00FFFF0000FFFF0000000000000000FF0000FF0000FFFF00000000000000007D
:200C8000FF0000FF0000FFFF00000000000000000000000000000000000000000000000058
:200CA00000000000000000000F000003047F0000000000001F000000000000000000000080
:200CC0000000000000000000000000000000000000000F00000000001C01140000000000D4
:200CE00000001C01140100001E011400000000001801180116001A0000000000000000002D
:200D00000000000000000000000000000000200000000000000000000000000000000000B3
:200D20000000000000000000000000000000000000000000000000000000000000000000B3
:200D4000000000000000000000000000000000000000000000000000000000000000000093
:200D600000000000000000000400000001000000000000000000000000000000000000006E
:200D8000000100000100000008000000010100000000000000002000010000000000000026
:200DA00000002020000080000000000000000000000000000000000000000000040000006F
:200DC000000000000000000000000000000000000000000001000400000000000900000005
:200DE0000000000000000000000000000000000000000000000000000000000000000000F3
:200E0000000000008000000020000020000080000000000000000080000000000000000012
:200E20000000000000000000000000000008000000000000000000000000000000000000AA
:200E400000000000000000000004000000000000000400000000000000000000100000007A
:200E6000000000000000000000000000000000000001000001000000A0048000100000003C
:200E8000010000000008000008080000000000000000000000000000000000000000808039
:200EA000000000000000000080002000000000000000000000000000000001000E00010082
:200EC000000000000100000000000000040002000100000000000300030000000000000004
:200EE0000400000001000000000000000000000000000000000000000000000000000000ED
:200F000000008000020000000000000000000000000000000000000000000000000000004F
:200F20000000000000000000000000000000000000000000000000000000000000000000B1
:200F4000000000000000000000000000000000000000000000000000000000000000000091
:200F600000000000000000000000000000000000000000000000000004000000000000006D
:200F80000004000000000000000C000000008000000000008000200000000000020080801F
:200FA00000000000000000800000000010000000000000000000000000000C000000000095
:200FC00000000000000000000000000000000000000000000000000000000400000000000D
:200FE0000000080000000000000000000000000000000000000000001000000000000000D9
:201000000000000000000000000000000000000000000000000000000000000000000000D0
:20102000000000000000000000000000000000000000000000000000000000008000000030
:20104000000000000000000000000000000000000000000000000000000000000000000090
:20106000000000000000000000000000000000000000000000000000000000400000000030
:201080000000000002000000000C00000000800000000000000020400000000000008000E2
:2010A000100000000000000000050000000000040000000000000000020000000000000015
:2010C00000000000000000000100000000000000000000000000000000000000000002000D
:2010E0000200040001000000000000000000000000000000000000000000000000000000E9
:201100000000000000000100000400000000000000000000000000000001000000000000C9
:2011200000000000000000000000000000000000000020000000000000000000000000008F
:2011400000000000000000000000000000000004000000000000000010000000000000007B
:2011600000000000000000000000000000000000000000000000000000000000000001006E
:2011800000000000000000000000000000008000000000000000004000000000000080000F
:2011A0000000400000000040000000000000000000000000000000000000010008000000A6
:2011C000020000000000080000000000020000000200000000000000000000000000000001
:2011E0000000000000000000000000000000000000000000000000000000000000000000EF
:201200000000000000000000000000000000000000000000000000000000000000000000CE
:2012200000000000000000000000000000000000000000800000000000000000000000002E
:2012400000000000000000000000000000000000000000000000000000000000000000008E
:201260000000000000000000000000000000004000000000000080000000000000000000AE
:2012800000000000000000000000000000000000000000000000000000000000000000004E
:2012A00000000000000000000000000000000000000000000000000000000000000000002E
:2012C000000000000000080000000000000000000000000000000500000000000000000001
:2012E0000000000000000000000000000000000000000000000000000400000000000000EA
:20130000802080000000100000000800000000010400800400101000000000000000A01933
:201320000008200080004010000400400132800402000088800004000000081080200008EC
:20134000000000000002088400000000000004210000000000840020040000000000002012
:20136000628264040000000080000000000000000000000000000002080060240200000908
:201380000081140410042020020400802082A004800C00400B200C0000200842E204100C25
:2013A00000004000800000000100000000000000000000000000000004002B00120000002B
:2013C0000000D600FA005B00E000300000007000440000000000100080002000D00020007E
:2013E000000087000000000000000000000000000000000000000000000200240020000020
:2014000000110000010018020500000004010004000000005000082008348000000000203E
:2014200000802480013300206000050004000000002800000032400200000000000000002F
:2014400000000000000000000000000000000000200800420000000000008100020012206D
:201460000000000000000000000000000000000000000000000001012080040604080000B4
:2014800020020100540040000410182000000002470230440080072000010080002004241A
:2014A0000000010080002000000080000000000000000000000000004E00FA007300000050
:2014C0000000DF004F00B6000000000000000F00F9000000000000000000550092000D002C
:2014E00000000B0000000000000000000000000000000000000000008400080010006000E5
:201500008220251882000010A21004080802020800000001120003840400020000000000E8
:201520000000268900480040A0002A000004104014820000000800000000000000000000B8
:2015400000000000000000000000000000000000000040000000000000000000010208043C
:201560000000000000000000000000000000000000000000000000000000404404000004DF
:2015800000016C00000000400244088020110400000C000000220040000000020400010026
:2015A00000000040000C00C5000240001000000000000000000000007700BF00FF00000093
:2015C0000000DF007F004F000000000000000800F00000000000000050002500870000006A
:2015E0003000800000000000000000000000000000000000000000000042002400020002D1
:201600000400000001000A000112000004000004000200000000000020002500040111043F
:201620004080080401020020002085800400110000002402801400000000000000000000C7
:201640000000000000000000000000000000000000248001800000000041000000004000E4
:20166000000000000000000000000000000000000000000000000000000020404000411079
:2016800010000A200001000000549020000000100764100300030004400000000001042011
:2016A0000108400004108200000000000000001000000000000000009F00D4006B0000005D
:2016C0000000DF00EF0077000000000000001F0019000000000000004000810002002800A2
:2016E00024008A0008000000000000000000000000000000000000000800020000004400E6
:201700000000040000004120000100200080280000000800022A004000000000080080207F
:2017200020040080001104018000004000008B20204802201008008000000000002A000038
:201740000000000000000000000000000000041080000000000000000000400000000000B5
:20176000000000000000000B00000000000000004000000000000000000000010000000815
:201780008000000001400000008441000840002860002A000020000000040800810000021A
:2017A000000010000004000000284200A000000000000000000000005500B200EA0000001A
:2017C0000000F300F8007F00E0000000000008000800000000000800400000000100000066
:2017E000C00000000000080000000000000000000000000000000000040008000002000013
:201800000800480000000802000024000500000608404800000000000008610000008002C4
:201820000800061605010021000009500012800405A0000080261002000000000000000011
:20184000000000000000000000000000000000000000000000000020020040000000A00086
:201860000000000000000000000000000000000000000000000000000480200400008C0034
:20188000000000000001000104E500220010061000345271048208044010081600010220FB
:2018A0000000000000000000000200000000002000000000000000001600CE00F60000002C
:2018C0000000FF00FF00FF0000000000000020003000000000000000000000000500420074
:2018E000000001000200080000000000000000000000000000000000020A0000140000407D
:20190000200000200000690080400400400028000000000000007900000000004000002A0F
:20192000200200000000402080000000000400000040062800002900000100000000002ADF
:201940000804000000000000080000200000280000000000000080000000000000000000AB
:20196000000000000000000000000000000000000000000000000002040000000000000061
:201980000000000000400000140200004040002040000040A0280400000408008100000078
:2019A0000004450000000000000208000000002000000000000000007C00F6007B000000C7
:2019C000000053004800EF00E1000400000010000000000000001000000000001100400027
:2019E000800020008100000000000000000000000000000000000000800200240000000020
:201A00000531004200000000084500020000000200100000400000010002000000000000AA
:201A20000402002004000021010000040002000440120800001200000000000008000800D4
:201A4000000000000000000000000000000000000800000000800411000200004008800817
:201A60004844000000000000002000020000000000000200000000000000040100000000B1
:201A8000002040000800000004A2002900000242000CD271440200040000481600010420AF
:201AA0000408100000000000008102000000000000000000000000000F000F001F0000004A
:201AC00000007700C300AF00000000000000F200F1000000000008000000000000004000F2
:201AE0000400010000000000000000000000000000000000000000000208000008120100BC
:201B0000200000201000A0008040040000012000000080200000800014092100000082010F
:201B20004001008000001000000820000000A50000920000402004000109100000400000B7
:201B4000000000000000010000000040000000000000000000000000000000000000000044
:201B600010900440000000000000010000010000000000000000010000100000100000005E
:201B80000000100004002000010100004000118000000000C0200001005005001000A280D6
:201BA000000000000000400000000000002000000000000000000000FC0076003B00000018
:201BC00000002000F6007D0019001000000000000000000000001000900008004000000061
:201BE000080010000000010000000000000000000000000000000000048000000000000444
:201C0000080040000008084000000010040400020080400100000000001000000000000041
:201C20000800221604040021000009500002000604900000000210004400200100000000CF
:201C400040244090000000000000580000000000401000000000000000000200004004085A
:201C6000000000000000000000000000000000000000000000000000000084040068004034
:201C800000100200000000504490002100000040003002700402400400000016400804213E
:201CA00000000000000000200000000000000000000000000000000045007C0072000000D1
:201CC00000007F00CF00AE0007000C0000000C00710000000000000000000800060020004A
:201CE0000000100000000100000000000000000000000000000000004000000000806009AA
:201D00000010018020000080200084000000040094400000002A0000000000000155050889
:201D20000000000060801000000000000000620800000000600A000014000000002A0000A1
:201D40002040400000000000000004000000204000000000800000000000000000004000BF
:201D600000000000000000000000000000000000000000000000008040040000000000009F
:201D8000000100000000000000000000000000000000000000000000000000000000000042
:201DA000000000000000000000000000000000000000000000000000F1005B004E00000089
:201DC0000000F000F000F000E6000800000010001000000000008000000000008000000025
:201DE00000000000000000000000000000000000000000000000000080210110000000042D
:201E000000805000110808400010A0000404000240241014000000000440A010000000005B
:201E200000244100050400200080001110020006049100000008000000000003000C0000BF
:201E400000000030000000000000000000000000000000000000000000000002001000013F
:201E600002114051000000000080020000000000000000000000000000000000000000003C
:201E8000020000000000000000000000000000000000000000000000000000000000000040
:201EA0000000000000000000000000000000000000000000000000004F007D007E000000D8
:201EC00000007F00ED004F000000000000000000380000000000000000000500000000000A
:201EE0000000000000000000000000000000000000000000000000000000000000000000E2
:201F0000000000000000000000000008000080000000000000000800000000000000000031
:201F20000000000000000000000000000000000000000000000000000000000000000000A1
:201F400000000000000000000000000000000000000000020000000000000000000002007D
:201F6000000000000000000008000000000000000000001000000200000000000000000047
:201F8000000000080000820200000000000000000000000000000000080002100000040097
:201FA000040010000004020000000000000000000000000000000000000000003000800057
:201FC000000000000000000000000000000040008000000080006000000000000000000061
:201FE0000000E00040000000000000000000000000000000000000000000000000000000C1
:202000000000000000000000000000000000000000000000000000000000000000002000A0
:202020000000000000000000000000000000000000000000000000000000000000000000A0
:20204000000000000000000000000000000000000000000000000000000000000000000080
:20206000000000000000000000000000000000000000000000000000080000000000000058
:20208000005000000000040000040000041010000000000000000000000000100040200054
:2020A0000000000000000000000020010000000000000000000000000000000000000000FF
:2020C000200000000000000000000000000000000000000000000000000080000000000060
:2020E0000000000000000000000000000000000000000000000000000000000000000000E0
:20210000000000000000010000040000041010000000000000000100000000100040000144
:20212000000000040800010000000000000000000000000000000000000000000000000092
:2021400000000000000000000000000000000000000000000000000000000000000000007F
:2021600000008000400010000000000000000000000000000000000000000000000000008F
:2021800000000000000000000000000000000000000000000000000000000000000000003F
:2021A00000000000000000000000000000000000000000000000100000000000000000000F
:2021C0000000000000000000000000000000000000000000000000000000000000000000FF
:2021E0000000000000000000000000000000000000000000000000000000000000000000DF
:20220000000000008000000000040200041000000000000008000104000000108040000146
:2022200000000000000000000000000000000000000000000000000000000000000000009E
:2022400000000000000020000000000000000000000000000000000000000000000000005E
:2022600000000000000000000000000000000000000000000000000000000000000000005E
:2022800000000000000000000000000000000000000000000000000000000000000000003E
:2022A000000000000000000080000000000000000000010000100400080000000000000081
:2022C0000000000000000000000000000040000000000000000000000000000000000000BE
:2022E0000000000000000000000000000000000000000000000000000000000000000000DE
:20230000000000010000000000040600040000000000000000000005000000100000000198
:20232000100000000000000400000000000040000000000000000000000000000000000049
:20234000000000001000E0001000000040000000000000000000000000000000000000003D
:2023600040000000000080000000000000000000000000000000000000000000000000009D
:2023800000000000000000000000000400040000000002000000040000000000000000002F
:2023A000000000000000000000004004008000011000000000000002040000000000000042
:2023C0000000000000000000000000000800001000000000000000000000000000000000E5
:2023E00000000000000000000800000000000000000000000000000008800000000000004D
:202400000000000000000000000000000000000000000000000000000000000000000000BC
:20242000000000000000000000000000000000000000000000000000000000003000C000AC
:2024400000000000F0009000100000000000000000000000800000000000A00000000000CC
:20246000000000000000000000000000000000000000000000000000404000000002BF001B
:2024800003008C7073007300000000004C00002F23000000D0000000806F6F006400100017
:2024A000800257000028280006000006A9000050500000000F00180100010000000600006F
:2024C0000007000000000000000000000000000000000000000000000000000000000000F5
:00000001FF
