:2000000050A5000000000000020000000000000020640000000000002028000000005500C8
:20002000404000000000A900624000000000000000000000000000030000000040000000B2
:200040000000000000000200FF0A00C00000000000000000000000840000000002000D0042
:20006000700000000D0000000D0000000200240042000800110002010D0000000D00000058
:200080000D00000000007000000070000F010000000020000000040000000000000000003F
:2000A0000000000000000000000000007F00040004040004439000010000000000000000DD
:2000C000000000000000000000000000000000000000000000000000000000000000000020
:2000E000000000000000000000000000000000000000000000000000000000000000000000
:200100000000000000000000000000000000000000000000000000000000000000000000DF
:200120000000000000000000000000000000080004040004449000010000000000000000D6
:2001400000000000000000000000000000000000000000000000000000010000000100009D
:2001600000000000000000000000000000010000000000000000000100010000000100007B
:2001800000010000000000000000000100000000000000000000000000000000000000005D
:2001A000000000000000000000000000030004000404000444900001000000000000000057
:2001C000000000000000000000000000000000000000000000000000003F0840404B80305D
:2001E000088000348034408000000100200810750094022010B42000020000000120000262
:200200000014040004B40000FF800007007800400020000C00000141000000000000000062
:200220000000000000000000000000000000080004040004309000010000000000000000E9
:2002400000000000000000000000000000000000000000000000000000070018000401007A
:200260000040000000010C0000400000582223084001300000018200111062003408432135
:2002800000010000000100000F3F80007040000000222000000000014600000000004520F0
:2002A0002CFFFFFF0220000500100000000002240404040433310001404080008000800043
:2002C00000000000000000000000000000000000000000000000000000000000000000001E
:2002E0000000000000000000000000000000000000000000000000000000000000000000FE
:200300000000000000000000000000000000000000000000000000000000000000000000DD
:20032000000000000000000000000000000000000404000044000001000000000000000070
:2003400000000000000000000000000000000000000000000000000000000000000000009D
:2003600000000000000000000000000000000000000000000000000000000000000000007D
:2003800000000000000000000000000000000000000000000000000000000000000000005D
:2003A000000000000000000000000000000008000404000444900001000000000000000054
:2003C000000000000000000000000000000000000000000000000000001F00200900046071
:2003E00006C00008009000400000009F0A7F018000C0000409C0020200000000000000FF26
:200400000080000000C000010800070000FF000028000000000011102306400001BEF0DC50
:200420003BFFFFFF2200F008040000000900040004040404033300010000C00040011011F0
:20044000C00100114001400100000000000000000000000000000000000020010000A00087
:20046000C0000000000000000F00000003001000000003000A00000000000F00000060001E
:200480000500000000000C00E00103001C000000000000000000140032060000000020607F
:2004A000280000000000000000000000090004000404040442210001000CF00C000C000C73
:2004C000404C404C9058000C0000000000000000000000000000000000000200000000000E
:2004E0000000010000000000000100000000000000000000010000000000000000000000F9
:200500000000000300000000000200000300000100000000000000000000000000000000D2
:2005200000000000000000000000000000000220040C00044920000100000000000000001B
:2005400000000000000000000000000000000000000000000000000001000000000B01048A
:200560000005010A0000000000000000000000000101000E01040003000001000000000052
:200580000100000000000000000000080000010700000080000000040000000000000000C6
:2005A0000000000000000000000003020000000004040004244000010000000000000000C5
:2005C000000000000000000000000000000000000000000000000000015400010029000498
:2005E00000000400000000000000007D00000800047C0002080000000000010000000200E5
:20060000020000000060100000181F600003000408000000000004555304000000600002B0
:20062000120000000000000000000000000008000404040C04110001000CF00C000C000C52
:20064000404C404C9058000C000000000000000000000000000000000100000600000B007C
:20066000000010060877108800CE003100BF004000FD000200FF000000200001041000011B
:20068000040000000008008002780403010418800800000000004000020300000000000063
:2006A00000FFFFFF020CF80000000000000002000404040411110801000048A10000000011
:2006C000F000F000F000F0000000000000000000000000000000000000060011001000082B
:2006E00000000002000000050008001000180000000000100018000000000008000000088B
:2007000000070000001D000200180004000000030000000000000000020300000000A000EF
:2007200000FFFFFF030CF40000001F00000000000004040410110001000048A10000000083
:20074000F000F000F000F00000000000000000000000000000000000000000010033004C59
:20076000022F0090033F0000000200201C08004002000101011D02220844040000001C003E
:2007800014000000003F000018C000010420031E0000000000001101250400000020000687
:2007A000120000000000000000000000000000000404040011010001000CF00C000C000CE8
:2007C000404C404C9058000C00000000000000000000000000000000000000000F064000B8
:2007E0003F00000300000000000003000000300000003F001500000100000000000000002F
:200800002A000000000000050007700003000C000000000000005400230100000000620049
:200820000C0000000000000000000000000000000404040030010001000CF00C000C000C4E
:20084000404C404C9058000C0000000000000000000000000000000000020000000000008A
:20086000000000010000000000000000000000000000000000020000000000000000000075
:20088000000000000000010000010002010000000008000000000004000000000000000047
:2008A000000000000000000000000000000002380404000C44400001000000000000000065
:2008C000000000000000000000000000000000000000000000000000000000000001000017
:2008E0000001000000010000000000000000000000010000000000010000000000000001F3
:200900000000000000010000000000000001000000000000000000000000000000000000D5
:20092000000000000000000000000000400004000404000444200001000000000000000002
:20094000000000000000000000000000000000000000000000000000000000000000000097
:20096000010000000100000000000100010000000100000001000000000000000000010070
:20098000000000000000000001000000000000000000000000000000000000000000000056
:2009A00000000000000000000000000000000800040400044490000100000000000000004E
:2009C0000000000000000000000000000000000000000000000000000111802262080800F1
:2009E0008150000C040C0050100000400000800047541808815C00004830210F8121001EEA
:200A000080240010015C00003F0080404030000F020000200000150400000000000000000C
:200A2000000000000000000000000000400004000404000430300001000000000000000005
:200A4000000000000000000000000000000000000000000000000000007460000003FF3888
:200A60001F4020340014000080200002C000083D7F078008C0000100C0740200C0540420CB
:200A800000009F009034404000000007FF3900400000000C000010406203400005CEF0DB55
:200AA0003BFFFFFF2200F008040000000000080004040404209200010000C00040011011F3
:200AC000C001001140014001000000000000000000000000000000000100000001000001BF
:200AE0000100000000000100000001000000000001000000010000000000000000000000F1
:200B00000000000000000000000000010100000000000000000000000000000000000000D3
:200B2000000000000000000000000000010000000404000C4440000100000000000000001B
:200B4000000000000000000000000000000000000000000000000000E01400432100020239
:200B60000000100C02000D000D0000000D2800130011E0220D6000000D0000000D0000005B
:200B800082000800020044011000000FE0000F7000808000000010000000000000000000F6
:200BA00000000000000000000000000000000000040400002200000100000000000000000A
:200BC0000000000000000000000000000000000000000000000000000016000000120004E9
:200BE0000040000000290016000400000031000E001700280022001000160000004000006C
:200C0000001001060006001001000040000F0030002800800000000000000000000000007F
:200C20000000000000000000000000000000080004040004249000010000000000000000EB
:200C400000000000000000000000000000000000000000000000000000000000FF00000095
:200C6000FF0000FF0000FFFF0000000000000000FF0000FF0000FFFF00000000000000007C
:200C8000FF0000FF0000FFFF00000000000000000000000000000000000000000000000058
:200CA00000000000000000007F0003000F000000000F00001F000000000000000000000075
:200CC0000000000000000000000000000400000000000000000000001C01140000000000DF
:200CE00000001C01140100001E0114000000000018011A0116010A0000000000000000003A
:200D00000000000000000000000000000004000000000000000000000000000000000000CF
:200D20000000000000000000000000000000000000000000000000000000000000000000B3
:200D4000000000000000000000000000000000000000000000000000000000000000000093
:200D600000000000000000000000000000080000000000000000000000200008000800003B
:200D8000000000000000000000000000000400000000000000200008000000000000000027
:200DA00000000000001000000000000000000400000000000000000000000000040000001B
:200DC00000000000000000000000000000000000000000000000040000000000000000000F
:200DE0000000020000000000000000000000000000000000000000000000000000000000F1
:200E0000000000000000080014000000000080000000000000000020000000000000000016
:200E20000000000000000000000000000000000800000000000000000000000000000000AA
:200E4000000000000000000000000000000000000000004000000000000001000020000031
:200E600000000000000000000000000000000000002000000000000400000000100000003E
:200E8000000180040000000000020000000400000000014004000000000000000000002062
:200EA000000001200400000000000000000001000000000000000000000001000E000100FC
:200EC000000000000100000000000000010000000300000000000300010004000000040001
:200EE0000000000002000000000000000000000000000000000000000000000000000000F0
:200F00000000008000000080000000000000000000000000000000000000000000000000D1
:200F20000000000000000000000000000000000000000000000000000000000000000000B1
:200F4000000000000000000000000000000000000000000000000000000000000000000091
:200F600000000000000000000000000000000000000000000000000000000000000000046D
:200F8000000000000800004000020000000400880000000008000000000001000000004032
:200FA00000020000000080004004000000000000000000000000000000000C00000000005F
:200FC0000000000000000000000000000000000000000000000000000A0000000000000007
:200FE0000100040000000000000000000000000000000000000000000020000000000000CC
:201000000000000000000000000000000000000000000000000000000000000000000000D0
:201020000000000000000000000000000000000000000000000000000000000000020000AE
:20104000000000000000000000000000000000000000000000000000000000000000000090
:20106000000000000000000000000000000000000000000000000000000000000000000070
:2010800000000000002000000002000000000088000000004800800000000100000000409D
:2010A00000000000000000000000000000040000000000000000000002000000000000002A
:2010C000000000000000000001000000000000000000000000000000000008000000000007
:2010E0000000000000000200000000000000000000000000000000000000000000000000EE
:201100000000000000000200000800000000000000000000000000000001000000000000C4
:2011200000000000000000000000000000000000000080000000000000000000000000002F
:20114000000000000000000000000000000000004000000000000000000000000000000847
:2011600000000000000000000000000000000000000000000000000000000040000000002F
:201180000000000000000000000000000000008000000000080000000000000000000000C7
:2011A0000200000000000000000000400000000000000000000000000000010008000000E4
:2011C000020000000000080000000000010000000100000000000000000000000000000003
:2011E0000400000000000000000000000000000000000000000000000000000000000000EB
:201200000000000000000000000000000000000000000000000000000000000000000000CE
:2012200000000000000000000000000000000000000000400000000000000000000000006E
:2012400000000000000000000000000000000000000000000000000000000000000000008E
:201260000000000000000000020000000000000000000000880000000000000000000000E4
:2012800000000040800000000000000000000000000000000000000000000000000000008E
:2012A00000000000000000000000000000000000000000000000000000000000000000002E
:2012C0000000000000000800000000000000000000000000010005000800000000000100F7
:2012E0000000000000000000000000000000000000000000000000000280200840180040AC
:201300000100190000000420000509000028000000800021000000010280041004004018C5
:201320000000000101011010008028000002680000000910100401800000000000000000CA
:2013400000000000000000000000000000000000000000000040000000000000000000004D
:20136000000000000000000000000000000000000000000000C000000090000100000020FC
:201380000010000000010158500D152004000002010A084000000010004028080001400037
:2013A000000104100040000010404000018000000000000000000000FF006F006F000000EA
:2013C0000000F800FE00F70000000000000010000000000000000000140000002900400093
:2013E0008200200040008000000000000000000000000000000000000080002000A000004B
:20140000200902900000005400400004200080000020002000000000000009400000200030
:20142000008000200000802040081180208040400012808400000054000000000000000009
:2014400000000000000000000000000000000000400000000000000000000800810420009F
:2014600030501080000000000000000A000000000000010000000000200010000000000021
:2014800020002000C0000040400200140040120001042000A020008A000141809000002083
:2014A000000801008000000001080450000000000000000000000000C5007F0035000000CD
:2014C00000005A003F007F000000000000000800F20000000000080004006000000004008A
:2014E000020004004000040000000000000000000000000000000000600800400C010008E5
:201500000001040200009980000000000187080000000020000000102004000020002C2952
:201520000000000001050000000000000002280000000400040011800000000000000029B9
:2015400000000000050200040000000000220808020080010080000000000000000040000B
:20156000000000000000000000000000000000000040000000000000000208000000000819
:20158000002000001000100040C6950024000006000804400242400800000000100020201E
:2015A0000000000000000200001200000001004000000000000000007F00FB00F00000006C
:2015C0000000D000E000F200E0003000000018001000000000000800900020000000B200C7
:2015E00000001800000005000000000000000000000000000000000000088900002000011C
:201600004228000000008114902000402000000000048800400000001010000100000000CE
:20162000004000540000012020000042200040010090040100000014000000000001000187
:20164000018000000000000000000000000000000000000000800000100022020000000055
:20166000000000000000000000000000000000000020000700000000020800000020020017
:2016800001012000001040000090010400401211504004400020008A2001E9D21000002452
:2016A000020000004000000000000000880120410000000000000000CF00FF002F00000001
:2016C0000000CF00BD006F0000000000000010000F00000000000000800009000000230044
:2016E0000000080000000D0000000000000000000000000000000000002040002401000050
:201700000080000021002002000000000000090900200000002900000082400000000040A9
:201720000020000000080009000200000000004000000000600104000000000000280000A9
:2017400000000000000008000000000020000100000000000290000400008000004000808A
:20176000018E100000000000000003000000000000400000000000000080000000000020E7
:201780000105000000000000404104002400008201880C0100000040000098091000200071
:2017A000000000000110005880C404200000040000000000000000007A00F100F0000000F9
:2017C000000074001100F000600020000000F00098000000000008005000A000080080000C
:2017E00003000000300000000000000000000000000000000000000010080000002002007C
:20180000000800010000815400000000800000001010000100000000001000000000000039
:201820000048081400200200200900408000000004900001000001544208280100000410C8
:2018400008050000000000000000240200000000000480110000000000000202000080003C
:201860000000000000000000000000000000000000000000000000000000000000008020C8
:201880001000880010100000449081041060120100400240002104AA200841901001022433
:2018A000000000001000489000000004000000800000000000000000C600F50010000000F1
:2018C0000000AE001F00FF000F00040000000F001900000000000000000000000000010000
:2018E0000900000000000A00000000000000000000000000000000000008004840080442F7
:201900000030010200200150000000220005012000400000000000080004800002020804FF
:2019200000000000010000000000A000000010012400000020200802000000000002000481
:20194000000000000102000200000000000008008000000010004000000000000120000089
:2019600000508000000000000000000000000000000000000000000200084000000000420B
:20198000000500001000001000004000000000020000010100220810000010021000000082
:2019A000000001001000040000000000000040040000000000000000FE00F300FA000000E3
:2019C00000001000AC00C600C000100000003800300000000000100020000000C00000005D
:2019E0000000000010000000000000000000000000000000000000000008010200200000AC
:201A000040080400050001040000200100000A000018040200000000040200000000000021
:201A20004041001400000120200A00400500400004A0000100000204000100000000000095
:201A400000000800000000005001000000000000000000000000000000100000000000001D
:201A6000209000400000000000400000000000000000000000000000000003200000010012
:201A80000000000A100000004000810490D012210500020000400DEA0008281030014024C1
:201AA0000000400004080000000000004004000000000000000000004500F700CC0000008E
:201AC0000000CF00DF00CF0001000400000000000400000000000000000008000600010071
:201AE000060008000000400000000000000000000000000000000000000000002005020071
:201B0000000000000000000000000000000000140000000000250040000C0941400010297D
:201B20008040140002020802200045000040002900500005402100000024000010281000D3
:201B4000000000000000000010000000000000000000000000000000000000000000000075
:201B60002051000000000000000002000200000000000000000008000000100100000000D7
:201B8000000400200090000100008804001014C18040040010A00000000000002200000089
:201BA000000000000000004000200040000000000000000000000000F00000006000000035
:201BC0000000DF00FF00BF0066000000000000000000000000002000000004004000A000FE
:201BE000040000000000800000000000000000000000000000000000204010A000000A0047
:201C000001011304010001040400808A04001000000040000000000044087400000400007F
:201C200000C0040404000120A008004000084000049000410002000400000000000040016B
:201C4000000000000000000000000000000000000000000080000020080442000000008016
:201C6000000000000000000000000000000000000000221100000000000802810000004066
:201C800000000800040000000000000410102961800000000D84030100000000A000802134
:201CA000100048000000002800000000000000000000000000000000CF00DF006F00000087
:201CC0000000EE005E00CF0000000000000030008F00000000000000010004000000240001
:201CE00004000000000082000000000000000000000000000000000000100100002000200D
:201D000010000110800000A488000004000004000440410000A80000000046340000004007
:201D200080410000008000002A0040000000004000000155000014000400400000A8000062
:201D40008001020000000000080004000000005000000000000000000000000000000000A4
:201D6000000000000000000000000000000000000000000000000000000000000000000063
:201D8000000000000000004000000000000000000000000000000000000000000000000003
:201DA0000000000000000000000000000000000000000000000000006300F7004E0000007B
:201DC000000019001F006F007500080000000000000000000000000000000000000080005F
:201DE00000000000000000000000000000000000000000000000000014800000000002004D
:201E00000000284101000114A0100100040400002400000000000000000000040000000062
:201E2000450000004404012000008020010000000000023400000214000000000000000007
:201E40000000000000000000000000000000000008108001000000288024000200104800C3
:201E6000000000000000000000000000000000000000000000000000000000000020400002
:201E8000000000000000000000000000000000000000000000000000000000000000000042
:201EA0000000000000000000000000000000000000000000000000008700FF006F0000002D
:201EC0000000ED008C00E7000000000000006F007F00000000000000000000000000800034
:201EE0000000000000000000000000000000000000000000000000000000000000000000E2
:201F0000000000000000000020000000400000000000000000200000000000000000000041
:201F20000000000000000000000000000000000000000000000000000000000000000000A1
:201F4000000000000000000000000000000000000008000000000000000000000000080071
:201F60000000000000000000000000000000000080080000000002000020000000000000B7
:201F8000000008000008000000080000000000008000000040000000000002002000000047
:201FA0000000000020040000000000000080000000000000000000000000000030008000CD
:201FC000000000000000000000000000000040008000000080006000200000000000000041
:201FE000400000000000400000000000000000000000000000000000000000000000000061
:202000000000000000000000000000000000000000000000000000000000000000000004BC
:202020000000000000000000000000000000000000000000000000000000000000000000A0
:20204000000000000000000000000000000000000000000000000000000000000000000080
:20206000000000000000000000000000000000000000000000000000000000008000800060
:202080004000020000000000000800000004000000800000000080040000000000000000EE
:2020A00000000200100000000000000000000000000000000000000000000000000000000E
:2020C000200000000000000000000000000000000000000000000000000040000000400060
:2020E000000010000000200000000000000000000000000000000000000000400000000070
:2021000000000000000000000008000000040000008000000000824400000000100000005D
:2021200000000004000000000000000000000000000000000000000000000000000000009B
:202140000000000000000000000000000000000000000000000000000000000000008000FF
:202160008000000000000000000000000000000000000000000000000000000000000000DF
:2021800000000000000000000000000000000000000000000000000000000000000000003F
:2021A0000000000000000000000000000000000000000000200000000000000000000000FF
:2021C0000000000000000000000000000000000000000000000000000000000000000000FF
:2021E0000000000000000000000000000000000000000000000000000000040000000100DA
:2022000000000000000000000008000000040100008000000000864000000000000000006B
:2022200000000000000000000000000080000000000000000000000000000000000000001E
:202240000000000000002000000000000000000000000000000000000000900000000000CE
:2022600000000000000000000000000000000000000000000000000000000000000000005E
:2022800000000000000000000000000000000000000000000000000000000000000000003E
:2022A000000000000000000000000010000000000000040000008400000002000000000084
:2022C00000000000000000000000000080000000000000000000000000000000000000007E
:2022E0000000000000000000000000000000000000000000000000000000001000000800C6
:202300000800000000000000000804000004010000800000000000400000000008000800D4
:20232000000000000000700000042000000000000000000000000000000000000000000009
:20234000000000001000E0001000000040000000000000000000000000003000000000000D
:202360005000000000004000000000000000000000000000000000000000000000000000CD
:20238000000000000000000000004000000010000080000000000400000000000000000069
:2023A000000000000000000008000040000028000000001000040000000001000000000098
:2023C0000000000000000000000000000000000000000000000000000000000000000000FD
:2023E0000000000000000000000020000000000000000000000000000000000000000000BD
:202400000000001000000000000000000000000000000000000000000000000000000000AC
:20242000000000000000000000000000000000000000000000000000000000003000C000AC
:2024400000000000F00090001000000000000000000000008000000000000000000000006C
:20246000000000000000000000000000000000000000000000000000404000000002BF001B
:2024800003008C7073007300000000004C00002F23000000D0000000806F6F006400100017
:2024A000800257000028280006000006A9000050500000000F00180100010000000600006F
:2024C0000007000000000000000000000000000000000000000000000000000000000000F5
:00000001FF
