:2000000050A500000000000040240000000000002020000000005500101000000000A90029
:200020006240000000000000000000000000000300000000400000000000000000000200D9
:20004000FE2B00C00000000000000000000000840000000000000000000000000000000033
:20006000000000000000000000000000000000000000000000000000000000000000000080
:20008000000000000000000000000000000000000000000000000000000000000000000060
:2000A0000000000000000000040400004400000100000000000000000000000000000000F3
:2000C00000000000000000000000000000000000000000000101000000000100010100001B
:2000E0000000000000010000010000000000000001000000000000000100000000000100FB
:20010000000000000000010100000000000000406305200004DEFCB02FFFFFFF2200F00841
:20012000040000000000022C04040404443300010000C00040011011C0010011400140018F
:2001400000000000000000000000000000000000071A38000A00100001020018048200008B
:2001600004188000809C04035618090260180002841A000084C100380000000084330044B7
:2001800008007FE0800F801308000028000051000000000000000000000000000000000055
:2001A0000000000009000400040400043330000100000000000000000000000000000000C2
:2001C00000000000000000000000000000000000000000000000000000000000000000001F
:2001E0000000000000000000000000000000000000000000000000000000000000000000FF
:200200000000000000000000000000000000000000000000000000000000000000000000DE
:200220000000000000000800040400044490000100000000000000000000000000000000D5
:2002400000000000000000000000000000000000000000000000000000000000000000009E
:2002600000000000000000000000000000000000000000000000000000000000000000007E
:2002800000000000000000000002000000000001000000000000000000000000000000005B
:2002A000000000007F000400040400044490000100000000000000000000000000000000DA
:2002C00000000000000000000000000000000000000080001200640002000D0110006000A8
:2002E0004D0080008D00400072000800CD00000001003200CD00000000000000CD00000050
:2003000070010F008000000000000A000000100000000000000000000000000000000000C3
:200320000000000040000400040400044330000100000000000000000000000000000000F9
:2003400000000000000000000000000000000000000000000000000100010000000000019A
:2003600000000000000000000000000000000000000000000000000000000000000000007D
:2003800000010000000000000000000000000001000000000000000000000000000000005B
:2003A00000000000010000000404000C4440000100000000000000000000000000000000A3
:2003C00000000000000000000000000000000000000E0000901460092015D00A00130C04D0
:2003E0003000C0005000A00000000F000F0000000F0000000A0000000500000000000000E1
:20040000030FF0000C00001000020800000011402604000000600020220000000000000097
:2004200000000000090004000404040422210001000CF00C000C000C404C404C9058000C2F
:200440000000000000000000000000000000000060000000000000030000000300026000D4
:20046000000000010000000000007D001C000200000000005400010029000400000000005E
:20048000030304006200180000000000000055003405000000060002110000000000000031
:2004A00000000000400004000404040430210001000CF00C000C000C404C404C9058000C6A
:2004C00000000000000000000000000000000000006F000000250000000000000000000088
:2004E000000000000000000000630010000000000000000C00000003004A00000000006FC1
:200500000000001C0003006000000000000000543205000000002060280000000000000029
:2005200000000000000008000404040C04110001000CF00C000C000C404C404C9058000C59
:20054000000000000000000000000000000000000000010036050800000000000000010056
:2005600001000000010000002B0C14023C0002000000220010000400010800010000000DA1
:2005800001002003180C06000000000000000014060300000000000000FFFFFF020CF800ED
:2005A00000000000000000000404040001010001000048A100000000F000F000F000F00083
:2005C0000000000000000000000000000000000000010600FF00000100010000BF00400014
:2005E000FD01020077008800CE00310100000000000006002000010110010100080080003A
:2006000003007800800004010000000000000000060300000000000A00FFFFFF030CF400C7
:2006200000000000000002000404040441110801000048A100000000F000F000F000F000A4
:20064000000000000000000000000000000000000000000000000000000000000800100082
:2006600004000000010000000000100000000B000000000004000000000000000000000056
:2006800018000200010004008000000000000100630000000004050215FFFFFF0220000513
:2006A00000100000000008000400040F0111000140408000800080000000000000000000F8
:2006C000000000000000000000000000000000000000004202000D4200DF0020337B4C048A
:2006E00000040000007D0002E00800810000000000000000557FAA00499096010066009921
:20070000003C0F03F040008020000800000000404203000000020006110000000000000015
:2007200000001F00000000000404040413110001000CF00C000C000C404C404C9058000C39
:20074000000000000000000000000000000000000000000000000000000000000000000099
:20076000000000000000000000000000000000000000020000000400000000000000010072
:20078000040000000100020000000000000000000000000000000000000000000000000052
:2007A000000000000000023E0404000F44400001000000000000000000000000000000005D
:2007C000000000000000000000000000000000000000010001010000000000010101000013
:2007E0000101000000010100010000000000000101010000000000000000000000000000F1
:200800000100000000010000000000000000000000000000000000000000000000000000D6
:200820000000000000000800040400044490000100000000000000000000000000000000CF
:20084000000000000000000000000000000000000000000000000100000000000100000096
:20086000010000000100000001000000000000000100000000000000010000000000000073
:20088000000000000000010000000000000000000000000000000000000000000000000057
:2008A00000000000000008000404000444900001000000000000000000000000000000004F
:2008C000000000000000000000000000000000000000040000000200080000000400000006
:2008E000000001000000080040008000020000028000400001000000200010011000200009
:2009000000000001FF020000000000000000100000000000000000000000000000000000C5
:200920000000000003000400040400044090000100000000000000000000000000000000D3
:2009400000000000000000000000000000000000000000400000000404000020000002032A
:2009600000000110000400000001000000100000002000000400000800080000010000001C
:2009800003010002007C0400802000000000401000000000000000000000000000000000E1
:2009A0000000000000000800040C0004499000010000000000000000000000000000000041
:2009C000000000000000000000000000000000000002000D00CD000000CD0000002100024B
:2009E000000D00C0000000000000001000CD000000000040000200340002003800CD0000D0
:200A0000000F00400030008000000002000000440000000000000000000000000000000091
:200A200000000000000002240404000424200001000000000000000000000000000000003F
:200A4000000000000000000000000000000000006000000004C400100A0910C601980023B9
:200A600004C40010561009C400C1000604D40000040000000410000000E7041807D438009E
:200A80007F9800780007000002000028000000003605100004BEFD0C1FFFFFFF2200F0084A
:200AA000040000000000000004040400220200010000C00040011011C0010011400140018B
:200AC00000000000000000000000000000000000000000000000000006000100000000000F
:200AE0000100020000000000040000000000000000000000000000000400000000000000EB
:200B00000000000007000000000020000000000000000000000000000000000000000000AE
:200B2000000003020000000004040004424000010000000000000000000000000000000021
:200B400000000000000000000000000000000000000000000000000000FFFFFF0000FFFF9A
:200B6000000000000000000000FFFFFF000000FF000000000000000000FFFFFF000000FF7D
:200B8000000000000000000000000000000000000000000000000000000000000000000055
:200BA0000000000F00007F0000000000001F00000000000000000000000000000000000088
:200BC0000000000004000003000F00000000000014011400000000000000100114010000B0
:200BE0001E01140000000000180018011E001A000000000000000000000000000000000059
:200C0000000000008000000000000000000000000000000000000000000000000000000054
:200C20000000000000000000000000000000000000000000000000000000000000000000B4
:200C4000000000000000000000000000000000000000000000000000000000000000000094
:200C6000000000000008000000000000000000000000000000080000000100000040000023
:200C800000810000000000000000000080000000000000000000000000040020000000002F
:200CA00000000000000000010000000000000000000000000400000000000000000000002F
:200CC000000000000000000000000000000004000000000000000900020000000000000005
:200CE0000000000000000000000000000000000000000000000000000000000000400000B4
:200D00000008002000010000000000000000080000000000000000000000000000000000A2
:200D20000000000000000008000000000000000000000000000000000000000000000000AB
:200D4000010000000000000000000000000000000000200000000002000000000000000070
:200D600000000000000000000000000800200000000000080000000000000000001000082B
:200D800002000000000000000000000080000000000020000000040000000008080000405D
:200DA00000000020000000000000000000000000000001000E000100000000000100000002
:200DC00000000000010001000200000000000300000000000A0000000000000000000400FE
:200DE00000000000000000000000000000000000000000100000000008000000000000409B
:200E00000000000000000000000000000000000000000000000000000000000000000000D2
:200E20000000000000000000000000000000000000000000000000000000000000000000B2
:200E4000000000000000000000000000000000000000000000000000000000000000000092
:200E6000000000000000000000000000000000000000000000000000000020000000000052
:200E8000020000000000000000000020800000100000000000000408000000000000000094
:200EA0000000000000000000000000000000000008000C000000000000000000000000001E
:200EC00000000000000000000000000000000000040000000000000000000000000000000E
:200EE0000000000000000000000000000000000000000000000000000000000000000000F2
:200F00000000000000000000000000000000000000000000000000000000000000000000D1
:200F20000000000000000000000000000000000000000000000010000000000000000000A1
:200F4000000000000000000000000000000000000000000000000000000000000000000091
:200F600000000000000000000000000000000000000001000400100000100000000000004C
:200F800002000000002000000400002080000010000000000000050800000000000020004E
:200FA0000000044000000000000000000000000000000000000000000000000000000000ED
:200FC000010000000000000000000000000000000000000004000000000000000100040007
:200FE0000000000000000000000000000000000000000000000000000000000000000400ED
:201000000000000000000000000000000000000000000020000000000000000000000000B0
:20102000000000000000000000000080000000000000000000000000000000000000000030
:20104000000020000000000000000000000000000000000000000008000000000000000068
:20106000000000000000000000000000000000008000000000000004000000800000040068
:20108000020000000020000004000000000000900000000000000108010000000000000090
:2010A000000000000000001000000000000000000000010000000000020000000000080015
:2010C000000000000400000001000000000000000000020004000000000000000000020003
:2010E0000000000000000000000000000000000000000000000000000000000000000000F0
:201100000000000000000000000000000000000000000000000000000400000000000000CB
:2011200000000000000000000020000000000000000000000000000000000000000000008F
:2011400000000000000000000000000000000000000000000000000000000000000000008F
:201160000000000000000080000001000000000800000000000000000000000000000000E6
:2011800000000000000000000000000000000000000000000000000000000000000000004F
:2011A00000000000000000000000000000000000000000000000000000000800000008001F
:2011C000000000000000000000000000010005000000000000000000000000000000000009
:2011E000000000000000000000000000000000005402000010000000008080200000084021
:20120000880400400000042040000001081008103400104000000000005004000000090983
:201220008800100100000008100C004000280000304080000000000004060040000000004F
:20124000002004800000000000000000000000000000000000000000000000000180200445
:201260000000000000000000000000000000000000000000000000010000100005008800D0
:20128000088881020000004000400009201400248894000814600080000000000000000042
:2012A000000005108000300800000000000000004F005D004F0000000000FE004F006E00AB
:2012C0000B000C000000000000000000000000000000D0000800800030000500E00000008A
:2012E000000000000000000000000000000000000800428000000051400044000008440003
:20130000A2000800000040000000449100008000000000000000100000000091000000806D
:201320004008025100000A4000000000080040200000000000000000000000000000000060
:20134000000000000000000008000000000000608000000010000000D210000200000000B1
:201360002080000000000000000080000000000000000000000050000800004000048040F1
:201380000000000000104400800000301004000204080A00708000800000000000020100AA
:2013A00020800800000040000000000000000000BD007B001F00000000008B00DF00700014
:2013C0000000000000003200410000000000010020000000000080001000050000000000E4
:2013E0000000000000000000000000000000000004000000008000041804000200008000C7
:201400000021000800001040000000000000C200004910024C000050205000800001011890
:201420008000100100008218002A00400000461000000000000000000000000000000000C1
:20144000000000000000000000000000800000000000000800800000882880010000000053
:2014600000C00000000000000000000000800000000000000000020010000218000081017E
:201480000000000048010042080010001004202A001000041468008000000000000000003B
:2014A00000001000080204000000000000000000C4001700AE0000000000EF00FD00FF009A
:2014C0000000000000001000140000000000100060001000F10000004000000001000A002C
:2014E00000000000000000000000000000000000A820409040040000208844800008440058
:20150000201002020020400000000800000001001818080000000000002402000000008050
:20152000008812000004021000200080100044000000000000000000000000000000000007
:201540000000000000000000500000000000020800020000000010520000000000000000CD
:2015600000000000000000000000000000000000000004010100140054000000800010A0CD
:20158000400000000010005040000208210000100000030000080C000000004000000000D9
:2015A00000000000200002000000000000000000AF007F005F00000000008700EF007C008A
:2015C000000000000000CC00F10000000000000000000000590000000000000001000A00EA
:2015E00000000000000000000000000000000000080001080020280000001540000002003B
:2016000020004800104104000400400C000000000001000100000040000000001840000122
:20162000000000000022010800160040281510400400400000000000401000000000000008
:201640000000010000000000000400624000000000000201000000000000000000000000E0
:2016600000000000000000000000000000800000400002000000000000010000081004008B
:2016800000000500080000020010480010002400200008004028048000000000000000009B
:2016A0000010000004000800000000000000000067008F00FE00000000007000E000FF00CB
:2016C0000500040000001F0009000000000010000000000010000000000010002000000089
:2016E000000000000000000000000000000000000800800A400000000000A80100098400E2
:2017000020000082040042000000001A00000000400002000000004024000000040000001D
:2017200000000A1000004A000052400000400600000000000000000000000000000000006D
:20174000000000000000000000000000020008508000902041200800000000000000000096
:201760000000000000000000000000000000000000000000800000000000000000000200E7
:201780000040AC01400000000620188A200000002400C10000000A024000002000000000E3
:2017A000000800000000004800000000000000008F007F00DD00000000002600D700DD0014
:2017C000000000000000F000FF000000000000000000010000000400000000000000000015
:2017E0000000000000000000000000000000000080004000000024000000050002000800F6
:20180000200008001000190040501000000000000002000002000024000000000000022A83
:20182000000200000000100080240102000000094000100000000024204000000100000011
:20184000000008000000022000000000008000000028820001000001000000000000000032
:20186000000000000000000000000000008080804000000000800000010400000000020021
:2018800000000500802400020000400000003C000240100E20020800000000000000200275
:2018A0000000400000100000000000000000000069005300E60000000000F0002100CE0057
:2018C00063001800000010001F0000000000100022000800010010004000000002002000B1
:2018E000000000000000000000000000000000001A084002400000040000A82204008400EE
:20190000200001812040000014004100000000000A480402000000000008410004000400C7
:201920002008400220004A4480000021004008040000000000000000002000100000000072
:2019400000000000000000000004412000000000008000400200001400000000000000004C
:201960000000000000000000000000000000000010400000000000400400000000000000D3
:201980008040A403448000000404108820000000208081000508080800000000840000009A
:2019A00000008000200000000000000000000000CF007F00AD00000000006B00FF001D0005
:2019C0000000000000000F0079000000000000000300000001001000000008000000000063
:2019E000000000000000000000000000000000000280002040050000000054000000AA0002
:201A0000208108400000001500805500020C8A220000000200000028000018000000000AED
:201A20000210000000001000000024020000000820080000000800000020000000000020E6
:201A4000000000040000000000000040000000000000000000000000000000000000000042
:201A6000000100400000000020000000000000000000404100001000020200000000000070
:201A8000400100008024000800204015000100280000101C0108002200000C000000000058
:201AA00000000000008000000000000000000000BD00FE007F0000000000360025004700CA
:201AC0004200240000000800000000000000040000004000880001000000000004000000C7
:201AE0000000000000000000000000000000000000440008404021000000040014000000E1
:201B000080000900206400000000008000000000008000000000000020402008040000002C
:201B2000980000002040080002A8000000402400040C8000000000000D0480000000000076
:201B40004000100100000000000000000000000080000000000000002000A0800000000074
:201B600000000001000000001000080000000000014000000010048000000800000001006E
:201B80000000000000000000800000080000000000000000000000000000000000000008B5
:201BA00000000000000000000000000000000000A7006200EB00000000002E007E007F0006
:201BC00007000C00000000000100000000000000100046000800040000000400000000008B
:201BE000000000000000000000000000000000008000000080040000000011880000080040
:201C0000200000000024000000201111000408000000000040101812000000000000002A8E
:201C200000000000010128000000000042280000000800000000002A28000000000020088E
:201C4000080000400000000800800000000000000000400000000000000000000009000566
:201C600000000000400000000100000000000000000000000000000000000001000400001E
:201C8000000000000000000000000000000000000000000000000000000000000000000044
:201CA00000000000000000000000000000000000A1004F006400000000007000E000F00090
:201CC000E2000400000008000800000000000100000090000000000000000000000000007D
:201CE000000000000000000000000000000000000000000000000000000000008000000064
:201D00000000000000000000000000000000000000000000000000000000000000000000C3
:201D20000000000000000000000000000000000000000000000000000000000000000000A3
:201D4000000000000000000000000000000000000000800000000000000000000000000003
:201D6000000000000000000000000000000000000000000000000000000000000000000063
:201D800000000002000000040000000000200000000000000000000000000000000000001D
:201DA000000000000000000000000000000000000000000000000000000000000000000023
:201DC0000000000000000000000000000000000000000002100000000000000000000000F1
:201DE000000000000000200008000002000000000000000010000001000020020000000086
:201E0000000000000000000008000000000000060000000200200000000010020000180068
:201E20000000000000200000000000000000000000000000300080000000000000000000D2
:201E40000000000000004000800000008000600000000000000050000000F00000000000A2
:201E6000000000000000000000000000000000000000000000000000000000000000000062
:201E8000000000000000000000000000000000000000000000000001000000000000000041
:201EA000000000000000000000000000000000000000000000000000000000000000000022
:201EC000000000000000000000000000000000000000000000000000000000000000000002
:201EE0000000000000000000000000000000000000000002000000000000000000200004BC
:201F00000000000000001000082000000000100100000000000008000000000000004080B0
:201F2000000000000000000000000000000000000000000000000000200000000000000081
:201F40000000000000000000000000000000000000000000800000000000000000005000B1
:201F6000000000000000000000000000000000000000000000000000000000000000000061
:201F8000000000000000000000000000000000000000000000000010000000000000000031
:201FA000000000000000000000000000000000000000000000000000000000000000000021
:201FC000000000000000000000000000000000000000000000000000000000000000000001
:201FE0000000000000000000000000000000000000408000000000400000000000000000E1
:2020000000000000008010400820000000001011000000000000C88000000000000000005F
:20202000000000000000000000000000000000000000000000000000800000000000000020
:202040000000000000000000000000000000000000008000000060000000000000000000A0
:20206000000000000000000000000000000000000000000000000000000000000000000060
:20208000000000000000000000000000000000000000000000000000000000000000000040
:2020A000000000000000000000000000000010000000000000000000000000000000000010
:2020C000000000000000000000000000000000000000000000000000000000000000000000
:2020E0000000000000000000000000000000000000000000000008010000000001000000D6
:2021000000000000018000400820000000001810000000000000C880000000000000000066
:2021200000000000000000000000000000000000000000000000000000000000000020007F
:202140000000000000000000000000000000000040000000000040000000000000000000FF
:2021600000000000000000000000000000000000000000000000000000000000000000005F
:2021800000000000000000000000000000000000000000000000000000000000000000003F
:2021A000000000800000400000000800000004400000020000000000000000000000000011
:2021C0000000080000000000000000000000000000000000000000000000000000000000F7
:2021E0000000000000000000000000000000000000010000000000000000000000010200DB
:2022000000000400018000000820000000011010000100000000800000000002000040002D
:20222000000000000000000000000000000000000000000000000000000000003000E0008E
:202240001000000020000000000000000000000000002000000000001000200000000000FE
:2022600000000000000000000000000000000000000000000000000000000000000000005E
:202280000002000000004000002000000000040000000000000000000000000000000000D8
:2022A00000000012000180000000100001000000004000000000000000000000000000003A
:2022C0000000000000000000000000000000000000000000000000000000000000000000FE
:2022E000000000000000000040000000000000000000000000000000480000000000000056
:202300000000000000000000000000000000000000000000000000000000000000000000BD
:2023200000000000000000000000000000000000000000003000C00000000000F00090002D
:202340001000000000000000000000008000000000000000000000000000000000000000ED
:2023600000000000000000000000000000000000404404000002BB000F00807C7300730027
:20238000000000004C00002F23000000D0000000806F6F00640010008002570000282800D4
:2023A00006000006A9000050500000000F0018010001000000060000000700000000000092
:00000001FF
