:2000000050A500000000000002000000000000004024000000000000002800000000550008
:20002000501000000000A900625000000000000000000000000000030000000040000000C2
:200040000000000000000200FF0A00C0000000000000000000000084000000000000000051
:20006000010000000100000001000000010100000000000001000000010000000000010078
:20008000000000000000000300000002010100000000000000000000000000000000000059
:2000A00000000000000000000000000000000800040C00044490000100000000000000004F
:2000C0000000000000000000000000000000000000000000000000000020000000000041BF
:2000E0000000010404400000000000000000048000000008000000120000002001000000F8
:2001000000100200000804000001030204F803040020000000001010000000000000000078
:20012000000000000000000000000000000002390404000C494000010000000000000000E6
:2001400000000000000000000000000000000000000000000000000000001000800000000F
:2001600002000D00620008000D000000800000000D0000000D0000010D000000010032001E
:200180000D00000002005400700180000F0000000800200000000400260000000000250481
:2001A0001CFFFFFF0220000500100000010000000404040C43410001404080008000800051
:2001C00000000000000000000000000000000000000000000000000000000000000000001F
:2001E0000000000000000000000000000000000000000000000000000000000000000000FF
:200200000000000000000000000000000000000000000000000000000000000000000000DE
:200220000000000000000000000000000000080004040004449000010000000000000000D5
:2002400000000000000000000000000000000000000000000000000000000000000000009E
:2002600000000000000000000000000000000000000000000000000000000100000000007D
:2002800000000000000000000000000000000100000000000000000000000000000000005D
:2002A0000000000000000000000000007F00040004040004449000010000000000000000DA
:2002C000000000000000000000000000000000000000000000000000000000040008820090
:2002E000002000105800230840803040000000020001010000040C000040008011106220A4
:200300000000000134024300700000FF80000F00000002000000000400000000000000005F
:20032000000000000000000000000000000008000404000403900001000000000000000015
:20034000000000000000000000000000000000000000000000000000179C68000061061EFD
:200360000230048F068C0010020000004008304039D1462200000000069C000051942E082D
:200380000410008C06A400100030700F0FC1010020000832000040000000000000000000E9
:2003A000000000000000000000000000000000000404000022000001000000000000000012
:2003C0000000000000000000000000000000000000000000000000000000008000E80000B5
:2003E00000000001006800800010006800E800000008001300E8000000E800000010002594
:20040000001600400000000000780080000700000000000200000004000000000000000081
:20042000000000000000000000000F0000000000040400042410000100000000000000006C
:20044000000000000000000000000000000000000000000000000000080000000800000686
:2004600007CE2031060010000077088811BF04400800000600FD00020020000100FF1700E1
:200480000010000100080080037804043080080300000000000015003204000000602000BA
:2004A0000A0000000000000000000000400004000404040411210001000CF00C000C000C8B
:2004C000404C404C9058000C000000000000000000000000000000002A0000000000800066
:2004E000150000003F000000000100000000030000003F0000000000000030000F004000E6
:20050000000100000000000070000C00030080010088000000001504240300000060200092
:200520000A0000000000000000000302000000000404040414410001000CF00C000C000C26
:20054000404C404C9058000C0000000000000000000000000000000000000000000000008F
:2005600000000000000000000000000000000000000000000000000000000000000000007B
:2005800000000000000000000000000000000000000000000000000000000000000000005B
:2005A000000000000000000000000000000008000404000C441000010000000000000000CA
:2005C000000000000000000000000000000000000000000000000000000000000300000018
:2005E0000000000000000000030000000000000003000000000003000100020000000000EF
:200600000000030003000000010002000000000000000000000000004302600005BEF0DC9D
:200620003BFFFFFF2200F008040000000900040004040404442200010000C00040011011BE
:20064000C00100114001400100000000000000000000000000000000B07740888020200196
:2006600003BF084000FD00020000100050CEA0310010070100000006E00010000500000659
:2006800002FF0400000800800378C00430800C03000000000000410035040000000200064D
:2006A000110000000000000000000000000002000404040411110801000CF00C000C000CCC
:2006C000404C404C9058000C00000000000000000000000000000000000000000000060008
:2006E0000000F70000000000000030005200010000000000F600000000000000A5000000E5
:20070000F100080000000000300001000E00C00000000000000055004201000000006200E7
:200720000C0000000000000000000000000008000400040C00110001000CF00C000C000C5F
:20074000404C404C9058000C000000000000000000000000000000004B5C30003F24401003
:200760000050000C085C75003430800F1400004020540208B40C0050B400000094082000FF
:20078000801134220021001E070F00408030780080000320000010040000000000000000FE
:2007A0000000000000000000000000000000022004040004333000010000000000000000A7
:2007C000000000000000000000000000000000000000000000000000000000000000000316
:2007E0000003000000000000000200010003000000000000000000000001000200000000ED
:200800000003000000030000000000000002000100000000000000000000000000000000CF
:200820000000000000000000000000000000080004040004449000010000000000000000CF
:20084000000000000000000000000000000000000000000000000000000000000000000098
:20086000000000000000000000000000000000000000000000000000000000000000000078
:20088000000000000000000000000000000000000000000000000000000000000000000058
:2008A000000000000000000000000000030004000404000444900001000000000000000050
:2008C00000000000000000000000000000000000000000000000000001C000021000009FA6
:2008E00040800000A2C00801011F002040C0000804C0000488902140017F00800100000043
:2009000001000060870018FF08003FFF400080002800000000004504000000000000000061
:2009200000000000000000000000000009000400040400040330000100000000000000006A
:2009400000000000000000000000000000000000000000000000000080010000C00108004D
:200960007F048000C040010000019F00C02204080007FF18C0100200900140000040600084
:200980001F0820210001000000000000FF40003F00A0000000001040000000000000000080
:2009A0000000000000000000000000000000022404040004202000010000000000000000C4
:2009C000000000000000000000000000000000000000000000000000000007000802000105
:2009E0006700000008060000000100020801000410004200080000000000000024001000E4
:200A00001100200000000800000770000800070008020000000050000000000000000000BD
:200A20000000000000000000000000000000080004040004329000010000000000000000DF
:200A400000000000000000000000000000000000000000000000000000000C000000E000AA
:200A600000000100E0000000200000000800030004000300000000000000400080000000A3
:200A800001000200000012000F00E00010000000000000000000040000000000000000003E
:200AA0000000000000000000000000000000000004040004420000010000000000000000E7
:200AC000000000000000000000000000000000000000000000000000000000000000000016
:200AE0000000000000000000000000000000000000000000000000000000000000000000F6
:200B00000000000000000000000000000000000000000000000000006304100002DFC0EBD2
:200B20003BFFFFFF2200F008040000004000040004040404443300010000C0004001101171
:200B4000C0010011400140010000000000000000000000000000000000000000FF00000042
:200B60000000FFFF0000FFFF00000000000000000000FFFF0000FFFF00000000000000007D
:200B80000000FFFF0000FFFF00000000000000000000000000000000000000000000000059
:200BA00000000000000000000000000400007F000000000000001F00000000000000000093
:200BC0000000000000000000000000000F0003000F000000000000001C01140000000000C3
:200BE000000018011C0100001E0114000000000010011A0116001600000000000000000034
:200C0000000000000000000000000000000080000000000000000000000000000000000054
:200C20000000000000000000000000000000000000000000000000000000000000000000B4
:200C4000000000000000000000000000000000000000000000000000000000000000000094
:200C60000000000000000000000000000002000080000000000000000000000080008000F2
:200C8000000000000000000000000000000000000002000000000000000000000000000052
:200CA000000000200000008801000000000000000000000000000000000000000400000087
:200CC00000000000000000000000000000000000000000000100040000000000000000000F
:200CE0000000000004000000000000000000000000000000000000000000000000000000F0
:200D0000000000000000000200000028000020000000000000000080000000000000000009
:200D20000000000000000000000000000100000000000000000000000000000000000000B2
:200D40000000000000000000000000000000000000002000000000048000000000000000EF
:200D600000000000000000000000000000000000000000080000000400000008000200005D
:200D800000000004800030000000000400000000000000000000000000000000000000019A
:200DA000000000000000004400000000000200000000000000000000000001000E000100DD
:200DC0000000000001000000000000000100010002000000000003000B00000000000200FE
:200DE0000000000008000000000000000000000000000000000000000000200000000000CB
:200E0000000000400000008000000000000000000000000000000000000000000000000012
:200E20000000000000000000000000000000000000000000000000000000000000000000B2
:200E4000000000000000000000000000000000000000000000000000000000000000000092
:200E6000000000000000000000000000000000000000000000000000000000400000000032
:200E800000000001000000000000000000000000000000000000000000000000000220002F
:200EA00000000000000000000000000040000800000000000000000008000C0000000000D6
:200EC000000000000000000000000000000000000000000000000000000001000000000011
:200EE0000200000002000000000000000000000000000000000000000000000000000000EE
:200F00000000000000000000000000000000000000000000000000000000000000000000D1
:200F20000000000000000000000000000000000000000000000000000000000000020000AF
:200F4000000000000000000000000000000000000000000000000000000000000000000091
:200F600000000000000000000000000000000000000000000000000000000000000004006D
:200F80000000000000000000000008004000000000000000000000000000000000002800E1
:200FA00000000010000000000000000000000104000000000000000000000000000000001C
:200FC000000000000000000001000000000000000000000000000000000000000000000010
:200FE0000000020002000000000000000000000000000000000000000000000000000000ED
:201000000000000000000008000000000000000000000000000000000000040000000000C4
:20102000000000000000000000000000000000000020000000000000000000000000000090
:2010400000000000000000000000000000000000000000100000000000000100000000007F
:20106000000000000000000000000000000000000000000000000000000000000000000070
:20108000000040000000000000200000400000000000000000004000000000000000280048
:2010A00000000000000000000000000002000000000000000000000000000100000000002D
:2010C000020000000000080000000000010000000200000000000000000000000100000002
:2010E0000000080000000000000000000000000000000000000000000000000000000000E8
:201100000000000000000000000000000000000000000000000000000000000000000000CF
:2011200002000000000000000000000000000000000040000000000000000000000000006D
:2011400000000000000000000000000000000000000000000000000000000000000000008F
:20116000000000000000000000000000000000000000000040000800000000000000200007
:2011800000100000000000000000000000000000000000000000000000000000000000003F
:2011A00000000000000000000000000000000000000000000000000000000000000000002F
:2011C0000000080000000800000000000000000000000000000005000000000004000000F6
:2011E00000000000000000000000000000000000000000000000000048220000000800007D
:20120000002A00001A0080180100802840441000002200080000000000000000000000008B
:2012200054000000404400000A000000040840000044008000000018000000000800020991
:20124000000000000000440500000000210400000000008000000000000000000000050596
:20126000000000000000000000000000000000000000000000000000200000000000848842
:2012800000064209000444004000009000080800490810200002010104280004010000001F
:2012A0000000000000000000058000400000000000000000000000002F007E00BF000000FD
:2012C0000000D70053006A00F000200000000800F000000000000000A0001200B2004000CE
:2012E00020008900A000080000000000000000000000000000000000000010824000820049
:201300002090600000000A2028010000040400000080098200000000001812040000000A1F
:20132000008014000400820920044002000009008011000400040020000000000000000062
:201340000000000000000000000000000000000000000000000000800000000200200000EB
:201360002811C00000000000408000000000000000000000000000000010040A0000008016
:201380000002160A040C000040040002842181000400008020A2100000000D11288002028F
:2013A000000000000000000000000D000000000000000000000000009D00EF006E00000026
:2013C0000000BE00CF006F00000000000000100028000000000000000000010008000000D0
:2013E000000009002000080000000000000000000000000000000000900600000801020813
:201400000020110001208120004000280000802410600000000000104000000000500004B9
:20142000000000000440821000000401000141284008000000A40100000000000428000846
:20144000000000000000000000000000000000008000000000000000000000000000000804
:20146000000000000C44118000000000400002000004001000000000800000000040000075
:20148000000100105000000000000008084500004808102800A0030000204104080000807E
:2014A000000011040010000010000000002000020000000000000000FF00F7007700000068
:2014C0000000F000F300FA00000000000000080020000000000000008000000089004000BE
:2014E000220000001000420000000000000000000000000000000000A4004102400004004D
:201500000040950004010A00201102000004000800505400000000002000000000000000E4
:2015200000900100040000013800420000000D0084314000400400200000000000000280B3
:20154000000000000000000000000000000000002002480080200000004000800000008041
:2015600000000000000000000000000000000000000000000000000000000000000000006B
:201580000000020800000000400202020401808084000408100010000000091148C00040E4
:2015A000400000000820C00000010040000001000000000000000000CF00FF002F000000C4
:2015C00000003D00CF007F000000000000003F0089000000000000008000000001004000F7
:2015E0000000040014008200000000000000000000000000000000000081000008008A003E
:2016000020002080000A440050001000040044480000000000680424001001100002013CDC
:201620000000222008044080080001D004000020006648000040260000000000000000008B
:2016400000000000000000000000000000000000000000000000000000000000000000008A
:20166000A40080000000000000000000000000000000000000000000000000000000000046
:2016800001002008200880200002008000008010480004000060101400004000A50000068C
:2016A000000000000440000000000020000400000000000000000000F9007E00FC0000004F
:2016C0000000F7006F00FF00000000000000000000000000000000004000040000009000D1
:2016E0004000000020000000000000000000000000000000000000008400000040000004C2
:201700000000490000010220008010000400000900004B01000002800008000000000000EA
:20172000044004B004080080A00008050001080040160002400000200000000000000000B7
:2017400000000000000000000000000000000000000000000200006400208000880040209B
:20176000000000000000000000000000000000000000000000000000000000000000000069
:2017800000000010000000A040160064000180100649002910001580A000081048C801C0A8
:2017A000000000400000004020000000000200000000000000000000C500BB007500000092
:2017C0000000EF00CF003F00000000000000F000FC0000000000000000000400000000001C
:2017E000080002000000000000000000000000000000000000000000A008008020920020E5
:2018000000008028000000240000000400090000000050A0002A0040201485040044000094
:20182000001A8000040000002000850000000100082000080000000000005020002A00009A
:201840004002000000010000100000100000001000000000000000008200201000010080E2
:201860000000000000200001000000000000000002020000000000000010008080000041F2
:20188000400000000000010008020000000080800888840040611014000060008500808639
:2018A000100000000002000000000080080040000000000000000000FF006E0034000000AD
:2018C00000002F008F000600E7000000000000000F000000000000009000000000000800B6
:2018E000040000002000000000000000000000000000000000000000802200204408440072
:201900001080900000000200088110000002001000260000000000000001010000000000D2
:20192000040000900400008080010900000108004400000044000020001000000000000044
:20194000000004000000000004100040000000000000004000000002000000000200006487
:201960000000000000000000000000000000000000000200000000000000140004004220EB
:20198000000000800400000044140000000210100040007B00044180A00008100008030006
:2019A000000020600000000000000400000000000000000000000000FF008F005F000000B6
:2019C0000000A700CB007A000400040000008800F00000000000080000000B0000000E007A
:2019E0000000020000000000000000000000000000000000000000000004100000011000C0
:201A0000108000805400000840010900020004282000400000000000000000000000000082
:201A200000000100000000401080080054000900000110800084A0000000001600000000A5
:201A400001244000000000000001240000000000000400A280000000004200000080000014
:201A60000000000000000000000000000000000000000000008000000280090000008000DB
:201A800000A0000200002108080000000000800080088000000000000000000084000080E7
:201AA0000000000000000000000000008000000000000000000000003400EB00AB000000DC
:201AC00000008100FE006D0007000C0000001F00190000000000100000000000400000007F
:201AE000000000000000000000000000000000000000000000000000100001004020000075
:201B000000000010000102200400208000004008108004000000002044004808000024003A
:201B200040204000C080000020480000000004004016000000000000000000000000000003
:201B40000020080000000000000000000000000000001000000060000004000004000001E4
:201B60008014000100000000204000000000000000000200000002000000403900000000F3
:201B80000000000000000810000040000000000000000002000000000000100000000000DB
:201BA000000000020000000000000000000000000000000000000000C300B4003700000075
:201BC00000001D004E000F0000000000000034003200000000001800040000000100080000
:201BE000000000000000000000000000000000000000000000000000280000800000200815
:201C00000000A8040000208128020000000800200848601800A210002041003C000000000E
:201C20000000801A00000000A000040000000000008A0010000000000000500000A20000DA
:201C4000204010000000000008040000000020400000000000008000000000000100000126
:201C600000000000000000000000800000000000000000800000000204010000000040001D
:201C8000010000000040000000000000000000000000000000000000000000000000000003
:201CA0000000000000000000000000000000000000000000000000006E00BE006E0000008A
:201CC00000000E000E000F00B30008000000100010000000000011000000000000001200DB
:201CE0000000000000000000000000000000000000000000000000000000400000000000A4
:201D00000000100000000000000000000000000000000000000000000000000000000000B3
:201D20000000000000000000000000000000000000000000000000000000000000000000A3
:201D40000000000000000000000000000000000000000000000000008000000000001000F3
:201D6000000000000000000000000000000000000000000000000000000000000000000063
:201D80000000000000000000000000024000000000000000000004000000000000000000FD
:201DA000000000000000000000000000000000000000000000000000000000000000000023
:201DC000000000000000000000000000000000000000000002000000000000000001000000
:201DE0000000000000000000000000000000001001000002000000000201000000000000CD
:201E0000000000000000000000000000000004000100001040000002000000020000000069
:201E20000000100000000022000004000000000000000000000000000000000030008000BC
:201E4000000000000000000000000000000080008000000080006000000020000000800002
:201E60000000900000001000000000000000000000000000000000000000000000000000C2
:201E800000000000000000000000000000000000000000000000000000000000000000043E
:201EA000000000000000000000000000000000000000000000000000000000000000000022
:201EC000000000000000000000000000000000000000000000000000000000000000000002
:201EE0000000000000000000000000000000000000000000000000000000000200000000E0
:201F000040000000000000100000000000001000010000000000000400000000000000203C
:201F2000000020000000001004000000000000040000000000000000000000000000000069
:201F40002000000000000000000000000000000000000000000000000000000080000000E1
:201F60000000200000004000000000000000000000000000000000000000001000000000F1
:201F80000000000000000000000000000000102001000000040020100000000000000020BC
:201FA00004000000010000800000000000000000000000000000000000000000000000009C
:201FC0000000000000000000000000000000000000000000000000000000200000000000E1
:201FE000000060000000000000000000000000000000000000000000000000000000000081
:202000000000000000000000000000000000000000000000000000000000000000000000C0
:20202000000000000000000000000000000000000000000000001000000000000000000090
:20204000000000000000000000000000000000000000000000000000000000000000000080
:2020600000000000000000000000000000000000000000000000000000000000040000005C
:20208000000000000000000000000000040000200000000004002090000000000400002044
:2020A000000040800010000000000000000000000000000000000000000000000000000050
:2020C0000000000000002000000000000000000000000000000000000000000000004000A0
:2020E000000040000000A00000000000000000000000000000000000000000000000000000
:202100000000000000000000000000000000000000000000000000000000000000000000BF
:20212000000000000000000000000010000000000400000000002400000000200000000047
:202140000000000000000000000000000000008000000000000000000000000000000000FF
:2021600000000000000000000000000000000000000000000000000000000000400000001F
:202180000000000000000000000004000020802000000000440000800000000004000000B3
:2021A0000000200000000000000000000000000000000000000000000000000000000000FF
:2021C000000000001000E000100000004000000000000000000000000000000000001000AF
:2021E00000000000800000000000000000000000000000000000000000000000000000005F
:20220000000000000000000000002000000020000000080000000400000000000000000072
:202220000000000000000000000042004400000000000020080000000010000000000000E0
:2022400000000000000000000000000000000000000000000000000000000000000000007E
:202260000000000000000000000000800000000000000000000000000000200000000000BE
:20228000000004000000020000000000000000000000000000000000000000000000000038
:2022A000000000000000000000000000000000000000000000000000000000003000C0002E
:2022C00000000000F0009000100000000000000000000000800000002000000000000000CE
:2022E000000000000000000000000000000000000000000000000000404404000002BB0099
:202300000F00807C73007300000000004C00002F23000000D0000000806F6F00640010008C
:20232000800257000028280006000006A9000050500000001B0018010001000000060000E4
:20234000000700000000000000000000000000000000000000000000000000000000000076
:00000001FF
