:2000000050A500000000000044600000000000000828000000005500501000000000A900B9
:200020004260000000000000000000000000000300000000400000000000000000000200D9
:20004000FE2B00C00000000000000000000000840000000000000000010000000000000032
:2000600000000000000000000100000000000000000000000000000000000000000000007F
:2000800000000000010000002000000000000000000000000000000000000000000000003F
:2000A00000000000000008000404000441900001000000000000000000000000000000005A
:2000C0000000000000000000000000000000000000040000020A0D1000000004490406009C
:2000E0000000000013012C000004000000040000405600090004000065071A3800600000F7
:200100007000007F0F00000200082200000000403402500006CE0DBF37FFFFFF2200F00801
:20012000040000000000022404040404333300010000C00040011011C001001140014001A8
:2001400000000000000000000000000000000000000000000000010000000000000000009E
:2001600000000000000001000000000000000000000000000000000001000000000000007D
:2001800000000000000001000000000000004000000000000000000000000000000000001E
:2001A000000000000000080004040004449000010000000000000000000000000000000056
:2001C00000000000000000000000000000000000000000000000000000000100000000001E
:2001E0000000000001000000010000000100000001000000010000000100000000000000F9
:2002000000000100000000000000000000000000340000000005200419FFFFFF0220000543
:20022000001000007F00040004040404449100014040800080008000000000000000000045
:2002400000000000000000000000000000000000000100000000000100000000000000009C
:20026000000100000001000000010000000000010000000000010000000000000000000079
:2002800000000000000100000000000000000000000000000000000000000000000000005D
:2002A000000000000300040004040004449000010000000000000000000000000000000056
:2002C00000000000000000000000000000000000000001003413006434020098083823C081
:2002E00008003400082113D80698080234020000009A0000349A00003498000200FC00039B
:200300003C00000F001303E000000288000000000000000000000000000000000000000012
:20032000000000000900040004040004333000010000000000000000000000000000000040
:2003400000000000000000000000000000000000000000300010000000300100000000002C
:20036000000000000004000900000030000E0000002000000005000A0003000400300000CC
:20038000000000300000010F0080000000000004240100000002000611000000000000005B
:2003A00000000000400004000404040434310001000CF00C000C000C404C404C9058000C57
:2003C000000000000000000000000000000000000003000000000000000000030000000017
:2003E0000003000000000003000100020003000000030000000000000000000000000000EE
:200400000000000200010000000000000000000000000000000000000000000000000000D9
:2004200000000000000008000404000F441000010000000000000000000000000000000048
:2004400000000000000000000000000000000000601000010000000200000000007D0002AA
:2004600000000002003B0044007F7D007C6602190000000054080101295F042000040040B4
:200480000403033C180060400000000000005500430200000000600218000000000000004A
:2004A00000000000000008000404040410910001000CF00C000C000C404C404C9058000C56
:2004C000000000000000000000000000000000000000000C000400000000001000000000FC
:2004E0000000010000000000000102000000000300080000000000000000000C010C0000D4
:20050000030100020000001C00000000000000400000000000000000000000000000000079
:200520000000000000000800040C000F49100001000000000000000000000000000000003A
:20054000000000000000000000000000000000000000001F000A0001001F00000000000052
:20056000000008000000070001000000040008000015000000000000000000000006000044
:200580000C000101021800060000000000000154030100000000000000FFFFFF020CF800D1
:2005A00000000000010000000404040C01410001000048A100000000F000F000F000F00036
:2005C0000000000000000000000000000000000077208800FF000003CE20310000200600B5
:2005E00008008020FD050200000A0000BF0340100000060C200001001000010F000F0000D1
:200600007820031C8003040000000000000000140305000000A0000000FFFFFF030CF400E0
:2006200000000000000000000404040411010001000048A100000000F000F000F000F000EE
:20064000000000000000000000000000000000000040000000000040002000080038004476
:2006600000000001004000020054002800400001002C0010000100000040000000000004F9
:20068000000C00400030000300000000000000402305000000000602140000000000000057
:2006A00000001F00000000000404040414110001000CF00C000C000C404C404C9058000CB9
:2006C000000000000000000000000000000000000000000000000001000000000000000019
:2006E0000000000000000000000000000000000000000000000000000000000000000000FA
:200700000001000000000000000000000000000024030000006000623200000000000000BD
:2007200000000000000002000404040444110801000CF00C000C000C404C404C9058000C1D
:20074000000000000000000000000000000000000002000000010000002000100000000165
:200760000080004000000002000800000004000000000008000001040040008000100220AC
:2007800001FF00000200000000000000000000010000000000000000000000000000000056
:2007A00000000000000002390404000E0440000100000000000000000000000000000000A3
:2007C000000000000000000000000000000000000000000000000000000000000000000019
:2007E0000000000000000000000000000000000000000000000000000000000000000000F9
:200800000000000000000000000000000000000000000000000000000000000000000000D8
:200820000000000000000800040400044490000100000000000000000000000000000000CF
:20084000000000000000000000000000000000000000000000000000000000000000000098
:20086000000000000000000000000000000000000000000000000000000000000000000078
:20088000000000000000000000000000000000000000000000000000000000000000000058
:2008A00000000000000008000404000444900001000000000000000000000000000000004F
:2008C0000000000000000000000000000000000000020400000008010000000000001000F9
:2008E0000000000002000000000201000800000000002200000000000400000001000000C4
:200900001F0120020000000002080000000001040000000000000000000000000000000086
:20092000000000000900040004040004442000010000000000000000000000000000000039
:2009400000000000000000000000000000000000000C00000000000000000000000C00007F
:20096000000C0000000C00000000000300000001000000030000000C000000040002000046
:200980000003000000040008000000000000005000000000000000000000000000000000F8
:2009A0000000000040000400040400042420000100000000000000000000000000000000A2
:2009C00000000000000000000000000000000000000000001000000000E000000955C6AA59
:2009E000D4000000C102060DE749189698002300D4000000C40010001000C400C433104CE5
:200A00007800070F00F0980000200A0800000000000000000000000000000000000000008E
:200A200000000000000002280404000422200001000000000000000000000000000000003D
:200A4000000000000000000000000000000000008402000D018D0000004000000A621014A5
:200A600060110022048D000056420908078D3800848D00008400008080000400040D808033
:200A800002007F808070080F080000A0000051040000000000000000000000000000000051
:200AA00000000000000000000404000022000001000000000000000000000000000000000B
:200AC000000000000000000000000000000000000000000000000100000000000000000015
:200AE0000000000001000000000001000100000000000000010000000100000001000000F0
:200B00000000010000000000800000000000400032054000010FCEBD3DFFFFFF2200F008AE
:200B2000040003020000000004000404044200010000C00040011011C001001140014001E3
:200B4000000000000000000000000000000000000000000000FF0000FF00FF000000FFFF9A
:200B60000000000000000000FF00FF000000FFFF0000000000000000FF00FF000000FFFF7D
:200B8000000000000000000000000000000000000000000000000000000000000000000055
:200BA0000000000F007F0300000000000000001F0000000000000000000000000000000085
:200BC0000000000004000000000F00000000000014011400000000000000140114000000B0
:200BE0001A011400000000001A011A011A0112000000000000000000000000000000000063
:200C0000000000008000000000000000000000000000000000000000000000000000000054
:200C20000000000000000000000000000000000000000000000000000000000000000000B4
:200C4000000000000000000000000000000000000000000000000000000000000000000094
:200C600001000000000200000000000000000000000000000000000000020000000000006F
:200C800002000000000000000000000080000000000000000000000020000028000000008A
:200CA000080002000000000000000000000000000000000004000000000000000000000026
:200CC000000000000000000000000000010004000100000000000000010000000400000009
:200CE0000000000000000000000000000000000000000000000000000000000000100000E4
:200D000000000028000010000000000000000010000000000000000000000000000000008B
:200D20000000000000080000000000000000000000000000000000000000000000000000AB
:200D4000000000000000000800000000000000000000020000000400000000000000000085
:200D60000000000000000000200000000000002000000020000010000010000000080400E7
:200D800002000000000000200000000088000000000000080000000000000000000002405F
:200DA00000000000010000000000000000000000000001000E000100000000000100000021
:200DC0000000000002000000030000000000030002000000080004000200000000000000FB
:200DE000000000000000000000000000000000000000004000000000000200000000004071
:200E00000000000000000000000000000000000000000000000000000000000000000000D2
:200E20000000000000000000000000000000000000000000000000000000000000000000B2
:200E4000000000000000000000000000000000000000000000000000000000000000000092
:200E6000000000000000000000000000000000000002000000000200000000080000004026
:200E800000000000000000200000000088000200000000000000020000000008000000108E
:200EA0000000000800000000000000000000000008000C0000000000000000000000000016
:200EC000000000000000000000000000000000000400080000000000000004000000000002
:200EE0000000000000000000000000000000000000000000000000000000000000000000F2
:200F00000000000000000000000000000000000000000000000000000000000000000000D1
:200F20000000000000000000000000000000000000000000000000080000000000000000A9
:200F4000000000000000000000000000000000000000000000000000000000000000000091
:200F6000000000000000000000000000000000000000000000000000000000000000000071
:200F80000000000000000000000000008800020000000008000002000000008080000000BD
:200FA000000100008040000000000000000000000000000000000000000000000000000070
:200FC00001000000000000000000000000000000000000000000000002000C000000000002
:200FE000000000000000000000000000000000000000000000000000000000008000000071
:201000000000000000000000000000000000000000010000000000000000000000000000CF
:20102000000000000000000000000020000000000000000000000000000000000000000090
:2010400000000000000002000000000000000000000002000000000000000000000000008C
:20106000000000000000000000000000000000000000000000000010000000000000000060
:20108000000000000040000000000000080000800000000800000000000000000000000080
:2010A000000000000000000000000000000000000000010000000000020000000000080025
:2010C00000000000000004000200000000000000000000000000000000000000000000000A
:2010E0000000000000000000000000000000000000000000000000000000000000000000F0
:201100000000000000000000000000000000000000000000000000000000000800000000C7
:2011200000000000000000000040000000000000000000000000000000000000000000006F
:2011400000000000000000000000000000000000000000000000000000000000000000008F
:201160000000008000000000000000000800000000000000000000000000000000000000E7
:2011800000000000000000000000000000000000000000000000000000000000000000004F
:2011A00000000000000000000000000000000000000000000000000000000800000008001F
:2011C00000000000000000000000000001000100000000000000000000000000000000000D
:2011E000000000000000000000000000000000004009820000040000002113000080280044
:20120000EB00000020500000000884402200000000202011000000004100040000000000EF
:20122000082081000000000040041001000000000000000000680001000000000000010442
:2012400000000000000154080000000000000000000000000000000000000000002000020F
:201260000000000000000000000000000000000000100400009802021008040120104040F1
:2012800040451100001000140004000020105000AA40100001A0240A0000000000004040C7
:2012A000011000000008000200000000000000002D00EF00EF00000000000B000F000F00DF
:2012C000F0001000000000000000000000000000400010000000F000000055000400000075
:2012E00000000000000000000000000000000000400040A04005000084008800000000A0DD
:2013000002000008200004040010081100000000800000000000000080504465000000A0D9
:20132000860400108015000040200A004000000000000000000000000000000000000000D4
:2013400000000000000000000000100000500000000800000000000082210018000000006A
:2013600000000A0500000000000800000000000000000004A044000001100000608050002D
:20138000404080000001400580050000010000140008002060800015004000000000000808
:2013A00000000000001001000000000000000000BD003F00650000000000CF00FF001F00CE
:2013C00000000000000034000200000000000200800008000E00800000000D0004000200AC
:2013E000000000000000000000000000000000004008100000040000002091000080280038
:201400002A010000205000004042110000000000001008000010008201400000150200009C
:20142000802048000000228440200000800200000000000000100400000000000000000028
:201440000000000000000000000000000000000000000800020000542A05000000000000FF
:2014600080000000000000000000000000000000000400000000108002400008000000808E
:20148000004000000010000014040004201004004001028000841002002000000010000023
:2014A000240040001004000000000000000000002500EF00EF0000000000F800F6009C0027
:2014C0000000000000000000F2000000000000004000020004000000520000002000020060
:2014E00000000000000000000000000000000000800100548000000080009004000010086B
:20150000041402018010008480059000000000004008028000000000800000050000000038
:201520002004400080050400401200044014000A000000000000000000000000000000000A
:20154000000000000000000001104008202000000080004002200010000000000000000000
:20156000000000000000000000000000000000001200001000104070000000000000000089
:20158000000200005000800080000000240040400000000000000715800000500000000069
:2015A000000000200000488000000000000000008F006F00FF00000000000D00DE00FF005C
:2015C0000000000000000F007900000000000000440002000400080000000000010002002E
:2015E000000000000000000000000000000000005000008042240000008200000080200093
:201600000050000020100000000000000000008000100400000040100000008020012001A4
:201620000096000000006008021000002200080000000000004000120000000000002000FE
:201640000000000000000008800000000000000000008002000044840000000000000000B8
:201660000000000000000000010000000000000040100000000004000000600081400008EC
:2016800000010006000000801500080600040000514302000004800B000000000000400433
:2016A00080000000002280000000000000000000FB00A900630000000000F1007F00E500AC
:2016C000B000000000000800F80000000000010040000100C800000014000000100002002A
:2016E000000000000000000000000000000000000800148240100000402841000400040A41
:2017000020000010800008000000408000000000046C102000002000400014020000040037
:20172000A008000084100A0004A000100000080200000000000000000000000000000000A5
:201740000000000000000000004400121000024200000081000000800000000000000000DE
:20176000000000000000000000000000000000000000004000000040002020000011040292
:20178000002201410088A0008045040024004820A400000000200F11000000000800000874
:2017A00000000000000002040000000000000000CF00EF005600000000004F00FE00CE00F4
:2017C0000000000000003F0089000000000000000000210000000000160008000000020000
:2017E0000000000000000000000000000000000000008000000000000000050000008008DC
:201800002800000000400040048050000000800002014840000000620300280000010009AA
:201820000000491000004020000500402200280004005000000000000010080000000000F4
:20184000280000000000000000200000800000000000400800000002000000000000000076
:20186000000000000000000000000000020000020000000000000000140000000000000050
:201880000005070000428082010008140094800050410200290400030000000000001000F4
:2018A0000000008000001041000000000000000008005300860000000000BE003F00EB008E
:2018C00007000000000014001C000000000090002000000080000000010028000000300048
:2018E0000000000000000000000000000000000004000A00000008008000A40044000C0658
:201900005000002080100004004000000008000000000000000000009000001104000000D6
:2019200000004A008000060000001014001008220000000000002001000000001000000048
:20194000000000000000200400000010020000980000900020104040000000000000000079
:20196000000000000000000000000000000000000411800000080000040000420000000084
:2019800000220181208820008205049304000820A80000000020071500080000000008A4F9
:2019A000000100010000000000000000000000004700EF007E00000000002B00DB00E20089
:2019C000C00000000000F400FC000000000000000000000000000000010008000800100036
:2019E000000000000000000000000000000000004822001000000000010011000000A801B2
:201A0000A8000000000000000062150000084800040400C000400028022000810001000182
:201A2000284000018000008048200100220008000008000000080180000040400000000099
:201A4000000000000000000000000040004000000000000000000000000000000000000006
:201A6000000000000000000000000000000000020000400C02000200600000400041000033
:201A800048250201040A800001000801A09480289400008000040008000000400000000002
:201AA000000001000040020000000000000000000F00FD000E00000000009D000F00EF002E
:201AC000520008000000180000000000000010009000400022008000400000008000000052
:201AE000000000000000000000000000000000004400000020000000080020000000000852
:201B00008000002000000000440100000000002000080001000000000801040204000000A4
:201B2000200840008000060000A900000000082240240000000000008004090000000000F3
:201B400008000042000000000000000000000010040000000200000420218142000000001D
:201B6000400000000000000000000000000000004000041000100000200000010000004060
:201B800000000010000000008000001004000000000000000000040080000000000000001D
:201BA00004000000000004100000000000000000450044000A00000000002F00DE00EF007E
:201BC00007000C000000200034000000000000000300440001008000000000004000010095
:201BE000000000000000000000000000000000000008004C000C020420000100000001005D
:201C00004040000060008040000000000000000068181102000000408010080200000000B7
:201C200002085000010200004016010000080000040400030000002A008000000001000032
:201C4000040000800200080000000000000000000000000000000000801400010000000061
:201C60000000000100020000000000008000000000000100000000000000000000000000E0
:201C8000000000000000000000000000000000000000000000000000000000000000000044
:201CA00000000000000000000000000000000000EE008300B900000000000F000F004F008D
:201CC000E60008000000000000000000000010000000000000000000000000000000000006
:201CE0000000000000000000000000000000000000000000000000100000000000000000D4
:201D00000000000000000000000000000000000000000000000000000000000000000000C3
:201D20000000000000000000000000000000000000000000000000000000000000000000A3
:201D400000000000000000000000000000000000000004000000000000000000000000007F
:201D6000000000000000000000000000000000000000000000000000000000000000000063
:201D8000000080002000000000000000001000000000000000000000000000000000000093
:201DA000000000000000000000000000000000000000000000000000000000000000000023
:201DC0000000000000000000000000000000010000000000000000200000000000000000E2
:201DE000000000000000002000000802000000000000000000000000200001000000000098
:201E0000000000200000000000000020201000000000080200008000000090020004000032
:201E20000000000000000000000000000000000000000000300080000000000000000000F2
:201E40000000000000008000800000008000600000000000000000000000A00020004000A2
:201E6000000000000000000000000000000000000000000000000000000000000000000062
:201E8000000000000000000000000000000000000000000000200000000000000000000022
:201EA000000000000000000000000000000000000000000000000000000000000000000022
:201EC000000000000000000000000000000000000000000000000000000000000000000002
:201EE00000000000000000000000000000000000200000000000082000000000001000008A
:201F000000000020000410000000000000000800000008000020000000000000000040001D
:201F2000000000000000000000000000000000000000000000000000200000000000000081
:201F40000000000000000000000000000000000000004000200040000000000000004000A1
:201F6000000000000000000000000000000000000000000000000000000000000000000061
:201F8000000000000000000000000000000000000000000000000010000000000000000031
:201FA000000000000000000000000000000000000000000000000000000000000000000021
:201FC000000000000000000000000000000000000000000000000000000000000000000001
:201FE00000000000000000000000000000000000240000000000001000000010000000009D
:202000000000000004041010000000000000081000000800202040000020000002000000D6
:20202000000000000020000000000000000000000000000000000000800000000000000000
:20204000000000000000000000000000000000000000B00000000000200000000000400070
:20206000000000000000000000000000000000000000000000000000000000000000000060
:20208000000000000000000000000000000000000000000000000000000000000000000040
:2020A000000000000000000000000000000010000000000000000000000000000000000010
:2020C000000000000000000000000000000000000000000000000000000000000000000000
:2020E0000000000000000000000000000000000000000000001000000000000000000000D0
:202100000000000004240010002000000200081000000800200040000000000000000000E5
:2021200000000000000000040000000000000000000000000000000000000000000020007B
:2021400000000000000000000000000000000000000040000000000000000000000000003F
:2021600000000000000000000000000000000000000000000000000000000000000000005F
:2021800000000000000000000000000000000000000000000000000000000000000000003F
:2021A000200000000000400004000000200004000200000000000000000000000000000095
:2021C0000010000000000000000000000000000000000000000000000000000000000000EF
:2021E0000000000000000000000000000000000000010800000000001000000020000000A6
:20220000000004000004001000200000200108140000000000000000000000000000000049
:20222000000000000000200000000000000000000000000000000000000000003000E0006E
:2022400010000000200000000000000000000000000020000000000000000000000000002E
:2022600000000000000000000000000000000000000000000000000000000000000000005E
:202280000000000800002000002000000000040000000000000000000000000000000000F2
:2022A0000200001020000004000000100004000000000800000000000000000000000000CC
:2022C0000000000000000000000000000000000000000000000000000000000000000000FE
:2022E0000001000000000000000000000000000002000000000000080000000000000000D3
:202300000000000000000000000000000000000000000000000000000000000000000000BD
:2023200000000000000000000000000000000000000000003000C00000000000F00090002D
:202340001000000000000000000000008000000010002000000000000000000000000000BD
:2023600000000000000000000000000000000000404404000002BB000F00807C7300730027
:20238000000000004C00002F23000000D0000000806F6F00640010008002570000282800D4
:2023A00006000006A9000050500000000F0018010001000000060000000700000000000092
:00000001FF
