:2000000050A500000000000020640000000000002008000000005500504000000000A900B1
:200020004250000000000000000000000000000300000000400000000000000000000200E9
:20004000FF0A00C000000000003000000000000000003600000000000000008400000000ED
:2000600000000000000A0C0101110202080003000400030000190004000001000000000023
:20008000000000000000001B0000020000010F1800060000000000000000001542030000BB
:2000A000000626000D0000000000000000000000000008000404040402930001000CF00C51
:2000C000000C000C404C404C9058000C0000000000000000000000000000000000000000FC
:2000E0000000000310250100050002000700006F086301101F4A0000060019000000060040
:200100000000200C07000000006F06000300181C04032060000000000000045432040000EB
:2001200000020006110000000000000000000302000000000404040403430001000CF00C42
:20014000000C000C404C404C9058000C00000000000000000000000000000000000000007B
:2001600000000000880020001F0000001C000300240080008F0050001300AC000200010054
:20018000000000001F000000000000001E0060008000010000000000000014002305000005
:2001A00000002006180000000000000000000000000008000400040C03330001000CF00CA6
:2001C000000C000C404C404C9058000C000000000000000000000000000000002062001564
:2001E000133D0C42040000081F000008000C20100F4010020000001402000101201C00003D
:20020000081C00003F1400081C4303201E180060010420030000000000000000000000001F
:2002200000000000000000000000000000000000010000000404000D334000010000000034
:2002400000000000000000000000000000000000000000000000000000000000000000009E
:20026000003F000000150000402A30000000000300000000060F0040000000305A0021008D
:20028000390044000000003F190062807080000C077008032000020000004054520300001E
:2002A00000200600060000000000000000000F00000000000404040422330001000CF00C95
:2002C000000C000C404C404C9058000C0000000000000000000000000000000001000000F9
:2002E0000000000001000000000000000000000001000000010000000100000000000100F9
:200300000000000000000000010000000000010000000000000000000000000000000000DB
:2003200000000000000000000000000000000000090004000404000444200001000000003F
:2003400000000000000000000000000000000000000000000000000000000000000000009D
:2003600000000000000000000000000000000000000000000000000000000000000000007D
:2003800000000000000000000000000000000000000000000000000000000000000000005D
:2003A0000000000000000000000000000000000000000200040400044430080100000000B2
:2003C00000000000000000000000000000000000000000000000000000000000000D000010
:2003E00008910302000D0100000D120000020C0D80000000010D0200040D0300E0820024ED
:2004000000C240080070E000200000700F0F10000070E08000000002000040500000000062
:20042000000000000000000000000000000000000900040004040004111000010000000081
:2004400000000000000000000000000000000000000000000000000000000000145C00002C
:200460009454200808087500B40C00504B5C3000801134220050000CB424001034008040E1
:20048000200002003F30400F0021001E7800070F4040803002000C80000050100000000091
:2004A0000000000000000000000000000000000000000228040400042220000100000000C3
:2004C00000000000000000000000000000000000000000000000000000000000000000001C
:2004E0000000000000000000000000000000000000000000000000000000000000000000FC
:200500000000000000000000000000000000000000000000000000000000000000000000DB
:200520000000000000000000000000000000000000000800040400044490000100000000D2
:2005400000000000000000000000000000000000000000000000000000000000000000009B
:2005600000000000000000000000000000000100000000000000000000000000000000007A
:2005800000000000000000000000000001000000000000000000000000000000000000005A
:2005A0000000000000000000000000000000000000000000040400004400000100000000EE
:2005C000000000000000000000000000000000000000000000000000000000000002020017
:2005E00000000850010000820200000580044000000801000010040040008000040000086C
:2006000008000020200010001000200000800040FF3E000100200000000010100000000014
:20062000000000000000000000000000000000000000023C0404000C4040000100000000E7
:20064000000000000000000000000000000000000000000000000000000000000200540242
:20066000620008000D0000000D00000002000D0000001000010032000D0000000D0000008A
:200680000D00000080000001800000000F0170000002800080000200000040000000000088
:2006A000000000000000000000000000000000004000040004040004422000010000000087
:2006C00000000000000000000000000000000000000000000000000000000000000000001A
:2006E0000000000000030000000000030001000200030000000300000000000000030000E8
:200700000000000300000000000000000000000100020000000000000000000000000000D3
:2007200000000000000000000000000000000000000008000404000E443000010000000026
:20074000000000000000000000000000000000000000000000000000000000004610000043
:2007600001015E0004C0200039000680800100C07707081842C1000046C1000046C1000086
:200780004222040800044600800800210F3F8080700008400A02300000004045000000002F
:2007A0000000000000000000000000000000000040000400040400040110000100000000D7
:2007C000000000000000000000000000000000000000000000000000000000000000000019
:2007E0000000000000000000000000000000000000000000000000000000000000000000F9
:200800000000000000000000000000000000000000000000000000000000000000000000D8
:20082000000000000000000000000000000000000000000004040004440000010000000067
:20084000000000000000000000000000000000000000000000000000000000000000000098
:20086000000000000000000000000000000000000000010000000003000102000000000071
:20088000000000000000000001000000000103000000000200000000000000000000000051
:2008A0000000000000000000000000000000000000000800040D0004499000010000000041
:2008C0000000000000000000000000000000000000000000000000000000000000C09F00B9
:2008E0007F1480081F10200C001CFF00901C40000011606280240010C00C0110C021029E96
:20090000C070040FC008080000000000FFC1000F00300000200200200000110042035000DD
:2009200006BEFD0C1FFFFFFF2200F008040000000000022004040404101100010000C0009C
:2009400040011011C001001140014001000000000000000000000000000000000180000060
:2009600007C01804227F08800190004008002100401F002004C0000801C0000201C00001A1
:20098000010000601000009F400000FF00FF3F00400000002800000000000401000000005D
:2009A000000000000000000000000000000000000300040004040004029000010000000091
:2009C000000000000000000000000000000000000000000000000000000000000000000017
:2009E0000000000000000000000000000000000000000000000000000000000000000000F7
:200A00000000000000000000000000000000000000000000000000000000000000000000D6
:200A2000000000000000000000000000000000007F00040004040004449000010000000052
:200A4000000000000000000000000000000000000000000000000000000000000000000096
:200A6000000000000000000000000000000000000000000000000000000000000000000076
:200A8000000000000000000000000000000000000000000000000000000000000000000056
:200AA00000000000000000000000000000000000000008000404000444900001000000004D
:200AC000000000000000000000000000000000000000000000000000000000000002000113
:200AE000350302000403030003002C000000000001001E0000000800000000000003000059
:200B0000000000030001000200030000000007023801000000000800000000004603100029
:200B2000020FCDEB3DFFFFFF2200F008040000000000080004040404419200010000C000E8
:200B400040011011C00100114001400100000000000000000000000000000000FFFFFF00E2
:200B6000FF0000000000000000000000FFFFFF00FF0000000000000000000000FFFFFF007D
:200B8000FF0000000000000000000000000000000000000000000000000000000000000056
:200BA0000000000000000000000000000000000000001F000F000004000000000000000003
:200BC000000000000000000000000000000000000000000F037F0000000000001601140059
:200BE0000000000000001201160100001E011400000000001C011E0014011C00000000002C
:200C0000000000000000000000000000000000008000000000000000000000000000000054
:200C20000000000000000000000000000000000000000000000000000000000000000000B4
:200C4000000000000000000000000000000000000000000000000000000000000000000094
:200C600000000000000000000000000001000000000080000000000000000000800000046F
:200C80000000000000000000000000000200000000000000000080000000000000000000D2
:200CA000000000040000002000002880000000000000080000000000000000000000000060
:200CC00004000000000000000000000000000000000000000000000001000400000000000B
:200CE0000000000000000000020000000000000000000000000000000000000000000000F2
:200D0000000000000000000080000000000010200000000800000000000008000000000013
:200D20000000000000000000000000000000000008000000000000000000000000000000AB
:200D400000000000000000000000000000000000000000004000000000000000000000084B
:200D600000000800000000000000000000000000000000000000008000000020800000202B
:200D8000080010000000000000000008020000000000000040008000000020000000000051
:200DA00000000C0000000000000000000000800000000000000000000000000000000100A6
:200DC0000E00010000000000010000000000000001000000030000000000030000000000FC
:200DE0000000020000000000040000000000000000000000000000000000000000040000E9
:200E00000000000000000010000000200000000000000000000000000000000000000000A2
:200E20000000000000000000000000000000000000000000000000000000000000000000B2
:200E4000000000000000000000000000000000000000000000000000000000000000000092
:200E6000000000000000000000000000000000000000000000000000000000000100001061
:200E80000000000000000000000000000000000000040010400000000000200000000000DE
:200EA00000000C0000000000000000000000000000000000000000000000000008000C0012
:200EC000000000000000000000000000000000000000000000000000000000000000000012
:200EE0000000000000000000000000000000000000000000000000000000000000000000F2
:200F00000000000000000000000000000000000000000000000000000000000000000000D1
:200F20000000000000000000000000000000000000000000000000000000000000000000B1
:200F4000000020000000000000000000000000000000000000000000000000000000000071
:200F6000000000000000000000000000000000000000000000000000000000000000000071
:200F80004000000000000000000000000000000000040010000000000000000000000000FD
:200FA00000000C0000000001000000000000800000000004000000000000000000000000A0
:200FC000000000000000000000000000010000000000000000000000000000000000000010
:200FE0000000000000000200040000000000000000000000000000000000000000000000EB
:20100000000000000000000000000008000000000000000000000000000000000000008048
:20102000000000000000000000000000000000000000000000008000000000000000000030
:2010400000000000000000000000000000000001000000000000000000000002000000008D
:2010600000000000000000000000000000000000000000000000000000000000000000026E
:20108000000000004004000000000480000000000000001000000000400000000000000038
:2010A000000008000000000000000010020000000000000000000000000000000000010015
:2010C0000000000002000000000008000000000001000100000000000000000001000600FD
:2010E0000000080000000400000000000000000000000000000000000000000000000000E4
:201100000000000000000000000000000000000000000000000000000000000000000000CF
:2011200000000000020000000000000000000000000000000000002000000000000000008D
:2011400000000000000000000000000000000000000000000000000000000000000000008F
:20116000000000000000000000000000000000000000000040000000000008000000000027
:2011800000000010000000000000000000000000000000000000000000000000000000003F
:2011A00000000000000000000000000000000000000000000000000000000000000000002F
:2011C0000000000000000800000008000000000000000000000000000100010000000000FD
:2011E0000000000000000000000000000000000000000000000000000000000000010000EE
:2012000011090200400C148000000820200000010000000000000000300008000000000051
:2012200020200000400020016000100220080402008080000000080000002C030000000036
:2012400008808008000000000020000400000000880214000100000400800000A100200076
:20126000040000100000000000000000000000000000000000000000000000002020040016
:2012800002012402020022401008080100000000000100154920800CA6013C00008480119D
:2012A000BA020002000000000000800018000000000000100000000000000000E8006F0071
:2012C0000C0000000000FD000700E200F0002000000013006F00000000000000D0000000BA
:2012E00084005100180001004A00A000000000000000000000000000000000004000046072
:20130000000000200400420410202A006010020000008088404020250000000002080202BC
:2013200000000000400000251000808024000541000001A800A0400600000000000000003F
:20134000000000000000000000000000000000000000000000000000800000000008504075
:2013600000000000000000000000000000000000000000000000000000000000800080006D
:201380000000108800200041000001A000B0480640002000400094690040000220000500B1
:2013A000010000200080000000210000010040001400000000000000000000002F00EF00F8
:2013C000BF0000000000DF00FF000F0000000000000010000F000000000000000900240015
:2013E00000004900080001000A004000000000000000000000000000000000000001000050
:2014000011200220400C0008002052002200000100040481000000000020101000000000C7
:2014200000000080400020000800C2102008000200001448000008091184040000000000C2
:201440000000000000000000000000000000000000000000A4010000000000500600084049
:2014600000000080000000000000000000000000000000004080000000000000000000002C
:201480000000004000000000004000001580440000000004090002654000100000C41D014D
:2014A00080020002000400000000002000004800101040040000000000000000F800F700E9
:2014C000FD0000000000F5007700F3000000000000003F008F0000000000000000000600DC
:2014E0000C005000000050003000400000000000000000000000000000000000500200205E
:20150000000000005000A10400002001201100000000008004004000000020001001040487
:2015200000008080801000280000000010004500000090008016000000000000D000002088
:2015400000000000410608020000000000401408000000000000000000800000000040001E
:201560000000000120358241000000004000010000000000000000002000000000000800E9
:201580000000000000000000080000200000000080118800200080088174008200000500E6
:2015A000680000208001000400000200001000000045001000000000000000000F00AF00F9
:2015C0008E000000000007003F000F0007000C0000001000180000000000200000000E00BF
:2015E0000C00400000000600100000000000000000000000000000000000000000822000E7
:2016000011000210402D0000000462008000000100203021000000001095400800000000F5
:201620000900842000820011800040084008200200009500000000000080A600000000007D
:20164000000000000000000004000010000000000000000000000000000000000400400032
:20166000200000000000000010802651000000000000020000000000000000000000000041
:2016800004001000000000000000000000800000202800152902000004058200002520114D
:2016A000008201000000000000A0000000000000200100100000000000000000FD00BF001A
:2016C000700000000000BB00FF00F00000000000000000004C0000000000000000000000A4
:2016E0000400010040001000000000000000000000000000000000000000000080000028ED
:20170000000140088000481408000A0040080A00000282000200400A00000000001001015E
:2017200000000000802000228C0080002000410010000108801100040000020000000000CA
:201740000000000000000000000000300000000000000000005400020000000040000001C2
:201760000000000000000000000000000000000002000000000000000000008001000000E6
:20178000020001200000000040000000000200000040010070000208050040A400000D80B3
:2017A00000050200000000800000000A000800004000010000000000000000005700EF0009
:2017C0009F0000000000BF00ED008F000000000000000F000900000000008000080042004D
:2017E0000400010000000800000022000000000000000000000000000000000006000002B2
:20180000020201180024400000208822008040000095000000000003000000100000000015
:20182000064D20100000001100010010002800000002041006804000A20600000000000057
:20184000000000000000000000000000000000000000000000000000004000000000000048
:2018600000000080000000000015C0000000000050000108000000000000000101000000B8
:2018800000020000100020010000000000C00082203900150900000014078200002000009F
:2018A000000901120000100000000000000000000A0000000000000000000000FD00FE00F7
:2018C000F90000000000CA00E600FB00000000000000100080000000000010000000A00024
:2018E00008000000000010002400000000000000000000000000000000000000400000006C
:201900000000C0080000080004000A00000A020000020200408008000008000006040100FE
:201920000000000001100000140080208001100000000108A800000008000200040400008E
:2019400000000000010100000000000080000000000000000000000000400026000000009F
:2019600000800080280180000000000000000000000000000000000000000000000004209A
:20198000400004040401024000000000A8002000000183002010000001000084000008802F
:2019A000280502000000000000000000000080000400000000000000000000005100E20041
:2019C0009D00000000007C00CD00CE00060008000000F000900000000000000000000200C3
:2019E000080084000000000000000000000000000000000000000000000000000002000257
:201A00002005020000290000001062001000400000488440000000000000604010001000E8
:201A200080202000100200001010008200280006000220048080600000012020004000807D
:201A4000000000000000000000000000000000000000000080000000000000000200000004
:201A60000000005500000000000000000000000000000000040000000000000010000000FD
:201A800000000040000010000000040000000002000000008100004002000000000000002D
:201AA00000000000000000000200000080000000000000000000000000000000F900FE00AD
:201AC000FC0000000000F300E700AC000000000000000800F8000000000002000000600022
:201AE0000100000000000000020000000000000000000000000000000000000084100080CF
:201B0000400004004040A10000004A2000002121400000200452008000284200804610211D
:201B20000000000010520100000000002802400000000000A008000100000000000000002F
:201B4000002800000000000000800000000000000000041090002080000000400000000059
:201B60000000800000000000000000000000000000000000200000000080000080000000C5
:201B8000400000000000004000000000E010000000816200208000000110842400002C006D
:201BA00000050310000000005080000040000000000000000000000000000000CF00FD0031
:201BC0005F00000000000F000F000F0060001000000018001000000000001400000040008D
:201BE000000002008000000000000000000000000000000000000000000000000000000063
:201C0000000000000100000000000041000000000000000000000000000000000000000082
:201C20000000000000000000000000000000000000000000000000000000000000000000A4
:201C400000000000000000000000000000000000000000000000000000000000500008002C
:201C60002000000000000000000000000000000000000000000000000000000010000A002A
:201C8000402004000005020000004A20010000000081002410000000E08008000409000044
:201CA0000000001A00100000000088000000100000200500A0100000000000280409000058
:201CC0000000001A000020000000000850000000000008004000000000000000000000002A
:201CE000000000000000000004400000000000000000000000000000000000000080000020
:201D000000000000000000002440000000000000000000000000000000000000000000005F
:201D200000000000000000000000000000000000000000000000000000000000C300FD00E3
:201D4000F100000000005400E4006C00E700000000000800000000000000000000000800F7
:201D6000200000000000000000000000000000000000000000000000000000000000000043
:201D8000000000000000000000000000400000002000000000000000000000800000000063
:201DA000000000000000000000000000000000000000000000000000000000000000000023
:201DC000000000000000000000000000000000000000000000000000000000000000000003
:201DE000008100000000000000000000080000000000001000000010000000000001000039
:201E00000000000004000000008000000000000000000000000000106000000008000010B6
:201E20000400008004001000402000000000000000000100000000000000000000000000A9
:201E40003000800000000000000000000000000000008000800000008000600000002000D2
:201E60000000000030008000100000000000000000000000000000000000000000000000A2
:201E8000000000000000000000000000000000000000000000000000000000000000000042
:201EA000002000000000000000000000000000000000000000000000000000000000000002
:201EC000000000000000000000000000000000000000000000000000000000000000000002
:201EE0000000010000000000000000000000000000000000000000000000000020000000C1
:201F00000800008800000000000000100400000000001000000000002000000800000010D5
:201F2000040000004000000000000000000000000000000400000000000000000000000059
:201F4000000000002000000000000000000000000000000080000000000000000000500091
:201F60003000000080000000000000000000000000000000000000000000000000000000B1
:201F80000000000000000000000000000000000000000000800000000000000000000000C1
:201FA000000000000000000000000000000000000000000000000000000000000000000021
:201FC000000000000000000000000000000000000000000000000000000000000000000001
:201FE000000000000000000000000000000000000000000000000000000000000080000061
:2020000000000000000000000000020004000000000010000000000420000208000000106C
:20202000048000000800000000000000001000000000000000000000000000000000000004
:20204000000010000000000000000000000000000000000000000000000000000000000070
:202060000000800000000000000020000000000000000000000000000000000000000000C0
:20208000000000000000000000000000000000000000000000000000000000000000000040
:2020A000000000000000000000000000000000000000000000000000000010000000000010
:2020C0000000000000000000000000000000000000000000080000000000000000000000F8
:2020E0000000000000000000000000000000000000000000000000000000000000000000E0
:2021000000000000000100000000000004000000002100000000000420000208000000105B
:2021200004800000000000000000000000000000000000000000000000000000000000001B
:2021400000000000000000000000200000000000000040000000000000000000000000001F
:2021600000000000000000000000000000000000000000000000000000000000000000005F
:2021800000000000000000000000000000000000000000000000000000000000000000003F
:2021A0000000000000000000000000000080000000000000000100000000044000000080DA
:2021C0000000000000000000000000000010000000000000000000000000000000000000EF
:2021E00000000000000000000000000000000000000000000000000000000000000000409F
:20220000000000C00000000000000080040004000000000000000004200002C80000001078
:20222000040000000000000000000200200000000000000000000000000000000000000078
:2022400000000000000000001000E00010000000200000000000000000000000000040001E
:202260000000C000000040000000000000000000000000000000000000000000000000005E
:20228000000000000000000000000000000010000000000404000000000004000000000022
:2022A00000000000000000000000000000000240000000880000200008000000000002002A
:2022C0000000000000000000000000000000000000000000000000000000000000000000FE
:2022E0000000000000000000000000000400000000000000000000000000000004000010C6
:2023000000002000000010000000000000000000000000000000000000000000000000008D
:2023200000000000000000000000000000000000000000000000000000000000000000009D
:202340003000C00000000000F000900010000000000000000000000080000000000010006D
:20236000000080000000000000000000000000000000000000000000000000004044040055
:202380000002BB000F00807C73007300000000004C00002F23000000D0000000806F6F00C3
:2023A00064001000800257000028280006000006A9000050500000000F0018010001000002
:2023C0000006000000070000000000000000000000000000000000000000000000000000F0
:00000001FF
