:2000000050A500000000000000020000000000002024000000000000202000000000550010
:20002000101000000000A90022400000000000000000000000000003000000004000000052
:200040000000000000000200BF0200C0000000000030000000000000000087000000000066
:200060000000008401000001010000000100000000000000010000000000010001000000F5
:20008000000002000000000000000000000000000100000002010000000001000000000059
:2000A000000000000000000000000000000000000000000000000000010000000404000C2B
:2000C00044400001000000000000000000000000000000000000000000000000000000009B
:2000E000000000000000000000000000000000000000000000000000000000000000000000
:200100000000000000000000000000000000000000000000000000000000000008000000D7
:20012000000004006103500004BCFDE02FFFFFFF2200F008040000004000040004040404CC
:20014000442200010000C00040011011C001001140014001000000000000000000000000C2
:20016000000000000011010E00000000006C00000100002F0024000001310002002C0140FE
:20018000006C000000640008000800100040002C00000040000F014000000031000000C082
:2001A0000000040436050000002060000A000000000000000000000000000800040404045A
:2001C00024930001000CF00C000C000C404C404C9058000C0000000000000000000000003B
:2001E0000000000000000000000000000000000000000000000000000000000000000000FF
:200200000000000000000000000000000000000000000000000000000000000000000000DE
:200220000000000000000000000000000000000000000000000000000000000004040000B6
:20024000440000010000000000000000000000000000000000000000000000000000000059
:2002600000000000000004000000080010002000020000000000010020001000000002000D
:200280000400000080004000010000000800000140008000000000010000FF0000000000D0
:2002A0000000400000000000000000000000000000000000000000000000023E0404000CAA
:2002C00040400001000000000000000000000000000000000000000000000000000000009D
:2002E0000000000000080003000100020000000000040003000000000000000C00000001DC
:2003000000000000000000000000000000000012000000000000000F0010000000000000AC
:200320000000000000000000000000000000000000000000000000000300040004040004AA
:200340001490000100000000000000000000000000000000000000000000000000000000F8
:20036000000000000000000000040010000000000000000300000000000300000004000857
:200380000018000000010000000200000008000400000000001C0003000000000002000015
:2003A000000000043206400005CEF0DB3BFFFFFF2200F008040000000900040004040404B0
:2003C000241100010000C00040011011C00100114001400100000000000000000000000071
:2003E0000000000000000000000000000000000000000000000000000000000000000000FD
:200400000000000000000000000000000000000000000000000000000000000000000000DC
:200420000000000000000000000000000000000000000000000000000000020004040004AE
:2004400044300801000000000000000000000000000000000000000000000000000000001F
:20046000000000000000000B0A0000001E0000000000010000000000000000040000180329
:20048000000300001E090000140200080000000000001E001807010C0600000000000000C4
:2004A000000011050000000000000000000000000000000000000000000008000404000C0A
:2004C0000430000100000000000000000000000000000000000000000000000000000000E7
:2004E0000000000000000070080903260002000000060C00000200040041000E00000206E1
:20050000007000000106020004040300001701080006000000000070000F0F08002000007B
:2005200000000044000000000000000000000000000000000000000009000400040400045E
:20054000222000010000000000000000000000000000000000000000000000000000000058
:200560000000000000C000010B0020FF0A8011007590004008003460027F01800000009F73
:20058000751F002005C00A0275C0000475C00008340041003CFF03004000000000000A0063
:2005A0000000100100000000000000000000000000000000000000000000022C04040004F0
:2005C0000220000100000000000000000000000000000000000000000000000000000000F8
:2005E000000000002001180018002501080133000000000000000001000000010001000045
:200600000001010000000000000000002E0010000000000038000000000107000000020058
:200620000000000045020000000260000900000000000000000000000000000004040400FC
:2006400042030001000CF00C000C000C404C404C9058000C00000000000000000000000028
:20066000000000000001000000000001000100000000000000010000000000010001000074
:20068000000100000000000000000000000000000000000000000000000000010000000058
:2006A000000000000000000000000000000000000000000000000000000008000404000426
:2006C000449000010000000000000000000000000000000000000000000000000000000045
:2006E00000000000040000002200080640FD000201CE00314077008801BF004010FF8000B9
:20070000010000000710180108202101010000060108008040783F04800300800A000000C6
:200720000000040000000000000000000000000000000000000007000000000004040004A2
:20074000323000010000000000000000000000000000000000000000000000000000000036
:20076000000000000402000D0100000000000000000D000000000000040D0000000203083A
:20078000000D0000000D000000020004040D000000010002010F020004000000000000020D
:2007A000000010000000000000000000000000000000000000000000000008000C0400040D
:2007C000149000010000000000000000000000000000000000000000000000000000000074
:2007E000000000000600004004000202060000010004000000100000000006040600002060
:2008000002000408060000100008000000200100000100000200047C0103000000080000FC
:200820000000000400000000000000000000000000000000000003020000000004040004A3
:200840009440000100000000000000000000000000000000000000000000000000000000C3
:20086000000000000000000002000000000000000000000000000000000000000000000076
:200880000000000000000000000001000200000000000000010000000000020080000000D2
:2008A0000000400000000000000000000000000000000000000000000000080004040004E4
:2008C000449000010000000000000000000000000000000000000000000000000000000043
:2008E00000000000040000001C00000000001C0000000000020000001000000000000800A2
:2009000000000100020000000200000000000000000000001C0000000100020000000000B3
:200920000000410000000000000000000000000000000000000000007F00040004040004E7
:200940004390000100000000000000000000000000000000000000000000000000000000C3
:200960000000000000176008800D00127F2080000020000090004005001EFF0100209F0068
:200980001F002000C0200200C0000800C0100402C00001200020FF03001800040000000079
:2009A0000000040100000000000000000000000000000000000000004000040004040004E2
:2009C0003010000100000000000000000000000000000000000000000000000000000000D6
:2009E000000000000000000000000000000400030000000000000000000B00540065000A22
:200A0000000000100000000000000000000000000001003E00080007000000700000000800
:200A200000000001000000000000000000000000000000000000000000000228040400047F
:200A4000141000010000000000000000000000000000000000000000000000000000000071
:200A6000000000003100420024000800C00000002C0000002C0000002400000040002F002C
:200A80002C0000000800100011008E0000002C00000000000F00C10031000000080030000E
:200AA00000000000000000000000000000000000000000000000000000000000040400002E
:200AC0004100000100000000000000000000000000000000000000000000000000000000D4
:200AE0000000000004160000412900161022001041160000000640100810210622400800C4
:200B000007041800414000000131000E40120004011740280040400F00303F00800A002073
:200B2000000044000000000000000000000000000000000000000000000000000404000069
:200B4000100000010000000000000000000000000000000000000000000000000000000084
:200B60000000000000000000FF0000000000000000FF000000000000FF0000000000000078
:200B800000FF000000000000FF0000000000000000FF000000000000000000000000000058
:200BA00000000000000000000000000000000000000000000000000000000403001F00000F
:200BC0000F00000000000000000000000000000000000000000000000000007F000F000078
:200BE000000000001A0114000000000000001A011A0000001E0114000000000014001E012B
:200C00001E001C010000000000000000000000000000000000000000000040000000000059
:200C20000000000000000000000000000000000000000000000000000000000000000000B4
:200C4000000000000000000000000000000000000000000000000000000000000000000094
:200C6000000000000000000000000000000000000000000000000000000000004000000034
:200C8000000000000000000000000800000100000100000000010000010000004000000008
:200CA000000048000000000000000000000400200000000040000000000400000000000084
:200CC000000000000000000004000000000000000000000000000000000000000000000010
:200CE0000100000000000000080001000900000000000000000000000000000000000000E1
:200D000000000000000000000000000000000000001000000008002000010000000000009A
:200D2000000000800000000000000000000000000000000000000000000200000000000031
:200D400000000000000000000000000000000000000000000000000000000000000480000F
:200D600000000000000000000000080000000000000000000000000000000000000000105B
:200D8000010000000000000000020000400008000000001000008000002000000000000058
:200DA000000040004000000000000080000000000000001000100000000000000000000013
:200DC00000000000000001000E0001000000000001000000000000000100020001000000FE
:200DE0000000030008000400000004000000000000000400000000000000000000000000DC
:200E00000000000000000000000000000001000000000010000000000000000000000000C1
:200E20000000000000000000000000000000000000000000000000000000000000000000B2
:200E4000000000000000000000000000000000000000000000000000000000000000000092
:200E6000000000000000000000000000000000000000000000000000000000000000000072
:200E8000000000000000400000000000000000000000000000000000000000000000000012
:200EA0000000400040000000000100800000000000000080000000000200000000000000AF
:200EC0000000000000000C0000000000000000000000000000000000000000000000000006
:200EE0000000000000000000000000000000080000000000000000000000000000000000EA
:200F00000000000000000000000000000000000000000000000000000000000000000000D1
:200F20000000000000000000000000000000000000000000000000000000000000000000B1
:200F400000000000000000000002000000000000000000000000000000000000000000008F
:200F6000000000000000000000000000000000000000000000000000000000000000000071
:200F800000000000000000000000000000020000000000000000000000000000020000004D
:200FA000000040004000000000010000000000000000200000000000000000000000000090
:200FC000000000000000000000000000000000000000000001000000000000000000000010
:200FE0000000000000000000040000000000000000000000000000000000000000000000ED
:201000000000000000000000000000000000000000100000000000000000000000000000C0
:20102000000000008000000000000000000000000000000000000000000000000000000030
:20104000000000000000000000000000000000000000000000002000000000000000000070
:20106000000000000000000040000000000000000000000000000000000000000000000030
:2010800000000000004000000410000000000000000000000000000000400000420000007A
:2010A00000004000000000000401000000000000000000004000400000000000000000006B
:2010C000000000000000010000000000020000000000000000000000040000000100000008
:2010E0000000000000000000000000000100000000000100000000000000000000000000EE
:201100000000000000000000000000000000000000000000000000000000000000000000CF
:2011200000000000000000000000000002000000000000000000000000000000004000006D
:2011400000000000000000000000000000000000000000000000000000000000000000008F
:2011600000000000000000000000000000000000000000000001000004000000000000006A
:2011800000000080000100000000000000000000000100800000000000000000000000004D
:2011A00000000000000000000000000000000000000000000000000000000000000000002F
:2011C0000000000000000000000000000000080000000800000000000000000000000000FF
:2011E0000100050002000800000000000000000000000000000000000000000000000000DF
:2012000000000000840200080400266000004411000A040200188000019200080012040BFD
:201220000004004000000000081C0048200001000000244248010000010090040040080051
:201240008028021100000000000000000000000000000000000000000000000000000000D3
:2012600000000000000000000000000000000000000000000000000000000000000000006E
:20128000000000000018400000000008000002200000000000D240000800000060010F241E
:2012A000001400404802900000080001000000000008000008010100004040000000000065
:2012C00000000000FF00FF00FE0000000000F300FB00FA000000000000000000000000002A
:2012E00000000000000080001200A000C0002500A000000000000000000000000000000037
:201300000000000000084000240120000010200020400010000004000000801000084800BC
:2013200004000005000100000010080000404508A00060004008100000810014800200008F
:2013400080208108000000000000000000000810000000000000000000000000200000002C
:201360000000000002000008000000000000000004C000000000000000000000004000005F
:201380000000000000001500000000044008000000000081A08001000C00680020C10014E1
:2013A00002000080E000000800400800200000000020840020004809000000010000000045
:2013C000000000007C00E600520000000000FF00FE00F90000000000000004000C00000053
:2013E000000008000000450010008400000007000000000000000000000000000000000005
:20140000000000000040000008100040412001080008400A0800010800020224000000003F
:201420000000200000004050050165000000000100004208001840100000042100000010A9
:20144000851000000002800000000000000000000000000000000000000000000000000075
:2014600000000000000000100004A080409240240000000000000200000000000000000000
:20148000000000000000000000000000000004010231000400000000004009C821002D09A8
:2014A000020100100002800C080965000000000C00000020000002000000000300000000E4
:2014C000000000007100FB00F70000000000B800EE00F4000000000000000000F20000001D
:2014E000000000001000E000480030004000080040000000000000000000000000000000FC
:20150000000000002A00000028090000400024402046000000080002002040040020008157
:201520008002004100000000000000000000000020000001200108000001084024880002A7
:20154000040000800000000000000000000000000000000000000000000000000610800071
:201560000000008180800408040600000000000000000000000000000000000000000000D4
:20158000000000000096000000000000055000045100004020808141060048884081045678
:2015A00080088000B004000440420880080100004000020000000000008000800000000016
:2015C000000000007E00FF007C00000000005000D7005F000000000000009F00EF000000FE
:2015E00000000000100000000800000004000A0000000400000000000000000000000000C1
:201600000000000000000100000101008100810800200100084000082040080800000000DC
:20162000000000000000000000000060A000000014000080002050000020084000400108F5
:201640000480000000000000000900100000000080048600000000000002240400000000B9
:20166000000402500000000000400200000000000000000002000000000000000000400090
:20168000000000000000004080000010004040400000490004002000000000021420000116
:2016A000030003400040088802002402000408000040000080240200000840800000000032
:2016C000000000009100CB00E70000000000E3007C005B00E00030000000F000900000007D
:2016E000000001009000200041008000600080000000880000000000000000000000000010
:201700000000000084200040242141000000000021022A00200048100081005500000000C4
:20172000000001002008100020000000080000000000000800081000002104400200800839
:20174000840000100000000000000000000000000000000000000000000000009000000065
:20176000000800000000008000000080000000008000221900000000008001040000000021
:201780000080000000000040000000000000040004000040000080412401401010010442B4
:2017A0000100000000040404604003000080000300000500000009080002000000000000DE
:2017C00000000000FF00F000FE00000000002400F6007B000000000000004C0081000000BA
:2017E0000000100000002000000080000000860001000800000000000000000000000000AA
:20180000000000000008080200440000000000080000000810808000880000080000602042
:20182000024000000004004024004008100000800060011020008800040410421200002081
:20184000A6000000000000000000000002000100000000000000000000000000000080005F
:201860001006800000008000000000820000000000000000000000000000000000000100CF
:20188000000000000000180200000040100000000412000002440128240060400810080174
:2018A000972401087040180C0200A4A00040000004001008000C00000020000000000000C2
:2018C00000000000A70042007D0000000000F300FE00F100000000000000F8009800000030
:2018E0000000080020000000200040002000000002006000000000000000000000000000DE
:201900000000000004A20000240100000100042201000810204000100040004000001000BC
:201920000000000010400142000000000808404020400000801000090021000000900504D1
:2019400084000010000010000000000000020A0000000000000000100000000080008100C6
:2019600000000000A20000040000000000000000000000000000000000000000200000049D
:20198000000000000000040012000000000000100004110000102002348140100839404113
:2019A0000100000080000040004005080010000008000A00000100010200000000000000F3
:2019C000000000007F007F008700000000005F00AF007D0002000C00000001000F000000D9
:2019E0000000000000004800200004000000080000000C0000000000000000000000000067
:201A000000000000042200000004020800000200000882000400000080400014000202002A
:201A20002038800008000000000200000000000000100D0001801400A00500000028010044
:201A4000244002000000402000000000000000480000000020000000000000000000000058
:201A6000000000000240000000020000000000000050271400000000400002000000000055
:201A80000000000000008010000001000000031020000004022808002040200008010001C2
:201AA0009144031800C00808020A2584000000000000000009900000000000000000000018
:201AC00000000000EE00B100F20000000000E000FF00F70005000800000000008000000012
:201AE00000000000600082000600800000000000200000000000000000000000000000005E
:201B00000000000004200040242108001100000211000A1004200010000000400000200042
:201B200002018001000000008000004011000000010008000401000000010440A400000059
:201B4000040100100042000800000000020A28000000000000214000000000000000000091
:201B6000004040001020420000000000000000000000000000000000000000000000000073
:201B8000008000000000004001020000801020000002000000000000204020000000000050
:201BA000010000000000000000104000004000000000000001000000000000000000000093
:201BC000000000007E00FB008200000000005A00D300EE000B000C00000010000F000000B9
:201BE0000000100000000600000000000000000000000000000000000000000000000000CF
:201C000000000000000001001005020000A02000000A0208290000008040001800000000D7
:201C2000101100000200000002500A0008100000122000800180140400002A00042801006B
:201C400000A00400000000000000000000200400000000000000000000000000004000007C
:201C60000080000000000000000000000000000000000409000000000000000000000000D7
:201C800000000000101000000000000000800000242000040000000000000000000000005C
:201CA000000000000000000000000000000000000000000000000000000000000000000024
:201CC00000000000F100F700F70000000000F000EF007700000000000000180000000000B7
:201CE000000000006400100050000000000000000000000000000000000000000000000020
:201D0000000000000000000000000000000040001010100000000000000000000000000053
:201D20000000000000000000000000000000000000000000000000000000000000000000A3
:201D4000000000000000000000000000000000000000000000000000000000000000000083
:201D6000000000000000110000000000000000000000000000000000000000000000000052
:201D80000000000000000000000000000000000000000000000020000000800000000000A3
:201DA0000000008000000000000000000000000000000000000000000000000000000000A3
:201DC000000000000000000000000000000000000000000000000000000000000000000003
:201DE0000000000000000002000002000000000000000000000000000000200010000002AD
:201E000000000000000000000000000100002000000082000000000000000000100000000F
:201E200000000000000000020000208000101002100000400000000000000000000000008E
:201E4000000000000000000030008000000000000000000000000000000040008000000012
:201E60008000600000000000000010000000A0002000400000000000000000000000000072
:201E8000000000000000000000000000000000000000000000000000000000000000000042
:201EA0000000000000000000004000000000000000000000000000000000000000000000E2
:201EC000000000000000000000000000000000000000000000000000000000000000000002
:201EE0000000000000000000000000000000000000000000000000000000000000000000E2
:201F00000000000000000000000000800000000000002000000000000000104000100000C1
:201F2000000000000000000000400000000000000008004000000000000000000000000019
:201F4000000000000000000000000000200000000000000000000000000000000000000061
:201F6000000000000000000010000000000010001000000000000000000000000000000031
:201F8000000000000000000000000000000000000000000000000000000000000008000039
:201FA000000000000000000000000000000000000000000000000000000000000000000021
:201FC000000000000000000000000000000000000000000000000000000000000000000001
:201FE0000000000000000000000000000000000000000000000008000000000000000000D9
:20200000000000000001000000000000000009000000000000000000000011C000100000D5
:20202000000100000000000000400000000000040001002000000200000000000000000038
:20204000000000000000000000001000000000000000000000000000000000000000000070
:20206000200000000000200000000000900000000000100000000000000000000000000080
:20208000000000000000000000000000000000000000000000000000000000000000000040
:2020A000000000000000000000000000000000000000000000000000000000000000000020
:2020C0000000100000000000000000000000000000000000000000000000000008000000E8
:2020E0000000000000000000000000000000000000000000000000000000000000000000E0
:20210000000000000000000000040000004000000800000000010000000801C00010000495
:2021200000010200000000000000002000000000400000000000000000000000000000003C
:2021400000000000000000000000000000000000000020000000000000004000000000001F
:2021600000000000000010000000000000004000000000000000000000000000000000000F
:2021800000000000000000000000000000000000000000000000000000000000000000003F
:2021A000000000000000000000000000000000000000000000000000000000000008000017
:2021C00080000400000000200000000000000000000000000000000000000000400000001B
:2021E0000000000000000000000000000000000000000000000000000000000000000000DF
:20220000000000000000000040000000000000000000000000010400000001C000100004A4
:2022200000010200000000000000000000000020000000000000000000000000000000007B
:20224000000000000000000000000000000000000000E0001000000080000000000000000E
:2022600000000000000000000000100000000000000020000000000000000000000000002E
:20228000000000000000000000000000000000000000000000010000000000040010000029
:2022A000000004000000000000000000000000000000000000010020000001200000008058
:2022C0000000010000000200000000000000000000000000000000000000000000000000FB
:2022E00000000000000000000000000000000000000000000000004000000000000000009E
:2023000000000000000000200000000000000000000001000000000000000000000000009C
:2023200000000000000000000000000000000000000000000000000000000000000000009D
:2023400000000000000000003000C00000000000F0009000100000000000000000000000FD
:2023600080000000000080000000000000000000000000000000000000000000000000005D
:2023800000000000404404000002BB000F00807C73007300000000004C00002F2300000069
:2023A000D0000000806F6F0064000000800257000028280006000006A9000050500000000D
:2023C0000F00180100010000000600000007000000000000000000000000000000000000C7
:00000001FF
